:020000022000DC
:1060000000000120996202003D6202003F6202002E
:10601000416202004362020045620200000000008B
:1060200000000000000000000000000047620200C5
:1060300049620200000000004B6202004D62020053
:106040000D15030051620200C51A030055620200DB
:106050005762020059620200E51703005D62020008
:106060005F62020061620200636202006562020018
:1060700067620200696202006B6202006D620200E8
:106080006F620200FD40030073620200756202004D
:106090003D41030079620200619503007D620200C8
:1060A0007F62020081620200836202008562020058
:1060B0008762020089620200000000000000000008
:1060C0008B6202008D6202008F6202009162020008
:0C60D000936202009562020097620200D9
:1060DC00364937480A1A02D0072291438D46354972
:1060EC0035480A1A06D00722914381F30988022207
:1060FC0082F3148831483249324A00F045F832486C
:10610C003249334A00F040F832483349334A00F000
:10611C003BF833483349344A00F036F833483449B5
:10612C00344A00F031F834483449354A00F02CF840
:10613C0034483549354A00F027F8354835490022AE
:10614C0000F02DF834483549002200F028F8344886
:10615C003449091A082903DB00220260043001606B
:10616C00314A90471F482049884205D002680430C4
:10617C0003B4904703BCF7E700208646EC460020AA
:10618C0000212A4A9047FEE7884207D0521A05D0D0
:10619C00037801300B700131013AF9D17047884214
:1061AC0002D002700130FAE77047000000000120B5
:1061BC0000E00020000001200000012040D303007B
:1061CC002C22002020260020F4620200F46202003F
:1061DC00E2A0030040D303002C2200202C2200203C
:1061EC006CA203006CA203006CA203006CA203005F
:1061FC006CA203006CA203006CA203006CA203004F
:10620C0040D3030034D70300202600202026002092
:10621C00202600201C3B00201C3B00201C3B0020A7
:10622C001C3B00201C5B0020C362020011740200A6
:10623C00FEE7FEE7FEE7FEE7FEE7FEE7FEE7FEE72A
:10624C00FEE7FEE7FEE7FEE7FEE7FEE7FEE7FEE71A
:10625C00FEE7FEE7FEE7FEE7FEE7FEE7FEE7FEE70A
:10626C00FEE7FEE7FEE7FEE7FEE7FEE7FEE7FEE7FA
:10627C00FEE7FEE7FEE7FEE7FEE7FEE7FEE7FEE7EA
:10628C00FEE7FEE7FEE7FEE7FEE7FEE7034885468E
:10629C0000F002F8FFF71CBF70470000000001205F
:1062AC000C4880470C484FF0070188438546094845
:1062BC008047FFF70DBF094809490A4A884207D0B1
:1062CC00521A05D0037801300B700131013AF9D123
:1062DC0070470000A56202000000012058A20300D4
:0862EC00182200202C220020E2
:1062F40076DF704700BF18467ADF704700BF184644
:106304007CDF704700BF18468FDF704700BF184618
:1063140033DF704700BF184600B585B00190009187
:10632400009B1B68082B28BF082302934FF6FF70BD
:1063340008F0BCF80346ADF80E30009B00221A604A
:1063440012E0009B1B68591C009A11605B00019AC3
:106354001344BDF80E201A80BDF80E30184608F01C
:10636400A5F80346ADF80E30BDF80E304FF6FF72B7
:10637400934204D0029B5A1E0292002BE1D100BF2B
:1063840005B05DF804FB000000B583B00D4A0E4B68
:10639400D31ADB081B0443F003030C49184612F01C
:1063A40081F908F0C9F80190019B0093009B002B30
:1063B40004D0074ADF2100980CF042FF00BF03B06D
:1063C4005DF804FBB0A1030088A1030024A303002B
:1063D40034A3030000B587B003468DF807309DF859
:1063E4000730002B02D0FFF7CFFF41E010224FF619
:1063F400FF71214813F010FE204B08221A601F4938
:106404001D48FFF789FF1D4B1B6819461A4807F002
:106414008BFF0590059B0493049B002B04D0184A22
:10642400F62104980CF00CFF144B1B681946124813
:1064340007F0C2FF0590059B062B09D0059B03932B
:10644400039B002B04D00E4AFD2103980CF0F8FEA8
:1064540003210C4802F070FE0590059B0293029BF9
:10646400002B05D0064A40F2011102980CF0E8FE18
:1064740000BF07B05DF804FBAC280020BC28002056
:1064840034A303005026002000B587B00190019882
:1064940006F0B0FA019806F013FB019B1B78082B59
:1064A4001FD00C2B19D0022B00D05EE0019B9A88E0
:1064B400304B1A80019B5B8819462F480AF028FC50
:1064C4000590059B0293029B002B4BD02B4A40F274
:1064D400191102980CF0B4FE44E00020FFF77AFF93
:1064E40043E0019B1B7C03F00103DBB2002B3BD098
:1064F400019B1B7A072B37D1214B1B68072B33D801
:106504001F4B1B685A1C1E490A601A4A11881D4AEF
:1065140022F813101A4B1B6819461A4807F04CFF4F
:106524000590059B062B0AD0059B0493049B002B26
:1065340005D0124A40F2351104980CF081FE104B3C
:106544001B6819460F4807F0EFFE0590059B03935F
:10655400039B002B08D0094A40F2391103980CF030
:106564006FFE01E000BF00E000BF00BF07B05DF8B0
:1065740004FB00BFA82800202C22002034A3030021
:10658400BC280020AC28002000B583B00190054A47
:106594004FF4A57101980CF053FE00BF03B05DF8F1
:1065A40004FB00BF34A3030000B583B00190804A0C
:1065B400804BD31ADB081B0443F003037E491846BF
:1065C40012F070F87A4A7B4BD31ADB081B0443F0B1
:1065D40003037A49184612F065F8754A754BD31AC5
:1065E400DB081B0443F00300019B1B7B1A46744B1E
:1065F40053F822301A46734912F062F8019BDB7992
:10660400002B0BD16A4A6B4BD31ADB081B0443F0F3
:1066140003036D49184612F045F80CE0644A654BD3
:10662400D31ADB081B0443F00300019BDB791A46F1
:10663400664912F045F85E4A5E4BD31ADB081B0428
:1066440043F00300019B9B791A46614B53F82230B7
:106654001A46604912F034F8019B9B88002B0BD139
:10666400534A544BD31ADB081B0443F003035A491F
:10667400184612F017F80CE04D4A4E4BD31ADB08BB
:106684001B0443F00300019B9B881A46534912F0F4
:1066940017F8474A474BD31ADB081B0443F003039C
:1066A4004F49184611F0FEFF414A424BD31ADB080A
:1066B4001B0443F00300019B1B7A1A46494911F05D
:1066C400FFFF3B4A3B4BD31ADB081B0443F0030098
:1066D400019B5B7A1A46444911F0F2FF344A354B68
:1066E400D31ADB081B0443F00300019B9B7A1A4670
:1066F4003E4911F0E5FF2E4A2E4BD31ADB081B044A
:1067040043F00300019B9B7B1A46394911F0D8FFE3
:10671400274A284BD31ADB081B0443F003033549EB
:10672400184611F0BFFF224A224BD31ADB081B0480
:1067340043F00300019B1B7CC3F3C003DBB21A4686
:106744002D4911F0BDFF1A4A1A4BD31ADB081B045A
:1067540043F00300019B1B7CC3F38003DBB21A46A6
:10676400264911F0ADFF124A124BD31ADB081B0461
:1067740043F00300019B1B7CC3F34003DBB21A46C6
:106784001F4911F09DFF0A4A0A4BD31ADB081B0468
:1067940043F00300019B1B7CC3F30003DBB21A46E6
:1067A400184911F08DFF00BF03B05DF804FB00BF72
:1067B400B0A1030088A1030098A30300A8A30300C9
:1067C40000250020B0A30300C4A30300DCA303003E
:1067D40020250020F0A3030004A403001CA403004C
:1067E40030A4030038A4030048A4030058A4030001
:1067F40068A4030088A403009CA40300B4A40300B9
:10680400CCA40300E4A4030000B583B00DF09AFC0B
:106814000190019B0093009B002B05D0044A4FF488
:10682400C97100980CF00CFD00BF03B05DF804FBC7
:1068340034A3030000B587B001900091009B1B783E
:10684400042B78D801A252F823F000BF6568020037
:10685400A5680200ED6802000569020023690200D0
:10686400394A3A4BD31ADB081B0443F00303384973
:10687400184611F017FF009B5988009B04331A46F1
:10688400344813F087FA0590059B0393039B002B70
:1068940053D0314A4FF4D47103980CF0D1FC4CE03E
:1068A400294A2A4BD31ADB081B0443F003032B4960
:1068B400184611F0F7FE009B5B884FF6FF72934277
:1068C4003DD0009B5B8813211846FFF711FD05900E
:1068D400059B0493049B002B31D01F4A40F2B31153
:1068E40004980CF0ADFC2AE0174A184BD31ADB08C5
:1068F4001B0443F003031A49184611F0D3FE1FE0AA
:10690400114A124BD31ADB081B0443F00303154945
:10691400184611F0C7FE0098FFF746FE10E00A4A39
:106924000A4BD31ADB081B0443F003030E49184631
:1069340011F0B8FE04E000BF02E000BF00E000BFB9
:1069440000BF07B05DF804FBB0A1030088A10300F9
:10695400FCA403002026002034A3030028A5030080
:1069640054A503006CA5030084A5030000B587B0FB
:106974009DF80030012262F303038DF800309DF886
:106984000030012262F307138DF800301F4813F022
:1069940076FB03469AB26B461C491846FFF7B0FCD7
:1069A4000590059B0493049B002B05D0184A4FF4D3
:1069B400ED7104980CF044FC01AB08220021184648
:1069C40013F02AFB4FF4C873ADF804304FF4487346
:1069D400ADF806300023ADF808304FF4C873ADF8B5
:1069E4000A3001AB1846FFF787FC0590059B03931B
:1069F400039B002B05D0064A4FF4F27103980CF068
:106A04001FFC00BF07B05DF804FB00BF9CA503009A
:106A140034A3030000B583B00021094805F09CF8B5
:106A24000190019B0093009B002B05D0054A40F286
:106A3400ED1100980CF004FC00BF03B05DF804FBFA
:106A44003026002034A3030000B583B00190054A2A
:106A54004FF4FD7101980CF0F3FB00BF03B05DF837
:106A640004FB00BF34A3030000B587B001AB0022D0
:106A74001A605A6000230093154B00936B46194625
:106A8400144805F01FF90590059B0493049B002B03
:106A940005D0114A40F20A2104980CF0D1FB0F4BA7
:106AA40001930F4B029301AB19460E4812F0FCFF01
:106AB4000590059B0393039B002B05D0064A4FF4D6
:106AC400047103980CF0BCFB00BF07B05DF804FB35
:106AD4004D6A02004426002034A3030039680200F2
:106AE4008D6502002026002000B585B00190019B31
:106AF4001B78002B11D10B4B1B883B211846FFF749
:106B0400F7FB0390039B0293029B002B05D0064ADC
:106B140040F2252102980CF093FB00BF05B05DF80C
:106B240004FB00BFF824002034A3030000B583B0A5
:106B34000190054A4FF40C7101980CF081FB00BFE1
:106B440003B05DF804FB00BF34A3030000B58BB0B1
:106B540001AB1C220021184613F05EFA00230193B6
:106B64004FF4203302934FF47023039303238DF8DF
:106B740010300023ADF8123000238DF814300C4B84
:106B840006930C4B079301AB184602F0C3FD099022
:106B9400099B0893089B002B05D0074A40F2472124
:106BA40008980CF04DFB00BF0BB05DF804FB00BF70
:106BB400ED6A0200316B020034A3030000B583B018
:106BC40001900199034812F013FF00BF03B05DF870
:106BD40004FB00BF2026002000B585B0002001F092
:106BE40031F90390039B0293029B002B05D0134AB7
:106BF4004FF4187102980CF023FB00F008FE039088
:106C0400039B0193019B002B05D00C4A4FF419718F
:106C140001980CF015FBFFF77BFB0390039B00939B
:106C2400009B002B05D0054A4FF41A7100980CF014
:106C340007FB00BF05B05DF804FB00BF34A30300ED
:106C440000B5BDB003468DF80F309DF80F30072B0B
:106C540000F2BF8001A252F823F000BF796D020058
:106C6400D76D0200D76D0200816C0200B96C02007E
:106C7400EF6C0200256D02007F6D02005C4A5D4BE3
:106C8400D31ADB081B0443F003035B49184611F0D5
:106C940009FD022001F0D6F83B903B9B3493349BD2
:106CA400002B00F09880554A40F27B2134980CF078
:106CB400C7FA90E04E4A4F4BD31ADB081B0443F04B
:106CC40003034F49184611F0EDFC042001F0BAF813
:106CD4003B903B9B3593359B002B7ED0474A40F23B
:106CE400812135980CF0ACFA77E0414A414BD31A34
:106CF400DB081B0443F003034249184611F0D2FC9D
:106D0400032001F09FF83B903B9B3693369B002B6E
:106D140065D03A4A40F2872136980CF091FA5EE049
:106D2400334A344BD31ADB081B0443F003033649BC
:106D3400184611F0B7FC032001F084F83B903B9B0C
:106D44003893389B002B05D02C4A40F28D2138987B
:106D54000CF076FA2D4802F05BFB3B903B9B37939B
:106D6400379B002B3DD0254A40F28F2137980CF0F9
:106D740067FA36E0FFF730FF36E008233393082341
:106D8400329332AB12AA33A904A807F0E5FA3B9078
:106D94003B9B3A933A9B002B05D0184A40F29F2123
:106DA4003A980CF04DFA339A329B12A804A9009336
:106DB4000346164802F006FB3B903B9B3993399BF4
:106DC400002B10D00D4A40F2AA2139980CF038FA61
:106DD40009E000BF08E000BF06E000BF04E000BF18
:106DE40002E000BF00E000BF00BF3DB05DF804FB5F
:106DF400B0A1030088A10300A8A5030034A30300E5
:106E0400BCA50300D0A50300F0A503005026002074
:106E140000B58BB001900091019806F039F9019BFF
:106E24001B88212B56D0212B04DC102B07D0112BCF
:106E340036D098E03B2B67D0562B78D093E04C4A61
:106E44004C4BD31ADB081B0443F003034A4918468E
:106E540011F028FC072000F0F5FF0890089B05932B
:106E6400059B002B05D0454A4FF4317105980CF071
:106E7400E7F9019B9A88424B1A80414B1B881946BB
:106E8400404804F041FF0890089B0493049B002BA6
:106E940060D03A4A40F2C72104980CF0D1F959E085
:106EA400334A344BD31ADB081B0443F0030336493B
:106EB400184611F0F7FB324B4FF6FF721A80019B14
:106EC4009A88324B9B899A4246D1304B4FF6FF72D7
:106ED4009A8141E000238DF80C3000238DF80D30A9
:106EE400019B9B8803AA11461846FFF70DFA0890E8
:106EF400089B0693069B002B30D0204A4FF4377131
:106F040006980CF09DF929E0019B9B8813211846F3
:106F1400FFF7EEF90890089B0793079B002B1FD0FF
:106F2400164A4FF4397107980CF08AF918E0019B5E
:106F34009B8813211846FFF7DBF90890089B0993F7
:106F4400099B002B0ED00D4A4FF43B7109980CF0AD
:106F540077F907E000BF06E000BF04E000BF02E0ED
:106F640000BF00E000BF00BF0BB05DF804FB00BF32
:106F7400B0A1030088A1030010A6030034A30300FA
:106F8400F8240020442600201CA60300202600200C
:106F940000B587B003468DF807309DF80730043BF1
:106FA4000A2B64D801A252F823F000BFE36F020059
:106FB40073700200737002000F700200737002009D
:106FC40073700200DD6F02007370020073700200C0
:106FD4007370020041700200FFF7FEFD4EE0294B82
:106FE4001B8813211846FFF783F90590059B082B8E
:106FF4003FD0059B0393039B002B3AD0224A40F2D7
:10700400093103980CF01CF933E0204B9B894FF6AF
:10701400FF7293422FD11E4802F0FAF90590059BA6
:10702400082B28D0059B0493049B002B23D0164ADD
:1070340040F2133104980CF003F91CE0134B9B89C4
:107044004FF6FF72934218D0104812F088FE059054
:10705400059B052B11D10F4A0F4BD31ADB081B04D8
:1070640043F003030D49184611F01CFB05E000BF73
:1070740004E000BF02E000BF00E000BF00BF07B0B3
:107084005DF804FBF824002034A30300202600202C
:1070940050260020B0A1030088A103002CA6030001
:1070A40000B587B012F07CF90590059B0493049B0E
:1070B400002B05D0164A40F2333104980CF0C0F886
:1070C4000023019301AB1946012012F071FA0590D7
:1070D400059B0393039B002B05D00D4A40F23931E5
:1070E40003980CF0ADF801AB184612F055FB05906F
:1070F400059B0293029B002B05D0054A40F23D31CB
:1071040002980CF09DF800BF07B05DF804FB00BFC7
:1071140034A3030000B583B00A4A0A2108200CF006
:107124009DF90190019B0093009B002B05D0064A1A
:107134004FF4527100980CF083F800BF03B05DF86F
:1071440004FB00BFC028002034A3030000B587B0AF
:1071540001901749032000F08FFE0590059B0493CE
:10716400049B002B05D0134A40F2563104980CF0CE
:1071740067F80DF10B031946002000F0ABFB0590F6
:10718400059B0393039B002B05D00A4A40F2593117
:1071940003980CF055F89DF80B30022B0CBF01231B
:1071A4000023DAB2019B1A7000BF07B05DF804FB3C
:1071B400956F020034A3030000B587B006F092FF78
:1071C4000590059B0493049B002B05D0384A40F29C
:1071D400673104980CF034F86B46052200211846F8
:1071E40012F01AFF9DF8003043F001038DF80030CF
:1071F4009DF800306FF341038DF800309DF80030A6
:107204006FF382038DF800309DF800306FF3C303F1
:107214008DF800309DF80030032262F306138DF8D8
:1072240000309DF800306FF3C7138DF8003007234A
:107234008DF8013010238DF802309DF8033043F0AF
:1072440001038DF803309DF8033043F002038DF8F9
:1072540003309DF8043043F001038DF804309DF8A9
:10726400043043F002038DF804306B46184607F0EF
:107274001BF80590059B0393039B002B05D00C4A38
:1072840040F27A3103980BF0DBFF0A4806F0E4FF82
:107294000590059B0293029B002B05D0044A40F203
:1072A4007D3102980BF0CCFF00BF07B05DF804FB02
:1072B40034A303008D64020000B5AFB001ABAC226F
:1072C4000021184612F0A8FE02238DF80430012391
:1072D4008DF8063005238DF807300123ADF81C30F6
:1072E400184B089301238DF87D3001238DF88030ED
:1072F4002823239340F6B833249301238DF8813057
:107304004FF44863259344F2506326930E4B2A931B
:1073140001AB19460D4801F02AFE2D902D9B2C93AC
:107324002C9B002B05D00A4A40F29E312C980BF07E
:1073340087FF0121054801F00DFE00BF2FB05DF865
:1073440004FB00BFFC240020456C020050260020F2
:1073540034A3030000B583B0094809F037FC019059
:10736400019B0093009B002B05D0064A40F2AA31F2
:1073740000980BF065FF00BF03B05DF804FB00BF8D
:10738400C16B020034A3030000B583B04FF4004185
:10739400002010F0BBFE0190019B0093009B002B8A
:1073A40005D0064A40F2B33100980BF049FF10F0C3
:1073B4004BFE00BF03B05DF804FB00BF34A3030021
:1073C40000B583B010F0CCFB0190019B0093009BAF
:1073D400002B05D0044A40F2BF3100980BF030FF77
:1073E40000BF03B05DF804FB34A3030008B50CF040
:1073F400FBF811F0E1F9034683F00103DBB2002B43
:1074040001D010F0C3FB00BF08BD000000B583B07D
:10741400FFF7BAFFFFF7F8F90DF107031846FFF776
:1074240095FEFFF777FEFFF7CBFFFFF739FEFFF777
:107434009DFAFFF7EFFAFFF78DFFFFF73DFFFFF728
:10744400BBFEFFF711FBFFF781FB094A094BD31A77
:10745400DB081B0443F003030749184611F022F923
:107464009DF807301846FEF7B5FFFFF7BFFFFCE7AE
:10747400B0A1030088A1030054A6030082B00190C8
:107484004FF0A043184602B0704700B585B0019094
:10749400084611461A4603468DF803300B468DF80C
:1074A400023013468DF8013001AB1846FFF7E6FFB2
:1074B40003909DF803209DF802305B001A439DF869
:1074C40001309B001A439DF818301B0242EA030165
:1074D4009DF81C301B04019A1943039B02F5E072CA
:1074E40043F8221000BF05B05DF804FB00B585B079
:1074F4000390002301930023009300230122012120
:107504000398FFF7C2FF00BF05B05DF804FB00B5A8
:1075140085B0019001AB1846FFF7B0FF0390019BC3
:10752400012202FA03F31946039800F069F800BF38
:1075340005B05DF804FB00B585B0019001AB1846B9
:10754400FFF79CFF0390019B012202FA03F3194603
:10755400039800F05FF800BF05B05DF804FB00B5C8
:1075640085B0019001AB1846FFF788FF0390039B99
:10757400D3F804350293029BDA43019B012101FAFB
:1075840003F31A40039BC3F80825019B01229A4088
:10759400029B1A40039BC3F80C2500BF05B05DF89D
:1075A40004FB00B583B001900091009B002B03D134
:1075B4000198FFF7C0FF02E00198FFF7A8FF00BFA2
:1075C40003B05DF804FB00B585B0019001AB18462B
:1075D400FFF754FF0390039800F00AF80246019B5A
:1075E40022FA03F303F00103184605B05DF804FB27
:1075F40082B00190019BD3F80435184602B070475D
:1076040082B001900091019B009AC3F8082500BF45
:1076140002B0704782B001900091019B009AC3F8B8
:107624000C2500BF02B0704700B585B00190192346
:107634001846FFF7C8FF0346002B14BF012300239D
:107644008DF80F309DF80F30002B14BF0123002359
:10765400DBB283F00103DBB203F00103DBB21846B3
:1076640005B05DF804FB00B583B001901923002137
:107674001846FFF796FF00BF03B05DF804FB00B5A2
:1076840083B00190192301211846FFF78AFF00BF38
:1076940003B05DF804FB00B583B00023019305E05B
:1076A4000198FFF7ECFF019B01330193019B002B31
:1076B400F6D000BF03B05DF804FB00B583B000232F
:1076C400019305E00198FFF7CEFF019B013301937D
:1076D400019B002BF6D000BF03B05DF804FB00B59E
:1076E40083B0019019231846FFF739FF00BF03B098
:1076F4005DF804FB00B583B00023019306E0192371
:107704001846FFF7F3FE019B01330193019B002B05
:10771400F5D0FFF7C0FF00BF03B05DF804FB00B570
:1077240083B00190019B03F00103002B01D0FFF70C
:10773400E1FF00BF03B05DF804FB00B583B0012294
:107744000021002000F0CAFB0190019B002B04D013
:10775400019B072B01D0019B1CE007220221012081
:1077640000F0BCFB0190019B002B04D0019B072B74
:1077740001D0019B0EE004220221002000F0AEFBA8
:107784000190019B002B04D0019B072B01D0019B8E
:1077940000E00023184603B05DF804FB00B583B095
:1077A40001220221002000F099FB0190019B002B93
:1077B40004D0019B072B01D0019B1CE0072202216E
:1077C400012000F08BFB0190019B002B04D0019B56
:1077D400072B01D0019B0EE00A220021002000F0BB
:1077E4007DFB0190019B002B04D0019B072B01D052
:1077F400019B00E00023184603B05DF804FB82B04F
:107804000190019B00221A7000BF02B0704700B5BE
:1078140083B0002000F07BFB0190019B002B04D07F
:10782400019B062B01D0019B0CE0012000F06FFBB3
:107834000190019B002B04D0019B062B01D0019BDE
:1078440000E00023184603B05DF804FB00B585B0E2
:1078540001900091019B1B88102B02D0112B18D092
:107864002FE01A4B1B68002B0DD1FFF766FF039026
:10787400039B002B07D0164B1B68002B03D0144B23
:107884001B6803989847114B1B6801330F4A136018
:1078940017E00E4B1B68013B0C4A13600B4B1B6833
:1078A400002B0DD1FFF77AFF0390039B002B07D029
:1078B400074B1B68002B03D0054B1B6803989847A4
:1078C40000BF00BF05B05DF804FB00BF74290020B1
:1078D4007029002000B585B0019000910023039326
:1078E4000A4A019B1360009B002B02D00098FFF70B
:1078F40086FF074B1B68002B02D1FFF74FFF039055
:10790400039B184605B05DF804FB00BF70290020F6
:107914007429002000B583B00C4B1B78002B0FD0CA
:107924000023019308E0019B022B02D00198FFF78A
:10793400A6FE019B01330193019B002BF3D001E0D0
:10794400FFF7A9FE00BF03B05DF804FB8029002007
:107954002DE9F04884B003468DF8073000230393E3
:1079640000230293D14B1B78002B04D0CF4B002271
:107974001A70FFF7CFFF9DF80730172B00F23582FE
:1079840001A252F823F000BFED790200057A02004B
:10799400057A02008D7A0200157B0200837B0200C7
:1079A400097C0200297C0200397C0200577C020019
:1079B400757C0200937C0200BD7C0200CB7C02003B
:1079C400CB7C0200CB7C0200CB7C0200CB7C02008F
:1079D400917D02009F7D0200B37D0200C77D0200FD
:1079E400E17D0200E17D0200FFF794FFB04B1846F1
:1079F4000CF03EFC0390AF4A9DF807301370F5E19C
:107A04000020FFF711FE0346002B0DD00020FFF7E6
:107A140036FE9DF80730022B02D14FF4E16301E0FA
:107A24004FF47A6302930BE00020FFF71CFE9DF8ED
:107A34000730022B01D1C82301E04FF4C87302932D
:107A44009C4A9DF807301370994D029B19464FF0DC
:107A540000024FF000034FF00004D40344EA514401
:107A6400CB0313F5FA7044F100014FF47A724FF02E
:107A7400000312F0ADF903460C46002219462846CD
:107A84000CF0C4FB0390B1E10020FFF7CDFD0346E9
:107A9400002B0DD00020FFF7F2FD9DF80730032BDB
:107AA40002D14FF4487301E04FF47A6302930BE080
:107AB4000020FFF7D8FD9DF80730032B01D1C82320
:107AC40001E04FF4C87302937A4A9DF807301370AB
:107AD400774D029B19464FF000024FF000034FF020
:107AE4000004D40344EA5144CB0313F5FA7044F17F
:107AF40000014FF47A724FF0000312F069F9034663
:107B04000C460022194628460CF080FB03906DE1D8
:107B14000020FFF789FD0346002B06D00020FFF765
:107B2400AEFD4FF47A63029305E00020FFF79BFD5E
:107B34004FF4C87302935F4A9DF8073013705C4D8D
:107B4400029B19464FF000024FF000034FF000046F
:107B5400D40344EA5144CB0313F5FA7044F1000111
:107B64004FF47A724FF0000312F032F903460C46D8
:107B74000022194628460CF049FB039036E1002008
:107B8400FFF752FD0346002B0CD00020FFF777FDD2
:107B94009DF80730052B01D1C82301E04FF47A6327
:107BA40002930BE00020FFF75EFD9DF80730052BE4
:107BB40001D1C82301E04FF4C87302933D4A9DF8F4
:107BC400073013703A4D029B19464FF000024FF0F4
:107BD40000034FF00004D40344EA5144CB0313F5EB
:107BE400FA7044F100014FF47A724FF0000312F07E
:107BF400EFF803460C460022194628460CF006FB13
:107C04000390F3E00020FFF76AFD2A4A9DF807304D
:107C14001370274B002240F6CD4118460CF0F6FABB
:107C24000390E3E00020FFF71EFD224A9DF8073091
:107C34001370DBE01D4B01221A700120FFF74FFD8A
:107C44001B4B002240F6CD4118460CF0DFFA03909E
:107C5400CCE0164B01221A700120FFF740FD144BB3
:107C640000224FF4804118460CF0D0FA0390BDE096
:107C74000E4B01221A700120FFF731FD0C4B00223C
:107C840040F6CD4118460CF0C1FA0390AEE0074B24
:107C940001221A700120FFF722FD054B00224FF448
:107CA400804118460CF0B2FA03909FE07929002035
:107CB4008429002078290020FFF7FFFC4E4A9DF814
:107CC4000730137092E04D4B18460CF0D1FA039034
:107CD4009DF80730C3F111030293029B002B4ED091
:107CE400039B002B4BD1029B012B41D9434F029B99
:107CF4009BB29DB24FF00006AB46B4461BEB0B03A0
:107D04004CEB0C049B46A4461BEB050B4CEB060CFE
:107D14004FF000014FF000024FEACC0242EA5B72DE
:107D24004FEACB018B4694461BEB050B4CEB060C40
:107D34004FF000014FF000024FEA8C4242EA9B32BE
:107D44004FEA8B418B4694465B46644613F5FA70C2
:107D540044F100014FF47A724FF0000312F038F846
:107D640003460C460022194638460CF04FFA03909D
:107D74000220FFF778FC224B01221A7036E0022021
:107D8400FFF77DFC1E4B00221A702FE0FFF7C2FDA7
:107D9400194A9DF80730137028E0FFF7BBFD002057
:107DA400FFF761FC144A9DF8073013701EE0FFF7DB
:107DB400B1FD0120FFF757FC0F4A9DF807301370FF
:107DC40014E0FFF7A7FD0020FFF74DFC0120FFF7AB
:107DD4004AFC094A9DF80730137007E0FFF76DFC71
:107DE400054A9DF80730137000E000BF039B184656
:107DF40004B0BDE8F08800BF78290020A429002041
:107E04008029002000B583B00190074B1B6803F064
:107E14000103002B04D0054B1B781846FFF798FD8F
:107E240000BF03B05DF804FB7C2900207829002002
:107E340000B583B001900220FFF751FC00BF03B0EE
:107E44005DF804FB00B585B003468DF807300023C8
:107E54000393084B1B6803F00103002B05D09DF826
:107E640007301846FFF774FD0390039B184605B0CE
:107E74005DF804FB7C29002000B585B001900091D9
:107E840000230393104A019B1360019B03F0010339
:107E9400002B14D00120FFF742FC039B002B05D1DB
:107EA4000A4A00210A480CF081F90390039B002B35
:107EB40005D1084A012108480CF078F90390039B86
:107EC400184605B05DF804FB7C290020097E0200F9
:107ED4007CA60300357E020080A6030084B00190D6
:107EE4000B468DF8033013468DF8023000230393BC
:107EF40007230393039B184604B0704782B0019094
:107F04000B468DF803300623184602B0704700B5BF
:107F140083B0019001210198FFF7F0FF0346184652
:107F240003B05DF804FB6DDF704700BF184679DFCE
:107F3400704700BF18467DDF704700BF184664DFF6
:107F4400704700BF184682B003460091ADF8063072
:107F5400BDF80630DAB2009B1A70BDF806301B0A71
:107F64009AB2009B0133D2B21A700223184602B0AF
:107F7400704700B589B0039002911346ADF80630FE
:107F8400029B1B8803F10902BDF806309A4201D90D
:107F94000C2353E004AB1846FFF7C5FF0790079B7B
:107FA4000693069B002B01D0069B47E0029B1B888F
:107FB4001A46039B134408221A70029B1B88013340
:107FC4009AB2029B1A80029B1B881A46039B134495
:107FD4001B221A70029B1B8801339AB2029B1A80DF
:107FE400029B1B881A46039B981804AB0133062294
:107FF400194611F0E8FF029B1B8806339AB2029BD4
:108004001A809DF8103023F00103DBB2002B07D156
:10801400029B1B881A46039B134400221A7006E035
:10802400029B1B881A46039B134401221A70029B6D
:108034001B8801339AB2029B1A800023184609B0A8
:108044005DF804FB00B589B0039002910192ADF88C
:108054000230039B1B78012B05D1039B5B78002B1B
:1080640001D1072392E0019B1B889A1CBDF80230C2
:108074009A420ED8039B1B78012B0CD1019B1B88C1
:108084001A46039B5B7813449A1CBDF802309A424B
:1080940001D90C237AE0019B1B88BDF80220D31A76
:1080A4009BB2023BADF81C30BDF81C30ADF8123069
:1080B400019B1B880233029A13440DF112021146EC
:1080C4001846FFF738FF0690069B0593059B002B87
:1080D40001D0059B5AE0039B1B78022B06D0039B1F
:1080E4005B789AB2BDF812309A4209D3BDF81230C7
:1080F400BDF81C209A4203D309238DF81F3017E0E2
:1081040008238DF81F30039B1B78012B0CD1039B94
:108114005B789BB2BDF81C209A4205D3039B5B7825
:108124009BB2ADF8123003E0BDF81C30ADF812304C
:10813400BDF81230FE2B01D90C2327E0BDF8123014
:10814400DAB2019B1B881946029B0B440132D2B25E
:108154001A70019B1B8801339AB2019B1A80019B00
:108164001B881A46029B13449DF81F201A70019B1A
:108174001B8801339AB2019B1A80019B1A88BDF8AF
:10818400123013449AB2019B1A800023184609B096
:108194005DF804FB00B589B0039002911346ADF875
:1081A4000630029B1B881A1DBDF806309A4201D97D
:1081B4000C233BE00DF116031846FFF7B8FE0790B9
:1081C400079B0693069B002B01D0069B2EE0029B87
:1081D4001B881A46039B134403221A70029B1B88B4
:1081E40001339AB2029B1A80029B1B881A46039B96
:1081F400134419221A70029B1B8801339AB2029B02
:108204001A80BDF81620029B1B881946039B0B4459
:1082140019461046FFF797FE03461946029B1A8833
:108224008BB213449AB2029B1A800023184609B0F9
:108234005DF804FB84B0029101921A4603468DF85E
:108244000F301346ADF80C30019B1B88DA1CBDF8C7
:108254000C309A4201D90C2328E0019B1B881A4652
:10826400029B134402221A70019B1B8801339AB2A9
:10827400019B1A80019B1B881A46029B134401220E
:108284001A70019B1B8801339AB2019B1A80019BCF
:108294001B881A46029B13449DF80F201A70019BF9
:1082A4001B8801339AB2019B1A800023184604B03C
:1082B400704784B0029101921A4603468DF80F303C
:1082C4001346ADF80C30019B1B88DA1CBDF80C304A
:1082D4009A4201D90C2328E0019B1B881A46029B71
:1082E400134402221A70019B1B8801339AB2019B2A
:1082F4001A80019B1B881A46029B13440A221A7097
:10830400019B1B8801339AB2019B1A80019B1B8835
:108314001A46029B13449DF80F201A70019B1B8878
:1083240001339AB2019B1A800023184604B07047A7
:1083340000B58FB0039001930B468DF80B301346B4
:108344008DF80A3000238DF83330109B1B88ADF86C
:10835400303000230D9371E0039B5A680D9B9B0002
:108364001A4405AB106818600DF11B0105AB00221F
:108374001846FFF7E4FD0A900A9B0993099B002B1A
:1083840001D0099B7CE09DF81B309DF80A209A429D
:1083940051D19DF83330002B01D0002300E002239B
:1083A4008DF82330109B1B881A469DF81B301A4405
:1083B4009DF823301A44BDF844309A4201DD0C2361
:1083C4005EE09DF8333083F00103DBB2002B16D05E
:1083D400109B1B8801339AB2109B1A80109B1B8838
:1083E4001A46019B13449DF80B201A70109B1B889E
:1083F40001339AB2109B1A8001238DF83330109BFD
:108404001B881A46019B1A440DF11B0105AB184643
:10841400FFF795FD0A900A9B0793079B002B01D059
:10842400079B2DE0109B1A889DF81B309BB21344C8
:108434009AB2109B1A800D9B01330D93039B1B88EA
:108444001A460D9B934287DB9DF83330002B16D0E0
:10845400109B1A88BDF83030D31A9BB2013BADF89B
:108464002E30BDF82E30FF2B01D90C2308E0BDF8C7
:108474003030019A1344BDF82E20D2B21A70002372
:1084840018460FB05DF804FB00B58BB0059003935C
:108494000B468DF8133013468DF812309DF81310E7
:1084A400BDF8343001930C9B0093039B0222059882
:1084B400FFF73EFF0990099B0893089B002B01D00E
:1084C400089B14E09DF81210BDF8343001930C9B06
:1084D4000093039B10220598FFF72AFF0990099B3C
:1084E4000793079B002B01D0079B00E0002318464D
:1084F4000BB05DF804FB82B00190019B1B88052B37
:108504000AD9019B1B88B3F5486F07D9019B1B88C7
:108514004FF6FF72934201D0072325E0019B5B884D
:10852400052B0AD9019B5B88B3F5486F07D9019BDA
:108534005B884FF6FF72934201D0072314E0019B3E
:108544001B884FF6FF7293420DD0019B5B884FF658
:10855400FF72934207D0019B1A88019B5B889A4261
:1085640001D9072300E00023184602B0704700B584
:1085740087B0039002910192ADF80230019B1B88F1
:108584009A1DBDF802309A4201D90C234DE003989C
:10859400FFF7B1FF0590059B0493049B002B01D0CA
:1085A400049B42E0019B1B881A46029B134405224C
:1085B4001A70019B1B8801339AB2019B1A80019B9C
:1085C4001B881A46029B134412221A70019B1B88B3
:1085D40001339AB2019B1A80039B1A88019B1B8862
:1085E4001946029B0B4419461046FFF7ACFC0346A0
:1085F4001946019B1A888BB213449AB2019B1A80C4
:10860400039B5A88019B1B881946029B0B441946FD
:108614001046FFF798FC03461946019B1A888BB253
:1086240013449AB2019B1A800023184607B05DF8E0
:1086340004FB00B587B0039002910192ADF80230BB
:10864400039B9B8802330593019B1B881A46059B59
:1086540013449A1CBDF802309A4201D90C2354E009
:10866400059BFE2B01D90C234FE0059BDAB2019B3D
:108674001B881946029B0B440132D2B21A70019B2B
:108684001B8801339AB2019B1A80019B1B881A46EE
:10869400029B1344FF221A70019B1B8801339AB278
:1086A400019B1A80039B1A88019B1B881946029B15
:1086B4000B4419461046FFF746FC03461946019B36
:1086C4001A888BB213449AB2019B1A80039B9B882D
:1086D400002B19D0039B9B68002B01D1072314E0C6
:1086E400019B1B881A46029B9818039B9968039B5D
:1086F4009B881A4611F067FC019B1A88039B9B8890
:1087040013449AB2019B1A800023184607B05DF8FF
:1087140004FB00B589B0039002910192ADF80230D8
:10872400039B9B6A002B01D1072372E000238DF881
:108734001F3066E0039B996A9DF81F2013465B0077
:1087440013449B000B440693069B9B8802330593BA
:10875400059BFE2B01D90C235BE0059BDAB2019B40
:108764001B881946029B0B440132D2B21A70019B3A
:108774001B8801339AB2019B1A80019B1B881A46FD
:10878400029B134416221A70019B1B8801339AB270
:10879400019B1A80069B1A88019B1B881946029B21
:1087A4000B4419461046FFF7CEFB03461946019BBE
:1087B4001A888BB213449AB2019B1A80069B9B8839
:1087C400002B19D0069B9B68002B01D1072320E0C6
:1087D400019B1B881A46029B9818069B9968069B66
:1087E4009B881A4611F0EFFB019B1A88069B9B8815
:1087F40013449AB2019B1A809DF81F3001338DF8FF
:108804001F30039B93F82C309DF81F209A4291D37C
:108814000023184609B05DF804FB00B595B0059037
:108824000491039200231393039B1B88ADF84A30F1
:10883400039B00221A80059B93F82D30002B0ED049
:10884400BDF84A301A4603990498FFF792FB139037
:10885400139B1193119B002B01D0119BD8E0059B16
:108864009B78002B0ED0BDF84A301A460399049821
:10887400FFF790FC1390139B1093109B002B01D0D7
:10888400109BC5E0059BDB78002B10D0059BDB78A3
:1088940058B2BDF84A30039A0499FFF7CBFC139001
:1088A400139B0F930F9B002B01D00F9BB0E0059BF4
:1088B4005B68002B11D0059B5B6893F90000BDF841
:1088C4004A30039A0499FFF7F4FC1390139B0E9318
:1088D4000E9B002B01D00E9B9AE0059B1B89002B5D
:1088E40014D0059B03F10800BDF84A300193039BA3
:1088F4000093049B06220221FFF7C6FD1390139BED
:108904000D930D9B002B01D00D9B81E0059B1B8AD1
:10891400002B14D0059B03F11000BDF84A300193DD
:10892400039B0093049B07220321FFF7ADFD1390E3
:10893400139B0C930C9B002B01D00C9B68E0059BB4
:108944001B8B002B14D0059B03F11800BDF84A3093
:108954000193039B0093049B15221421FFF794FDBC
:108964001390139B0B930B9B002B01D00B9B4FE09D
:10897400059B1B6A002B0FD0059B186ABDF84A3073
:10898400039A0499FFF7F3FD1390139B0A930A9B30
:10899400002B01D00A9B3BE0059B5B6A002B0FD0A8
:1089A400059B586ABDF84A30039A0499FFF741FEC3
:1089B4001390139B0993099B002B01D0099B27E07B
:1089C400059B93F82C30002B0ED0BDF84A30039A47
:1089D40004990598FFF79DFE1390139B0893089B39
:1089E400002B01D0089B13E0059B1B78002B0ED0B5
:1089F400BDF84A30039A04990598FFF723FB1390B6
:108A0400139B0793079B002B01D0079B00E0139B4C
:108A1400184615B05DF804FB86B0039001921A461F
:108A24000B46ADF80A3013468DF80930039B002B32
:108A340002D0019B002B01D100233CE00023ADF8C0
:108A440016300CE0BDF81630039A13441B789AB222
:108A5400BDF8163013449BB20133ADF81630019BB8
:108A64001B88BDF816209A4209D3BDF8163001338D
:108A7400039A13441B789DF809209A4205D0BDF847
:108A84001620BDF80A309A42DCD3BDF81620BDF892
:108A94000A309A4201D300230DE0BDF816300233A8
:108AA4009AB2019B1A80BDF81630039A13441B78BE
:108AB4009BB2013B9BB2184606B0704700B585B027
:108AC40001900B46ADF8023013468DF801300023B7
:108AD400ADF80C309DF8013003AABDF802100198DE
:108AE400FFF79AFF0346ADF80E30BDF80E30002BA9
:108AF40001D1002304E0BDF80C301A46019B134455
:108B0400184605B05DF804FB72DF704700BF1846D5
:108B140073DF704700BF184674DF704700BF184604
:108B240082B00190019B93F85432184602B070470A
:108B340084B00190002303930AE0019A039B134439
:108B44001B78002B01D0012306E0039B0133039320
:108B5400039B052BF1D90023184604B0704700008D
:108B640082B003468DF807309DF807305A1C074B36
:108B740083FB02135910D317C91A0B469B000B44ED
:108B8400D11ACBB2184602B0704700BF676666665A
:108B940082B001900091009BDB7B012B04D1009BF0
:108BA4009A88019BA3F8482200BF02B0704700B521
:108BB40085B001900091019B002283F85222009B12
:108BC4009A88019BB3F848329A4216D1019B1B79CB
:108BD40083F00103DBB2002B0FD00121019800F0D8
:108BE400ABFA0390039B002B07D0019B9B6B002BDC
:108BF40003D0019B9B6B0398984700BF05B05DF8B9
:108C040004FB00B585B001900091009B1B88262BC6
:108C14001ED1009B1B7A012B03D0009B1B7A022BD5
:108C240017D1019B9B781846FFF79AFF0346194614
:108C3400019800F081FA0390039B002B09D0019B5B
:108C44009B6B002B05D0019B9B6B0398984700E01E
:108C540000BF05B05DF804FB00B585B001900B467C
:108C64008DF80330019B03F24B231846FFF760FF96
:108C740003468DF80F309DF80330013B032B33D8A6
:108C840001A252F823F000BF9D8C0200C18C0200A7
:108C9400D58C0200E18C0200019B9B79002B0DD046
:108CA400019B93F8243083F00103DBB2002B05D041
:108CB4009DF80F30002B01D0012316E0019BDB79D6
:108CC400002B05D09DF80F30002B01D002230CE0BF
:108CD400019B1B7A002B01D0032306E0019B5B7AE6
:108CE400002B01D0042300E00023184605B05DF8F2
:108CF40004FB00BF82B001900091019B012283F824
:108D04003120019B0022C3F84422019B03F24A2232
:108D1400009B5A60009B00229A60009B02221A70FA
:108D2400009B80229A810023184602B0704782B0CB
:108D340001900091019B022283F83120019B93F85A
:108D44002430002B03D0009B07221A7002E0009B02
:108D540003221A70019B1B699AB2009B9A81019BA2
:108D64000022C3F84422019B03F24A22009B5A606A
:108D7400019BDA68009B9A600023184602B0704792
:108D840000B583B00190019B5B79002B0FD0019B50
:108D940093F8523283F00103DBB2002B07D0019821
:108DA400FFF7BEFE0346002B01D0012300E00023A1
:108DB40003F00103DBB2184603B05DF804FB00B511
:108DC40085B001900B468DF80330019BD3F8340233
:108DD400019BB3F8383201221946FFF76FFE039066
:108DE400039B002B03D0039B9DF803201A70019B67
:108DF40003F15400019B03F50D71019B3C331A46AA
:108E0400FFF782FE0346184605B05DF804FB00B583
:108E140085B001900091019B5A69009B9A60019B67
:108E24009B699AB2009B9A81019B93F82430002B92
:108E340004D0019B062283F83C2003E0019B01221D
:108E440083F83C200198FFF79BFF0346002B13D0C7
:108E5400009B02221A7504210198FFF7B0FF0390CA
:108E6400039B0293029B002B01D0029B0FE0019B0A
:108E7400052283F8312003E0019B032283F831208B
:108E8400019B03F50D72019BC3F84422002318468D
:108E940005B05DF804FB00B585B001900091019B1D
:108EA400DA69009B9A60019B1B6A9AB2009B9A81C3
:108EB400019B93F82430002B04D0019B062283F8F5
:108EC4003C2003E0019B012283F83C200198FFF73A
:108ED40057FF0346002B13D0009B02221A7504216E
:108EE4000198FFF76CFF0390039B0293029B002BF6
:108EF40001D0029B0FE0019B062283F8312003E09E
:108F0400019B042283F83120019B03F50D72019B20
:108F1400C3F844220023184605B05DF804FB82B070
:108F24000190019B9B78002B06D0019B93F8203085
:108F3400002B01D000230AE0019B9B6A042B03D081
:108F4400019B5B6A042B01D1002300E00123184636
:108F540002B0704782B001900B468DF80330019B3C
:108F64009DF8032083F8302000BF02B0704730B56D
:108F740087B001900091009B002B02D0019B002B35
:108F840001D10E23C4E0009B78331846FFF7C7FFD6
:108F9400034683F00103DBB2002B01D00723B7E0C3
:108FA400019B00229A70019A009B141D03F178051D
:108FB4000FCD0FC40FCD0FC495E8070084E8070058
:108FC400019B002283F83020009BD3F8A420019B4E
:108FD4005A63009BD3F8A820019B9A63019B4FF628
:108FE400FF72A3F84822019B03F50D72019BC3F89D
:108FF4004422019B03F24A2307220021184611F060
:109004000BF8019B1B7883F00103DBB2002B03D028
:10901400019BFF2283F85420019B03F15502019B1D
:10902400C3F83422019B93F82430002B04D0019B15
:10903400EE22A3F8382203E0019B1F22A3F8382272
:109044000098019B03F15501019B03F50E731A4629
:10905400FFF7E3FB0590059B0493049B002B01D0D1
:10906400049B55E0019B03F24312019BC3F83C228D
:10907400019B93F82430002B04D0019BEE22A3F82B
:10908400402203E0019B1F22A3F84022009B03F12E
:109094003C00019BD3F83C12019B03F510731A4664
:1090A400FFF7BBFB0590059B0393039B002B01D0AB
:1090B400039B2DE0019B012283F85120019B9B69B6
:1090C4009AB2019BA3F84820019B012283F83C201B
:1090D400019B00221A64019B002283F85020019B0B
:1090E4005A69019B5A64019B03F15400019B3C3370
:1090F4001A460021FFF708FD0590059B0293029B89
:10910400002B01D0029B03E0019B01221A70059BF6
:10911400184607B030BD82B00190019B1B68012B3B
:1091240003D0019B1B68022B01D1012300E0002323
:10913400184602B07047000000B585B001900B4698
:109144008DF80330019B1B7883F00103DBB2002B05
:1091540001D0082309E1019B9DF803209A70019B2B
:1091640003F24A2307220021184610F055FF019B01
:109174009B79002B03D0019B9B78012B0FD0019B83
:10918400DB79002B03D0019B9B78012B07D0019B3B
:10919400DB79002B14D0019B9B78022B10D1019B0F
:1091A4005B6B002B08D0019B012283F85122019BA9
:1091B4005B6B0820984703E0019B002283F851224F
:1091C4009DF8033019460198FFF746FD03461A46F9
:1091D400019B9A70019B5B6B002B20D0019B9B78B9
:1091E400032B03D0019B9B78042B18D1019B5B7943
:1091F400002B14D0019B93F8523283F00103DBB2AD
:10920400002B0CD0019B002283F85422019B0122E5
:1092140083F85322019B5B6B0720984703E0019B73
:10922400002283F85322019B3C3318220021184664
:1092340010F0F2FE019B012283F83C20019B2C33A9
:109244001846FFF768FF0346002B06D0019BDB6A34
:10925400DAB2019B83F8512003E0019B012283F8D9
:109264005120019B93F82430002B12D0019B2C3306
:109274001846FFF750FF0346002B06D0019B9B6A5C
:10928400DAB2019B83F8522003E0019B012283F8A8
:109294005220019B002283F85020019B9B78042BD1
:1092A40031D801A252F823F001930200C1920200C6
:1092B400D1920200E1920200F1920200019B3C3340
:1092C40019460198FFF716FD03901DE0019B3C33FE
:1092D40019460198FFF72BFD039015E0019B3C33E1
:1092E40019460198FFF793FD03900DE0019B3C3371
:1092F40019460198FFF7CFFD039005E0019B00227A
:1093040083F8312000E000BF019B9B78002B20D024
:10931400019B03F15400019BD3F84412019B3C339D
:109324001A46FFF7F1FB0390039B002B01D0039B2C
:109334001BE0019B93F85420019B93F830301946AD
:109344001046FFF7E5FB0390039B002B01D0039B22
:109354000BE0019B5B6B002B06D0019B5B6B019ABE
:1093640092F83120104698470023184605B05DF85E
:1093740004FB00BF00B585B001900091009B0393EE
:10938400019B1B88112B09D0262B0CD0102B00D04D
:109394000EE001990398FFF7FBFB09E0019903989C
:1093A400FFF705FC04E001990398FFF72AFC00BFCE
:1093B40000BF05B05DF804FB82B00190009100BFCE
:1093C40002B0704784B00390029101920093039B12
:1093D40093F8533283F00103DBB2002B01D008234E
:1093E40013E0039B002283F85322019B002B02D13C
:1093F400049B002B01D0012300E0002303F00103B0
:10940400DAB2039B83F854220023184604B0704751
:1094140000B585B00190019B93F854301846FFF7CE
:109424007BFB019B012283F85222019B002283F8DB
:109434005422019B002283F8502006210198FFF753
:10944400BEFC0390039B0293029B002B01D0029B62
:1094540012E0019B9B7819460198FFF76DFE03907B
:10946400039B002B07D0019B9B6B002B03D0019B1C
:109474009B6B039898470023184605B05DF804FBDE
:1094840075DF704700BF184676DF704700BF184687
:109494007ADF704700BF18467BDF704700BF18466D
:1094A40084B00346ADF806300023039316E00F4959
:1094B400039A13469B0013449B000B441B88BDF87E
:1094C40006209A4207D1039A13469B0013449B003B
:1094D400064A134406E0039B01330393039B002BCA
:1094E400E5D00023184604B0704700BFE4290020EB
:1094F40082B001900B46ADF80230019BBDF802200A
:109504001A80019B00221A72019B054903F10A0289
:109514000B4603CB1060516000BF02B0704700BF20
:10952400142A002082B00190019B4FF6FF721A802A
:1095340000BF02B0704788B00390029111461A46EA
:109544000B46ADF806301346ADF80430039B9B88F8
:109554001A46BDF8063013440793039B9B88BDF855
:1095640006209A4206D2039B9B881A46BDF8063011
:10957400D31A00E000230693039BDB881A46BDF848
:10958400043013440593039BDB88BDF804209A42FE
:1095940006D2039BDB881A46BDF80430D31A00E0D8
:1095A40000230493029B5A88039B1B889A4205D389
:1095B400029B5A88039B5B889A4201D900231CE0D2
:1095C400029B9B881A46069B934205D8029B9B8864
:1095D4001A46079B934201D200230EE0029BDB88CC
:1095E4001A46049B934205D8029BDB881A46059BC6
:1095F400934201D2002300E00123184608B07047CB
:1096040000B583B00190064B9B69002B03D0044B3B
:109614009B690198984700BF03B05DF804FB00BF45
:10962400F829002000B585B003460091ADF8063056
:10963400BDF8063000991846FFF722FF0390039BFC
:10964400002B05D0039B112B02D00398FFF7D8FF02
:10965400039B002B0CBF01230023DBB2184605B08B
:109664005DF804FB00B589B00190019B0793079B4B
:109674009BB21846FFF714FF0690069B002B42D0BE
:10968400069B1A7A224B1B7B9A4215D2079B9AB2ED
:10969400069B0A3319461046FFF7C4FF03468DF8AC
:1096A40013309DF81330002B2DD0069B1B7A013309
:1096B400DAB2069B1A7226E0069B00221A72144B39
:1096C4001B7C002B0FD0079B9BB23B211846FFF756
:1096D400DBFE0590059B002B05D0059B082B02D0D3
:1096E4000598FFF78DFF0A4B5B69002B0BD0002315
:1096F4008DF80C30079B9BB2ADF80E30044B5B69C0
:1097040003AA1046984700BF09B05DF804FB00BFE8
:10971400F829002030B587B00190019B002B01D1BE
:109724000E2353E02B4A019B14461D460FCD0FC454
:1097340095E8070084E80700264B274A1A60019B36
:109744001B68002B11D0019B1B681846FFF7A0FE75
:109754000490049B002B01D0049B37E0019B1A6802
:109764001D4B1068516803C308E01B48FFF794FEC3
:109774000490049B002B01D0049B27E00023059355
:1097840020E0059A13469B0013449B00134A13449C
:1097940003930398FFF7C6FE059B5B01104A1A4426
:1097A400039B5A60039B04330E4A002118460AF0B7
:1097B400FDFC0490049B002B01D0032306E0059BD1
:1097C40001330593059B002BDBD00023184607B01B
:1097D40030BD00BFF8290020142A0020E42900200D
:1097E400C42900206996020000B587B003460091A1
:1097F400ADF80630009B5B7A002B1AD1009B1B7AD4
:10980400002B03D1164B5B68059302E0144B9B6855
:109814000593009B5B68BDF80620059918460AF07D
:10982400F5FC0490049B002B16D00498FFF7E8FE87
:1098340012E0009B00221A72094B5B69002B0BD0CB
:1098440001238DF80C30BDF80630ADF80E30044B12
:109854005B6903AA1046984700BF07B05DF804FB94
:10986400F829002000B585B00190019BDB7B8DF8C1
:109874000F30019B9B88ADF80C309DF80F30012B05
:109884002CD14FF6FF70FFF70BFE0290029B002BCA
:1098940003D10420FFF7B4FE21E0BDF80C301946D3
:1098A4000298FFF725FE029B03F10A00019B03F1D6
:1098B40010014FF6FF7340F2F312FFF73CFE03462C
:1098C4001A46029B5A72074BDB89002B07D1BDF85D
:1098D4000C3002991846FFF787FF00E000BF05B07F
:1098E4005DF804FBF829002000B587B00190019BC6
:1098F4009B88ADF81630BDF816301846FFF7D0FD3A
:109904000490049B002B0ED0049B5B6818460AF05D
:10991400AFFC0390039B002B02D00398FFF770FE6B
:109924000498FFF7FFFD00BF07B05DF804FB0000DB
:1099340000B587B00190019B06330593059B1A88F7
:10994400194BDB899A422BD1059B5B89022B27D1CA
:10995400019B9B88ADF81230BDF812301846FFF712
:109964009FFD0390039B002B1AD0059B0C331846D4
:1099740000F048FB0346002B06D0BDF812300399D3
:109984001846FFF731FF0BE0039B5B6818460AF0AB
:109994006FFC0290029B002B02D00298FFF730FE6E
:1099A40000BF07B05DF804FBF829002000B585B0BE
:1099B4000190019B9B88ADF80E30BDF80E3018461F
:1099C400FFF76EFD0290029B002B15D0029B03F162
:1099D4000A00019B03F108014FF6FF7340F2F312F2
:1099E400FFF7A9FD03461A46029B5A72BDF80E30D2
:1099F40002991846FFF7F8FE00BF05B05DF804FBB6
:109A040000B583B001900091019B1B88112B0DD0F0
:109A1400112B02DC102B05D014E0122B0ED0502B8E
:109A240008D00FE00198FFF71DFF0BE00198FFF746
:109A34005BFF07E00198FFF77BFF03E00198FFF766
:109A4400B5FF00BF00BF03B05DF804FB30B58FB0B5
:109A54000190009100230293009B002B1AD0002355
:109A64000D9314E06B460D9918460CF024FC034644
:109A7400002B09D0029B5A1C02920D9A92B25B00F1
:109A84000EA90B4423F82C2C0D9B01330D930D9B35
:109A9400132BE7D9019B1D4602AC0FCC0FC50FCC8D
:109AA4000FC594E8070085E8070001980FB030BDA2
:109AB40000B583B00346ADF80630BDF80630132B6D
:109AC40001D900230CE0BDF80630194606480CF015
:109AD400A0FBBDF80630194604480CF09AFB01239C
:109AE400184603B05DF804FB242A0020202A002035
:109AF40000B585B00346ADF80630002303930DE0AE
:109B0400039B9B00094A13440433BDF80620114605
:109B140018460CF0B8FB039B01330393039B1C2BE7
:109B2400EED900BF05B05DF804FB00BF1C2A00207D
:109B340000B583B00346ADF80630BDF806301946CB
:109B440003480CF0A0FB00BF03B05DF804FB00BFAA
:109B5400242A002030B59BB0184B9B68DB43189334
:109B6400164B5A6818AB114618460CF070FC189A3C
:109B74006B4611461846FFF769FF0DAC6D460FCDD5
:109B84000FC40FCD0FC495E8070084E80700002335
:109B940019930BE0199B5B001AAA134433F8303C69
:109BA4001846FFF7A5FF199B013319930D9B199ACA
:109BB4009A42EFD300BF1BB030BD00BF1C2A002067
:109BC40000B583B003468DF807309DF80730194679
:109BD40003480CF070FB0346184603B05DF804FB21
:109BE4001C2A002000B585B001900091019B9B8840
:109BF400ADF80E30019B1B88112B22D01A2B26D0D6
:109C0400102B00D063E0FFF7A5FFBDF80E30184617
:109C1400FFF74EFF034683F00103DBB2002B05D0B0
:109C24002D4AE321042009F00BFB4FE0019BDB7B71
:109C3400012B4BD0BDF80E30194628480CF0E9FA38
:109C440044E0BDF80E301846FFF772FF3FE0019B79
:109C54001B7AC3F30313DBB2012B8CBF0123002354
:109C64008DF80D30019B1B7AC3F30313DBB2022B77
:109C74008CBF012300238DF80C309DF80D30002B90
:109C840017D0BDF80E30194615480CF0C2FA9DF8ED
:109C94000C30002B06D0BDF80E30194611480CF0DC
:109CA400B8FA14E0BDF80E3019460E480CF0EBFA81
:109CB4000DE0BDF80E30194609480CF0E4FABDF881
:109CC4000E30194607480CF0DEFA00E000BF00BF72
:109CD40005B05DF804FB00BF84A60300282A002019
:109CE4002C2A0020302A002000B583B00346ADF8AA
:109CF4000630BDF80630132B01D9002306E0BDF869
:109D04000630194603480CF0D6FA0346184603B049
:109D14005DF804FB202A002000B585B00346ADF8A9
:109D2400063000238DF80F30BDF806301846FFF7D3
:109D3400DBFF0346002B11D0BDF8063019460A4854
:109D44000CF0B9FA03468DF80E309DF80E30002B56
:109D540001D0022300E001238DF80F309DF80F306D
:109D6400184605B05DF804FB282A002000B585B02C
:109D74000346ADF8063000238DF80F30BDF80630E9
:109D84001846FFF7B1FF0346002B11D0BDF806308B
:109D940019460A480CF08FFA03468DF80E309DF8E8
:109DA4000E30002B01D0022300E001238DF80F3088
:109DB4009DF80F30184605B05DF804FB242A0020F6
:109DC40000B583B00346ADF80630BDF8063018463A
:109DD400FFF78AFF0346002B07D0BDF8063019466B
:109DE40004480CF068FA034600E00023184603B068
:109DF4005DF804FB2C2A002000B583B00346ADF8BF
:109E04000630BDF806301846FFF76EFF0346002BF8
:109E140007D0BDF80630194604480CF04CFA034646
:109E240000E00023184603B05DF804FB302A00204C
:109E340000B583B0182107480CF055FA0190019B36
:109E4400182B01D1182301E0019BDBB2184603B0A3
:109E54005DF804FB1C2A002000B583B003460A46C3
:109E6400ADF8063013468DF805309DF805301846D8
:109E7400FFF7A6FE0346002B16D0BDF806301846A1
:109E8400FFF732FF0346002B0ED09DF80530043354
:109E94009B00084A13440833BDF8062011461846AF
:109EA4000CF009FA034600E00023184603B05DF8FD
:109EB40004FB00BF1C2A002000B583B00346ADF8A4
:109EC40006300B468DF8053013468DF804309DF8A6
:109ED40005301846FFF774FE0346002B26D0BDF864
:109EE40006301846FFF700FF0346002B1ED09DF8EE
:109EF4000430002B0DD09DF8053004339B000D4A2F
:109F040013440833BDF80620114618460CF081F9B5
:109F14000CE09DF8053004339B00064A13440833D3
:109F2400BDF80620114618460CF0ADF900BF03B089
:109F34005DF804FB1C2A002000B587B00390029151
:109F44000192029B002B01D100231FE00023059303
:109F5400039B002B19D00023049313E003AB049953
:109F640018460CF0A8F90346002B08D0049B9AB2BB
:109F7400029B019910469847059B01330593049B66
:109F840001330493049B132BE8D9059B184607B0AF
:109F94005DF804FB00B585B00346029101928DF88B
:109FA4000F309DF80F301846FFF70AFE034683F082
:109FB4000103DBB2002B01D000230CE09DF80F302D
:109FC400074A04339B0013449B68019A029918467C
:109FD400FFF7B2FF0346184605B05DF804FB00BF67
:109FE4001C2A002082B00190019B1B781AB2019BAD
:109FF40001331B781B021BB213431BB29BB21846DE
:10A0040002B0704700B585B001900198FFF7EAFFF0
:10A014000346ADF80E30BDF80E3003F00103002BFB
:10A0240014BF01230023DBB2184605B05DF804FB1E
:10A03400A0DF704700BF1846A1DF704700BF184675
:10A0440082B00190019B00221A60BFF35F8F00BFB2
:10A0540002B0704700B585B00190012101980CF061
:10A064009BF90390BFF35F8F039B002B0CBF01236D
:10A074000023DBB2184605B05DF804FB82B0019002
:10A08400BFF35F8F019B00221A6000BF02B07047CC
:10A09400024B00221A7000BF704700BF942A0020B0
:10A0A40000B585B00190019B5B88184600F078FFED
:10A0B40003461A46019B9A800023039308E0084A4A
:10A0C400039B52F8233001989847039B0133039371
:10A0D400039B002BF3D000BF05B05DF804FB00BF69
:10A0E4005425002082B00190019B9B79012B0BD158
:10A0F400019B1B79012B07D1019B5B8842F602125D
:10A10400934201D1012300E0002303F00103DBB2F9
:10A11400184602B0704700B589B003460091ADF807
:10A12400063002AB00221A605A609A60DA601A6143
:10A134005A6107238DF80830BDF80630ADF80A30AF
:10A14400009B049302AB1846FFF7AAFF00BF09B0B7
:10A154005DF804FB10B58AB00346ADF80630002361
:10A164008DF8273002AB00221A605A609A60DA60D8
:10A174001A615A61BDF80630ADF80A30BDF80630F0
:10A184004FF6FF72934259D0BDF80630184600F0DE
:10A19400CFFC0890089B0B2B17D00B2B02D8002B5D
:10A1A40007D027E0112B0CD043F2020293423AD09D
:10A1B40020E00E238DF8083002AB1846FFF770FF3D
:10A1C40032E001238DF827302EE00F238DF808307C
:10A1D4001C4A1D4BD31ADB081B0443F00203BDF8D1
:10A1E40006201A4918460EF06BFA02AB1846FFF720
:10A1F40057FF19E0134A144BD31ADB081B0443F02E
:10A20400010408980DF02AFD03461A46BDF80630ED
:10A214000F4920460EF065FABDF806300899184635
:10A22400FFF779FF00E000BF0A4B19789DF827205B
:10A23400BDF806301846FFF73FFE00E000BF0AB045
:10A2440010BD00BF00A2030088A10300F4A6030010
:10A2540074A703009D2A002000B583B003460A4674
:10A26400ADF8063013468DF80530064B19789DF885
:10A274000520BDF806301846FFF71EFE00BF03B0E8
:10A284005DF804FB9C2A002010B58AB00346ADF8A3
:10A29400063000238DF8273000238DF82630BDF8D2
:10A2A4000630184600F0BAFB0890089B112B0FD01B
:10A2B400112B02D8002B07D030E0862B0CD043F2B0
:10A2C4000202934243D029E001238DF826303FE077
:10A2D40001238DF827303BE002AB00221A605A605C
:10A2E4009A60DA601A615A6106238DF80830BDF865
:10A2F4000630ADF80A301D4A1D4BD31ADB081B0487
:10A3040043F00203BDF806201A4918460EF0D8F9A6
:10A3140002AB1846FFF7C4FE00BF19E0134A144B02
:10A32400D31ADB081B0443F0010408980DF096FCD3
:10A3340003461A46BDF806300F4920460EF0D1F9FF
:10A34400BDF8063008991846FFF7E5FE00E000BFA7
:10A354009DF82720BDF8063011461846FFF77CFF0C
:10A364009DF8263018460AB010BD00BF00A20300B5
:10A3740088A10300C8A7030000A8030000B583B0A8
:10A3840003460091ADF80630BDF806301846FFF7D5
:10A39400E1FE00BF03B05DF804FB000008B5044B08
:10A3A4001B78002203491846FFF7F4FD00BF08BDDF
:10A3B4009D2A002081A3020000B583B003460091CA
:10A3C400ADF806300A48FFF745FE0346002B0CD0D3
:10A3D400BDF806301846FFF757FF0346002B03D19C
:10A3E4000348FFF74BFE00E000BF03B05DF804FB39
:10A3F400982A002000B587B003460091ADF80630D6
:10A4040004AB0422002118460FF006FE42F6A623F0
:10A41400ADF8103001238DF812300D4B1B680393F7
:10A4240003AA04A9BDF806301846FFF701FE0590FB
:10A43400059B002B07D1074B1978BDF80630012284
:10A444001846FFF739FD00BF07B05DF804FB00BFF5
:10A4540040A80300A12A002000B585B00346ADF84A
:10A464000630BDF80630184600F09AFD034618463B
:10A4740002AA0023092101F0E3FF0346052B07D1BB
:10A48400054B1978BDF8063001221846FFF714FD74
:10A4940000BF05B05DF804FBA02A002000B583B01E
:10A4A4000B4B1B7800220B491846FFF773FD0190F4
:10A4B400019B002B07D1084B1B7800220749184643
:10A4C400FFF768FD019000BF03B05DF804FB00BF17
:10A4D4009C2A0020BDA30200A02A0020F9A30200A8
:10A4E40000B583B00190019B1B78002B00D00CE0D9
:10A4F400019B5B881846FFF72DFE019B5B8818467D
:10A50400FFF7AAFFFFF7CAFF00BF00BF03B05DF863
:10A5140004FB000000B585B00190019B1B78082B5B
:10A524002CD1019B5B7A002B28D1019B1B7A072B32
:10A5340002D0082B1AD026E0019B9B88184600F015
:10A54400D9FD0346ADF80E30BDF80E304FF6FF725C
:10A55400934215D0BDF80E3001211846FFF77CFE5A
:10A56400BDF80E301846FFF777FF09E0094B1B686A
:10A57400012B07D10748FFF781FD03E000BF02E08C
:10A5840000BF00E000BFFFF789FF00BF05B05DF822
:10A5940004FB00BF982A002008B5FFF779FDFFF7F8
:10A5A40047FC03461A462C4B1A70FFF741FC03463E
:10A5B4001A462A4B1A70FFF73BFC03461A46284BEF
:10A5C4001A70FFF735FC03461A46264B1A70FFF73C
:10A5D4002FFC03461A46244B1A70FFF729FC034646
:10A5E4001A46224B1A70FFF723FC03461A46204BE7
:10A5F4001A70194B1B78182B17D0184B1B78182B73
:10A6040013D0174B1B78182B0FD0164B1B78182B15
:10A614000BD0154B1B78182B07D0144B1B78182B19
:10A6240003D0134B1B78182B0CD1124A124BD31A9C
:10A63400DB081B0443F00103104918460EF032F8FE
:10A64400032306E00E48FFF7FBFC0E4B01221A70B1
:10A654000023184608BD00BF9C2A00209D2A002024
:10A664009E2A00209F2A0020A02A0020A12A002040
:10A67400A22A002000A2030088A1030044A803002A
:10A68400982A0020942A002010B586B003460A4672
:10A69400ADF8063013468DF8053003AB00221A607E
:10A6A4005A600123ADF80C3009238DF80E30194B94
:10A6B4001978BDF8063000221846FFF7FDFB9DF817
:10A6C4000530002B01D0144B00E0144B0493BDF86B
:10A6D4000630184600F064FC0346184603AB00221B
:10A6E400194601F075FF0590059B002B0FD00C4A0D
:10A6F4000C4BD31ADB081B0443F0020405980DF03D
:10A70400ADFA03461A46084920460DF0D9FF00BFAA
:10A7140006B010BDA02A0020C8A90300CCA90300DC
:10A7240000A2030088A10300B4A8030000B587B009
:10A734000190019B9B88ADF81430019B1B88353B2D
:10A744001D2B00F2348101A252F823F0F9A7020074
:10A75400FBA80200B3A90200B3A90200B3A9020036
:10A76400B3A90200B3A90200B3A90200B3A902006D
:10A77400B3A90200B3A90200B3A90200B3A902005D
:10A78400B3A90200B3A90200B3A90200B3A902004D
:10A79400B3A90200B3A90200B3A90200B3A902003D
:10A7A400B3A90200B3A90200B3A90200B3A902002D
:10A7B400B3A90200B3A90200D5A70200B3A90200FD
:10A7C400C9A70200BDF814301846FFF7C3FCEEE039
:10A7D400019B06331846FFF785FC0346002B00F067
:10A7E400DF80BDF8143001211846FFF735FDFFF76F
:10A7F40055FED5E000238DF81730019B9B88ADF8FA
:10A804001430019B0A3303936C4B1A78BDF814304F
:10A8140011461846FFF720FB034683F00103DBB221
:10A82400002B40F0BF80654B1978BDF8143000222E
:10A834001846FFF741FB019BDB88B3F5857F4CD0BD
:10A84400019BDB88002B0DD05D4A5E4BD31ADB08DD
:10A854001B0443F00200019BDB881A465A490DF0A1
:10A864002FFF3AE0039B1B88012B0CD0544A554B15
:10A87400D31ADB081B0443F00200039B1B881A460F
:10A8840052490DF01DFF039B5B88012B0DD04C4AF0
:10A894004C4BD31ADB081B0443F00200039B5B8878
:10A8A4001A464B490DF00CFF17E0039B043319883B
:10A8B400BDF8143000221846FFF7BEFB0290029B3D
:10A8C400002B0AD101238DF81730424B1978BDF8BB
:10A8D400143001221846FFF7EFFA9DF8173083F081
:10A8E4000103DBB2002B5FD0BDF814300021184601
:10A8F400FFF7CAFE58E000238DF81630019B9B88B1
:10A90400ADF81430019B0A330493324B1A78BDF826
:10A91400143011461846FFF79FFA034683F00103EB
:10A92400DBB2002B42D12B4B1978BDF81430002236
:10A934001846FFF7C1FA019BDB88002B0DD0204A93
:10A94400204BD31ADB081B0443F00200019BDB8875
:10A954001A461D490DF0B4FE19E0049B9B88012B97
:10A964000DD0174A174BD31ADB081B0443F002001F
:10A97400049B9B881A4616490DF0A2FE07E0049B2F
:10A984009B79002B14BF012300238DF816309DF80A
:10A994001620BDF8143011461846FFF775FE06E080
:10A9A40000BF04E000BF02E000BF00E000BFFFF70B
:10A9B400F5FC00BF07B05DF804FB00BFA12A00202E
:10A9C40000A2030088A1030014A9030050A90300F6
:10A9D4008CA90300A22A0020B1DF704700BF1846EB
:10A9E400B2DF704700BF1846044B00221A70044BB4
:10A9F4004FF6FF721A8000BF704700BFA32A0020E1
:10AA0400A42A002008B5FFF7EFFF034B01221A70B8
:10AA14000023184608BD00BFA32A002030B58BB020
:10AA24000346ADF80630BDF80630184600F0B8FA13
:10AA34000346ADF81E30BDF81E304FF6FF72934248
:10AA440002D143F202036AE00123ADF8223000236D
:10AA54008DF8213000238DF82130BDF822305A1CA6
:10AA6400ADF822201A4603ABBDF81E00082102F0FF
:10AA740031FF0990099B002B47D1049B0693069B49
:10AA840003221A60069B991D069B1A1D069B1B68D0
:10AA9400BDF80600FFF7A4FF0990099B002B09D11C
:10AAA400BDF81E20BDF81E300821184602F0D1FF63
:10AAB40009902FE0099B0C2B03D101238DF8213041
:10AAC40004E0099B052B01D100230993BDF81E3036
:10AAD4000821184602F09EFF0590059B002B19D013
:10AAE400104A114BD31ADB081B0443F00104BDF8D0
:10AAF4001E5005980DF0B2F803462A460B4920462D
:10AB04000DF0EFFD0323099304E0099B072B01D10A
:10AB14000C2309939DF82130002B9BD1099B1846E7
:10AB24000BB030BD08A2030088A10300E4A9030010
:10AB340000B58BB00346ADF80630BDF806301846B4
:10AB440000F02EFA0346ADF81430002308930023D6
:10AB5400ADF81E300323069301238DF81730BDF89A
:10AB640014304FF6FF72934216D002AABDF8143087
:10AB74000821184602F098FE0990099B002B0BD17E
:10AB8400039B0493049B06330893049B9B88ADF8B2
:10AB94001E30049B1B680693BDF81E20BDF80600FA
:10ABA400069B0899FFF718FF0990099B042B02D113
:10ABB4001123099331E0099B082B02D10023099347
:10ABC4002BE0099B0B2B28D100238DF81730069B13
:10ABD40003F00203002B02D0012306931DE0089B1F
:10ABE400002B03D1BDF81E30002B07D0002308939F
:10ABF4000023ADF81E30032306930EE00F4A104BDA
:10AC0400D31ADB081B0443F00103BDF806200D49E9
:10AC140018460DF055FD03230993099B0B2BBBD05C
:10AC24009DF8173083F00103DBB2002B01D00B2316
:10AC34000993099B18460BB05DF804FB08A20300B6
:10AC440088A1030064AA03006EDF704700BF1846A2
:10AC54006FDF704700BF184646DF704700BF1846D5
:10AC640000B585B001900023039308E0074A039BD5
:10AC740052F8233001989847039B01330393039BB5
:10AC8400012BF3D900BF05B05DF804FBDCAB030076
:10AC940084B00190002303930AE0019A039B1344B8
:10ACA4001B78002B01D0012306E0039B013303939F
:10ACB400039B0F2BF1D90023184604B0704700B54D
:10ACC40083B001900091019B002B02D0009B002BCC
:10ACD40001D100231BE0019B1B78C3F34603DAB2C6
:10ACE400009B1B78C3F34603DBB29A4201D00023D6
:10ACF4000DE0019B581C009B0133062219460FF0FE
:10AD04002CF90346002B0CBF01230023DBB21846A9
:10AD140003B05DF804FB000030B599B00190019BCD
:10AD24001B88102B40F09180019B0CAC1D1D0FCD96
:10AD34000FC40FCD0FC495E8070084E807004FF651
:10AD4400FF73ADF85E309DF8343023F00103DBB2BD
:10AD5400062B47D001F0DEFB9DF83430C3F34603E5
:10AD6400DBB2002B3DDB012B14DD022B2ED038E0AF
:10AD74000A9B03F111020CAB043311461846FFF78A
:10AD84009EFF0346002B05D0BDF82E30ADF85E3093
:10AD940000BF27E009AA0DF12E031946072001F090
:10ADA400C3FB0346002BE3D11CE00A9B5A1C0CABEB
:10ADB40004331146184600F07BFC0346002B05D0F3
:10ADC400BDF82E30ADF85E3000BF0BE009AA0DF1DE
:10ADD4002E031946072001F0A7FB0346002BE4D1FC
:10ADE40000E000BFBDF830301946194A0B469B00FD
:10ADF4000B445B001344BDF85E201A80BDF830306C
:10AE04001946134A0B469B000B445B001344023360
:10AE14000DAA106818609188927999809A71BDF88A
:10AE24005E304FF6FF72934210D0BDF83030ADF86B
:10AE34000E30BDF85E30ADF8103000238DF80C30C4
:10AE440003AB1846FFF70CFF00E000BF19B030BD9C
:10AE5400A82A002000B587B001900091019B11330E
:10AE64000593009B11330493019B581C009B0133F1
:10AE7400102219460FF071F80346002B11D1019BE3
:10AE840001331846FFF704FF0346002B09D0009B4B
:10AE940001331846FFF7FCFE0346002B01D00123C3
:10AEA40000E000238DF80F309DF80F3003F001030C
:10AEB4008DF80F3004990598FFF701FF03468DF8CC
:10AEC4000E30059B1B7823F00103DBB2042B16D054
:10AED400059B1B7823F00103DBB2062B0FD0049BE8
:10AEE4001B7823F00103DBB2042B08D0049B1B78EE
:10AEF40023F00103DBB2062B01D0012300E0002381
:10AF04008DF80D309DF80D3003F001038DF80D30F0
:10AF14009DF80E30002B03D09DF80D30002B0AD184
:10AF24009DF80F30002B08D09DF80D3083F00103FD
:10AF3400DBB2002B01D0012300E0002303F0010366
:10AF4400DBB2184607B05DF804FB00B587B001908A
:10AF54000B46ADF8023001F0DDFA10E0BDF8163012
:10AF6400BDF802209A420AD0049B19460198FFF7C3
:10AF740071FF0346002B02D0BDF816300BE003AA84
:10AF84000DF116031946072001F0CEFA0346002BF3
:10AF9400E4D14FF6FF73184607B05DF804FB0000D8
:10AFA40000B583B00346ADF80630BDF80630132B68
:10AFB4000AD8BDF806301846FEF796FE034683F01D
:10AFC4000103DBB2002B02D04FF6FF7308E0BDF89B
:10AFD4000620054913469B0013445B000B441B8861
:10AFE400184603B05DF804FBA82A002000B583B01E
:10AFF40003460091ADF80630BDF80630132B0AD88D
:10B00400BDF806301846FEF76FFE034683F00103D1
:10B01400DBB2002B02D043F2020311E0BDF806209C
:10B024000098094913469B0013445B000B440246F5
:10B0340002331968116099889B7991809371002378
:10B04400184603B05DF804FBA82A002000B583B0BD
:10B0540001900091019800F089F8034683F0010300
:10B06400DBB2002B01D0002315E0019B1A88009B62
:10B074001B889A4201D000230DE0019B981C009B81
:10B084000233082219460EF068FF0346002B0CBF5A
:10B0940001230023DBB2184603B05DF804FB00B5BE
:10B0A40087B0019001F036FA14E0049B4633194648
:10B0B4000198FFF7CBFF0346002B08D1049B2A33EA
:10B0C40019460198FFF7C2FF0346002B02D0BDF8D2
:10B0D40016300BE003AA0DF116031946072001F000
:10B0E40023FA0346002BE0D14FF6FF73184607B04E
:10B0F4005DF804FB00B585B00346ADF80630BDF835
:10B1040006304FF6FF72934202D14FF6FF7326E0EA
:10B114000023ADF80E301CE0BDF80E201249134692
:10B124009B0013445B000B441B88BDF806209A4225
:10B134000AD1BDF80E301846FEF7D6FD0346002BA3
:10B1440002D0BDF80E300AE0BDF80E300133ADF880
:10B154000E30BDF80E30132BDED94FF6FF731846B0
:10B1640005B05DF804FB00BFA82A002084B001905C
:10B17400019B1B88002B01D0012312E000230393C1
:10B184000BE0019A039B134402331B78002B01D07C
:10B19400012306E0039B01330393039B072BF0D9A0
:10B1A4000023184604B0704782B003460A46ADF83F
:10B1B40006301346ADF80430BDF80630132B0AD818
:10B1C400BDF80620054913469B0013445B000B445D
:10B1D400BDF804201A8000BF02B07047A82A0020DE
:10B1E40000B585B00346ADF80630BDF80630184604
:10B1F400FFF780FF0346ADF80E30BDF80630184661
:10B2040002F0E0FA0290029B002B0ED1BDF80E3042
:10B21400132B0AD8BDF80E20064913469B0013448D
:10B224005B000B444FF6FF721A80029B184605B070
:10B234005DF804FBA82A002000B5A1B00390029198
:10B24400019200935023ADF8163000238DF87F301F
:10B2540000238DF87E30019B002B01D1229B002B13
:10B2640000BF019B002B08D0009B002B05D00123BD
:10B274008DF87F30009B00221A60229B002B08D09F
:10B28400239B002B05D001238DF87E30239B0022C5
:10B294001A6006AB0822002118460EF0BDFE08AB6A
:10B2A400079300231E9356E008AB50220021184652
:10B2B4000EF0B2FE1E9B5B00039A134418880DF136
:10B2C400160306AA072101F0BBF81D901D9B052B50
:10B2D40002D01D9B072B01D1052341E09DF831309D
:10B2E400C3F34603DBB28DF873309DF87330002B43
:10B2F40006D09DF87330012B02D043F202232FE0D5
:10B304009DF87F30002B10D01E9A1346DB009B1A49
:10B31400019AD01808AB1133072219460EF053FED8
:10B32400009B1B685A1C009B1A609DF87E30002B02
:10B334000ED01E9B1B01229AD01808AB0133102299
:10B3440019460EF040FE239B1B685A1C239B1A606F
:10B354001E9B01331E931E9A029B9A42A4D3002380
:10B36400184621B05DF804FB00B5D5B001AB1860F8
:10B374006B46196001AB1B68002B03D06B461B683E
:10B38400002B06D1002200210020FFF761FC0346B8
:10B3940091E03AAB4F930DF10E0350221A800CAB9F
:10B3A400B822002118460EF037FE002353930EE016
:10B3B4000CA9539A13465B001344DB009B1A1944EF
:10B3C40004AB539A43F82210539B01335393539B7A
:10B3D400072BEDD9002352935FE03AAB50220021B2
:10B3E40018460EF019FE529B5B0001AA1268134422
:10B3F40018880DF10E034EAA072101F021F851908F
:10B40400519B052B02D0519B072B12D12C4A2D4B5B
:10B41400D31ADB081B0443F00200529B5B0001AA11
:10B42400126813441B881A4627490DF049F905236D
:10B4340041E09DF8F930C3F34603DBB28DF84331A4
:10B444009DF84331002B17D09DF84331012B13D0C5
:10B454001B4A1C4BD31ADB081B0443F00200529B0B
:10B464005B0001AA126813441B881A4617490DF0A1
:10B4740027F943F202231EE00CA9529A13465B00FB
:10B484001344DB009B1AC8183AAB01331722194640
:10B494000EF099FD529B013352936B46529A1B68EE
:10B4A4009A429AD36B461B68DAB204AB0021184661
:10B4B400FFF7CEFB0346184655B05DF804FB00BF0A
:10B4C40018A2030088A10300ECAA030054AB0300F4
:10B4D40000B587B00590049103920293059B002B5D
:10B4E40001D1039B002B00BF049B002B01D1029BC5
:10B4F400002B00BF049B002B06D0124B1B781A466E
:10B50400049B1B689A4209D8029B002B08D00D4B60
:10B514001B781A46029B1B689A4201D904230CE04B
:10B52400084B1B781946029B0193039B0093049BD1
:10B53400059A0548FFF780FE0346184607B05DF8F4
:10B5440004FB00BF702B0020742B002000B59FB0BB
:10B5540003900291102200212B480EF05DFD039B05
:10B56400002B02D0029B002B08D1284B00221A701A
:10B5740000210020FFF768FB034640E0029BDAB29B
:10B58400224B1A70029B5B001A4603991E480EF068
:10B594001AFD00231B9305AB3822002118460EF038
:10B5A4003BFD1BA905AA00230193002300930B462E
:10B5B40002990398FFF740FE1C901C9B002B01D0BE
:10B5C4001C9B1CE000231D930EE005A91D9A134645
:10B5D400DB009B1ACA181D9B9B001EA90B4443F851
:10B5E4002C2C1D9B01331D931D9B072BEDD9029B16
:10B5F400DAB213AB11461846FFF726FB034618468A
:10B604001FB05DF804FB00BF742B0020702B0020DA
:10B6140000B595B0039002910192002313930DE0BD
:10B62400139BC3F10F03039A1344197805AA139BC0
:10B6340013440A461A70139B01331393139B0F2B65
:10B64400EED905AB10330D22002118460EF0E4FCB0
:10B65400002312930DE0029A129B1A44129BC3F129
:10B664000F03127814A90B4403F82C2C129B0133FA
:10B674001293129B022BEED905AB1846FFF7ECFA96
:10B68400002311930DE0119BC3F10F020199119B4B
:10B694000B4414A90A4412F81C2C1A70119B013390
:10B6A4001193119B022BEED900BF15B05DF804FB7A
:10B6B40000B587B001900091019B1B7823F0010332
:10B6C400DBB2042B01D000231FE0019B591C05AB06
:10B6D400032218460EF077FC019B191D03AB0322CD
:10B6E40018460EF070FC009B04AA03A91846FFF745
:10B6F4008FFF04A905AB032218460EF02EFC034667
:10B70400002B0CBF01230023DBB2184607B05DF801
:10B7140004FB90DF704700BF1846A5DF704700BFE9
:10B724001846B5DF704700BF184682B00190019BF0
:10B7340017221A80019B17225A80019B00221A713A
:10B74400019B00225A71019B1B229A71019B1B22AF
:10B75400DA7100BF02B0704730B589B003460A46BB
:10B76400ADF806301346ADF80430BDF80430ADF83A
:10B774001430BDF80430ADF816300023ADF818309D
:10B784000023ADF81A3003AB00221A609A8003AA92
:10B7940005A9BDF806301846FFF7BBFF0790079BC5
:10B7A400002B39D01E4A1F4BD31ADB081B0443F06D
:10B7B4000104BDF8065007980CF050FA03462A46D7
:10B7C400194920460CF08DFFBDF80C30002B03D135
:10B7D400BDF80E30002B0ED0114A124BD31ADB08E1
:10B7E4001B0443F00100BDF80C301A46BDF80E30BE
:10B7F4000E490CF076FFBDF81030002B0CD0084A2F
:10B80400084BD31ADB081B0443F00103BDF81020D6
:10B81400074918460CF054FF079B184609B030BD81
:10B82400D0A1030088A10300F4AB030040AC0300E3
:10B8340080AC030010B586B001900091009B9B88FA
:10B84400ADF80E30BDF80E30DB00019A1344063318
:10B854000593019B1A79059B9A71009BDB7B012B55
:10B8640002D0022B05D009E0019B1A88059B1A809F
:10B8740004E0019B5A88059B1A8000BF059B1A8827
:10B88400059B5B889A4226D9059B1A88BDF80E3021
:10B8940011461846FFF741FF0490049B002B03D187
:10B8A400059B01225A7116E0049B112B03D1059BC1
:10B8B40001221A710FE0114A114BD31ADB081B0441
:10B8C40043F0010404980CF0C9F903461A460D49E3
:10B8D40020460CF0F5FE059B9A79059BDB799A428C
:10B8E40008D9059B9B799AB2BDF80E3011461846CB
:10B8F400FFF732FF00BF06B010BD00BFD0A10300A8
:10B9040088A10300D8AC030000B583B00190009176
:10B91400009B9B88DB00019A134406331846FFF70B
:10B9240004FF00BF03B05DF804FB00B587B00190CD
:10B934000091009B9B88ADF81630009B5B89ADF8A5
:10B944001430BDF81630DB00019A13440633049317
:10B95400049B1B88BDF81420934228BF13469AB257
:10B96400049B5A80049B5B88172B38BF17239AB219
:10B97400049B5A80019B1B69002B15D0049B5B79A7
:10B98400002B11D040F67723ADF80830BDF81630FF
:10B99400ADF80A30049B5B88ADF80C30019B1B6941
:10B9A40002AA114601989847049B00225A71049BED
:10B9B40000221A7100BF07B05DF804FB10B588B00F
:10B9C40001900091009B9B88ADF81A30009BDB88A6
:10B9D400ADF81830BDF81A30DB00019A1344063371
:10B9E4000593BDF81830172B38BF1723ADF818305E
:10B9F400059B1B88BDF81820934228BF13469AB2B2
:10BA0400059B5A80059B00221A71059B1A88BDF874
:10BA14001A3011461846FFF784FE0790079B002B47
:10BA24000FD0174A174BD31ADB081B0443F0010449
:10BA340007980CF013F903461A46134920460CF0F4
:10BA44003FFE059B5B79002B16D1019B1B69002BE4
:10BA540013D040F67723ADF80C30BDF81A30ADF8AA
:10BA64000E30059B5B88ADF81030019B1B6903AA5F
:10BA740011460198984700E000BF08B010BD00BF10
:10BA8400D0A1030088A103000CAD030030B591B030
:10BA940001900091009B04AC1D1D0FCD0FC40FCD70
:10BAA4000FC495E8070084E80700BDF81030ADF82E
:10BAB4003E30BDF81420BDF83E30D1B2019ADB000F
:10BAC40013440A465A73019B1B69002B19D002AB1D
