:020000022000DC
:1060000000000120996202003D6202003F6202002E
:10601000416202004362020045620200000000008B
:1060200000000000000000000000000047620200C5
:1060300049620200000000004B6202004D62020053
:106040009909030051620200510F030055620200DA
:106050005762020059620200710C03005D62020087
:106060005F62020061620200636202006562020018
:1060700067620200696202006B6202006D620200E8
:106080006F6202003D32030073620200756202001B
:106090007D32030079620200798703007D6202008D
:1060A0007F62020081620200836202008562020058
:1060B0008762020089620200000000000000000008
:1060C0008B6202008D6202008F6202009162020008
:0C60D000936202009562020097620200D9
:1060DC00364937480A1A02D0072291438D46354972
:1060EC0035480A1A06D00722914381F30988022207
:1060FC0082F3148831483249324A00F045F832486C
:10610C003249334A00F040F832483349334A00F000
:10611C003BF833483349344A00F036F833483449B5
:10612C00344A00F031F834483449354A00F02CF840
:10613C0034483549354A00F027F8354835490022AE
:10614C0000F02DF834483549002200F028F8344886
:10615C003449091A082903DB00220260043001606B
:10616C00314A90471F482049884205D002680430C4
:10617C0003B4904703BCF7E700208646EC460020AA
:10618C0000212A4A9047FEE7884207D0521A05D0D0
:10619C00037801300B700131013AF9D17047884214
:1061AC0002D002700130FAE77047000000000120B5
:1061BC0000E00020000001200000012084CC03003E
:1061CC002C22002014230020F4620200F46202004E
:1061DC00D69C030084CC03002C2200202C2200200F
:1061EC00589E0300589E0300589E0300589E0300BF
:1061FC00589E0300589E0300589E0300589E0300AF
:10620C0084CC03006CCD0300142300201423002045
:10621C0014230020C0340020C0340020C0340020DF
:10622C00C0340020C0540020C3620200B1710200CF
:10623C00FEE7FEE7FEE7FEE7FEE7FEE7FEE7FEE72A
:10624C00FEE7FEE7FEE7FEE7FEE7FEE7FEE7FEE71A
:10625C00FEE7FEE7FEE7FEE7FEE7FEE7FEE7FEE70A
:10626C00FEE7FEE7FEE7FEE7FEE7FEE7FEE7FEE7FA
:10627C00FEE7FEE7FEE7FEE7FEE7FEE7FEE7FEE7EA
:10628C00FEE7FEE7FEE7FEE7FEE7FEE7034885468E
:10629C0000F002F8FFF71CBF70470000000001205F
:1062AC000C4880470C484FF0070188438546094845
:1062BC008047FFF70DBF094809490A4A884207D0B1
:1062CC00521A05D0037801300B700131013AF9D123
:1062DC0070470000A562020000000120449E0300EC
:0862EC00182200202C220020E2
:1062F40076DF704700BF184678DF704700BF184646
:106304007ADF704700BF18467CDF704700BF18462D
:106314008FDF704700BF184633DF704700BF184651
:1063240000B587B00190019806F016FD019806F0BB
:1063340079FD019B1B78022B02D00C2B18D01CE09A
:106344000DF10F0319460F4813F08BF80590059BC8
:106354000493049B002B04D00B4ADB2104980CF01B
:10636400B5F99DF80F30002B06D000F0ABF903E02F
:10637400002000F0F7FE00E000BF00BF07B05DF8AA
:1063840004FB00BF482300205C9E030000B583B0DB
:106394001349144810F063FD03468DF807309DF847
:1063A40007304FF6FE7219460F4812F0E6FC0090D3
:1063B400009B002B0FD0009B082B0CD0009B132BB1
:1063C40009D0009B43F20142934204D0074AFE21C4
:1063D40000980CF07BF900BF03B05DF804FB00BF2C
:1063E4002026002030260020342300205C9E030059
:1063F40000B583B00190FFF7C9FF00BF03B05DF89B
:1064040004FB000082B00190019B00221A70554BDE
:106414001B78002B03D0534B1B78022B01D1012393
:1064240000E0002303F00103DAB2019B5A704D4BE4
:106434001B78002B03D04B4B1B78012B01D101237C
:1064440000E0002303F00103DAB2019B9A70019B80
:106454000022DA70019B00221A71424B1B78424AD7
:106464001B0113440233B3F90020019B1A813D4BF5
:106474001B783D4A1B01134493F90020019B9A7138
:10648400384B1B78384A1B0113440633B3F90020F8
:10649400019B9A81334B1B78334A1B011344043309
:1064A40093F90020019B9A722E4B1B782E4A1B01F4
:1064B40013440A33B3F90020019B1A82294B1B7839
:1064C400294A1B011344083393F90020019B9A7352
:1064D400019B264903F112020B4603CB1060516065
:1064E400204B1B78204A1B0113440E33B3F90020C0
:1064F400019B9A831B4B1B781B4A1B0113440C33CF
:1065040093F90020019B9A76164B1B780133DAB27B
:10651400144B1A70134B1B78042B02D1114B00221D
:106524001A70124B9B791B33DAB2104B9A710F4BD2
:106534009B793B2B12D90D4B9B793C3BDAB20B4B2D
:106544009A710A4B5B790133DAB2084B5A71074BE3
:106554005B793B2B02D9054B00225A7100BF02B074
:10656400704700BF38260020DC2500203C22002094
:1065740000B585B00CF086FE0390039B0293029B4A
:10658400002B05D00D4A4FF4A67102980CF09EF82A
:106594000B4A01210B480CF0A9FE0390039B0193C5
:1065A400019B002B05D0054A4FF4A97101980CF00A
:1065B4008DF800BF05B05DF804FB00BF5C9E0300CE
:1065C400F5630200589E030000B589B09DF80430BD
:1065D400012262F303038DF804309DF80430012294
:1065E40062F307138DF80430274813F042FB034687
:1065F4009AB201AB24491846FFF786FE0790079B21
:106604000693069B002B05D0204A4FF4B3710698DD
:106614000CF05CF84FF46070FFF76EFE0790079B78
:106624000593059B002B05D0184A40F26911059883
:106634000CF04CF802AB08220021184613F0E6FADD
:106644004FF4C873ADF808304FF44873ADF80A300E
:106654000023ADF80C304FF4C873ADF80E3002AB24
:106664001846FFF74DFE0790079B0493049B002BED
:1066740005D0064A40F2731104980CF027F800BFC5
:1066840009B05DF804FB00BFBC9E03005C9E0300E0
:1066940000B583B00021094805F06AFC0190019B14
:1066A4000093009B002B05D0054A4FF4BE7100985F
:1066B4000CF00CF800BF03B05DF804FB6423002069
:1066C4005C9E030000B58DB00DF1030319461E480E
:1066D40012F0C7FE0B900B9B0A930A9B002B05D06C
:1066E4001A4A40F289110A980BF0F0FF9DF8033022
:1066F400002B21D0164B1B7883F00103DBB2002B57
:106704001AD001AB1846FFF77DFE01AB19460E48BF
:1067140012F060FE0B900B9B002B02D0082B0DD0C7
:1067240003E00B4B01221A7009E0084A40F29D1164
:106734000B980BF0CBFF02E000BF00E000BF00BFEE
:106744000DB05DF804FB00BF482300205C9E0300ED
:106754001C26002000B583B001900091009B1B789B
:10676400002B02D0022B03D006E0FFF7ABFF03E0BF
:10677400034B00221A7000BF00BF03B05DF804FB96
:106784001C26002000B583B00190054A40F2C911CF
:1067940001980BF09BFF00BF03B05DF804FB00BF42
:1067A4005C9E030010B5A2B000230193494B0193F2
:1067B40001AB1946484805F091FC2190219B209398
:1067C400209B002B05D0454A4FF4EF7120980BF025
:1067D4007DFF1BAB08220021184613F017FA404B2B
:1067E4001B931123ADF8723002238DF8703001230E
:1067F4008DF871301BAB19463A4812F04FFD2190C9
:10680400219B1F931F9B002B05D0344A4FF4F67134
:106814001F980BF05BFF17AB10220021184613F0F2
:10682400F5F901238DF8693001238DF86A300123CD
:106834008DF86B300023179301238DF8603000230B
:10684400199364238DF8683017AB1946264812F063
:106854004BFA2190219B1E931E9B002B05D01F4AAF
:106864004FF4FE711E980BF031FF07AB402200215C
:10687400184613F0CBF907AB1C49184603F0E6FAA7
:1068840007AB08331A49184603F0E0FA0FA4D4E919
:106894000034CDE90234174B049302AB1393012364
:1068A4008DF8583007AB184612F078FF2190219BE1
:1068B4001D931D9B002B05D0084A40F20B211D9807
:1068C4000BF004FF00BF22B010BD00BF55443322BB
:1068D4001100000089670200782300205C9E0300F9
:1068E400596702004823002034230020C49E03007B
:1068F400D09E03008877660008B53D4B51221A608C
:106904003B4B64225A603A4B01229A60384B012275
:106914001A733749374810F089FA374B75225A8071
:10692400354B00221A70344B4C22DA80324B002251
:106934001A71314B67225A812F4B00221A722E4B47
:106944003C22DA812C4B00221A732B4B79225A8277
:10695400294B00221A74284B5122DA82264B00223A
:106964001A75254B6A225A83234B00221A76224B2E
:106974004822DA83204B00221A771F4B8A225A843A
:106984001D4B002283F820201B4B5822DA841A4B1B
:10699400002283F82420184B78225A85164B0022B3
:1069A40083F82820144B6922DA85134B002283F8DC
:1069B4002C20114B91225A860F4B002283F8302051
:1069C4000D4B6422DA860C4B002283F834200A4BE8
:1069D40083225A87084B002283F83820064B7D22F5
:1069E400DA87054B002283F83C2000BF08BD00BFB6
:1069F4002026002030260020DC25002000B583B0AE
:106A04000B4B00224FF4803118460CF09FFC019090
:106A1400019B0093009B002B05D0064A4FF4137191
:106A240000980BF053FE00BF03B05DF804FB00BFF9
:106A3400142300205C9E030000B585B00190019BE7
:106A44001B78002B11D10B4B1B883B211846FFF7F9
:106A54004FFC0390039B0293029B002B05D0064A34
:106A640040F2612102980BF031FE00BF05B05DF8E1
:106A740004FB00BF2C2200205C9E030000B583B001
:106A84000190054A4FF41B7101980BF01FFE00BFE3
:106A940003B05DF804FB00BF5C9E030000B58BB03F
:106AA40001AB1C220021184613F0B0F80023019317
:106AB4004FF4203302934FF47023039303238DF890
:106AC40010300023ADF8123000238DF814300C4B35
:106AD40006930C4B079301AB184602F0C5FC0990D2
:106AE400099B0893089B002B05D0074A40F2832199
:106AF40008980BF0EBFD00BF0BB05DF804FB00BF82
:106B04003D6A0200816A02005C9E030000B585B004
:106B1400002001F067F80390039B0293029B002B73
:106B240005D0134A40F28F2102980BF0CFFD00F0FC
:106B34003EFD0390039B0193019B002B05D00C4A5F
:106B440040F2932101980BF0C1FDFFF7E5FB0390A0
:106B5400039B0093009B002B05D0054A40F297212C
:106B640000980BF0B3FD00BF05B05DF804FB00BF57
:106B74005C9E030000B585B003468DF807309DF890
:106B84000730002B1DD0032B00D01EE0114A124BFE
:106B9400D31ADB081B0443F003031049184610F012
:106BA4008DFE022001F01EF80390039B0293029BCA
:106BB400002B09D00A4A40F2AA2102980BF086FD64
:106BC40002E0FFF7A3FF00E000BF00BF05B05DF8DF
:106BD40004FB00BFA49D03007C9D0300E09E030012
:106BE4005C9E030000B58BB00190009100230993D3
:106BF400019B1B88212B4FD0212B04DC102B07D0A9
:106C0400112B36D08FE03B2B60D0562B71D08AE00D
:106C1400474A484BD31ADB081B0443F00303464995
:106C2400184610F04BFE072000F0DCFF0990099B8A
:106C34000593059B002B05D0404A40F2C6210598D8
:106C44000BF044FD019B9A883D4B1A803C4B1B88FA
:106C540019463C4805F064FA0990099B0493049B87
:106C6400002B59D0354A40F2C92104980BF02EFD6F
:106C740052E02F4A2F4BD31ADB081B0443F00303C3
:106C84003149184610F01AFE2D4B4FF6FF721A8048
:106C94002E4B00221A7046E000238DF80C3000239E
:106CA4008DF80D30019B9B8803AA11461846FFF707
:106CB4002FFB0990099B0693069B002B2ED01F4A9D
:106CC40040F2DB2106980BF001FD27E0019B9B8835
:106CD40013211846FFF70CFB0990099B0893089BA6
:106CE400002B1DD0154A40F2E32108980BF0EEFC6E
:106CF40016E0019B9B8813211846FFF7F9FA0990C7
:106D0400099B0793079B002B0CD00C4A40F2EB2104
:106D140007980BF0DBFC05E000BF04E000BF02E0D5
:106D240000BF00E000BF00BF0BB05DF804FB00BF74
:106D3400A49D03007C9D0300F49E03005C9E03005D
:106D44002C22002078230020009F03001C26002012
:106D540000B587B011F030FC0590059B0493049BAB
:106D6400002B05D0164A40F2FE2104980BF0AEFC2D
:106D74000023019301AB1946012011F025FD059074
:106D8400059B0393039B002B05D00D4A4FF44171DF
:106D940003980BF09BFC01AB184611F009FE05901B
:106DA400059B0293029B002B05D0054A4FF44271C8
:106DB40002980BF08BFC00BF07B05DF804FB00BF2A
:106DC4005C9E030000B587B003468DF807309DF83C
:106DD4000730043B0A2B54D801A252F823F000BF19
:106DE400176E0200876E0200876E0200436E020077
:106DF400876E0200876E0200116E0200876E020029
:106E0400876E0200876E0200756E0200FFF77EFE39
:106E14003EE0214B1B8813211846FFF769FA0590C1
:106E2400059B082B2FD0059B0393039B002B2AD093
:106E34001A4A40F2223103980BF048FC23E0164B27
:106E44001B884FF6FF7293421FD1154802F08AF94E
:106E54000590059B082B18D0059B0493049B002BDD
:106E640013D00E4A4FF44B7104980BF02FFC0CE036
:106E7400094B1B884FF6FF72934208D0FFF722FCA0
:106E840005E000BF04E000BF02E000BF00E000BF77
:106E940000BF07B05DF804FB2C2200205C9E0300B9
:106EA4008423002000B587B007F0AEFA0590059B57
:106EB4000493049B002B05D0384A40F246310498D1
:106EC4000BF004FC6B4605220021184612F09EFECE
:106ED4009DF8003043F001038DF800309DF8003038
:106EE4006FF341038DF800309DF800306FF3820397
:106EF4008DF800309DF800306FF3C3038DF8003037
:106F04009DF80030032262F306138DF800309DF8DB
:106F140000306FF3C7138DF8003007238DF801306C
:106F240010238DF802309DF8033043F001038DF8EF
:106F340003309DF8033043F002038DF803309DF8CD
:106F4400043043F001038DF804309DF8043043F01D
:106F540002038DF804306B46184607F037FB0590A2
:106F6400059B0393039B002B05D00C4A40F2593137
:106F740003980BF0ABFB0A4807F000FB0590059B58
:106F84000293029B002B05D0044A4FF457710298D8
:106F94000BF09CFB00BF07B05DF804FB5C9E030094
:106FA4002563020000B583B00E4A0F4BD31ADB08E9
:106FB4001B0443F003030D49184610F07FFC07F04F
:106FC400C1FB0190019B0093009B002B05D0084A54
:106FD40040F2693100980BF079FB00BF03B05DF813
:106FE40004FB00BFA49D03007C9D0300109F0300CD
:106FF4005C9E030000B5AFB001ABAC220021184683
:1070040012F004FE02238DF8043001238DF80630BB
:1070140006238DF807300323ADF81430124B069382
:1070240001238DF880302823239344F25063249362
:107034000E4B2A9301AB19460D4801F068FE2D90C2
:107044002D9B2C932C9B002B05D00A4A40F28331B4
:107054002C980BF03BFB0121054801F04BFE00BFCF
:107064002FB05DF804FB00BF30220020796B0200D2
:10707400842300205C9E030000B587B0019017496B
:10708400032000F0C9FD0590059B0493049B002B8D
:1070940005D0134A40F2933104980BF017FB0DF11D
:1070A4000B031946002000F0E5FA0590059B0393B5
:1070B400039B002B05D00A4A40F2963103980BF04B
:1070C40005FB9DF80B30022B0CBF01230023DAB221
:1070D400019B1A7000BF07B05DF804FBC96D020084
:1070E4005C9E030000B583B04FF40041002010F013
:1070F40019F90190019B0093009B002B05D0064ACF
:1071040040F2A13100980BF0E1FA10F0A9F800BFA9
:1071140003B05DF804FB00BF5C9E030000B583B0C0
:107124000FF0BEFD0190019B0093009B002B05D046
:10713400044A40F2AD3100980BF0C8FA00BF03B026
:107144005DF804FB5C9E030008B510F041FC0346A7
:1071540083F00103DBB2002B01D00FF0B7FD00BFB9
:1071640008BD000000B585B003468DF807309DF8D2
:107174000730002B02D0FFF715FF0FE00321094869
:1071840001F0AAFE0390039B0293029B002B05D0FF
:10719400054A40F2CA3102980BF098FA00BF05B0D4
:1071A4005DF804FB842300205C9E030000B583B0DB
:1071B400FFF798FFFFF7DCF90DF107031846FFF717
:1071C4005BFFFFF7ABFFFFF7C3FDFFF7FDF9FFF729
:1071D4005FFAFFF70FFFFFF7E5FAFFF78DFBFFF705
:1071E4005DFCFFF75FFE0A4A0A4BD31ADB081B0457
:1071F40043F003030849184610F060FBFFF7FEFB59
:107204009DF807301846FFF7ADFFFFF79DFFFCE739
:10721400A49D03007C9D0300209F030082B0019085
:107224004FF0A043184602B0704700B585B00190F6
:10723400084611461A4603468DF803300B468DF86E
:10724400023013468DF8013001AB1846FFF7E6FF14
:1072540003909DF803209DF802305B001A439DF8CB
:1072640001309B001A439DF818301B0242EA0301C7
:107274009DF81C301B04019A1943039B02F5E0722C
:1072840043F8221000BF05B05DF804FB00B585B0DB
:107294000390002301930023009300230122012182
:1072A4000398FFF7C2FF00BF05B05DF804FB00B50B
:1072B40085B0019001AB1846FFF7B0FF0390019B26
:1072C400012202FA03F31946039800F069F800BF9B
:1072D40005B05DF804FB00B585B0019001AB18461C
:1072E400FFF79CFF0390019B012202FA03F3194666
:1072F400039800F05FF800BF05B05DF804FB00B52B
:1073040085B0019001AB1846FFF788FF0390039BFB
:10731400D3F804350293029BDA43019B012101FA5D
:1073240003F31A40039BC3F80825019B01229A40EA
:10733400029B1A40039BC3F80C2500BF05B05DF8FF
:1073440004FB00B583B001900091009B002B03D196
:107354000198FFF7C0FF02E00198FFF7A8FF00BF04
:1073640003B05DF804FB00B585B0019001AB18468D
:10737400FFF754FF0390039800F00AF80246019BBC
:1073840022FA03F303F00103184605B05DF804FB89
:1073940082B00190019BD3F80435184602B07047BF
:1073A40082B001900091019B009AC3F8082500BFA8
:1073B40002B0704782B001900091019B009AC3F81B
:1073C4000C2500BF02B0704700B585B001901923A9
:1073D4001846FFF7C8FF0346002B14BF0123002300
:1073E4008DF80F309DF80F30002B14BF01230023BC
:1073F400DBB283F00103DBB203F00103DBB2184616
:1074040005B05DF804FB00B583B001901923002199
:107414001846FFF796FF00BF03B05DF804FB00B504
:1074240083B00190192301211846FFF78AFF00BF9A
:1074340003B05DF804FB00B583B00023019305E0BD
:107444000198FFF7ECFF019B01330193019B002B93
:10745400F6D000BF03B05DF804FB00B583B0002391
:10746400019305E00198FFF7CEFF019B01330193DF
:10747400019B002BF6D000BF03B05DF804FB00B500
:1074840083B0019019231846FFF739FF00BF03B0FA
:107494005DF804FB00B583B00023019306E01923D3
:1074A4001846FFF7F3FE019B01330193019B002B68
:1074B400F5D0FFF7C0FF00BF03B05DF804FB00B5D3
:1074C40083B00190019B03F00103002B01D0FFF76F
:1074D400E1FF00BF03B05DF804FB00B583B00122F7
:1074E4000021002000F0CAFB0190019B002B04D076
:1074F400019B072B01D0019B1CE0072202210120E4
:1075040000F0BCFB0190019B002B04D0019B072BD6
:1075140001D0019B0EE004220221002000F0AEFB0A
:107524000190019B002B04D0019B072B01D0019BF0
:1075340000E00023184603B05DF804FB00B583B0F7
:1075440001220221002000F099FB0190019B002BF5
:1075540004D0019B072B01D0019B1CE007220221D0
:10756400012000F08BFB0190019B002B04D0019BB8
:10757400072B01D0019B0EE00A220021002000F01D
:107584007DFB0190019B002B04D0019B072B01D0B4
:10759400019B00E00023184603B05DF804FB82B0B1
:1075A4000190019B00221A7000BF02B0704700B521
:1075B40083B0002000F07BFB0190019B002B04D0E2
:1075C400019B062B01D0019B0CE0012000F06FFB16
:1075D4000190019B002B04D0019B062B01D0019B41
:1075E40000E00023184603B05DF804FB00B585B045
:1075F40001900091019B1B88102B02D0112B18D0F5
:107604002FE01A4B1B68002B0DD1FFF766FF039088
:10761400039B002B07D0164B1B68002B03D0144B85
:107624001B6803989847114B1B6801330F4A13607A
:1076340017E00E4B1B68013B0C4A13600B4B1B6895
:10764400002B0DD1FFF77AFF0390039B002B07D08B
:10765400074B1B68002B03D0054B1B680398984706
:1076640000BF00BF05B05DF804FB00BF402600204A
:107674003C26002000B585B00190009100230393BF
:107684000A4A019B1360009B002B02D00098FFF76D
:1076940086FF074B1B68002B02D1FFF74FFF0390B7
:1076A400039B184605B05DF804FB00BF3C26002090
:1076B4004026002000B583B00C4B1B78002B0FD064
:1076C4000023019308E0019B022B02D00198FFF7ED
:1076D400A6FE019B01330193019B002BF3D001E033
:1076E400FFF7A9FE00BF03B05DF804FB4C260020A1
:1076F4002DE9F04884B003468DF807300023039346
:1077040000230293D14B1B78002B04D0CF4B0022D3
:107714001A70FFF7CFFF9DF80730172B00F2358260
:1077240001A252F823F000BF8D770200A577020072
:10773400A57702002D780200B578020023790200B3
:10774400A9790200C9790200D9790200F779020007
:10775400157A0200337A02005D7A02006B7A020025
:107764006B7A02006B7A02006B7A02006B7A020079
:10777400317B02003F7B0200537B0200677B0200E7
:10778400817B0200817B0200FFF794FFB04B184617
:107794000BF00EFE0390AF4A9DF807301370F5E12D
:1077A4000020FFF711FE0346002B0DD00020FFF749
:1077B40036FE9DF80730022B02D14FF4E16301E05D
:1077C4004FF47A6302930BE00020FFF71CFE9DF850
:1077D4000730022B01D1C82301E04FF4C873029390
:1077E4009C4A9DF807301370994D029B19464FF03F
:1077F40000024FF000034FF00004D40344EA514464
:10780400CB0313F5FA7044F100014FF47A724FF090
:10781400000312F0D7F803460C4600221946284606
:107824000BF094FD0390B1E10020FFF7CDFD03467A
:10783400002B0DD00020FFF7F2FD9DF80730032B3D
:1078440002D14FF4487301E04FF47A6302930BE0E2
:107854000020FFF7D8FD9DF80730032B01D1C82382
:1078640001E04FF4C87302937A4A9DF8073013700D
:10787400774D029B19464FF000024FF000034FF082
:107884000004D40344EA5144CB0313F5FA7044F1E1
:1078940000014FF47A724FF0000312F093F803469C
:1078A4000C460022194628460BF050FD03906DE16A
:1078B4000020FFF789FD0346002B06D00020FFF7C8
:1078C400AEFD4FF47A63029305E00020FFF79BFDC1
:1078D4004FF4C87302935F4A9DF8073013705C4DF0
:1078E400029B19464FF000024FF000034FF00004D2
:1078F400D40344EA5144CB0313F5FA7044F1000174
:107904004FF47A724FF0000312F05CF803460C4611
:107914000022194628460BF019FD039036E1002099
:10792400FFF752FD0346002B0CD00020FFF777FD34
:107934009DF80730052B01D1C82301E04FF47A6389
:1079440002930BE00020FFF75EFD9DF80730052B46
:1079540001D1C82301E04FF4C87302933D4A9DF856
:10796400073013703A4D029B19464FF000024FF056
:1079740000034FF00004D40344EA5144CB0313F54D
:10798400FA7044F100014FF47A724FF0000312F0E0
:1079940019F803460C460022194628460BF0D6FC7B
:1079A4000390F3E00020FFF76AFD2A4A9DF80730B0
:1079B4001370274B002240F6CD4118460BF0C6FC4D
:1079C4000390E3E00020FFF71EFD224A9DF80730F4
:1079D4001370DBE01D4B01221A700120FFF74FFDED
:1079E4001B4B002240F6CD4118460BF0AFFC039030
:1079F400CCE0164B01221A700120FFF740FD144B16
:107A040000224FF4804118460BF0A0FC0390BDE027
:107A14000E4B01221A700120FFF731FD0C4B00229E
:107A240040F6CD4118460BF091FC0390AEE0074BB5
:107A340001221A700120FFF722FD054B00224FF4AA
:107A4400804118460BF082FC03909FE045260020FD
:107A54005026002044260020FFF7FFFC4E4A9DF8E4
:107A64000730137092E04D4B18460BF0A1FC0390C5
:107A74009DF80730C3F111030293029B002B4ED0F3
:107A8400039B002B4BD1029B012B41D9434F029BFB
:107A94009BB29DB24FF00006AB46B4461BEB0B0302
:107AA4004CEB0C049B46A4461BEB050B4CEB060C61
:107AB4004FF000014FF000024FEACC0242EA5B7241
:107AC4004FEACB018B4694461BEB050B4CEB060CA3
:107AD4004FF000014FF000024FEA8C4242EA9B3221
:107AE4004FEA8B418B4694465B46644613F5FA7025
:107AF40044F100014FF47A724FF0000311F062FF79
:107B040003460C460022194638460BF01FFC03902E
:107B14000220FFF778FC224B01221A7036E0022083
:107B2400FFF77DFC1E4B00221A702FE0FFF7C2FD09
:107B3400194A9DF80730137028E0FFF7BBFD0020B9
:107B4400FFF761FC144A9DF8073013701EE0FFF73D
:107B5400B1FD0120FFF757FC0F4A9DF80730137061
:107B640014E0FFF7A7FD0020FFF74DFC0120FFF70D
:107B74004AFC094A9DF80730137007E0FFF76DFCD3
:107B8400054A9DF80730137000E000BF039B1846B8
:107B940004B0BDE8F08800BF442600207026002011
:107BA4004C26002000B583B00190074B1B6803F0FE
:107BB4000103002B04D0054B1B781846FFF798FDF2
:107BC40000BF03B05DF804FB4826002044260020D3
:107BD40000B583B001900220FFF751FC00BF03B051
:107BE4005DF804FB00B585B003468DF8073000232B
:107BF4000393084B1B6803F00103002B05D09DF889
:107C040007301846FFF774FD0390039B184605B030
:107C14005DF804FB4826002000B585B00190009172
:107C240000230393104A019B1360019B03F001039B
:107C3400002B14D00120FFF742FC039B002B05D13D
:107C44000A4A00210A480BF051FB0390039B002BC6
:107C540005D1084A012108480BF048FB0390039B17
:107C6400184605B05DF804FB48260020A97B0200F5
:107C7400409F0300D57B0200449F030084B0019021
:107C84000B468DF8033013468DF80230002303931E
:107C940007230393039B184604B0704782B00190F6
:107CA4000B468DF803300623184602B0704700B522
:107CB40083B0019001210198FFF7F0FF03461846B5
:107CC40003B05DF804FB6DDF704700BF184679DF31
:107CD400704700BF18467DDF704700BF184664DF59
:107CE400704700BF184682B003460091ADF80630D5
:107CF400BDF80630DAB2009B1A70BDF806301B0AD4
:107D04009AB2009B0133D2B21A700223184602B011
:107D1400704700B589B0039002911346ADF8063060
:107D2400029B1B8803F10902BDF806309A4201D96F
:107D34000C2353E004AB1846FFF7C5FF0790079BDD
:107D44000693069B002B01D0069B47E0029B1B88F1
:107D54001A46039B134408221A70029B1B880133A2
:107D64009AB2029B1A80029B1B881A46039B1344F7
:107D74001B221A70029B1B8801339AB2029B1A8041
:107D8400029B1B881A46039B981804AB01330622F6
:107D9400194611F012FF029B1B8806339AB2029B0C
:107DA4001A809DF8103023F00103DBB2002B07D1B9
:107DB400029B1B881A46039B134400221A7006E098
:107DC400029B1B881A46039B134401221A70029BD0
:107DD4001B8801339AB2029B1A800023184609B00B
:107DE4005DF804FB00B589B0039002910192ADF8EF
:107DF4000230039B1B78012B05D1039B5B78002B7E
:107E040001D1072392E0019B1B889A1CBDF8023024
:107E14009A420ED8039B1B78012B0CD1019B1B8823
:107E24001A46039B5B7813449A1CBDF802309A42AD
:107E340001D90C237AE0019B1B88BDF80220D31AD8
:107E44009BB2023BADF81C30BDF81C30ADF81230CB
:107E5400019B1B880233029A13440DF1120211464E
:107E64001846FFF738FF0690069B0593059B002BE9
:107E740001D0059B5AE0039B1B78022B06D0039B81
:107E84005B789AB2BDF812309A4209D3BDF8123029
:107E9400BDF81C209A4203D309238DF81F3017E044
:107EA40008238DF81F30039B1B78012B0CD1039BF7
:107EB4005B789BB2BDF81C209A4205D3039B5B7888
:107EC4009BB2ADF8123003E0BDF81C30ADF81230AF
:107ED400BDF81230FE2B01D90C2327E0BDF8123077
:107EE400DAB2019B1B881946029B0B440132D2B2C1
:107EF4001A70019B1B8801339AB2019B1A80019B63
:107F04001B881A46029B13449DF81F201A70019B7C
:107F14001B8801339AB2019B1A80019B1A88BDF811
:107F2400123013449AB2019B1A800023184609B0F8
:107F34005DF804FB00B589B0039002911346ADF8D7
:107F44000630029B1B881A1DBDF806309A4201D9DF
:107F54000C233BE00DF116031846FFF7B8FE07901B
:107F6400079B0693069B002B01D0069B2EE0029BE9
:107F74001B881A46039B134403221A70029B1B8816
:107F840001339AB2029B1A80029B1B881A46039BF8
:107F9400134419221A70029B1B8801339AB2029B64
:107FA4001A80BDF81620029B1B881946039B0B44BC
:107FB40019461046FFF797FE03461946029B1A8896
:107FC4008BB213449AB2029B1A800023184609B05C
:107FD4005DF804FB84B0029101921A4603468DF8C1
:107FE4000F301346ADF80C30019B1B88DA1CBDF82A
:107FF4000C309A4201D90C2328E0019B1B881A46B5
:10800400029B134402221A70019B1B8801339AB20B
:10801400019B1A80019B1B881A46029B1344012270
:108024001A70019B1B8801339AB2019B1A80019B31
:108034001B881A46029B13449DF80F201A70019B5B
:108044001B8801339AB2019B1A800023184604B09E
:10805400704784B0029101921A4603468DF80F309E
:108064001346ADF80C30019B1B88DA1CBDF80C30AC
:108074009A4201D90C2328E0019B1B881A46029BD3
:10808400134402221A70019B1B8801339AB2019B8C
:108094001A80019B1B881A46029B13440A221A70F9
:1080A400019B1B8801339AB2019B1A80019B1B8898
:1080B4001A46029B13449DF80F201A70019B1B88DB
:1080C40001339AB2019B1A800023184604B070470A
:1080D40000B58FB0039001930B468DF80B30134617
:1080E4008DF80A3000238DF83330109B1B88ADF8CF
:1080F400303000230D9371E0039B5A680D9B9B0065
:108104001A4405AB106818600DF11B0105AB002281
:108114001846FFF7E4FD0A900A9B0993099B002B7C
:1081240001D0099B7CE09DF81B309DF80A209A42FF
:1081340051D19DF83330002B01D0002300E00223FD
:108144008DF82330109B1B881A469DF81B301A4467
:108154009DF823301A44BDF844309A4201DD0C23C3
:108164005EE09DF8333083F00103DBB2002B16D0C0
:10817400109B1B8801339AB2109B1A80109B1B889A
:108184001A46019B13449DF80B201A70109B1B8800
:1081940001339AB2109B1A8001238DF83330109B5F
:1081A4001B881A46019B1A440DF11B0105AB1846A6
:1081B400FFF795FD0A900A9B0793079B002B01D0BC
:1081C400079B2DE0109B1A889DF81B309BB213442B
:1081D4009AB2109B1A800D9B01330D93039B1B884D
:1081E4001A460D9B934287DB9DF83330002B16D043
:1081F400109B1A88BDF83030D31A9BB2013BADF8FE
:108204002E30BDF82E30FF2B01D90C2308E0BDF829
:108214003030019A1344BDF82E20D2B21A700023D4
:1082240018460FB05DF804FB00B58BB005900393BE
:108234000B468DF8133013468DF812309DF8131049
:10824400BDF8343001930C9B0093039B02220598E4
:10825400FFF73EFF0990099B0893089B002B01D070
:10826400089B14E09DF81210BDF8343001930C9B68
:108274000093039B10220598FFF72AFF0990099B9E
:108284000793079B002B01D0079B00E000231846AF
:108294000BB05DF804FB82B00190019B1B88052B99
:1082A4000AD9019B1B88B3F5486F07D9019B1B882A
:1082B4004FF6FF72934201D0072325E0019B5B88B0
:1082C400052B0AD9019B5B88B3F5486F07D9019B3D
:1082D4005B884FF6FF72934201D0072314E0019BA1
:1082E4001B884FF6FF7293420DD0019B5B884FF6BB
:1082F400FF72934207D0019B1A88019B5B889A42C4
:1083040001D9072300E00023184602B0704700B5E6
:1083140087B0039002910192ADF80230019B1B8853
:108324009A1DBDF802309A4201D90C234DE00398FE
:10833400FFF7B1FF0590059B0493049B002B01D02C
:10834400049B42E0019B1B881A46029B13440522AE
:108354001A70019B1B8801339AB2019B1A80019BFE
:108364001B881A46029B134412221A70019B1B8815
:1083740001339AB2019B1A80039B1A88019B1B88C4
:108384001946029B0B4419461046FFF7ACFC034602
:108394001946019B1A888BB213449AB2019B1A8026
:1083A400039B5A88019B1B881946029B0B44194660
:1083B4001046FFF798FC03461946019B1A888BB2B6
:1083C40013449AB2019B1A800023184607B05DF843
:1083D40004FB00B587B0039002910192ADF802301E
:1083E400039B9B8802330593019B1B881A46059BBC
:1083F40013449A1CBDF802309A4201D90C2354E06C
:10840400059BFE2B01D90C234FE0059BDAB2019B9F
:108414001B881946029B0B440132D2B21A70019B8D
:108424001B8801339AB2019B1A80019B1B881A4650
:10843400029B1344FF221A70019B1B8801339AB2DA
:10844400019B1A80039B1A88019B1B881946029B77
:108454000B4419461046FFF746FC03461946019B98
:108464001A888BB213449AB2019B1A80039B9B888F
:10847400002B19D0039B9B68002B01D1072314E028
:10848400019B1B881A46029B9818039B9968039BBF
:108494009B881A4611F091FB019B1A88039B9B88C9
:1084A40013449AB2019B1A800023184607B05DF862
:1084B40004FB00B589B0039002910192ADF802303B
:1084C400039B9B6A002B01D1072372E000238DF8E4
:1084D4001F3066E0039B996A9DF81F2013465B00DA
:1084E40013449B000B440693069B9B88023305931D
:1084F400059BFE2B01D90C235BE0059BDAB2019BA3
:108504001B881946029B0B440132D2B21A70019B9C
:108514001B8801339AB2019B1A80019B1B881A465F
:10852400029B134416221A70019B1B8801339AB2D2
:10853400019B1A80069B1A88019B1B881946029B83
:108544000B4419461046FFF7CEFB03461946019B20
:108554001A888BB213449AB2019B1A80069B9B889B
:10856400002B19D0069B9B68002B01D1072320E028
:10857400019B1B881A46029B9818069B9968069BC8
:108584009B881A4611F019FB019B1A88069B9B884D
:1085940013449AB2019B1A809DF81F3001338DF861
:1085A4001F30039B93F82C309DF81F209A4291D3DF
:1085B4000023184609B05DF804FB00B595B005909A
:1085C4000491039200231393039B1B88ADF84A3054
:1085D400039B00221A80059B93F82D30002B0ED0AC
:1085E400BDF84A301A4603990498FFF792FB13909A
:1085F400139B1193119B002B01D0119BD8E0059B79
:108604009B78002B0ED0BDF84A301A460399049883
:10861400FFF790FC1390139B1093109B002B01D039
:10862400109BC5E0059BDB78002B10D0059BDB7805
:1086340058B2BDF84A30039A0499FFF7CBFC139063
:10864400139B0F930F9B002B01D00F9BB0E0059B56
:108654005B68002B11D0059B5B6893F90000BDF8A3
:108664004A30039A0499FFF7F4FC1390139B0E937A
:108674000E9B002B01D00E9B9AE0059B1B89002BBF
:1086840014D0059B03F10800BDF84A300193039B05
:108694000093049B06220221FFF7C6FD1390139B4F
:1086A4000D930D9B002B01D00D9B81E0059B1B8A34
:1086B400002B14D0059B03F11000BDF84A30019340
:1086C400039B0093049B07220321FFF7ADFD139046
:1086D400139B0C930C9B002B01D00C9B68E0059B17
:1086E4001B8B002B14D0059B03F11800BDF84A30F6
:1086F4000193039B0093049B15221421FFF794FD1F
:108704001390139B0B930B9B002B01D00B9B4FE0FF
:10871400059B1B6A002B0FD0059B186ABDF84A30D5
:10872400039A0499FFF7F3FD1390139B0A930A9B92
:10873400002B01D00A9B3BE0059B5B6A002B0FD00A
:10874400059B586ABDF84A30039A0499FFF741FE25
:108754001390139B0993099B002B01D0099B27E0DD
:10876400059B93F82C30002B0ED0BDF84A30039AA9
:1087740004990598FFF79DFE1390139B0893089B9B
:10878400002B01D0089B13E0059B1B78002B0ED017
:10879400BDF84A30039A04990598FFF723FB139018
:1087A400139B0793079B002B01D0079B00E0139BAF
:1087B400184615B05DF804FB86B0039001921A4682
:1087C4000B46ADF80A3013468DF80930039B002B95
:1087D40002D0019B002B01D100233CE00023ADF823
:1087E40016300CE0BDF81630039A13441B789AB285
:1087F400BDF8163013449BB20133ADF81630019B1B
:108804001B88BDF816209A4209D3BDF816300133EF
:10881400039A13441B789DF809209A4205D0BDF8A9
:108824001620BDF80A309A42DCD3BDF81620BDF8F4
:108834000A309A4201D300230DE0BDF8163002330A
:108844009AB2019B1A80BDF81630039A13441B7820
:108854009BB2013B9BB2184606B0704700B585B089
:1088640001900B46ADF8023013468DF80130002319
:10887400ADF80C309DF8013003AABDF80210019840
:10888400FFF79AFF0346ADF80E30BDF80E30002B0B
:1088940001D1002304E0BDF80C301A46019B1344B7
:1088A400184605B05DF804FB72DF704700BF184638
:1088B40073DF704700BF184674DF704700BF184667
:1088C40082B00190019B93F85432184602B070476D
:1088D40084B00190002303930AE0019A039B13449C
:1088E4001B78002B01D0012306E0039B0133039383
:1088F400039B052BF1D90023184604B070470000F0
:1089040082B003468DF807309DF807305A1C074B98
:1089140083FB02135910D317C91A0B469B000B444F
:10892400D11ACBB2184602B0704700BF67666666BC
:1089340082B001900091009BDB7B012B04D1009B52
:108944009A88019BA3F8482200BF02B0704700B583
:1089540085B001900091019B002283F85222009B74
:108964009A88019BB3F848329A4216D1019B1B792D
:1089740083F00103DBB2002B0FD00121019800F03A
:10898400ABFA0390039B002B07D0019B9B6B002B3E
:1089940003D0019B9B6B0398984700BF05B05DF81B
:1089A40004FB00B585B001900091009B1B88262B29
:1089B4001ED1009B1B7A012B03D0009B1B7A022B38
:1089C40017D1019B9B781846FFF79AFF0346194677
:1089D400019800F081FA0390039B002B09D0019BBE
:1089E4009B6B002B05D0019B9B6B0398984700E081
:1089F40000BF05B05DF804FB00B585B001900B46DF
:108A04008DF80330019B03F24B231846FFF760FFF8
:108A140003468DF80F309DF80330013B032B33D808
:108A240001A252F823F000BF3D8A0200618A0200CD
:108A3400758A0200818A0200019B9B79002B0DD06C
:108A4400019B93F8243083F00103DBB2002B05D0A3
:108A54009DF80F30002B01D0012316E0019BDB7938
:108A6400002B05D09DF80F30002B01D002230CE021
:108A7400019B1B7A002B01D0032306E0019B5B7A48
:108A8400002B01D0042300E00023184605B05DF854
:108A940004FB00BF82B001900091019B012283F886
:108AA4003120019B0022C3F84422019B03F24A2295
:108AB400009B5A60009B00229A60009B02221A705D
:108AC400009B80229A810023184602B0704782B02E
:108AD40001900091019B022283F83120019B93F8BD
:108AE4002430002B03D0009B07221A7002E0009B65
:108AF40003221A70019B1B699AB2009B9A81019B05
:108B04000022C3F84422019B03F24A22009B5A60CC
:108B1400019BDA68009B9A600023184602B07047F4
:108B240000B583B00190019B5B79002B0FD0019BB2
:108B340093F8523283F00103DBB2002B07D0019883
:108B4400FFF7BEFE0346002B01D0012300E0002303
:108B540003F00103DBB2184603B05DF804FB00B573
:108B640085B001900B468DF80330019BD3F8340295
:108B7400019BB3F8383201221946FFF76FFE0390C8
:108B8400039B002B03D0039B9DF803201A70019BC9
:108B940003F15400019B03F50D71019B3C331A460C
:108BA400FFF782FE0346184605B05DF804FB00B5E6
:108BB40085B001900091019B5A69009B9A60019BCA
:108BC4009B699AB2009B9A81019B93F82430002BF5
:108BD40004D0019B062283F83C2003E0019B012280
:108BE40083F83C200198FFF79BFF0346002B13D02A
:108BF400009B02221A7504210198FFF7B0FF03902D
:108C0400039B0293029B002B01D0029B0FE0019B6C
:108C1400052283F8312003E0019B032283F83120ED
:108C2400019B03F50D72019BC3F8442200231846EF
:108C340005B05DF804FB00B585B001900091019B7F
:108C4400DA69009B9A60019B1B6A9AB2009B9A8125
:108C5400019B93F82430002B04D0019B062283F857
:108C64003C2003E0019B012283F83C200198FFF79C
:108C740057FF0346002B13D0009B02221A750421D0
:108C84000198FFF76CFF0390039B0293029B002B58
:108C940001D0029B0FE0019B062283F8312003E000
:108CA400019B042283F83120019B03F50D72019B83
:108CB400C3F844220023184605B05DF804FB82B0D3
:108CC4000190019B9B78002B06D0019B93F82030E8
:108CD400002B01D000230AE0019B9B6A042B03D0E4
:108CE400019B5B6A042B01D1002300E00123184699
:108CF40002B0704782B001900B468DF80330019B9F
:108D04009DF8032083F8302000BF02B0704730B5CF
:108D140087B001900091009B002B02D0019B002B97
:108D240001D10E23C4E0009B78331846FFF7C7FF38
:108D3400034683F00103DBB2002B01D00723B7E025
:108D4400019B00229A70019A009B141D03F178057F
:108D54000FCD0FC40FCD0FC495E8070084E80700BA
:108D6400019B002283F83020009BD3F8A420019BB0
:108D74005A63009BD3F8A820019B9A63019B4FF68A
:108D8400FF72A3F84822019B03F50D72019BC3F8FF
:108D94004422019B03F24A2307220021184610F0C3
:108DA40035FF019B1B7883F00103DBB2002B03D05A
:108DB400019BFF2283F85420019B03F15502019B80
:108DC400C3F83422019B93F82430002B04D0019B78
:108DD400EE22A3F8382203E0019B1F22A3F83822D5
:108DE4000098019B03F15501019B03F50E731A468C
:108DF400FFF7E3FB0590059B0493049B002B01D034
:108E0400049B55E0019B03F24312019BC3F83C22EF
:108E1400019B93F82430002B04D0019BEE22A3F88D
:108E2400402203E0019B1F22A3F84022009B03F190
:108E34003C00019BD3F83C12019B03F510731A46C6
:108E4400FFF7BBFB0590059B0393039B002B01D00D
:108E5400039B2DE0019B012283F85120019B9B6918
:108E64009AB2019BA3F84820019B012283F83C207D
:108E7400019B00221A64019B002283F85020019B6D
:108E84005A69019B5A64019B03F15400019B3C33D2
:108E94001A460021FFF708FD0590059B0293029BEB
:108EA400002B01D0029B03E0019B01221A70059B59
:108EB400184607B030BD82B00190019B1B68012B9E
:108EC40003D0019B1B68022B01D1012300E0002386
:108ED400184602B07047000000B585B001900B46FB
:108EE4008DF80330019B1B7883F00103DBB2002B68
:108EF40001D0082309E1019B9DF803209A70019B8E
:108F040003F24A2307220021184610F07FFE019B3A
:108F14009B79002B03D0019B9B78012B0FD0019BE5
:108F2400DB79002B03D0019B9B78012B07D0019B9D
:108F3400DB79002B14D0019B9B78022B10D1019B71
:108F44005B6B002B08D0019B012283F85122019B0B
:108F54005B6B0820984703E0019B002283F85122B1
:108F64009DF8033019460198FFF746FD03461A465B
:108F7400019B9A70019B5B6B002B20D0019B9B781B
:108F8400032B03D0019B9B78042B18D1019B5B79A5
:108F9400002B14D0019B93F8523283F00103DBB20F
:108FA400002B0CD0019B002283F85422019B012248
:108FB40083F85322019B5B6B0720984703E0019BD6
:108FC400002283F85322019B3C33182200211846C7
:108FD40010F01CFE019B012283F83C20019B2C33E2
:108FE4001846FFF768FF0346002B06D0019BDB6A97
:108FF400DAB2019B83F8512003E0019B012283F83C
:109004005120019B93F82430002B12D0019B2C3368
:109014001846FFF750FF0346002B06D0019B9B6ABE
:10902400DAB2019B83F8522003E0019B012283F80A
:109034005220019B002283F85020019B9B78042B33
:1090440031D801A252F823F0A190020061900200ED
:10905400719002008190020091900200019B3C33C8
:1090640019460198FFF716FD03901DE0019B3C3360
:1090740019460198FFF72BFD039015E0019B3C3343
:1090840019460198FFF793FD03900DE0019B3C33D3
:1090940019460198FFF7CFFD039005E0019B0022DC
:1090A40083F8312000E000BF019B9B78002B20D087
:1090B400019B03F15400019BD3F84412019B3C3300
:1090C4001A46FFF7F1FB0390039B002B01D0039B8F
:1090D4001BE0019B93F85420019B93F83030194610
:1090E4001046FFF7E5FB0390039B002B01D0039B85
:1090F4000BE0019B5B6B002B06D0019B5B6B019A21
:1091040092F83120104698470023184605B05DF8C0
:1091140004FB00BF00B585B001900091009B039350
:10912400019B1B88112B09D0262B0CD0102B00D0AF
:109134000EE001990398FFF7FBFB09E001990398FE
:10914400FFF705FC04E001990398FFF72AFC00BF30
:1091540000BF05B05DF804FB82B00190009100BF30
:1091640002B0704700B585B00190019B93F854306C
:109174001846FFF7A1FB019B012283F85222019BB1
:10918400002283F85422019B002283F850200621F8
:109194000198FFF7E4FC0390039B0293029B002BCE
:1091A40001D0029B12E0019B9B7819460198FFF7BE
:1091B40093FE0390039B002B07D0019B9B6B002B1A
:1091C40003D0019B9B6B039898470023184605B076
:1091D4005DF804FB75DF704700BF184676DF704703
:1091E40000BF18467ADF704700BF18467BDF704720
:1091F40000BF184684B00346ADF80630002303933D
:1092040016E00F49039A13469B0013449B000B443A
:109214001B88BDF806209A4207D1039A13469B0087
:1092240013449B00064A134406E0039B0133039353
:10923400039B002BE5D00023184604B0704700BF01
:10924400B026002082B001900B46ADF80230019B9D
:10925400BDF802201A80019B00221A72019B054965
:1092640003F10A020B4603CB1060516000BF02B049
:10927400704700BFE026002082B00190019B4FF6AA
:10928400FF721A8000BF02B0704788B00390029149
:1092940011461A460B46ADF806301346ADF80430B5
:1092A400039B9B881A46BDF8063013440793039B1F
:1092B4009B88BDF806209A4206D2039B9B881A46D7
:1092C400BDF80630D31A00E000230693039BDB8825
:1092D4001A46BDF8043013440593039BDB88BDF89C
:1092E40004209A4206D2039BDB881A46BDF8043058
:1092F400D31A00E000230493029B5A88039B1B8823
:109304009A4205D3029B5A88039B5B889A4201D9EF
:1093140000231CE0029B9B881A46069B934205D8B7
:10932400029B9B881A46079B934201D200230EE0BE
:10933400029BDB881A46049B934205D8029BDB8878
:109344001A46059B934201D2002300E001231846EC
:1093540008B0704700B583B00190064B9B69002BA1
:1093640003D0044B9B690198984700BF03B05DF894
:1093740004FB00BFC426002000B585B0034600915D
:10938400ADF80630BDF8063000991846FFF722FF05
:109394000390039B002B05D0039B112B02D0039851
:1093A400FFF7D8FF039B002B0CBF01230023DBB284
:1093B400184605B05DF804FB00B589B00190019B27
:1093C4000793079B9BB21846FFF714FF0690069B72
:1093D400002B42D0069B1A7A224B1B7B9A4215D251
:1093E400079B9AB2069B0A3319461046FFF7C4FF3F
:1093F40003468DF813309DF81330002B2DD0069BB7
:109404001B7A0133DAB2069B1A7226E0069B00220D
:109414001A72144B1B7C002B0FD0079B9BB23B2171
:109424001846FFF7DBFE0590059B002B05D0059B36
:10943400082B02D00598FFF78DFF0A4B5B69002BC0
:109444000BD000238DF80C30079B9BB2ADF80E3087
:10945400044B5B6903AA1046984700BF09B05DF846
:1094640004FB00BFC426002030B587B00190019BE7
:10947400002B01D10E2353E02B4A019B14461D46B9
:109484000FCD0FC495E8070084E80700264B274A50
:109494001A60019B1B68002B11D0019B1B681846A6
:1094A400FFF7A0FE0490049B002B01D0049B37E03F
:1094B400019B1A681D4B1068516803C308E01B48E0
:1094C400FFF794FE0490049B002B01D0049B27E03B
:1094D4000023059320E0059A13469B0013449B0048
:1094E400134A134403930398FFF7C6FE059B5B01DD
:1094F400104A1A44039B5A60039B04330E4A00210A
:10950400184609F0F3FE0490049B002B01D00323BA
:1095140006E0059B01330593059B002BDBD000235C
:10952400184607B030BD00BFC4260020E026002046
:10953400B026002090260020BD93020000B587B01D
:1095440003460091ADF80630009B5B7A002B1AD1DC
:10955400009B1B7A002B03D1164B5B68059302E03A
:10956400144B9B680593009B5B68BDF80620059926
:10957400184609F0EBFE0490049B002B16D00498C7
:10958400FFF7E8FE12E0009B00221A72094B5B69A8
:10959400002B0BD001238DF80C30BDF80630ADF84C
:1095A4000E30044B5B6903AA1046984700BF07B00E
:1095B4005DF804FBC426002000B585B00190019B32
:1095C400DB7B8DF80F30019B9B88ADF80C309DF848
:1095D4000F30012B2CD14FF6FF70FFF70BFE0290DA
:1095E400029B002B03D10420FFF7B4FE21E0BDF859
:1095F4000C3019460298FFF725FE029B03F10A007E
:10960400019B03F110014FF6FF7340F2F312FFF7D1
:109614003CFE03461A46029B5A72074BDB89002B19
:1096240007D1BDF80C3002991846FFF787FF00E018
:1096340000BF05B05DF804FBC426002000B587B068
:109644000190019B9B88ADF81630BDF81630184682
:10965400FFF7D0FD0490049B002B0ED0049B5B68A5
:10966400184609F0A5FE0390039B002B02D0039833
:10967400FFF770FE0498FFF7FFFD00BF07B05DF829
:1096840004FB000000B587B00190019B06330593ED
:10969400059B1A88194BDB899A422BD1059B5B8960
:1096A400022B27D1019B9B88ADF81230BDF81230F4
:1096B4001846FFF79FFD0390039B002B1AD0059BD0
:1096C4000C33184600F060FB0346002B06D0BDF8AF
:1096D400123003991846FFF731FF0BE0039B5B68D8
:1096E400184609F065FE0290029B002B02D00298F6
:1096F400FFF730FE00BF07B05DF804FBC42600206E
:1097040000B585B00190019B9B88ADF80E30BDF883
:109714000E301846FFF76EFD0290029B002B15D009
:10972400029B03F10A00019B03F108014FF6FF734A
:1097340040F2F312FFF7A9FD03461A46029B5A7240
:10974400BDF80E3002991846FFF7F8FE00BF05B0C9
:109754005DF804FB00B583B001900091019B1B8868
:10976400112B0DD0112B02DC102B05D014E0122B81
:109774000ED0502B08D00FE00198FFF71DFF0BE02F
:109784000198FFF75BFF07E00198FFF77BFF03E019
:109794000198FFF7B5FF00BF00BF03B05DF804FBFD
:1097A40030B58FB00190009100230293009B002BF1
:1097B4001AD000230D9314E06B460D9918460BF054
:1097C4001AFE0346002B09D0029B5A1C02920D9AE2
:1097D40092B25B000EA90B4423F82C2C0D9B013391
:1097E4000D930D9B132BE7D9019B1D4602AC0FCCA7
:1097F4000FC50FCC0FC594E8070085E80700019852
:109804000FB030BD00B583B00346ADF80630BDF8E7
:109814000630132B01D900230CE0BDF8063019469D
:1098240006480BF096FDBDF80630194604480BF0C7
:1098340090FD0123184603B05DF804FBF0260020D8
:10984400EC26002000B585B00346ADF806300023B1
:1098540003930DE0039B9B00094A13440433BDF8B2
:109864000620114618460BF0AEFD039B013303930B
:10987400039B1C2BEED900BF05B05DF804FB00BFB1
:10988400E826002000B583B00346ADF80630BDF8E5
:109894000630194603480BF096FD00BF03B05DF88F
:1098A40004FB00BFF026002030B59BB0184B9B682A
:1098B400DB431893164B5A6818AB114618460BF045
:1098C40066FE189A6B4611461846FFF769FF0DAC01
:1098D4006D460FCD0FC40FCD0FC495E8070084E883
:1098E4000700002319930BE0199B5B001AAA134489
:1098F40033F8303C1846FFF7A5FF199B0133199341
:109904000D9B199A9A42EFD300BF1BB030BD00BF24
:10991400E826002000B583B003468DF807309DF893
:109924000730194603480BF066FD0346184603B09A
:109934005DF804FBE826002000B585B00190009195
:10994400019B9B88ADF80E30019B1B88112B22D004
:109954001A2B26D0102B00D063E0FFF7A5FFBDF82B
:109964000E301846FFF74EFF034683F00103DBB2C7
:10997400002B05D02D4AE321042008F0A7FE4FE078
:10998400019BDB7B012B4BD0BDF80E3019462848D8
:109994000BF0DFFC44E0BDF80E301846FFF772FF11
:1099A4003FE0019B1B7AC3F30313DBB2012B8CBF93
:1099B400012300238DF80D30019B1B7AC3F303139D
:1099C400DBB2022B8CBF012300238DF80C309DF8F1
:1099D4000D30002B17D0BDF80E30194615480BF08A
:1099E400B8FC9DF80C30002B06D0BDF80E3019469B
:1099F40011480BF0AEFC14E0BDF80E3019460E48C9
:109A04000BF0E1FC0DE0BDF80E30194609480BF0EF
:109A1400DAFCBDF80E30194607480BF0D4FC00E020
:109A240000BF00BF05B05DF804FB00BF489F030002
:109A3400F4260020F8260020FC26002000B583B080
:109A44000346ADF80630BDF80630132B01D90023C8
:109A540006E0BDF80630194603480BF0CCFC03467B
:109A6400184603B05DF804FBEC26002000B585B071
:109A74000346ADF8063000238DF80F30BDF80630EC
:109A84001846FFF7DBFF0346002B11D0BDF8063064
:109A940019460A480BF0AFFC03468DF80E309DF8CA
:109AA4000E30002B01D0022300E001238DF80F308B
:109AB4009DF80F30184605B05DF804FBF42600202D
:109AC40000B585B00346ADF8063000238DF80F309D
:109AD400BDF806301846FFF7B1FF0346002B11D03E
:109AE400BDF8063019460A480BF085FC03468DF88C
:109AF4000E309DF80E30002B01D0022300E001232C
:109B04008DF80F309DF80F30184605B05DF804FB52
:109B1400F026002000B583B00346ADF80630BDF84A
:109B240006301846FFF78AFF0346002B07D0BDF81E
:109B34000630194604480BF05EFC034600E000239F
:109B4400184603B05DF804FBF826002000B583B086
:109B54000346ADF80630BDF806301846FFF76EFF31
:109B64000346002B07D0BDF80630194604480BF015
:109B740042FC034600E00023184603B05DF804FBF2
:109B8400FC26002000B583B00190054B5A68019B68
:109B940011461846FFF704FE019803B05DF804FB74
:109BA400E826002000B583B0182107480BF03BFCE1
:109BB4000190019B182B01D1182301E0019BDBB21A
:109BC400184603B05DF804FBE826002000B583B016
:109BD40003460A46ADF8063013468DF805309DF865
:109BE40005301846FFF796FE0346002B16D0BDF845
:109BF40006301846FFF722FF0346002B0ED09DF8CF
:109C0400053004339B00084A13440833BDF806208A
:109C1400114618460BF0EFFB034600E000231846FC
:109C240003B05DF804FB00BFE826002000B583B054
:109C34000346ADF806300B468DF8053013468DF813
:109C440004309DF805301846FFF764FE0346002BE8
:109C540026D0BDF806301846FFF7F0FE0346002B69
:109C64001ED09DF80430002B0DD09DF80530043330
:109C74009B000D4A13440833BDF8062011461846CC
:109C84000BF067FB0CE09DF8053004339B00064A9B
:109C940013440833BDF80620114618460BF093FB15
:109CA40000BF03B05DF804FBE826002000B587B0D0
:109CB400039002910192029B002B01D100231FE02B
:109CC40000230593039B002B19D00023049313E076
:109CD40003AB049918460BF08EFB0346002B08D007
:109CE400049B9AB2029B019910469847059B013345
:109CF4000593049B01330493049B132BE8D9059B20
:109D0400184607B05DF804FB00B585B00346029120
:109D140001928DF80F309DF80F301846FFF7FAFDC9
:109D2400034683F00103DBB2002B01D000230CE0D7
:109D34009DF80F30074A04339B0013449B68019A33
:109D440002991846FFF7B2FF0346184605B05DF8BE
:109D540004FB00BFE826002082B00190019B1B7821
:109D64001AB2019B01331B781B021BB213431BB2B3
:109D74009BB2184602B07047AADF704700BF18466E
:109D8400ABDF704700BF184600B585B0019001985D
:109D9400FFF7E2FF0346ADF80E30BDF80E3003F0D6
:109DA4000103002B14BF01230023DBB2184605B0C6
:109DB4005DF804FB00B585B001900198FFF7CCFF76
:109DC4000346ADF80E30BDF80E3003F00203002B4D
:109DD40014BF01230023DBB2184605B05DF804FB71
:109DE40000B585B00190009100238DF80F309DF8E7
:109DF4000F305A1C8DF80F201A46019B1344009A09
:109E040012781A709DF80F305A1C8DF80F201A46DC
:109E1400019B1344009A52781A709DF80F30022B5C
:109E24000CBF01230023DBB20293029B002B04D15D
:109E3400054A4721002008F049FC9DF80F301846D8
:109E440005B05DF804FB00BFA49F030000B583B018
:109E54000190009100980FF00CFF03469AB2019B09
:109E64001A80019B009A5A6000BF03B05DF804FB9E
:109E740082B0034600918DF80730009A13786FF38F
:109E840003031370009A13786FF3071313709DF88C
:109E94000730052B5BD801A252F823F0B99E0200CB
:109EA400CF9E0200E99E0200039F02001D9F020054
:109EB400379F0200009A13786FF303031370009A1C
:109EC40013786FF30713137040E0009A137801219D
:109ED40061F303031370009A1378012161F30713EC
:109EE400137033E0009A1378012161F303031370B4
:109EF400009A1378022161F30713137026E0009A85
:109F04001378012161F303031370009A137803217A
:109F140061F30713137019E0009A1378022161F3B7
:109F240003031370009A1378012161F3071313706C
:109F34000CE0009A1378022161F303031370009A72
:109F44001378022161F30713137000BF00BF00BF31
:109F540002B0704700B595B0034602910192ADF886
:109F64000E30029B9B78002B03D101238DF81E3009
:109F740003E0029B9B788DF81E30029B1B88ADF892
:109F84001C3006AB0322002118460FF03FFE029B53
:109F94005B7C06AA11461846FFF76AFF029B9A7C6F
:109FA40006AB013319461046FFF762FF029BDA7BCA
:109FB4009DF81A3062F3C3038DF81A30029B1A7CA1
:109FC4009DF81A3062F304138DF81A30029B1A7B41
:109FD4009DF81A3062F300038DF81A30029B1B7D42
:109FE400002B01D0022200E001229DF81A3062F316
:109FF40042038DF81A300DAB1C22002118460FF0D5
:10A0040005FE029B5B7B03F01003DBB2002B06D141
:10A01400029B5B7B03F02003DBB2002B24D004AB58
:10A024000322002118460FF0F1FD029BDA7C04ABF9
:10A03400013319461046FFF71BFF9DF8103001222B
:10A0440062F303038DF810309DF81030012262F39F
:10A0540007138DF810309DF81230012262F3420389
:10A064008DF8123004AB1293029B5B7B8DF8343075
:10A07400029B9B7B8DF8353008AB142200211846D7
:10A084000FF0C4FD07AB089306AB0993029B9B88B2
:10A09400ADF82C30029B9B68002B06D0029BDB881A
:10A0A400ADF82830029B9B680C93029B9B69002BA4
:10A0B4004FD005AB0322002118460FF0A7FD029BE9
:10A0C4009B691B88ADF83C30029B9B695B88ADF8AB
:10A0D4003E30029B9B695B680E9305AB1193029B18
:10A0E4009B691B7B05AA11461846FFF7C1FE029B1C
:10A0F4009B695A7B05AB013319461046FFF7B8FE3E
:10A10400029B9B699A7A9DF8163062F3C3038DF81B
:10A114001630029B9B69DA7A9DF8163062F30413B9
:10A124008DF81630029B9B691A7A9DF8163062F3FB
:10A1340000038DF81630029B9B699B7B002B01D09A
:10A14400022200E001229DF8163062F342038DF8EA
:10A154001630029BDB69002B02D0029BDB69109353
:10A1640008AA0DA9BDF80E00019BFFF705FE0346E2
:10A17400184615B05DF804FB00B58DB00346029196
:10A184000192ADF80E3007AB1422002118460FF0EF
:10A194003DFD029B9B78002B03D101238DF81A30DF
:10A1A40003E0029B9B788DF81A30029B1B88ADF864
:10A1B400183006AB0793029B9B7905AA11461846F3
:10A1C400FFF756FE029BDA7905AB013319461046B8
:10A1D400FFF74EFE029BDA789DF8163062F3C30354
:10A1E4008DF81630029B1A799DF8163062F3041329
:10A1F4008DF81630029B5A799DF8163062F30003ED
:10A204008DF81630029B1B7A002B01D0022200E04D
:10A2140001229DF8163062F342038DF8163005AB27
:10A224000893029B5B89ADF82430029B9B89ADF8AF
:10A234002630029BDB89ADF82830029B1B690B9307
:10A2440007A9BDF80E30019A1846FFF799FD034699
:10A2540018460DB05DF804FBA0DF704700BF184638
:10A26400A1DF704700BF1846ADDF704700BF184636
:10A27400B3DF704700BF184682B00190019B0022F3
:10A284001A60BFF35F8F00BF02B0704700B585B09E
:10A294000190012101980BF01FF90390BFF35F8F28
:10A2A400039B002B0CBF01230023DBB2184605B02F
:10A2B4005DF804FB82B00190BFF35F8F019B002225
:10A2C4001A6000BF02B07047024B00221A7000BF30
:10A2D400704700BF6027002000B585B00190019B46
:10A2E4005B88184601F054FA03461A46019B9A808B
:10A2F4000023039308E0084A039B52F82330019893
:10A304009847039B01330393039B002BF3D000BFB7
:10A3140005B05DF804FB00BF4422002082B0019028
:10A32400019B9B79012B0BD1019B1B79012B07D13D
:10A33400019B5B8842F60212934201D1012300E0A3
:10A34400002303F00103DBB2184602B0704700B5E6
:10A3540089B003460091ADF8063002AB00221A60C2
:10A364005A609A60DA601A615A6107238DF80830DE
:10A37400BDF80630ADF80A30009B049302AB1846D2
:10A38400FFF7AAFF00BF09B05DF804FB10B58AB05F
:10A394000346ADF8063000238DF8273002AB0022C7
:10A3A4001A605A609A60DA601A615A61BDF8063020
:10A3B400ADF80A30BDF806304FF6FF72934259D01B
:10A3C400BDF80630184600F02FFF0890089B0B2BB1
:10A3D40017D00B2B02D8002B07D027E0112B0CD061
:10A3E40043F2020293423AD020E00E238DF8083063
:10A3F40002AB1846FFF770FF32E001238DF82730D7
:10A404002EE00F238DF808301C4A1D4BD31ADB08AD
:10A414001B0443F00203BDF806201A4918460DF048
:10A424005BFA02AB1846FFF757FF19E0134A144BC7
:10A43400D31ADB081B0443F0010408980CF0AEFCAB
:10A4440003461A46BDF806300F4920460DF055FA6A
:10A45400BDF8063008991846FFF779FF00E000BF01
:10A464000A4B19789DF82720BDF806301846FFF7E7
:10A47400DDFB00E000BF0AB010BD00BFEC9D03008F
:10A484007C9D030014A0030094A00300692700200E
:10A4940000B583B003460A46ADF8063013468DF87E
:10A4A4000530064B19789DF80520BDF8063018468E
:10A4B400FFF7BCFB00BF03B05DF804FB6827002076
:10A4C40010B58AB00346ADF8063000238DF8273066
:10A4D40000238DF82630BDF80630184600F01AFE29
:10A4E4000890089B112B0FD0112B02D8002B07D0FA
:10A4F40030E0862B0CD043F20202934243D029E091
:10A5040001238DF826303FE001238DF827303BE00E
:10A5140002AB00221A605A609A60DA601A615A61CA
:10A5240006238DF80830BDF80630ADF80A301D4A10
:10A534001D4BD31ADB081B0443F00203BDF80620AD
:10A544001A4918460DF0C8F902AB1846FFF7C4FEC5
:10A5540000BF19E0134A144BD31ADB081B0443F061
:10A56400010408980CF01AFC03461A46BDF806309C
:10A574000F4920460DF0C1F9BDF806300899184678
:10A58400FFF7E5FE00E000BF9DF82720BDF8063088
:10A5940011461846FFF77CFF9DF8263018460AB08E
:10A5A40010BD00BFEC9D03007C9D0300E8A00300E8
:10A5B40020A1030000B589B003460091ADF8063030
:10A5C40000238DF81F300DF116031846FFF750FED7
:10A5D40006900123ADF81C3046E00223ADF80C30A0
:10A5E4000023ADF80E3005AB049303AABDF81C108C
:10A5F400BDF806301846FFF737FE0690069B002B81
:10A6040001D0069B37E09DF81F3083F00103DBB2D5
:10A61400002B09D0BDF8143042F60522934203D131
:10A6240001238DF81F301AE09DF81F30002B16D03F
:10A63400BDF8143042F60212934210D1009B0493E9
:10A64400BDF81C300133ADF81C3003AABDF81C1052
:10A65400BDF806301846FFF707FE03460BE0BDF8C9
:10A664001C300133ADF81C30BDF81630BDF81C2089
:10A674009A42B2D30523184609B05DF804FB0000E2
:10A6840010B58CB00346ADF8063001238DF82F3099
:10A6940000238DF82E30BDF80630184600F074FE05
:10A6A4000A900A9B082B29D0082B04D8002B0DD024
:10A6B400062B33D045E043F2020293425AD043F2D0
:10A6C4000142934237D0112B56D03AE004AB00221A
:10A6D4001A605A609A60DA601A615A6110238DF820
:10A6E4001030BDF80630ADF8123001238DF82E304D
:10A6F40004AB1846FFF7F0FD00BF3EE00DF10E027B
:10A70400BDF8063011461846FFF754FF0A900A9B1D
:10A71400002B03D1BDF80E30002B2ED100238DF871
:10A724002F30BDF80630184601F032F803461846BB
:10A7340000F072FE21E0BDF806301846FFF726FE51
:10A744001BE0184A184BD31ADB081B0443F001041E
:10A754000A980CF023FB03461A46BDF80630134949
:10A7640020460DF0CAF8BDF806300A991846FFF7DE
:10A77400EEFD02E000BF00E000BF0D4B19789DF82C
:10A784002F20BDF806301846FFF750FA094B197808
:10A794009DF82E20BDF806301846FFF747FA00BF93
:10A7A4000CB010BDEC9D03007C9D030060A1030070
:10A7B4006A2700206B27002000B583B00346009170
:10A7C400ADF80630BDF806301846FFF7DFFD00BFD0
:10A7D40003B05DF804FB000008B5044B1B780022AD
:10A7E40003491846FFF790FA00BF08BD6927002007
:10A7F400BDA7020000B583B003460091ADF8063052
:10A804000A48FFF743FD0346002B0CD0BDF8063081
:10A814001846FFF755FE0346002B03D10348FFF704
:10A8240049FD00E000BF03B05DF804FB642700208D
:10A8340000B583B003460091ADF806300B4B1A788F
:10A84400BDF8063011461846FFF7C0F9034683F0F9
:10A854000103DBB2002B04D0BDF806301846FFF725
:10A864000FFF00BF03B05DF804FB00BF6B2700209F
:10A8740008B5044B1B78002203491846FFF744FA35
:10A8840000BF08BD6A27002035A8020000B583B0C8
:10A894000346ADF80630BDF80630184600F050FD0A
:10A8A4000346002B07D0064B1978BDF80630012269
:10A8B4001846FFF7BBF900BF03B05DF804FB00BF07
:10A8C4006A27002000B587B003460091ADF8063032
:10A8D40004AB0422002118460FF098F942F6A6238F
:10A8E400ADF8103001238DF812300D4B1B68039323
:10A8F40003AA04A9BDF806301846FFF7ADFC05907D
:10A90400059B002B07D1074B1978BDF806300122AF
:10A914001846FFF78BF900BF07B05DF804FB00BFD2
:10A92400A0A103006D27002000B585B00346ADF853
:10A934000630BDF80630184600F02AFF03461846D4
:10A9440002AA0023092101F087FF0346052B07D142
:10A95400054B1978BDF8063001221846FFF766F951
:10A9640000BF05B05DF804FB6C27002000B583B080
:10A974000B4B1B7800220B491846FFF7C5F90190D1
:10A98400019B002B07D1084B1B780022074918466E
:10A99400FFF7BAF9019000BF03B05DF804FB00BFF4
:10A9A40068270020F9A702006C270020C9A802002C
:10A9B40000B583B00190019B1B78002B00D011E0FF
:10A9C400019B5B881846FFF7E1FC019B5B881846F6
:10A9D400FFF75CFF019B5B881846FFF7A5FFFFF7B5
:10A9E400C5FF00BF00BF03B05DF804FB00B589B02C
:10A9F4000190019B1B78082B57D1019B5B7A002B9C
:10AA040053D1019B1B7A072B04D0082B45D0012B73
:10AA14001AD051E0019B9B88184600F063FF03465F
:10AA2400ADF81E30BDF81E304FF6FF7293423ED093
:10AA3400BDF81E3001211846FFF72AFDBDF81E306F
:10AA44001846FFF771FF32E0019B9B8803AA01219E
:10AA5400184603F0B1F80690069B002B29D1049BFD
:10AA64001B78002B25D0019B9B88184600F03AFFE9
:10AA74000346ADF81630BDF816304FF6FF72934218
:10AA840017D0104B1978BDF8163001221846FFF77D
:10AA9400CDF8FFF7EDFE00BF0BE00B4B1B68012B5D
:10AAA40009D10948FFF706FC05E000BF04E000BF38
:10AAB40002E000BF00E000BFFFF758FF00BF09B08D
:10AAC4005DF804FB6A2700206427002008B5FFF71F
:10AAD400FBFBFFF767F803461A462C4B1A70FFF787
:10AAE40061F803461A462A4B1A70FFF75BF80346CF
:10AAF4001A46284B1A70FFF755F803461A46264B98
:10AB04001A70FFF74FF803461A46244B1A70FFF7E2
:10AB140049F803461A46224B1A70FFF743F80346D6
:10AB24001A46204B1A70194B1B78182B17D0184B48
:10AB34001B78182B13D0174B1B78182B0FD0164BE0
:10AB44001B78182B0BD0154B1B78182B07D0144BE4
:10AB54001B78182B03D0134B1B78182B0CD1124ADB
:10AB6400124BD31ADB081B0443F0010310491846A7
:10AB74000CF0A4FE032306E00E48FFF77DFB0E4B0A
:10AB840001221A700023184608BD00BF6827002060
:10AB9400692700206A2700206B2700206C270020EB
:10ABA4006D2700206E270020EC9D03007C9D030090
:10ABB400A4A10300642700206027002010B586B0FC
:10ABC40003460A46ADF8063013468DF8053003AB4C
:10ABD40000221A605A600123ADF80C3009238DF865
:10ABE4000E30194B1978BDF8063000221846FFF7CD
:10ABF4001DF89DF80530002B01D0144B00E0144BD8
:10AC04000493BDF80630184600F0C2FD034618460A
:10AC140003AB0022194601F0E7FE0590059B002BCB
:10AC24000FD00C4A0C4BD31ADB081B0443F002046C
:10AC340005980CF0B3F803461A46084920460CF070
:10AC44004BFE00BF06B010BD6C27002028A30300F4
:10AC54002CA30300EC9D03007C9D030014A20300BD
:10AC640000B58DB00190019B9B88ADF82C30019B01
:10AC74001B88353B1F2B00F26A8101A252F823F096
:10AC840099AD02009BAE020053AF020053AF020025
:10AC940053AF020053AF020053AF020053AF0200A0
:10ACA40053AF020053AF020053AF020053AF020090
:10ACB40053AF020053AF020053AF020053AF020080
:10ACC40053AF020053AF020053AF020053AF020070
:10ACD40053AF020053AF020053AF020053AF020060
:10ACE40053AF020053AF020053AF020075AD020030
:10ACF40053AF020005AD020053AF020011AD0200D4
:10AD0400BDF82C301846FFF741FB20E102AB0022CE
:10AD14001A605A609A60DA601A615A6111238DF8D8
:10AD24000830BDF82C30ADF80A30BDF82C30184688
:10AD340000F02EFD0346ADF80C30BDF80C3018467B
:10AD440000F06AFB864B1978BDF82C3000221846B7
:10AD5400FEF76CFF834B1978BDF82C30002218469F
:10AD6400FEF764FF02AB1846FFF7B6FA00BFEEE049
:10AD7400019B06331846FFF7D1FA0346002B00F077
:10AD8400DF80BDF82C3001211846FFF781FBFFF767
:10AD9400EDFDD5E000238DF82F30019B9B88ADF8A5
:10ADA4002C30019B0A3309936F4B1A78BDF82C3071
:10ADB40011461846FEF70AFF034683F00103DBB28F
:10ADC400002B40F0BF80684B1978BDF82C3000226E
:10ADD4001846FEF72BFF019BDB88B3F5857F4CD02B
:10ADE400019BDB88002B0DD0604A614BD31ADB0832
:10ADF4001B0443F00200019BDB881A465D490CF0FA
:10AE04006BFD3AE0099B1B88012B0CD0574A584B29
:10AE1400D31ADB081B0443F00200099B1B881A4663
:10AE240055490CF059FD099B5B88012B0DD04F4A05
:10AE34004F4BD31ADB081B0443F00200099B5B88C9
:10AE44001A464E490CF048FD17E0099B0433198853
:10AE5400BDF82C3000221846FFF702FA0890089B30
:10AE6400002B0AD101238DF82F30454B1978BDF8FA
:10AE74002C3001221846FEF7D9FE9DF82F3083F0BE
:10AE84000103DBB2002B5FD0BDF82C300021184643
:10AE9400FFF794FE58E000238DF82E30019B9B8829
:10AEA400ADF82C30019B0A330A93354B1A78BDF860
:10AEB4002C3011461846FEF789FE034683F0010341
:10AEC400DBB2002B42D12E4B1978BDF82C30002276
:10AED4001846FEF7ABFE019BDB88002B0DD0234AFE
:10AEE400234BD31ADB081B0443F00200019BDB88CD
:10AEF4001A4620490CF0F0FC19E00A9B9B88012BB0
:10AF04000DD01A4A1A4BD31ADB081B0443F0020073
:10AF14000A9B9B881A4619490CF0DEFC07E00A9B41
:10AF24009B79002B14BF012300238DF82E309DF84C
:10AF34002E20BDF82C3011461846FFF73FFE06E0E0
:10AF440000BF04E000BF02E000BF00E000BFFFF765
:10AF540043FCFFF78DFC00BF0DB05DF804FB00BFA0
:10AF64006B2700206A2700206D270020EC9D03003A
:10AF74007C9D030074A20300B0A20300ECA20300B2
:10AF84006E270020AFDF704700BF1846B1DF70475F
:10AF940000BF1846B2DF704700BF1846B3DF7047E2
:10AFA40000BF1846044B00221A70044B4FF6FF7280
:10AFB4001A8000BF704700BF6F2700207027002051
:10AFC40000B585B00190019B9B88184600F08AFC6F
:10AFD40003461A46019B5A800023039308E0084A5B
:10AFE400039B52F8233001989847039B0133039342
:10AFF400039B002BF3D000BF05B05DF804FB00BF3A
:10B004004822002010B58AB02E4A07AB92E803000C
:10B0140083E803004AE02C4B1B8807A9002218464A
:10B0240001F0E2FC0990099B002B36D001AB002211
:10B034001A605A609A60DA601A615A61224B1B885E
:10B04400ADF80830099B112B37D0099B862B07D10B
:10B0540006238DF8043001AB1846FFF7B1FF2CE04E
:10B064001A4A1B4BD31ADB081B0443F0010409984A
:10B074000BF094FE03461A46134B1B8815492046D1
:10B084000CF03BFC07238DF80430099B039301ABC0
:10B094001846FFF795FF00BF0FE00B4B1B881846BF
:10B0A40001F066FD03461A46074B1A80064B1B88BF
:10B0B4004FF6FF729342AED100E000BF00BF0AB06A
:10B0C40010BD00BF9CA3030070270020F49D030063
:10B0D4007C9D030044A3030000B583B00190064B9C
:10B0E4001B884FF6FF72934201D0FFF78BFF00BF1E
:10B0F40003B05DF804FB00BF7027002008B5FFF71C
:10B1040051FF034B01221A700023184608BD00BFEB
:10B114006F27002030B58BB00346ADF80630BDF87C
:10B124000630184600F034FB0346ADF81E30BDF877
:10B134001E304FF6FF72934202D143F202036AE0DB
:10B144000123ADF8223000238DF8213000238DF83F
:10B154002130BDF822305A1CADF822201A4603AB28
:10B16400BDF81E00082102F03DFD0990099B002B4B
:10B1740047D1049B0693069B03221A60069B991DE4
:10B18400069B1A1D069B1B68BDF80600FFF702FF0D
:10B194000990099B002B09D1BDF81E20BDF81E3073
:10B1A4000821184602F0DDFD09902FE0099B0C2BC5
:10B1B40003D101238DF8213004E0099B052B01D133
:10B1C40000230993BDF81E300821184602F0AAFD99
:10B1D4000590059B002B19D0104A114BD31ADB089C
:10B1E4001B0443F00104BDF81E5005980BF0D6FD76
:10B1F40003462A460B4920460CF07FFB03230993A0
:10B2040004E0099B072B01D10C2309939DF82130FD
:10B21400002B9BD1099B18460BB030BDF49D030055
:10B224007C9D0300A4A3030000B58BB00346ADF8D6
:10B234000630BDF80630184600F0AAFA0346ADF809
:10B244001430002308930023ADF81E300323069323
:10B2540001238DF81730BDF814304FF6FF72934276
:10B2640016D002AABDF814300821184602F0A4FC36
:10B274000990099B002B0BD1039B0493049B063379
:10B284000893049B9B88ADF81E30049B1B680693AF
:10B29400BDF81E20BDF80600069B0899FFF776FE50
:10B2A4000990099B042B02D11123099331E0099BD6
:10B2B400082B02D1002309932BE0099B0B2B28D1E7
:10B2C40000238DF81730069B03F00203002B02D0F5
:10B2D400012306931DE0089B002B03D1BDF81E300B
:10B2E400002B07D0002308930023ADF81E3003235E
:10B2F40006930EE00F4A104BD31ADB081B0443F0ED
:10B304000103BDF806200D4918460CF0E5FA0323A5
:10B314000993099B0B2BBBD09DF8173083F00103D5
:10B32400DBB2002B01D00B230993099B18460BB009
:10B334005DF804FBF49D03007C9D030024A403003A
:10B3440000B589B00346ADF806300DF11703049338
:10B35400BDF80630184600F01BFA0346ADF81E305F
:10B3640003AABDF81E300121184602F025FC069000
:10B37400069B002B01D0002301E0049B1B78184698
:10B3840009B05DF804FB000010B584B00346ADF8C5
:10B3940006304FF6FF73ADF80E301B48FFF7FEFD85
:10B3A4000290029B002B11D0184A194BD31ADB08C8
:10B3B4001B0443F0010402980BF0F0FC03461A4608
:10B3C400144920460CF088FA03231AE00E4B19881E
:10B3D400BDF80E20BDF806301846FFF7D3FD0290E5
:10B3E400029B43F20302934205D1074B1B880133AE
:10B3F4009AB2054B1A80029B43F203029342E5D0B2
:10B40400029B184604B010BD72270020F49D03006F
:10B414007C9D03009CA4030000B585B00346ADF8F1
:10B424000630084A02AB92E8030083E8030002A94D
:10B43400BDF806300022184601F0D6FA00BF05B068
:10B444005DF804FBE8A4030046DF704700BF18461C
:10B4540000B585B001900023039308E0074A039BDD
:10B4640052F8233001989847039B01330393039BBD
:10B47400012BF3D900BF05B05DF804FBF8A5030068
:10B4840084B00190002303930AE0019A039B1344C0
:10B494001B78002B01D0012306E0039B01330393A7
:10B4A400039B0F2BF1D90023184604B0704700B555
:10B4B40083B001900091019B002B02D0009B002BD4
:10B4C40001D100231BE0019B1B78C3F34603DAB2CE
:10B4D400009B1B78C3F34603DBB29A4201D00023DE
:10B4E4000DE0019B581C009B0133062219460EF007
:10B4F4002EFB0346002B0CBF01230023DBB21846AE
:10B5040003B05DF804FB000030B599B00190019BD5
:10B514001B88102B40F09180019B0CAC1D1D0FCD9E
:10B524000FC40FCD0FC495E8070084E807004FF659
:10B53400FF73ADF85E309DF8343023F00103DBB2C5
:10B54400062B47D001F0F2F99DF83430C3F34603DB
:10B55400DBB2002B3DDB012B14DD022B2ED038E0B7
:10B564000A9B03F111020CAB043311461846FFF792
:10B574009EFF0346002B05D0BDF82E30ADF85E309B
:10B5840000BF27E009AA0DF12E031946072001F098
:10B59400D7F90346002BE3D11CE00A9B5A1C0CABE1
:10B5A40004331146184600F08FFA0346002B05D0E9
:10B5B400BDF82E30ADF85E3000BF0BE009AA0DF1E6
:10B5C4002E031946072001F0BBF90346002BE4D1F2
:10B5D40000E000BFBDF830301946194A0B469B0005
:10B5E4000B445B001344BDF85E201A80BDF8303074
:10B5F4001946134A0B469B000B445B001344023369
:10B604000DAA106818609188927999809A71BDF892
:10B614005E304FF6FF72934210D0BDF83030ADF873
:10B624000E30BDF85E30ADF8103000238DF80C30CC
:10B6340003AB1846FFF70CFF00E000BF19B030BDA4
:10B644007427002000B587B001900091019B11334D
:10B654000593009B11330493019B581C009B0133F9
:10B66400102219460EF073FA0346002B11D1019BE8
:10B6740001331846FFF704FF0346002B09D0009B53
:10B6840001331846FFF7FCFE0346002B01D00123CB
:10B6940000E000238DF80F309DF80F3003F0010314
:10B6A4008DF80F3004990598FFF701FF03468DF8D4
:10B6B4000E30059B1B7823F00103DBB2042B16D05C
:10B6C400059B1B7823F00103DBB2062B0FD0049BF0
:10B6D4001B7823F00103DBB2042B08D0049B1B78F6
:10B6E40023F00103DBB2062B01D0012300E0002389
:10B6F4008DF80D309DF80D3003F001038DF80D30F9
:10B704009DF80E30002B03D09DF80D30002B0AD18C
:10B714009DF80F30002B08D09DF80D3083F0010305
:10B72400DBB2002B01D0012300E0002303F001036E
:10B73400DBB2184607B05DF804FB00B587B0019092
:10B744000B46ADF8023001F0F1F810E0BDF8163008
:10B75400BDF802209A420AD0049B19460198FFF7CB
:10B7640071FF0346002B02D0BDF816300BE003AA8C
:10B774000DF116031946072001F0E2F80346002BE9
:10B78400E4D14FF6FF73184607B05DF804FB0000E0
:10B7940000B583B00346ADF80630BDF80630132B70
:10B7A4000AD8BDF806301846FEF748F9034683F078
:10B7B4000103DBB2002B02D04FF6FF7308E0BDF8A3
:10B7C4000620054913469B0013445B000B441B8869
:10B7D400184603B05DF804FB7427002000B583B05D
:10B7E40003460091ADF80630BDF80630132B0AD895
:10B7F400BDF806301846FEF721F9034683F001032D
:10B80400DBB2002B02D043F2020311E0BDF80620A4
:10B814000098094913469B0013445B000B440246FD
:10B8240002331968116099889B7991809371002380
:10B83400184603B05DF804FB7427002000B583B0FC
:10B8440001900091019800F089F8034683F0010308
:10B85400DBB2002B01D0002315E0019B1A88009B6A
:10B864001B889A4201D000230DE0019B981C009B89
:10B874000233082219460EF06AF90346002B0CBF66
:10B8840001230023DBB2184603B05DF804FB00B5C6
:10B8940087B0019001F04AF814E0049B463319463E
:10B8A4000198FFF7CBFF0346002B08D1049B2A33F2
:10B8B40019460198FFF7C2FF0346002B02D0BDF8DA
:10B8C40016300BE003AA0DF116031946072001F008
:10B8D40037F80346002BE0D14FF6FF73184607B044
:10B8E4005DF804FB00B585B00346ADF80630BDF83D
:10B8F40006304FF6FF72934202D14FF6FF7326E0F3
:10B904000023ADF80E301CE0BDF80E20124913469A
:10B914009B0013445B000B441B88BDF806209A422D
:10B924000AD1BDF80E301846FEF788F80346002BFE
:10B9340002D0BDF80E300AE0BDF80E300133ADF888
:10B944000E30BDF80E30132BDED94FF6FF731846B8
:10B9540005B05DF804FB00BF7427002084B001909B
:10B96400019B1B88002B01D0012312E000230393C9
:10B974000BE0019A039B134402331B78002B01D084
:10B98400012306E0039B01330393039B072BF0D9A8
:10B994000023184604B0704782B003460A46ADF847
:10B9A40006301346ADF80430BDF80630132B0AD820
:10B9B400BDF80620054913469B0013445B000B4465
:10B9C400BDF804201A8000BF02B07047742700201D
:10B9D40000B585B00346ADF80630BDF8063018460C
:10B9E400FFF780FF0346ADF80E30BDF80630184669
:10B9F40002F070F80290029B002B0ED1BDF80E30BD
:10BA0400132B0AD8BDF80E20064913469B00134495
:10BA14005B000B444FF6FF721A80029B184605B078
:10BA24005DF804FB7427002000B595B003900291E3
:10BA34000192002313930DE0139BC3F10F03039AA8
:10BA44001344197805AA139B13440A461A70139BCE
:10BA540001331393139B0F2BEED905AB10330D2237
:10BA6400002118460EF0D2F8002312930DE0029A3A
:10BA7400129B1A44129BC3F10F03127814A90B44AE
:10BA840003F82C2C129B01331293129B022BEED938
:10BA940005AB1846FFF7D8FC002311930DE0119B6A
:10BAA400C3F10F020199119B0B4414A90A4412F823
:10BAB4001C2C1A70119B01331193119B022BEED98C
:10BAC40000BF15B05DF804FB00B587B0019000918C
