:020000022000DC
:1060000000000120996202003D6202003F6202002E
:10601000416202004362020045620200000000008B
:1060200000000000000000000000000047620200C5
:1060300049620200000000004B6202004D62020053
:10604000E5130300516202009D190300556202002E
:106050005762020059620200BD1603005D62020031
:106060005F62020061620200636202006562020018
:1060700067620200696202006B6202006D620200E8
:106080006F620200893C03007362020075620200C5
:10609000C93C030079620200ED9003007D620200BA
:1060A0007F62020081620200836202008562020058
:1060B0008762020089620200000000000000000008
:1060C0008B6202008D6202008F6202009162020008
:0C60D000936202009562020097620200D9
:1060DC00364937480A1A02D0072291438D46354972
:1060EC0035480A1A06D00722914381F30988022207
:1060FC0082F3148831483249324A00F045F832486C
:10610C003249334A00F040F832483349334A00F000
:10611C003BF833483349344A00F036F833483449B5
:10612C00344A00F031F834483449354A00F02CF840
:10613C0034483549354A00F027F8354835490022AE
:10614C0000F02DF834483549002200F028F8344886
:10615C003449091A082903DB00220260043001606B
:10616C00314A90471F482049884205D002680430C4
:10617C0003B4904703BCF7E700208646EC460020AA
:10618C0000212A4A9047FEE7884207D0521A05D0D0
:10619C00037801300B700131013AF9D17047884214
:1061AC0002D002700130FAE77047000000000120B5
:1061BC0000E00020000001200000012094D3030027
:1061CC002C220020F4250020F4620200F46202006C
:1061DC005EA1030094D303002C2200202C2200206B
:1061EC00E8A20300E8A20300E8A20300E8A203006F
:1061FC00E8A20300E8A20300E8A20300E8A203005F
:10620C0094D303005CD70300F4250020F425002070
:10621C00F4250020083B0020083B0020083B002010
:10622C00083B0020085B0020C362020039730200A7
:10623C00FEE7FEE7FEE7FEE7FEE7FEE7FEE7FEE72A
:10624C00FEE7FEE7FEE7FEE7FEE7FEE7FEE7FEE71A
:10625C00FEE7FEE7FEE7FEE7FEE7FEE7FEE7FEE70A
:10626C00FEE7FEE7FEE7FEE7FEE7FEE7FEE7FEE7FA
:10627C00FEE7FEE7FEE7FEE7FEE7FEE7FEE7FEE7EA
:10628C00FEE7FEE7FEE7FEE7FEE7FEE7034885468E
:10629C0000F002F8FFF71CBF70470000000001205F
:1062AC000C4880470C484FF0070188438546094845
:1062BC008047FFF70DBF094809490A4A884207D0B1
:1062CC00521A05D0037801300B700131013AF9D123
:1062DC0070470000A562020000000120D4A2030058
:0862EC00182200202C220020E2
:1062F40076DF704700BF18467ADF704700BF184644
:106304007CDF704700BF18468FDF704700BF184618
:1063140033DF704700BF184600B583B00190019881
:1063240006F080FB019806F0E3FB019B1B780C2B25
:1063340000D003E0002000F0D9FF00BF00BF03B08D
:106344005DF804FB00B585B01D4813F001FC039013
:10635400039B0293029B002B04D01A4ACF2102987C
:106364000CF0DAFE184B01221A70184A184BD31A93
:10637400DB081B0443F003031649184611F058FFC9
:106384000F4813F00FFC0390039B0193019B002B18
:1063940004D00C4AD52101980CF0BEFE0E4B01220C
:1063A4001A700A4A0A4BD31ADB081B0443F003038E
:1063B4000A49184611F03CFF00BF05B05DF804FB24
:1063C400F42500206CA30300DA2800202CA203008B
:1063D40004A20300DCA30300DB280020F8A30300CD
:1063E40000B587B00190019B9B8842F648229342F6
:1063F40007D101238DF80C30019B1B7A8DF80D30E9
:106404000CE0019B9B8842F64722934217D100235C
:106414008DF80C30019B1B7A8DF80D3003AB1946B7
:10642400094813F0E9FB0590059B0493049B002B9A
:1064340006D0064AFC2104980CF06EFE00E000BF72
:1064440007B05DF804FB00BFF42500206CA3030033
:1064540000B585B0104813F011FC0390039B029320
:10646400029B002B05D00D4A40F20B1102980CF050
:1064740053FE094813F02EFC0390039B0193019BE8
:10648400002B05D0054A4FF4877101980CF044FEA7
:1064940000BF05B05DF804FBF42500206CA30300E5
:1064A40000B583B000230193274B1B78022B12D134
:1064B400254B01221A70112001F056FC0190234A49
:1064C400234BD31ADB081B0443F00303214918466A
:1064D40011F0AEFE28E01C4B1B78012B12D11A4B95
:1064E40000221A701C4813F04CFB0190174A184BF9
:1064F400D31ADB081B0443F003031849184611F0B0
:1065040097FE11E0104B01221A70134813F020FB80
:1065140001900E4A0E4BD31ADB081B0443F003030D
:106524000F49184611F084FE019B002B08D0019BF3
:10653400082B05D00B4A40F2331101980CF0ECFD06
:1065440000BF03B05DF804FBDA2800202CA203008E
:1065540004A2030018A40300F425002030A40300BF
:10656400DCA303006CA3030000B583B000230193F4
:10657400274B1B78022B12D1254B01221A701120B4
:1065840001F0F2FB0190234A234BD31ADB081B04CE
:1065940043F003032149184611F04AFE28E01C4B3E
:1065A4001B78012B12D11A4B00221A701C4813F0CD
:1065B40012FB0190174A184BD31ADB081B0443F053
:1065C40003031849184611F033FE11E0104B012261
:1065D4001A70134813F0E6FA01900E4A0E4BD31AC0
:1065E400DB081B0443F003030F49184611F020FE97
:1065F400019B002B08D0019B082B05D00B4A4FF4BC
:10660400AC7101980CF088FD00BF03B05DF804FB89
:10661400DB2800202CA2030004A203004CA40300E6
:10662400F425002068A40300F8A303006CA303006E
:1066340000B583B000230193254B1B78022B03D0B4
:10664400234B1B78012B1BD1FF21224813F085FB20
:106654000190019B002B08D0019B082B05D01E4AFA
:106664004FF4B77101980CF057FD1C4A1C4BD31A18
:10667400DB081B0443F003031A49184611F0D8FD44
:10668400194B1B78022B03D0174B1B78012B1BD102
:10669400FF21104813F04AFB0190019B002B08D006
:1066A400019B082B05D00C4A40F27B1101980CF099
:1066B40033FD0A4A0A4BD31ADB081B0443F00303D5
:1066C4000A49184611F0B4FD00BF03B05DF804FB9D
:1066D400DB280020F42500206CA303002CA2030077
:1066E40004A2030088A40300DA280020C4A4030041
:1066F40000B587B00190019B9B8842F645229342E6
:1067040040D14B4B1B78012B40F08E800E2001F0C2
:106714002BFB0590059B0393039B002B05D0454A57
:1067240040F28F1103980CF0F7FC414B02221A70CF
:10673400414A424BD31ADB081B0443F0030340498C
:10674400184611F075FD3C4A3C4BD31ADB081B0478
:1067540043F00300019B1B7A1A463A4B53F822304C
:106764001A46394911F072FD334A344BD31ADB0807
:106774001B0443F00300019B5B7A1A46334911F072
:1067840065FD51E0019B9B8842F6462293424BD122
:106794002F4B1B78012B47D10D2001F0E5FA059012
:1067A400059B0493049B002B05D0224A40F29D11C3
:1067B40004980CF0B1FC264B02221A701E4A1F4B9F
:1067C400D31ADB081B0443F003032249184611F0D3
:1067D4002FFD194A194BD31ADB081B0443F003009D
:1067E400019B1B7A1A46174B53F822301A46164956
:1067F40011F02CFD104A114BD31ADB081B0443F093
:106804000300019B5B7A1A46134911F01FFD0A4AE3
:106814000A4BD31ADB081B0443F00300019B1B69DA
:106824001A460E4911F012FD00BF07B05DF804FBD3
:10683400DB2800206CA303002CA2030004A20300A5
:10684400FCA40300FC24002014A5030034A50300C9
:10685400DA28002054A503006CA503008CA50300CE
:1068640000B583B00DF034FA0190019B0093009BB6
:10687400002B05D0044A40F2B51100980CF04CFCF2
:1068840000BF03B05DF804FB6CA3030000B587B040
:106894000190019B1B78042B43D801A252F823F0EA
:1068A400C168020027690200FB680200B96802009F
:1068B400F36802000198FFF71BFF35E0019B59883C
:1068C400019B08331A461A4813F05EFA0590059B9B
:1068D4000493049B002B05D0164A4FF4E8710498E6
:1068E4000CF01AFCFFF7B4FDFFF72CFD1CE0019837
:1068F400FFF776FD18E0104B00221A700F4B0022B0
:106904001A70112001F030FA0590059B0393039B44
:10691400002B08D0074A40F2DF1103980CF0FCFB6F
:1069240001E000BF00E000BF00BF07B05DF804FB5A
:10693400F42500206CA30300DA280020DB280020C3
:1069440000B587B09DF80030012262F303038DF88F
:1069540000309DF80030012262F307138DF80030F7
:106964001F4813F0CAFB03469AB26B461C491846EB
:10697400FFF7C6FC0590059B0493049B002B05D0F0
:10698400184A40F2F91104980CF0C6FB01AB082236
:106994000021184613F07EFB4FF4C873ADF80430A1
:1069A4004FF44873ADF806300023ADF808304FF4C7
:1069B400C873ADF80A3001AB1846FFF79DFC05908B
:1069C400059B0393039B002B05D0064A40F2032149
:1069D40003980CF0A1FB00BF07B05DF804FB00BFF7
:1069E400ACA503006CA3030000B583B000210948E3
:1069F40005F0DAF80190019B0093009B002B05D071
:106A0400054A4FF4037100980CF086FB00BF03B0F5
:106A14005DF804FB502600206CA3030000B583B08E
:106A24000190054A40F2192101980CF075FB00BF52
:106A340003B05DF804FB00BF6CA3030000B583B092
:106A44000190054A40F2232101980CF065FB00BF38
:106A540003B05DF804FB00BF6CA3030000B589B06C
:106A6400002300931D4B00936B4619461C4805F008
:106A740051F90790079B0693069B002B05D0194AF2
:106A840040F2332106980CF047FB01AB10220021A1
:106A9400184613F0FFFA12220021134813F0FAFAF1
:106AA400124B0193122303930F4B0493104B029345
:106AB40001AB19460F4812F07BFF0790079B059323
:106AC400059B002B05D0074A40F23F2105980CF0A6
:106AD40023FB00BF09B05DF804FB00BF216A02007C
:106AE400642600206CA30300C828002091680200DB
:106AF400416A0200F425002000B583B00190019999
:106B0400034812F063FD00BF03B05DF804FB00BF4F
:106B1400F425002000B583B0094809F0C3FF0190B3
:106B2400019B0093009B002B05D0064A40F257219D
:106B340000980CF0F1FA00BF03B05DF804FB00BF4D
:106B4400FD6A02006CA3030000B583B00190054AFE
:106B540040F2612101980CF0DFFA00BF03B05DF848
:106B640004FB00BF6CA3030000B58BB001AB1C2277
:106B74000021184613F08EFA002301934FF42033BA
:106B840002934FF47023039303238DF810300023F2
:106B9400ADF8123001238DF81430002306930B4B0B
:106BA400079301AB184602F0E5FC0990099B089392
:106BB400089B002B05D0064A4FF41E7108980CF070
:106BC400ABFA00BF0BB05DF804FB00BF4D6B0200D5
:106BD4006CA3030000B585B0002001F0C5F8039054
:106BE400039B0293029B002B05D0134A4FF421719F
:106BF40002980CF091FA00F09CFD0390039B019322
:106C0400019B002B05D00C4A4FF4227101980CF023
:106C140083FAFFF77DFB0390039B0093009B002BFB
:106C240005D0054A4FF4237100980CF075FA00BFA3
:106C340005B05DF804FB00BF6CA3030000B587B08A
:106C440003468DF807309DF80730042B60D801A265
:106C540052F823F00F6D02006D6C0200156D0200F6
:106C6400A36C0200D96C02002F4A304BD31ADB0804
:106C74001B0443F003032E49184611F0D9FA0520EA
:106C840001F072F80590059B0293029B002B41D002
:106C9400284A40F29F2102980CF03EFA3AE0224A38
:106CA400224BD31ADB081B0443F003032249184682
:106CB40011F0BEFA022001F057F80590059B0393EA
:106CC400039B002B28D01B4A40F2A52103980CF00B
:106CD40023FA21E0144A154BD31ADB081B0443F0B2
:106CE40003031649184611F0A3FA042001F03CF8F6
:106CF4000590059B0493049B002B0FD00D4A40F292
:106D0400AB2104980CF008FA08E0FFF763FF06E0F3
:106D140000BF04E000BF02E000BF00E000BF00BF0E
:106D240007B05DF804FB00BF2CA2030004A203001B
:106D3400C0A503006CA30300D8A50300ECA50300C1
:106D440000B58BB00190009100230893019B1B8830
:106D5400212B5BD0212B04DC102B14D0112B06D05B
:106D64009FE03B2B6CD0562B00F0818099E04F4A7A
:106D74004F4BD31ADB081B0443F003034D49184659
:106D840011F056FA8DE0494A494BD31ADB081B042B
:106D940043F003034849184611F04AFA072000F06B
:106DA400E3FF0890089B0593059B002B05D0434AFD
:106DB40040F2CB2105980CF0AFF9019B9A88404B27
:106DC4001A803F4B1B8819463E4809F00DFF089076
:106DD400089B0493049B002B05D0384A40F2CE2133
:106DE40004980CF099F9364B1B881946364804F080
:106DF400B3FF0890089B0393039B002B4AD02F4AB0
:106E04004FF4347103980CF087F943E000238DF8B4
:106E1400083000238DF80930019B9B8802AA114693
:106E24001846FFF771FA0890089B0693069B002BFF
:106E340032D0224A4FF4377106980CF06DF92BE0EA
:106E44001F4B4FF6FF721A80019B9B881321184633
:106E5400FFF74EFA0890089B0793079B002B1DD061
:106E6400164A40F2E52107980CF056F916E0019B0A
:106E74009B8813211846FFF73BFA0890089B099357
:106E8400099B002B0CD00D4A40F2ED2109980CF01F
:106E940043F905E000BF04E000BF02E000BF00E0EA
:106EA40000BF00BF0BB05DF804FB00BF2CA20300C1
:106EB40004A2030000A6030010A603006CA30300B1
:106EC400F82400202C2200206426002000B585B080
:106ED40003468DF807309DF80730043B0C2B51D83E
:106EE40001A252F823F000BF276F0200896F02004D
:106EF400896F0200896F0200896F0200896F0200A6
:106F0400216F0200896F0200896F0200896F0200FD
:106F1400536F0200656F0200776F0200FFF75AFE9D
:106F240039E01F4B1B8813211846FFF7E1F9039042
:106F3400039B082B28D0039B0293029B002B23D096
:106F4400184A40F20A3102980CF0E6F81CE0164B9D
:106F54001B894FF6FF72934218D0FFF7A1FA15E090
:106F6400114B1B894FF6FF72934211D0FFF7FCFAC5
:106F74000EE00D4B1B894FF6FF7293420AD0FFF7C8
:106F840057FB07E000BF06E000BF04E000BF02E0DB
:106F940000BF00E000BF00BF05B05DF804FB00BF08
:106FA400F82400206CA30300F425002000B587B06A
:106FB40011F0BCFF0590059B0493049B002B05D0A6
:106FC400164A40F2363104980CF0A6F800230193D7
:106FD40001AB1946012012F0B1F80590059B03930B
:106FE400039B002B05D00D4A4FF44F7103980CF00E
:106FF40093F801AB184612F095F90590059B02939E
:10700400029B002B05D0054A4FF4507102980CF0F6
:1070140083F800BF07B05DF804FB00BF6CA3030056
:1070240000B587B007F056F80590059B0493049BC0
:10703400002B05D0384A40F24F3104980CF06CF81C
:107044006B4605220021184613F024F89DF8003001
:1070540043F001038DF800309DF800306FF34103D5
:107064008DF800309DF800306FF382038DF8003006
:107074009DF800306FF3C3038DF800309DF80030A5
:10708400032262F306138DF800309DF800306FF38D
:10709400C7138DF8003007238DF8013010238DF8C5
:1070A40002309DF8033043F001038DF803309DF85E
:1070B400033043F002038DF803309DF8043043F0AD
:1070C40001038DF804309DF8043043F002038DF879
:1070D40004306B46184607F0DFF80590059B0393D0
:1070E400039B002B05D00C4A40F2623103980CF04C
:1070F40013F80A4807F0A8F80590059B0293029B31
:10710400002B05D0044A40F2653102980CF004F8D3
:1071140000BF07B05DF804FB6CA303001D6302000D
:1071240000B583B00E4A0F4BD31ADB081B0443F09F
:1071340003030D49184611F07BF807F069F9019033
:10714400019B0093009B002B05D0084A40F272314A
:1071540000980BF0E1FF00BF03B05DF804FB00BF33
:107164002CA2030004A203001CA603006CA30300CA
:1071740000B5AFB001ABAC220021184612F08AFF73
:1071840002238DF8043001238DF8063006238DF890
:1071940007300023ADF814300023069301238DF843
:1071A40080302823239340F6B833249301238DF8A9
:1071B40081304FF44863259344F2506326930D4B7A
:1071C4002A9301AB19460C4801F05FFE2D902D9BCC
:1071D4002C932C9B002B05D0084A40F28F312C981D
:1071E4000BF09AFF0121044801F042FE00BF2FB0CA
:1071F4005DF804FB416C0200702600206CA30300C0
:1072040000B587B001901749032000F0C7FD059031
:10721400059B0493049B002B05D0134A4FF468711B
:1072240004980BF079FF0DF10B031946002000F0D0
:10723400E3FA0590059B0393039B002B05D00A4AB0
:1072440040F2A33103980BF067FF9DF80B30022B3B
:107254000CBF01230023DAB2019B1A7000BF07B0F0
:107264005DF804FBD16E02006CA3030000B583B08B
:107274004FF40041002010F00FFD0190019B00939A
:10728400009B002B05D0064A40F2AE3100980BF06B
:1072940043FF10F09FFC00BF03B05DF804FB00BF88
:1072A4006CA3030000B583B010F020FA0190019B99
:1072B4000093009B002B05D0044A40F2BA31009899
:1072C4000BF02AFF00BF03B05DF804FB6CA30300BE
:1072D40008B511F037F8034683F00103DBB2002B45
:1072E40001D010F019FA00BF08BD000000B585B048
:1072F40003468DF807309DF80730002B02D0FFF7C6
:107304000FFF0FE00321094801F0A4FE0390039B43
:107314000293029B002B05D0054A40F2D731029814
:107324000BF0FAFE00BF05B05DF804FB70260020E8
:107334006CA3030000B583B0FFF798FFFFF790FA42
:107344000DF107031846FFF75BFFFFF7ABFFFFF7ED
:107354002DFEFFF7F5FAFFF747FBFFF709FFFFF7ED
:10736400D9FBFFF77BFBFFF7FFFBFFF759FE094A49
:10737400094BD31ADB081B0443F0030307491846DF
:1073840010F056FF9DF807301846FFF7AFFFFFF7E0
:107394009FFFFCE72CA2030004A203002CA6030019
:1073A40082B001904FF0A043184602B0704700B578
:1073B40085B00190084611461A4603468DF80330FD
:1073C4000B468DF8023013468DF8013001AB184698
:1073D400FFF7E6FF03909DF803209DF802305B0061
:1073E4001A439DF801309B001A439DF818301B0284
:1073F40042EA03019DF81C301B04019A1943039BC4
:1074040002F5E07243F8221000BF05B05DF804FBFA
:1074140000B585B00390002301930023009300235B
:10742400012201210398FFF7C2FF00BF05B05DF8F8
:1074340004FB00B585B0019001AB1846FFF7B0FF1F
:107444000390019B012202FA03F31946039800F00A
:1074540069F800BF05B05DF804FB00B585B0019084
:1074640001AB1846FFF79CFF0390019B012202FA2F
:1074740003F31946039800F05FF800BF05B05DF808
:1074840004FB00B585B0019001AB1846FFF788FFF7
:107494000390039BD3F804350293029BDA43019BC8
:1074A400012101FA03F31A40039BC3F80825019B49
:1074B40001229A40029B1A40039BC3F80C2500BF8B
:1074C40005B05DF804FB00B583B001900091009B0A
:1074D400002B03D10198FFF7C0FF02E00198FFF7EA
:1074E400A8FF00BF03B05DF804FB00B585B00190B0
:1074F40001AB1846FFF754FF0390039800F00AF815
:107504000246019B22FA03F303F00103184605B077
:107514005DF804FB82B00190019BD3F80435184652
:1075240002B0704782B001900091019B009AC3F8A9
:10753400082500BF02B0704782B001900091019B02
:10754400009AC3F80C2500BF02B0704700B585B09F
:10755400019019231846FFF7C8FF0346002B14BFF8
:10756400012300238DF80F309DF80F30002B14BF3A
:1075740001230023DBB283F00103DBB203F0010338
:10758400DBB2184605B05DF804FB00B583B001908A
:10759400192300211846FFF796FF00BF03B05DF8DA
:1075A40004FB00B583B00190192301211846FFF7AD
:1075B4008AFF00BF03B05DF804FB00B583B000236D
:1075C400019305E00198FFF7ECFF019B0133019360
:1075D400019B002BF6D000BF03B05DF804FB00B59F
:1075E40083B00023019305E00198FFF7CEFF019BD0
:1075F40001330193019B002BF6D000BF03B05DF86B
:1076040004FB00B583B0019019231846FFF739FF36
:1076140000BF03B05DF804FB00B583B00023019301
:1076240006E019231846FFF7F3FE019B013301938B
:10763400019B002BF5D0FFF7C0FF00BF03B05DF83E
:1076440004FB00B583B00190019B03F00103002B00
:1076540001D0FFF7E1FF00BF03B05DF804FB00B504
:1076640083B001220021002000F0CAFB0190019B9D
:10767400002B04D0019B072B01D0019B1CE00722A7
:107684000221012000F0BCFB0190019B002B04D0DF
:10769400019B072B01D0019B0EE004220221002054
:1076A40000F0AEFB0190019B002B04D0019B072B43
:1076B40001D0019B00E00023184603B05DF804FBF1
:1076C40000B583B001220221002000F099FB019053
:1076D400019B002B04D0019B072B01D0019B1CE0D4
:1076E40007220221012000F08BFB0190019B002B5B
:1076F40004D0019B072B01D0019B0EE00A2200213C
:10770400002000F07DFB0190019B002B04D0019B25
:10771400072B01D0019B00E00023184603B05DF85D
:1077240004FB82B00190019B00221A7000BF02B0DA
:10773400704700B583B0002000F07BFB0190019BF3
:10774400002B04D0019B062B01D0019B0CE00120EF
:1077540000F06FFB0190019B002B04D0019B062BD2
:1077640001D0019B00E00023184603B05DF804FB40
:1077740000B585B001900091019B1B88102B02D0AD
:10778400112B18D02FE01A4B1B68002B0DD1FFF7DB
:1077940066FF0390039B002B07D0164B1B68002B3E
:1077A40003D0144B1B6803989847114B1B68013393
:1077B4000F4A136017E00E4B1B68013B0C4A136021
:1077C4000B4B1B68002B0DD1FFF77AFF0390039B33
:1077D400002B07D0074B1B68002B03D0054B1B68FD
:1077E4000398984700BF00BF05B05DF804FB00BFD5
:1077F400E0280020DC28002000B585B0019000912D
:10780400002303930A4A019B1360009B002B02D0C0
:107814000098FFF786FF074B1B68002B02D1FFF788
:107824004FFF0390039B184605B05DF804FB00BFAF
:10783400DC280020E028002000B583B00C4B1B7826
:10784400002B0FD00023019308E0019B022B02D0F0
:107854000198FFF7A6FE019B01330193019B002BC6
:10786400F3D001E0FFF7A9FE00BF03B05DF804FB0D
:10787400EC2800202DE9F04884B003468DF8073049
:107884000023039300230293D14B1B78002B04D0D5
:10789400CF4B00221A70FFF7CFFF9DF80730172B4C
:1078A40000F2358201A252F823F000BF11790200E0
:1078B4002979020029790200B1790200397A02009B
:1078C400A77A02002D7B02004D7B02005D7B020043
:1078D4007B7B0200997B0200B77B0200E17B020004
:1078E400EF7B0200EF7B0200EF7B0200EF7B0200E4
:1078F400EF7B0200B57C0200C37C0200D77C02004F
:10790400EB7C0200057D0200057D0200FFF794FF79
:10791400B04B18460CF072FA0390AF4A9DF807304A
:107924001370F5E10020FFF711FE0346002B0DD084
:107934000020FFF736FE9DF80730022B02D14FF4EA
:10794400E16301E04FF47A6302930BE00020FFF758
:107954001CFE9DF80730022B01D1C82301E04FF42F
:10796400C87302939C4A9DF807301370994D029B8B
:1079740019464FF000024FF000034FF00004D40307
:1079840044EA5144CB0313F5FA7044F100014FF477
:107994007A724FF0000312F05AFA03460C460022A2
:1079A400194628460CF0F8F90390B1E10020FFF7DE
:1079B400CDFD0346002B0DD00020FFF7F2FD9DF80E
:1079C4000730032B02D14FF4487301E04FF47A637C
:1079D40002930BE00020FFF7D8FD9DF80730032B3E
:1079E40001D1C82301E04FF4C87302937A4A9DF889
:1079F40007301370774D029B19464FF000024FF089
:107A040000034FF00004D40344EA5144CB0313F5BC
:107A1400FA7044F100014FF47A724FF0000312F04F
:107A240016FA03460C460022194628460CF0B4F90F
:107A340003906DE10020FFF789FD0346002B06D07B
:107A44000020FFF7AEFD4FF47A63029305E00020B7
:107A5400FFF79BFD4FF4C87302935F4A9DF807300C
:107A640013705C4D029B19464FF000024FF0000367
:107A74004FF00004D40344EA5144CB0313F5FA70E5
:107A840044F100014FF47A724FF0000312F0DFF971
:107A940003460C460022194628460CF07DF9039053
:107AA40036E10020FFF752FD0346002B0CD00020E6
:107AB400FFF777FD9DF80730052B01D1C82301E0BE
:107AC4004FF47A6302930BE00020FFF75EFD9DF80C
:107AD4000730052B01D1C82301E04FF4C87302938A
:107AE4003D4A9DF8073013703A4D029B19464FF0FA
:107AF40000024FF000034FF00004D40344EA514461
:107B0400CB0313F5FA7044F100014FF47A724FF08D
:107B1400000312F09CF903460C460022194628463D
:107B24000CF03AF90390F3E00020FFF76AFD2A4ACB
:107B34009DF807301370274B002240F6CD411846BC
:107B44000CF02AF90390E3E00020FFF71EFD224A1F
:107B54009DF807301370DBE01D4B01221A700120E1
:107B6400FFF74FFD1B4B002240F6CD4118460CF0A9
:107B740013F90390CCE0164B01221A700120FFF791
:107B840040FD144B00224FF4804118460CF004F9D8
:107B94000390BDE00E4B01221A700120FFF731FD66
:107BA4000C4B002240F6CD4118460CF0F5F803903A
:107BB400AEE0074B01221A700120FFF722FD054BAE
:107BC40000224FF4804118460CF0E6F803909FE041
:107BD400E5280020F0280020E4280020FFF7FFFC1F
:107BE4004E4A9DF80730137092E04D4B18460CF046
:107BF40005F903909DF80730C3F111030293029B2A
:107C0400002B4ED0039B002B4BD1029B012B41D95F
:107C1400434F029B9BB29DB24FF00006AB46B44665
:107C24001BEB0B034CEB0C049B46A4461BEB050B14
:107C34004CEB060C4FF000014FF000024FEACC026F
:107C440042EA5B724FEACB018B4694461BEB050B71
:107C54004CEB060C4FF000014FF000024FEA8C424F
:107C640042EA9B324FEA8B418B4694465B4664461C
:107C740013F5FA7044F100014FF47A724FF00003E7
:107C840012F0E5F803460C460022194638460CF07B
:107C940083F803900220FFF778FC224B01221A702C
:107CA40036E00220FFF77DFC1E4B00221A702FE005
:107CB400FFF7C2FD194A9DF80730137028E0FFF75B
:107CC400BBFD0020FFF761FC144A9DF807301370D8
:107CD4001EE0FFF7B1FD0120FFF757FC0F4A9DF8A6
:107CE4000730137014E0FFF7A7FD0020FFF74DFCE9
:107CF4000120FFF74AFC094A9DF80730137007E09A
:107D0400FFF76DFC054A9DF80730137000E000BFD3
:107D1400039B184604B0BDE8F08800BFE4280020A7
:107D240010290020EC28002000B583B00190074BF7
:107D34001B6803F00103002B04D0054B1B78184685
:107D4400FFF798FD00BF03B05DF804FBE8280020AE
:107D5400E428002000B583B001900220FFF751FC15
:107D640000BF03B05DF804FB00B585B003468DF891
:107D7400073000230393084B1B6803F00103002B17
:107D840005D09DF807301846FFF774FD0390039B58
:107D9400184605B05DF804FBE828002000B585B05E
:107DA4000190009100230393104A019B1360019BEF
:107DB40003F00103002B14D00120FFF742FC039BC6
:107DC400002B05D10A4A00210A480BF0B5FF0390A5
:107DD400039B002B05D1084A012108480BF0ACFF96
:107DE4000390039B184605B05DF804FBE8280020C7
:107DF4002D7D020058A60300597D02005CA60300F5
:107E040084B001900B468DF8033013468DF8023090
:107E14000023039307230393039B184604B070477E
:107E240082B001900B468DF803300623184602B049
:107E3400704700B583B0019001210198FFF7F0FF6E
:107E44000346184603B05DF804FB6DDF704700BFBE
:107E5400184679DF704700BF18467DDF704700BFC2
:107E6400184664DF704700BF184682B0034600918D
:107E7400ADF80630BDF80630DAB2009B1A70BDF8D2
:107E840006301B0A9AB2009B0133D2B21A70022345
:107E9400184602B0704700B589B0039002911346AA
:107EA400ADF80630029B1B8803F10902BDF80630C9
:107EB4009A4201D90C2353E004AB1846FFF7C5FFDF
:107EC4000790079B0693069B002B01D0069B47E077
:107ED400029B1B881A46039B134408221A70029BB8
:107EE4001B8801339AB2029B1A80029B1B881A4694
:107EF400039B13441B221A70029B1B8801339AB202
:107F0400029B1A80029B1B881A46039B981804AB99
:107F140001330622194612F094F8029B1B8806339B
:107F24009AB2029B1A809DF8103023F00103DBB251
:107F3400002B07D1029B1B881A46039B1344002283
:107F44001A7006E0029B1B881A46039B1344012205
:107F54001A70029B1B8801339AB2029B1A80002379
:107F6400184609B05DF804FB00B589B0039002918E
:107F74000192ADF80230039B1B78012B05D1039BC2
:107F84005B78002B01D1072392E0019B1B889A1C8C
:107F9400BDF802309A420ED8039B1B78012B0CD1FA
:107FA400019B1B881A46039B5B7813449A1CBDF8FB
:107FB40002309A4201D90C237AE0019B1B88BDF858
:107FC4000220D31A9BB2023BADF81C30BDF81C3022
:107FD400ADF81230019B1B880233029A13440DF151
:107FE400120211461846FFF738FF0690069B0593C8
:107FF400059B002B01D0059B5AE0039B1B78022BA9
:1080040006D0039B5B789AB2BDF812309A4209D32A
:10801400BDF81230BDF81C209A4203D309238DF811
:108024001F3017E008238DF81F30039B1B78012BAA
:108034000CD1039B5B789BB2BDF81C209A4205D3FC
:10804400039B5B789BB2ADF8123003E0BDF81C30A3
:10805400ADF81230BDF81230FE2B01D90C2327E005
:10806400BDF81230DAB2019B1B881946029B0B44FF
:108074000132D2B21A70019B1B8801339AB2019B60
:108084001A80019B1B881A46029B13449DF81F20EB
:108094001A70019B1B8801339AB2019B1A80019BC1
:1080A4001A88BDF8123013449AB2019B1A80002337
:1080B400184609B05DF804FB00B589B0039002913D
:1080C4001346ADF80630029B1B881A1DBDF8063016
:1080D4009A4201D90C233BE00DF116031846FFF731
:1080E400B8FE0790079B0693069B002B01D0069BC6
:1080F4002EE0029B1B881A46039B134403221A702A
:10810400029B1B8801339AB2029B1A80029B1B8834
:108114001A46039B134419221A70029B1B880133CD
:108124009AB2029B1A80BDF81620029B1B8819463E
:10813400039B0B4419461046FFF797FE0346194666
:10814400029B1A888BB213449AB2029B1A800023B2
:10815400184609B05DF804FB84B0029101921A46F6
:1081640003468DF80F301346ADF80C30019B1B8885
:10817400DA1CBDF80C309A4201D90C2328E0019B8B
:108184001B881A46029B134402221A70019B1B8807
:1081940001339AB2019B1A80019B1B881A46029BE9
:1081A400134401221A70019B1B8801339AB2019B6C
:1081B4001A80019B1B881A46029B13449DF80F20CA
:1081C4001A70019B1B8801339AB2019B1A80002309
:1081D400184604B0704784B0029101921A460346CF
:1081E4008DF80F301346ADF80C30019B1B88DA1C58
:1081F400BDF80C309A4201D90C2328E0019B1B885E
:108204001A46029B134402221A70019B1B880133F5
:108214009AB2019B1A80019B1B881A46029B134445
:108224000A221A70019B1B8801339AB2019B1A809F
:10823400019B1B881A46029B13449DF80F201A7059
:10824400019B1B8801339AB2019B1A8000231846B4
:1082540004B0704700B58FB0039001930B468DF8BE
:108264000B3013468DF80A3000238DF83330109B01
:108274001B88ADF8303000230D9371E0039B5A68DE
:108284000D9B9B001A4405AB106818600DF11B018F
:1082940005AB00221846FFF7E4FD0A900A9B0993F8
:1082A400099B002B01D0099B7CE09DF81B309DF8B5
:1082B4000A209A4251D19DF83330002B01D000237B
:1082C40000E002238DF82330109B1B881A469DF88A
:1082D4001B301A449DF823301A44BDF844309A42A6
:1082E40001DD0C235EE09DF8333083F00103DBB243
:1082F400002B16D0109B1B8801339AB2109B1A8056
:10830400109B1B881A46019B13449DF80B201A707E
:10831400109B1B8801339AB2109B1A8001238DF89D
:108324003330109B1B881A46019B1A440DF11B0124
:1083340005AB1846FFF795FD0A900A9B0793079B28
:10834400002B01D0079B2DE0109B1A889DF81B3051
:108354009BB213449AB2109B1A800D9B01330D9368
:10836400039B1B881A460D9B934287DB9DF8333091
:10837400002B16D0109B1A88BDF83030D31A9BB24C
:10838400013BADF82E30BDF82E30FF2B01D90C2364
:1083940008E0BDF83030019A1344BDF82E20D2B263
:1083A4001A70002318460FB05DF804FB00B58BB0BB
:1083B400059003930B468DF8133013468DF8123055
:1083C4009DF81310BDF8343001930C9B0093039B6C
:1083D40002220598FFF73EFF0990099B0893089B2A
:1083E400002B01D0089B14E09DF81210BDF8343026
:1083F40001930C9B0093039B10220598FFF72AFF1F
:108404000990099B0793079B002B01D0079B00E071
:10841400002318460BB05DF804FB82B00190019B69
:108424001B88052B0AD9019B1B88B3F5486F07D914
:10843400019B1B884FF6FF72934201D0072325E06E
:10844400019B5B88052B0AD9019B5B88B3F5486FB8
:1084540007D9019B5B884FF6FF72934201D0072333
:1084640014E0019B1B884FF6FF7293420DD0019BD1
:108474005B884FF6FF72934207D0019B1A88019BD9
:108484005B889A4201D9072300E00023184602B012
:10849400704700B587B0039002910192ADF80230A5
:1084A400019B1B889A1DBDF802309A4201D90C2306
:1084B4004DE00398FFF7B1FF0590059B0493049BDF
:1084C400002B01D0049B42E0019B1B881A46029BAF
:1084D400134405221A70019B1B8801339AB2019B35
:1084E4001A80019B1B881A46029B134412221A709D
:1084F400019B1B8801339AB2019B1A80039B1A8843
:10850400019B1B881946029B0B4419461046FFF732
:10851400ACFC03461946019B1A888BB213449AB2E9
:10852400019B1A80039B5A88019B1B881946029B56
:108534000B4419461046FFF798FC03461946019B65
:108544001A888BB213449AB2019B1A8000231846EE
:1085540007B05DF804FB00B587B003900291019267
:10856400ADF80230039B9B8802330593019B1B8863
:108574001A46059B13449A1CBDF802309A4201D94D
:108584000C2354E0059BFE2B01D90C234FE0059BE3
:10859400DAB2019B1B881946029B0B440132D2B20A
:1085A4001A70019B1B8801339AB2019B1A80019BAC
:1085B4001B881A46029B1344FF221A70019B1B88D6
:1085C40001339AB2019B1A80039B1A88019B1B8872
:1085D4001946029B0B4419461046FFF746FC034616
:1085E4001946019B1A888BB213449AB2019B1A80D4
:1085F400039B9B88002B19D0039B9B68002B01D104
:10860400072314E0019B1B881A46029B9818039BBE
:108614009968039B9B881A4611F013FD019B1A88E5
:10862400039B9B8813449AB2019B1A80002318462B
:1086340007B05DF804FB00B589B003900291019284
:10864400ADF80230039B9B6A002B01D1072372E033
:1086540000238DF81F3066E0039B996A9DF81F2064
:1086640013465B0013449B000B440693069B9B88B4
:1086740002330593059BFE2B01D90C235BE0059B7C
:10868400DAB2019B1B881946029B0B440132D2B219
:108694001A70019B1B8801339AB2019B1A80019BBB
:1086A4001B881A46029B134416221A70019B1B88CE
:1086B40001339AB2019B1A80069B1A88019B1B887E
:1086C4001946029B0B4419461046FFF7CEFB03469E
:1086D4001946019B1A888BB213449AB2019B1A80E3
:1086E400069B9B88002B19D0069B9B68002B01D10D
:1086F400072320E0019B1B881A46029B9818069BBF
:108704009968069B9B881A4611F09BFC019B1A886A
:10871400069B9B8813449AB2019B1A809DF81F30D4
:1087240001338DF81F30039B93F82C309DF81F20E4
:108734009A4291D30023184609B05DF804FB00B5B2
:1087440095B005900491039200231393039B1B8817
:10875400ADF84A30039B00221A80059B93F82D3014
:10876400002B0ED0BDF84A301A4603990498FFF73F
:1087740092FB1390139B1193119B002B01D0119B1F
:10878400D8E0059B9B78002B0ED0BDF84A301A46E2
:1087940003990498FFF790FC1390139B1093109B7C
:1087A400002B01D0109BC5E0059BDB78002B10D07B
:1087B400059BDB7858B2BDF84A30039A0499FFF759
:1087C400CBFC1390139B0F930F9B002B01D00F9B9B
:1087D400B0E0059B5B68002B11D0059B5B6893F9A7
:1087E4000000BDF84A30039A0499FFF7F4FC139093
:1087F400139B0E930E9B002B01D00E9B9AE0059BBE
:108804001B89002B14D0059B03F10800BDF84A30E6
:108814000193039B0093049B06220221FFF7C6FDEC
:108824001390139B0D930D9B002B01D00D9B81E0A6
:10883400059B1B8A002B14D0059B03F11000BDF887
:108844004A300193039B0093049B07220321FFF703
:10885400ADFD1390139B0C930C9B002B01D00C9B30
:1088640068E0059B1B8B002B14D0059B03F11800BB
:10887400BDF84A300193039B0093049B15221421F5
:10888400FFF794FD1390139B0B930B9B002B01D0CC
:108894000B9B4FE0059B1B6A002B0FD0059B186AAE
:1088A400BDF84A30039A0499FFF7F3FD1390139B24
:1088B4000A930A9B002B01D00A9B3BE0059B5B6A51
:1088C400002B0FD0059B586ABDF84A30039A0499CF
:1088D400FFF741FE1390139B0993099B002B01D0D2
:1088E400099B27E0059B93F82C30002B0ED0BDF894
:1088F4004A30039A04990598FFF79DFE1390139B41
:108904000893089B002B01D0089B13E0059B1B7860
:10891400002B0ED0BDF84A30039A04990598FFF74E
:1089240023FB1390139B0793079B002B01D0079BFA
:1089340000E0139B184615B05DF804FB86B0039065
:1089440001921A460B46ADF80A3013468DF80930E9
:10895400039B002B02D0019B002B01D100233CE0A0
:108964000023ADF816300CE0BDF81630039A13441A
:108974001B789AB2BDF8163013449BB20133ADF89C
:108984001630019B1B88BDF816209A4209D3BDF806
:1089940016300133039A13441B789DF809209A4238
:1089A40005D0BDF81620BDF80A309A42DCD3BDF8D4
:1089B4001620BDF80A309A4201D300230DE0BDF819
:1089C400163002339AB2019B1A80BDF81630039A0E
:1089D40013441B789BB2013B9BB2184606B0704708
:1089E40000B585B001900B46ADF8023013468DF802
:1089F40001300023ADF80C309DF8013003AABDF816
:108A040002100198FFF79AFF0346ADF80E30BDF847
:108A14000E30002B01D1002304E0BDF80C301A46BF
:108A2400019B1344184605B05DF804FB72DF7047E0
:108A340000BF184673DF704700BF184682B001902C
:108A4400019B93F85432184602B0704784B00190E9
:108A5400002303930AE0019A039B13441B78002B21
:108A640001D0012306E0039B01330393039B052BF1
:108A7400F1D90023184604B07047000082B00346C1
:108A84008DF807309DF807305A1C074B83FB0213FF
:108A94005910D317C91A0B469B000B44D11ACBB2F9
:108AA400184602B0704700BF6766666682B00190E0
:108AB4000091009BDB7B012B04D1009B9A88019BD6
:108AC400A3F8482200BF02B0704700B585B00190FA
:108AD4000091019B002283F85222009B9A88019BFB
:108AE400B3F848329A4216D1019B1B7983F00103F3
:108AF400DBB2002B0FD00121019800F0ABFA0390F8
:108B0400039B002B07D0019B9B6B002B03D0019B85
:108B14009B6B0398984700BF05B05DF804FB00B554
:108B240085B001900091009B1B88262B1ED1009BD1
:108B34001B7A012B03D0009B1B7A022B17D1019BBC
:108B44009B781846FFF79AFF03461946019800F0F0
:108B540081FA0390039B002B09D0019B9B6B002B94
:108B640005D0019B9B6B0398984700E000BF05B0BC
:108B74005DF804FB00B585B001900B468DF8033019
:108B8400019B03F24B231846FFF760FF03468DF861
:108B94000F309DF80330013B032B33D801A252F868
:108BA40023F000BFB98B0200DD8B0200F18B0200C1
:108BB400FD8B0200019B9B79002B0DD0019B93F848
:108BC400243083F00103DBB2002B05D09DF80F3075
:108BD400002B01D0012316E0019BDB79002B05D08B
:108BE4009DF80F30002B01D002230CE0019B1B7A6F
:108BF400002B01D0032306E0019B5B7A002B01D0FC
:108C0400042300E00023184605B05DF804FB00BF10
:108C140082B001900091019B012283F83120019BD5
:108C24000022C3F84422019B03F24A22009B5A60AB
:108C3400009B00229A60009B02221A70009B8022F3
:108C44009A810023184602B0704782B001900091C7
:108C5400019B022283F83120019B93F82430002BDE
:108C640003D0009B07221A7002E0009B03221A70B3
:108C7400019B1B699AB2009B9A81019B0022C3F855
:108C84004422019B03F24A22009B5A60019BDA684A
:108C9400009B9A600023184602B0704700B583B069
:108CA4000190019B5B79002B0FD0019B93F852320A
:108CB40083F00103DBB2002B07D00198FFF7BEFE5F
:108CC4000346002B01D0012300E0002303F001033D
:108CD400DBB2184603B05DF804FB00B585B0019023
:108CE4000B468DF80330019BD3F83402019BB3F893
:108CF400383201221946FFF773FE0390039B002BC1
:108D040003D0039B9DF803201A70019B03F15400C8
:108D1400019B03F50D71019B3C331A46FFF786FE58
:108D24000346184605B05DF804FB00B585B0019014
:108D34000091019B5A69009B9A60019B9B699AB2BE
:108D4400009B9A81019B93F82430002B04D0019B53
:108D5400062283F83C2003E0019B012283F83C2097
:108D64000198FFF79BFF0346002B13D0009B0222C0
:108D74001A7504210198FFF7B0FF0390039B029337
:108D8400029B002B01D0029B0FE0019B052283F87C
:108D9400312003E0019B032283F83120019B03F57A
:108DA4000D72019BC3F844220023184605B05DF8F8
:108DB40004FB00B585B001900091019BDA69009B2A
:108DC4009A60019B1B6A9AB2009B9A81019B93F85B
:108DD4002430002B04D0019B062283F83C2003E0BE
:108DE400019B012283F83C200198FFF757FF0346BB
:108DF400002B13D0009B02221A7504210198FFF75F
:108E04006CFF0390039B0293029B002B01D0029BF7
:108E14000FE0019B062283F8312003E0019B04222A
:108E240083F83120019B03F50D72019BC3F84422A2
:108E34000023184605B05DF804FB82B00190019B45
:108E44009B78002B06D0019B93F82030002B01D097
:108E540000230AE0019B9B6A042B03D0019B5B6AFD
:108E6400042B01D1002300E00123184602B070470F
:108E740082B001900B468DF80330019B9DF80320CE
:108E840083F8302000BF02B0704730B587B001903E
:108E94000091009B002B02D0019B002B01D10E23DB
:108EA400C4E0009B78331846FFF7C7FF034683F0FE
:108EB4000103DBB2002B01D00723B7E0019B0022A2
:108EC4009A70019A009B141D03F178050FCD0FC40D
:108ED4000FCD0FC495E8070084E80700019B00222A
:108EE40083F83020009BD3F8A420019B5A63009B95
:108EF400D3F8A820019B9A63019B4FF6FF72A3F855
:108F04004822019B03F50D72019BC3F84422019B87
:108F140003F24A2307220021184611F0BBF8019BF3
:108F24001B7883F00103DBB2002B03D0019BFF22EB
:108F340083F85420019B03F15502019BC3F83422AA
:108F4400019B93F82430002B04D0019BEE22A3F85C
:108F5400382203E0019B1F22A3F838220098019BCA
:108F640003F15501019B03F50E731A46FFF7E7FB66
:108F74000590059B0493049B002B01D0049B55E0B2
:108F8400019B03F24312019BC3F83C22019B93F81B
:108F94002430002B04D0019BEE22A3F8402203E0EE
:108FA400019B1F22A3F84022009B03F13C00019B7C
:108FB400D3F83C12019B03F510731A46FFF7BFFB6D
:108FC4000590059B0393039B002B01D0039B2DE08D
:108FD400019B012283F85120019B9B699AB2019B5A
:108FE400A3F84820019B012283F83C20019B002226
:108FF4001A64019B002283F85020019B5A69019B4B
:109004005A64019B03F15400019B3C331A4600212E
:10901400FFF70CFD0590059B0293029B002B01D0EA
:10902400029B03E0019B01221A70059B184607B0BE
:1090340030BD82B00190019B1B68012B03D0019BC2
:109044001B68022B01D1012300E00023184602B063
:109054007047000000B585B001900B468DF80330D1
:10906400019B1B7883F00103DBB2002B01D00823A2
:1090740009E1019B9DF803209A70019B03F24A23A6
:1090840007220021184611F005F8019B9B79002B5B
:1090940003D0019B9B78012B0FD0019BDB79002B24
:1090A40003D0019B9B78012B07D0019BDB79002B1C
:1090B40014D0019B9B78022B10D1019B5B6B002B7E
:1090C40008D0019B012283F85122019B5B6B08208D
:1090D400984703E0019B002283F851229DF8033056
:1090E40019460198FFF746FD03461A46019B9A70FC
:1090F400019B5B6B002B20D0019B9B78032B03D03F
:10910400019B9B78042B18D1019B5B79002B14D015
:10911400019B93F8523283F00103DBB2002B0CD095
:10912400019B002283F85422019B012283F85322DD
:10913400019B5B6B0720984703E0019B002283F8A7
:109144005322019B3C3318220021184610F0A2FF41
:10915400019B012283F83C20019B2C331846FFF726
:1091640068FF0346002B06D0019BDB6ADAB2019B41
:1091740083F8512003E0019B012283F85120019BD5
:1091840093F82430002B12D0019B2C331846FFF7A0
:1091940050FF0346002B06D0019B9B6ADAB2019B69
:1091A40083F8522003E0019B012283F85220019BA3
:1091B400002283F85020019B9B78042B31D801A214
:1091C40052F823F01D920200DD910200ED9102009D
:1091D400FD9102000D920200019B3C331946019857
:1091E400FFF716FD03901DE0019B3C3319460198DF
:1091F400FFF72BFD039015E0019B3C3319460198C2
:10920400FFF793FD03900DE0019B3C331946019851
:10921400FFF7CFFD039005E0019B002283F8312086
:1092240000E000BF019B9B78002B20D0019B03F141
:109234005400019BD3F84412019B3C331A46FFF7B8
:10924400F5FB0390039B002B01D0039B1BE0019BC8
:1092540093F85420019B93F8303019461046FFF7D9
:10926400E9FB0390039B002B01D0039B0BE0019BC4
:109274005B6B002B06D0019B5B6B019A92F831204B
:10928400104698470023184605B05DF804FB00BF5C
:1092940000B585B001900091009B0393019B1B884E
:1092A400112B09D0262B0CD0102B00D00EE00199E5
:1092B4000398FFF7FBFB09E001990398FFF705FC0E
:1092C40004E001990398FFF72AFC00BF00BF05B032
:1092D4005DF804FB82B00190009100BF02B07047BA
:1092E40075DF704700BF184676DF704700BF184629
:1092F4007ADF704700BF18467BDF704700BF18460F
:1093040084B00346ADF806300023039316E00F49FA
:10931400039A13469B0013449B000B441B88BDF81F
:1093240006209A4207D1039A13469B0013449B00DC
:10933400064A134406E0039B01330393039B002B6B
:10934400E5D00023184604B0704700BF5029002020
:1093540082B001900B46ADF80230019BBDF80220AB
:109364001A80019B00221A72019B054903F10A022B
:109374000B4603CB1060516000BF02B0704700BFC2
:109384008029002082B00190019B4FF6FF721A8061
:1093940000BF02B0704788B00390029111461A468C
:1093A4000B46ADF806301346ADF80430039B9B889A
:1093B4001A46BDF8063013440793039B9B88BDF8F7
:1093C40006209A4206D2039B9B881A46BDF80630B3
:1093D400D31A00E000230693039BDB881A46BDF8EA
:1093E400043013440593039BDB88BDF804209A42A0
:1093F40006D2039BDB881A46BDF80430D31A00E07A
:1094040000230493029B5A88039B1B889A4205D32A
:10941400029B5A88039B5B889A4201D900231CE073
:10942400029B9B881A46069B934205D8029B9B8805
:109434001A46079B934201D200230EE0029BDB886D
:109444001A46049B934205D8029BDB881A46059B67
:10945400934201D2002300E00123184608B070476C
:1094640000B583B00190064B9B69002B03D0044BDD
:109474009B690198984700BF03B05DF804FB00BFE7
:109484006429002000B585B003460091ADF806308C
:10949400BDF8063000991846FFF722FF0390039B9E
:1094A400002B05D0039B112B02D00398FFF7D8FFA4
:1094B400039B002B0CBF01230023DBB2184605B02D
:1094C4005DF804FB00B589B00190019B0793079BED
:1094D4009BB21846FFF714FF0690069B002B42D060
:1094E400069B1A7A224B1B7B9A4215D2079B9AB28F
:1094F400069B0A3319461046FFF7C4FF03468DF84E
:1095040013309DF81330002B2DD0069B1B7A0133AA
:10951400DAB2069B1A7226E0069B00221A72144BDA
:109524001B7C002B0FD0079B9BB23B211846FFF7F7
:10953400DBFE0590059B002B05D0059B082B02D074
:109544000598FFF78DFF0A4B5B69002B0BD00023B6
:109554008DF80C30079B9BB2ADF80E30044B5B6961
:1095640003AA1046984700BF09B05DF804FB00BF8A
:109574006429002030B587B00190019B002B01D1F4
:109584000E2353E02B4A019B14461D460FCD0FC4F6
:1095940095E8070084E80700264B274A1A60019BD8
:1095A4001B68002B11D0019B1B681846FFF7A0FE17
:1095B4000490049B002B01D0049B37E0019B1A68A4
:1095C4001D4B1068516803C308E01B48FFF794FE65
:1095D4000490049B002B01D0049B27E000230593F7
:1095E40020E0059A13469B0013449B00134A13443E
:1095F40003930398FFF7C6FE059B5B01104A1A44C8
:10960400039B5A60039B04330E4A002118460AF058
:1096140093FB0490049B002B01D0032306E0059BDD
:1096240001330593059B002BDBD00023184607B0BC
:1096340030BD00BF6429002080290020502900206B
:1096440030290020C994020000B587B00346009178
:10965400ADF80630009B5B7A002B1AD1009B1B7A75
:10966400002B03D1164B5B68059302E0144B9B68F7
:109674000593009B5B68BDF80620059918460AF01F
:109684008BFB0490049B002B16D00498FFF7E8FE94
:1096940012E0009B00221A72094B5B69002B0BD06D
:1096A40001238DF80C30BDF80630ADF80E30044BB4
:1096B4005B6903AA1046984700BF07B05DF804FB36
:1096C4006429002000B585B00190019BDB7B8DF8F7
:1096D4000F30019B9B88ADF80C309DF80F30012BA7
:1096E4002CD14FF6FF70FFF70BFE0290029B002B6C
:1096F40003D10420FFF7B4FE21E0BDF80C30194675
:109704000298FFF725FE029B03F10A00019B03F177
:1097140010014FF6FF7340F2F312FFF73CFE0346CD
:109724001A46029B5A72074BDB89002B07D1BDF8FE
:109734000C3002991846FFF787FF00E000BF05B020
:109744005DF804FB6429002000B587B00190019BFB
:109754009B88ADF81630BDF816301846FFF7D0FDDB
:109764000490049B002B0ED0049B5B6818460AF0FF
:1097740045FB0390039B002B02D00398FFF770FE78
:109784000498FFF7FFFD00BF07B05DF804FB00007D
:1097940000B587B00190019B06330593059B1A8899
:1097A400194BDB899A422BD1059B5B89022B27D16C
:1097B400019B9B88ADF81230BDF812301846FFF7B4
:1097C4009FFD0390039B002B1AD0059B0C33184676
:1097D40000F048FB0346002B06D0BDF81230039975
:1097E4001846FFF731FF0BE0039B5B6818460AF04D
:1097F40005FB0290029B002B02D00298FFF730FE7B
:1098040000BF07B05DF804FB6429002000B585B0F3
:109814000190019B9B88ADF80E30BDF80E301846C0
:10982400FFF76EFD0290029B002B15D0029B03F103
:109834000A00019B03F108014FF6FF7340F2F31293
:10984400FFF7A9FD03461A46029B5A72BDF80E3073
:1098540002991846FFF7F8FE00BF05B05DF804FB57
:1098640000B583B001900091019B1B88112B0DD092
:10987400112B02DC102B05D014E0122B0ED0502B30
:1098840008D00FE00198FFF71DFF0BE00198FFF7E8
:109894005BFF07E00198FFF77BFF03E00198FFF708
:1098A400B5FF00BF00BF03B05DF804FB30B58FB057
:1098B4000190009100230293009B002B1AD00023F7
:1098C4000D9314E06B460D9918460CF0BAFA034652
:1098D400002B09D0029B5A1C02920D9A92B25B0093
:1098E4000EA90B4423F82C2C0D9B01330D930D9BD7
:1098F400132BE7D9019B1D4602AC0FCC0FC50FCC2F
:109904000FC594E8070085E8070001980FB030BD43
:1099140000B583B00346ADF80630BDF80630132B0E
:1099240001D900230CE0BDF80630194606480CF0B6
:1099340036FABDF80630194604480CF030FA012313
:10994400184603B05DF804FB902900208C29002000
:1099540000B585B00346ADF80630002303930DE04F
:10996400039B9B00094A13440433BDF806201146A7
:1099740018460CF04EFA039B01330393039B1C2BF4
:10998400EED900BF05B05DF804FB00BF88290020B4
:1099940000B583B00346ADF80630BDF8063019466D
:1099A40003480CF036FA00BF03B05DF804FB00BFB7
:1099B4009029002030B59BB0184B9B68DB4318936B
:1099C400164B5A6818AB114618460CF006FB189A49
:1099D4006B4611461846FFF769FF0DAC6D460FCD77
:1099E4000FC40FCD0FC495E8070084E807000023D7
:1099F40019930BE0199B5B001AAA134433F8303C0B
:109A04001846FFF7A5FF199B013319930D9B199A6B
:109A14009A42EFD300BF1BB030BD00BF882900209D
:109A240000B583B003468DF807309DF8073019461A
:109A340003480CF006FA0346184603B05DF804FB2D
:109A44008829002000B585B001900091019B9B8876
:109A5400ADF80E30019B1B88112B22D01A2B26D077
:109A6400102B00D063E0FFF7A5FFBDF80E301846B9
:109A7400FFF74EFF034683F00103DBB2002B05D052
:109A84002D4AE321042009F047FB4FE0019BDB7BD7
:109A9400012B4BD0BDF80E30194628480CF07FF945
:109AA40044E0BDF80E301846FFF772FF3FE0019B1B
:109AB4001B7AC3F30313DBB2012B8CBF01230023F6
:109AC4008DF80D30019B1B7AC3F30313DBB2022B19
:109AD4008CBF012300238DF80C309DF80D30002B32
:109AE40017D0BDF80E30194615480CF058F99DF8FA
:109AF4000C30002B06D0BDF80E30194611480CF07E
:109B04004EF914E0BDF80E3019460E480CF081F9F8
:109B14000DE0BDF80E30194609480CF07AF9BDF88D
:109B24000E30194607480CF074F900E000BF00BF7E
:109B340005B05DF804FB00BF60A603009429002073
:109B4400982900209C29002000B583B00346ADF875
:109B54000630BDF80630132B01D9002306E0BDF80A
:109B64000630194603480CF06CF90346184603B056
:109B74005DF804FB8C29002000B585B00346ADF8E0
:109B8400063000238DF80F30BDF806301846FFF775
:109B9400DBFF0346002B11D0BDF8063019460A48F6
:109BA4000CF04FF903468DF80E309DF80E30002B63
:109BB40001D0022300E001238DF80F309DF80F300F
:109BC400184605B05DF804FB9429002000B585B063
:109BD4000346ADF8063000238DF80F30BDF806308B
:109BE4001846FFF7B1FF0346002B11D0BDF806302D
:109BF40019460A480CF025F903468DF80E309DF8F5
:109C04000E30002B01D0022300E001238DF80F3029
:109C14009DF80F30184605B05DF804FB902900202C
:109C240000B583B00346ADF80630BDF806301846DB
:109C3400FFF78AFF0346002B07D0BDF8063019460C
:109C440004480CF0FEF8034600E00023184603B075
:109C54005DF804FB9829002000B583B00346ADF8F5
:109C64000630BDF806301846FFF76EFF0346002B9A
:109C740007D0BDF80630194604480CF0E2F8034654
:109C840000E00023184603B05DF804FB9C29002083
:109C940000B583B0182107480CF0EBF80190019B44
:109CA400182B01D1182301E0019BDBB2184603B045
:109CB4005DF804FB8829002000B583B003460A46FA
:109CC400ADF8063013468DF805309DF8053018467A
:109CD400FFF7A6FE0346002B16D0BDF80630184643
:109CE400FFF732FF0346002B0ED09DF805300433F6
:109CF4009B00084A13440833BDF806201146184651
:109D04000CF09FF8034600E00023184603B05DF80A
:109D140004FB00BF8829002000B583B00346ADF8DA
:109D240006300B468DF8053013468DF804309DF847
:109D340005301846FFF774FE0346002B26D0BDF805
:109D440006301846FFF700FF0346002B1ED09DF88F
:109D54000430002B0DD09DF8053004339B000D4AD0
:109D640013440833BDF80620114618460CF017F8C2
:109D74000CE09DF8053004339B00064A1344083375
:109D8400BDF80620114618460CF043F800BF03B096
:109D94005DF804FB8829002000B587B00390029188
:109DA4000192029B002B01D100231FE000230593A5
:109DB400039B002B19D00023049313E003AB0499F5
:109DC40018460CF03EF80346002B08D0049B9AB2C8
:109DD400029B019910469847059B01330593049B08
:109DE40001330493049B132BE8D9059B184607B051
:109DF4005DF804FB00B585B00346029101928DF82D
:109E04000F309DF80F301846FFF70AFE034683F023
:109E14000103DBB2002B01D000230CE09DF80F30CE
:109E2400074A04339B0013449B68019A029918461D
:109E3400FFF7B2FF0346184605B05DF804FB00BF08
:109E44008829002082B00190019B1B781AB2019BE3
:109E540001331B781B021BB213431BB29BB218467F
:109E640002B0704700B585B001900198FFF7EAFF92
:109E74000346ADF80E30BDF80E3003F00103002B9D
:109E840014BF01230023DBB2184605B05DF804FBC0
:109E9400A0DF704700BF1846A1DF704700BF184617
:109EA400ADDF704700BF1846B3DF704700BF1846E8
:109EB40082B00190019B00221A60BFF35F8F00BF44
:109EC40002B0704700B585B00190012101980CF0F3
:109ED40029F80390BFF35F8F039B002B0CBF012372
:109EE4000023DBB2184605B05DF804FB82B0019094
:109EF400BFF35F8F019B00221A6000BF02B070475E
:109F0400024B00221A7000BF704700BF002A0020D5
:109F140000B585B00190019B5B88184601F054FAA6
:109F240003461A46019B9A800023039308E0084ADB
:109F3400039B52F8233001989847039B0133039302
:109F4400039B002BF3D000BF05B05DF804FB00BFFA
:109F54002425002082B00190019B9B79012B0BD119
:109F6400019B1B79012B07D1019B5B8842F60212EE
:109F7400934201D1012300E0002303F00103DBB28B
:109F8400184602B0704700B589B003460091ADF899
:109F9400063002AB00221A605A609A60DA601A61D5
:109FA4005A6107238DF80830BDF80630ADF80A3041
:109FB400009B049302AB1846FFF7AAFF00BF09B049
:109FC4005DF804FB10B58AB00346ADF806300023F3
:109FD4008DF8273002AB00221A605A609A60DA606A
:109FE4001A615A61BDF80630ADF80A30BDF8063082
:109FF4004FF6FF72934259D0BDF80630184600F070
:10A004002FFF0890089B0B2B17D00B2B02D8002B8B
:10A0140007D027E0112B0CD043F2020293423AD02E
:10A0240020E00E238DF8083002AB1846FFF770FFCE
:10A0340032E001238DF827302EE00F238DF808300D
:10A044001C4A1D4BD31ADB081B0443F00203BDF862
:10A0540006201A4918460EF0F9F802AB1846FFF725
:10A0640057FF19E0134A144BD31ADB081B0443F0BF
:10A07400010408980DF0B8FB03461A46BDF80630F3
:10A084000F4920460EF0F3F8BDF80630089918463B
:10A09400FFF779FF00E000BF0A4B19789DF82720ED
:10A0A400BDF806301846FFF737FE00E000BF0AB0DF
:10A0B40010BD00BF7CA2030004A20300D0A60300CD
:10A0C40050A70300092A002000B583B003460A46BE
:10A0D400ADF8063013468DF80530064B19789DF817
:10A0E4000520BDF806301846FFF716FE00BF03B082
:10A0F4005DF804FB082A002010B58AB00346ADF8C9
:10A10400063000238DF8273000238DF82630BDF863
:10A114000630184600F01AFE0890089B112B0FD049
:10A12400112B02D8002B07D030E0862B0CD043F241
:10A134000202934243D029E001238DF826303FE008
:10A1440001238DF827303BE002AB00221A605A60ED
:10A154009A60DA601A615A6106238DF80830BDF8F6
:10A164000630ADF80A301D4A1D4BD31ADB081B0418
:10A1740043F00203BDF806201A4918460EF066F8AB
:10A1840002AB1846FFF7C4FE00BF19E0134A144B94
:10A19400D31ADB081B0443F0010408980DF024FBD8
:10A1A40003461A46BDF806300F4920460EF05FF804
:10A1B400BDF8063008991846FFF7E5FE00E000BF39
:10A1C4009DF82720BDF8063011461846FFF77CFF9E
:10A1D4009DF8263018460AB010BD00BF7CA20300CB
:10A1E40004A20300A4A70300DCA7030000B589B000
:10A1F40003460091ADF8063000238DF81F300DF1B1
:10A2040016031846FFF750FE06900123ADF81C30E4
:10A2140046E00223ADF80C300023ADF80E3005AB58
:10A22400049303AABDF81C10BDF806301846FFF7C6
:10A2340037FE0690069B002B01D0069B37E09DF865
:10A244001F3083F00103DBB2002B09D0BDF81430BA
:10A2540042F60522934203D101238DF81F301AE000
:10A264009DF81F30002B16D0BDF8143042F60212B0
:10A27400934210D1009B0493BDF81C300133ADF818
:10A284001C3003AABDF81C10BDF806301846FFF7B1
:10A2940007FE03460BE0BDF81C300133ADF81C305B
:10A2A400BDF81630BDF81C209A42B2D305231846D7
:10A2B40009B05DF804FB000010B58CB00346ADF89E
:10A2C400063001238DF82F3000238DF82E30BDF891
:10A2D4000630184600F074FE0A900A9B082B29D019
:10A2E400082B04D8002B0DD0062B33D045E043F2C5
:10A2F400020293425AD043F20142934237D0112BC7
:10A3040056D03AE004AB00221A605A609A60DA60D0
:10A314001A615A6110238DF81030BDF80630ADF87B
:10A32400123001238DF82E3004AB1846FFF7F0FDF0
:10A3340000BF3EE00DF10E02BDF80630114618468E
:10A34400FFF754FF0A900A9B002B03D1BDF80E308F
:10A35400002B2ED100238DF82F30BDF8063018467F
:10A3640001F032F80346184600F072FE21E0BDF811
:10A3740006301846FFF726FE1BE0184A184BD31A7E
:10A38400DB081B0443F001040A980DF02DFA034680
:10A394001A46BDF80630134920460DF068FFBDF893
:10A3A40006300A991846FFF7EEFD02E000BF00E010
:10A3B40000BF0D4B19789DF82F20BDF806301846C4
:10A3C400FFF7AAFC094B19789DF82E20BDF806303A
:10A3D4001846FFF7A1FC00BF0CB010BD7CA203001F
:10A3E40004A203001CA803000A2A00200B2A002050
:10A3F40000B583B003460091ADF80630BDF80630D1
:10A404001846FFF7DFFD00BF03B05DF804FB000052
:10A4140008B5044B1B78002203491846FFF7EAFCF1
:10A4240000BF08BD092A0020F5A3020000B583B0CF
:10A4340003460091ADF806300A48FFF743FD034692
:10A44400002B0CD0BDF806301846FFF755FE034626
:10A45400002B03D10348FFF749FD00E000BF03B020
:10A464005DF804FB042A002000B583B00346009184
:10A47400ADF806300B4B1A78BDF806301146184675
:10A48400FFF71AFC034683F00103DBB2002B04D070
:10A49400BDF806301846FFF70FFF00BF03B05DF8A4
:10A4A40004FB00BF0B2A002008B5044B1B780022D4
:10A4B40003491846FFF79EFC00BF08BD0A2A002086
:10A4C4006DA4020000B583B00346ADF80630BDF8B4
:10A4D4000630184600F050FD0346002B07D0064B0B
:10A4E4001978BDF8063001221846FFF715FC00BFA5
:10A4F40003B05DF804FB00BF0A2A002000B587B052
:10A5040003460091ADF8063004AB0422002118463E
:10A514000FF0C0FD42F6A623ADF8103001238DF8EC
:10A5240012300D4B1B68039303AA04A9BDF806302F
:10A534001846FFF7ADFC0590059B002B07D1074B90
:10A544001978BDF8063001221846FFF7E5FB00BF75
:10A5540007B05DF804FB00BF5CA803000D2A0020CF
:10A5640000B585B00346ADF80630BDF80630184690
:10A5740000F02AFF0346184602AA0023092101F02D
:10A5840087FF0346052B07D1054B1978BDF8063024
:10A5940001221846FFF7C0FB00BF05B05DF804FBBD
:10A5A4000C2A002000B583B00B4B1B7800220B490A
:10A5B4001846FFF71FFC0190019B002B07D1084BA5
:10A5C4001B78002207491846FFF714FC019000BFCE
:10A5D40003B05DF804FB00BF082A002031A4020088
:10A5E4000C2A002001A5020000B583B00190019B54
:10A5F4001B78002B00D011E0019B5B881846FFF705
:10A60400E1FC019B5B881846FFF75CFF019B5B88BC
:10A614001846FFF7A5FFFFF7C5FF00BF00BF03B053
:10A624005DF804FB00B589B00190019B1B78082BF1
:10A6340057D1019B5B7A002B53D1019B1B7A072BCB
:10A6440004D0082B45D0012B1AD051E0019B9B88E4
:10A65400184600F063FF0346ADF81E30BDF81E3007
:10A664004FF6FF7293423ED0BDF81E3001211846CA
:10A67400FFF72AFDBDF81E301846FFF771FF32E0E0
:10A68400019B9B8803AA0121184603F0FBF806905E
:10A69400069B002B29D1049B1B78002B25D0019B02
:10A6A4009B88184600F03AFF0346ADF81630BDF813
:10A6B40016304FF6FF72934217D0104B1978BDF83D
:10A6C400163001221846FFF727FBFFF7EDFE00BF07
:10A6D4000BE00B4B1B68012B09D10948FFF706FC63
:10A6E40005E000BF04E000BF02E000BF00E000BFDF
:10A6F400FFF758FF00BF09B05DF804FB0A2A0020E9
:10A70400042A002008B5FFF7FBFBFFF7C1FA034654
:10A714001A462C4B1A70FFF7BBFA03461A462A4B0B
:10A724001A70FFF7B5FA03461A46284B1A70FFF75A
:10A73400AFFA03461A46264B1A70FFF7A9FA0346E6
:10A744001A46244B1A70FFF7A3FA03461A46224B03
:10A754001A70FFF79DFA03461A46204B1A70194BDC
:10A764001B78182B17D0184B1B78182B13D0174BAA
:10A774001B78182B0FD0164B1B78182B0BD0154BAE
:10A784001B78182B07D0144B1B78182B03D0134BB2
:10A794001B78182B0CD1124A124BD31ADB081B045A
:10A7A40043F00103104918460DF042FD032306E06F
:10A7B4000E48FFF77DFB0E4B01221A70002318464A
:10A7C40008BD00BF082A0020092A00200A2A002008
:10A7D4000B2A00200C2A00200D2A00200E2A00201B
:10A7E4007CA2030004A2030060A80300042A002042
:10A7F400002A002010B586B003460A46ADF806309C
:10A8040013468DF8053003AB00221A605A60012309
:10A81400ADF80C3009238DF80E30194B1978BDF8BA
:10A82400063000221846FFF777FA9DF80530002B12
:10A8340001D0144B00E0144B0493BDF806301846C5
:10A8440000F0C2FD0346184603AB0022194601F08E
:10A85400E7FE0590059B002B0FD00C4A0C4BD31A36
:10A86400DB081B0443F0020405980CF0BDFF03460B
:10A874001A46084920460DF0E9FC00BF06B010BD99
:10A884000C2A0020E4A90300E8A903007CA2030029
:10A8940004A20300D0A8030000B58DB00190019B71
:10A8A4009B88ADF82C30019B1B88353B1F2B00F295
:10A8B4006A8101A252F823F0D1A90200D3AA0200AE
:10A8C4008BAB02008BAB02008BAB02008BAB0200A4
:10A8D4008BAB02008BAB02008BAB02008BAB020094
:10A8E4008BAB02008BAB02008BAB02008BAB020084
:10A8F4008BAB02008BAB02008BAB02008BAB020074
:10A904008BAB02008BAB02008BAB02008BAB020063
:10A914008BAB02008BAB02008BAB02008BAB020053
:10A924008BAB0200ADA902008BAB02003DA9020073
:10A934008BAB020049A90200BDF82C301846FFF782
:10A9440041FB20E102AB00221A605A609A60DA608F
:10A954001A615A6111238DF80830BDF82C30ADF816
:10A964000A30BDF82C30184600F02EFD0346ADF831
:10A974000C30BDF80C30184600F06AFB864B197891
:10A98400BDF82C3000221846FFF7C6F9834B19781E
:10A99400BDF82C3000221846FFF7BEF902AB18466A
:10A9A400FFF7B6FA00BFEEE0019B06331846FFF747
:10A9B400D1FA0346002B00F0DF80BDF82C300121D2
:10A9C4001846FFF781FBFFF7EDFDD5E000238DF876
:10A9D4002F30019B9B88ADF82C30019B0A330993DF
:10A9E4006F4B1A78BDF82C3011461846FFF764F9FE
:10A9F400034683F00103DBB2002B40F0BF80684BB9
:10AA04001978BDF82C3000221846FFF785F9019B10
:10AA1400DB88B3F5857F4CD0019BDB88002B0DD000
:10AA2400604A614BD31ADB081B0443F00200019B0C
:10AA3400DB881A465D490DF009FC3AE0099B1B8846
:10AA4400012B0CD0574A584BD31ADB081B0443F094
:10AA54000200099B1B881A4655490DF0F7FB099B18
:10AA64005B88012B0DD04F4A4F4BD31ADB081B04D4
:10AA740043F00200099B5B881A464E490DF0E6FB41
:10AA840017E0099B04331988BDF82C3000221846BE
:10AA9400FFF702FA0890089B002B0AD101238DF8D6
:10AAA4002F30454B1978BDF82C3001221846FFF79A
:10AAB40033F99DF82F3083F00103DBB2002B5FD014
:10AAC400BDF82C3000211846FFF794FE58E000230F
:10AAD4008DF82E30019B9B88ADF82C30019B0A33F6
:10AAE4000A93354B1A78BDF82C3011461846FFF7F7
:10AAF400E3F8034683F00103DBB2002B42D12E4B73
:10AB04001978BDF82C3000221846FFF705F9019B8F
:10AB1400DB88002B0DD0234A234BD31ADB081B04FC
:10AB240043F00200019BDB881A4620490DF08EFB9E
:10AB340019E00A9B9B88012B0DD01A4A1A4BD31A91
:10AB4400DB081B0443F002000A9B9B881A46194940
:10AB54000DF07CFB07E00A9B9B79002B14BF0123BB
:10AB640000238DF82E309DF82E20BDF82C30114690
:10AB74001846FFF73FFE06E000BF04E000BF02E016
:10AB840000BF00E000BFFFF743FCFFF78DFC00BFF0
:10AB94000DB05DF804FB00BF0B2A00200A2A002038
:10ABA4000D2A00207CA2030004A2030030A90300A4
:10ABB4006CA90300A8A903000E2A0020AFDF704788
:10ABC40000BF1846B1DF704700BF1846B2DF7047B8
:10ABD40000BF1846B3DF704700BF1846044B00227D
:10ABE4001A70044B4FF6FF721A8000BF704700BF03
:10ABF4000F2A0020102A002000B585B00190019B87
:10AC04009B88184600F08AFC03461A46019B5A802A
:10AC14000023039308E0084A039B52F82330019869
:10AC24009847039B01330393039B002BF3D000BF8E
:10AC340005B05DF804FB00BF2825002010B58AB0DC
:10AC44002E4A07AB92E8030083E803004AE02C4B4A
:10AC54001B8807A90022184601F0E2FC0990099B11
:10AC6400002B36D001AB00221A605A609A60DA6079
:10AC74001A615A61224B1B88ADF80830099B112BCD
:10AC840037D0099B862B07D106238DF8043001ABFE
:10AC94001846FFF7B1FF2CE01A4A1B4BD31ADB0806
:10ACA4001B0443F0010409980CF09EFD03461A4668
:10ACB400134B1B88154920460DF0D9FA07238DF84C
:10ACC4000430099B039301AB1846FFF795FF00BFBF
:10ACD4000FE00B4B1B88184601F066FD03461A462D
:10ACE400074B1A80064B1B884FF6FF729342AED176
:10ACF40000E000BF00BF0AB010BD00BF58AA0300A7
:10AD0400102A002084A2030004A2030000AA030066
:10AD140000B583B00190064B1B884FF6FF72934237
:10AD240001D0FFF78BFF00BF03B05DF804FB00BF49
:10AD3400102A002008B5FFF751FF034B01221A70B7
:10AD44000023184608BD00BF0F2A002030B58BB081
:10AD54000346ADF80630BDF80630184600F034FB63
:10AD64000346ADF81E30BDF81E304FF6FF72934215
:10AD740002D143F202036AE00123ADF8223000233A
:10AD84008DF8213000238DF82130BDF822305A1C73
:10AD9400ADF822201A4603ABBDF81E00082102F0CC
:10ADA40087FD0990099B002B47D1049B0693069BC2
:10ADB40003221A60069B991D069B1A1D069B1B689D
:10ADC400BDF80600FFF702FF0990099B002B09D18B
:10ADD400BDF81E20BDF81E300821184602F027FEDB
:10ADE40009902FE0099B0C2B03D101238DF821300E
:10ADF40004E0099B052B01D100230993BDF81E3003
:10AE04000821184602F0F4FD0590059B002B19D08B
:10AE1400104A114BD31ADB081B0443F00104BDF89C
:10AE24001E5005980CF0E0FC03462A460B492046C8
:10AE34000DF01DFA0323099304E0099B072B01D1AC
:10AE44000C2309939DF82130002B9BD1099B1846B4
:10AE54000BB030BD84A2030004A2030060AA030067
:10AE640000B58BB00346ADF80630BDF80630184681
:10AE740000F0AAFA0346ADF8143000230893002327
:10AE8400ADF81E300323069301238DF81730BDF867
:10AE940014304FF6FF72934216D002AABDF8143054
:10AEA4000821184602F0EEFC0990099B002B0BD1F7
:10AEB400039B0493049B06330893049B9B88ADF87F
:10AEC4001E30049B1B680693BDF81E20BDF80600C7
:10AED400069B0899FFF776FE0990099B042B02D183
:10AEE4001123099331E0099B082B02D10023099314
:10AEF4002BE0099B0B2B28D100238DF81730069BE0
:10AF040003F00203002B02D0012306931DE0089BEB
:10AF1400002B03D1BDF81E30002B07D0002308936B
:10AF24000023ADF81E30032306930EE00F4A104BA6
:10AF3400D31ADB081B0443F00103BDF806200D49B6
:10AF440018460DF083F903230993099B0B2BBBD0FF
:10AF54009DF8173083F00103DBB2002B01D00B23E3
:10AF64000993099B18460BB05DF804FB84A2030007
:10AF740004A20300E0AA030000B589B00346ADF8BB
:10AF840006300DF117030493BDF80630184600F09F
:10AF94001BFA0346ADF81E3003AABDF81E3001218A
:10AFA400184602F06FFC0690069B002B01D000238C
:10AFB40001E0049B1B78184609B05DF804FB00000F
:10AFC40010B584B00346ADF806304FF6FF73ADF804
:10AFD4000E301B48FFF7FEFD0290029B002B11D0A0
:10AFE400184A194BD31ADB081B0443F001040298D6
:10AFF4000CF0FAFB03461A46144920460DF026F9D4
:10B0040003231AE00E4B1988BDF80E20BDF8063054
:10B014001846FFF7D3FD0290029B43F203029342CA
:10B0240005D1074B1B8801339AB2054B1A80029B4A
:10B0340043F203029342E5D0029B184604B010BDCC
:10B04400122A002084A2030004A2030058AB0300C8
:10B0540000B585B00346ADF80630084A02AB92E865
:10B06400030083E8030002A9BDF806300022184655
:10B0740001F0D6FA00BF05B05DF804FBA4AB0300F1
:10B0840046DF704700BF184600B585B00190002325
:10B09400039308E0074A039B52F82330019898472A
:10B0A400039B01330393039B012BF3D900BF05B02A
:10B0B4005DF804FBB4AC030084B001900023039357
:10B0C4000AE0019A039B13441B78002B01D001234F
:10B0D40006E0039B01330393039B0F2BF1D9002359
:10B0E400184604B0704700B583B001900091019BED
:10B0F400002B02D0009B002B01D100231BE0019BFD
:10B104001B78C3F34603DAB2009B1B78C3F34603F0
:10B11400DBB29A4201D000230DE0019B581C009B36
:10B124000133062219460EF056FF0346002B0CBFCE
:10B1340001230023DBB2184603B05DF804FB0000D2
:10B1440030B599B00190019B1B88102B40F0918081
:10B15400019B0CAC1D1D0FCD0FC40FCD0FC495E882
:10B16400070084E807004FF6FF73ADF85E309DF8E2
:10B17400343023F00103DBB2062B47D001F0F2F99F
:10B184009DF83430C3F34603DBB2002B3DDB012BC7
:10B1940014DD022B2ED038E00A9B03F111020CAB14
:10B1A400043311461846FFF79EFF0346002B05D0D3
:10B1B400BDF82E30ADF85E3000BF27E009AA0DF1CE
:10B1C4002E031946072001F0D7F90346002BE3D1DB
:10B1D4001CE00A9B5A1C0CAB04331146184600F0C1
:10B1E4008FFA0346002B05D0BDF82E30ADF85E3043
:10B1F40000BF0BE009AA0DF12E031946072001F048
:10B20400BBF90346002BE4D100E000BFBDF83030A9
:10B214001946194A0B469B000B445B001344BDF8C6
:10B224005E201A80BDF830301946134A0B469B0045
:10B234000B445B00134402330DAA10681860918814
:10B24400927999809A71BDF85E304FF6FF729342FD
:10B2540010D0BDF83030ADF80E30BDF85E30ADF82A
:10B26400103000238DF80C3003AB1846FFF70CFFA9
:10B2740000E000BF19B030BD142A002000B587B02B
:10B2840001900091019B11330593009B11330493AA
:10B29400019B581C009B0133102219460EF09BFEA3
:10B2A4000346002B11D1019B01331846FFF704FF1D
:10B2B4000346002B09D0009B01331846FFF7FCFE20
:10B2C4000346002B01D0012300E000238DF80F304A
:10B2D4009DF80F3003F001038DF80F3004990598A1
:10B2E400FFF701FF03468DF80E30059B1B7823F012
:10B2F4000103DBB2042B16D0059B1B7823F001035A
:10B30400DBB2062B0FD0049B1B7823F00103DBB2C6
:10B31400042B08D0049B1B7823F00103DBB2062B1B
:10B3240001D0012300E000238DF80D309DF80D308D
:10B3340003F001038DF80D309DF80E30002B03D07F
:10B344009DF80D30002B0AD19DF80F30002B08D04A
:10B354009DF80D3083F00103DBB2002B01D00123F3
:10B3640000E0002303F00103DBB2184607B05DF8E8
:10B3740004FB00B587B001900B46ADF8023001F034
:10B38400F1F810E0BDF81630BDF802209A420AD058
:10B39400049B19460198FFF771FF0346002B02D066
:10B3A400BDF816300BE003AA0DF116031946072069
:10B3B40001F0E2F80346002BE4D14FF6FF73184680
:10B3C40007B05DF804FB000000B583B00346ADF898
:10B3D4000630BDF80630132B0AD8BDF806301846DF
:10B3E400FEF7B2FB034683F00103DBB2002B02D06D
:10B3F4004FF6FF7308E0BDF80620054913469B008D
:10B4040013445B000B441B88184603B05DF804FB2F
:10B41400142A002000B583B003460091ADF806302D
:10B42400BDF80630132B0AD8BDF806301846FEF7CF
:10B434008BFB034683F00103DBB2002B02D043F203
:10B44400020311E0BDF806200098094913469B0049
:10B4540013445B000B440246023319681160998857
:10B464009B79918093710023184603B05DF804FB27
:10B47400142A002000B583B001900091019800F0D7
:10B4840089F8034683F00103DBB2002B01D00023CB
:10B4940015E0019B1A88009B1B889A4201D0002367
:10B4A4000DE0019B981C009B0233082219460EF004
:10B4B40092FD0346002B0CBF01230023DBB2184688
:10B4C40003B05DF804FB00B587B0019001F04AF8C1
:10B4D40014E0049B463319460198FFF7CBFF03465B
:10B4E400002B08D1049B2A3319460198FFF7C2FFA9
:10B4F4000346002B02D0BDF816300BE003AA0DF171
:10B5040016031946072001F037F80346002BE0D153
:10B514004FF6FF73184607B05DF804FB00B585B01D
:10B524000346ADF80630BDF806304FF6FF7293427D
:10B5340002D14FF6FF7326E00023ADF80E301CE075
:10B54400BDF80E20124913469B0013445B000B44C4
:10B554001B88BDF806209A420AD1BDF80E30184661
:10B56400FEF7F2FA0346002B02D0BDF80E300AE0D3
:10B57400BDF80E300133ADF80E30BDF80E30132B8C
:10B58400DED94FF6FF73184605B05DF804FB00BF23
:10B59400142A002084B00190019B1B88002B01D049
:10B5A400012312E0002303930BE0019A039B13444D
:10B5B40002331B78002B01D0012306E0039B0133E7
:10B5C4000393039B072BF0D90023184604B070475C
:10B5D40082B003460A46ADF806301346ADF804308F
:10B5E400BDF80630132B0AD8BDF8062005491346CA
:10B5F4009B0013445B000B44BDF804201A8000BF79
:10B6040002B07047142A002000B585B00346ADF897
:10B614000630BDF806301846FFF780FF0346ADF844
:10B624000E30BDF80630184602F0BAF80290029BBC
:10B63400002B0ED1BDF80E30132B0AD8BDF80E2006
:10B64400064913469B0013445B000B444FF6FF72FC
:10B654001A80029B184605B05DF804FB142A0020EA
:10B6640000B595B0039002910192002313930DE06D
:10B67400139BC3F10F03039A1344197805AA139B70
:10B6840013440A461A70139B01331393139B0F2B15
:10B69400EED905AB10330D22002118460EF0FAFC4A
:10B6A400002312930DE0029A129B1A44129BC3F1D9
:10B6B4000F03127814A90B4403F82C2C129B0133AA
:10B6C4001293129B022BEED905AB1846FFF7D8FC58
:10B6D400002311930DE0119BC3F10F020199119BFB
:10B6E4000B4414A90A4412F81C2C1A70119B013340
:10B6F4001193119B022BEED900BF15B05DF804FB2A
:10B7040000B587B001900091019B1B7823F00103E1
:10B71400DBB2042B01D000231FE0019B591C05ABB5
:10B72400032218460EF08DFC019B191D03AB032266
:10B7340018460EF086FC009B04AA03A91846FFF7DE
:10B744008FFF04A905AB032218460EF044FC034600
:10B75400002B0CBF01230023DBB2184607B05DF8B1
:10B7640004FB90DF704700BF1846A5DF704700BF99
:10B774001846B5DF704700BF184682B00190019BA0
:10B7840017221A80019B17225A80019B00221A71EA
:10B79400019B00225A71019B1B229A71019B1B225F
:10B7A400DA7100BF02B0704730B589B003460A466B
:10B7B400ADF806301346ADF80430BDF80430ADF8EA
:10B7C4001430BDF80430ADF816300023ADF818304D
:10B7D4000023ADF81A3003AB00221A609A8003AA42
:10B7E40005A9BDF806301846FFF7BBFF0790079B75
:10B7F400002B39D01E4A1F4BD31ADB081B0443F01D
:10B804000104BDF8065007980BF0EEFF03462A46E4
:10B81400194920460CF02BFDBDF80C30002B03D148
:10B82400BDF80E30002B0ED0114A124BD31ADB0890
:10B834001B0443F00100BDF80C301A46BDF80E306D
:10B844000E490CF014FDBDF81030002B0CD0084A42
:10B85400084BD31ADB081B0443F00103BDF8102086
:10B86400074918460CF0F2FC079B184609B030BD96
:10B874004CA2030004A20300CCAC030018AD0300E7
:10B8840058AD030010B586B001900091009B9B88D1
:10B89400ADF80E30BDF80E30DB00019A13440633C8
:10B8A4000593019B1A79059B9A71009BDB7B012B05
:10B8B40002D0022B05D009E0019B1A88059B1A804F
:10B8C40004E0019B5A88059B1A8000BF059B1A88D7
:10B8D400059B5B889A4226D9059B1A88BDF80E30D1
:10B8E40011461846FFF741FF0490049B002B03D137
:10B8F400059B01225A7116E0049B112B03D1059B71
:10B9040001221A710FE0114A114BD31ADB081B04F0
:10B9140043F0010404980BF067FF03461A460D49EF
:10B9240020460CF093FC059B9A79059BDB799A429F
:10B9340008D9059B9B799AB2BDF80E30114618467A
:10B94400FFF732FF00BF06B010BD00BF4CA20300DA
:10B9540004A20300B0AD030000B583B001900091D0
:10B96400009B9B88DB00019A134406331846FFF7BB
:10B9740004FF00BF03B05DF804FB00B587B001907D
:10B984000091009B9B88ADF81630009B5B89ADF855
:10B994001430BDF81630DB00019A134406330493C7
:10B9A400049B1B88BDF81420934228BF13469AB207
:10B9B400049B5A80049B5B88172B38BF17239AB2C9
:10B9C400049B5A80019B1B69002B15D0049B5B7957
:10B9D400002B11D040F67723ADF80830BDF81630AF
:10B9E400ADF80A30049B5B88ADF80C30019B1B69F1
:10B9F40002AA114601989847049B00225A71049B9D
:10BA040000221A7100BF07B05DF804FB10B588B0BE
:10BA140001900091009B9B88ADF81A30009BDB8855
:10BA2400ADF81830BDF81A30DB00019A1344063320
:10BA34000593BDF81830172B38BF1723ADF818300D
:10BA4400059B1B88BDF81820934228BF13469AB261
:10BA5400059B5A80059B00221A71059B1A88BDF824
:10BA64001A3011461846FFF784FE0790079B002BF7
:10BA74000FD0174A174BD31ADB081B0443F00104F9
:10BA840007980BF0B1FE03461A46134920460CF002
:10BA9400DDFB059B5B79002B16D1019B1B69002BF9
:10BAA40013D040F67723ADF80C30BDF81A30ADF85A
:10BAB4000E30059B5B88ADF81030019B1B6903AA0F
:10BAC40011460198984700E000BF08B010BD00BFC0
