:020000022000DC
:1060000000000120756302005D6302005F6302000F
:106010006163020063630200656302000000000028
:1060200000000000000000000000000067630200A4
:1060300069630200000000006B6302006D630200F0
:10604000798002006F630200998202006F63020090
:106050006F6302006F630200158102006F6302002C
:106060006F6302006F6302006F6302006F630200E0
:106070006F6302006F6302006F6302006F630200D0
:106080006F630200CD6E02006F6302006F63020057
:10609000696F02006F630200FD9402006F630200EB
:1060A0006F6302006F6302006F6302006F630200A0
:1060B0006F6302006F630200000000000000000038
:1060C0006F6302006F6302006F6302006F63020080
:1060D0006F6302006F6302006F6302000000000044
:1060E00000000000000000000000000000000000B0
:1060F00000000000000000000000000000000000A0
:10610000000000000000000000000000000000008F
:10611000000000000000000000000000000000007F
:10612000000000000000000000000000000000006F
:10613000000000000000000000000000000000005F
:10614000000000000000000000000000000000004F
:10615000000000000000000000000000000000003F
:10616000000000000000000000000000000000002F
:10617000000000000000000000000000000000001F
:10618000000000000000000000000000000000000F
:1061900000000000000000000000000000000000FF
:1061A00000000000000000000000000000000000EF
:1061B00000000000000000000000000000000000DF
:1061C00000000000000000000000000000000000CF
:1061D00000000000000000000000000000000000BF
:1061E00000000000000000000000000000000000AF
:1061F000000000000000000000000000000000009F
:10620000354936480A1A02D0072291438D4634494F
:1062100034480A1A06D00722914381F309880222E2
:1062200082F3148830483149314A00F044F831484B
:106230003149324A00F03FF831483249324A00F0E1
:106240003AF832483249334A00F035F83248334997
:10625000334A00F030F833483349344A00F02BF821
:1062600033483449344A00F026F83448344900228F
:1062700000F02CF833483449002200F027F8334866
:106280003349091A082902DB002202604160314AC1
:1062900090471F481F49884205D00268043003B464
:1062A000904703BCF7E700208646EC46002000211B
:1062B000294A9047FEE7884207D0521A05D0037852
:1062C00001300B700131013AF9D17047884202D098
:1062D00002700130FAE770470000012000E0002062
:1062E000000001200000012040A60200A8180020A4
:1062F00004190020D0630200D06302002E9A02002D
:1063000040A60200A8180020A8180020CC9A02007D
:10631000CC9A0200CC9A0200CC9A0200CC9A0200DD
:10632000CC9A0200CC9A0200CC9A020040A602004D
:106330009CA6020004190020041900200419002062
:10634000772100207821002078210020782100206A
:10635000784100209D630200158E0200FEE7FEE7F3
:10636000FEE7FEE7FEE7FEE7FEE7FEE7FEE7FEE705
:10637000704700BF1048804710484FF0070188431E
:1063800085460D4880470E48016841F47001016060
:10639000BFF34F8FBFF36F8FFFF732BF09480A4932
:1063A0000A4A884207D0521A05D0037801300B7090
:1063B0000131013AF9D170474D7B02000000012004
:1063C00088ED00E0CC9A0200A8180020A818002050
:1063D000F0B595B01C46164608460D4601F0CEFABB
:1063E0001A9B0D93CDE9086400242346082205A9D1
:1063F00028460A948DF82C400C9401F0DCFA079B97
:106400000293069B03939DF814308DF8114003F01E
:106410000302012A1DD1BDF81440059EC3F3C20337
:10642000C4F383148DF81030A20008230EA9284667
:1064300001F0C1FAC6F3952608AB0093224602ABE1
:106440000EA9304600F0D6FB284601F09BFA15B0A5
:10645000F0BD022AF8D1BDF81640C3F3C203A40967
:106460008DF810300827082C264628BF08263B4602
:1064700032460EA9284601F09EFAA41B08AB02AAD8
:1064800031460EA8374400F019FC002CEBD1DBE7B5
:10649000014B01221A707047451900207047000017
:1064A00070B50E4D06460FCD88B06C460FC495E80A
:1064B0000F00002E84E80F004FF00603084A094839
:1064C000009308BF0022694601F06EFD08B100F09C
:1064D0004FFC054B1E7008B070BD00BFCC9A020087
:1064E00091640200A81800200419002007B5044B8D
:1064F0000093044A4023FFF76BFF03B05DF804FBF1
:10650000096502000519002038B50D4B0D4D00201E
:1065100018700D4804782D5DD2B21C4665B1043068
:1065200002F0E4FA08B100F023FC084B1A7812B12B
:106530002378002BFBD038BD0C3002F0DBF8F1E7FC
:106540004519002030200020A81800200419002040
:1065500008B50848084A0378D35C3BB1043002F020
:1065600061FA0020BDE80840FFF79ABF0C3002F046
:106570005DF8F6E7A8180020302000200120FFF782
:106580008FBF000008B5FFF7F9FF0421034800F0B2
:106590009FFA034B01225A7108BD00BFBC9A02004A
:1065A000BC180020037813F0040216D003F0030394
:1065B000012B03D0022B09D0012070470A68008804
:1065C0000232C0F3831002440A60F5E70B68428888
:1065D000023303EB92130B60EEE7104670470000A6
:1065E0002DE9F04F87B000230446851C0DF107000C
:1065F0000F4690468DF8073000F0A8FE4548066823
:106600003E60D0E90132134401339B1B824600F205
:106610001C4600F5836900F21447AB421BD30022ED
:10662000B8F1000F70D0052363F3070264F38912F9
:10663000DAF80010DAF808309DF807000B40033351
:106640000D444AF82320CAF8005000F0A3FE0120B0
:1066500007B0BDE8F08F0121304600F0D1FE48467A
:1066600000F0E4FE384600F0E1FEDAF80400DAF863
:1066700008B0029000EA0B0003300AEB800002A988
:10668000FFF790FF029B50BB0BEA03020AEB82026A
:1066900003F1020CD2680392013303EA0B0B0AEBFD
:1066A0008B0B02F00302012ACDF808C0DBF80C10B6
:1066B00022D0022A16D08346384600F0BAFE10B126
:1066C000029BCAF804305946304600F099FEDAE9D8
:1066D00001231344DAF8002001339B1A9DE70BEAEB
:1066E0000300C9E7BDF80E309B0903334FEA114B95
:1066F0000CEB93030293DFE7BDF80C30C3F3831375
:106700004FEA114B6344F5E7062363F3070264F392
:106710009F528DE7181A00200B4B0C48FF2210B532
:106720009A600022C3F81824C3E90022C3F8142495
:1067300083F8202401F0DBF8044610B9044801F086
:1067400083F9204610BD00BF181A0020509A02009D
:106750000C9B020030B50A4C71B10A4A0A49121B5F
:10676000D20800239A4201D1002030BD31F82350D5
:10677000854202D00133F5E7034654F83300F4E7CD
:10678000649A0200BC9A0200A8180020094B013943
:1067900003EBC000032909D8DFE801F00A02040670
:1067A0000420704700797047407970470020704797
:1067B00002207047649A0200034BD3E90030C31AE9
:1067C00058425841704700BF181A00202DE9F04385
:1067D00087B0FFF7F1FF0646002840F0FB807E4DB2
:1067E000C5F81804BFF34F8F6868AC68029020406A
:1067F000033005EB800002A9FFF7D4FE029B18B11D
:10680000D5F81824002A5FD004EA0302991C01334A
:1068100005EB8202234005EB8303D268DB68049317
:1068200002F00303022B0392029162D1BDF80E30F5
:106830006A484FEA9318B8F1500FC14628BF4FF08D
:10684000500969F38F1309F10801ADF80E3001F01A
:1068500066F80746002800F0A88001F08FF803A929
:1068600000230822384601F09CF8029924EA010628
:106870000136B600B14535D95FFA89F97EB3F6B273
:10688000A9EB0609214003315FFA89F4B146544E61
:1068900005EB810108234A46384601F082F836B1FB
:1068A00009F1080322463146384601F07AF8029B86
:1068B00008F1030803EB98030293D5F81834002B72
:1068C0004BD1D5F810445BE02A689A4204D86A603C
:1068D000304607B0BDE8F08304EA030088E740498A
:1068E0003446D7E72140033108234A4605EB8101AE
:1068F000DAE7012B59D1BDF80C303848C3F38311C6
:10690000062928BF062161F3891302318900ADF8F9
:106910000C3001F004F80746002846D001F02EF8AC
:106920000023082203A9384601F03BF80026BDF8F1
:106930000C20C2F38312B300964203F10803BCD2C9
:1069400002994A1C21400331029205EB8101042285
:10695000384601F026F80136E9E7384601F012F82A
:10696000FFF72AFF80F00100C6B2B1E7E3685B7968
:1069700023B1236839461B6820469847E3681C68A2
:10698000002CF3D1384600F0FDFF0DF107008DF823
:10699000074000F0DBFCD5F818340BB9029B6B60A4
:1069A0009DF8070000F0F6FCDAE7D5F8104454B97A
:1069B0000C4B0D480D49C01AC008000440F00200FD
:1069C00000F06EF8CCE7236820469B689847E368A0
:1069D0001C68ECE700267BE7181A0020509A02009A
:1069E000241A0020649A02008C9A0200189B02006C
:1069F0002DE9F74F284C80460F46924601A9012207
:106A000018469B46D4F80890FFF7EAFD80B3019D35
:106A10000026A91C5E4506EB010233D100211F4868
:106A200000F0CEFC80F310006A1C02EA090204EBBD
:106A30008202000405EA0903033340EA1840D060EB
:106A400014F8232068F3C50204F8232034F8232027
:106A500066F3891224F8232054F8232067F39F2239
:106A600044F8232002F0F80242F0010204F8232047
:106A700094F820341BB1FFF7A9FE0028FBD103B026
:106A8000BDE8F08F09EA020204EB82025AF82630D0
:106A9000D3600136BEE700BF181A0020341E002064
:106AA00000231A46FFF7A4BF07B50123019201AAEC
:106AB000FFF79EFF03B05DF804FB07B5CDE90023A7
:106AC00002236A46FFF794FF03B05DF804FB000061
:106AD00030B50F49D1F81024002314463CB9C468DE
:106AE000237152B9C1F810042260184630BDE46821
:106AF00025799D4206D02468F0E7D26811682160AC
:106B00001060F2E701330A2BE7D14FF0FF33ECE7D7
:106B1000181A0020094A38B50123D2F8104482F827
:106B200020341D4604B938BDE3685D7123682046F2
:106B30005B689847E3681C68F4E700BF181A0020F8
:106B4000037A052B10B50C460FD0437A23B1084ABF
:106B50000849204600F0D0FC0749204600F0CCFC54
:106B60002046BDE8104000F0BCBC002AF8D0F3E796
:106B7000639B0200689B0200889B0200C38873B578
:106B800004460D4633B1144A00921449144A28466B
:106B900000F0B2FC217A05291CD0637A4BB1A088A1
:106BA000FFF7F4FD0F4B104953F82020284600F062
:106BB000A3FC227A0D4BA08853F822600021FFF736
:106BC000C9FD0B4903463246284602B0BDE8704075
:106BD00000F092BC02B070BD639B0200739B020088
:106BE0006B9B0200309B0200689B0200989B020096
:106BF0008B9B02002DE9F04385B01F460C9D0023BE
:106C000006460C46904695F80C902B73294638465C
:106C1000FFF7B4FFB8F1060F09D8DFE808F0041257
:106C2000181F283340003146284600F065FC00223A
:106C300029463846FFF784FF85F80C9005B0BDE87B
:106C4000F08322683146284600F056FCEFE7D4E98D
:106C500000233146284600F04FFCE8E7A368009384
:106C60003146D4E90023284600F046FCDFE7E3681C
:106C70000193A36800933146D4E90023284600F02D
:106C80003BFCD4E723690293E3680193A368009374
:106C90003146D4E90023284600F02EFCC7E763699B
:106CA000039323690293E3680193A3680093314639
:106CB000D4E90023284600F01FFCB8E708292DE995
:106CC000F84F80460E4617461C463AD8002593F8E2
:106CD0000C901D7319461046FFF750FFDFF884A093
:106CE000DFF884B0AE422ED918F805205946204668
:106CF00000F002FC0135082DF4D11849DFF86CB022
:106D0000204600F0F9FB4FF0000A564520D918F84C
:106D10000A507E2D03D8284602F0F8FD00B92E2532
:106D20002A465946204600F0E7FB0AF1010ABAF16B
:106D3000080FEAD1012221463846FFF701FF84F807
:106D40000C90BDE8F88F5146204600F0D5FBD1E706
:106D50000349204600F0D0FBE7E700BF5E9B02003E
:106D60005C9B02005A9B0200549B0200609B020045
:106D70001FB50021039001AA44F20100CDE90111E1
:106D800000F004F805B05DF804FB000010B572B621
:106D9000FFF7C0FEFFF71AFD0028FBD1104B114C86
:106DA0001149E41AE408240444F00100FFF778FED6
:106DB0000E4B1B68DB0700D500BE0D4944F00200F6
:106DC000FFF76EFEBFF34F8F0A490B4BCA6802F400
:106DD000E0621343CB60BFF34F8F00BFFDE700BFFE
:106DE000649A02008C9A0200F79B0200F0ED00E02A
:106DF000039C020000ED00E00400FA05094A537804
:106E000091780133DBB2994208BF0023117899428F
:106E10001FBF03705078182303FB002014BF0430F9
:106E200000207047D41E002073B5054600240DF1E4
:106E300007000E468DF8074000F088FA0DF10600B5
:106E4000FFF7DCFF90B10670094B9DF80620456006
:106E50005A709DF8070000F09DFA24B9054B4FF4D5
:106E60008012C3F80021204602B070BD0424F0E770
:106E7000D41E002000E100E0024B4FF43C6043F0E0
:106E800001031847109C020038B50C4B0C4C4FF412
:106E90000032C3F8802001254FF48033C4F8483312
:106EA000C4F808336560FFF7E7FF064BA5600024D0
:106EB0001C60FFF7E1FF044B1C7038BD00E100E0EF
:106EC00000100140F01F0020E11F0020F8B51F4B0B
:106ED0001F491B680025C1F84051C1F84451C1F851
:106EE0004851C1F84C51C1F80051C1F804514BB39D
:106EF000D1F8044517490968641A24F07F442F46E5
:106F00001A68A24209D8A41A15441A7CDE691AB17B
:106F10001F74D3E905209047AEB90F4A0F4B117883
:106F20001B788B4205D10133DBB2022B08BF002353
:106F3000137012780A4B43F822500A4B4FF4801218
:106F4000C3F80021F8BD3346DAE700BFF41F002084
:106F500000100140F01F0020ED1F0020EC1F00205A
:106F6000E41F002000E100E02DE9F04FA04AA14914
:106F700013780978A04D994285B03CD00133DBB23B
:106F8000022B08BF002313709C4912789C4B0F689A
:106F900053F822003B1823F07F4300220B602B683C
:106FA00016461446944613B942B12B6006E01968A0
:106FB00081420ED902B12B60091A19604FF0010805
:106FC0002B68DFF844A201930027BEB9DFF840B276
:106FD00066E0401A0C44D968C3F800C0D3F81CE03E
:106FE00031B13A1922F07F42C3E90121DE611E4628
:106FF00001227346D7E70026B046E1E73446F6693A
:107000007E4A63681268DFF80CC2A068991A21F002
:107010007F41614500F2A580014421600122227474
:107020002A680023C4E90133E361002A40F0A2800A
:107030002C60CAE75A1C9BF80210D2B291428BF81E
:10704000002004BF00228BF80020182202FB03B3AB
:107050001A799C68022A1CD0032A12D0012A1FD157
:10706000207CE8B9D3E90312A2605A69E2609A6908
:10707000644BA2611B78002B0CBF0B460346636078
:10708000BEE700222B681146002B66D142B12B606F
:1070900006E029680A468946002A59D1002323744C
:1070A0009BF800309BF801209A42C3D12B682FB97E
:1070B000019A9A4202D1B8F1000F43D0002B73D04D
:1070C000D3F800A0504D4D4BD5F804751C68DFF87F
:1070D00048813E1B98F8003026F07F4603369BB966
:1070E0004FF48033C5F84433C5F80433474B4FF4AD
:1070F00000324FF00109C3F880211A60C5F80090F2
:10710000FFF7BAFE88F80090B2452CBF5444A4198A
:1071100024F07F44C5F84045D5F80435DB1B23F047
:107120007F43E41B033324F07F44A3420AD9D5F8FC
:107130000435C5F84035FFF79FFE344B4FF400325D
:10714000C3F800212F4B00221A7005B0BDE8F08F64
:1071500094422CD09146D2699EE719740122DB69D2
:1071600092E7D31A23F07F43834234BFC31A00232C
:10717000236053E721681368994213D8591A1160A4
:10718000E26155E7091AD8691A4638B1034618680A
:107190008842F7D3401A1860184613462160E06110
:1071A000DC6112E71346F2E7FFF76EFECAE74C45D3
:1071B00011D1CB692B6073B9DFF840E00120CDE934
:1071C0000212CAF80800CEF800300E4B1870FFF714
:1071D00053FEDDE902121368D269C9F81C2012B10E
:1071E0001068034413602B68994218BF012755E7C4
:1071F000EC1F0020ED1F0020F41F0020F01F0020D6
:10720000E41F0020E01F00200010014000E100E02A
:10721000D41E0020FEFF7F00E11F002008B5FFF70D
:1072200033FE104B00200B2218809A700E4B186012
:107230000E4B18700E4B18700E4B4FF48012C0217D
:10724000C3F8802183F814131A6002F18042A2F57A
:107250006F22C2F8080583F81113074BD2F80425F2
:107260001A6008BDD41E0020F41F0020EC1F00206F
:10727000ED1F002000E100E0F01F0020074B9B788D
:107280004BB132B128B10368187C20B959745A61E6
:107290007047072070470820704700BFD41E0020A9
:1072A0002DE9F7431E4FBB7805460E469046A3B323
:1072B00098B304292FD943697BB3437C0024012B65
:1072C0000DF107000CBF8946A1468DF8074000F07C
:1072D0003DF80DF10600FFF791FDD0B101230370D9
:1072E000104B4560D3F80435C0E90498C0E9023674
:1072F0009DF806307B709DF8070000F04BF824B92C
:10730000094B4FF48012C3F80021204603B0BDE8BA
:10731000F0830424EFE70724F7E70824F5E700BF2C
:10732000D41E00200010014000E100E0064A9278DF
:107330003AB130B1426922B1002202740221FFF752
:1073400073BD0820704700BFD41E002070B5EFF356
:10735000108672B60C4A946801239CB993600B4B5B
:107360000B4DD3F8801029401160C3F88050D3F83A
:10737000841051604FF0FF32C3F88420047006B9C6
:1073800062B670BD0370FAE7F81F002000E100E06C
:10739000FC06FFBD084B9A6810B55AB150B9EFF31F
:1073A000108172B6054A1C6814605C68546098606D
:1073B00001B962B610BD00BFF81F002000E100E077
:1073C00050E8002F0B4640E8003C9CF0000FF7D13E
:1073D0001046704750E8003F43EA010240E8002CA5
:1073E0009CF0000FF6D11046704750E8002F02EADB
:1073F000010340E8003C9CF0000FF6D110467047B6
:1074000050E8003F03EB010240E8002C9CF0000F25
:10741000F6D11046704750E8003FA3EB010240E868
:10742000002C9CF0000FF6D1104670470121FFF7A9
:10743000D1BF0021FFF7D9BF10B590B1D0E901232A
:1074400001689B1ADBB20A60013BDBB2FF2B0268CA
:1074500002D10020107110BD11684C1C14600B701B
:10746000F2E70E20F7E737B5054600240DF10700D7
:107470008DF80740FFF76AFF2A686B681168994228
:107480000ED9481E106011F8014CEB68298A01FBE7
:107490000434AB6811791B1ADBB2994238BF1371FF
:1074A0009DF80700FFF776FF204603B030BD37B5E3
:1074B000054600230DF107000C468DF80730FFF755
:1074C00045FF2A681368591C1160E968641A298A03
:1074D000B4FBF1F41C709DF80700FFF75BFF03B0ED
:1074E00030BD826810B504462AB14369016800695D
:1074F00098470023A36010BD0EB403B5039921B1D2
:1075000004AB01AA019300F075F802B05DF804EB3A
:1075100003B070470A2938B504460D4602D10D2143
:10752000FFF7F8FFA3682268591CA160D554D4E97D
:1075300001329A4204D32046BDE83840FFF7D1BF5C
:1075400038BD00002DE9F84F9946DDE90A4317469A
:10755000824688460A460126BA420FD24E4538BFB7
:107560004E4613F0010B01D164B900240125B9F195
:10757000010F1AD909F1FF397D43F8E7B2FBF7F2A1
:107580000136E9E79B070ED5B9F1000F0CBF302596
:107590002025A642EAD2013C29465046FFF7BAFF11
:1075A000002CF6D1E1E72025F3E7B8FBF5F39F4285
:1075B000E2D9DFF83C90B8FBF5F3504619F8031018
:1075C00005FB1388FFF7A6FFB5FBF7F3BD4207D213
:1075D000BBF1000F02D00CB1A64203D3BDE8F88F77
:1075E0001D46E8E720215046013CFFF793FFF2E7F4
:1075F000169C02002DE9F74F0546174688460029DC
:1076000000F0318118F8011B49B92B7B002B00F0E9
:107610002A81284603B0BDE8F04FFFF762BF252955
:1076200040F0C080002698F800302D2B424608F12B
:10763000010823D0302B24D02B2B25D000242A2B3B
:1076400002F1010123D13B681A1D1B683A601C44FA
:107650000A4613782E2B26D101324FF0000A10462D
:1076600010F8011BA1F1300CBCF1090F1DD80A2341
:1076700003FB0A13A3F1300A0246F0E746F00106C5
:10768000D1E746F00206CEE746F00406CBE711F854
:10769000013CA3F130000928DBD80A2202FB0434A4
:1076A000303C0A46CBE74FF0000A12F8011B01F00C
:1076B000FB0068289046F8D069290ED04AD858298E
:1076C00064D006D825296DD098F80030002B99D1C8
:1076D0009BE7632962D06429F6D13A68D2F800901A
:1076E000111D89EAE9723960A2EBE9724FF0010BD2
:1076F000092A5BDCD34538BFD3462CB1B9F1000F62
:1077000001DB710700D5013CB20702D5BAF1000FC9
:1077100004D0F30702D4002C4ED10024B9F1000F9D
:1077200052DAC9F100092D212846FFF7F3FE06F0D1
:107730000302022A05D1BAF1000F02D1002C47D171
:107740000024CDE9004653460A2249462846FFF761
:10775000F9FEB9E773294CD014D87029B4D13B682D
:107760001A1D3A60302128461C68FFF7D3FE7821A5
:107770002846FFF7CFFE00220823CDE9003221463C
:107780001022E3E775292BD078299DD139680A1D8D
:107790003A60CDE900465346102228E03B681A1DA6
:1077A00019783A602846FFF7B5FE8DE70A230BF1FA
:1077B000010BB2FBF3F29BE7A345AFD22021284691
:1077C000013CFFF7A7FEA6E77007B0D52B21ABE77A
:1077D000A345B6D230212846013CFFF79BFEADE71A
:1077E0003968CDE900460A1D3A6053460A22096805
:1077F000ACE73B681A1D3A60F107D3F8009020D43B
:10780000B9F1000F25D0484602F0E1F80646B4422F
:1078100000D9C4B909F1FF3920E028460136FFF745
:1078200079FE19F806100029F7D1A642BFF44CAF33
:10783000002C3FF449AF20212846013CFFF76AFEA7
:10784000F3E70026EDE720212846013CFFF762FE22
:10785000DDE74E46DBE72846FFF75CFE19F8011F1F
:107860000029F8D130E703B0BDE8F08F2DE9F047EB
:10787000B0F806904479D2F800A09DF8208009FB6A
:1078800004F4043C06460AEB0300A0420F4688BFFE
:10789000A4EB030A191DC2F800A0B1FBF9F509FB1E
:1078A00015114DB9A9EB0104544528BF5446BAF14E
:1078B000000F04D1BDE8F0873668013DF1E70431DF
:1078C0007B1970182246B8F1000F0ED001461846F9
:1078D000AAEB040A02F01FF8D145254436684C464D
:1078E0004FF0000128BF5446E1E71946F0E7FFF7E3
:1078F000A3BDF8B546790146721E054600239342A2
:107900002D6803D30024A64202D8F8BD0133F6E760
:107910000F682846FFF7CBFD01343946F3E72DE920
:10792000F843068ACD1C0746FFF79DFD043E35440B
:107930000446B5FBF6F5F0B14FF48073EDB28380E9
:10794000C680013D076081464FF00008A84512D26D
:107950003846FFF788FD064648B163790133637105
:1079600008F10108C9F8000007608146EEE72046EB
:10797000FFF7BFFF34462046BDE8F88301210430FD
:10798000FFF73EBD10B5012104460430FFF743FD6B
:1079900010F0FF0F04D12046BDE81040FFF7A9BF4B
:1079A00010BD1FB503920022009203AAFFF75EFFED
:1079B00005B05DF804FB1FB503920122009203AAF3
:1079C000FFF754FF05B05DF804FB41DF704700008E
:1079D000064B10B500241C70054B1C60BFF35F8F75
:1079E0000449054800F039F8204610BD0C2000205D
:1079F00010200020289C02000420002007B500234E
:107A00000DF107008DF80730FFF7A0FCF1EE103AFA
:107A100023F09F03E1EE103ABFF35F8F094B402242
:107A2000C3F884219DF80700FFF7B4FC01F04CFD7A
:107A300020B1FFF7CAFF03B05DF804FB20BF40BFD1
:107A400020BFF8E700E100E0836800225A609A60F6
:107A5000C3E90422DA601A6070470B684A68436021
:107A6000934208BF0023016008BF4360704743682A
:107A700043B10268916852680B449342436004BF6B
:107A8000002343607047000010B50D49A1F59472C2
:107A9000914201D800200FE08B1ADB1003EBD37367
:107AA0005B1002EBC30452F83330834205D802D294
:107AB00004F10802ECE7606810BD2146E8E700BF6A
:107AC000789D020008B5FFF7DFFF024B002808BFD2
:107AD000184608BD3D9C02000C4B1B78062B10D1AC
:107AE0000B4B1B681A070CD10A4B186800F0F00307
:107AF000302B08D000F0E000A0F14003584258417C
:107B00007047002070470120704700BFE00F00F071
:107B1000E40F00F0E80F00F0094B1B78062B0CD1A6
:107B2000084B1B681A0708D1074B186800F0F000D3
:107B3000A0F130035842584170470020704700BF01
:107B4000E00F00F0E40F00F0E80F00F008B5FFF7D9
:107B5000C3FF28B17D4B7E4A1B68C3F30423136027
:107B6000FFF7DAFF10B17B4B7B4A1A60FFF7B4FFD7
:107B700028B17A4B7A4A1B68C3F342331360FFF78C
:107B8000CBFF20B1774AD36823F08073D360FFF72F
:107B9000A3FF40B14FF080430022C3F80C21C3F88B
:107BA0001021C3F83825FFF7B7FF10B16E4B032241
:107BB0001A60FFF7B1FF40B16C4B05221A60012239
:107BC0009A6700229A603F225A60694B1B78062B05
:107BD00050D1684B1B6819074CD1674B1B6803F0E9
:107BE000F003502B46D14FF08052644BD2F804146E
:107BF000C3F82015D2F80814C3F82415D2F80C14D1
:107C0000C3F82815D2F81014C3F82C15D2F81414A0
:107C1000C3F83015D2F81814C3F83415D2F81C1470
:107C2000C3F84015D2F82014C3F84415D2F8241430
:107C3000C3F84815D2F82814C3F84C15D2F82C1400
:107C4000C3F85015D2F83014C3F85415D2F83414D0
:107C5000C3F86015D2F83814C3F86415D2F83C1490
:107C6000C3F86815D2F84014C3F86C15D2F8442450
:107C7000C3F87025FFF730FF28B1414B414A1B681C
:107C800003F04F031360FFF727FF48B14FF0804325
:107C9000D3F80024D20744BF6FF00102C3F80024D8
:107CA000394B1B68062B08D1384B1B68062B01BFCC
:107CB000374A136843F480631360364AD2F8883039
:107CC00043F47003C2F88830BFF34F8FBFF36F8F58
:107CD0004FF01023D3F80022002A03DBD3F804323C
:107CE000002B2FDA2C4B0122C3F80425D3F80024F3
:107CF000002AFBD04FF010221521C2F80012D3F851
:107D00000024002AFBD04FF010231522C3F80422D0
:107D1000214B1A46D3F800140029FBD00021C3F8E8
:107D20000415D2F80034002BFBD0BFF34F8F194954
:107D30001A4BCA6802F4E0621343CB60BFF34F8F63
:107D400000BFFDE7164B174A1A6008BD2403001058
:107D50004035014074C007400DF0ADBA4402001038
:107D60003C050040F0ED00E0A0050040105600404A
:107D7000E00F00F0E40F00F0E80F00F000C000405A
:107D800058020010E40E00403001001034010010D1
:107D90003C17004000ED00E000E001400400FA055F
:107DA000C41800200090D0034FF0A043D3F804057E
:107DB0006FEA506000F0010070474FF0A0434FF0B1
:107DC0000072C3F80C2570474FF0A0434FF00072CB
:107DD000C3F8082570474FF0A0434FF00072C3F876
:107DE000082570474FF0A0434FF00072C3F80C25F0
:107DF00070474FF0A042D2F80435D94301F000712A
:107E000003F00073C2F80815C2F80C357047C307B9
:107E100008D54FF0A0430322C3F864274FF0007247
:107E2000C3F808257047000038B5074C051E04F15B
:107E3000080318BF1C4623682BB11A6822605B68D0
:107E400028469847F7E738BD1C20002020B9054B8D
:107E500001225A70FFF7E8BF012802D1014A907051
:107E6000F8E770471420002020B9034B01225A7014
:107E7000FFF7DABF704700BF1420002038B50B4C65
:107E8000237883B90A486360A3602361E36000F04C
:107E9000C9F8054601F018FB08B900F0CFF8012336
:107EA0002370284638BD8525FBE700BF142000203D
:107EB0004D7E020037B50B4C00230DF107008DF805
:107EC0000730FFF743FAE368013BE360E56815B963
:107ED00000F0C6F8A5709DF80700FFF75BFA03B045
:107EE00030BD00BF14200020012813B509D018B1FF
:107EF00003281CD002B010BD0F4B0122C3F8802014
:107F0000F8E70E4C00230DF107008DF80730FFF75E
:107F10001DFA23780BB9FFF7B1FFE3689DF807005E
:107F20000133E3600123A370FFF734FAE2E700F0C6
:107F300085F8FFF7BFFFDDE700E100E01420002037
:107F40001FB503788DF800304368019383688DF87E
:107F50000830C3680393054A054B684653F821303F
:107F600052F82110984705B05DF804FB2820002046
:107F70002C2000201FB503788DF800304368019352
:107F800083688DF80830C3680393054A054B68463B
:107F900053F8213052F82110984705B05DF804FBE2
:107FA000282000202C200020F0B5194B067891F8ED
:107FB0001DE043F82620174B94460A6943F8262013
:107FC000154B03F806E00C4607460FCC89B06D460A
:107FD0000FC594E80F0085E80F000496BEF1000F6E
:107FE0000AD0BCF1000F0D4A694608BF0022381DB7
:107FF00000F056FC09B0F0BDBCF1000F084A69461C
:1080000008BF002207F10C0000F056FAF2E700BFAB
:108010002C2000202820002030200020417F02005A
:10802000757F0200044A137923B901211060918001
:10803000184670478520704734200020074B1A6887
:10804000D2075FBFC02283F8002301221A604FF0DD
:1080500080430122C3F81825704700BF00E100E00B
:10806000044B01221A604FF08042D2F81834DB032F
:10807000FBD470470C000040154B07B51A687AB165
:1080800000221A601B680093009B4FF0804301227E
:10809000C3F808230F4B587910B95A711B689847D9
:1080A0000D4B1A6882B100221A601B680193019B74
:1080B0004FF080430222C3F80823064B1B680120BF
:1080C00003B05DF804EB184703B05DF804FB00BF94
:1080D00000010040342000200401004000F18040F5
:1080E00000F5C040002382B0036003680193019B48
:1080F00002B07047800000F1A040D0F8003723F4B0
:108100004033C0F80037D0F8003743EA0141C0F8E7
:10811000001770472DE9F04F85B000245A4D0194A7
:108120004FF48072012102F1804303F5C04390B205
:108130001B68012B06D1D5F804330B4202D0FFF7A0
:10814000CDFF0C430432B2F5907F4FEA4101EAD1F2
:108150004E4B1B68012B0AD14FF4BE70FFF7BEFFD8
:108160004FF0A04344F00044D3F81035019314F0CD
:10817000FF0F1AD0464F00250126344210D0AB0025
:1081800003F1804303F5C043D3F81005D3F810156D
:1081900057F8253023B1C1F30141C0F304209847BB
:1081A0000135082D4FEA4606E7D1002C64DA00229B
:1081B0004FF0FF33CDE90223354D01274FF0000A80
:1081C000344E54464FF0A04816F9012B531C46D0AC
:1081D000D2B222F0C0094FEAD90104A8084402F043
:1081E000070310F804CC07FA03F31CEA030F36D098
:1081F00005EB090C92099CF930C055F82CB0BBF185
:10820000000F0AD1032A2AD10DF1080E1EF801C071
:108210004CEA030C0EF801C001E0032AF4D009F582
:10822000E07110F80C0C58F821101842C1F301410C
:1082300005D0022913D1032A0BD1114604E00329EA
:108240000DD1032A05D102214846FFF753FF01341F
:10825000E4B2BBF1000F02D011464846D8470AF1FC
:10826000010ABAF1040FAFD134B14FF0A043019A23
:10827000D3F81035934202D105B0BDE8F08F0193D9
:10828000029B03939AE700BF006000407C610040BE
:108290003C2000208C200020014B1B68184700BFA9
:1082A000982000200E4B984237B50D4602D0002092
:1082B00003B030BD00230DF107008DF80730FFF744
:1082C00045F8084B1C7914B901221D601A719DF8FC
:1082D0000700FFF75FF8002CE9D01120E8E700BFA6
:1082E0000020004098200020034B984201BF034B20
:1082F00000221A601A717047002000409820002068
:108300000023435082B043580193019B02B0704751
:108310000A4610B54FF48E71FFF7F2FF136A9168A9
:10832000C95C136A01331362C0F81C1510BD8B6958
:108330000A4610B54FF4847123B9FFF7E1FFD0F876
:10834000183510BDFFF7DCFF536AD168D0F8180567
:10835000C854536A01335362F3E700001FB5012389
:108360008DF80030044BCDE90110D3E900126846C6
:10837000904705B05DF804FBA020002030B54C4AC2
:10838000D2F8043313F4007F85B015464FD0D2F8ED
:108390002431002B4BD04FF492711046FFF7B0FF01
:1083A0004FF40173C2F80833424B93F8291009B90E
:1083B000012151603E4902228DF80020D1F880242D
:1083C000C1F8802403929A690292DA68019200222D
:1083D000C3E906226846D3E9001290473448D0F832
:1083E0001C315BB133490A6A4B699A420A464BD247
:1083F00091F82830002B47D1FFF78AFF2C4AD2F89A
:10840000443193B14FF4A2711046FFF779FF294B25
:1084100093F8291009B1012111609A692AB100224B
:108420009A61586AD968FFF799FF05B030BDD5F851
:1084300004335B07D2D5D5F80831002BCED01D4CC4
:108440001B482146FFF773FF636AA2699A422346DD
:10845000C4D1E269E1684AB12369E3600023606A3C
:10846000A261E3616362FFF779FFB7E794F829201F
:108470000AB901226A600E4A4FF40170C2F808037B
:1084800000229A61586AEEE74FF48E710848FFF7B0
:1084900037FF51690029B1D00023029191688DF80E
:1084A0000030019153616846D2E900139847A5E76F
:1084B00000200040A02000202DE9F843564F047909
:1084C00091462C2202FB0472064692F82A200D46A1
:1084D000002A40F09A8051490068FFF7E3FE804689
:1084E000002840F0958029683368481C0BD04FF075
:1084F000A04001228A40C0F8082501F5E0724FF043
:10850000030C40F822C06868421C1FBF00F5E072EF
:108510004FF0A04C4FF0000E4CF822E0AA6995F8FD
:1085200014C0C3F824256A7DBCF1010F4CEA020295
:10853000C3F86C25C3F81405C3F80C151DD1AA683F
:10854000511C1FBF02F5E0714FF0A0404FF0000C2E
:1085500040F821C0E968481C0BD04FF0A04C012026
:108560008840CCF8080501F5E0704FF0030E4CF898
:1085700020E0C3F80815C3F810252C236343FA182C
:10858000C2F804902A69FA50B9F1000F2AD04FF4CA
:108590008E7130682D7FFFF7B3FE30684FF4A27103
:1085A000FFF7AEFE32681E4BC2F80433120B51B215
:1085B0000029A8BF01F160404FEA4513BABF19482E
:1085C00002F00F0500F56140DBB2B4BF435580F8FF
:1085D000003302F01F02012303FA02F24909124B91
:1085E00043F8212033680422C3F800252C2303FB21
:1085F00004730022C3E9062283F829205A6101226C
:1086000083F82A204046BDE8F8834FF00808F9E7D0
:108610004FF01108F6E700BFA02000207D83020084
:108620008000020014ED00E000E100E0F8B50479FC
:1086300000682D4D0023C0F800352C2303FB0453A4
:108640005B6873B1294BC0F80833020B53B20121A8
:108650005B0902F01F0201FA02F22033244941F8BB
:108660002320D0F80C65D0F81415D0F80835D0F8D0
:1086700010254FF0FF37BE42C0F8147518BF06F53D
:10868000E076C0F80C75C0F80875C0F810751EBF0C
:108690004FF0A0474FF0020C47F826C04E1C1FBFFA
:1086A0004FF0A04601F5E071022746F82170511CF9
:1086B0001FBF4FF0A04102F5E072022641F8226090
:1086C0005A1C1FBF03F5E0734FF0A042022142F88D
:1086D0002310FFF709FE2C2303FB0454002384F826
:1086E0002A306360F8BD00BFA02000208402020091
:1086F00000E100E02DE9F843224F06794FF02C0904
:1087000009FB067480466569002D37D16261A1605E
:1087100025624FF48E71006884F82850FFF7F0FD51
:10872000D8F80000012383602146FFF7F1FD63685C
:10873000A1462BBBD8F80050226A63699A4212D333
:10874000D8F80030D3F81C21002AFBD00122DA60CF
:1087500000202C2303FB067600237361BDE8F88319
:1087600094F8283043B9D5F81C31002BF8D049468D
:108770002846FFF7CDFDDFE70F20EAE71120EDE700
:108780002846EBE7A02000200023435082B0435846
:108790000193019B02B070471FB501238DF8003093
:1087A000044BCDE90110D3E900126846904705B0AB
:1087B0005DF804FBCC2000207FB5374AD2F8246155
:1087C000002E48D010464FF49271FFF7DDFF0223D0
:1087D0008DF80030D2F88034C2F880340393D2F898
:1087E0003C3502932D4BDA6801920022C3E9062240
:1087F0006846D3E900129047274AD2F844317BB14A
:108800004FF4A2711046FFF7BFFF244B996939B1AD
:108810000021C3E90611D968D2F83C05FFF7BCFF77
:108820001D4AD2F82031A3B14FF490711046FFF7E2
:10883000ABFF1A4B596961B1D2F84C150291002275
:1088400099688DF8002001915A616846D3E90012B9
:10885000904704B070BDD2F81031002BCCD04FF44B
:1088600088711046FFF790FF0C4BD2F83C059969D0
:108870008842C1D1DC69D96864B1D2F8005225F0D0
:108880002005C2F800521A699C61DA60DE61FFF7C8
:1088900083FFB1E79C61FAE700200040CC20002074
:1088A0002DE9F8435A4F06799146242202FB0672BD
:1088B000044692F820200D46002A40F0A280554937
:1088C0000068FFF7EFFC8046002840F09D80296893
:1088D0002368481C0BD04FF0A04001228A40C0F80A
:1088E000082501F5E0724FF0030C40F822C06868DB
:1088F000421C1FBF00F5E0724FF0A04C4FF0000E7D
:108900004CF822E0AA6995F814C0C3F824256A7DC2
:10891000BCF1010F4CEA0202C3F86C25C3F80C1538
:10892000C3F814051DD1AA68511C1FBF02F5E071E0
:108930004FF0A0404FF0000C40F821C0E968481CFF
:108940000BD04FF0A04C01208840CCF8080501F571
:10895000E0704FF0030E4CF820E0C3F80815C3F8A0
:10896000102524237343FA18C2F804902A69FA5098
:10897000B9F1000F34D04FF4887120682D7FFFF7D4
:1089800003FF4FF490712068FFF7FEFE4FF49271E1
:108990002068FFF7F9FE20684FF4A271FFF7F4FE9C
:1089A00022681D4BC2F80433120B51B20029A8BF34
:1089B00001F160404FEA4513BABF184802F00F05B5
:1089C00000F56140DBB2B4BF435580F8003302F0DC
:1089D0001F02012303FA02F24909114B43F8212037
:1089E00023680822C3F80025242303FB0673002212
:1089F000C3E906225A61012283F820204046BDE8DF
:108A0000F8834FF00808F9E74FF01108F6E700BFC8
:108A1000CC200020B98702001003020014ED00E012
:108A200000E100E0F8B5047900682D4D0023C0F89E
:108A30000035242303FB04535B6873B1294BC0F852
:108A40000833020B53B201215B0902F01F0201FA45
:108A500002F22033244941F82320D0F80C65D0F8E5
:108A60001415D0F80835D0F810254FF0FF37BE4266
:108A7000C0F80C7518BF06F5E076C0F81475C0F89C
:108A80000875C0F810751EBF4FF0A0474FF0020CDC
:108A900047F826C04E1C1FBF4FF0A04601F5E071FD
:108AA000022746F82170511C1FBF4FF0A04102F56C
:108AB000E072022641F822605A1C1FBF03F5E073E2
:108AC0004FF0A042022142F82310FFF70DFC2423AF
:108AD00003FB0454002384F820306360F8BD00BF1A
:108AE000CC2000201003020000E100E001F0604310
:108AF000B3F1005F2DE9F041074632D11C4B0679F6
:108B0000242505FB063598466C6964BB6A61A9603B
:108B100000684FF49071FFF737FE4FF4AC7138687E
:108B2000FFF732FE3B686A69A968C3F84415C3F8C9
:108B3000482501229A606A68BAB9D3F82011D3F89F
:108B4000582149B9002AF8D00F20242303FB0686B8
:108B500000237361BDE8F081002A14BF0F200020BC
:108B6000F3E71020F6E71120F4E72046F2E700BF14
:108B7000CC2000200220FFF73CB90000034B1B78FB
:108B800013B10020FFF720B9FFF725B9F02000202E
:108B9000F8B57B4C237805461BB100232370FFF703
:108BA000EDFF172D00F28880DFE805F00C17174362
:108BB00054657680888D888D959A9A9A9A9AC4C9B8
:108BC000D1D9E4E4FFF7DAFF6E48FEF7AFFB6E4B56
:108BD000002204461A702046F8BD0020FFF7E4F892
:108BE000F8B10020FFF7F0F8022D0CBF4FF4E1615F
:108BF0004FF47A61644B1D704FF400404FF4FA74E7
:108C00000025E0FB01454FF47A72002320462946F7
:108C100000F0BCFD002201465A48BDE8F840FEF7CE
:108C20003FBBFFF7CAF8022D0CBFC8214FF4C87133
:108C3000E0E70020FFF7B8F840B10020FFF7C4F8E4
:108C40004FF44871504B03221A70D5E7FFF7B5F87F
:108C5000C821F7E70020FFF7A7F838B10020FFF799
:108C6000B3F84FF47A61484B0422EDE7FFF7A5F81B
:108C70004FF4C871F7E70020FFF796F848B10020DD
:108C8000FFF7A2F8404B05221A7041F69A11002214
:108C9000C2E7FFF792F8F5E70020FFF7AAF83A4B92
:108CA00006221A70002240F6CD41B5E70020FFF7FA
:108CB00084F8354B07221A7000248CE701202070BD
:108CC000FFF797F8EEE701202070FFF792F80022F7
:108CD0004FF48041A0E7FFF785F82B4B0C22EAE721
:108CE0002A482B4EFEF722FBD5F1110504461CD075
:108CF000D8B9012D13D0C8235D434FF400474FF47A
:108D0000FA7000214FF47A720023C7FB050100F0CE
:108D10003DFD224601461D48FEF7C2FA04460220E8
:108D2000FFF74BF80123337055E70220FFF74CF8AB
:108D30000023F8E7FFF722FF134B1222BBE7FFF7F0
:108D40001DFF0020FFF739F80F4B1322B3E7FFF7A1
:108D500015FF0120FFF731F80B4B1422ABE7FFF7AB
:108D60000DFF0020FFF729F80120FFF726F8064B3A
:108D70001522A0E7FFF736F8034B1D709CE700BFF4
:108D8000382100201421002039210020F420002067
:108D9000F0200020044B1B68DB0703D5034B187839
:108DA000FFF7F6BE704700BF3421002039210020B4
:108DB000044B1B6813F0010301D0FFF7E9BE18460E
:108DC000704700BF3421002008B50B4B186010F02D
:108DD00001000FD00120FFF71AF8084A08480021C7
:108DE000FEF74CFA30B9074A07480121BDE80840B0
:108DF000FEF744BA08BD00BF34210020958D020063
:108E000058A10200758B020054A1020072DF704766
:108E100073DF704700B54FF4004193B00020FDF7B9
:108E20007BFC08B1FDF7A4FFFDF7ACFBFEF7F6F9FC
:108E300008B1FDF79DFF00210120FFF7C5FF08B134
:108E4000FDF796FFFEF7C4FD08B1FDF791FF00F0B6
:108E5000FDFA08B1FDF78CFF002303A9012003935D
:108E600000F07CFB08B1FDF783FF03A800F024FCB1
:108E700008B1FDF77DFF5923284CADF80030284B91
:108E80000293002517233C22002103A8ADF80430EB
:108E900000F06AFD04231822294620468DF80F3081
:108EA0008DF80C50CDF830D000F05EFD1D4A6560A5
:108EB0000523237052F8041B2575A02303A8A36083
:108EC000A58100F0ADF808B1FDF752FF134A15492E
:108ED0001548FFF79BFF08B1FDF74AFF134B1448F5
:108EE0001449C01AC008000440F00300FDF7D8FD83
:108EF0000D4B01211878FFF78BFF08B1FDF738FF04
:108F00000220FFF755FF08B1FDF732FFFDF75EFCC9
:108F10000028FBD1FEF772FDF8E700BF3C210020DE
:108F2000D9180020C8180020D8180020649A020020
:108F30008C9A02005CA102006DDF704779DF7047F8
:108F40007DDF704764DF70472DE9F74F0C9CBDF85B
:108F500034B02788002580468A4691462E46B8F8C8
:108F60000020B2420BDC35B12288013AD21B92B20A
:108F7000FF2A39D8DA55002003B0BDE8F08FD8F8C1
:108F8000042052F82600019000220DF1030101A8EF
:108F9000FFF7D8FF0028EFD19DF803204A4521D1E3
:108FA0002288002D14BF0020022002EB0901014499
:108FB000594519DC3DB9013292B2228003F802A072
:108FC00022880132228022880DF103011A4401A86F
:108FD000FFF7B8FF0028CFD121889DF803200A446D
:108FE000228001250136BAE70C20C5E72DE9F341BF
:108FF000089CBDF824501746CDE9004502220646DC
:10900000FFF7A2FF48B9102239463046CDE908459E
:1090100002B0BDE8F041FFF797BF02B0BDE8F081B4
:109020002DE9F04F00231688138090F82D3085B07D
:1090300007460D46144653B3082E01D80C2028E1EC
:1090400002A8FFF779FF002840F023811388082247
:10905000CA54238801339BB21B222380CA54208820
:10906000013080B2208006220DF10901284400F071
:1090700052FC23889DF8082006339BB212F0FE02B2
:1090800018BF01222380EA54238801332380BB7850
:10909000FBB123880433B342D0D802A8FFF74EFFB8
:1090A000002840F0F68023880322EA542388013305
:1090B0009BB219222380EA542388BDF8082001338B
:1090C0009BB2E9182380EA54120A4A7023880233BB
:1090D0002380FA789AB12388D91CB142AED80221F4
:1090E000E954238801339BB201212380E95423886A
:1090F0000B449BB22380EA5423880B4423807A6874
:10910000AAB12388D91CB14298D8022192F9002033
:10911000E954238801339BB20A212380E954238830
:1091200001339BB22380EA542388013323803B8997
:10913000002B40F0A2803B8A5BB1CDE900462B4674
:109140000722032107F11000FFF750FF002840F02D
:10915000A0803B8B5BB1CDE900462B461522142144
:1091600007F11800FFF742FF002840F092803A6AAA
:10917000002A40F09180D7F82480B8F1000F30D059
:10918000B8F804302188981C8A1C0244B2423FF689
:1091900055AFFE283FF652AF03336B54238801339B
:1091A0009BB2FF222380EA54238801339BB22380A1
:1091B000B8F80020EA54E918120A4A7020880230F0
:1091C00080B22080B8F804205AB1D8F808100029DD
:1091D0006CD0284400F09FFB2388B8F80420134487
:1091E000238097F82C30002B40F09B8038780028A3
:1091F0004FD03B88012B59D0228802F1020CB44594
:109200003FF61CAF012805D17B78023313449E4200
:10921000FFF414AF023EB61AB6B202A905EB0C0079
:10922000ADF80860FFF78CFE98BB3978BDF80820D0
:10923000022900F0BB807B78934202D3B24240F215
:10924000B380012940F0B4809BB29E42C0F0B08050
:10925000ADF808300821BDF80830FE2B3FF6EEAE21
:1092600022880133AB542288013292B22280A95461
:1092700022881344238000200BE0CDE900462B46D2
:109280000622022107F10800FFF7B0FE00283FF494
:1092900052AF05B0BDE8F08FB4F800C00CF1060382
:1092A000B3423FF6CBAE1188052901D80720F0E77D
:1092B0006FF4486E01EB0E039BB24FF27D3E734597
:1092C000F4D95388052BF1D96FF44860181880B28F
:1092D0007045EBD94FF6FF70814203D0834201D035
:1092E0009942E3D8052305F80C30238801339BB25B
:1092F00012212380E954238801339BB223801188F3
:10930000E954E818090A4170238802339BB223808C
:109310005288EA54E918120A4A70238802332380DB
:1093200029E7BB6A002BC1D04FF000094FF00C0AAF
:109330004FF0160B97F82C305FFA89F293427FF6C4
:1093400055AFB96A0AFB02F201EB0208B8F8043023
:10935000981CFE283FF672AE208803332B542388D6
:1093600001339BB2238005F803B0238801339BB2FD
:1093700023808A5AEA54E918120A4A702088023077
:1093800080B22080B8F804205AB1D8F8081000291B
:109390008CD0284400F0BFFA2388B8F80420134486
:1093A000238009F10109C5E7092154E7B242FBD93D
:1093B000ADF808604EE710DF7047000013B50446B3
:1093C00009496846FEF749FB019808B902B010BD8B
:1093D000D0E900312046984718B16846FEF747FBB0
:1093E000F2E71120F2E700BF78A1020013B50446AE
:1093F00007496846FEF731FB019B0BB902B010BD6F
:109400002046D3E9002190476846FEF730FBF3E79A
:1094100090A102000B4991F816335A09EC2313412D
:10942000DB0706D5084B9A683AB94FF480030B6006
:10943000704742F20200FDF79BBC1A6842F48002BA
:109440001A60704700E100E0F81F0020F7B5194FDF
:109450003C7864BB184E012520463570FFF7AEFFFF
:10946000112821D02046FFF7C1FF144B8DF803408F
:10947000186801900DF10300FDF768FF104901A87D
:10948000FFF799FF0446B0FA80F0400938709DF864
:109490000300FDF77FFF3CB90A4B34701C70FFF7E7
:1094A000B9FF2846FFF7A2FF204603B0F0BD08240D
:1094B000FAE700BF742100207321002074A102008C
:1094C0008D6D020075210020014B1878704700BF98
:1094D0007421002007B508496846FEF7BEFA019BD3
:1094E00013B903B05DF804FBD3E900209047684648
:1094F000FEF7BDFAF3E700BF84A10200FFF7EABF61
:1095000060DF704769DF704761DF704730B5114B2E
:109510001B7891B0E3B1104D34240DF1020103A882
:10952000ADF80240FFF7F0FF70B9294601A8FEF739
:1095300094FA029B002BF0D003A8D3E900219047B6
:1095400001A8FEF794FAF4E7052801D0FDF710FC16
:1095500011B030BD76210020D0A3020030B5054601
:1095600085B00C46002900F095804B4B0B600C2217
:10957000002101A800F0F8F901238DF806302268D7
:109580008DF80450062301A92020ADF80830FFF71C
:10959000B9FF60B1FEF796FA404A414B41499B1A28
:1095A000DB081B04024643F00100FDF77DFA0C22A4
:1095B000002101A800F0D8F9002322688DF80530B9
:1095C00001A94020ADF80630FFF79CFF60B1FEF71F
:1095D00079FA324A324B34499B1ADB081B040246A3
:1095E00043F00100FDF760FA0C22002101A800F011
:1095F000BBF9002322688DF8043001A90120FFF790
:1096000081FF60B1FEF75EFA244A254B27499B1A79
:10961000DB081B04024643F00100FDF745FA0C226B
:10962000002101A800F0A0F9F8232268019301A904
:10963000A120FFF767FF60B1FEF744FA174A184B05
:109640001B499B1ADB081B04024643F00100FDF78F
:109650002BFA0C22002101A800F086F99DF80430B5
:1096600022686FF3000301A9A0208DF80430FFF7F2
:1096700049FF68B1FEF726FA084A094B0D499B1AC3
:10968000DB081B04024643F00100FDF70DFA002041
:1096900005B030BD0E20FBE7A8180020649A020038
:1096A000A49A0200A4A10200EAA1020036A20200CC
:1096B00082A20200D3A20200F8B506460768FFF7AF
:1096C0001FFF3368BB4205461DD9194B194C1A4977
:1096D000E41AE408240444F002042046FDF7E0F90B
:1096E000336816493A462046FDF7E7F94FF08053B4
:1096F0003268D3F80C3112499B0203F100539A1AD5
:109700002046FDF7D1F925B90E4B01221A702846E3
:10971000F8BD2846FEF7D6F9054A064B0A499B1ABA
:10972000DB081B04024643F00100FDF7BDF9EEE73C
:10973000649A0200A49A020026A3020055A3020024
:1097400086A3020076210020B0A302004BDF704701
:109750001FB50D4C01A8FFF7F9FF70B9214602A80B
:10976000FEF77BF9039B002BF4D00198D3E900218D
:10977000904702A8FEF77BF9F4E7052801D0FDF732
:10978000F7FA04B010BD00BFE8A3020053EA020CD0
:1097900061D02DE9F04BB3FA83F51E0007BFB2FA92
:1097A00082F502FA05F403FA05F41646C5F1200520
:1097B0001EBF22FA05F73C43203556EA044C4FEA17
:1097C000144418BF0134A3464FF00009C846904224
:1097D00071EB030C39D3094207BFB0FA80F700FAE6
:1097E00007F6B1FA81F701FA07F6C7F120071EBFA5
:1097F00020FA07FC46EA0C062037B6FBFBFC7F1B71
:10980000103F07F01F04C4F120060CFA04F42CFAF0
:1098100006F644BF34460026202FA4BF2646002467
:1098200054EA060C08BF012418EB040849EB0609AA
:10983000A4FB027CC01B06FB02CC04FB03CC71EB37
:109840000C01904271EB030CC5D20B46024649460F
:109850004046BDE8F08BB2FBF3F200007F2805D84C
:10986000034B185C034B5B5C18407047002070474B
:1098700000A4020080A40200A0F16103192B98BF8C
:1098800020387047A0F14103192B98BF2030704752
:109890007F2805D8034B185C034B5B5C184070476E
:1098A0000020704700A4020080A40200A0F1610320
:1098B000192B98BF20387047A0F14103192B98BF8E
:1098C000203070477F299ABF017001206FF02E0071
:1098D00070475AB10A787F2A0AD800B10260002185
:1098E00019605960501A18BF012070470020704756
:1098F0006FF02E007047000008B5034B5B689B6853
:109900001B68984708BD00BFF018002008B5092162
:10991000FFF7F2FF08BD844640EA010313F0030F8E
:1099200018D18446202A0BD32DE9F007B1E8F807B7
:10993000A0E8F807A2F12002202AF7D2BDE8F0073C
:10994000042A07D351F8043B40F8043BA2F1040277
:10995000042AF7D2002A05D011F8013B00F8013B98
:10996000013AF9D1604670478446002A2DD010F0A4
:10997000030F04D000F8011B013A26D0F7E7C9B263
:1099800041EA012141EA0141202A12D3A2F1200239
:109990002DE9F0030B460C460D460E460F46884651
:1099A0008946A0E8FA03203AFBD2BDE8F003203252
:1099B0000BD0042A05D340F8041B043A05D0042A2E
:1099C000F9D200F8011B013AFBD16046704700F163
:1099D000010110F0030F11D010F8012B002A23D041
:1099E00010F0030F0AD010F8012B002A1CD010F041
:1099F000030F03D010F8012B002A15D02DE97000B9
:109A00004FF001324FF0803350F8044BA4EB0205C5
:109A100025EA04051D4000D1F6E7A0F1040070BC62
:0E9A200010F8012B002AFBD1A0EB01007047CB
:089A3000697E02000000000045
:089A3800E97E020000000000BD
:109A40000D95020000000000519702000000000088
:109A500048190020101A0020181A00205019002060
:049A600018000000EA
:109A640038A10200000000003EA102000000000036
:109A740045A102000000000049A10200000000000E
:109A84004EA1020000000000299B02000000030315
:109A940032A10200000000009CA1020000000303A8
:109AA400DCA3020000000303F4A30200000003038C
:089AB400349C020000000000D8
:109ABC00EC9A020000000000F89A0200BC1800208A
:109ACC00FFFFFFFFFFFFFFFFFFFFFFFFFFFFFFFF9A
:109ADC0000000000000000000000D601060100009C
:109AEC00ED640200516502009D64020075617274A0
:109AFC005F6C6F675F6261636B656E640000000092
:109B0C003C1E00207F000000BC1E00204261636BE5
:109B1C00656E647320666C75736865640061707043
:109B2C0000000000639B0200AC9B02006B9B0200D8
:109B3C00B49B0200BC9B0200C49B0200CC9B0200A5
:109B4C00D49B0200DC9B02002025303278002020C0
:109B5C0020007C002563001B5B306D002573001B0F
:109B6C005B313B33316D0025734C6F67732064722E
:109B7C006F70706564202825642925730D0A003CDC
:109B8C0025733E2025733A200000000000000000E1
:109B9C00FD9B0200E49B0200EC9B0200F19B020087
:109BAC001B5B313B33306D001B5B313B33326D0043
:109BBC001B5B313B33336D001B5B313B33346D002E
:109BCC001B5B313B33356D001B5B313B33366D001A
:109BDC001B5B313B33376D007761726E696E6700CA
:109BEC00696E666F00646562756700466174616CCE
:109BFC00206572726F720053797374656D20726593
:109C0C00736574000338FDD8704730313233343506
:109C1C00363738394142434445460000389A0200F1
:109C2C00389A0200040000007077725F6D676D74E3
:109C3C0000556E6B6E6F776E206572726F7220635B
:109C4C006F64650000000000789D020001000000B8
:109C5C00849D020002000000A29D0200030000008F
:109C6C00C39D020004000000D69D02000500000008
:109C7C00E79D020006000000FB9D020007000000AB
:109C8C00139E0200080000002B9E02000900000039
:109C9C00439E02000A0000005C9E02000B000000C4
:109CAC00749E02000C0000008B9E02000D00000050
:109CBC009F9E02000E000000B19E02000F000000EB
:109CCC00C09E020010000000D49E02001100000093
:109CDC00EB9E020012000000FA9E0200130000002E
:109CEC000F9F020080000000239F020081000000F3
:109CFC00449F020082000000609F0200830000006D
:109D0C007C9F0200840000009A9F020085000000E6
:109D1C00BB9F020086000000E09F02009000000044
:109D2C00F79F02009100000015A0020092000000B5
:109D3C0033A002000082000048A002000182000053
:109D4C0066A002000282000082A0020000840000D3
:109D5C009EA0020001840000C2A002000284000048
:109D6C00ECA002000384000011A102004E52465FD9
:109D7C0053554343455353004E52465F4552524F41
:109D8C00525F5356435F48414E444C45525F4D49D8
:109D9C005353494E47004E52465F4552524F525F05
:109DAC00534F46544445564943455F4E4F545F45C7
:109DBC004E41424C4544004E52465F4552524F5222
:109DCC005F494E5445524E414C004E52465F4552EF
:109DDC00524F525F4E4F5F4D454D004E52465F45C0
:109DEC0052524F525F4E4F545F464F554E44004EA9
:109DFC0052465F4552524F525F4E4F545F5355502F
:109E0C00504F52544544004E52465F4552524F52A9
:109E1C005F494E56414C49445F504152414D004EB2
:109E2C0052465F4552524F525F494E56414C49443F
:109E3C005F5354415445004E52465F4552524F5267
:109E4C005F494E56414C49445F4C454E475448007F
:109E5C004E52465F4552524F525F494E56414C4905
:109E6C00445F464C414753004E52465F4552524F59
:109E7C00525F494E56414C49445F44415441004E57
:109E8C0052465F4552524F525F444154415F5349D1
:109E9C005A45004E52465F4552524F525F54494DFF
:109EAC00454F5554004E52465F4552524F525F4EED
:109EBC00554C4C004E52465F4552524F525F464FE6
:109ECC005242494444454E004E52465F4552524F11
:109EDC00525F494E56414C49445F41444452004EF6
:109EEC0052465F4552524F525F42555359004E52A3
:109EFC00465F4552524F525F434F4E4E5F434F5554
:109F0C004E54004E52465F4552524F525F5245538B
:109F1C004F5552434553004E52465F4552524F5295
:109F2C005F4D4F44554C455F4E4F545F494E49541D
:109F3C0049414C495A4544004E52465F4552524F96
:109F4C00525F4D555445585F494E49545F464149FF
:109F5C004C4544004E52465F4552524F525F4D5550
:109F6C005445585F4C4F434B5F4641494C45440068
:109F7C004E52465F4552524F525F4D555445585FB5
:109F8C00554E4C4F434B5F4641494C4544004E5255
:109F9C00465F4552524F525F4D555445585F434FA3
:109FAC004E445F494E49545F4641494C4544004E2E
:109FBC0052465F4552524F525F4D4F44554C455F90
:109FCC00414C52454144595F494E495449414C49D1
:109FDC005A4544004E52465F4552524F525F5354BD
:109FEC004F524147455F46554C4C004E52465F45DB
:109FFC0052524F525F4150495F4E4F545F494D5042
:10A00C004C454D454E544544004E52465F455252C8
:10A01C004F525F464541545552455F4E4F545F4534
:10A02C004E41424C4544004E52465F4552524F52AF
:10A03C005F494F5F50454E44494E47004E52465F74
:10A04C004552524F525F4452565F5457495F4552E6
:10A05C00525F4F56455252554E004E52465F455236
:10A06C00524F525F4452565F5457495F4552525FAC
:10A07C00414E41434B004E52465F4552524F525F48
:10A08C004452565F5457495F4552525F444E4143C8
:10A09C004B004E52465F4552524F525F424C455F09
:10A0AC00495053505F52585F504B545F5452554E69
:10A0BC004341544544004E52465F4552524F525F05
:10A0CC00424C455F495053505F4348414E4E454CBE
:10A0DC005F414C52454144595F45584953545300D4
:10A0EC004E52465F4552524F525F424C455F49506B
:10A0FC0053505F4C494E4B5F444953434F4E4E4572
:10A10C0043544544004E52465F4552524F525F42B3
:10A11C004C455F495053505F504545525F52454A3C
:10A12C00454354454400636C6F636B00434C4F4391
:10A13C004B004750494F5445005052530055415223
:10A14C005400554152544500F420002014210020A5
:10A15C00426561636F6E206578616D706C6520730C
:10A16C007461727465642E0001000007389A020055
:10A17C00389A020008000000409A0200509A02002F
:10A18C0008000000389A0200409A02000800000003
:10A19C006E72665F7364680073645F626C655F63A4
:10A1AC0066675F73657428292072657475726E65B5
:10A1BC0064202573207768656E20617474656D70FA
:10A1CC0074696E6720746F2073657420424C455F10
:10A1DC00434F4E4E5F4346475F4741502E007364DA
:10A1EC005F626C655F6366675F73657428292072B4
:10A1FC00657475726E6564202573207768656E20B2
:10A20C00617474656D7074696E6720746F2073650A
:10A21C007420424C455F4741505F4346475F524F65
:10A22C004C455F434F554E542E0073645F626C6512
:10A23C005F6366675F736574282920726574757235
:10A24C006E6564202573207768656E206174746573
:10A25C006D7074696E6720746F2073657420424C46
:10A26C00455F434F4D4D4F4E5F4346475F56535FDF
:10A27C00555549442E0073645F626C655F63666775
:10A28C005F73657428292072657475726E6564201D
:10A29C002573207768656E20617474656D707469C0
:10A2AC006E6720746F2073657420424C455F474184
:10A2BC005454535F4346475F415454525F54414298
:10A2CC005F53495A452E0073645F626C655F636629
:10A2DC00675F73657428292072657475726E656486
:10A2EC00202573207768656E20617474656D7074B9
:10A2FC00696E6720746F2073657420424C455F470C
:10A30C00415454535F4346475F5345525649434566
:10A31C005F4348414E4745442E00496E737566664F
:10A32C00696369656E742052414D20616C6C6F637A
:10A33C006174656420666F722074686520536F6663
:10A34C00744465766963652E004368616E676520A9
:10A35C007468652052414D207374617274206C6F67
:10A36C00636174696F6E2066726F6D20307825782A
:10A37C0020746F20307825782E004D6178696D75CA
:10A38C006D2052414D2073697A6520666F72206191
:10A39C0070706C69636174696F6E206973203078BA
:10A3AC0025782E0073645F626C655F656E61626C0C
:10A3BC006528292072657475726E65642025732E6C
:10A3CC0000000000389A0200389A020008000000D1
:10A3DC006E72665F7364685F626C6500309A02002F
:10A3EC00389A0200080000006E72665F7364685F42
:10A3FC00736F630020202020202020202068282834
:10A40C002828202020202020202020202020202030
:10A41C0020202020481010101010101010101010B8
:10A42C001010101084848484848484848484101098
:10A43C0010101010108181818181810101010101B5
:10A44C0001010101010101010101010101010110E1
:10A45C00101010101082828282828202020202028A
:10A46C0002020202020202020202020202020210B2
:10A47C001010102000070320041702010857104089
:10A48C008000000034A60200F8A402000CA6020012
:10A49C0053756E004D6F6E00547565005765640002
:10A4AC005468750046726900536174000000000026
:10A4BC004A616E00466562004D6172004170720027
:10A4CC004D6179004A756E004A756C0041756700E4
:10A4DC00536570004F6374004E6F760044656300E3
:10A4EC0000000000414D00504D00000030A602005D
:10A4FC002CA602002CA602002CA602002CA6020000
:10A50C002CA602002CA602002CA602002CA60200EF
:10A51C002CA60200FFFFFFFFFFFFFFFFFFFFFFFF67
:10A52C00FFFF00006CA502009CA40200A8A502007D
:10A53C00BCA40200F0A4020050A5020000A6020078
:10A54C005CA50200256D2F25642F257900000000E5
:10A55C0025612025622025652025542025590000E1
:10A56C0053756E646179004D6F6E6461790054753A
:10A57C006573646179005765646E65736461790015
:10A58C00546875727364617900467269646179000C
:10A59C005361747572646179000000004A616E75D4
:10A5AC00617279004665627275617279004D6172F3
:10A5BC00636800417072696C004D6179004A756E78
:10A5CC0065004A756C790041756775737400536545
:10A5DC007074656D626572004F63746F62657200B2
:10A5EC004E6F76656D62657200446563656D62657C
:10A5FC007200000025483A254D3A25530000000012
:10A60C005D980200799802008598020091980200EA
:10A61C00AD980200B9980200C5980200D3980200C8
:10A62C00000000002E00000043000000504F534972
:04A63C0058000000C2
:10A64000000000000020004000000000002000404A
:10A650000000000000000000FF0000000090D00398
:10A66000542100201F000000000000000000000036
:10A67000FF02150112233445566778899AABBCCD89
:10A68000DEEFF001020304C390A4020090A40200D4
:0CA6900090A4020090A4020090A402001C
:040000032000637501
:00000001FF
