:020000022000DC
:1060000000000120996202003D6202003F6202002E
:10601000416202004362020045620200000000008B
:1060200000000000000000000000000047620200C5
:1060300049620200000000004B6202004D62020053
:10604000D909030051620200910F0300556202005A
:106050005762020059620200B10C03005D62020047
:106060005F62020061620200636202006562020018
:1060700067620200696202006B6202006D620200E8
:106080006F6202007D3203007362020075620200DB
:10609000BD32030079620200E18603007D620200E6
:1060A0007F62020081620200836202008562020058
:1060B0008762020089620200000000000000000008
:1060C0008B6202008D6202008F6202009162020008
:0C60D000936202009562020097620200D9
:1060DC00364937480A1A02D0072291438D46354972
:1060EC0035480A1A06D00722914381F30988022207
:1060FC0082F3148831483249324A00F045F832486C
:10610C003249334A00F040F832483349334A00F000
:10611C003BF833483349344A00F036F833483449B5
:10612C00344A00F031F834483449354A00F02CF840
:10613C0034483549354A00F027F8354835490022AE
:10614C0000F02DF834483549002200F028F8344886
:10615C003449091A082903DB00220260043001606B
:10616C00314A90471F482049884205D002680430C4
:10617C0003B4904703BCF7E700208646EC460020AA
:10618C0000212A4A9047FEE7884207D0521A05D0D0
:10619C00037801300B700131013AF9D17047884214
:1061AC0002D002700130FAE77047000000000120B5
:1061BC0000E000200000012000000120ECC20300E0
:1061CC002C220020C8250020F4620200F462020098
:1061DC0082910300ECC203002C2200202C22002010
:1061EC00049303000493030004930300049303003B
:1061FC00049303000493030004930300049303002B
:10620C00ECC2030088C60300C8250020C825002066
:10621C00C8250020E4390020E4390020E4390020AE
:10622C00E4390020E4590020C3620200FD6C020036
:10623C00FEE7FEE7FEE7FEE7FEE7FEE7FEE7FEE72A
:10624C00FEE7FEE7FEE7FEE7FEE7FEE7FEE7FEE71A
:10625C00FEE7FEE7FEE7FEE7FEE7FEE7FEE7FEE70A
:10626C00FEE7FEE7FEE7FEE7FEE7FEE7FEE7FEE7FA
:10627C00FEE7FEE7FEE7FEE7FEE7FEE7FEE7FEE7EA
:10628C00FEE7FEE7FEE7FEE7FEE7FEE7034885468E
:10629C0000F002F8FFF71CBF70470000000001205F
:1062AC000C4880470C484FF0070188438546094845
:1062BC008047FFF70DBF094809490A4A884207D0B1
:1062CC00521A05D0037801300B700131013AF9D123
:1062DC0070470000A562020000000120F09203004C
:0862EC00182200202C220020E2
:1062F40076DF704700BF18467ADF704700BF184644
:106304007CDF704700BF18468FDF704700BF184618
:10631400B1DF704700BF184608B5012000F017FF31
:1063240000BF08BD00B583B00CF0CCFF0190019B09
:106334000093009B002B04D0044A882100980CF0A1
:10634400E5F900BF03B05DF804FB00BF049303004C
:1063540000B587B09DF80030012262F303038DF885
:1063640000309DF80030012262F307138DF80030ED
:106374001D4812F0D4FE03469AB26B461A491846D9
:10638400FFF7BEFF0590059B0493049B002B04D0EC
:10639400164A9C2104980CF0B9F901AB082200219B
:1063A400184612F089FE5023ADF80430A023ADF84E
:1063B40006300023ADF808304FF4C873ADF80A3046
:1063C40001AB1846FFF798FF0590059B0393039BC9
:1063D400002B04D0054AA62103980CF097F900BFBE
:1063E40007B05DF804FB00BF689303000493030047
:1063F40000B587B001900021032001F037FA059021
:10640400059B0493049B002B04D0114AB5210498E6
:106414000CF07CF90DF10B031946002000F054FF39
:106424000590059B0393039B002B04D0084AB821D5
:1064340003980CF06BF99DF80B30022B0CBF012371
:106444000023DAB2019B1A7000BF07B05DF804FBA9
:106454000493030030B5A7B00190019B1B78032B74
:1064640000F2B98001A252F823F000BF8164020057
:106474005B650200736502008F650200594A5A4B3E
:10648400D31ADB081B0443F003035849184611F0E0
:10649400C9F9019B5988019B04331A46544812F0E8
:1064A400B4FC2590259B2493249B002B04D0514AB3
:1064B400CF2124980CF02AF9019B5B880DF182020C
:1064C4001146184607F098F92590259B2393239BA2
:1064D400002B04D0474AD32123980CF017F9019AD2
:1064E4000DF116030432156854689068D1681D6074
:1064F4005C609860D960128A1A8203AB76221946CE
:106504003D4812F0B0FDBDF88200002378223A49DC
:1065140007F044FA2590259B862B02D10EF080FDCE
:106524002590259B2293229B002B04D0314AE32102
:1065340022980CF0EBF801212D4812F053FB259022
:10654400259B2193219B002B47D02A4AE6212198A1
:106554000CF0DCF841E0234A234BD31ADB081B047C
:1065640043F003032549184611F05CF936E01D4A4F
:106574001D4BD31ADB081B0443F00300019B5B880B
:106584001A461F4911F05CF928E0164A164BD31A33
:10659400DB081B0443F003031A49184611F042F9BF
:1065A400104A114BD31ADB081B0443F00300019B70
:1065B4009B881A46144911F043F90A4A0A4BD31A24
:1065C400DB081B0443F00300019BDB881A460F49D8
:1065D40011F036F902E000BF00E000BF00BF27B0B1
:1065E40030BD00BF4892030020920300789303005B
:1065F400DC250020049303000C260020BC93030038
:106604000094030038940300609403007C94030016
:1066140030B593B00190019805F000FC019805F0A5
:1066240063FC019B1B78022B00F0A2800C2B00F072
:10663400CF80002B00D0D2E0019B5B880DF11E02BD
:106644001146184607F0D8F81190119B0E930E9B33
:10665400002B05D0634A40F20F110E980CF056F847
:10666400BDF81E304FF6FF72934200F0B5805E4BCA
:106674000D937823ADF81C30BDF81E3007AA0D9990
:10668400184607F011F91190119B052B2BD1019B92
:106694005B8800221946554812F0B7FB1190119BF4
:1066A4000993099B002B05D04E4A4FF48E7109982B
:1066B4000CF02CF84FF4337200214D4812F0FCFC1E
:1066C400019B5B8819464A4809F088FD1190119B8B
:1066D4000893089B002B7FD0424A40F2211108986E
:1066E4000CF014F878E0434A434BD31ADB081B043C
:1066F40043F003034149184611F094F8119B0C939D
:106704000C9B002B05D0374A40F227110C980BF054
:10671400FDFF0D9B02AC03F10A0528686968AA68AD
:10672400EB680FC42B8A2380019B5B8802AA19465D
:106734002E4812F06AFB1190119B0B930B9B002BBC
:1067440005D0284A4FF497710B980BF0DFFF012115
:10675400264812F047FA1190119B0A930A9B002BCA
:106764003AD0204A4FF499710A980BF0CFFF33E0E6
:106774001E4B5B89002B31D1019B5B88002219469B
:106784001A4812F042FB1190119B1093109B002B9E
:1067940005D0144A4FF49F7110980BF0B7FF4FF4D3
:1067A40033720021124812F087FC019B5B88194662
:1067B4000F4809F013FD1190119B0F930F9B002BB1
:1067C4000CD0084A40F243110F980BF09FFF05E0EC
:1067D400002000F02BFB02E000BF00E000BF00BF80
:1067E40013B030BD049303000C260020DC250020E8
:1067F4002C2200204892030020920300949403006A
:1068040000B587B006F074FE0590059B0493049BC5
:10681400002B05D0324A40F25B1104980BF076FF4E
:106824006B4605220021184612F046FC9DF8003004
:1068340043F001038DF800309DF800306FF34103FD
:106844008DF800309DF80030032262F306138DF8B2
:1068540000309DF800306FF3C7138DF80030072324
:106864008DF8013010238DF802309DF8033043F089
:1068740001038DF803309DF8033043F002038DF8D3
:1068840003309DF8043043F001038DF804309DF883
:10689400043043F002038DF804306B46184606F0CA
:1068A40009FF0590059B0393039B002B05D00C4A1D
:1068B4004FF4B67103980BF029FF0A4806F0D2FE94
:1068C4000590059B0293029B002B05D0044A40F2DD
:1068D4006F1102980BF01AFF00BF07B05DF804FBBC
:1068E400049303001566020000B583B0019001997A
:1068F400034812F0C1F900BF03B05DF804FB00BF08
:10690400DC25002000B587B00190184A184BD31A33
:10691400DB081B0443F003031649184610F082FFFA
:10692400072000F089FF0590059B0493049B002B2E
:1069340005D0114A40F28B1104980BF0E7FE019B3D
:106944009B8819460D4804F04DFC0590059B039364
:10695400039B002B05D0084A4FF4C77103980BF032
:10696400D5FE00BF07B05DF804FB00BF48920300EA
:1069740020920300B894030004930300FC25002034
:1069840000B587B00190019B1B883B2B02D0562B8E
:1069940013D028E0019B9B8813211846FFF7A8FC1D
:1069A4000590059B0393039B002B19D0104A4FF4C9
:1069B400D07103980BF0AAFE12E0019B9B8813216F
:1069C4001846FFF795FC0590059B0493049B002B48
:1069D40008D0074A40F2A71104980BF097FE01E093
:1069E40000BF00E000BF00BF07B05DF804FB00BFBC
:1069F4000493030000B587B001900091019805F05D
:106A04005BFD019B1B88212B1DD0212B04DC102B4B
:106A140009D0112B0BD04BE0522B2ED0562B40D04B
:106A24003B2B3ED044E00198FFF76CFF40E0224A44
:106A3400224BD31ADB081B0443F0030320491846F6
:106A440010F0F0FE34E000238DF8083000238DF8B8
:106A54000930019B9B8802AA11461846FFF754FC93
:106A64000590059B0393039B002B1ED0154A4FF4FE
:106A7400E87103980BF04AFE17E0019B9888002305
:106A840000220021FFF744FC0590059B0493049B1E
:106A9400002B0CD00B4A4FF4EB7104980BF036FE2C
:106AA40005E00198FFF76CFF02E000BF00E000BFC3
:106AB40000BF07B05DF804FB489203002092030076
:106AC400C49403000493030000B587B011F028FDBB
:106AD4000590059B0493049B002B05D0164A40F2B5
:106AE400EF1104980BF012FE0023019301AB194639
:106AF400012011F01DFE0590059B0393039B002BC1
:106B040005D00D4A40F2F51103980BF0FFFD01ABDF
:106B1400184611F001FF0590059B0293029B002B80
:106B240005D0054A40F2F91102980BF0EFFD00BFC1
:106B340007B05DF804FB00BF0493030000B583B005
:106B4400094809F0A9FA0190019B0093009B002BCE
:106B540005D0064A40F2062100980BF0D7FD00BF8D
:106B640003B05DF804FB00BFED680200049303006A
:106B740000B583B04FF40041002010F087FB019072
:106B8400019B0093009B002B05D0064A4FF404712F
:106B940000980BF0BBFD10F017FB00BF03B05DF8CD
:106BA40004FB00BF0493030000B583B010F098F811
:106BB4000190019B0093009B002B05D0044A4FF4E5
:106BC400077100980BF0A2FD00BF03B05DF804FB51
:106BD4000493030008B510F0AFFE034683F00103ED
:106BE400DBB2002B01D010F091F800BF08BD00000B
:106BF40000B583B00021094804F01CFA0190019B00
:106C04000093009B002B05D0054A40F232210098E6
:106C14000BF07CFD00BF03B05DF804FBC825002029
:106C24000493030000B583B00190054A40F23F216C
:106C340001980BF06BFD00BF03B05DF804FB00BFCF
:106C44000493030000B587B001AB00221A605A60B8
:106C540000230093144B00936B461946134804F029
:106C64009FFA0590059B0493049B002B05D0104AC2
:106C740040F24F2104980BF049FD0E4B019301ABF8
:106C840019460D4811F06AFF0590059B0393039B79
:106C9400002B05D0064A40F2552103980BF036FD2F
:106CA40000BF07B05DF804FB296C0200FC2500203E
:106CB4000493030059640200DC25002008B5FFF7A3
:106CC40057FFFFF729FBFFF72DFB0A48FFF790FB5F
:106CD400FFF76AFFFFF7F8FEFFF73AFBFFF788FFBD
:106CE400FFF72CFFFFF7AEFF00F066F8FFF788FD13
:106CF40000BF08BD0826002008B5FFF7DFFF094ADA
:106D0400094BD31ADB081B0443F003030749184655
:106D140010F088FD064B1B78184600F087F8FFF743
:106D240059FFFCE74892030020920300D494030027
:106D34000826002000B585B003468DF807309DF87D
:106D44000730002B1CD0032B00D026E0154A164B2D
:106D5400D31ADB081B0443F003031449184610F04C
:106D640061FD022000F068FD0390039B0293029BE7
:106D7400002B11D00E4A502102980BF0C7FC0BE0F7
:106D8400084A094BD31ADB081B0443F003030949DF
:106D9400184610F047FD00E000BF00BF05B05DF8E5
:106DA40004FB00BF4892030020920300F494030004
:106DB400089503008495030000B5AFB001ABAC2285
:106DC4000021184612F078F902238DF804300123CB
:106DD4008DF8063006238DF8073001238DF88030B6
:106DE4004FF496732393002324930D4B2A9301AB02
:106DF40019460C4801F09BFD2D902D9B2C932C9B48
:106E0400002B04D0084A75212C980BF07FFC01213B
:106E1400044801F07FFD00BF2FB05DF804FB00BF04
:106E2400396D0200842600200895030000B587B060
:106E340003468DF807309DF80730002B18D0164A0A
:106E4400164BD31ADB081B0443F0030314491846FA
:106E540010F0E8FC06F0D6FD0590059B0393039B18
:106E6400002B14D00F4A892103980BF04FFC0EE03D
:106E740003210D4801F040FE0590059B0493049BFB
:106E8400002B04D0074A8E2104980BF03FFC00BF6E
:106E940007B05DF804FB00BF489203002092030092
:106EA4009C950300089503008426002082B001907D
:106EB4004FF0A043184602B0704700B585B001906A
:106EC400084611461A4603468DF803300B468DF8E2
:106ED400023013468DF8013001AB1846FFF7E6FF88
:106EE40003909DF803209DF802305B001A439DF83F
:106EF40001309B001A439DF818301B0242EA03013B
:106F04009DF81C301B04019A1943039B02F5E0729F
:106F140043F8221000BF05B05DF804FB00B585B04E
:106F240003900023019300230093002301220121F5
:106F34000398FFF7C2FF00BF05B05DF804FB00B57E
:106F440085B0019001AB1846FFF7B0FF0390019B99
:106F5400012202FA03F31946039800F069F800BF0E
:106F640005B05DF804FB00B585B0019001AB18468F
:106F7400FFF79CFF0390019B012202FA03F31946D9
:106F8400039800F05FF800BF05B05DF804FB00B59E
:106F940085B0019001AB1846FFF788FF0390039B6F
:106FA400D3F804350293029BDA43019B012101FAD1
:106FB40003F31A40039BC3F80825019B01229A405E
:106FC400029B1A40039BC3F80C2500BF05B05DF873
:106FD40004FB00B583B001900091009B002B03D10A
:106FE4000198FFF7C0FF02E00198FFF7A8FF00BF78
:106FF40003B05DF804FB00B585B0019001AB184601
:10700400FFF754FF0390039800F00AF80246019B2F
:1070140022FA03F303F00103184605B05DF804FBFC
:1070240082B00190019BD3F80435184602B0704732
:1070340082B001900091019B009AC3F8082500BF1B
:1070440002B0704782B001900091019B009AC3F88E
:107054000C2500BF02B0704700B585B0019019231C
:107064001846FFF7C8FF0346002B14BF0123002373
:107074008DF80F309DF80F30002B14BF012300232F
:10708400DBB283F00103DBB203F00103DBB2184689
:1070940005B05DF804FB00B583B00190192300210D
:1070A4001846FFF796FF00BF03B05DF804FB00B578
:1070B40083B00190192301211846FFF78AFF00BF0E
:1070C40003B05DF804FB00B583B00023019305E031
:1070D4000198FFF7ECFF019B01330193019B002B07
:1070E400F6D000BF03B05DF804FB00B583B0002305
:1070F400019305E00198FFF7CEFF019B0133019353
:10710400019B002BF6D000BF03B05DF804FB00B573
:1071140083B0019019231846FFF739FF00BF03B06D
:107124005DF804FB00B583B00023019306E0192346
:107134001846FFF7F3FE019B01330193019B002BDB
:10714400F5D0FFF7C0FF00BF03B05DF804FB00B546
:1071540083B00190019B03F00103002B01D0FFF7E2
:10716400E1FF00BF03B05DF804FB00B583B001226A
:107174000021002000F0ACFB0190019B002B04D007
:10718400019B072B01D0019B1CE007220221012057
:1071940000F09EFB0190019B002B04D0019B072B68
:1071A40001D0019B0EE004220221002000F090FB9C
:1071B4000190019B002B04D0019B072B01D0019B64
:1071C40000E00023184603B05DF804FB00B583B06B
:1071D40001220221002000F07BFB0190019B002B87
:1071E40004D0019B072B01D0019B1CE00722022144
:1071F400012000F06DFB0190019B002B04D0019B4A
:10720400072B01D0019B0EE00A220021002000F090
:107214005FFB0190019B002B04D0019B072B01D045
:10722400019B00E00023184603B05DF804FB82B024
:107234000190019B00221A7000BF02B07047000049
:1072440000B585B001900091019B1B88102B02D0E2
:10725400112B18D02FE01A4B1B68002B0DD1FFF710
:1072640084FF0390039B002B07D0164B1B68002B55
:1072740003D0144B1B6803989847114B1B680133C8
:107284000F4A136017E00E4B1B68013B0C4A136056
:107294000B4B1B68002B0DD1FFF798FF0390039B4A
:1072A400002B07D0074B1B68002B03D0054B1B6832
:1072B4000398984700BF00BF05B05DF804FB00BF0A
:1072C400E0280020DC28002000B585B00190009162
:1072D400002303930A4A019B1360009B002B02D0F6
:1072E4000098FFF7A4FF074B1B68002B02D1FFF7A0
:1072F4006DFF0390039B184605B05DF804FB00BFC7
:10730400DC280020E028002000B583B00C4B1B785B
:10731400002B0FD00023019308E0019B022B02D025
:107324000198FFF7C4FE019B01330193019B002BDD
:10733400F3D001E0FFF7C7FE00BF03B05DF804FB24
:10734400EC2800202DE9F04884B003468DF807307E
:107354000023039300230293D14B1B78002B04D00A
:10736400CF4B00221A70FFF7CFFF9DF80730172B81
:1073740000F2358201A252F823F000BFE17302004B
:10738400F9730200F97302008174020009750200A6
:1073940077750200FD7502001D7602002D7602004D
:1073A4004B7602006976020087760200B17602000D
:1073B400BF760200BF760200BF760200BF760200ED
:1073C400BF7602008577020093770200A777020058
:1073D400BB770200D5770200D5770200FFF794FF50
:1073E400B04B18460CF004F80390AF4A9DF80730F0
:1073F4001370F5E10020FFF72FFE0346002B0DD09C
:107404000020FFF754FE9DF80730022B02D14FF401
:10741400E16301E04FF47A6302930BE00020FFF78D
:107424003AFE9DF80730022B01D1C82301E04FF446
:10743400C87302939C4A9DF807301370994D029BC0
:1074440019464FF000024FF000034FF00004D4033C
:1074540044EA5144CB0313F5FA7044F100014FF4AC
:107464007A724FF0000311F003FD03460C4600222C
:10747400194628460BF08AFF0390B1E10020FFF77C
:10748400EBFD0346002B0DD00020FFF710FE9DF806
:107494000730032B02D14FF4487301E04FF47A63B1
:1074A40002930BE00020FFF7F6FD9DF80730032B55
:1074B40001D1C82301E04FF4C87302937A4A9DF8BE
:1074C40007301370774D029B19464FF000024FF0BE
:1074D40000034FF00004D40344EA5144CB0313F5F2
:1074E400FA7044F100014FF47A724FF0000311F086
:1074F400BFFC03460C460022194628460BF046FF03
:1075040003906DE10020FFF7A7FD0346002B06D092
:107514000020FFF7CCFD4FF47A63029305E00020CE
:10752400FFF7B9FD4FF4C87302935F4A9DF8073023
:1075340013705C4D029B19464FF000024FF000039C
:107544004FF00004D40344EA5144CB0313F5FA701A
:1075540044F100014FF47A724FF0000311F088FCFB
:1075640003460C460022194628460BF00FFF0390F1
:1075740036E10020FFF770FD0346002B0CD00020FD
:10758400FFF795FD9DF80730052B01D1C82301E0D5
:107594004FF47A6302930BE00020FFF77CFD9DF823
:1075A4000730052B01D1C82301E04FF4C8730293BF
:1075B4003D4A9DF8073013703A4D029B19464FF02F
:1075C40000024FF000034FF00004D40344EA514496
:1075D400CB0313F5FA7044F100014FF47A724FF0C3
:1075E400000311F045FC03460C46002219462846C8
:1075F4000BF0CCFE0390F3E00020FFF788FD2A4A4D
:107604009DF807301370274B002240F6CD411846F1
:107614000BF0BCFE0390E3E00020FFF73CFD224AA0
:107624009DF807301370DBE01D4B01221A70012016
:10763400FFF76DFD1B4B002240F6CD4118460BF0C1
:10764400A5FE0390CCE0164B01221A700120FFF72F
:107654005EFD144B00224FF4804118460BF096FE59
:107664000390BDE00E4B01221A700120FFF74FFD7D
:107674000C4B002240F6CD4118460BF087FE0390D8
:10768400AEE0074B01221A700120FFF740FD054BC5
:1076940000224FF4804118460BF078FE03909FE0DF
:1076A400E5280020F0280020E4280020FFF71DFD35
:1076B4004E4A9DF80730137092E04D4B18460BF07C
:1076C40097FE03909DF80730C3F111030293029BC8
:1076D400002B4ED0039B002B4BD1029B012B41D995
:1076E400434F029B9BB29DB24FF00006AB46B4469B
:1076F4001BEB0B034CEB0C049B46A4461BEB050B4A
:107704004CEB060C4FF000014FF000024FEACC02A4
:1077140042EA5B724FEACB018B4694461BEB050BA6
:107724004CEB060C4FF000014FF000024FEA8C4284
:1077340042EA9B324FEA8B418B4694465B46644651
:1077440013F5FA7044F100014FF47A724FF000031C
:1077540011F08EFB03460C460022194638460BF006
:1077640015FE03900220FFF796FC224B01221A70AB
:1077740036E00220FFF79BFC1E4B00221A702FE01C
:10778400FFF7C2FD194A9DF80730137028E0FFF790
:10779400BBFD0020FFF77FFC144A9DF807301370EF
:1077A4001EE0FFF7B1FD0120FFF775FC0F4A9DF8BD
:1077B4000730137014E0FFF7A7FD0020FFF76BFC00
:1077C4000120FFF768FC094A9DF80730137007E0B1
:1077D400FFF78BFC054A9DF80730137000E000BFEB
:1077E400039B184604B0BDE8F08800BFE4280020DD
:1077F40010290020EC28002000B583B00190074B2D
:107804001B6803F00103002B04D0054B1B781846BA
:10781400FFF798FD00BF03B05DF804FBE8280020E3
:10782400E428002000B583B001900220FFF76FFC2C
:1078340000BF03B05DF804FB00B585B003468DF8C6
:10784400073000230393084B1B6803F00103002B4C
:1078540005D09DF807301846FFF774FD0390039B8D
:10786400184605B05DF804FBE828002000B585B093
:107874000190009100230393104A019B1360019B24
:1078840003F00103002B14D00120FFF760FC039BDD
:10789400002B05D10A4A00210A480BF047FD03904A
:1078A400039B002B05D1084A012108480BF03EFD3B
:1078B4000390039B184605B05DF804FBE8280020FC
:1078C400FD770200AC95030029780200B09503000F
:1078D40084B001900B468DF8033013468DF80230C6
:1078E4000023039307230393039B184604B07047B4
:1078F4006DDF704700BF184679DF704700BF184638
:107904007DDF704700BF184664DF704700BF18462C
:1079140082B003460091ADF80630BDF80630DAB205
:10792400009B1A70BDF806301B0A9AB2009B013303
:10793400D2B21A700223184602B0704700B589B05B
:10794400039002911346ADF80630029B1B8803F1A5
:107954000902BDF806309A4201D90C2353E004AB66
:107964001846FFF7C5FF0790079B0693069B002B5D
:1079740001D0069B47E0029B1B881A46039B1344D5
:1079840008221A70029B1B8801339AB2029B1A8048
:10799400029B1B881A46039B13441B221A70029BEA
:1079A4001B8801339AB2029B1A80029B1B881A46D9
:1079B400039B981804AB01330622194611F053FBBC
:1079C400029B1B8806339AB2029B1A809DF81030E2
:1079D40023F00103DBB2002B07D1029B1B881A465C
:1079E400039B134400221A7006E0029B1B881A466C
:1079F400039B134401221A70029B1B8801339AB221
:107A0400029B1A800023184609B05DF804FB00B5F8
:107A140089B0039002910192ADF80230039B1B7868
:107A2400012B05D1039B5B78002B01D1072392E046
:107A3400019B1B889A1CBDF802309A420ED8039B06
:107A44001B78012B0CD1019B1B881A46039B5B7886
:107A540013449A1CBDF802309A4201D90C237AE0EF
:107A6400019B1B88BDF80220D31A9BB2023BADF8E0
:107A74001C30BDF81C30ADF81230019B1B8802335A
:107A8400029A13440DF1120211461846FFF738FF0B
:107A94000690069B0593059B002B01D0059B5AE09D
:107AA400039B1B78022B06D0039B5B789AB2BDF82C
:107AB40012309A4209D3BDF81230BDF81C209A4204
:107AC40003D309238DF81F3017E008238DF81F30E6
:107AD400039B1B78012B0CD1039B5B789BB2BDF8F5
:107AE4001C209A4205D3039B5B789BB2ADF81230FD
:107AF40003E0BDF81C30ADF81230BDF81230FE2B97
:107B040001D90C2327E0BDF81230DAB2019B1B889F
:107B14001946029B0B440132D2B21A70019B1B8896
:107B240001339AB2019B1A80019B1B881A46029B5F
:107B340013449DF81F201A70019B1B8801339AB2CD
:107B4400019B1A80019B1A88BDF8123013449AB223
:107B5400019B1A800023184609B05DF804FB00B5A8
:107B640089B0039002911346ADF80630029B1B883E
:107B74001A1DBDF806309A4201D90C233BE00DF1E1
:107B840016031846FFF7B8FE0790079B0693069B5B
:107B9400002B01D0069B2EE0029B1B881A46039BF8
:107BA400134403221A70029B1B8801339AB2029B6E
:107BB4001A80029B1B881A46039B134419221A70CD
:107BC400029B1B8801339AB2029B1A80BDF81620CF
:107BD400029B1B881946039B0B4419461046FFF76A
:107BE40097FE03461946029B1A888BB213449AB235
:107BF400029B1A800023184609B05DF804FB84B088
:107C0400029101921A4603468DF80F301346ADF8DF
:107C14000C30019B1B88DA1CBDF80C309A4201D948
:107C24000C2328E0019B1B881A46029B1344022262
:107C34001A70019B1B8801339AB2019B1A80019B25
:107C44001B881A46029B134401221A70019B1B884D
:107C540001339AB2019B1A80019B1B881A46029B2E
:107C640013449DF80F201A70019B1B8801339AB2AC
:107C7400019B1A800023184604B0704784B0029117
:107C840001921A4603468DF80F301346ADF80C30B6
:107C9400019B1B88DA1CBDF80C309A4201D90C23D5
:107CA40028E0019B1B881A46029B134402221A7087
:107CB400019B1B8801339AB2019B1A80019B1B888C
:107CC4001A46029B13440A221A70019B1B88013333
:107CD4009AB2019B1A80019B1B881A46029B13448B
:107CE4009DF80F201A70019B1B8801339AB2019BE7
:107CF4001A800023184604B0704700B58FB0039073
:107D040001930B468DF80B3013468DF80A3000238F
:107D14008DF83330109B1B88ADF8303000230D9361
:107D240071E0039B5A680D9B9B001A4405AB1068D5
:107D340018600DF11B0105AB00221846FFF7E4FDA6
:107D44000A900A9B0993099B002B01D0099B7CE0B4
:107D54009DF81B309DF80A209A4251D19DF833308A
:107D6400002B01D0002300E002238DF82330109B68
:107D74001B881A469DF81B301A449DF823301A4478
:107D8400BDF844309A4201DD0C235EE09DF83330A7
:107D940083F00103DBB2002B16D0109B1B88013348
:107DA4009AB2109B1A80109B1B881A46019B13449D
:107DB4009DF80B201A70109B1B8801339AB2109BFC
:107DC4001A8001238DF83330109B1B881A46019BBF
:107DD4001A440DF11B0105AB1846FFF795FD0A90F7
:107DE4000A9B0793079B002B01D0079B2DE0109B58
:107DF4001A889DF81B309BB213449AB2109B1A80C8
:107E04000D9B01330D93039B1B881A460D9B9342D4
:107E140087DB9DF83330002B16D0109B1A88BDF8F1
:107E24003030D31A9BB2013BADF82E30BDF82E3062
:107E3400FF2B01D90C2308E0BDF83030019A13441C
:107E4400BDF82E20D2B21A70002318460FB05DF888
:107E540004FB00B58BB0059003930B468DF81330EB
:107E640013468DF812309DF81310BDF83430019389
:107E74000C9B0093039B02220598FFF73EFF099099
:107E8400099B0893089B002B01D0089B14E09DF8E4
:107E94001210BDF8343001930C9B0093039B102205
:107EA4000598FFF72AFF0990099B0793079B002B6E
:107EB40001D0079B00E0002318460BB05DF804FBDB
:107EC40082B00190019B1B88052B0AD9019B1B885A
:107ED400B3F5486F07D9019B1B884FF6FF72934295
:107EE40001D0072325E0019B5B88052B0AD9019B60
:107EF4005B88B3F5486F07D9019B5B884FF6FF7227
:107F0400934201D0072314E0019B1B884FF6FF72B4
:107F140093420DD0019B5B884FF6FF72934207D0CA
:107F2400019B1A88019B5B889A4201D9072300E0D0
:107F34000023184602B0704700B587B00390029141
:107F44000192ADF80230019B1B889A1DBDF80230E6
:107F54009A4201D90C234DE00398FFF7B1FF059035
:107F6400059B0493049B002B01D0049B42E0019BDE
:107F74001B881A46029B134405221A70019B1B8816
:107F840001339AB2019B1A80019B1B881A46029BFB
:107F9400134412221A70019B1B8801339AB2019B6D
:107FA4001A80039B1A88019B1B881946029B0B4469
:107FB40019461046FFF7ACFC03461946019B1A8884
:107FC4008BB213449AB2019B1A80039B5A88019B7B
:107FD4001B881946029B0B4419461046FFF798FC70
:107FE40003461946019B1A888BB213449AB2019B2B
:107FF4001A800023184607B05DF804FB00B587B06B
:10800400039002910192ADF80230039B9B880233E6
:108014000593019B1B881A46059B13449A1CBDF8C3
:1080240002309A4201D90C2354E0059BFE2B01D95E
:108034000C234FE0059BDAB2019B1B881946029B77
:108044000B440132D2B21A70019B1B8801339AB2DD
:10805400019B1A80019B1B881A46029B1344FF2232
:108064001A70019B1B8801339AB2019B1A80039BEF
:108074001A88019B1B881946029B0B44194610461B
:10808400FFF746FC03461946019B1A888BB213443A
:108094009AB2019B1A80039B9B88002B19D0039BE7
:1080A4009B68002B01D1072314E0019B1B881A460F
:1080B400029B9818039B9968039B9B881A4610F0AF
:1080C400D2FF019B1A88039B9B8813449AB2019B9D
:1080D4001A800023184607B05DF804FB00B589B088
:1080E400039002910192ADF80230039B9B6A002B2E
:1080F40001D1072372E000238DF81F3066E0039B53
:10810400996A9DF81F2013465B0013449B000B449F
:108114000693069B9B8802330593059BFE2B01D98E
:108124000C235BE0059BDAB2019B1B881946029B7A
:108134000B440132D2B21A70019B1B8801339AB2EC
:10814400019B1A80019B1B881A46029B134416222A
:108154001A70019B1B8801339AB2019B1A80069BFB
:108164001A88019B1B881946029B0B44194610462A
:10817400FFF7CEFB03461946019B1A888BB21344C2
:108184009AB2019B1A80069B9B88002B19D0069BF0
:108194009B68002B01D1072320E0019B1B881A4612
:1081A400029B9818069B9968069B9B881A4610F0B8
:1081B4005AFF019B1A88069B9B8813449AB2019B21
:1081C4001A809DF81F3001338DF81F30039B93F8FC
:1081D4002C309DF81F209A4291D30023184609B0F1
:1081E4005DF804FB00B595B005900491039200235B
:1081F4001393039B1B88ADF84A30039B00221A801B
:10820400059B93F82D30002B0ED0BDF84A301A464A
:1082140003990498FFF792FB1390139B1193119BFE
:10822400002B01D0119BD8E0059B9B78002B0ED02E
:10823400BDF84A301A4603990498FFF790FC13904E
:10824400139B1093109B002B01D0109BC5E0059B42
:10825400DB78002B10D0059BDB7858B2BDF84A3090
:10826400039A0499FFF7CBFC1390139B0F930F9B76
:10827400002B01D00F9BB0E0059B5B68002B11D055
:10828400059B5B6893F90000BDF84A30039A049992
:10829400FFF7F4FC1390139B0E930E9B002B01D05D
:1082A4000E9B9AE0059B1B89002B14D0059B03F1C0
:1082B4000800BDF84A300193039B0093049B0622F7
:1082C4000221FFF7C6FD1390139B0D930D9B002B0A
:1082D40001D00D9B81E0059B1B8A002B14D0059BCC
:1082E40003F11000BDF84A300193039B0093049BF3
:1082F40007220321FFF7ADFD1390139B0C930C9BF6
:10830400002B01D00C9B68E0059B1B8B002B14D029
:10831400059B03F11800BDF84A300193039B0093B9
:10832400049B15221421FFF794FD1390139B0B93C8
:108334000B9B002B01D00B9B4FE0059B1B6A002B72
:108344000FD0059B186ABDF84A30039A0499FFF7C9
:10835400F3FD1390139B0A930A9B002B01D00A9BF5
:108364003BE0059B5B6A002B0FD0059B586ABDF868
:108374004A30039A0499FFF741FE1390139B099323
:10838400099B002B01D0099B27E0059B93F82C3017
:10839400002B0ED0BDF84A30039A04990598FFF7D4
:1083A4009DFE1390139B0893089B002B01D0089B00
:1083B40013E0059B1B78002B0ED0BDF84A30039ABE
:1083C40004990598FFF723FB1390139B0793079BCE
:1083D400002B01D0079B00E0139B184615B05DF8F5
:1083E40004FB86B0039001921A460B46ADF80A309E
:1083F40013468DF80930039B002B02D0019B002B00
:1084040001D100233CE00023ADF816300CE0BDF8A8
:108414001630039A13441B789AB2BDF816301344ED
:108424009BB20133ADF81630019B1B88BDF81620B2
:108434009A4209D3BDF816300133039A13441B78CA
:108444009DF809209A4205D0BDF81620BDF80A30DF
:108454009A42DCD3BDF81620BDF80A309A4201D303
:1084640000230DE0BDF8163002339AB2019B1A8046
:10847400BDF81630039A13441B789BB2013B9BB2A0
:10848400184606B0704700B585B001900B46ADF8AC
:10849400023013468DF801300023ADF80C309DF8FE
:1084A400013003AABDF802100198FFF79AFF0346B2
:1084B400ADF80E30BDF80E30002B01D1002304E0DE
:1084C400BDF80C301A46019B1344184605B05DF8FC
:1084D40004FB72DF704700BF184673DF704700BFAC
:1084E400184682B00190019B93F85432184602B0AA
:1084F400704784B00190002303930AE0019A039B20
:1085040013441B78002B01D0012306E0039B0133A5
:108514000393039B052BF1D90023184604B070473D
:1085240082B003468DF807309DF807305A1C074B7C
:1085340083FB02135910D317C91A0B469B000B4433
:10854400D11ACBB2184602B0704700BF67666666A0
:1085540082B001900091009BDB7B012B04D1009B36
:108564009A88019BA3F8482200BF02B0704700B567
:1085740085B001900091019B002283F85222009B58
:108584009A88019BB3F848329A4216D1019B1B7911
:1085940083F00103DBB2002B0FD00121019800F01E
:1085A400ABFA0390039B002B07D0019B9B6B002B22
:1085B40003D0019B9B6B0398984700BF05B05DF8FF
:1085C40004FB00B585B001900091009B1B88262B0D
:1085D4001ED1009B1B7A012B03D0009B1B7A022B1C
:1085E40017D1019B9B781846FFF79AFF034619465B
:1085F400019800F081FA0390039B002B09D0019BA2
:108604009B6B002B05D0019B9B6B0398984700E064
:1086140000BF05B05DF804FB00B585B001900B46C2
:108624008DF80330019B03F24B231846FFF761FFDB
:1086340003468DF80F309DF80330013B032B33D8EC
:1086440001A252F823F000BF5D8602008186020079
:1086540095860200A1860200019B9B79002B0DD018
:10866400019B93F8243083F00103DBB2002B05D087
:108674009DF80F30002B01D0012316E0019BDB791C
:10868400002B05D09DF80F30002B01D002230CE005
:10869400019B1B7A002B01D0032306E0019B5B7A2C
:1086A400002B01D0042300E00023184605B05DF838
:1086B40004FB00BF82B001900091019B012283F86A
:1086C4003120019B0022C3F84422019B03F24A2279
:1086D400009B5A60009B00229A60009B02221A7041
:1086E400009B80229A810023184602B0704782B012
:1086F40001900091019B022283F83120019B93F8A1
:108704002430002B03D0009B07221A7002E0009B48
:1087140003221A70019B1B699AB2009B9A81019BE8
:108724000022C3F84422019B03F24A22009B5A60B0
:10873400019BDA68009B9A600023184602B07047D8
:1087440000B583B00190019B5B79002B0FD0019B96
:1087540093F8523283F00103DBB2002B07D0019867
:10876400FFF7BFFE0346002B01D0012300E00023E6
:1087740003F00103DBB2184603B05DF804FB00B557
:1087840085B001900B468DF80330019BD3F8340279
:10879400019BB3F8383201221946FFF774FE0390A7
:1087A400039B002B03D0039B9DF803201A70019BAD
:1087B40003F15400019B03F50D71019B3C331A46F0
:1087C400FFF787FE0346184605B05DF804FB00B5C5
:1087D40085B001900091019B5A69009B9A60019BAE
:1087E4009B699AB2009B9A81019B93F82430002BD9
:1087F40004D0019B062283F83C2003E0019B012264
:1088040083F83C200198FFF79BFF0346002B13D00D
:10881400009B02221A7504210198FFF7B0FF039010
:10882400039B0293029B002B01D0029B0FE0019B50
:10883400052283F8312003E0019B032283F83120D1
:10884400019B03F50D72019BC3F8442200231846D3
:1088540005B05DF804FB00B585B001900091019B63
:10886400DA69009B9A60019B1B6A9AB2009B9A8109
:10887400019B93F82430002B04D0019B062283F83B
:108884003C2003E0019B012283F83C200198FFF780
:1088940057FF0346002B13D0009B02221A750421B4
:1088A4000198FFF76CFF0390039B0293029B002B3C
:1088B40001D0029B0FE0019B062283F8312003E0E4
:1088C400019B042283F83120019B03F50D72019B67
:1088D400C3F844220023184605B05DF804FB82B0B7
:1088E4000190019B9B78002B06D0019B93F82030CC
:1088F400002B01D000230AE0019B9B6A042B03D0C8
:10890400019B5B6A042B01D1002300E0012318467C
:1089140002B0704782B001900B468DF80330019B82
:108924009DF8032083F8302000BF02B0704730B5B3
:1089340087B001900091009B002B02D0019B002B7B
:1089440001D10E23C4E0009B78331846FFF7C7FF1C
:10895400034683F00103DBB2002B01D00723B7E009
:10896400019B00229A70019A009B141D03F1780563
:108974000FCD0FC40FCD0FC495E8070084E807009E
:10898400019B002283F83020009BD3F8A420019B94
:108994005A63009BD3F8A820019B9A63019B4FF66E
:1089A400FF72A3F84822019B03F50D72019BC3F8E3
:1089B4004422019B03F24A2307220021184610F0A7
:1089C4007BFB019B1B7883F00103DBB2002B03D0FC
:1089D400019BFF2283F85420019B03F15502019B64
:1089E400C3F83422019B93F82430002B04D0019B5C
:1089F400EE22A3F8382203E0019B1F22A3F83822B9
:108A04000098019B03F15501019B03F50E731A466F
:108A1400FFF7E8FB0590059B0493049B002B01D012
:108A2400049B55E0019B03F24312019BC3F83C22D3
:108A3400019B93F82430002B04D0019BEE22A3F871
:108A4400402203E0019B1F22A3F84022009B03F174
:108A54003C00019BD3F83C12019B03F510731A46AA
:108A6400FFF7C0FB0590059B0393039B002B01D0EC
:108A7400039B2DE0019B012283F85120019B9B69FC
:108A84009AB2019BA3F84820019B012283F83C2061
:108A9400019B00221A64019B002283F85020019B51
:108AA4005A69019B5A64019B03F15400019B3C33B6
:108AB4001A460021FFF70DFD0590059B0293029BCA
:108AC400002B01D0029B03E0019B01221A70059B3D
:108AD400184607B030BD82B00190019B1B68012B82
:108AE40003D0019B1B68022B01D1012300E000236A
:108AF400184602B07047000000B585B001900B46DF
:108B04008DF80330019B1B7883F00103DBB2002B4B
:108B140001D0082309E1019B9DF803209A70019B71
:108B240003F24A2307220021184610F0C5FA019BDC
:108B34009B79002B03D0019B9B78012B0FD0019BC9
:108B4400DB79002B03D0019B9B78012B07D0019B81
:108B5400DB79002B14D0019B9B78022B10D1019B55
:108B64005B6B002B08D0019B012283F85122019BEF
:108B74005B6B0820984703E0019B002283F8512295
:108B84009DF8033019460198FFF746FD03461A463F
:108B9400019B9A70019B5B6B002B20D0019B9B78FF
:108BA400032B03D0019B9B78042B18D1019B5B7989
:108BB400002B14D0019B93F8523283F00103DBB2F3
:108BC400002B0CD0019B002283F85422019B01222C
:108BD40083F85322019B5B6B0720984703E0019BBA
:108BE400002283F85322019B3C33182200211846AB
:108BF40010F062FA019B012283F83C20019B2C3384
:108C04001846FFF768FF0346002B06D0019BDB6A7A
:108C1400DAB2019B83F8512003E0019B012283F81F
:108C24005120019B93F82430002B12D0019B2C334C
:108C34001846FFF750FF0346002B06D0019B9B6AA2
:108C4400DAB2019B83F8522003E0019B012283F8EE
:108C54005220019B002283F85020019B9B78042B17
:108C640031D801A252F823F0C18C0200818C020099
:108C7400918C0200A18C0200B18C0200019B3C3358
:108C840019460198FFF716FD03901DE0019B3C3344
:108C940019460198FFF72BFD039015E0019B3C3327
:108CA40019460198FFF793FD03900DE0019B3C33B7
:108CB40019460198FFF7CFFD039005E0019B0022C0
:108CC40083F8312000E000BF019B9B78002B20D06B
:108CD400019B03F15400019BD3F84412019B3C33E4
:108CE4001A46FFF7F6FB0390039B002B01D0039B6E
:108CF4001BE0019B93F85420019B93F830301946F4
:108D04001046FFF7EAFB0390039B002B01D0039B63
:108D14000BE0019B5B6B002B06D0019B5B6B019A04
:108D240092F83120104698470023184605B05DF8A4
:108D340004FB00BF00B585B001900091009B039334
:108D4400019B1B88112B09D0262B0CD0102B00D093
:108D54000EE001990398FFF7FBFB09E001990398E2
:108D6400FFF705FC04E001990398FFF72AFC00BF14
:108D740000BF05B05DF804FB82B00190009100BF14
:108D840002B0704730B58FB0019000910023029378
:108D9400009B002B1AD000230D9314E06B460D9911
:108DA40018460CF048FB0346002B09D0029B5A1CC2
:108DB40002920D9A92B25B000EA90B4423F82C2C5C
:108DC4000D9B01330D930D9B132BE7D9019B1D467E
:108DD40002AC0FCC0FC50FCC0FC594E8070085E893
:108DE400070001980FB030BD00B583B00346ADF85D
:108DF4000630BDF80630132B01D900230CE0BDF872
:108E04000630194606480CF0C4FABDF80630194677
:108E140004480CF0BEFA0123184603B05DF804FBC5
:108E2400382900203429002000B585B00346ADF868
:108E34000630002303930DE0039B9B00094A13446F
:108E44000433BDF80620114618460CF0DCFA039BE7
:108E540001330393039B1C2BEED900BF05B05DF8CF
:108E640004FB00BF3029002000B583B00346ADF8F1
:108E74000630BDF80630194603480CF0C4FA00BFAA
:108E840003B05DF804FB00BF3829002030B59BB067
:108E9400184B9B68DB431893164B5A6818AB114662
:108EA40018460CF094FB189A6B4611461846FFF7C7
:108EB40069FF0DAC6D460FCD0FC40FCD0FC495E8FF
:108EC400070084E80700002319930BE0199B5B005B
:108ED4001AAA134433F8303C1846FFF7A5FF199B30
:108EE400013319930D9B199A9A42EFD300BF1BB01B
:108EF40030BD00BF3029002000B583B003468DF893
:108F040007309DF80730194603480CF094FA0346DD
:108F1400184603B05DF804FB3029002000B585B085
:108F240001900091019B9B88ADF80E30019B1B883A
:108F3400112B22D01A2B26D0102B00D063E0FFF780
:108F4400A5FFBDF80E301846FFF74EFF034683F029
:108F54000103DBB2002B05D02D4AE321042009F0E4
:108F6400D5FB4FE0019BDB7B012B4BD0BDF80E30D2
:108F7400194628480CF00DFA44E0BDF80E301846A6
:108F8400FFF772FF3FE0019B1B7AC3F30313DBB2CD
:108F9400012B8CBF012300238DF80D30019B1B7A1C
:108FA400C3F30313DBB2022B8CBF012300238DF820
:108FB4000C309DF80D30002B17D0BDF80E3019463B
:108FC40015480CF0E6F99DF80C30002B06D0BDF8DE
:108FD4000E30194611480CF0DCF914E0BDF80E30DF
:108FE40019460E480CF00FFA0DE0BDF80E30194684
:108FF40009480CF008FABDF80E30194607480CF081
:1090040002FA00E000BF00BF05B05DF804FB00BF3A
:10901400B49503003C290020402900204429002065
:1090240000B583B00346ADF80630BDF80630132B07
:1090340001D9002306E0BDF80630194603480CF0B8
:10904400FAF90346184603B05DF804FB34290020FE
:1090540000B585B00346ADF8063000238DF80F3017
:10906400BDF806301846FFF7DBFF0346002B11D08E
:10907400BDF8063019460A480CF0DDF903468DF8B0
:109084000E309DF80E30002B01D0022300E00123A6
:109094008DF80F309DF80F30184605B05DF804FBCD
:1090A4003C29002000B585B00346ADF80630002306
:1090B4008DF80F30BDF806301846FFF7B1FF0346B0
:1090C400002B11D0BDF8063019460A480CF0B3F94C
:1090D40003468DF80E309DF80E30002B01D002238C
:1090E40000E001238DF80F309DF80F30184605B0CD
:1090F4005DF804FB3829002000B583B00346ADF8C1
:109104000630BDF806301846FFF78AFF0346002BE9
:1091140007D0BDF80630194604480CF08CF9034614
:1091240000E00023184603B05DF804FB402900204A
:1091340000B583B00346ADF80630BDF806301846D6
:10914400FFF76EFF0346002B07D0BDF80630194623
:1091540004480CF070F9034600E00023184603B0FD
:109164005DF804FB4429002000B583B018210748AA
:109174000CF079F90190019B182B01D1182301E01F
:10918400019BDBB2184603B05DF804FB30290020D4
:1091940000B583B003460A46ADF8063013468DF891
:1091A40005309DF805301846FFF7A6FE0346002B50
:1091B40016D0BDF806301846FFF732FF0346002BE1
:1091C4000ED09DF8053004339B00084A134408333D
:1091D400BDF80620114618460CF02DF9034600E0B0
:1091E4000023184603B05DF804FB00BF30290020BB
:1091F40000B583B00346ADF806300B468DF8053054
:1092040013468DF804309DF805301846FFF774FEB8
:109214000346002B26D0BDF806301846FFF700FFA2
:109224000346002B1ED09DF80430002B0DD09DF872
:10923400053004339B000D4A13440833BDF806205F
:10924400114618460CF0A5F80CE09DF805300433DF
:109254009B00064A13440833BDF8062011461846FD
:109264000CF0D1F800BF03B05DF804FB30290020F6
:1092740000B587B0039002910192029B002B01D1AB
:1092840000231FE000230593039B002B19D0002328
:10929400049313E003AB049918460CF0CCF803468E
:1092A400002B08D0049B9AB2029B01991046984760
:1092B400059B01330593049B01330493049B132BF7
:1092C400E8D9059B184607B05DF804FB00B585B0E6
:1092D4000346029101928DF80F309DF80F30184625
:1092E400FFF70AFE034683F00103DBB2002B01D033
:1092F40000230CE09DF80F30074A04339B0013440D
:109304009B68019A02991846FFF7B2FF0346184674
:1093140005B05DF804FB00BF30290020A0DF7047D2
:1093240000BF1846A1DF704700BF1846ADDF704785
:1093340000BF1846B3DF704700BF184682B00190E3
:10934400019B00221A60BFF35F8F00BF02B0704719
:1093540000B585B00190012101980CF0DDF803906F
:10936400BFF35F8F039B002B0CBF01230023DBB2F1
:10937400184605B05DF804FB82B00190BFF35F8F1F
:10938400019B00221A6000BF02B07047024B00220A
:109394001A7000BF704700BFA829002000B585B02F
:1093A4000190019B5B88184601F054FA03461A4663
:1093B400019B9A800023039308E0084A039B52F818
:1093C400233001989847039B01330393039B002B9D
:1093D400F3D000BF05B05DF804FB00BFF824002003
:1093E40082B00190019B9B79012B0BD1019B1B79CE
:1093F400012B07D1019B5B8842F60212934201D1F3
:10940400012300E0002303F00103DBB2184602B09D
:10941400704700B589B003460091ADF8063002AB41
:1094240000221A605A609A60DA601A615A6107234E
:109434008DF80830BDF80630ADF80A30009B04936F
:1094440002AB1846FFF7AAFF00BF09B05DF804FBA2
:1094540010B58AB00346ADF8063000238DF82730E6
:1094640002AB00221A605A609A60DA601A615A618B
:10947400BDF80630ADF80A30BDF806304FF6FF727D
:10948400934259D0BDF80630184600F02FFF0890DB
:10949400089B0B2B17D00B2B02D8002B07D027E0EF
:1094A400112B0CD043F2020293423AD020E00E2357
:1094B4008DF8083002AB1846FFF770FF32E0012345
:1094C4008DF827302EE00F238DF808301C4A1D4BF1
:1094D400D31ADB081B0443F00203BDF806201A4923
:1094E40018460EF0ADF902AB1846FFF757FF19E026
:1094F400134A144BD31ADB081B0443F001040898E5
:109504000DF06CFC03461A46BDF806300F492046A0
:109514000EF0A7F9BDF8063008991846FFF779FF51
:1095240000E000BF0A4B19789DF82720BDF80630EB
:109534001846FFF75DFE00E000BF0AB010BD00BF93
:10954400989203002092030024960300A49603003B
:10955400B129002000B583B003460A46ADF80630B1
:1095640013468DF80530064B19789DF80520BDF893
:1095740006301846FFF73CFE00BF03B05DF804FB5D
:10958400B029002010B58AB00346ADF80630002398
:109594008DF8273000238DF82630BDF806301846A4
:1095A40000F01AFE0890089B112B0FD0112B02D843
:1095B400002B07D030E0862B0CD043F202029342FA
:1095C40043D029E001238DF826303FE001238DF8B4
:1095D40027303BE002AB00221A605A609A60DA60DE
:1095E4001A615A6106238DF80830BDF80630ADF8CB
:1095F4000A301D4A1D4BD31ADB081B0443F0020337
:10960400BDF806201A4918460EF01AF902AB18469E
:10961400FFF7C4FE00BF19E0134A144BD31ADB084A
:109624001B0443F0010408980DF0D8FB03461A46C6
:10963400BDF806300F4920460EF013F9BDF8063088
:1096440008991846FFF7E5FE00E000BF9DF82720C3
:10965400BDF8063011461846FFF77CFF9DF826300A
:1096640018460AB010BD00BF989203002092030070
:10967400F89603003097030000B589B003460091C3
:10968400ADF8063000238DF81F300DF1160318468F
:10969400FFF750FE06900123ADF81C3046E002238C
:1096A400ADF80C300023ADF80E3005AB049303AADB
:1096B400BDF81C10BDF806301846FFF737FE0690BB
:1096C400069B002B01D0069B37E09DF81F3083F0EA
:1096D4000103DBB2002B09D0BDF8143042F6052299
:1096E400934203D101238DF81F301AE09DF81F30F7
:1096F400002B16D0BDF8143042F60212934210D15A
:10970400009B0493BDF81C300133ADF81C3003AA50
:10971400BDF81C10BDF806301846FFF707FE0346D7
:109724000BE0BDF81C300133ADF81C30BDF8163029
:10973400BDF81C209A42B2D30523184609B05DF83F
:1097440004FB000010B58CB00346ADF806300123CD
:109754008DF82F3000238DF82E30BDF806301846D2
:1097640000F074FE0A900A9B082B29D0082B04D819
:10977400002B0DD0062B33D045E043F20202934276
:109784005AD043F20142934237D0112B56D03AE0DB
:1097940004AB00221A605A609A60DA601A615A6156
:1097A40010238DF81030BDF80630ADF812300123C7
:1097B4008DF82E3004AB1846FFF7F0FD00BF3EE0F5
:1097C4000DF10E02BDF8063011461846FFF754FF9E
:1097D4000A900A9B002B03D1BDF80E30002B2ED12A
:1097E40000238DF82F30BDF80630184601F032F80A
:1097F4000346184600F072FE21E0BDF80630184614
:10980400FFF726FE1BE0184A184BD31ADB081B048B
:1098140043F001040A980DF0E1FA03461A46BDF834
:109824000630134920460EF01CF8BDF806300A999C
:109834001846FFF7EEFD02E000BF00E000BF0D4B4D
:1098440019789DF82F20BDF806301846FFF7D0FC94
:10985400094B19789DF82E20BDF806301846FFF7FD
:10986400C7FC00BF0CB010BD989203002092030007
:1098740070970300B2290020B329002000B583B0FB
:1098840003460091ADF80630BDF806301846FFF7E0
:10989400DFFD00BF03B05DF804FB000008B5044B16
:1098A4001B78002203491846FFF710FD00BF08BDCE
:1098B400B12900208198020000B583B003460091CD
:1098C400ADF806300A48FFF743FD0346002B0CD0E1
:1098D400BDF806301846FFF755FE0346002B03D1AA
:1098E4000348FFF749FD00E000BF03B05DF804FB47
:1098F400AC29002000B583B003460091ADF80630D2
:109904000B4B1A78BDF8063011461846FFF740FC99
:10991400034683F00103DBB2002B04D0BDF806300C
:109924001846FFF70FFF00BF03B05DF804FB00BF4C
:10993400B329002008B5044B1B78002203491846BC
:10994400FFF7C4FC00BF08BDB2290020F99802004B
:1099540000B583B00346ADF80630BDF806301846AE
:1099640000F050FD0346002B07D0064B1978BDF8D4
:10997400063001221846FFF73BFC00BF03B05DF838
:1099840004FB00BFB229002000B587B00346009154
:10999400ADF8063004AB0422002118460FF08CFB0E
:1099A40042F6A623ADF8103001238DF812300D4B8A
:1099B4001B68039303AA04A9BDF806301846FFF7F1
:1099C400ADFC0590059B002B07D1074B1978BDF81A
:1099D400063001221846FFF70BFC00BF07B05DF804
:1099E40004FB00BFB0970300B529002000B585B083
:1099F4000346ADF80630BDF80630184600F02AFFDD
:109A04000346184602AA0023092101F087FF0346F2
:109A1400052B07D1054B1978BDF8063001221846ED
:109A2400FFF7E6FB00BF05B05DF804FBB429002096
:109A340000B583B00B4B1B7800220B491846FFF787
:109A440045FC0190019B002B07D1084B1B78002299
:109A540007491846FFF73AFC019000BF03B05DF8D0
:109A640004FB00BFB0290020BD980200B4290020E7
:109A74008D99020000B583B00190019B1B78002BE7
:109A840000D011E0019B5B881846FFF7E1FC019BC5
:109A94005B881846FFF75CFF019B5B881846FFF75D
:109AA400A5FFFFF7C5FF00BF00BF03B05DF804FBCF
:109AB40000B589B00190019B1B78082B57D1019BFD
:109AC4005B7A002B53D1019B1B7A072B04D0082B04
:109AD40045D0012B1AD051E0019B9B88184600F019
:109AE40063FF0346ADF81E30BDF81E304FF6FF721B
:109AF40093423ED0BDF81E3001211846FFF72AFDDF
:109B0400BDF81E301846FFF771FF32E0019B9B88B9
:109B140003AA0121184603F0C3F80690069B002B04
:109B240029D1049B1B78002B25D0019B9B881846C8
:109B340000F03AFF0346ADF81630BDF816304FF684
:109B4400FF72934217D0104B1978BDF816300122DA
:109B54001846FFF74DFBFFF7EDFE00BF0BE00B4B84
:109B64001B68012B09D10948FFF706FC05E000BF7B
:109B740004E000BF02E000BF00E000BFFFF758FFB1
:109B840000BF09B05DF804FBB2290020AC29002015
:109B940008B5FFF7FBFBFFF7E7FA03461A462C4B21
:109BA4001A70FFF7E1FA03461A462A4B1A70FFF7B8
:109BB400DBFA03461A46284B1A70FFF7D5FA034618
:109BC4001A46264B1A70FFF7CFFA03461A46244B5F
:109BD4001A70FFF7C9FA03461A46224B1A70FFF7A8
:109BE400C3FA03461A46204B1A70194B1B78182BDC
:109BF40017D0184B1B78182B13D0174B1B78182B26
:109C04000FD0164B1B78182B0BD0154B1B78182B29
:109C140007D0144B1B78182B03D0134B1B78182B2D
:109C24000CD1124A124BD31ADB081B0443F0010374
:109C3400104918460DF0F6FD032306E00E48FFF721
:109C44007DFB0E4B01221A700023184608BD00BF8D
:109C5400B0290020B1290020B2290020B329002016
:109C6400B4290020B5290020B629002098920300C9
:109C740020920300B4970300AC290020A8290020F7
:109C840010B586B003460A46ADF8063013468DF883
:109C9400053003AB00221A605A600123ADF80C3082
:109CA40009238DF80E30194B1978BDF806300022BF
:109CB4001846FFF79DFA9DF80530002B01D0144B90
:109CC40000E0144B0493BDF80630184600F0C2FDC2
:109CD4000346184603AB0022194601F0E7FE05903F
:109CE400059B002B0FD00C4A0C4BD31ADB081B042A
:109CF40043F0020405980DF071F803461A4608492A
:109D040020460DF09DFD00BF06B010BDB429002013
:109D1400389903003C9903009892030020920300B1
:109D24002498030000B58DB00190019B9B88ADF889
:109D34002C30019B1B88353B1F2B00F26A8101A24A
:109D440052F823F05D9E02005F9F020017A00200FC
:109D540017A0020017A0020017A0020017A002001B
:109D640017A0020017A0020017A0020017A002000B
:109D740017A0020017A0020017A0020017A00200FB
:109D840017A0020017A0020017A0020017A00200EB
:109D940017A0020017A0020017A0020017A00200DB
:109DA40017A0020017A0020017A0020017A00200CB
:109DB400399E020017A00200C99D020017A00200EC
:109DC400D59D0200BDF82C301846FFF741FB20E179
:109DD40002AB00221A605A609A60DA601A615A6112
:109DE40011238DF80830BDF82C30ADF80A30BDF8D9
:109DF4002C30184600F02EFD0346ADF80C30BDF8AB
:109E04000C30184600F06AFB864B1978BDF82C30EC
:109E140000221846FFF7ECF9834B1978BDF82C3073
:109E240000221846FFF7E4F902AB1846FFF7B6FA2A
:109E340000BFEEE0019B06331846FFF7D1FA034654
:109E4400002B00F0DF80BDF82C3001211846FFF70D
:109E540081FBFFF7EDFDD5E000238DF82F30019B4A
:109E64009B88ADF82C30019B0A3309936F4B1A7809
:109E7400BDF82C3011461846FFF78AF9034683F0E3
:109E84000103DBB2002B40F0BF80684B1978BDF8AA
:109E94002C3000221846FFF7ABF9019BDB88B3F5A1
:109EA400857F4CD0019BDB88002B0DD0604A614B31
:109EB400D31ADB081B0443F00200019BDB881A461B
:109EC4005D490DF0BDFC3AE0099B1B88012B0CD0C9
:109ED400574A584BD31ADB081B0443F00200099B72
:109EE4001B881A4655490DF0ABFC099B5B88012B76
:109EF4000DD04F4A4F4BD31ADB081B0443F002002A
:109F0400099B5B881A464E490DF09AFC17E0099BA1
:109F140004331988BDF82C3000221846FFF702FAE2
:109F24000890089B002B0AD101238DF82F30454B54
:109F34001978BDF82C3001221846FFF759F99DF81D
:109F44002F3083F00103DBB2002B5FD0BDF82C303F
:109F540000211846FFF794FE58E000238DF82E30B8
:109F6400019B9B88ADF82C30019B0A330A93354B37
:109F74001A78BDF82C3011461846FFF709F9034644
:109F840083F00103DBB2002B42D12E4B1978BDF8CC
:109F94002C3000221846FFF72BF9019BDB88002B9D
:109FA4000DD0234A234BD31ADB081B0443F00200D1
:109FB400019BDB881A4620490DF042FC19E00A9BFC
:109FC4009B88012B0DD01A4A1A4BD31ADB081B04A9
:109FD40043F002000A9B9B881A4619490DF030FC95
:109FE40007E00A9B9B79002B14BF012300238DF803
:109FF4002E309DF82E20BDF82C3011461846FFF760
:10A004003FFE06E000BF04E000BF02E000BF00E046
:10A0140000BFFFF743FCFFF78DFC00BF0DB05DF8F8
:10A0240004FB00BFB3290020B2290020B529002079
:10A03400989203002092030084980300C0980300C0
:10A04400FC980300B6290020AFDF704700BF184614
:10A05400B1DF704700BF1846B2DF704700BF184633
:10A06400B3DF704700BF1846044B00221A70044B3C
:10A074004FF6FF721A8000BF704700BFB729002057
:10A08400B829002000B585B00190019B9B88184633
:10A0940000F08AFC03461A46019B5A80002303936E
:10A0A40008E0084A039B52F8233001989847039B21
:10A0B40001330393039B002BF3D000BF05B05DF87D
:10A0C40004FB00BFFC24002010B58AB02E4A07AB65
:10A0D40092E8030083E803004AE02C4B1B8807A99D
:10A0E4000022184601F0E2FC0990099B002B36D0AF
:10A0F40001AB00221A605A609A60DA601A615A61F0
:10A10400224B1B88ADF80830099B112B37D0099BD3
:10A11400862B07D106238DF8043001AB1846FFF7D0
:10A12400B1FF2CE01A4A1B4BD31ADB081B0443F083
:10A13400010409980CF052FE03461A46134B1B887F
:10A14400154920460DF08DFB07238DF80430099B3B
:10A15400039301AB1846FFF795FF00BF0FE00B4BCD
:10A164001B88184601F066FD03461A46074B1A8001
:10A17400064B1B884FF6FF729342AED100E000BF3E
:10A1840000BF0AB010BD00BFAC990300B82900207D
:10A19400A0920300209203005499030000B583B0F9
:10A1A4000190064B1B884FF6FF72934201D0FFF7D4
:10A1B4008BFF00BF03B05DF804FB00BFB82900208B
:10A1C40008B5FFF751FF034B01221A70002318460C
:10A1D40008BD00BFB729002030B58BB00346ADF8E9
:10A1E4000630BDF80630184600F034FB0346ADF8DF
:10A1F4001E30BDF81E304FF6FF72934202D143F277
:10A2040002036AE00123ADF8223000238DF82130E7
:10A2140000238DF82130BDF822305A1CADF82220DD
:10A224001A4603ABBDF81E00082102F04FFD099049
:10A23400099B002B47D1049B0693069B03221A60BB
:10A24400069B991D069B1A1D069B1B68BDF80600FC
:10A25400FFF702FF0990099B002B09D1BDF81E20CE
:10A26400BDF81E300821184602F0EFFD09902FE0DA
:10A27400099B0C2B03D101238DF8213004E0099BA9
:10A28400052B01D100230993BDF81E30082118467F
:10A2940002F0BCFD0590059B002B19D0104A114B10
:10A2A400D31ADB081B0443F00104BDF81E500598C3
:10A2B4000CF094FD03462A460B4920460DF0D1FAD2
:10A2C4000323099304E0099B072B01D10C23099371
:10A2D4009DF82130002B9BD1099B18460BB030BD53
:10A2E400A092030020920300B499030000B58BB040
:10A2F4000346ADF80630BDF80630184600F0AAFA59
:10A304000346ADF81430002308930023ADF81E3043
:10A314000323069301238DF81730BDF814304FF64C
:10A32400FF72934216D002AABDF8143008211846D1
:10A3340002F0B6FC0990099B002B0BD1039B0493FC
:10A34400049B06330893049B9B88ADF81E30049B42
:10A354001B680693BDF81E20BDF80600069B0899ED
:10A36400FFF776FE0990099B042B02D11123099370
:10A3740031E0099B082B02D1002309932BE0099BB0
:10A384000B2B28D100238DF81730069B03F0020312
:10A39400002B02D0012306931DE0089B002B03D160
:10A3A400BDF81E30002B07D0002308930023ADF81E
:10A3B4001E30032306930EE00F4A104BD31ADB081A
:10A3C4001B0443F00103BDF806200D4918460DF0A7
:10A3D40037FA03230993099B0B2BBBD09DF8173045
:10A3E40083F00103DBB2002B01D00B230993099BFB
:10A3F40018460BB05DF804FBA09203002092030002
:10A40400349A030000B589B00346ADF806300DF167
:10A4140017030493BDF80630184600F01BFA0346F0
:10A42400ADF81E3003AABDF81E300121184602F013
:10A4340037FC0690069B002B01D0002301E0049B0F
:10A444001B78184609B05DF804FB000010B584B011
:10A454000346ADF806304FF6FF73ADF80E301B48D7
:10A46400FFF7FEFD0290029B002B11D0184A194BF6
:10A47400D31ADB081B0443F0010402980CF0AEFC71
:10A4840003461A46144920460DF0DAF903231AE06C
:10A494000E4B1988BDF80E20BDF806301846FFF79C
:10A4A400D3FD0290029B43F20302934205D1074B72
:10A4B4001B8801339AB2054B1A80029B43F20302B4
:10A4C4009342E5D0029B184604B010BDBA2900207F
:10A4D400A092030020920300AC9A030000B585B05B
:10A4E4000346ADF80630084A02AB92E8030083E85D
:10A4F400030002A9BDF806300022184601F0D6FA7E
:10A5040000BF05B05DF804FBF89A030046DF70470E
:10A5140000BF184600B585B001900023039308E0FE
:10A52400074A039B52F8233001989847039B013351
:10A534000393039B012BF3D900BF05B05DF804FB23
:10A54400089C030084B00190002303930AE0019A5D
:10A55400039B13441B78002B01D0012306E0039BCB
:10A5640001330393039B0F2BF1D90023184604B046
:10A57400704700B583B001900091019B002B02D07D
:10A58400009B002B01D100231BE0019B1B78C3F32C
:10A594004603DAB2009B1B78C3F34603DBB29A424C
:10A5A40001D000230DE0019B581C009B01330622BF
:10A5B40019460EF022FD0346002B0CBF0123002395
:10A5C400DBB2184603B05DF804FB000030B599B067
:10A5D4000190019B1B88102B40F09180019B0CACD7
:10A5E4001D1D0FCD0FC40FCD0FC495E8070084E8DF
:10A5F40007004FF6FF73ADF85E309DF8343023F05A
:10A604000103DBB2062B47D001F0F2F99DF8343098
:10A61400C3F34603DBB2002B3DDB012B14DD022B1D
:10A624002ED038E00A9B03F111020CAB043311461F
:10A634001846FFF79EFF0346002B05D0BDF82E30C9
:10A64400ADF85E3000BF27E009AA0DF12E031946CC
:10A65400072001F0D7F90346002BE3D11CE00A9B45
:10A664005A1C0CAB04331146184600F08FFA03460B
:10A67400002B05D0BDF82E30ADF85E3000BF0BE0E6
:10A6840009AA0DF12E031946072001F0BBF9034670
:10A69400002BE4D100E000BFBDF830301946194A60
:10A6A4000B469B000B445B001344BDF85E201A80EC
:10A6B400BDF830301946134A0B469B000B445B002F
:10A6C400134402330DAA1068186091889279998016
:10A6D4009A71BDF85E304FF6FF72934210D0BDF808
:10A6E4003030ADF80E30BDF85E30ADF810300023D8
:10A6F4008DF80C3003AB1846FFF70CFF00E000BFE9
:10A7040019B030BDBC29002000B587B0019000917C
:10A71400019B11330593009B11330493019B581C37
:10A72400009B0133102219460EF067FC0346002BF0
:10A7340011D1019B01331846FFF704FF0346002B98
:10A7440009D0009B01331846FFF7FCFE0346002B9B
:10A7540001D0012300E000238DF80F309DF80F3065
:10A7640003F001038DF80F3004990598FFF701FFFA
:10A7740003468DF80E30059B1B7823F00103DBB2F2
:10A78400042B16D0059B1B7823F00103DBB2062BA8
:10A794000FD0049B1B7823F00103DBB2042B08D0F9
:10A7A400049B1B7823F00103DBB2062B01D00123A9
:10A7B40000E000238DF80D309DF80D3003F0010307
:10A7C4008DF80D309DF80E30002B03D09DF80D3020
:10A7D400002B0AD19DF80F30002B08D09DF80D30C6
:10A7E40083F00103DBB2002B01D0012300E000233E
:10A7F40003F00103DBB2184607B05DF804FB00B5B3
:10A8040087B001900B46ADF8023001F0F1F810E08A
:10A81400BDF81630BDF802209A420AD0049B1946AE
:10A824000198FFF771FF0346002B02D0BDF81630E4
:10A834000BE003AA0DF116031946072001F0E2F814
:10A844000346002BE4D14FF6FF73184607B05DF8BA
:10A8540004FB000000B583B00346ADF80630BDF834
:10A864000630132B0AD8BDF806301846FEF7D8FB7D
:10A87400034683F00103DBB2002B02D04FF6FF73D3
:10A8840008E0BDF80620054913469B0013445B000D
:10A894000B441B88184603B05DF804FBBC29002058
:10A8A40000B583B003460091ADF80630BDF806301C
:10A8B400132B0AD8BDF806301846FEF7B1FB034641
:10A8C40083F00103DBB2002B02D043F2020311E058
:10A8D400BDF806200098094913469B0013445B0009
:10A8E4000B44024602331968116099889B79918060
:10A8F40093710023184603B05DF804FBBC290020C3
:10A9040000B583B001900091019800F089F80346E6
:10A9140083F00103DBB2002B01D0002315E0019B7F
:10A924001A88009B1B889A4201D000230DE0019BEA
:10A93400981C009B0233082219460EF05EFB034666
:10A94400002B0CBF01230023DBB2184603B05DF8D3
:10A9540004FB00B587B0019001F04AF814E0049BB1
:10A96400463319460198FFF7CBFF0346002B08D165
:10A97400049B2A3319460198FFF7C2FF0346002BB4
:10A9840002D0BDF816300BE003AA0DF116031946E8
:10A99400072001F037F80346002BE0D14FF6FF7390
:10A9A400184607B05DF804FB00B585B00346ADF862
:10A9B4000630BDF806304FF6FF72934202D14FF6CF
:10A9C400FF7326E00023ADF80E301CE0BDF80E2026
:10A9D400124913469B0013445B000B441B88BDF8CB
:10A9E40006209A420AD1BDF80E301846FEF718FB2D
:10A9F4000346002B02D0BDF80E300AE0BDF80E303D
:10AA04000133ADF80E30BDF80E30132BDED94FF6FE
:10AA1400FF73184605B05DF804FB00BFBC29002095
:10AA240084B00190019B1B88002B01D0012312E00C
:10AA3400002303930BE0019A039B134402331B7816
:10AA4400002B01D0012306E0039B01330393039BF6
:10AA5400072BF0D90023184604B0704782B0034690
:10AA64000A46ADF806301346ADF80430BDF806309A
:10AA7400132B0AD8BDF80620054913469B0013443E
:10AA84005B000B44BDF804201A8000BF02B070477D
:10AA9400BC29002000B585B00346ADF80630BDF8EA
:10AAA40006301846FFF780FF0346ADF80E30BDF8B8
:10AAB4000630184602F082F80290029B002B0ED159
:10AAC400BDF80E30132B0AD8BDF80E2006491346E4
:10AAD4009B0013445B000B444FF6FF721A80029BE9
:10AAE400184605B05DF804FBBC29002000B595B0FC
:10AAF400039002910192002313930DE0139BC3F181
:10AB04000F03039A1344197805AA139B13440A46A6
:10AB14001A70139B01331393139B0F2BEED905ABC0
:10AB240010330D22002118460EF0C6FA00231293AA
:10AB34000DE0029A129B1A44129BC3F10F03127880
:10AB440014A90B4403F82C2C129B01331293129B6F
:10AB5400022BEED905AB1846FFF7D8FC002311935E
:10AB64000DE0119BC3F10F020199119B0B4414A931
:10AB74000A4412F81C2C1A70119B01331193119B77
:10AB8400022BEED900BF15B05DF804FB00B587B009
:10AB940001900091019B1B7823F00103DBB2042B8D
:10ABA40001D000231FE0019B591C05AB032218466A
:10ABB4000EF059FA019B191D03AB032218460EF03F
:10ABC40052FA009B04AA03A91846FFF78FFF04A9B1
:10ABD40005AB032218460EF010FA0346002B0CBFF7
:10ABE40001230023DBB2184607B05DF804FB90DFB5
:10ABF400704700BF1846A5DF704700BF1846B5DF91
:10AC0400704700BF184682B00190019B17221A803A
:10AC1400019B17225A80019B00221A71019B00227A
:10AC24005A71019B1B229A71019B1B22DA7100BF8E
:10AC340002B0704730B589B003460A46ADF8063015
:10AC44001346ADF80430BDF80430ADF81430BDF847
:10AC54000430ADF816300023ADF818300023ADF8F9
:10AC64001A3003AB00221A609A8003AA05A9BDF822
:10AC740006301846FFF7BBFF0790079B002B39D01F
:10AC84001E4A1F4BD31ADB081B0443F00104BDF812
:10AC9400065007980CF0A2F803462A4619492046A4
:10ACA4000CF0DFFDBDF80C30002B03D1BDF80E30E5
:10ACB400002B0ED0114A124BD31ADB081B0443F0AD
:10ACC4000100BDF80C301A46BDF80E300E490CF0E8
:10ACD400C8FDBDF81030002B0CD0084A084BD31A1D
:10ACE400DB081B0443F00103BDF810200749184694
:10ACF4000CF0A6FD079B184609B030BD6092030016
:10AD040020920300209C03006C9C0300AC9C030075
:10AD140010B586B001900091009B9B88ADF80E3071
:10AD2400BDF80E30DB00019A134406330593019BF2
:10AD34001A79059B9A71009BDB7B012B02D0022BB5
:10AD440005D009E0019B1A88059B1A8004E0019B49
:10AD54005A88059B1A8000BF059B1A88059B5B884F
:10AD64009A4226D9059B1A88BDF80E30114618461A
:10AD7400FFF741FF0490049B002B03D1059B0122A4
:10AD84005A7116E0049B112B03D1059B01221A7101
:10AD94000FE0114A114BD31ADB081B0443F00104E2
:10ADA40004980CF01BF803461A460D4920460CF093
:10ADB40047FD059B9A79059BDB799A4208D9059B47
:10ADC4009B799AB2BDF80E3011461846FFF732FF50
:10ADD40000BF06B010BD00BF6092030020920300C4
:10ADE400049D030000B583B001900091009B9B88F3
:10ADF400DB00019A134406331846FFF704FF00BF33
:10AE040003B05DF804FB00B587B001900091009B8E
:10AE14009B88ADF81630009B5B89ADF81430BDF803
:10AE24001630DB00019A134406330493049B1B88F9
:10AE3400BDF81420934228BF13469AB2049B5A804B
:10AE4400049B5B88172B38BF17239AB2049B5A8044
:10AE5400019B1B69002B15D0049B5B79002B11D03F
:10AE640040F67723ADF80830BDF81630ADF80A3057
:10AE7400049B5B88ADF80C30019B1B6902AA114648
:10AE840001989847049B00225A71049B00221A716E
:10AE940000BF07B05DF804FB10B588B001900091C5
:10AEA400009B9B88ADF81A30009BDB88ADF8183006
:10AEB400BDF81A30DB00019A134406330593BDF83C
:10AEC4001830172B38BF1723ADF81830059B1B8893
:10AED400BDF81820934228BF13469AB2059B5A80A6
:10AEE400059B00221A71059B1A88BDF81A30114679
:10AEF4001846FFF784FE0790079B002B0FD0174AD4
:10AF0400174BD31ADB081B0443F0010407980BF01A
:10AF140065FF03461A46134920460CF091FC059B35
:10AF24005B79002B16D1019B1B69002B13D040F6D3
:10AF34007723ADF80C30BDF81A30ADF80E30059B10
:10AF44005B88ADF81030019B1B6903AA1146019878
:10AF5400984700E000BF08B010BD00BF6092030036
:10AF640020920300389D030030B591B00190009108
:10AF7400009B04AC1D1D0FCD0FC40FCD0FC495E86D
:10AF8400070084E80700BDF81030ADF83E30BDF886
:10AF94001420BDF83E30D1B2019ADB0013440A46B6
:10AFA4005A73019B1B69002B19D002AB00221A6053
:10AFB4009A804DF67A23ADF80830BDF83E30ADF8EE
:10AFC4000A30BDF83E30019ADB0013445B7B8DF8F8
:10AFD4000C30019B1B6902AA11460198984700BFD7
:10AFE40011B030BD00B587B001900091009B0433CF
:10AFF4000593059B1B88DB00019A134406330493D5
:10B00400059B9B888DF80F30049B9B799DF80F203E
:10B01400934228BF13468DF80E30059B1B889DF87C
:10B024000E2092B211461846FFF704FE00BF07B087
:10B034005DF804FB00B585B001900091019B002BE5
:10B0440001D10E231DE0019B009A1A61019B172276
:10B054001A80019B17225A80019B1B221A7100231C
:10B0640003930AE0039BDB00019A1344063318465A
:10B07400FFF7C9FD039B01330393039B002BF1D01E
:10B084000023184605B05DF804FB000010B586B037
:10B0940001900091009B0593019B9B88ADF81230B1
:10B0A400BDF81230002B6AD1019B1B88232B26D0BC
:10B0B400232B04DC102B09D0112B0CD024E03A2BC9
:10B0C4000ED0552B11D0242B14D01DE001990598D6
:10B0D400FFF71EFE18E001990598FFF783FE13E0C1
:10B0E40001990598FFF78FFE0EE001990598FFF787
:10B0F400D3FE09E001990598FFF736FF04E00199B2
:10B104000598FFF76FFF00BFBDF81230059ADB000A
:10B1140013449B7A002B33D0BDF81230059ADB0020
:10B124001344DA88BDF8123011461846FFF763FD60
:10B134000390039B002B0ED1BDF81230059ADB005F
:10B14400134400229A72BDF81230059ADB001344AE
:10B154000122DA7214E0039B112B11D0094A0A4B25
:10B16400D31ADB081B0443F0010403980BF036FEEA
:10B1740003461A46054920460CF062FB00E000BF76
:10B1840006B010BD6092030020920300049D0300EA
:10B19400B0DF704700BF184666DF704700BF18462F
:10B1A40082B001900091019B002B01D10E2316E087
:10B1B400009B002B01D10E2311E0019B1B78DE2B99
:10B1C40001D108230BE0009B1A68019B5A60019B84
:10B1D400DE221A70019B4FF6FF725A800023184634
:10B1E40002B0704782B001900B46ADF80230019B6B
:10B1F400002B01D10E230AE0019B1B78DE2B01D02A
:10B20400082304E0019BBDF802205A80002318465D
:10B2140002B0704700B585B00190019B1B7A002BEA
:10B2240018D0019B5B8800211846FFF7B5FF0390F7
:10B23400039B002B03D1019B00221A720AE0039B9B
:10B24400112B03D1019B01221A7203E0019B5B685D
:10B254000398984700BF05B05DF804FB00B583B0C0
:10B2640001900091009B1B79012B0BD1009B1A8844
:10B27400019B5B889A4205D1019B01221A720198B5
:10B28400FFF7C8FF00BF03B05DF804FB82B0019074
:10B29400009100BF02B0704700B589B001900091E1
:10B2A400009B1A88019B5B889A4236D1009B02332B
:10B2B4000793079B1B78022B31D1079B1B7A042B26
:10B2C40007D0079B1B7A062B03D0079B1B7A052B01
:10B2D40027D102AB00221A605A609A60DA60022316
:10B2E4008DF808304FF4C073ADF80C30079B1B7A0F
:10B2F400052B02D10023ADF80C30009B1B8802AA59
:10B3040011461846FFF744FF0690069B002B09D010
:10B31400019B5B680698984704E000BF02E000BF09
:10B3240000E000BF09B05DF804FB00B585B00190F2
:10B334000091009B002B3FD0019B002B3ED0009B33
:10B344000393039B1B78DE2B3AD1019B9A88039BC2
:10B354005B889A4202D10398FFF75CFF019B1B882C
:10B36400022B10D0022B02DC012B05D02BE0112B79
:10B3740017D0512B0ED026E0019B043319460398B5
:10B38400FFF76CFF1FE0019B043319460398FFF796
:10B394007DFF18E0019B043319460398FFF77CFFF7
:10B3A40011E0019B9A88039B5B889A420AD1039B14
:10B3B4004FF6FF725A8005E000BF04E000BF02E0D0
:10B3C40000BF00E000BF05B05DF804FB00B585B028
:10B3D4000190019B4FF6FF725A800023039305E00E
:10B3E400064B01989847039B01330393039B002B5F
:10B3F400F6D000BF05B05DF804FB00BFA9CA020087
:10B4040082B00346ADF80630BDF80630A3F580439C
:10B414009BB2184602B0704782B00346ADF80630BE
:10B42400BDF8063003F580439BB2184602B070475E
:10B4340082B003468DF807309DF807309BB2A3F520
:10B4440080439BB2184602B0704782B00346ADF801
:10B454000630BDF80630DBB2184602B0704782B041
:10B464000346ADF80630BDF80630B3F5404F07D3B8
:10B47400BDF806304FF6FF72934201D0012300E07D
:10B48400002303F00103DBB2184602B0704782B018
:10B494000346ADF80630BDF80630B3F5404F07D388
:10B4A400BDF806304FF6FF72934201D0012300E04D
:10B4B400002303F00103DBB2184602B0704782B0E8
:10B4C40003468DF807309DF80730072B17D09DF8F9
:10B4D4000730012B13D09DF80730082B0FD09DF8AF
:10B4E4000730052B0BD09DF80730062B07D09DF8AD
:10B4F4000730092B03D09DF80730042B01D1012319
:10B5040000E0002303F00103DBB2184602B07047E9
:10B5140000B589B003460091ADF8063013468DF8A6
:10B52400053002AB00221A605A609A60DA601A6130
:10B534005A6107238DF80830BDF80630ADF80C3099
:10B54400009B04939DF805308DF8143002AB184627
:10B55400FFF73CFF00BF09B05DF804FB00B589B0FC
:10B56400344B00221A7001AB0822002118460DF05A
:10B57400A3FD4FF6FF7001F005FE0346ADF81E3043
:10B584000CE0BDF81E30184601F04EFDBDF81E302B
:10B59400184601F0F7FD0346ADF81E30BDF81E3025
:10B5A4004FF6FF7293420ED0BDF81E301846FFF7D7
:10B5B40027FF0346184601AA03AB194609F089FD83
:10B5C40003460A2BDDD0BDF81E304FF6FF729342BE
:10B5D4002BD0BDF81E301846FFF712FF0346ADF816
:10B5E4001C30BDF81C30184609F0E2FC0690069B9E
:10B5F400082B03D10F4B01221A7016E0069B002B77
:10B6040013D00D4A0D4BD31ADB081B0443F0010081
:10B61400BDF81E30069A0A490CF023F9BDF81E3015
:10B62400012206991846FFF773FF00BF09B05DF8C1
:10B6340004FB00BF852A0020C0920300209203006F
:10B644007C9D030000B587B003460092ADF8063038
:10B654000B468DF805309DF805301846FFF72FFF8F
:10B6640002AB0822002118460DF026FDBDF8063075
:10B674001846FFF7C5FE0346ADF816309DF80530B1
:10B684001846FFF7D5FE0346ADF8143002ABBDF8FB
:10B694001410BDF81600009A09F0F2FC0490049B03
:10B6A400002B01D0052300E00023184607B05DF805
:10B6B40004FB00B589B06B460822002118460DF042
:10B6C400FBFC0720FFF7B4FE0346ADF81E3016E07E
:10B6D40002AA04AB1146184609F0C2FB029B9B88E0
:10B6E4001846FFF799FE0346ADF81C3004AB184624
:10B6F40009F0F2FBBDF81C30184601F05DFC6A4607
:10B7040004A9BDF81E30184609F0D0FC0346002BEE
:10B71400DED000BF09B05DF804FB000000B589B0BD
:10B72400019002AB00221A605A609A60DA601A61D2
:10B734005A61019B9B891846FFF76EFE0346ADF8DC
:10B744000C30019B1B78013B042B00F2918001A279
:10B7540052F823F06DB702006DB702006DB7020016
:10B76400EDB7020041B80200019B9B891846FFF720
:10B7740076FE0346002B07D1019BDB891846FFF7B1
:10B7840086FE0346002B75D0019BDB891846FFF724
:10B794005CFE03468DF81030019B1B78032B0CBF15
:10B7A40001230023DBB28DF81130019B9B680593C4
:10B7B400019B5B68002B09D108238DF808309DF8A4
:10B7C400183043F001038DF8183008E009238DF890
:10B7D4000830019B5B68069301238DF81C3002AB93
:10B7E4001846FFF7F3FD45E0019B9B891846FFF7D8
:10B7F40036FE0346002B3FD0019BDB89002B3BD157
:10B80400019B5B68002B08D10A238DF80830BDF832
:10B814000C30184601F008FC08E00B238DF80830C2
:10B82400019B5B68049301238DF81430184B0122AB
:10B834001A7002AB1846FFF7C9FD1DE0019B5B6857
:10B84400002B03D113238DF8083008E014238DF85E
:10B854000830019B5B68049301238DF814304FF684
:10B86400FF73ADF80C3002AB1846FFF7AFFD04E0F0
:10B8740000BF02E000BF00E000BF054B1B78DBB255
:10B88400002B01D0FFF76AFE00BF09B05DF804FB8E
:10B89400852A002000B583B01A4809F0D7F9019031
:10B8A400019B002B0DD0184A184BD31ADB081B043C
:10B8B40043F00103019A164918460BF0C1FF032314
:10B8C4001BE009F03FFA0190019B002B0DD00E4ABA
:10B8D4000E4BD31ADB081B0443F00103019A0D49F4
:10B8E40018460BF0ADFF862307E001F0FBFAFFF7E3
:10B8F400E0FE094B01221A700023184603B05DF8DC
:10B9040004FB00BF21B70200C09203002092030091
:10B91400C89D03000C9E0300842A002000B58DB04E
:10B92400029201930346ADF80E300B468DF80D30AC
:10B93400BDF80E30FF2B01D9072354E09DF80D30DC
:10B944001846FFF7BCFD034683F00103DBB2002B6E
:10B9540001D0072347E006AA9DF80D10BDF80E306C
:10B964001846FFF76FFE0B900B9B002B01D00523AD
:10B9740039E004AA06AB1146184609F071FA0B9097
:10B984000B9B002B01D005232DE0029B9DF80D207D
:10B994009A70049B5A88029B1A80019B002B03D146
:10B9A400059A029B5A6019E0029B1B889B000A932C
:10B9B400029B1B889B00019A1288934228BF13465E
:10B9C4000993029B5B680599099A18460DF04BFB95
:10B9D400099A0A9B9A4201D20C2304E006AB18464A
:10B9E40009F07AFA002318460DB05DF804FB000054
:10B9F40008B50822002102480DF05EFB00BF08BD17
:10BA0400882A002000B58DB00346029101928DF87A
:10BA14000F309DF80F301846FFF751FD034683F0B1
:10BA24000103DBB2002B01D0012338E09DF80F3075
:10BA34001846FFF7FDFC0346ADF82E3007A9BDF804
:10BA44002E30194A184609F031FB0346002B01D069
:10BA5400002324E005AA07AB1146184609F000FAB2
:10BA64000A900A9B002B01D0002318E0019B9DF84B
:10BA74000F209A70059B5A88019B1A80069A019B95
:10BA84005A60059B9B881846FFF7C6FC03461A4676
:10BA9400029B1A8007AB184609F01EFA01231846C8
:10BAA4000DB05DF804FB00BF882A002000B58DB0FE
:10BAB400034602910192ADF80E30BDF80E30FF2B13
:10BAC40001D907237EE0029B9B781846FFF7F7FC19
