:020000022000DC
:1060000000000120756302005D630200759A0200C2
:106010006163020063630200656302000000000028
:10602000000000000000000000000000B9C10200F4
:106030006963020000000000DDC102006D63020020
:1060400051F002006F630200C5FC02006F630200A2
:106050006F6302006F630200E5F902006F630200E4
:106060006F6302006F6302006F6302006F630200E0
:106070006F6302006F6302006F6302006F630200D0
:106080006F63020029C602006F6302006F630200A3
:106090006F6302006F63020081C503006F6302003B
:1060A0006F6302006F6302006F6302006F630200A0
:1060B0006F6302006F630200000000000000000038
:1060C0006F6302006F6302006F6302006F63020080
:1060D0006F6302006F6302006F6302000000000044
:1060E00000000000000000000000000000000000B0
:1060F00000000000000000000000000000000000A0
:10610000000000000000000000000000000000008F
:10611000000000000000000000000000000000007F
:10612000000000000000000000000000000000006F
:10613000000000000000000000000000000000005F
:10614000000000000000000000000000000000004F
:10615000000000000000000000000000000000003F
:10616000000000000000000000000000000000002F
:10617000000000000000000000000000000000001F
:10618000000000000000000000000000000000000F
:1061900000000000000000000000000000000000FF
:1061A00000000000000000000000000000000000EF
:1061B00000000000000000000000000000000000DF
:1061C00000000000000000000000000000000000CF
:1061D00000000000000000000000000000000000BF
:1061E00000000000000000000000000000000000AF
:1061F000000000000000000000000000000000009F
:10620000354936480A1A02D0072291438D4634494F
:1062100034480A1A06D00722914381F309880222E2
:1062200082F3148830483149314A00F044F831484B
:106230003149324A00F03FF831483249324A00F0E1
:106240003AF832483249334A00F035F83248334997
:10625000334A00F030F833483349344A00F02BF821
:1062600033483449344A00F026F83448344900228F
:1062700000F02CF833483449002200F027F8334866
:106280003349091A082902DB002202604160314AC1
:1062900090471F481F49884205D00268043003B464
:1062A000904703BCF7E700208646EC46002000211B
:1062B000294A9047FEE7884207D0521A05D0037852
:1062C00001300B700131013AF9D17047884202D098
:1062D00002700130FAE770470000012000F800204A
:1062E00000000120000001206CF90300CC570020C1
:1062F00018590020D0630200D063020062C9030075
:106300006CF90300CC570020CC570020ECCA0300E6
:10631000ECCA0300ECCA0300ECCA0300ECCA030099
:10632000ECCA0300ECCA0300ECCA03006CF90300DA
:10633000B8FA0300185900201859002018590020F5
:10634000447B0020447B0020447B0020447B0020D1
:10635000447F00209D630200492A0300FEE7FEE718
:10636000FEE7FEE7FEE7FEE7FEE7FEE7FEE7FEE705
:10637000704700BF1048804710484FF0070188431E
:1063800085460D4880470E48016841F47001016060
:10639000BFF34F8FBFF36F8FFFF732BF09480A4932
:1063A0000A4A884207D0521A05D0037801300B7090
:1063B0000131013AF9D1704701BA02000000012011
:1063C00088ED00E0D8CA0300B8570020CC57002061
:1063D00000B5A1B00590049103920293049805F0D2
:1063E0001AF9039B1593029B16930023179300231E
:1063F0008DF8603000231993229B1A9300231F937A
:106400000FA91F9B0822049805F0C2F908231F93C7
:10641000119B1293BDF84030ADF84C30BDF84230BE
:10642000ADF84E3000238DF851309DF83C3003F02C
:106430000303DBB2012B26D10F9BC3F395231D93DE
:106440009DF83C30C3F3C203DBB28DF85030BDF889
:106450003C30C3F38313DBB21C931C9B9A0009A945
:106460001F9B049805F094F91C9B9B001F9A1344F2
:106470001F9312AA09A915AB009313461C9A1D98E5
:1064800000F0D4FF2FE09DF83C3003F00303DBB2B3
:10649000022B28D1BDF83E30C3F389139BB21E9363
:1064A0009DF83C30C3F3C203DBB28DF850301E9B25
:1064B000082B28BF08231B9307A91F9B1B9A04982E
:1064C00005F066F91F9A1B9B13441F931E9A1B9B92
:1064D000D31A1E9315AB12AA07A81B9901F048F80E
:1064E0001E9B002BE3D1049805F0A4F800BF21B057
:1064F0005DF804FB00B583B00190019B1B781A4640
:106500000C4B9B5C002B05D0019B043318460AF012
:10651000A1FD0BE0019B1B781A46064B9B5C002BF0
:1065200004D1019B0C33184609F0ACFF00BF03B047
:106530005DF804FB5C72002000B587B00390029107
:1065400013468DF8073000230593039B1B781A46EA
:10655000114B9B5C002B09D0039B04339DF8072053
:10656000029918460AF0A4FD05900FE0039B1B78E2
:106570001A46094B9B5C002B08D1039B0C339DF8FA
:1065800007200299184609F0F3FF0590059B18466D
:1065900007B05DF804FB00BF5C72002082B0019080
:1065A0000091034B01221A7000BF02B0704700BF78
:1065B0005859002030B58DB003468DF80730194B7F
:1065C00002AC1D460FCD0FC495E80F0084E80F0004
:1065D000062302934FF0FF3303934FF0FF330493EE
:1065E0004FF0FF3305934FF0EB7308939DF807309E
:1065F000002B01D00C4A00E0002202AB19460B48E8
:1066000008F044FB0B900B9B0A930A9B002B02D0D3
:106610000A9801F023FA064A9DF80730137000BF6C
:106620000DB030BDECCA03009D650200CC570020C0
:106630005959002000B583B001238DF807309DF82B
:1066400007301846FFF7B6FF00BF03B05DF804FB44
:1066500000B589B0039002910192019B8DF81F3023
:10666000114B00221A709DF81F301A4602990F48EC
:10667000FFF762FF0690069B0593059B002B02D057
:10668000059801F0EBF900BF094B1B78002B07D0F0
:10669000054B1B78DBB283F00103DBB2002BF3D197
:1066A00000BF09B05DF804FB58590020CC5700200A
:1066B0005959002000B585B003900291054B009315
:1066C0004023054A02990398FFF782FE00BF05B0F8
:1066D0005DF804FB516602001859002082B0019059
:1066E00000BF02B07047000000B583B001900548BC
:1066F000FFF700FF0020FFF75DFF00BF03B05DF86C
:1067000004FB00BFCC57002082B00190019BDB68E6
:1067100001225A7100BF02B07047000000B583B07B
:106720004FF0FF330193FFF785FF0421054800F088
:1067300099FD01900348FFF7E7FF00BF03B05DF844
:1067400004FB00BFC8CA030000B583B001900091EC
:10675000019B1B681B6800990198984700BF03B014
:106760005DF804FB00B583B00190019B1B685B687A
:106770000198984700BF03B05DF804FB00B583B0F3
:106780000190019B1B689B680198984700BF03B06C
:106790005DF804FB82B001900B468DF80330019B3D
:1067A000DB689DF803201A7100BF02B0704782B009
:1067B0000190019BDB681B79184602B0704782B0DC
:1067C0000190019BDB6801225A7100BF02B0704743
:1067D00082B00190019BDB685B79184602B070477C
:1067E00000B585B001900091154BFF229A60144BC3
:1067F00000221A60124B00225A60114B0022C3F88B
:1068000018240F4B0022C3F814240D4B002283F8E8
:1068100020240C4804F064FE0390039B002B01D05D
:10682000039B08E0084804F0C7FF084A084BD31A46
:10683000DB0802930023184605B05DF804FB00BF97
:10684000C45A0020F4C903002CCB0300C8CA0300BB
:1068500008CA0300024A034BD31ADB0818467047E4
:10686000C8CA030008CA030000B587B001900B46F0
:106870008DF803309DF80330002B1FD0FFF7EAFF9F
:1068800004900023059313E0059B9B000E4A1344DC
:106890000393039B1B881A46019B1B689A4204D1F1
:1068A000019B059A1A60002309E0059B01330593BB
:1068B000059A049B9A42E7D3052300E0002318467B
:1068C00007B05DF804FB00BFCC57002000B585B0D1
:1068D00001900B468DF803309DF8032001AB114663
:1068E0001846FFF7C1FF0346002B07D1019BDB00D1
:1068F000054A13440393039B1B6800E000231846DA
:1069000005B05DF804FB00BF08CA030084B0019025
:106910000B468DF80330019BDB00174A13440293AA
:106920009DF80330013B032B1CD801A252F823F041
:106930004169020049690200516902005B69020075
:1069400002238DF80F3011E004238DF80F300DE095
:10695000029B1B798DF80F3008E0029B5B798DF864
:106960000F3003E000238DF80F3000BF9DF80F308B
:10697000184604B0704700BF08CA030084B00190F5
:10698000009100238DF80F30019B1B7803F0040366
:10699000DBB2002B24D0019B1B78C3F30103DBB2D5
:1069A000012B02D0022B0CD017E0009B1B68019A30
:1069B0001288C2F38312D2B213449A1C009B1A604D
:1069C0000BE0009B1B68019A5288C2F3891292B2B5
:1069D00013449A1C009B1A6000BF01238DF80F30EE
:1069E0009DF80F30184604B07047000000B58BB01A
:1069F0000023ADF826303B4803F000FC3A4803F092
:106A0000FDFB3A4B5B680493384B9B680693049AF2
:106A1000069B134002339B00344A1344043308930B
:106A200004AB19460898FFF7A9FF0346002B09D0CD
:106A3000049A069B134002339B002C4A13440433F0
:106A40000893EDE700BF0023079311E0049B5A1C55
:106A50000492069A1340079A920001A90A44234916
:106A600002339B000B445B681360079B0133079361
:106A7000079B012BEAD99DF80430C3F30103DBB275
:106A8000012B10D0022B1CD1BDF80A30ADF82630F6
:106A9000BDF80630C3F389139BB203339A08049BF5
:106AA000134404930EE0BDF80A30ADF82630BDF86B
:106AB0000430C3F38313DBB21A46049B13440493DC
:106AC00000E000BF084803F0A5FB0590059B002BE4
:106AD00002D0049B054A5360BDF8263018460BB01F
:106AE0005DF804FBDC5E0020D85E0020C45A002064
:106AF00000B585B00021074803F0B5FA0390039B69
:106B00000293029B83F310030193019B184605B087
:106B10005DF804FBE05E002000B589B003900291AF
:106B200001920093039B1B0C0693FFF7E1FF079074
:106B3000079B1904009B5A1C0A9B1340069A0A43A0
:106B40001B4902339B000B445A60009A0A9B134076
:106B500002339B00164A134404330593039B03F04E
:106B60000703D9B2059A137861F3C5031370019B2B
:106B700003F00F03D9B2059A138861F389131380C8
:106B8000029BC3F31501059A136861F39F231360F9
:106B9000059A1378012161F301031370059A1378A4
:106BA0006FF38203137000BF09B05DF804FB00BFF0
:106BB000C45A002000B58DB00390029113468DF8A1
:106BC0000730039B02330A9301238DF827300023FB
:106BD0008DF81B300DF11B03184601F04BF9404BAB
:106BE0001A68029B1A603E4B9A683D4B59683C4BB1
:106BF0001B68CB1A134401330B9314E0012139486D
:106C000003F0C0FAFFF7F2FE08900899354803F048
:106C1000B9FA334B9A68324B5968314B1B68CB1A1F
:106C2000134401330B930A9A0B9B9A42E6D89DF8C2
:106C30002730002B48D0002305939DF80730002B08
:106C400017D09DF81430012262F301038DF814303F
:106C50009DF8143043F004038DF81430039B03F0C7
:106C60000F03DAB2BDF8143062F38913ADF81430B3
:106C700016E09DF81430022262F301038DF81430FF
:106C80009DF8143043F004038DF81430039BC3F3D4
:106C900009039AB2BDF8163062F38F13ADF81630BF
:106CA0000F4B1A680E4B9B68134002339B000C4A33
:106CB000134404330793059A079B1A60084B1A681C
:106CC0000A9B1344064A13609DF81B30184601F0D6
:106CD000DBF89DF8273018460DB05DF804FB00BFC7
:106CE000C45A0020E05E002000B58BB005900491EE
:106CF000039202931F4B9B68079306AB0122194630
:106D00000298FFF757FF0346002B24D0069B02335F
:106D100009930023089311E0089B9B00039A1A44EF
:106D2000099B591C099107990B40126811490233BC
:106D30009B000B445A60089B01330893089A029BFE
:106D40009A42E9D3069A079B00931346029A049944
:106D50000598FFF7E1FE074B93F82034002B05D090
:106D600000BF00F079F80346002BFAD100BF0BB04A
:106D70005DF804FBC45A002000B583B00190009177
:106D80000023002200990198FFF7AEFF00BF03B077
:106D90005DF804FB00B587B0039002910192019B5E
:106DA000059305AA012302990398FFF79DFF00BFF1
:106DB00007B05DF804FB00B587B003900291019223
:106DC0000093019B0493009B059304AA022302995C
:106DD0000398FFF789FF00BF07B05DF804FB00B51B
:106DE00089B00390029101920093019B0593009B4F
:106DF00006930A9B079305AA032302990398FFF7BA
:106E000073FF00BF09B05DF804FB00B589B00390C3
:106E1000029101920093019B0493009B05930A9BAE
:106E200006930B9B079304AA042302990398FFF788
:106E30005BFF00BF09B05DF804FB0000054B5A681A
:106E4000044B1B689A420CBF01230023DBB2184697
:106E5000704700BFC45A002000B599B0FFF7EEFF9D
:106E60000346002B01D00023BCE19A4B0022C3F85B
:106E70001824BFF34F8F974B5B680493954B9B6827
:106E80001093049A109B134002339B00914A1344C1
:106E900004331193002317930023169300230F93B9
:106EA00004AB19461198FFF769FD0346002B19D072
:106EB000884BD3F81834002B14D1864B1A68049BE6
:106EC0009A4205D8834B1B68824A5360002389E1AC
:106ED000049A109B134002339B007E4A13440433F0
:106EE0001193DDE70023159311E0049B5A1C0492D3
:106EF000109A1340159A920001A90A447549023369
:106F00009B000B445B681360159B01331593159B25
:106F1000012BEAD99DF8043003F00303DBB2022B06
:106F200040F09C80BDF80630C3F389139BB20E93EA
:106F3000BDF80630C3F389139BB2502B28BF5023F2
:106F40009BB20D930D9BC3F309039AB2BDF80630B3
:106F500062F38F13ADF806300D9B08330C939DF848
:106F60000430C3F3C203DBB20F930C995A4804F008
:106F7000C2FA1790179B002B00F0D080179804F0EE
:106F80004AFB01A9169B0822179804F0EDFB169BFB
:106F900008331693049BDA43109B134001339B0084
:106FA0000B930D9A0B9B9A4242D90B9B002B08D056
:106FB000049A109B134002339B00464A1344043347
:106FC00000E0464B0A930B9B002B02D00B9BDBB2DD
:106FD00001E00D9BDBB28DF827300B9B002B01D01D
:106FE0003E4B00E0002308930B9B002B06D00D9B2B
:106FF000DAB20B9BDBB2D31ADBB200E000238DF8D0
:107000001F309DF82720169B0A99179804F0ACFBB7
:107010009DF82730169A13441693089B002B16D020
:107020009DF81F20169B0899179804F09DFB0EE011
:10703000049A109B134002339B00264A13440433E6
:107040000693169B0D9A0699179804F08DFB0E9BDC
:1070500003339A08049B134404935FE09DF80430C3
:1070600003F00303DBB2012B58D1BDF80430C3F3A6
:107070008313DBB2062B28BF0623DAB2BDF8043037
:1070800062F38913ADF80430BDF80430C3F3831301
:10709000DBB2023305939DF80430C3F3C203DBB2C5
:1070A0000F93059B9B0019460B4804F024FA179098
:1070B000179B002B32D0179804F0ADFA01A9169B4C
:1070C0000822179804F050FB169B083316930023F0
:1070D00015931AE0C45A0020F4C90300D05A0020C6
:1070E000049B5A1C0492109A134002339B003F4A9F
:1070F0001344191D169B0422179804F035FB169BA8
:1071000004331693159B01331593BDF80430C3F374
:107110008313DBB21A46159B9342E1D3179B002BD6
:1071200040D0324BD3F810341493304BD3F818348A
:10713000002B1BD0179804F07DFA4DE000238DF84A
:107140004F301498FFF744FB0346002B02D0012375
:107150008DF84F309DF84F30002B03D017991498BD
:10716000FFF7F2FA149BDB681B681493149B002B47
:10717000E4D1179804F05EFA00238DF803300DF186
:107180000303184600F076FE184BD3F81834002B92
:1071900002D1049B154A53609DF80330184600F055
:1071A00073FE19E0114BD3F81034129306E01298D5
:1071B000FFF7E4FA129BDB681B681293129B002B0B
:1071C000F5D10B4A0B4BD31ADB081B0443F0020327
:1071D00009491846FFF7D0FDFFF730FE034683F05C
:1071E0000103DBB2184619B05DF804FBC45A002055
:1071F00030CA030008CA03003CCB030000B585B0C9
:107200000023039323E0164BD3F810340293012399
:107210008DF807300FE00298FFF7C9FA03461A46C7
:10722000039B934203D100238DF8073006E0029BB5
:10723000DB681B680293029B002BECD19DF80730A2
:10724000002B01D0039B07E0039B01330393039BB7
:10725000092BD8DD4FF0FF33184605B05DF804FB6D
:10726000C45A002000B585B001900B468DF803305C
:10727000FFF7C4FF0390039BB3F1FF3F01D1039BD2
:1072800022E0039BDBB219460198FFF783FA104B0B
:10729000D3F81034002B08D10D4A019BC2F81034EA
:1072A000019BDB6800221A600DE0094BD3F8103413
:1072B000DA68019BDB6812681A60054BD3F810345A
:1072C000DB68019A1A60039B184605B05DF804FB61
:1072D000C45A002000B583B00C4BD3F8103401938E
:1072E0000A4B012283F8202409E00198FFF767FA8E
:1072F0000198FFF737FA019BDB681B680193019B3C
:10730000002BF2D100BF03B05DF804FBC45A00208B
:1073100082B00190009100BF02B0704710B584B0F8
:1073200003900291039BDB88002B0AD0039BDB8830
:107330001A461F4B009313461E4A1F49029803F03A
:1073400037F8039B1B7A052B2ED0039B5B7A002B0F
:1073500012D0039B9B881A46039B1B7A1946104642
:10736000FFF7D4FA03461A46144B53F822301A4654
:107370001349029803F01CF8039B1B6819460298F6
:10738000FFF7C6FF039B1B7A1A460E4B53F82240A9
:10739000039B9B8800211846FFF798FA0346224674
:1073A0000949029803F004F800BF04B010BD00BF03
:1073B00070CB030080CB0300B8CB0300FC57002048
:1073C000D0CB0300E8570020D4CB030000B585B034
:1073D0000390029113468DF80730039B1B7A052B0F
:1073E0000FD0039B5B7A002B06D00D4B1B681A460F
:1073F0000C49029802F0DCFF0B49029802F0D8FF1A
:1074000007E09DF80730002B03D00749029802F0EF
:10741000CFFF029802F0B4FF00BF05B05DF804FB97
:10742000FC570020D0CB0300E0CB030030B58BB07D
:1074300007900691059204930E9B1B7B8DF82730D5
:107440000E9B00221A730E990498FFF767FF059BA5
:10745000062B7FD801A252F823F000BF79740200F6
:107460008374020093740200A7740200C5740200C2
:10747000ED7402001D75020007990E9802F098FF46
:1074800069E0069B1B681A4607990E9802F090FF68
:1074900061E0069B1A68069B04331B6807990E98E7
:1074A00002F086FF57E0069B1A68069B04331968B2
:1074B000069B08331B6800930B4607990E9802F051
:1074C00077FF48E0069B1968069B04331868069B03
:1074D00008331B68069A0C32126801920093034627
:1074E0000A4607990E9802F063FF34E0069B18687D
:1074F000069B04331C68069B08331B68069A0C32F3
:10750000126806991031096802910192009323468E
:10751000024607990E9802F04BFF1CE0069B1C6880
:10752000069B04331D68069B08331B68069A0C32C1
:1075300012680699103109680698143000680390A3
:107540000291019200932B46224607990E9802F071
:107550002FFF00E000BF00220E990498FFF736FFCE
:107560000E9B9DF827201A7300BF0BB030BD00BFE3
:1075700000B587B00390029101920093029B082B03
:1075800060D8009B1B7B8DF81330009B00221A7380
:1075900000990198FFF7C2FE0023059314E0059AB5
:1075A000029B9A4209D2039A059B13441B781A4600
:1075B0002649009802F0FCFE03E02549009802F0FD
:1075C000F7FE059B01330593059B072BE7D921495E
:1075D000009802F0EDFE0023059326E0059A029B39
:1075E0009A421BD2039A059B13441B788DF81230E4
:1075F0009DF812307E2B0AD89DF81230184615F0EF
:10760000C7F80346002B02D09DF8123000E02E236D
:107610001A461149009802F0CBFE03E00F4900988A
:1076200002F0C6FE059B01330593059B072BD5D9B8
:10763000012200990198FFF7C9FE009B9DF81320D5
:107640001A7300E000BF07B05DF804FBE4CB030051
:10765000ECCB0300F0CB0300F4CB0300F8CB03002A
:107660002DE9F04792B0099000238DF84730ADE046
:107670005C4B1A689DF84730DB0013441093109B55
:107680001B7818464FF001034FF00004A0F12002D0
:10769000C0F1200104FA00FA03FA02F24AEA020AEF
:1076A00023FA01F14AEA010A03FA00F9CDE90E9A38
:1076B0004D4BD3E90012DDE90E3401EA03000090DE
:1076C00002EA04030193DDE90034234379D0DDE9C4
:1076D0000E34DA430292E3430393434BD3E900347D
:1076E000DDE9020102461A4004920A4602EA040356
:1076F00005933D4BDDE90412C3E90012109B1B7892
:10770000184608F05FF903468DF83730109B1B7858
:1077100018464FF001034FF00004A0F12002C0F121
:10772000200104FA00F603FA02F2164323FA01F1EB
:107730000E4303FA00F52D4BD3E9003405EA0302AA
:10774000069206EA040307939DF837104FF00002F3
:10775000109B1B781C46A4F12003C4F1200002FA00
:1077600004F801FA03F348EA030821FA00F048EAB2
:10777000000801FA04F7DDE90634444508BFBB42BE
:107780001FD19DF83720109B5B78012B0CBF012384
:107790000023DBB29A420CBF01230023DBB2DBB231
:1077A0004FF00004CDE90A34109B5B68002B08D031
:1077B000109B5C68109B1A789DF82830194610467B
:1077C000A0479DF8473001338DF84730084B1A78B1
:1077D0009DF847309342FFF44BAF00BF12B0BDE8B5
:1077E000F08700BFE85E0020205F0020185F0020C7
:1077F000EC5E00202DE9F04790B00B900B468DF821
:107800002B304FF001034FF000040B98A0F1200241
:10781000C0F1200104FA00F603FA02F2164323FA3B
:1078200001F10E4303FA00F5CDE90E56394B184627
:1078300000F066FA0D900D9B002B66D1364BD3E914
:107840000012DDE90E3401EA0300009002EA0403AD
:107850000193DDE90034234343D10B9808F0B2F8DB
:107860000346002B10D02D4BD3E90012DDE90E3476
:1078700041EA0300029042EA04030393274BDDE947
:107880000212C3E9001213E0DDE90E346FEA0309C6
:107890006FEA040A214BD3E9003409EA0302049297
:1078A0000AEA040305931D4BDDE90412C3E9001243
:1078B000194BD3E90012DDE90E3441EA03000690CA
:1078C00042EA04030793144BDDE90612C3E90012F0
:1078D0001048134B1B680022194600F097F90D90D1
:1078E00014E0DDE90E34DF436FEA04080A4BD3E904
:1078F000003407EA0302089208EA04030993064BDE
:10790000DDE90812C3E9001200E000BF10B0BDE8D5
:10791000F08700BFF45E0020205F0020185F002089
:10792000F05E002010B58AB003900B4601928DF8EE
:107930000B30019B042B01D807235AE007F052FFBC
:10794000034683F00103DBB2002B09D007F0F8FEF9
:107950000990099B0893089B002B01D0089B48E0E5
:10796000254A039B1360254A9DF80B301370244A67
:10797000019B1360234A4FF000034FF00004C2E95B
:107980000034214A4FF000034FF00004C2E90034F4
:1079900022E09DF80B30DB00039A1344079305ABFC
:1079A00000210A461A800A469A7003238DF8143083
:1079B000079B9B788DF81530079B1B78184605AB05
:1079C000124A194607F01AFF0990099B0693069B75
:1079D000002B01D0069B0CE09DF80B305A1E8DF851
:1079E0000B20002BD5D10A4A00210A4800F0B8F834
:1079F000034618460AB010BDE85E0020EC5E002089
:107A0000F05E0020185F0020205F0020F577020064
:107A100061760200FCCB030000B583B00023019324
:107A20000CE00C4B1A68019BDB0013441B7801210E
:107A3000184607F053FF019B01330193064B1B7857
:107A40001A46019B9342ECD30023184603B05DF81D
:107A500004FB00BFE85E0020EC5E002000B587B0AC
:107A600001900023039300230493019B059303AB30
:107A70001A46002144F2010000F016F800BF07B0DA
:107A80005DF804FBBFF34F8F054BDB6803F4E06246
:107A90000349044B1343CB60BFF34F8F00BFFDE797
:107AA00000ED00E00400FA0500B585B003900291F6
:107AB000019272B6FFF70EFC00BFFFF7CDF9034647
:107AC000002BFAD1114A124BD31ADB081B0443F0E6
:107AD000010310491846FFF74FF90F4B1B6803F0DD
:107AE0000103002B00D000BE084A094BD31ADB0863
:107AF0001B0443F0020309491846FFF73DF9FFF75D
:107B0000C1FF00BF05B05DF804FB00BF30CA030031
:107B100008CA030000CC0300F0ED00E00CCC030029
:107B200000B585B00190019806F0AEFC0390039B70
:107B30001B7B002B0CD0039B5B7B83F00103DAB231
:107B4000039B1A73039B9B68039A1268104698471D
:107B500000BF05B05DF804FB002318467047000025
:107B600000B58BB005900B4603928DF81330059B42
:107B70001B68089300230993039B002B02D0059BED
:107B8000002B01D1072338E0089B1B7B002B01D081
:107B9000082332E0089B5B68002B2BD110220021C8
:107BA000089814F07BFE9DF81330002B14BF0123BE
:107BB0000023DBB207939DF81330002B0CBF012389
:107BC0000023DAB2089B5A73089B039A9A600D4B04
:107BD0000093089B079A4FF47A710B4806F0AAF9B4
:107BE0000246089B5A60089B5B68002B04D10E2359
:107BF000099301E0082300E0099B18460BB05DF8EB
:107C000004FB00BF217B02001CCC030000B58BB03D
:107C1000059004910392059B0993099B5B68089367
:107C2000089B002B01D1082364E0099B1B7B002BE0
:107C300001D000235EE0099B039A1A60EFF30583ED
:107C40000793079B002B2DD00023069306AA002341
:107C500000931346049A0921089806F0ABF90346ED
:107C6000012B01D0042345E005F0E0FC014606AA03
:107C70000023009313460A460621089806F09AF955
:107C80000346012B01D0042334E0069B002B2DD0AA
:107C90001A4B4FF080525A6040BFBFF34F8FBFF373
:107CA0006F8F23E0089806F0D9FB0346002B01D024
:107CB00000231FE0022300930023049A0421089864
:107CC00006F078F90346012B01D0042312E005F0F9
:107CD000A3FC02460223009300230121089806F02A
:107CE00069F90346012B01D0042303E0099B01221B
:107CF0001A73002318460BB05DF804FB00ED00E09A
:107D000000B589B00390039B0793079B5B680693BC
:107D1000069B002B01D1082333E0EFF30583059385
:107D2000059B002B1CD00023049304AA002300937E
:107D3000134600220821069806F03CF90346012B61
:107D400001D004231DE0049B002B16D00F4B4FF0F5
:107D500080525A6040BFBFF34F8FBFF36F8F0CE06C
:107D600002230093002300220321069806F022F943
:107D70000346012B01D0042303E0079B00221A7362
:107D80000023184609B05DF804FB00BF00ED00E0D9
:107D900082B0EFF310830093009B019372B6019BB6
:107DA000184602B0704762B600BF704700B585B094
:107DB0000190FFF7EDFF0390164B9B68002B1BD142
:107DC000144B01229A60144BD3F88020134B1340BC
:107DD000104A1360104B114AC3F880200E4BD3F8A1
:107DE00084300C4A53600C4B4FF0FF32C3F88420B0
:107DF000019B00221A7002E0019B01221A70039B72
:107E0000002B01D1FFF7CFFF0023184605B05DF826
:107E100004FB00BF285F002000E100E0FC06FFBD7E
:107E200000B585B003468DF80730104B9B68002BDA
:107E300016D09DF80730002B12D1FFF7A9FF039051
:107E40000B4A0A4B1B681360094A084B5B68536076
:107E5000064B00229A60039B002B01D1FFF7A3FF82
:107E60000023184605B05DF804FB00BF285F002022
:107E700000E100E000B583B001900198FFF796FFA4
:107E800000BF03B05DF804FB00B583B003468DF876
:107E900007309DF807301846FFF7C2FF00BF03B058
:107EA0005DF804FB82B00190019B03F00303002BFB
:107EB0000CBF01230023DBB2184602B0704700005C
:107EC00000B585B00190002303930EE00A4A039B9E
:107ED00052F82330002B05D0074A039B52F8233079
:107EE00001989847039B01330393039B032BEDD920
:107EF00000BF05B05DF804FB445F002082B0019034
:107F00000091019B1B78013B052B61D801A252F81F
:107F100023F000BF2D7F0200357F02005B7F02004F
:107F20008D7F0200AD7F0200C97F0200009B00220E
:107F30001A704EE0009B01221A70019B1A89009B67
:107F40009A81019B9A88009BDA81019BDA68009BE9
:107F50009A60009B00221A743BE0009B02221A7078
:107F6000019B1A89009B9A81019B9A88009BDA8168
:107F7000019BDA68009B9A60019B9B7D062B0CBFDE
:107F800001230023DAB2009B1A7422E0009B032233
:107F90001A70019BDA88009B9A81019B1A89009BC9
:107FA000DA81019BDA68009B9A6012E0009B042250
:107FB0001A70019BDA88009B9A81009B0022DA816B
:107FC000009B00229A6004E0009B05221A7000E0EA
:107FD00000BF00BF02B0704784B001900091019BC8
:107FE0000393039A009B9A4206D2039B1B68B3F14A
:107FF000FF3F01D0012300E0002303F00103DBB2C7
:10800000184604B0704782B00190019B5B8803332F
:108010009B00019A1344184602B0704700B583B024
:10802000019000910198FFF7EEFF0246009B9342FA
:1080300001D202230CE0019B9B884FF6FF72934212
:1080400003D0019B1B88002B01D1012300E00023FA
:10805000184603B05DF804FB00B583B00190019BA6
:10806000002B13D00D4BDB681A46019B93420DD3B6
:108070000A4B1B691A46019B934207D80198FFF7E8
:1080800011FF0346002B01D0012300E0002303F081
:108090000103DBB2184603B05DF804FBB8570020BB
:1080A00082B00190019B002B04D0019B1B680B4AFE
:1080B000934201D003230DE0019B04331B68084A5F
:1080C000934204D0074A934203D1012302E00023E4
:1080D00000E00323184602B0704700BFDEC0ADDEEB
:1080E000FE011EF1FF011EF184B0019000230393F5
:1080F0000CE0039B9B00019A13441B68B3F1FF3F04
:1081000001D0002307E0039B01330393039BB3F5E6
:10811000806FEED30123184604B0704782B0034647
:108120000A46ADF806301346ADF80430BDF8062017
:10813000134913469B0013449B000B4408331A88D1
:10814000BDF804301344ADF80430BDF806200C49E6
:1081500013469B0013449B000B440A331A88BDF856
:1081600004301344ADF80430BDF8043040F2FF325F
:10817000934294BF01230023DBB2184602B070473C
:10818000F45F002084B0019000910A230393002340
:10819000ADF80A3027E0BDF80A20174913469B00C6
:1081A00013449B000B4404331B68009A9A4215D970
:1081B000BDF80A20104913469B0013449B000B4452
:1081C00004331B6803F58053009A9A4206D20023B9
:1081D0000393019BBDF80A201A8008E0BDF80A301D
:1081E0000133ADF80A30BDF80A30012BD3D9039B17
:1081F000184604B0704700BFF45F002000B589B096
:10820000039002910192039B03F580530693039B15
:1082100008330393029B02221A80039B079332E0E8
:1082200006990798FFF7FAFE03468DF817309DF878
:108230001730002B0AD1079B9A68184B1B689A428B
:1082400013D9079B9B68154A13600EE0019B002B16
:1082500002D0019B01221A709DF81730022B04D125
:10826000029B4FF480621A8014E0029B1A88079BDD
:108270005B8813449BB203339AB2029B1A8007981F
:10828000FFF7C1FE079006990798FFF7A5FE034682
:10829000002BC5D109B05DF804FB00BF545F00207E
:1082A00082B001900091009B9B7D022B09D9019B1C
:1082B0001A89009BDB8813449BB203339AB2019B5B
:1082C0001A81019B5A89009BDB88D31A9BB2033B1E
:1082D0009AB2019B5A8100BF02B0704700B583B0CB
:1082E000074B1B681946002300930823054A0648DC
:1082F00002F062FC0346184603B05DF804FB00BFC1
:108300001C60002020CC0300B857002000B585B0C9
:1083100003900399002300930823044A044802F0C1
:108320004BFC0346184605B05DF804FB28CC03005F
:10833000B857002000B585B003460091ADF806306F
:1083400000238DF80F30BDF806300333ADF80A3046
:10835000BDF80A3040F2FD32934201D909234AE0C8
:108360000023ADF80C303BE0BDF80C202449134647
:108370009B0013449B000B441B78002B2BD1BDF8B2
:108380000A20BDF80C3011461846FFF7C7FE034619
:10839000002B20D001238DF80F30009BBDF80C205E
:1083A0001A80BDF80C20164913469B0013449B000D
:1083B0000B440A331988BDF80C20BDF80A300B4471
:1083C00098B20F4913469B0013449B000B440A3399
:1083D00002461A8008E0BDF80C300133ADF80C30CD
:1083E000BDF80C30012BBFD99DF80F30002B01D008
:1083F000002300E00723184605B05DF804FB00BF2A
:10840000F45F002082B003460A46ADF806301346FA
:10841000ADF80430BDF804200D4913469B00134409
:108420009B000B440A331A88BDF80630D31A9BB25E
:10843000BDF80420033B98B2054913469B00134442
:108440009B000B440A3302461A8000BF02B07047FB
:10845000F45F002008B50121024801F093FE0346B5
:10846000184608BD545F002000B585B00346009152
:10847000ADF80630BDF80620224913469B00134490
:108480009B000B4404331B6803F580530293009B4D
:108490001B680393039B002B04D00398FFF7B3FDE5
:1084A000039023E0BDF80620164913469B001344B1
:1084B0009B000B4404331B680833039316E00299B6
:1084C0000398FFF7ABFD0346012B08D0022B0BD01E
:1084D000002B0BD1009B039A1A6001230EE0039836
:1084E000FFF791FD039001E0002307E00299039854
:1084F000FFF772FD0346002BE1D10023184605B0BB
:108500005DF804FBF45F002000B585B00190009198
:10851000019B5B681846FFF79FFD0346002B19D0AF
:10852000019B1A89244B1B899A4213D1019B1A681B
:10853000019B5B689B689A420CD1019B5B68194662
:108540000098FFF71FFE0346002B0CBF01230023FA
:10855000DBB22CE0009B00221A8023E00023029370
:1085600010E0029B0393039B9A68019B1B689A424D
:1085700008D1029A019B5A600F4B1A89019B1A81FC
:10858000012314E0009B1B8802AA11461846FFF73E
:108590006BFF0346002BE4D1009B1B8801339AB28A
:1085A000009B1A80009B1B88012BD7D900231846FB
:1085B00005B05DF804FB00BF2460002000B587B063
:1085C0000390029101920093304B1B78DBB283F051
:1085D0000103DBB2002B01D0022353E0019B002BEF
:1085E00002D0009B002B48D105234BE0009B9B88C9
:1085F0001946274A0B469B000B449B0013441B78EB
:10860000002B33D124E0009B1B680593039B002BB8
:1086100006D0059B9A88039B1B889A4200D017E0DE
:10862000029B002B06D0059B1A88029B1B889A424E
:1086300000D00DE0059B9A68019B1A60009B1A68A8
:10864000019B5A60134B1A89019B1A81002319E080
:10865000009B9B88009A11461846FFF705FF0346CA
:10866000002BD0D1009B00221A6000E000BF009BCD
:108670009B8801339AB2009B9A80009B9B88012BB8
:10868000B4D90A23184607B05DF804FB345F002014
:10869000F45F00202460002000B585B00190084BF5
:1086A0000199184601F0CCFB03901C22002103988D
:1086B00014F0F4F8039B184605B05DF804FB00BF06
:1086C000E45F002000B583B00190044B0199184687
:1086D00001F0CFFB00BF03B05DF804FBE45F0020B6
:1086E00000B583B00190054B0199184601F0D5FB08
:1086F0000346184603B05DF804FB00BFE45F0020AA
:1087000000B583B00190044B0199184601F0DEFBDF
:1087100000BF03B05DF804FBE45F002008B5012151
:10872000054801F047FD0346002B14BF0123002339
:10873000DBB2184608BD00BF3C5F002000B587B023
:10874000002305930023ADF812300323ADF8103059
:1087500000238DF80F300023ADF80C30EFE0BDF8AA
:108760000C301A037E4BDB68134402930298FFF728
:1087700097FC03468DF807309DF80730012B00F079
:108780009C80032B02D0002B62D0D3E00298FFF72D
:10879000ABFC0346002B3BD0724B1B68002B29D04F
:1087A000BDF81220704913469B0013449B000B44F4
:1087B00002221A70BDF812206B4913469B00134425
:1087C0009B000B440433029A1A60BDF812206649DC
:1087D00013469B0013449B000B44083302221A806B
:1087E000624ABDF812305380BDF812300133ADF843
:1087F000123008E05B4A029B13605A4B02229A80B7
:1088000001238DF80F30059B43F00103059391E0A0
:10881000BDF81030013BADF81030BDF812205249C0
:1088200013469B0013449B000B440433029A1A60C6
:10883000BDF812204C4913469B0013449B000B4487
:1088400003221A70BDF812300133ADF8123071E016
:10885000BDF81220444913469B0013449B000B446F
:1088600000221A70BDF812203F4913469B001344A2
:108870009B000B440433029A1A60BDF81220134681
:108880009B0013449B000833374A9918BDF8122007
:1088900013469B0013449B001033334A13441A467B
:1088A0000298FFF7ABFC059B43F002030593BDF86C
:1088B00012300133ADF812303CE09DF80F30002B40
:1088C00025D0BDF81220284913469B0013449B0075
:1088D0000B4402221A70BDF81220224B196822485C
:1088E00013469B0013449B00034404331960BDF8F6
:1088F00012201D4913469B0013449B000B44083370
:1089000002221A80BDF812300133ADF81230154A38
:10891000029B1360002216490298FFF76FFC114B6F
:108920009B88022B01D1042300E00823059A1343FE
:10893000059300BFBDF80C300133ADF80C30BDF825
:108940000C30022B7FF60BAFBDF81030012B01D895
:1089500000230593059BDBB2184607B05DF804FBC6
:10896000B85700201C600020F45F00202460002025
:108970002060002000B587B003900291039B022283
:108980009A750299039B1A1D00230093042307483C
:1089900002F012F90590059B002B01D1002300E0A5
:1089A0000E23184607B05DF804FB00BFB85700203F
:1089B00000B587B003900291039B1B69002B01D087
:1089C000032200E00122039B9A75029B083319469B
:1089D000039B03F10C02002300930423064802F0DA
:1089E000EBF80590059B002B01D1002300E00E233E
:1089F000184607B05DF804FBB857002000B587B0F3
:108A000003900291039B1B78032B01D1052200E008
:108A10000622039B9A75029B04331946039B03F1BC
:108A20000802002300930423064802F0C5F80590CD
:108A3000059B002B01D1002300E00E23184607B050
:108A40005DF804FBB857002000B587B003900B46D3
:108A5000ADF80A3003990023009304230C4A0D4813
:108A600002F0AAF80590059B002B01D00E230BE025
:108A7000BDF80A20084913469B0013449B000B4491
:108A8000103301221A700023184607B05DF804FB6A
:108A900030CC0300B8570020F45F002000B589B047
:108AA000019002AB00221A605A609A60019BDB6859
:108AB00002930DF1160202AB11461846FFF724FD92
:108AC0000346002B12D0039B0693069B9A88019BBA
:108AD000DA80069B1A88019B1A81039BBDF8162039
:108AE00011461846FFF7B0FF079001E00A230793ED
:108AF000079B184609B05DF804FB000000B587B07D
:108B00000190019B981D02AA0D4B0021FFF756FD15
:108B10000590059B002B08D1039A094B9B881946A9
:108B20001046FFF791FF059004E008220021044859
:108B300013F0B4FE059B184607B05DF804FB00BFB8
:108B40003460002000B587B003900291039B01229E
:108B50009A75029B0C331846039B1A69039BDB88AA
:108B60009900002300930B460146074802F024F8C1
:108B70000590059B002B01D1002300E00E23184631
:108B800007B05DF804FB00BFB857002082B0184B57
:108B90001B8901339AB2164B1A81154B00225A8059
:108BA000134B00221A730023ADF8063018E0BDF80D
:108BB0000620104913469B0013449B000B441A786F
:108BC000BDF80630002A0CBF01220022D1B2084AAB
:108BD00013440A469A72BDF806300133ADF80630E8
:108BE000BDF80630012BE2D900BF02B0704700BFCC
:108BF00024600020F45F002084B0019000238DF8F1
:108C00000F300023ADF80C3031E0BDF80C301C4AB9
:108C100013449B7A002B25D0BDF80C30184A13441E
:108C200000229A72BDF80C20164913469B0013448B
:108C30009B000B440C331B68002B13D1BDF80C2098
:108C4000104913469B0013449B000B4410331B78C0
:108C5000002B07D0019BBDF80C201A8001238DF852
:108C60000F3008E0BDF80C300133ADF80C30BDF822
:108C70000C30012BC9D99DF80F30184604B070474D
:108C800024600020F45F002008B5084B05221A700C
:108C9000074B02229A80064B1B68194600230122CB
:108CA000044802F06BF80346184608BD2460002013
:108CB0001C600020B857002000B583B0164B5B88BD
:108CC000ADF80230BDF80220144913469B0013444E
:108CD0009B000B440C331B68002B14D10E4B042259
:108CE0001A70BDF802200D4913469B0013449B00E7
:108CF0000B4404331B68194600230122084802F084
:108D00003DF8019002E0FFF7BFFF0190019B18467C
:108D100003B05DF804FB00BF24600020F45F002076
:108D2000B857002000B587B0114B5B680593114B15
:108D30001A68104B9B889B0013440493059B5B8827
:108D40000333ADF80E300A4B03221A700499084B16
:108D50005A68BDF80E309800002300930346064879
:108D600001F02AFF0346184607B05DF804FB00BF78
:108D7000246000201C600020B857002000B583B09C
:108D80000A4B5B880A491846FFF76EFB0346002B27
:108D900003D0FFF7C7FF019002E0FFF78DFF0190BE
:108DA000019B184603B05DF804FB00BF246000205F
:108DB0002860002008B50A4B06221A70084B5B8811
:108DC0001946084A0B469B000B449B00134404338E
:108DD0001B681846FFF79AFA0346184608BD00BFFD
:108DE00024600020F45F002008B5054B07221A70AC
:108DF000034B00225A60FFF771FA0346184608BD7C
:108E00002460002008B50D48FFF7F6FE034683F006
:108E10000103DBB2002B0BD0094B00221A70084B68
:108E200000225A80064B00225A6041F61D5302E090
:108E3000FFF7A4FF0346184608BD00BF26600020C8
:108E40002460002082B0094B5B680193019B5B8822
:108E50000333ADF80230064B9A88BDF80230134454
:108E60009AB2034B9A8000BF02B070472460002082
:108E70001C60002082B0184B1B680193174B5B8865
:108E80001946174A0B469B000B449B0013440433BE
:108E90001B68114A1360114B5B881946104A0B4638
:108EA0009B000B449B0013440433019A1A600B4B44
:108EB0005B881946084B9888094A0B469B000B446F
:108EC0009B001344083302461A80034B02229A8007
:108ED00000BF02B0704700BF1C600020246000206B
:108EE000F45F002008B51A4B1B78072B2CD801A281
:108EF00052F823F0158F0200498F0200498F0200BB
:108F0000218F02002D8F0200398F0200398F02005D
:108F1000418F0200FFF73AFE0D4B01221A7014E058
:108F2000FFF790FF0A4B02221A700EE0FFF7A2FF34
:108F3000074B06221A7008E0054B07221A7004E05E
:108F4000034B01221A7000E000BF00BF08BD00BF44
:108F50002460002000B587B0019000910F23059395
:108F6000019B002B04D0624B00225A600123BBE01E
:108F7000009B1B79032B00F2AB8001A252F823F077
:108F8000918F02009F8F02002D9002004D900200F1
:108F9000009B01221A71FFF7A1F905909BE00023C5
:108FA0008DF813300023ADF810302BE0BDF8102001
:108FB000504913469B0013449B000B441B78022B23
:108FC0001BD1BDF810204B4913469B0013449B0056
:108FD0000B4400221A7001238DF81330BDF81020C5
:108FE000444913469B0013449B000B4404331B6805
:108FF0001846FFF78BF9059008E0BDF810300133F3
:10900000ADF81030BDF81030012BCFD99DF81330DA
:1090100083F00103DBB2002B5CD0354B01221A70C8
:10902000334B00225A6041F61D535DE0009B002245
:109030001A71314B02229A802F4B1B68194600236C
:1090400001222E4801F09AFE059044E0009B002288
:109050001A71294B1B681846FFF758F90590284BE1
:109060005B88ADF80E30244B1B680293BDF80E20D0
:10907000204913469B0013449B000B4404331B6898
:109080001D4A1360BDF80E201A4913469B00134475
:109090009B000B440433029A1A60BDF80E20164B55
:1090A0009888144913469B0013449B000B440833D3
:1090B00002461A80104B02229A80BDF80E200D49FC
:1090C00013469B0013449B000B4400221A7002E0DD
:1090D00000BF00E000BF059B002B04D0044B002222
:1090E0005A600E2300E00023184607B05DF804FB29
:1090F000345F0020F45F00201C600020B85700207F
:109100002460002000B587B001900091009B9B8AED
:109110001A4613469B0013449B003A4A1344049397
:10912000019B002B05D000990498FFF7B9F80123A3
:1091300063E0049B5A68049B1B899B0013440393C0
:10914000009B9B7D062B4DD801A252F823F000BF57
:1091500093910200B79102009F910200AB9102002F
:109160006D910200C3910200DD910200264B0022A6
:109170005A60009B9B69244A136024492248FFF7E8
:10918000C3F9034683F00103DBB2002B01D00A23AD
:1091900033E003990098FFF7EDFB059025E0039974
:1091A0000098FFF705FC05901FE003990098FFF772
:1091B000C9FC059019E003990098FFF71FFC059082
:1091C00013E0009B06229A750F4B5A680F4B1B88C1
:1091D00019461046FFF738FC059006E041F61D538E
:1091E000059302E00F23059300BF059B002B03D0DE
:1091F00000990498FFF754F8059B184607B05DF8EE
:1092000004FB00BFF45F00203C60002048600020A9
:1092100000B585B001900091019B002B01D0012386
:1092200023E0009B1B79012B0BD0022B14D0002BC9
:1092300016D1009B02221A710098FFF72FFC0390B1
:1092400012E00098FFF75AFC0390039B0A2B0AD107
:1092500041F61D53039306E041F61D53039303E0CB
:109260000F23039300E000BF039B184605B05DF891
:1092700004FB000000B585B00190019B002B01D0DC
:1092800001233BE01F4B1B7B002B03D01D4B002217
:109290001A7301E0FFF726FE1A4B1B78013B062BE1
:1092A00028D801A252F823F0C5920200CD92020004
:1092B000D5920200DD920200F5920200E5920200D2
:1092C000ED920200FFF79EFD039016E0FFF756FDBA
:1092D000039012E0FFF726FD03900EE0FFF7ECFC91
:1092E00003900AE0FFF766FD039006E0FFF77CFDC0
:1092F000039002E00F23039300BF039B184605B0C1
:109300005DF804FB2460002000B589B001903A4B61
:109310001B68002B05D13948FFF7E2F90246364BAE
:109320001A60354B1B681B78013B052B2BD801A21B
:1093300052F823F04D9302005D9302005D9302000A
:109340006D9302006D9302007D9302002A4B1B680F
:1093500019460198FFF7FEFD019017E0264B1B68A8
:1093600019460198FFF7CEFE01900FE0224B1B68D3
:1093700019460198FFF74CFF019007E00198FFF7AD
:1093800079FF019002E00F23019300BF019B002BA6
:109390002BD003AB00221A605A609A60DA601A611F
:1093A000019B41F61D52934201D0019B00E0002336
:1093B0000493114B1B6803AA11461846FEF79EFD45
:1093C00003AB1846FEF77CFD0B4B00221A6000230E
:1093D00001930A48FFF794F9FFF7A0F9034683F0D9
:1093E0000103DBB2002B02D191E700BF00E000BF18
:1093F00000BF09B05DF804FB4C6000205060002005
:1094000008B50121054800F0A5FE0346002B02D156
:109410000020FFF779FF00BF08BD00BF3C5F0020C0
:1094200000B583B00190019B5B681846FFF76CFFA5
:1094300000BF03B05DF804FB00B58BB00390029150
:1094400001928DF803300023ADF824300023ADF8ED
:109450002630514B1B78DBB283F00103DBB2002BCB
:1094600001D0022393E0029B002B01D105238EE063
:10947000029B1B884FF6FF72934203D0029B5B88CE
:10948000002B01D1042382E0029B5B681846FEF7A3
:1094900009FD034683F00103DBB2002B01D0032357
:1094A00075E0019B002B11D1029B9B68ADF8263023
:1094B0000DF11A02BDF8263011461846FEF73AFFA4
:1094C0000890089B002B09D0089B60E0019B1B883B
:1094D000ADF81A30019B5B88ADF8263005AB184615
:1094E000FFF7DAF80790079B002B09D1BDF81A2087
:1094F000BDF8263011461846FEF784FF082346E0E3
:10950000079B9DF803201A70079B00229A75BDF8EF
:109510001A20079B9A82029B5A68079B1A61FEF7E2
:1095200099FF0246079BDA60029B1A88079B1A8103
:10953000029B5A88079B9A80079BBDF82620DA80F9
:109540009DF80330032B06D1079B04229A75039BD9
:109550001A68079B9A61079BBDF824205A8105ABC6
:109560001846FFF7AFF8039B002B0DD0039B00229A
:109570005A60079BDA68039B1A60039B00229A7269
:10958000064B1A89039B1A81FFF73AFF00231846FE
:109590000BB05DF804FB00BF345F002024600020A6
:1095A00000B585B001900C4B1B68042B02D10C2335
:1095B00003930BE0084B1B680849019A41F82320EC
:1095C0000121054800F0DEFD00230393039B1846AC
:1095D00005B05DF804FB00BF405F0020445F002041
:1095E00084B040F6F8731B68B3F1FF3F02D10F4B14
:1095F0001B6802E040F6F8731B6803934FF080533A
:109600001B6902934FF080535B690193039BB3F195
:10961000FF3F04D1019B029A02FB03F300E0039B8E
:109620000093009B184604B0704700BF1410001050
:1096300000B583B04FF440530193FFF7D1FF0246CA
:10964000054B1A61044B1A69019BD31A024AD36075
:1096500000BF03B05DF804FBB857002008B5FFF762
:10966000E7FF00220349044801F05EFA034618466A
:1096700008BD00BF58D40300B857002008B50448FF
:109680001C238C22034900F094FB00BF08BD00BFDF
:10969000E45F0020585F002000B58BB002AB0022D1
:1096A0001A605A609A60DA601A61404B1B78DBB22C
:1096B000002B05D002AB1846FEF702FC002371E038
:1096C0003B4800F08FFD0346002B01D0002369E0EA
:1096D000FFF7C4FF0990099B002B01D0099B61E0B3
:1096E000FFF7CCFFFFF72AF803468DF823309DF8EB
:1096F0002330022B03D0062B03D0002B0DD10B23DC
:1097000050E02A4B01221A70284B00225A6002AB0B
:109710001846FEF7D5FB002344E000BF01AB184616
:10972000FEF7BAFF0790079B002B01D1082339E011
:10973000079B01221A709DF82330013B0A2B29D880
:1097400001A252F823F000BF75970200959702001E
:1097500075970200959702008D9702009597020079
:109760008D970200959702007D9702008597020071
:109770007D970200079B00221A710CE0079B0322D1
:109780001A7108E0079B02221A7104E0079B01226C
:109790001A7100E000BF01AB1846FEF793FFFFF718
:1097A0002FFE002318460BB05DF804FB345F002049
:1097B000385F002000B585B001900091019B002B1F
:1097C00002D0009B002B01D1052329E00DF10A03F3
:1097D00019460198FEF798FE0346002B1FD0019B07
:1097E0005B680393BDF80A301A4613469B00134486
:1097F0009B0008330C4A134404330121184600F03F
:10980000C1FC009B039A1A60019B5B6803F10C0288
:10981000009B5A60019B01229A72002300E00A23F8
:10982000184605B05DF804FBF45F002000B585B074
:109830000190019B002B01D1052339E00DF10A03B2
:1098400019460198FEF760FE0346002B2DD0BDF8A7
:109850000A301946184A0B469B000B449B001344E0
:109860000C331B68002B1DD0019B9B7A002B19D059
:10987000BDF80A301A46104913469B0013449B005A
:109880000B440C331B68591E0B4813469B001344B2
:109890009B0003440C331960019B00229A72002341
:1098A000039304E00623039301E00A230393039B3D
:1098B000184605B05DF804FBF45F002000B583B0E6
:1098C000019000910223002200990198FFF7B4FD56
:1098D0000346184603B05DF804FB00B583B0019061
:1098E0000091019B002B01D1052306E003230022F8
:1098F00000990198FFF7A0FD0346184603B05DF8F4
:1099000004FB000000B585B00346ADF80630184BE7
:109910001B78DBB283F00103DBB2002B01D0022302
:1099200022E0BDF806304FF6FF72934201D10423C6
:109930001AE002AB1846FEF7AFFE0390039B002B24
:1099400001D1082310E0039B05221A70039B01221A
:109950001A71039BBDF80620DA8002AB1846FEF7A9
:10996000B1FEFFF74DFD0023184605B05DF804FB7E
:10997000345F002000B583B0144B1B78DBB283F05A
:109980000103DBB2002B01D002231AE06B4618461C
:10999000FEF782FE0190019B002B01D1082310E00D
:1099A000019B06221A706B461846FEF78BFE084B89
:1099B0001B78002B02D0064B01221A73FFF720FD03
:1099C0000023184603B05DF804FB00BF345F00209D
:1099D0002460002000B585B0029201930346ADF8E3
:1099E0000E300B46ADF80C3003A90DF10E00019BB3
:1099F000029AFEF7E3FD0346184605B05DF804FB46
:109A000000B585B0034602910192ADF80E300DF11C
:109A10000E01019B029A0020FEF7D0FD0346184676
:109A200005B05DF804FB00B585B0034602910192D4
:109A3000ADF80E300DF10E00019B029A0021FEF7E9
:109A4000BDFD0346184605B05DF804FB82B00190E9
:109A50000091019B002B02D0009B002B01D105231C
:109A600004E0019B1A68009B1A600023184602B0AC
:109A7000704700001EF0040F1CBFEFF309800AE0DE
:109A8000EFF308800549064A884201D8904202D87F
:109A90008D464FF00000034B1847000000000120E6
:109AA00000F80020E59A020000BF00BFBFF34F8F0F
:109AB000054BDB6803F4E0620349044B1343CB60BE
:109AC000BFF34F8F00BFFDE700ED00E00400FA0593
:109AD00000B583B00190FFF7E9FF00BF03B05DF868
:109AE00004FB000010B588B00390FDF7F3FB00BF46
:109AF000FDF7B2F90346002BFAD1039B0693544BB2
:109B00009B6A0593069B002B35D0524A524BD31AC1
:109B1000DB081B0443F00100069B9B691A464F4972
:109B2000FDF738F94B4A4C4BD31ADB081B0443F0C2
:109B30000100069B1968069B5C68069B9B68069A59
:109B4000D2680192009323460A464549FDF75DF924
:109B5000404A414BD31ADB081B0443F00100069B2B
:109B60001A69069B5969069BDB6900930B463D49C0
:109B7000FDF735F90AE0374A374BD31ADB081B04E7
:109B800043F0010338491846FDF7F6F8304BDB6A1D
:109B900003F00203002B0AD02E4A2F4BD31ADB0806
:109BA0001B0443F0010331491846FDF7E5F8002393
:109BB000079320E00122079B02FA03F31A46059B54
:109BC0001340002B14D02A4A079B52F82330002B55
:109BD0000ED0204A204BD31ADB081B0443F00100AF
:109BE000234A079B52F823301A462249FDF7D2F840
:109BF000079B01330793079B192BDBD9059B03F0C8
:109C00008003002B0CD0134A134BD31ADB081B0420
:109C100043F001000E4B5B6B1A461749FDF7BAF88B
:109C2000059B03F40043002B0CD00A4A0A4BD31ABD
:109C3000DB081B0443F00100054B9B6B1A460F49E0
:109C4000FDF7A8F80398FFF743FF00BF08B010BD69
:109C500000ED00E048CA030008CA030040CC03003E
:109C600058CC030090CC0300B8CC0300ECCC03002C
:109C70002058002030CD03003CCD03005CCD030014
:109C800086B001900091019B53E8011F8AB2D889E8
:109C900002449889824228BF121A1889824202BF60
:109CA000BFF32F8F002307E0C2EA010243E801203F
:109CB0000028E9D14FF001038DF80F300590029193
:109CC0000492029A009B1A609DF80F30DBB218468E
:109CD00006B0704784B00190019951E8013FC3EA92
:109CE000034341E80132002AF7D10392029300BFF7
:109CF00004B0704786B001900091019B53E8021FA9
:109D00001FFAA1F2D888824202BFBFF32F8F00232F
:109D10000DE0D88902449889824228BF121AC1EA0C
:109D2000024243E802200028E8D14FF001038DF8F9
:109D30000F30059002910492029A009B1A609DF8E0
:109D40000F30DBB2184606B0704784B0019001991D
:109D500051E8023FC3EA234341E80232002AF7D127
:109D60000392029300BF04B0704786B00190019B3C
:109D700053E8021FDA88B1EB314F4FF0000017BFF4
:109D800089B242EA024241EA024204E05968B1EB78
:109D9000314F08BF012043E802210029E8D18DF8A6
:109DA0000F00059104929DF80F30DBB2184606B003
:109DB000704784B00390029111461A460B46ADF8E5
:109DC00006301346ADF80430029B002B01D10E2360
:109DD0001FE0BDF80630BDF80420B3FBF2F102FB32
:109DE00001F29B1A9BB2002B01D0092311E0039BC7
:109DF000029A1A60039B00225A60039B00229A6019
:109E0000039BBDF806209A81039BBDF80420DA81EC
:109E10000023184604B0704700B585B00190019842
:109E2000FFF7A3FF03468DF80F309DF80F30002B8E
:109E300001D0002300E01123184605B05DF804FBB3
:109E400000B585B001900091009B19460198FFF77D
:109E500017FF0346002B07D0019B1B68009A12884E
:109E600013440393039B00E00023184605B05DF8FC
:109E700004FB00B583B001900091009B1A88009B01
:109E80005B889A4204D10198FFF724FF012300E088
:109E90000023184603B05DF804FB00B585B00190BF
:109EA0000091009B19460198FFF724FF0346002B01
:109EB00007D0019B1B68009A528813440393039BAD
:109EC00000E00023184605B05DF804FB00B583B040
:109ED00001900091009B1A88009B5B889A4204D1F4
:109EE0000198FFF732FF012300E00023184603B07A
:109EF0005DF804FB00B585B001900091009B5B0903
:109F00009B00019AD018009B03F01F03012202FA64
:109F100003F3194600F0D6F8039000BF05B05DF8D2
:109F200004FB00B583B001900091009B5B099B008E
:109F3000019AD018009B03F01F03012202FA03F3D9
:109F4000194600F0A7F80246009B03F01F0322FA0F
:109F500003F303F00103002B14BF01230023DBB242
:109F6000184603B05DF804FB00B585B00190009180
:109F7000009B5B099B00019AD018009B03F01F0314
:109F8000012202FA03F3DB43194600F0CBF80390F9
:109F900000BF05B05DF804FB82B001900091009B0A
:109FA0005B099B00019A13441A68009B03F01F038E
:109FB00022FA03F303F00103002B14BF0123002353
:109FC000DBB2184602B0704700B58BB0019000912B
:109FD000002309933BE0099B9B00019A13441B68F3
:109FE000DB430693069B93FAA3F30593059BB3FA11
:109FF00083F3089323E0099B5B01089A13440793BA
:10A00000079A009B9A421ED207990198FFF789FF91
:10A01000034683F00103DBB2002B01D0079B1EE057
:10A02000099B9B00019A13441B68DB430493049B28
:10A0300093FAA3F30393039BB3FA83F30893089B68
:10A040001F2BD8D900E000BF099B01330993009B67
:10A05000013B5B090133099A9A42BCD3009B184625
:10A060000BB05DF804FB10B487B001900091019B28
:10A07000009A53E8004F104643E8000191F0000FAA
:10A08000F7D1059404900391059B184607B05DF83D
:10A09000044B704710B487B001900091019B009A67
:10A0A00053E8004F44EA020043E8000191F0000F3A
:10A0B000F6D1059404900391059B184607B05DF80E
:10A0C000044B704710B487B001900091019B009A37
:10A0D00053E8004F44EA020043E8000191F0000F0A
:10A0E000F6D1059404900391049B184607B05DF8DF
:10A0F000044B704710B487B001900091019B009A07
:10A1000053E8004F04EA020043E8000191F0000F19
:10A11000F6D1059404900391059B184607B05DF8AD
:10A12000044B704710B487B001900091019B009AD6
:10A1300053E8004F04EA020043E8000191F0000FE9
:10A14000F6D1059404900391049B184607B05DF87E
:10A15000044B704710B487B001900091019B009AA6
:10A1600053E8004F04EB020043E8000191F0000FB8
:10A17000F6D1059404900391059B184607B05DF84D
:10A18000044B704710B487B001900091019B009A76
:10A1900053E8004F04EB020043E8000191F0000F88
:10A1A000F6D1059404900391049B184607B05DF81E
:10A1B000044B704710B487B001900091019B009A46
:10A1C00053E8004FA4EB020043E8000191F0000FB8
:10A1D000F6D1059404900391049B184607B05DF8EE
:10A1E000044B704700B583B0019001210198FFF73F
:10A1F00051FF0346184603B05DF804FB00B583B079
:10A20000019001210198FFF75DFF0346184603B056
:10A210005DF804FB00B583B0019000210198FFF7C1
:10A2200069FF0346184603B05DF804FB82B0019055
:10A230000B468DF80330019BDA689DF803300199D5
:10A24000098A01FB03F31344184602B0704782B039
:10A2500001900091009B019AD2689B1A019A128A80
:10A26000B3FBF2F3DBB2184602B0704784B0019042
:10A27000019B002B01D10E2320E0019B9A68019BDA
:10A280005B68D31A8DF80F30019B1B68019A5268E6
:10A290001A6007E0019B1A681368591C11609DF849
:10A2A0000F201A709DF80F305A1E8DF80F20002BCA
:10A2B000F0D1019B1B6800221A710023184604B0DC
:10A2C000704700B585B001900023039300238DF8FB
:10A2D0000A300DF10A031846FDF7CCFD019B1B68FF
:10A2E0001A68019B5B689A421FD9019B1B681A6818
:10A2F000013A1A601B681B7819460198FFF796FF10
:10A300000390019B9A68019B1B681B68D31A8DF808
:10A310000B30019B1B681B799DF80B209A4204D9D6
:10A32000019B1B689DF80B201A719DF80A30184696
:10A33000FDF7AAFD039B184605B05DF804FB10B5B8
:10A3400084B001900091009B039300238DF80B30A3
:10A350000DF10B031846FDF78DFD019B1B681C6872
:10A36000621C1A6003990198FFF771FF034623707E
:10A370009DF80B301846FDF787FD00BF04B010BDF7
:10A3800000B583B00190019B9B68002B0CD0019B12
:10A390005B69019A1069019A1168019A926898475D
:10A3A000019B00229A6000E000BF03B05DF804FB4F
:10A3B0000EB400B584B00190059B002B0AD0002399
:10A3C000039306AB039303AB1A460599019800F07B
:10A3D000B5F900E000BF04B05DF804EB03B07047CE
:10A3E00000B583B001900B468DF803309DF8033023
:10A3F0000A2B03D10D210198FFF7F2FF019B1A6888
:10A40000019B9B68581C0199886013449DF80320A8
:10A410001A70019B9A68019B5B689A4202D301986B
:10A42000FFF7AEFF00BF03B05DF804FB00B587B0D7
:10A43000039002910192009300230593009B03F087
:10A440000103002B24D00BE0029B01330293059BF8
:10A45000013305939DF8133019460398FFF7C0FFA9
:10A46000029B1B788DF813309DF81330002BEBD135
:10A4700006E0019B013B019320210398FFF7B0FF09
:10A48000019A059B9A422ED9019B002BF1D12AE01B
:10A49000029B002B0BD0029812F033FA059006E0D5
:10A4A000019B013B019320210398FFF799FF019A3B
:10A4B000059B9A420FD9019B002BF1D10BE0029B27
:10A4C00001330293059B013305939DF81330194620
:10A4D0000398FFF785FF029B1B788DF813309DF8DA
:10A4E0001330002BEBD100BF07B05DF804FB000078
:10A4F00000B589B00390029101920093029B0793EB
:10A500000123069307E0079A019BB2FBF3F307933D
:10A51000069B01330693079A019B9A42F3D2009A55
:10A52000069B9A4201D9009B06930B9B03F0010303
:10A53000002B22D10A9B002B1FD00B9B03F00203A0
:10A54000002B06D0009B002B03D130238DF8173051
:10A5500002E020238DF8173008E00A9B013B0A93A4
:10A560009DF8173019460398FFF73AFF0A9B002B16
:10A5700003D0069A0A9B9A42EFD301230793009BCC
:10A58000012B03D9009B013B009309E0029A079B32
:10A59000B2FBF3F30493049A019B9A4200D205E0C4
:10A5A000079B019A02FB03F30793E8E7029A079BD4
:10A5B000B2FBF3F30493049B079A02FB03F3029AA2
:10A5C000D31A0293154A049B13441B781946039827
:10A5D000FFF706FF079A019BB2FBF3F30793079B74
:10A5E000002BE3D10B9B03F00103002B11D00A9B3E
:10A5F000002B0ED006E00A9B013B0A932021039812
:10A60000FFF7EEFE0A9B002B03D0069A0A9B9A42A4
:10A61000F1D300BF09B05DF804FB00BF4CD20300CA
:10A6200000B589B00590049103920293049B002B1E
:10A63000B8BF5B4206930123079307E0039B069A8A
:10A6400092FBF3F30693079B01330793039B069A50
:10A650009A42F3DA029A079B9A4201D9029B079326
:10A660000A9B002B0AD0049B002B04DB0B9B03F0FE
:10A670000403002B02D00A9B013B0A930B9B03F0BF
:10A680000203002B02D0029B002B16D00B9B03F081
:10A690000103002B11D10A9B002B0ED006E00A9B70
:10A6A000013B0A9320210598FFF79AFE0A9B002B95
:10A6B00003D0079A0A9B9A42F1D3049B002B07DA36
:10A6C000049B5B4204932D210598FFF789FE08E067
:10A6D0000B9B03F00403002B03D02B210598FFF7FD
:10A6E0007FFE0B9B03F00203002B19D00B9B03F0A2
:10A6F0000103002B14D1029B002B11D10A9B002BCC
:10A700000ED006E00A9B013B0A9330210598FFF723
:10A7100067FE0A9B002B03D0079A0A9B9A42F1D34B
:10A7200004990B9B01930A9B0093029B039A059843
:10A73000FFF7DEFE00BF09B05DF804FB00B58FB087
:10A74000059004910392049B002B00F0E981049B87
:10A750001B788DF83730049B013304939DF8373014
:10A76000002B00F0D4819DF83730252B40F0C381B9
:10A7700000230A9301230C93049B1B788DF8373038
:10A780009DF837302D2B04D0302B0AD02B2B10D036
:10A7900017E00A9B43F001030A93049B01330493DF
:10A7A00012E00A9B43F002030A93049B01330493D3
:10A7B0000AE00A9B43F004030A93049B01330493C9
:10A7C00002E000230C9300BF0C9B002BD4D100238C
:10A7D00009939DF837302A2B0CD1039B1B68191D58
:10A7E000039A11601B68099A13440993049B01336F
:10A7F00004931AE0049B1B788DF837309DF83730AE
:10A800002F2B12D99DF83730392B0ED8049B0133EA
:10A810000493099A13469B0013445B001A469DF863
:10A8200037301344303B0993D3E700230B93049B49
:10A830001B788DF837309DF837302E2B1DD1049BB7
:10A8400001330493049B1B788DF837309DF8373023
:10A850002F2B12D99DF83730392B0ED8049B01339A
:10A8600004930B9A13469B0013445B001A469DF811
:10A8700037301344303B0B93E4E7049B1B788DF88F
:10A8800037309DF837306C2B03D09DF83730682B6C
:10A8900007D1049B01330493049B1B788DF8373058
:10A8A000EFE79DF83730253B532B00F21F8101A2C3
:10A8B00052F823F0E3AA0200EDAA0200EDAA02007A
:10A8C000EDAA0200EDAA0200EDAA0200EDAA020024
:10A8D000EDAA0200EDAA0200EDAA0200EDAA020014
:10A8E000EDAA0200EDAA0200EDAA0200EDAA020004
:10A8F000EDAA0200EDAA0200EDAA0200EDAA0200F4
:10A90000EDAA0200EDAA0200EDAA0200EDAA0200E3
:10A91000EDAA0200EDAA0200EDAA0200EDAA0200D3
:10A92000EDAA0200EDAA0200EDAA0200EDAA0200C3
:10A93000EDAA0200EDAA0200EDAA0200EDAA0200B3
:10A94000EDAA0200EDAA0200EDAA0200EDAA0200A3
:10A95000EDAA0200EDAA0200EDAA0200EDAA020093
:10A96000EDAA0200EDAA0200EDAA0200EDAA020083
:10A97000EDAA0200EDAA0200EDAA0200EDAA020073
:10A980006FAA0200EDAA0200EDAA0200EDAA0200E1
:10A99000EDAA0200EDAA0200EDAA0200EDAA020053
:10A9A000EDAA0200EDAA0200EDAA020005AA02002B
:10A9B00027AA0200EDAA0200EDAA0200EDAA0200F9
:10A9C000EDAA020027AA0200EDAA0200EDAA0200E9
:10A9D000EDAA0200EDAA0200EDAA0200EDAA020013
:10A9E000AFAA0200EDAA0200EDAA020093AA02009B
:10A9F000EDAA02004BAA0200EDAA0200EDAA020095
:10AA00006FAA0200039B1B68191D039A11601B6843
:10AA10000C930C9B8DF823309DF823301946059834
:10AA2000FFF7DEFC63E0039B1B68191D039A1160AE
:10AA30001B680C930A9B0193099B00930B9B0A22B2
:10AA40000C990598FFF7ECFD51E0039B1B68191D5D
:10AA5000039A11601B680C930C990A9B0193099B44
:10AA600000930B9B0A220598FFF742FD3FE0039BF2
:10AA70001B68191D039A11601B680C930C990A9BA3
:10AA80000193099B00930B9B10220598FFF730FD63
:10AA90002DE0039B1B68191D039A11601B68079327
:10AAA0000A9B099A07990598FFF7C0FC1FE0039BD2
:10AAB0001B68191D039A11601B680C9330210598BF
:10AAC000FFF78EFC78210598FFF78AFC0C9900238C
:10AAD000019308230093082310220598FFF708FD2F
:10AAE00005E025210598FFF77BFC00E000BF049BF3
:10AAF0000133049305E09DF8373019460598FFF7B8
:10AB00006FFC049B1B78002B7FF421AE00E000BF9C
:10AB1000059B1B7B002B04D00598FFF731FC00E060
:10AB200000BF0FB05DF804FB00B587B0059004913D
:10AB30000392059B002B10D1194A1A4BD31ADB083C
:10AB40001B0443F00100184A18490E2300930B46DA
:10AB50001749FCF744F90E231DE0049B002B10D18C
:10AB60000F4A104BD31ADB081B0443F00100114AB3
:10AB70000E490E2300930B460D49FCF730F90E23C6
:10AB800009E0059B049A1A60059B1B681B680399E2
:10AB9000059898470346184607B05DF804FB00BFC8
:10ABA00058CA030008CA03006CD2030010D4030083
:10ABB00074D20300A0D2030010B586B005900491B2
:10ABC00003920293059B002B10D1604A604BD31A6D
:10ABD000DB081B0443F001005E4A5F490E2300932B
:10ABE0000B465E49FCF7FBF80E23ABE0039B002B02
:10ABF00010D1564A564BD31ADB081B0443F0010010
:10AC0000574A55490E2300930B465449FCF7E7F881
:10AC10000E2397E0059B1B68002B10D14B4A4C4B31
:10AC2000D31ADB081B0443F001004E4A4A490823AB
:10AC300000930B464949FCF7D2F8082382E0029BB7
:10AC4000002B10D1414A424BD31ADB081B0443F0BE
:10AC50000100454A4049092300930B463F49FCF750
:10AC6000BEF809236EE0059B5B685A68029BB3FB44
:10AC7000F2F102FB01F29B1A002B10D0334A344B45
:10AC8000D31ADB081B0443F00100384A3249092378
:10AC900000930B463149FCF7A2F8092352E00498CF
:10ACA00000F01EF90346002B10D1284A284BD31A76
:10ACB000DB081B0443F001002D4A274910230093B1
:10ACC0000B462649FCF78BF810233BE0039B184604
:10ACD00000F006F90346002B10D11C4A1C4BD31A76
:10ACE000DB081B0443F00100224A1B491023009398
:10ACF0000B461A49FCF773F8102323E0029A0499D3
:10AD0000059800F0D3F80346002B10D10F4A104BE2
:10AD1000D31ADB081B0443F00100174A0E49102325
:10AD200000930B460D49FCF75AF810230AE0059BE7
:10AD30001B68DC68089B0093029B039A04990598A2
:10AD4000A0470346184606B010BD00BF58CA03000E
:10AD500008CA03006CD2030024D4030074D2030099
:10AD600000D30300A8D20300BCD2030008D3030021
:10AD700034D303004CD3030070D3030010B586B066
:10AD80000590049103920293059B002B10D13E4A3B
:10AD90003E4BD31ADB081B0443F001003C4A3D49FB
:10ADA0000E2300930B463C49FCF719F80E2368E08C
:10ADB000059B1B68002B10D1334A344BD31ADB0898
:10ADC0001B0443F00100354A3249082300930B4627
:10ADD0003149FCF704F8082353E0039B002B10D102
:10ADE000294A2A4BD31ADB081B0443F001002C4AE2
:10ADF0002849092300930B462749FBF7F0FF092355
:10AE00003FE00499059800F078F80346002B10D134
:10AE10001D4A1E4BD31ADB081B0443F00100214AD4
:10AE20001C49102300930B461B49FBF7D8FF102346
:10AE300027E0059B5B681B68039A02FB03F31A4635
:10AE40000499059800F032F80346002B10D10E4A01
:10AE50000E4BD31ADB081B0443F00100124A0D49C4
:10AE6000102300930B460C49FBF7B9FF102308E0B1
:10AE7000059B1B681C69029B039A04990598A047CF
:10AE80000346184606B010BD58CA030008CA03009E
:10AE90006CD2030038D4030074D20300A8D203009C
:10AEA000BCD2030098D30300C0D3030084B0039046
:10AEB00002910192039BDB68029A9A4209D3029A9B
:10AEC000019B13445A1E039B1B699A4201D801231C
:10AED00000E0002303F00103DBB2184604B0704722
:10AEE00082B00190019B03F00303002B0CBF0123F0
:10AEF0000023DBB2184602B0704782B00190009187
:10AF0000019B5B681B685A1E009B1340002B0CBF03
:10AF100001230023DBB2184602B0704729DF7047D7
:10AF200000BF184628DF704700BF184600B589B03B
:10AF300001900091019B1B689B68002B35D002ABF0
:10AF400000221A605A609A60DA601A615A61009BA6
:10AF50000393019B9B680793019B1B79002B02D0F5
:10AF6000012B0DD01AE001238DF80830019B1B69DD
:10AF70000493019BDB680593019B5B6906930DE0DD
:10AF800002238DF80830019BDB684FF4805202FBEE
:10AF900003F30493019B5B69069300BF019B1B684D
:10AFA0009B6802AA1046984700E000BF09B05DF810
:10AFB00004FB00B587B00190019B5A69019B9B6916
:10AFC000D31AB3F5805F28BF4FF480530593042252
:10AFD000059BB3FBF2F3012B38BF01230593019BC3
:10AFE0001A69019B9B6913440493019BDB681A4611
:10AFF000019B9B6913440393059A03990498FFF7F7
:10B000008DFF0346184607B05DF804FB00B583B01A
:10B010000190019BDA68019B1B6913441846FFF7F6
:10B0200081FF0346184603B05DF804FB08B5034BE7
:10B0300003491846FEF74AFF00BF08BDE060002044
:10B040000861002008B5084B08491846FEF725FF9F
:10B050000246074B1A60064B1B68002B14BF0123E6
:10B060000023DBB2184608BDE06000200861002024
:10B070000461002000B583B02B4B1B7A002B0BD151
:10B08000FFF7E0FF034683F00103DBB2002B03D0A0
:10B09000254B00225A6043E0234B02221A72234BB5
:10B0A0001B681B79002B02D0012B07D00DE01F4B32
:10B0B0001B681846FFF77DFF019009E01B4B1B68DA
:10B0C0001846FFF7A3FF019002E00323019300BF9E
:10B0D000019B002B03D0019B112B0CD00FE0124BD6
:10B0E0001B7C83F00103DBB2002B18D0002102206F
:10B0F00000F062F913E00C4B01221A7210E00B4BC6
:10B100001B6803211846FFF711FF074B00221A7234
:10B11000054B00225A60FFF789FF00BF00E000BF27
:10B1200003B05DF804FB00BFF06000200461002064
:10B1300008B50848FFF756F80346002B08D1064B20
:10B140005B7C83F00103DBB2002B01D0FFF792FFA1
:10B1500000BF08BDF4600020F060002084B00190C2
:10B160001B4B0022DA60019B1B79002B02D0012BC4
:10B1700019D028E0019B5A69019B9B69D31AB3F54A
:10B18000805F28BF4FF480530393019B9A69039B10
:10B190001A44019B9A61019B9A69019B5B699A42DF
:10B1A0000ED1012310E0019B1B695A1C019B1A61FF
:10B1B000019B1A69019B5B699A4203D1012303E059
:10B1C00000BF00E000BF0023184604B0704700BF76
:10B1D000F060002082B00190084BDB680133074A21
:10B1E000D360064BDB68082B04D9044B0022DA60DD
:10B1F000012300E00023184602B07047F0600020F1
:10B2000000B583B001900091019B0C4A5A600C4834
:10B21000FEF7E8FF0346002B0BD111F07FF8034641
:10B220001A46074B1A7407481C238C220649FEF75E
:10B23000C0FD0023184603B05DF804FB4CD40300A6
:10B24000F0600020E06000205460002000B583B072
:10B250000190009114220021054811F01FFB054BBD
:10B260001846FEF7D9FD0023184603B05DF804FB2D
:10B27000F0600020E060002000B587B003900291EC
:10B2800001920093174A04AB19461046FEF7D8FD09
:10B290000590059B002B01D104231FE01C220021F7
:10B2A000059811F0FBFA059B00221A71059B039A81
:10B2B0001A60059B089A9A60059B029A1A61059B81
:10B2C000019ADA60059B009A5A61064A04AB194656
:10B2D0001046FEF7CEFDFFF72BFF0023184607B000
:10B2E0005DF804FBE060002000B585B0039002919A
:10B2F00001920093029B009A1946019811F0A5FA59
:10B300000023184605B05DF804FB000000B587B0C7
:10B310000390029101920093184A04AB194610461B
:10B32000FEF78EFD0590059B002B01D1042320E044
:10B330001C220021059811F0B1FA059B01221A7117
:10B34000059B039A1A60059B009A9A604FF48052FD
:10B35000029BB3FBF2F2059BDA60059B019A5A61EE
:10B36000064A04AB19461046FEF783FDFFF7E0FEE0
:10B370000023184607B05DF804FB00BFE060002022
:10B3800082B001900091009B184602B0704782B0D5
:10B39000019000910023184602B0704782B00190DE
:10B3A000044B1B7A002B14BF01230023DBB2184689
:10B3B00002B07047F060002000B585B001900091A8
:10B3C000019B022B02D0019B032B4AD1274B1B7AF6
:10B3D000012B36D0022B02D0002B35D142E00023C6
:10B3E0008DF80F30019B022B03D0019B032B09D05A
:10B3F00011E01F4B1B681846FFF7B0FE03468DF89F
:10B400000F3008E01A4B1B681846FFF7E3FE0346AF
:10B410008DF80F3000BF9DF80F30002B13D0134B69
:10B4200000221A72124B1A68019B022B01D10023D1
:10B4300000E00D2319461046FFF778FDFFF7F6FDF3
:10B4400001E000BF00E000BF084B5B7C83F001031C
:10B45000DBB2002B02D0FFF70DFE03E010F042FF3D
:10B4600000E000BF05B05DF804FB00BFF060002005
:10B470000461002082B0034600918DF80730064B2E
:10B4800001225A74044B1B7A002B0CBF01230023AA
:10B49000DBB2184602B07047F060002000B583B000
:10B4A000034600918DF807309DF80730012B03D03B
:10B4B0009DF80730032B0DD1084B00225A749DF8DC
:10B4C0000730012B0CBF01230023DAB2034B1A749F
:10B4D000FFF7D0FD00BF03B05DF804FBF060002073
:10B4E00000B583B001900198FEF7C0FE03461846F0
:10B4F00003B05DF804FB00B58BB001900091019B97
:10B500001B8A043B0793009A079B1344DA1C079B92
:10B51000B2FBF3F38DF81B300198FEF7D2FE0590D5
:10B52000059B002B01D1002338E0059B00221A71F6
:10B53000059B01225A71079B9AB2059BDA80059BF5
:10B5400009939DF81B30013B0493099B019A1A60F3
:10B55000002308931DE00198FEF7B3FE0390039BC0
:10B56000002B0ED0059B5B790133DAB2059B5A7133
:10B57000099B039A1A60039B019A1A60039B099323
:10B5800004E0059800F00EF8002307E0089B013363
:10B590000893089A049B9A42DDD3059B18460BB08A
:10B5A0005DF804FB00B58BB00190019B0793079BEE
:10B5B0005B798DF81B30019B08939DF81B30013B94
:10B5C00005930023099305E0089B1B680893099BDA
:10B5D00001330993099A059B9A42F5D3089B1B688E
:10B5E0000493019B0893002309930BE0089B1B68BD
:10B5F000039308990498FEF7A2FE039B0893099B06
:10B60000013309939DF81B30099A9A42EED300BF8B
:10B610000BB05DF804FB00B585B00190019B03936E
:10B62000039B043301211846FEF7ACFD00BF05B0B3
:10B630005DF804FB00B587B00190019B0593059B65
:10B64000043301211846FEF7B5FD0346039303AB0F
:10B650000493049B1B78002B02D10198FFF7A2FFF3
:10B6600000BF07B05DF804FB00B591B003900291F4
:10B6700001920093039B0993039B0F93099BDB8823
:10B680001A46099B5B7903FB02F3043B0893099B71
:10B69000DB880793009B1A1D079BB2FBF3F30E9305
:10B6A000009B0433079AB3FBF2F2079901FB02F205
:10B6B0009B1A0D93019B1A68009B1344089A9A42A7
:10B6C00003D2089A009BD31A01E0019B1B680C93DC
:10B6D000019B0C9A1A6005E00F9B1B680F930E9B51
:10B6E000013B0E930E9B002BF6D100230B93079A80
:10B6F0000D9BD31A0A930A9A0C9B934228BF1346B8
:10B700000A932AE0029A0B9B134406930F9A0D9B0F
:10B710001344043305939DF84830002B05D00A9A52
:10B720000599069811F091F804E00A9A069905988F
:10B7300011F08BF800230D930F9B1B680F930C9A4D
:10B740000A9BD31A0C930B9A0A9B13440B93079AE8
:10B750000C9B934228BF13460A930C9B002BD1D11C
:10B7600000BF11B05DF804FB00B589B005900491ED
:10B7700003920293039B079307AA00230093029B63
:10B7800004990598FFF770FF00BF09B05DF804FB4E
:10B7900000B589B00590049103920293039B07932F
:10B7A00007AA01230093029B04990598FFF75CFF09
:10B7B00000BF09B05DF804FB82B00190019B9B685B
:10B7C00000229A60019B9B6800221A61019B9B6882
:10B7D00000225A61019B9B680022DA60019B9B68F2
:10B7E00000225A60019B9B6800221A6000BF02B0D1
:10B7F000704782B001900091019B009A1A60019BF2
:10B800001B681A68019B5A60019B5A68019B1B6860
:10B810005B689A4202D1019B00225A6000BF02B0CD
:10B82000704782B00190019B5B68002B14D0019B94
:10B830005B681A46019B1B689B6813441A46019B70
:10B840005A60019B5A68019B1B685B689A4204D14D
:10B85000019B00225A6000E000BF02B07047000068
:10B8600000B585B00190019800F00EF80390039B9D
:10B87000002B01D0039B00E0024B184605B05DF899
:10B8800004FB00BF78D4030086B00190164B0593EB
:10B89000164B04931FE0049A059BD31ADB10DA0FB2
:10B8A00013445B10DB00059A13440393039B1B684E
:10B8B0000293029A019B9A4202D9039B04930AE0E5
:10B8C000029A019B9A4203D2039B0833059302E03C
:10B8D000039B5B6804E0059A049B9A42DBD3002338
:10B8E000184606B0704700BF78D80300A0D90300FF
:10B8F00082B001900091009B1B7B002B07D0009B26
:10B900005A68019B1A60019B00221A7106E0009B95
:10B910001A68019B1A60019B01221A7100BF02B0D4
:10B92000704700B583B001900091019B1B79002BFB
:10B9300004D00099019800F00BF803E000990198F9
:10B9400000F024F8019B1B68184603B05DF804FB67
:10B9500082B001900091009B5A68019B1B68D21A2B
:10B96000009B9B689A4207D9019B1A68009B9B68C1
:10B970001A44019B1A6006E0009B5A68019B1A60FA
:10B98000019B00221A7100BF02B0704782B0019083
:10B990000091019B1A68009B1B68D21A009B9B6850
:10B9A0009A4207D9019B1A68009B9B68D21A019B97
:10B9B0001A6006E0009B1A68019B1A60019B012235
:10B9C0001A7100BF02B07047BFF34F8F054BDB68A1
:10B9D00003F4E0620349044B1343CB60BFF34F8F82
:10B9E00000BFFDE700ED00E00400FA05024B034A4A
:10B9F0001A6000BF704700BF885800200090D00335
:10BA000008B500F067F90346002B06D09F4B1B6872
:10BA10001B0A9F4A03F01F03136000F087F90346D7
:10BA2000002B02D09B4B9C4A1A6000F09BF9034606
:10BA3000002B06D0994B1B685B0B994A03F0070358
:10BA4000136000F0BBF90346002B05D0954BDB6873
:10BA5000944A23F08073D36000F0CCF90346002BA6
:10BA60000ED04FF080430022C3F80C214FF08043EA
:10BA70000022C3F810214FF080430022C3F838257C
:10BA800000F0E4F90346002B02D0874B03221A6032
:10BA900000F0F8F90346002B0BD0844B05221A6006
:10BAA000834B01221A60834B00221A60824B3F2293
:10BAB0001A6000F003FA0346002B76D04FF0805353
:10BAC0007E4AD3F80434C2F820354FF080537B4AC5
:10BAD000D3F80834C2F824354FF08053774AD3F8AE
