:020000022000DC
:1060000000000120756302005D6302005F6302000F
:106010006163020063630200656302000000000028
:1060200000000000000000000000000067630200A4
:1060300069630200000000006B6302006D630200F0
:10604000C19102006F630200E19302006F630200DE
:106050006F6302006F6302005D9202006F630200D3
:106060006F6302006F6302006F6302006F630200E0
:106070006F630200019502006F6302006F6302000C
:106080006F6302006D6902006F6302006F630200BC
:10609000096A02006F630200211903006F630200A6
:1060A0006F6302006F6302006F6302006F630200A0
:1060B0006F6302006F630200000000000000000038
:1060C0006F6302006F6302006F6302006F63020080
:1060D0006F6302006F6302006F6302000000000044
:1060E00000000000000000000000000000000000B0
:1060F00000000000000000000000000000000000A0
:10610000000000000000000000000000000000008F
:10611000000000000000000000000000000000007F
:10612000000000000000000000000000000000006F
:10613000000000000000000000000000000000005F
:10614000000000000000000000000000000000004F
:10615000000000000000000000000000000000003F
:10616000000000000000000000000000000000002F
:10617000000000000000000000000000000000001F
:10618000000000000000000000000000000000000F
:1061900000000000000000000000000000000000FF
:1061A00000000000000000000000000000000000EF
:1061B00000000000000000000000000000000000DF
:1061C00000000000000000000000000000000000CF
:1061D00000000000000000000000000000000000BF
:1061E00000000000000000000000000000000000AF
:1061F000000000000000000000000000000000009F
:10620000354936480A1A02D0072291438D4634494F
:1062100034480A1A06D00722914381F309880222E2
:1062200082F3148830483149314A00F044F831484B
:106230003149324A00F03FF831483249324A00F0E1
:106240003AF832483249334A00F035F83248334997
:10625000334A00F030F833483349344A00F02BF821
:1062600033483449344A00F026F83448344900228F
:1062700000F02CF833483449002200F027F8334866
:106280003349091A082902DB002202604160314AC1
:1062900090471F481F49884205D00268043003B464
:1062A000904703BCF7E700208646EC46002000211B
:1062B000294A9047FEE7884207D0521A05D0037852
:1062C00001300B700131013AF9D17047884202D098
:1062D00002700130FAE770470000012000E0002062
:1062E000000001200000012060A603002C220020F5
:1062F000AC220020D0630200D063020034510300BE
:1063000060A603002C2200202C220020F85203005B
:10631000F8520300F8520300F8520300F852030049
:10632000F8520300F8520300F852030060A603007D
:10633000E0A60300AC220020AC220020AC2200200A
:10634000DA3A0020DC3A0020DC3A0020DC3A002077
:10635000DC5A00209D63020081BC0200FEE7FEE7DC
:10636000FEE7FEE7FEE7FEE7FEE7FEE7FEE7FEE705
:10637000704700BF1048804710484FF0070188431E
:1063800085460D4880470E48016841F47001016060
:10639000BFF34F8FBFF36F8FFFF732BF09480A4932
:1063A0000A4A884207D0521A05D0037801300B7090
:1063B0000131013AF9D1704739C0020000000120D3
:1063C00088ED00E0E4520300182200202C22002077
:1063D000022003F00ABD0000034B1B7813B100201C
:1063E00003F0EEBC03F0F3BCAC220020F8B57B4C0C
:1063F000237805461BB100232370FFF7EDFF172D0F
:1064000000F28880DFE805F00C17174354657680AA
:10641000888D888D959A9A9A9A9AC4C9D1D9E4E4BC
:10642000FFF7DAFF6E4800F0D1FC6E4B0022044605
:106430001A702046F8BD002003F0B2FCF8B100202D
:1064400003F0BEFC022D0CBF4FF4E1614FF47A6102
:10645000644B1D704FF400404FF4FA740025E0FBCC
:1064600001454FF47A720023204629460BF01FFCA9
:10647000002201465A48BDE8F84000F061BC03F034
:1064800098FC022D0CBFC8214FF4C871E0E7002032
:1064900003F086FC40B1002003F092FC4FF44871F9
:1064A000504B03221A70D5E703F083FCC821F7E7AD
:1064B000002003F075FC38B1002003F081FC4FF49C
:1064C0007A61484B0422EDE703F073FC4FF4C87186
:1064D000F7E7002003F064FC48B1002003F070FCF3
:1064E000404B05221A7041F69A110022C2E703F0D0
:1064F00060FCF5E7002003F078FC3A4B06221A70A6
:10650000002240F6CD41B5E7002003F052FC354BA8
:1065100007221A7000248CE70120207003F065FC2C
:10652000EEE70120207003F060FC00224FF4804170
:10653000A0E703F053FC2B4B0C22EAE72A482B4E32
:1065400000F044FCD5F1110504461CD0D8B9012D4A
:1065500013D0C8235D434FF400474FF4FA70002175
:106560004FF47A720023C7FB05010BF0A0FB224613
:1065700001461D4800F0E4FB0446022003F019FC2C
:106580000123337055E7022003F01AFC0023F8E7DB
:10659000FFF722FF134B1222BBE7FFF71DFF00207E
:1065A00003F007FC0F4B1322B3E7FFF715FF0120A1
:1065B00003F0FFFB0B4B1422ABE7FFF70DFF0020AE
:1065C00003F0F7FB012003F0F4FB064B1522A0E7D4
:1065D00003F004FC034B1D709CE700BFF422002075
:1065E000D0220020F5220020B0220020AC22002082
:1065F000044B1B68DB0703D5034B1878FFF7F6BE87
:10660000704700BFF0220020F5220020044B1B68D9
:1066100013F0010301D0FFF7E9BE1846704700BF31
:10662000F022002008B50B4B186010F001000FD0CD
:10663000012003F0E8FB084A0848002100F06EFB47
:1066400030B9074A07480121BDE8084000F066BBA1
:1066500008BD00BFF0220020F1650200FC520300DB
:10666000D1630200F85203000720704706207047EC
:1066700008B5012202210020FFF7F6FF08B1072824
:1066800010D1072202210120FFF7EEFF08B10728F1
:1066900008D100210A220846FFF7E6FF10B10728BB
:1066A00008BF002008BD00000388102B10B502D0E1
:1066B000112B1ED010BD1A4C2168B1B90122084619
:1066C000FFF7D2FF08B1072824D1072202210120B9
:1066D000FFF7CAFF08B107281CD1042202210020BD
:1066E000FFF7C2FF08B1072814D1236801332360E4
:1066F000E0E70B4A1368013B1360002BDAD1FFF788
:10670000B7FF0028D6D0074B1B68002BD2D0BDE8BE
:1067100010401847034B1B68002BE6D09847E4E76E
:10672000FC220020F822002008B50020FFF79EFF81
:1067300008B1062806D10120FFF798FF10B10628FE
:1067400008BF002008BD0000054B186009B10023F8
:106750000B70044B1B680BB9FFF78ABF0020704712
:10676000F8220020FC22002004F0ECBF00210846A3
:1067700004F09CBF10F1360F0AD058B148F2115204
:1067800048F2165310F1380F0CBF104618467047E8
:1067900048F21450704708B50846114602F060FCF4
:1067A000002008BD37B50446002002F0DBFB05469B
:1067B00078B90434204604F0CFFC00952B462A46D5
:1067C0000549204604F040FD03B0BDE83040FFF726
:1067D000D1BF03B030BD00BF9767020008B50430D9
:1067E00004F0BFFC02F0EAFB002008BD08B504304D
:1067F00004F093FDBDE80840FFF7BCBF08B51146A3
:1068000004301A4604F0BCFCBDE80840FFF7B2BFF4
:106810001FB50021039001AA44F20100CDE9011146
:1068200000F004F805B05DF804FB000010B572B686
:1068300003F0F2FE03F022FD0028FBD1104B114CB7
:106840001149E41AE408240444F0010003F080FE36
:106850000E4B1B68DB0700D500BE0D4944F002005B
:1068600003F076FEBFF34F8F0A490B4BCA6802F460
:10687000E0621343CB60BFF34F8F00BFFDE700BF63
:10688000FC5103002C52030000530300F0ED00E024
:106890000C53030000ED00E00400FA05094A5378A8
:1068A00091780133DBB2994208BF002311789942F5
:1068B0001FBF03705078182303FB002014BF04305F
:1068C000002070470023002073B5054600240DF119
:1068D00007000E468DF8074000F088FA0DF106001B
:1068E000FFF7DCFF90B10670094B9DF8062045606C
:1068F0005A709DF8070000F09DFA24B9054B4FF43B
:106900008012C3F80021204602B070BD0424F0E7D5
:106910000023002000E100E0024B4FF43C6043F014
:10692000010318472053030038B50C4B0C4C4FF4AF
:106930000032C3F8802001254FF48033C4F8483377
:10694000C4F808336560FFF7E7FF064BA560002435
:106950001C60FFF7E1FF044B1C7038BD00E100E054
:10696000001001401C2400200D240020F8B51F4B0E
:106970001F491B680025C1F84051C1F84451C1F8B6
:106980004851C1F84C51C1F80051C1F804514BB302
:10699000D1F8044517490968641A24F07F442F464A
:1069A0001A68A24209D8A41A15441A7CDE691AB1E1
:1069B0001F74D3E905209047AEB90F4A0F4B1178E9
:1069C0001B788B4205D10133DBB2022B08BF0023B9
:1069D000137012780A4B43F822500A4B4FF480127E
:1069E000C3F80021F8BD3346DAE700BF20240020B9
:1069F000001001401C24002019240020182400202D
:106A00001024002000E100E02DE9F04FA04AA14948
:106A100013780978A04D994285B03CD00133DBB2A0
:106A2000022B08BF002313709C4912789C4B0F68FF
:106A300053F822003B1823F07F4300220B602B68A1
:106A400016461446944613B942B12B6006E0196805
:106A500081420ED902B12B60091A19604FF001086A
:106A60002B68DFF844A201930027BEB9DFF840B2DB
:106A700066E0401A0C44D968C3F800C0D3F81CE0A3
:106A800031B13A1922F07F42C3E90121DE611E468D
:106A900001227346D7E70026B046E1E73446F6699F
:106AA0007E4A63681268DFF80CC2A068991A21F068
:106AB0007F41614500F2A5800144216001222274DA
:106AC0002A680023C4E90133E361002A40F0A28070
:106AD0002C60CAE75A1C9BF80210D2B291428BF884
:106AE000002004BF00228BF80020182202FB03B311
:106AF0001A799C68022A1CD0032A12D0012A1FD1BD
:106B0000207CE8B9D3E90312A2605A69E2609A696D
:106B1000644BA2611B78002B0CBF0B4603466360DD
:106B2000BEE700222B681146002B66D142B12B60D4
:106B300006E029680A468946002A59D100232374B1
:106B40009BF800309BF801209A42C3D12B682FB9E3
:106B5000019A9A4202D1B8F1000F43D0002B73D0B2
:106B6000D3F800A0504D4D4BD5F804751C68DFF8E4
:106B700048813E1B98F8003026F07F4603369BB9CB
:106B80004FF48033C5F84433C5F80433474B4FF412
:106B900000324FF00109C3F880211A60C5F8009057
:106BA000FFF7BAFE88F80090B2452CBF5444A419F0
:106BB00024F07F44C5F84045D5F80435DB1B23F0AD
:106BC0007F43E41B033324F07F44A3420AD9D5F862
:106BD0000435C5F84035FFF79FFE344B4FF40032C3
:106BE000C3F800212F4B00221A7005B0BDE8F08FCA
:106BF00094422CD09146D2699EE719740122DB6938
:106C000092E7D31A23F07F43834234BFC31A002391
:106C1000236053E721681368994213D8591A116009
:106C2000E26155E7091AD8691A4638B1034618686F
:106C30008842F7D3401A1860184613462160E06175
:106C4000DC6112E71346F2E7FFF76EFECAE74C4538
:106C500011D1CB692B6073B9DFF840E00120CDE999
:106C60000212CAF80800CEF800300E4B1870FFF779
:106C700053FEDDE902121368D269C9F81C2012B173
:106C80001068034413602B68994218BF012755E729
:106C90001824002019240020202400201C24002077
:106CA000102400200C2400200010014000E100E02E
:106CB00000230020FEFF7F000D24002008B5FFF711
:106CC00033FE104B00200B2218809A700E4B186078
:106CD0000E4B18700E4B18700E4B4FF48012C021E3
:106CE000C3F8802183F814131A6002F18042A2F5E0
:106CF0006F22C2F8080583F81113074BD2F8042558
:106D00001A6008BD00230020202400201824002041
:106D10001924002000E100E01C240020074B9B7890
:106D20004BB132B128B10368187C20B959745A614B
:106D30007047072070470820704700BF00230020DD
:106D40002DE9F7431E4FBB7805460E469046A3B388
:106D500098B304292FD943697BB3437C0024012BCA
:106D60000DF107000CBF8946A1468DF8074000F0E1
:106D70003DF80DF10600FFF791FDD0B1012303703E
:106D8000104B4560D3F80435C0E90498C0E90236D9
:106D90009DF806307B709DF8070000F04BF824B991
:106DA000094B4FF48012C3F80021204603B0BDE820
:106DB000F0830424EFE70724F7E70824F5E700BF92
:106DC000002300200010014000E100E0064A927814
:106DD0003AB130B1426922B1002202740221FFF7B8
:106DE00073BD0820704700BF0023002070B5EFF38B
:106DF000108672B60C4A946801239CB993600B4BC1
:106E00000B4DD3F8801029401160C3F88050D3F89F
:106E1000841051604FF0FF32C3F88420047006B92B
:106E200062B670BD0370FAE72424002000E100E0A0
:106E3000FC06FFBD084B9A6810B55AB150B9EFF384
:106E4000108172B6054A1C6814605C6854609860D2
:106E500001B962B610BD00BF2424002000E100E0AB
:106E600070B5064D0646002455F8043B0BB130467C
:106E700098470134042CF7D170BD00BF3C2400209A
:106E8000033080B240F2FD33984230B51FD8124B28
:106E90001A783AB91C895D892C440444A4B2B4F52B
:106EA000806F0AD31A7DA2B99A8BDC8B22440244EC
:106EB00092B2B2F5806F0CD201220A8014461422DD
:106EC00002FB04335A8910445881002030BD092048
:106ED000FCE70720FAE700BF702400200B4A0C4BA8
:106EE0005188142000FB0131CB6833B90420496874
:106EF00010700122074801F0C9BA05230649137032
:106F000002238B80012200230968F3E75424002028
:106F100070240020182200203825002007B5002307
:106F200005490093054A09680548082301F018FA45
:106F300003B05DF804FB00BF382500203453030084
:106F40001822002007B50023009301460823034AB6
:106F5000034801F005FA03B05DF804FB2C5303006D
:106F60001822002013B500230C4600930146042389
:106F7000074A084801F0F4F938B9074B142202FB1C
:106F800004340123237402B010BD0E20FBE700BFC0
:106F900028530300182200207024002037B50A4827
:106FA0000A4B42689C88196853880325033305708F
:106FB0009BB2002000909B0001EB8401044801F08B
:106FC000CFF903B030BD00BF542400203825002085
:106FD0001822002010B50146044800F045FE1C228E
:106FE000044600210AF08BFF204610BD2425002016
:106FF00068B10268084B9A4209D14068074B984231
:1070000007D0013398420CBF0120032070470320B2
:1070100070470020704700BFDEC0ADDEFE011EF1EC
:107020004388033300EB8303994209D382884FF6E8
:10703000FF739A4206D00088B0FA80F0400970478A
:1070400002207047012070472DE9F8430223DFF842
:1070500060800B800D46174600F5805600F108044D
:107060004FF00109B4420FD2236801330CD03146EE
:107070002046FFF7D5FF48B10FB187F800900228EE
:107080000BD14FF480632B80BDE8F883A368D8F858
:107090000020934201D9C8F800302B88628803335E
:1070A00013442B806388033304EB8304DAE700BFC7
:1070B00068240020154A142303FB002070B50B68D8
:1070C00044680D4604F58056ABB15C88033403EB8D
:1070D0008404B4420DD2236801330AD031462046DD
:1070E000FFF79EFF01280BD010F0FF0F05D00228FC
:1070F000EFD1002003E00834EBE72C60012070BDE5
:107100006388033304EB8304E3E700BF70240020AB
:10711000436873B504460D466BB3244AD1688B426D
:1071200029D31269934226D813F0030223D12049B0
:107130000089098988421ED12068996888421AD13D
:107140001C494868834203D900F5805083420ED31E
:107150008A6993420DD902F58052934209D20123E4
:107160002B800020B0FA80F0400902B070BD1346B9
:10717000F6E70A20F6E700232B801E46019601A9B8
:107180002888FFF797FF30B92B8801339BB2012B7A
:107190002B80F3D9E9E7019B226899689142EED1EF
:1071A0006360034B1B892381DFE700BF18220020A7
:1071B00054240020702400202DE9F8431C461C4B69
:1071C0001B7806460F4615466BB372B36CB3DFF8F7
:1071D00068804FF01409A388012B01D90A2020E010
:1071E00009FB03F318F803302BB92146A088FFF7F9
:1071F00061FF20B92060A3880133A380EBE72368F7
:107200001EB1998832889142EFD11FB119883A880E
:107210009142EAD19A68C5E90023064B1B892B816C
:107220000020BDE8F8830220FBE70520F9E700BF56
:107230004C240020542400207024002008B5074B63
:10724000191D5888FFF736FF18B1BDE80840FFF751
:10725000A5BEBDE80840FFF741BE00BF5424002092
:107260002DE9F04FA04FDFF8A49289B00646B8464A
:107270003B6823B949469D4800F030FD3860D8F896
:10728000005029784B1E052B00F2FA80DFE813F03E
:1072900006005E005E00EE00EE005C0126B1944B3D
:1072A00000225A600124ECE02B79032B1DD8DFE883
:1072B00003F015022A358F490B78022B084619D0A6
:1072C0000B7D022B4FF0010316D114225343C21839
:1072D0000020C8545068FFF735FE03E001232B71EE
:1072E000FFF71CFE002800F0BC80814B00225A6092
:1072F0000E24C6E00023E8E77D4A137000235360A4
:1073000041F61D54BDE07C497C48002302222B71CC
:107310008A800122096801F0B9F8E3E7764C00267B
:107320002E712068734DFFF70DFE754BD4F800C029
:107330005A8814235343EA18EE5451682160A188F7
:10734000C2F804C011810222A280CBE7B5F814A0D4
:10735000AA7DDFF8A0B1AEB1022AEB8806D91421CC
:1073600001FB0AB1DA1C088902440A81142202FBDB
:107370000ABAC3F57F43BAF80A20FD331344AAF8CA
:107380000A308FE7142303FB0AB318895C6804EB07
:107390008004062A68D8DFE802F0274D35431D59DE
:1073A000040041F61D54AA7DEB88022A06D9142157
:1073B00001FB0AB1DA1C088902440A81142202FB8B
:1073C0000ABAC3F57F43BAF80A20FD331344AAF87A
:1073D0000A3056E04B484C4900234360AB690360D8
:1073E000FFF796FE002871D00223AB7500230093AF
:1073F0000423EA182146414800F0B2FF002830D0AB
:107400000E24D0E72B69002B14BF03230123AB7597
:107410000023009305F10C02042304F10801EAE7BC
:107420000123AB750022EB8800929B002A6904F1CE
:107430000C01E0E703290CBF05230623AB750023ED
:107440000093042305F10802E118D4E70623AB7585
:107450002D4B19882B4B5868FFF784FD04460028F4
:10746000A1D109B0BDE8F08F0F249CE7002E7FF476
:1074700019AF2B79012B4BD0E3B1022B3FF440AF76
:107480000F241422002103A80AF039FD41F61D53F0
:107490009C4208BF0024D8F8003004941A78023ABD
:1074A000042A00F20581DFE812F0E600F20015017F
:1074B0001D01240102232B710DF10A01EB680393D6
:1074C00003A8CDE90466FFF723FE08B90A24D8E72C
:1074D0000498BDF80A108388EB8003882B81FFF79E
:1074E00041FD044627E000BF6C2400202425002035
:1074F0004C24002070240020382500201822002071
:10750000542400203024002044250020642400203E
:10751000DFF8FCA103AA53463146A81DFFF74CFE35
:10752000044658B9BAF804100498FFF71BFD044646
:107530000A2C3FF4E5AE002CA3D192E70822314695
:1075400050460AF0DCFCF3E7002E7FF4ABAE6B4B49
:107550001A7BAAB11E731A78013A062A90D801A1A3
:1075600051F822F00B760200317602004F760200CD
:1075700055760200817402005B7602006D7602008F
:107580001A78072AE7D801A151F822F0AD75020058
:107590005775020057750200D3750200E7750200A7
:1075A0000776020007760200CF7502001A89544957
:1075B00001321A8100225A801A730A78B2FA82F2D2
:1075C00052099A720A7DB2FA82F25209DA720122E3
:1075D00007E04C4958688A884088033202448A8010
:1075E00002221A70B7E7464C5A884649142505FB13
:1075F00002420868546850608888108102228A809C
:107600000C600622EDE70722EBE79A7A32B9DA7AC4
:107610008AB900221A705A805A6071E638490022ED
:107620009A72CA68002AF2D1097C0029EFD05A80E8
:10763000FFF704FE55E70022DA72314A116A002989
:10764000E7D192F82420002AE3D00122EFE7FFF7E8
:10765000A5FC46E7FFF742FC43E7294A5B88142173
:1076600001FB03235868FFF76DFC3AE700225A60DC
:10767000FFF754FC35E701228DF80C201A89ADF88C
:1076800018209A88DB68ADF81A20059310E00222D2
:107690008DF80C201A89ADF818209A88ADF81A20B8
:1076A000DA689B7D05929A1F534253418DF81C3036
:1076B00003A8FFF7D5FB002649461348C8F8006029
:1076C00000F037FB0121114800F0E6FB00287FF4B1
:1076D000CFADC6E603228DF80C20DA88ADF818206D
:1076E0001A89CFE70422DB888DF80C20ADF818301A
:1076F000DEE705238DF80C30DAE700BF54240020C4
:107700007024002038250020242500203425002066
:10771000482500204068FFF7A3BD000008B50121FF
:10772000044800F0A3FB18B9BDE80840FFF798BD76
:1077300008BD00BF342500202DE9F3419846354BA4
:107740001B7806460D46002B5BD000295BD00988CC
:107750004FF6FF73994258D06B88002B55D06B6859
:107760009B0754D14AB92F890DF102013846FFF722
:1077700087FB30B102B0BDE8F08113885788ADF8BF
:10778000023001A8FFF726FC044658B9BDF80230C4
:10779000214A142101FB032358890338C01B588157
:1077A0000820E7E700238375BDF8023083826B6809
:1077B000036180F800800121184800F062FB2B88EB
:1077C0002381B8F1030F6B88A38004BF0423A37542
:1077D0004FF0000508BF3368E06008BFA361E78091
:1077E000658101A90E4800F069FA36B1E36833609B
:1077F0000C4B75601B89B5723381FFF78FFF00203A
:10780000B8E70220B6E70520B4E70420B2E703207A
:10781000B0E700BF4C240020702400206824002022
:10782000242500205424002008B5084B1A68042A97
:1078300009D01968064A42F821000121184600F0D3
:1078400020FB002008BD0C20FCE700BF40250020E5
:107850003C2400202DE9F04F14228BB000210DEBC9
:1078600002000AF04CFB764A137803F0FF01CDE9E1
:1078700001123BB105A8FFF7F3FA002738460BB019
:10788000BDE8F08F029B181D00F011FB0028F4D119
:1078900040F6F8734FF080521B685C1C08BF694BC0
:1078A000694C08BF1B6811695269581C08BF02FB6C
:1078B00001F323610022A3F540536449E3602046AD
:1078C00000F01AFD039407460028D7D11C238C2210
:1078D0005F496048DFF88891DFF8888100F08FF910
:1078E0003D46BA464FF0030B3C46039BDE685644C8
:1078F00030463146FFF77CFB01284DD042B2002ACA
:1079000036D0032822D106F580520868013040F0B5
:107910008A8004318A42F8D1D9F800203AB902228B
:107920000123C9F80060A9F8042001930CE0142297
:107930006243022008EB020108F80200464A4E604A
:10794000548001340881A4B245F001050AF5805A3B
:10795000BAF5405FC9D1BBF1010F98BF0025EDB268
:10796000022D03D0062D35D0002D3CD10B2785E705
:107970001421614308EB010008F8012001F1100215
:1079800008314660424441443046FFF75DFB45F014
:1079900002050134A4B2D9E7019B63B1142262430A
:1079A00008EB0201022008F802000134D9F8002097
:1079B0004A600881A4B200222849C9F80060304614
:1079C000FFF742FBB9F80420022A0CBF0422082268
:1079D0001543BBE7029A0123137005A800235360E7
:1079E000FFF73EFA4AE704A8FFF7F4FAC8B101230B
:1079F000013D03700A2D09D8DFE805F006080608E6
:107A0000070807080F110F000023037104A911488C
:107A100000F054F9FFF782FE30E70323F5E7022375
:107A2000F3E708272AE70BF1FF321FFA82FB142243
:107A3000624308EB02014E60032108F80210A8E738
:107A40004C24002014100010182200203055030090
:107A50009824002024250020542400203C250020C8
:107A6000382500207024002073B50D460446C8B1A7
:107A7000C1B10DF10601FFF74BFBA8B10B4BBDF8EF
:107A800006006668142202FB003001210C3000F071
:107A9000F8F963682E600C336B600123A372002039
:107AA00002B070BD0520FBE70A20F9E77024002032
:107AB00013B50446A8B10DF10601FFF729FB90B1FB
:107AC0000B4ABDF80630142101FB0323DA6862B1CA
:107AD000A27A52B1DA680020013ADA60A07202B0EC
:107AE00010BD0520FBE70A20F9E70620F7E700BFF5
:107AF0007024002002230022FFF71EBE18B10323CA
:107B00000022FFF719BE052070470000104B1B78BC
:107B100013B50446ABB14FF6FF73984213D001A8DA
:107B2000FFF758FA88B10523037001230371C4805D
:107B300001A9084800F0C2F8FFF7F0FD002002B0EC
:107B400010BD0220FBE70420F9E70820F7E700BF9B
:107B50004C240020242500200E4B1B7807B5A3B130
:107B600001A8FFF737FA90B10623037001A90A486C
:107B700000F0A4F8094B1A780AB101221A73FFF732
:107B8000CDFD002003B05DF804FB0220FAE70820D9
:107B9000F8E700BF4C2400202425002054240020B6
:107BA00007B5ADF80600ADF804100DF1060001A907
:107BB000FFF702FB03B05DF804FB07B51346ADF811
:107BC00006000A4600200DF10601FFF7F5FA03B0A2
:107BD0005DF804FB07B51346ADF806000A460DF143
:107BE00006000021FFF7E8FA03B05DF804FB20B1BE
:107BF00019B103680B60002070470520704710B56D
:107C000061B1B2FBF3F403FB1424A4B244B9C0E99C
:107C1000001484608281C381204610BD0E20FCE7E1
:107C20000920FAE782B050E8022FC188B2EB324F48
:107C30004FF0000317BF92B241EA014142EA01410D
:107C400004E04268B2EB324F08BF012340E8021261
:107C5000002AE8D18DF807309DF80730002B0CBFC3
:107C60001120002002B0704737B550E8013F9DB2A7
:107C7000C48925448489A54228BF2D1B0489A542B7
:107C800002BFBFF32F8F002207E0C5EA030540E8DB
:107C90000154002CE9D14FF001028DF8032001932B
:107CA000019B9DF803200B6002F0FF0322B10B88BB
:107CB0000068184403B030BD1846FBE70A884B88BB
:107CC0009A4209D150E8012FC2EA024240E801235A
:107CD000002BF7D1012070470020704737B550E8DE
:107CE000023F1FFAA3F5C488A54202BFBFF32F8F3E
:107CF00000220DE0C48925448489A54228BF2D1B9C
:107D0000C3EA054540E80254002CE8D14FF00102D7
:107D10008DF803200193019B9DF803200B6002F076
:107D2000FF0322B14B880068184403B030BD1846E9
:107D3000FBE70A884B889A4209D150E8022FC2EA31
:107D4000224240E80223002BF7D101207047002097
:107D5000704701F01F024B090121914000EB8300A5
:107D600000F063B84B0910B501F01F040121A140D8
:107D700000EB830000F04EF8E04000F0010010BD81
:107D800001F01F0301229A404B0900EB8300D1430D
:107D900000F061B84B0901F01F0150F82300C84002
:107DA00000F0010070472DE9F0474E1E760980462D
:107DB0000F460136002558F8254008EB8509E443B5
:107DC00094FAA4F4B4FA84F44FEA451A202C06D1AC
:107DD0000135AE42EFD83C462046BDE8F08754441A
:107DE000A742F5D921464046FFF7BCFF0028F3D053
:107DF000D9F80040E44394FAA4F4B4FA84F4E5E733
:107E000050E8002F0B4640E8003C9CF0000FF7D1F3
:107E10001046704750E8002F42EA010340E8003C5A
:107E20009CF0000FF6D11046704750E8003F43EA3F
:107E3000010240E8002C9CF0000FF6D1104670477C
:107E400050E8002F02EA010340E8003C9CF0000FDC
:107E5000F6D11046704750E8003F03EA010240E8BF
:107E6000002C9CF0000FF6D11046704750E8002F10
:107E700002EB010340E8003C9CF0000FF6D11046F5
:107E8000704750E8003F03EB010240E8002C9CF0F3
:107E9000000FF6D11046704750E8003FA3EB0102F7
:107EA00040E8002C9CF0000FF6D1104670470121ED
:107EB000FFF7B0BF0121FFF7B8BF0021FFF7C0BF38
:107EC0000021FFF7C8BF10B590B1D0E901230168C8
:107ED0009B1ADBB20A60013BDBB2FF2B026802D1C6
:107EE0000020107110BD11684C1C14600B70F2E77B
:107EF0000E20F7E737B5054600240DF107008DF891
:107F00000740FEF773FF2A686B68116899420ED923
:107F1000481E106011F8014CEB68298A01FB0434FB
:107F2000AB6811791B1ADBB2994238BF13719DF807
:107F30000700FEF77FFF204603B030BD37B505468A
:107F400000230DF107000C468DF80730FEF74EFFB9
:107F50002A681368591C1160E968641A298AB4FBFD
:107F6000F1F41C709DF80700FEF764FF03B030BD0C
:107F7000826810B504462AB14369016800699847D0
:107F80000023A36010BD0EB403B5039921B104AB67
:107F900001AA019300F074F802B05DF804EB03B09D
:107FA00070470A2938B504460D4602D10D21FFF766
:107FB000F8FFA3682268591CA160D554D4E90132A6
:107FC0009A4204D32046BDE83840FFF7D1BF38BD00
:107FD0002DE9F84F9946DDE90A431746824688465F
:107FE0000A460126BA420FD24E4538BF4E4613F01C
:107FF000010B01D164B900240125B9F1010F1AD98F
:1080000009F1FF397D43F8E7B2FBF7F20136E9E702
:108010009B070ED5B9F1000F0CBF30252025A642D5
:10802000EAD2013C29465046FFF7BBFF002CF6D1AF
:10803000E1E72025F3E7B8FBF5F39F42E2D9DFF84B
:108040003C90B8FBF5F3504619F8031005FB138874
:10805000FFF7A7FFB5FBF7F3BD4207D2BBF1000F57
:1080600002D00CB1A64203D3BDE8F88F1D46E8E765
:1080700020215046013CFFF794FFF2E745530300EF
:108080002DE9F74F054617468846002900F0318153
:1080900018F8011B49B92B7B002B00F02A812846D8
:1080A00003B0BDE8F04FFFF763BF252940F0C08063
:1080B000002698F800302D2B424608F1010823D005
:1080C000302B24D02B2B25D000242A2B02F10101A8
:1080D00023D13B681A1D1B683A601C440A4613787A
:1080E0002E2B26D101324FF0000A104610F8011B4A
:1080F000A1F1300CBCF1090F1DD80A2303FB0A13B0
:10810000A3F1300A0246F0E746F00106D1E746F057
:108110000206CEE746F00406CBE711F8013CA3F1D6
:1081200030000928DBD80A2202FB0434303C0A461E
:10813000CBE74FF0000A12F8011B01F0FB006828A2
:108140009046F8D069290ED04AD8582964D006D86C
:1081500025296DD098F80030002B99D19BE7632931
:1081600062D06429F6D13A68D2F80090111D89EAEC
:10817000E9723960A2EBE9724FF0010B092A5BDC6E
:10818000D34538BFD3462CB1B9F1000F01DB7107DD
:1081900000D5013CB20702D5BAF1000F04D0F307B5
:1081A00002D4002C4ED10024B9F1000F52DAC9F1EB
:1081B00000092D212846FFF7F4FE06F00302022AEB
:1081C00005D1BAF1000F02D1002C47D10024CDE92E
:1081D000004653460A2249462846FFF7F9FEB9E70A
:1081E00073294CD014D87029B4D13B681A1D3A6059
:1081F000302128461C68FFF7D4FE78212846FFF777
:10820000D0FE00220823CDE9003221461022E3E708
:1082100075292BD078299DD139680A1D3A60CDE99E
:1082200000465346102228E03B681A1D19783A6030
:108230002846FFF7B6FE8DE70A230BF1010BB2FBD0
:10824000F3F29BE7A345AFD220212846013CFFF77C
:10825000A8FEA6E77007B0D52B21ABE7A345B6D2A1
:1082600030212846013CFFF79CFEADE73968CDE997
:1082700000460A1D3A6053460A220968ACE73B688B
:108280001A1D3A60F107D3F8009020D4B9F1000F1D
:1082900025D0484609F066FE0646B44200D9C4B966
:1082A00009F1FF3920E028460136FFF77AFE19F878
:1082B00006100029F7D1A642BFF44CAF002C3FF4C2
:1082C00049AF20212846013CFFF76BFEF3E700266B
:1082D000EDE720212846013CFFF763FEDDE74E462F
:1082E000DBE72846FFF75DFE19F8011F0029F8D1EA
:1082F00030E703B0BDE8F08F07B50B4688B9124BE5
:108300001248134AC01A0E23C0080093114B0004F0
:10831000114940F0010002F032F90E2003B05DF87F
:1083200004FB4BB9084B09480C4AC01AC0080E237D
:1083300000930004074BEBE703601B68114603B092
:108340005DF804EB184700BFFC5103005C520300CA
:108350000254030055530300075403007E540300E6
:108360002DE9F34188B93D4B3D483E4AC01AC0084B
:108370000E243D4B009400043C4940F0010002F003
:10838000FEF8204602B0BDE8F0814AB9334B3448CC
:10839000374AC01AC0080E2400040094324BEBE7A1
:1083A000D0F800C0BCF1000F09D12C4B2C48314A49
:1083B000C01AC0080824000400942B4BDCE74BB91A
:1083C000264B27482C4AC01AC008092400040094F0
:1083D000254BD1E74768D7F80480B3FBF8F708FBD3
:1083E00017374FB11D4B1E48244AC01AC008092434
:1083F000000400941C4BBFE78F0709D0174B1848A7
:108400001F4AC01AC008102400040094164BB3E79A
:1084100012F0030F09D0114B11481A4AC01AC008B4
:10842000102400040094104BA6E7C768B9420BD390
:108430004C1E05691C44AC4206D8DCF80C40A4462E
:1084400002B0BDE8F0416047044B05480E4AC01A2F
:10845000C008102400040094034B8DE7FC51030076
:108460005C520300025403006753030007540300E7
:108470008454030078540300375403008A540300E3
:10848000B4540300CC540300EF540300F7B580B993
:108490002A4B2B482B4AC01AC0080E242A4B0094A2
:1084A00000042A4940F0010002F069F8204603B0B8
:1084B000F0BDD0F800C0BCF1000F09D11F4B20481F
:1084C000234AC01AC0080824000400941E4BE8E7A1
:1084D0004AB91A4B1A481F4AC01AC0080924000496
:1084E0000094194BDDE74768D7F800E00EF1FF373D
:1084F0000F4209D0114B1248174AC01AC008102465
:1085000000040094104BCCE7C768B9420CD34C1E52
:1085100005690EFB0244AC4206D8DCF81040A446C4
:1085200003B0BDE8F0406047044B05480B4AC01A51
:10853000C008102400040094034BB2E7FC51030070
:108540005C520300025403007A53030007540300F3
:1085500078540300375403008D530300B3530300D2
:1085600029DF704728DF704770B503689D6886B0C3
:1085700004460E466DB114220021684609F0BFFC86
:10858000A3680593237901962BB1012B0DD0684682
:10859000A84706B070BD01238DF80030236902930F
:1085A000E368039363690493F1E702238DF80030D5
:1085B000E3681B030293F5E7084670470020704705
:1085C000024B187A003018BF01207047EC250020BC
:1085D000034B187A0122B0FA80F05A7440097047B0
:1085E000EC25002008B510461A4609F05FFC002073
:1085F00008BD000008B514220021044809F07FFCE2
:108600000348FFF70FFB002008BD00BFEC2500204A
:10861000DC25002010B5094C094B43602046FFF7CC
:1086200046FC40B909F062F91C2320748C220549EC
:108630000548FFF7E4FA002010BD00BFEC2500203C
:108640002455030050250020DC25002070B5244D62
:10865000244E2B7A2C463BB923492448FFF73EFB96
:10866000306008B9686070BD0223237233681A79DC
:1086700072B1012A24D018460321FFF775FF0023A9
:108680002372636018491948BDE87040FFF751BB79
:10869000D3E90520121AB2F5805F28BF4FF480524B
:1086A000D3E903159208012A014438BF0122284466
:1086B000FFF756FF50B11128DDD101232372D2E715
:1086C000D3E903021044FFF74DFFF3E7237C002BAF
:1086D000C9D10146BDE87040022000F009B800BFD2
:1086E000EC2500200426002000260020DC250020A8
:1086F00038B5831E012B45D8234C237A002B41D05B
:10870000022B09D1032830D0204B1B680022E260E5
:108710001A793AB1012A22D0637C7BBBBDE838408C
:10872000FFF794BFD3E905128D1AB5F5805F94BFAA
:10873000521902F580529A619142EDD102284FF010
:10874000000308BF19462372104B18BF0D2118688B
:10875000FFF70AFF0E490F48FFF7EBFADCE71A694B
:1087600001321A615B699A42E7E7E3680133082B3B
:1087700001D8E360D0E70023E360DFE7BDE83840DD
:1087800009F0A4B838BD00BFEC2500200426002065
:1087900000260020DC25002000F0FD03012B08D17D
:1087A000044B00225A74421E504250411874FFF785
:1087B0004DBF7047EC25002010B5064C201DFFF77B
:1087C00076FB28B9637C1BB9BDE81040FFF73EBFBC
:1087D00010BD00BFEC2500202DE9F34180460D4679
:1087E0000F4801A916461F46FFF73EFA0446A8B1F6
:1087F0001C22002109F083FB2D0B0123237101A909
:10880000C4F80080A760E56066610548FFF756FA86
:10881000FFF7D2FF002002B0BDE8F0810420FAE7A4
:10882000DC2500202DE9F74381468846104801A940
:1088300017461E46FFF718FA0446B0B11C22002165
:1088400009F05DFB00250A9BA36001A92571C4F80E
:108850000090C4E9037866610548FFF72FFAFFF737
:10886000ABFF284603B0BDE8F0830420FAE700BF61
:10887000DC2500202DE9F047B0F806904479D2F8C5
:1088800000A09DF8208009FB04F4043C06460AEB96
:108890000300A0420F4688BFA4EB030A191DC2F8CB
:1088A00000A0B1FBF9F509FB15114DB9A9EB0104C5
:1088B000544528BF5446BAF1000F04D1BDE8F087F3
:1088C0003668013DF1E704317B1970182246B8F192
:1088D000000F0ED001461846AAEB040A09F0E6FA8A
:1088E000D145254436684C464FF0000128BF544618
:1088F000E1E71946F0E7FFF7E6BAF8B54679014631
:10890000721E0546002393422D6803D30024A6421D
:1089100002D8F8BD0133F6E70F682846FFF70EFBD3
:1089200001343946F3E72DE9F843068ACD1C0746A2
:10893000FFF7E0FA043E35440446B5FBF6F5F0B126
:108940004FF48073EDB28380C680013D076081469D
:108950004FF00008A84512D23846FFF7CBFA06467A
:1089600048B163790133637108F10108C9F8000067
:1089700007608146EEE72046FFF7BFFF34462046FA
:10898000BDE8F88301210430FFF77BBA10B501215F
:1089900004460430FFF780FA10F0FF0F04D12046A0
:1089A000BDE81040FFF7A9BF10BD1FB5039200221C
:1089B000009203AAFFF75EFF05B05DF804FB1FB548
:1089C00003920122009203AAFFF754FF05B05DF85D
:1089D00004FB41DF70470000064B10B500241C70FB
:1089E000054B1C60BFF35F8F0449054800F070F928
:1089F000204610BD102600201426002050550300EC
:108A00000826002007B500230DF107008DF8073078
:108A1000FEF7ECF9F1EE103A23F09F03E1EE103A85
:108A2000BFF35F8F094B4022C3F884219DF80700F4
:108A3000FEF700FA08F05AFF20B1FFF7CAFF03B0B3
:108A40005DF804FB20BF40BF20BFF8E700E100E075
:108A5000026813685268934291BFD01A806801304F
:108A6000801888BFC01A70472DE9F84303681D6855
:108A70005C68A54284BF836801331746884694BF6B
:108A8000641B5C1BC2684168BC42064605FB0211C0
:108A90000CD37A43404609F009FAB3683D449D423D
:108AA00088BF002533681D60BDE8F88304FB02F928
:108AB0004A46404609F0FAF9F26871683C1B624385
:108AC00008EB090009F0F2F933681C60ECE7036871
:108AD00081681A685B688B4234BF01330023D31A64
:108AE000584258417047F7B5002304460DF107007E
:108AF0000D468DF80730FEF779F92046FFF7E7FFBE
:108B000010B1237C002B3CD12268A66853685168C1
:108B1000B14234BF01310021516030B11168A06809
:108B2000814234BF013100211160E2686068511E4A
:108B3000072920D8DFE801F004101F141F1F1F1899
:108B40002A78C2542046FFF783FF23689A6882423E
:108B500000D29860002415E02A8820F81320F1E75D
:108B60002A6840F82320EDE7D5E9006700EBC30051
:108B7000C0E90067E6E7294602FB030009F096F921
:108B8000E0E704249DF80700FEF754F9204603B0FF
:108B9000F0BDF7B506460F4614460025A2B10DF10B
:108BA00007008DF80750FEF721F93046FFF750FF18
:108BB000A0420CD3224639463046FFF755FF2C46DB
:108BC0009DF80700FEF736F9204603B0F0BD0524F6
:108BD000F6E737B5054600240DF107008DF807408C
:108BE000FEF704F90C222146286809F088F99DF85F
:108BF0000700FEF71FF903B030BD836800225A60FA
:108C00009A60C3E90422DA601A6070472DE9F041E6
:108C100006460F4690461D468BB9B0687368D0E98A
:108C2000031403F1010C0A1B62450FD10024C8F89C
:108C300000401DB3FFF744F90020BDE8F0818068D3
:108C4000FFF735F90028E8D01120F6E701EA030222
:108C500023409A4238BF6444D8F800302CBFACEBB4
:108C60000204641A9C4228BF1C463368C8F80040BE
:108C700013443B60C3681C44C460DDE72846DCE75E
:108C800082684368106910B50133946803441B1B64
:108C90008B420AD30C44C2E902441046FFF70DF997
:108CA000002814BF0020082010BD0420FCE78068C5
:108CB00008B582680369D21A8A4207D30B44C0E917
:108CC00004330430FFF7FCF8002008BD0420FCE763
:108CD0000B684A684360934208BF0023016008BFE5
:108CE00043607047436843B10268916852680B441F
:108CF0009342436004BF00234360704710B50D49A1
:108D0000A1F59472914201D800200FE08B1ADB107C
:108D100003EBD3735B1002EBC30452F8333083428E
:108D200005D802D204F10802ECE7606810BD2146C4
:108D3000E8E700BFA056030008B5FFF7DFFF024BCE
:108D4000002808BF184608BD655503000B7B23B1FA
:108D50004B6803600023037170470B6803600123B5
:108D6000F9E703684A68896810B5D41A8C428BBF4A
:108D70005B1800230360026098BF037110BD036895
:108D80000A68896810B59C1A8C428BBF5B1A012354
:108D90000360026098BF037110BD037910B50446EB
:108DA0001BB1FFF7DEFF206810BDFFF7E8FFFAE711
:108DB00038B5074C051E04F1080318BF1C4623688C
:108DC0002BB11A6822605B6828469847F7E738BDE0
:108DD0002026002020B9054B01225A70FFF7E8BF7A
:108DE000012802D1014A9070F8E770471826002048
:108DF00020B9034B01225A70FFF7DABF704700BF5A
:108E00001826002038B50B4C237883B90A486360D4
:108E1000A3602361E36000F0A9F9054608F066FD50
:108E200008B900F0AFF901232370284638BD852525
:108E3000FBE700BF18260020D58D020037B50B4C8C
:108E400000230DF107008DF80730FDF7CFFFE36831
:108E5000013BE360E56815B900F0A6F9A5709DF83F
:108E60000700FDF7E7FF03B030BD00BF1826002064
:108E7000012813B509D018B103281CD002B010BDC9
:108E80000F4B0122C3F88020F8E70E4C00230DF1B0
:108E900007008DF80730FDF7A9FF23780BB9FFF71E
:108EA000B1FFE3689DF807000133E3600123A3707D
:108EB000FDF7C0FFE2E700F065F9FFF7BFFFDDE770
:108EC00000E100E01826002031DF70471FB50023C5
:108ED0008DF807000DF10F008DF80F30FDF786FFBC
:108EE00008F004FD50B90DF107010848FFF7FBFD3C
:108EF0000648FFF7ECFD08B100F0E6FA9DF80F0018
:108F0000FDF798FF05B05DF804FB00BF4C5103006E
:108F100007B520B103280BD003B05DF804FB0F4B5D
:108F20001B78012BF8D100F0CFFA00F0D5FAF3E767
:108F300000230DF107008DF80730FDF757FF0748B4
:108F40000378012B05D10649013000F07DFA00F0CD
:108F5000A9FA9DF80700FDF76DFFDDE77C260020EC
:108F6000CD8E020013B5124C2378FBB9114A8DF84F
:108F70000730002808BF10460288A4F801200DF130
:108F80000700FDF733FF08F0B1FC30B90A49601C57
:108F900000F05AFA40B900F085FA01239DF8070065
:108FA0002370FDF747FF002002B010BD8520FBE7CE
:108FB0007C260020605A0300CD8E020007B50023F6
:108FC0000DF107008DF80730FDF710FF08F08EFC5B
:108FD00018B900F079FA00F07FFA9DF80700FDF764
:108FE00029FF0448FFF7F5FD034B00221A7003B078
:108FF0005DF804FB4C5103007C2600202DE9F7436B
:109000000024DFF8589005460E46A0460DF10700F3
:109010008DF80780FDF7EAFE08F068FC074638B9CE
:10902000324629464846FFF7B4FD044600F03AFAB6
:109030009DF80700FDF7FEFE47B131462846FFF7D1
:1090400043FF42F207039842044605D0022CDDD0CC
:10905000204603B0BDE8F0830524F9E74C51030036
:10906000F8B505460C4604B9F8BD402C264628BF85
:109070004026F7B239462846FFF7C0FF0028F9D14D
:10908000A41B3544EFE700001FB503788DF80030CE
:109090004368019383688DF80830C3680393054AD9
:1090A000054B684653F8213052F82110984705B017
:1090B0005DF804FB80260020842600201FB503787D
:1090C0008DF800304368019383688DF80830C368D9
:1090D0000393054A054B684653F8213052F8211096
:1090E000984705B05DF804FB802600208426002008
:1090F000F0B5194B067891F81DE043F82620174B80
:1091000094460A6943F82620154B03F806E00C46FE
:1091100007460FCC89B06D460FC594E80F0085E86F
:109120000F000496BEF1000F0AD0BCF1000F0D4AEB
:10913000694608BF0022381D00F0C8FC09B0F0BD28
:10914000BCF1000F084A694608BF002207F10C0075
:1091500000F0C8FAF2E700BF842600208026002035
:109160008826002089900200BD900200044A1379ED
:1091700023B90121106091801846704785207047FF
:109180008C260020074B1A68D2075FBFC02283F8E5
:10919000002301221A604FF080430122C3F81825F2
:1091A000704700BF00E100E0044B01221A604FF05D
:1091B0008042D2F81834DB03FBD470470C00004027
:1091C000154B07B51A687AB100221A601B68009324
:1091D000009B4FF080430122C3F808230F4B5879BE
:1091E00010B95A711B6898470D4B1A6882B100225A
:1091F0001A601B680193019B4FF080430222C3F861
:109200000823064B1B68012003B05DF804EB1847E8
:1092100003B05DF804FB00BF000100408C26002075
:109220000401004000F1804000F5C040002382B0FE
:10923000036003680193019B02B07047800000F156
:10924000A040D0F8003723F44033C0F80037D0F8FE
:10925000003743EA0141C0F8001770472DE9F04F8D
:1092600085B000245A4D01944FF48072012102F11F
:10927000804303F5C04390B21B68012B06D1D5F89B
:1092800004330B4202D0FFF7CDFF0C430432B2F59A
:10929000907F4FEA4101EAD14E4B1B68012B0AD166
:1092A0004FF4BE70FFF7BEFF4FF0A04344F0004400
:1092B000D3F81035019314F0FF0F1AD0464F002554
:1092C0000126344210D0AB0003F1804303F5C043C4
:1092D000D3F81005D3F8101557F8253023B1C1F392
:1092E0000141C0F3042098470135082D4FEA460696
:1092F000E7D1002C64DA00224FF0FF33CDE90223DE
:10930000354D01274FF0000A344E54464FF0A04827
:1093100016F9012B531C46D0D2B222F0C0094FEAF5
:10932000D90104A8084402F0070310F804CC07FA96
:1093300003F31CEA030F36D005EB090C92099CF9E4
:1093400030C055F82CB0BBF1000F0AD1032A2AD146
:109350000DF1080E1EF801C04CEA030C0EF801C016
:1093600001E0032AF4D009F5E07110F80C0C58F86C
:1093700021101842C1F3014105D0022913D1032A5B
:109380000BD1114604E003290DD1032A05D1022196
:109390004846FFF753FF0134E4B2BBF1000F02D09F
:1093A00011464846D8470AF1010ABAF1040FAFD175
:1093B00034B14FF0A043019AD3F81035934202D153
:1093C00005B0BDE8F08F0193029B03939AE700BFBD
:1093D000006000407C61004094260020E4260020CC
:1093E000014B1B68184700BFF02600200E4B984227
:1093F00037B50D4602D0002003B030BD00230DF17B
:1094000007008DF80730FDF7F1FC084B1C7914B903
:1094100001221D601A719DF80700FDF70BFD002C5D
:10942000E9D01120E8E700BF00200040F02600202E
:10943000034B984201BF034B00221A601A71704718
:1094400000200040F026002010B5124C2278FAB916
:10945000114B1960037813F0010F104B1EBFD3F8A6
:10946000042542F00102C3F80425D3F8002222F0BB
:109470000102C3F800224378094A5B01DBB282F89B
:109480000D334FF40053136001232370002010BDEF
:109490008520FCE7FC260020F826002000D00040B4
:1094A00000E100E0064B00221A6082B01B680193C5
:1094B000019B044B0122C3F804231A6002B07047D9
:1094C00000D1004000D00040024A0123C2F8083316
:1094D0005360704700D00040064A0123C2F80833A9
:1094E0005360054B4FF40052C3F88020034B002219
:1094F0001A70704700D0004000E100E0FC26002018
:10950000074B00221A6082B01B680193019B054B38
:10951000D3F80805044B1B68C0B202B0184700BF5F
:1095200000D1004000D00040F82600200023435026
:1095300082B043580193019B02B070470A4610B5B0
:109540004FF48E71FFF7F2FF136A9168C95C136ADA
:1095500001331362C0F81C1510BD8B690A4610B5A3
:109560004FF4847123B9FFF7E1FFD0F8183510BD2F
:10957000FFF7DCFF536AD168D0F81805C854536A66
:1095800001335362F3E700001FB501238DF800306B
:10959000044BCDE90110D3E900126846904705B0AD
:1095A0005DF804FB0027002030B54C4AD2F80433A4
:1095B00013F4007F85B015464FD0D2F82431002B2C
:1095C0004BD04FF492711046FFF7B0FF4FF4017388
:1095D000C2F80833424B93F8291009B901215160B0
:1095E0003E4902228DF80020D1F88024C1F8802461
:1095F00003929A690292DA6801920022C3E9062274
:109600006846D3E9001290473448D0F81C315BB16A
:1096100033490A6A4B699A420A464BD291F828307C
:10962000002B47D1FFF78AFF2C4AD2F8443193B17F
:109630004FF4A2711046FFF779FF294B93F82910D8
:1096400009B1012111609A692AB100229A61586A10
:10965000D968FFF799FF05B030BDD5F804335B0733
:10966000D2D5D5F80831002BCED01D4C1B48214651
:10967000FFF773FF636AA2699A422346C4D1E26985
:10968000E1684AB12369E3600023606AA261E36193
:109690006362FFF779FFB7E794F829200AB901223E
:1096A0006A600E4A4FF40170C2F8080300229A6102
:1096B000586AEEE74FF48E710848FFF737FF51699B
:1096C0000029B1D00023029191688DF800300191FA
:1096D00053616846D2E900139847A5E7002000408F
:1096E000002700202DE9F843564F047991462C229B
:1096F00002FB0472064692F82A200D46002A40F02A
:109700009A8051490068FFF771FE8046002840F0BA
:10971000958029683368481C0BD04FF0A040012287
:109720008A40C0F8082501F5E0724FF0030C40F8BC
:1097300022C06868421C1FBF00F5E0724FF0A04CC9
:109740004FF0000E4CF822E0AA6995F814C0C3F857
:1097500024256A7DBCF1010F4CEA0202C3F86C2596
:10976000C3F81405C3F80C151DD1AA68511C1FBFFE
:1097700002F5E0714FF0A0404FF0000C40F821C01E
:10978000E968481C0BD04FF0A04C01208840CCF871
:10979000080501F5E0704FF0030E4CF820E0C3F827
:1097A0000815C3F810252C236343FA18C2F8049057
:1097B0002A69FA50B9F1000F2AD04FF48E7130683F
:1097C0002D7FFFF7B3FE30684FF4A271FFF7AEFEB6
:1097D00032681E4BC2F80433120B51B20029A8BFE5
:1097E00001F160404FEA4513BABF194802F00F0576
:1097F00000F56140DBB2B4BF435580F8003302F09E
:109800001F02012303FA02F24909124B43F82120F7
:1098100033680422C3F800252C2303FB04730022C1
:10982000C3E9062283F829205A61012283F82A20FD
:109830004046BDE8F8834FF00808F9E74FF01108FB
:10984000F6E700BF00270020A99502008000020073
:1098500014ED00E000E100E0F8B5047900682D4D5A
:109860000023C0F800352C2303FB04535B6873B15D
:10987000294BC0F80833020B53B201215B0902F0F7
:109880001F0201FA02F22033244941F82320D0F8C4
:109890000C65D0F81415D0F80835D0F810254FF025
:1098A000FF37BE42C0F8147518BF06F5E076C0F861
:1098B0000C75C0F80875C0F810751EBF4FF0A047B2
:1098C0004FF0020C47F826C04E1C1FBF4FF0A046B9
:1098D00001F5E071022746F82170511C1FBF4FF0BF
:1098E000A04102F5E072022641F822605A1C1FBF17
:1098F00003F5E0734FF0A042022142F82310FFF776
:1099000097FD2C2303FB0454002384F82A30636062
:10991000F8BD00BF002700208402020000E100E043
:109920002DE9F843224F06794FF02C0909FB067404
:1099300080466569002D37D16261A16025624FF4D0
:109940008E71006884F82850FFF7F0FDD8F8000009
:10995000012383602146FFF7F1FD6368A1462BBB1D
:10996000D8F80050226A63699A4212D3D8F80030BE
:10997000D3F81C21002AFBD00122DA6000202C231E
:1099800003FB067600237361BDE8F88394F8283062
:1099900043B9D5F81C31002BF8D049462846FFF7CB
:1099A000CDFDDFE70F20EAE71120EDE72846EBE7E2
:1099B000002700200023435082B043580193019BAD
:1099C00002B070471FB501238DF80030044BCDE97C
:1099D0000110D3E900126846904705B05DF804FB1A
:1099E0002C2700207FB5374AD2F82461002E48D0BA
:1099F00010464FF49271FFF7DDFF02238DF800301F
:109A0000D2F88034C2F880340393D2F83C35029304
:109A10002D4BDA6801920022C3E906226846D3E999
:109A200000129047274AD2F844317BB14FF4A2711B
:109A30001046FFF7BFFF244B996939B10021C3E9F4
:109A40000611D968D2F83C05FFF7BCFF1D4AD2F8D1
:109A50002031A3B14FF490711046FFF7ABFF1A4BC2
:109A6000596961B1D2F84C150291002299688DF8BC
:109A7000002001915A616846D3E90012904704B072
:109A800070BDD2F81031002BCCD04FF48871104645
:109A9000FFF790FF0C4BD2F83C0599698842C1D181
:109AA000DC69D96864B1D2F8005225F02005C2F80B
:109AB00000521A699C61DA60DE61FFF783FFB1E74B
:109AC0009C61FAE7002000402C2700202DE9F84394
:109AD0005A4F06799146242202FB0672044692F8F8
:109AE00020200D46002A40F0A28055490068FFF76B
:109AF0007DFC8046002840F09D8029682368481C32
:109B00000BD04FF0A04001228A40C0F8082501F593
:109B1000E0724FF0030C40F822C06868421C1FBF7F
:109B200000F5E0724FF0A04C4FF0000E4CF822E030
:109B3000AA6995F814C0C3F824256A7DBCF1010F09
:109B40004CEA0202C3F86C25C3F80C15C3F81405DF
:109B50001DD1AA68511C1FBF02F5E0714FF0A04053
:109B60004FF0000C40F821C0E968481C0BD04FF0C2
:109B7000A04C01208840CCF8080501F5E0704FF0BA
:109B8000030E4CF820E0C3F80815C3F81025242371
:109B90007343FA18C2F804902A69FA50B9F1000F19
:109BA00034D04FF4887120682D7FFFF703FF4FF406
:109BB00090712068FFF7FEFE4FF492712068FFF766
:109BC000F9FE20684FF4A271FFF7F4FE22681D4BE6
:109BD000C2F80433120B51B20029A8BF01F1604052
:109BE0004FEA4513BABF184802F00F0500F561406F
:109BF000DBB2B4BF435580F8003302F01F020123EB
:109C000003FA02F24909114B43F821202368082284
:109C1000C3F80025242303FB06730022C3E90622B0
:109C20005A61012283F820204046BDE8F8834FF0B6
:109C30000808F9E74FF01108F6E700BF2C270020CD
:109C4000E59902001003020014ED00E000E100E0DD
:109C5000F8B5047900682D4D0023C0F800352423A1
:109C600003FB04535B6873B1294BC0F80833020B44
:109C700053B201215B0902F01F0201FA02F2203304
:109C8000244941F82320D0F80C65D0F81415D0F8F9
:109C90000835D0F810254FF0FF37BE42C0F80C75DC
:109CA00018BF06F5E076C0F81475C0F80875C0F85E
:109CB00010751EBF4FF0A0474FF0020C47F826C0AA
:109CC0004E1C1FBF4FF0A04601F5E071022746F879
:109CD0002170511C1FBF4FF0A04102F5E072022617
:109CE00041F822605A1C1FBF03F5E0734FF0A042F9
:109CF000022142F82310FFF79BFB242303FB0454AB
:109D0000002384F820306360F8BD00BF2C270020BA
:109D10001003020000E100E001F06043B3F1005FD6
:109D20002DE9F041074632D11C4B0679242505FB6D
:109D3000063598466C6964BB6A61A96000684FF497
:109D40009071FFF737FE4FF4AC713868FFF732FEC1
:109D50003B686A69A968C3F84415C3F8482501221D
:109D60009A606A68BAB9D3F82011D3F8582149B972
:109D7000002AF8D00F20242303FB068600237361FA
:109D8000BDE8F081002A14BF0F200020F3E7102067
:109D9000F6E71120F4E72046F2E700BF2C27002069
:109DA0004FF0A043D3F804056FEA506000F00100C3
:109DB00070474FF0A0434FF00072C3F80C25704776
:109DC0004FF0A0434FF00072C3F8082570474FF0E2
:109DD000A0434FF00072C3F8082570474FF0A0432E
:109DE0004FF00072C3F80C2570474FF0A042D2F834
:109DF0000435D94301F0007103F00073C2F808156F
:109E0000C2F80C357047C30708D54FF0A0430322B2
:109E1000C3F864274FF00072C3F808257047F0B507
:109E200095B01C46164608460D46FEF7ABFD1A9B3C
:109E30000D93CDE9086400242346082205A928468D
:109E40000A948DF82C400C94FEF7B9FD079B029301
:109E5000069B03939DF814308DF8114003F0030224
:109E6000012A1DD1BDF81440059EC3F3C203C4F3FB
:109E700083148DF81030A20008230EA92846FEF79F
:109E80009EFDC6F3952608AB0093224602AB0EA9B1
:109E9000304600F031FC2846FEF778FD15B0F0BDE5
:109EA000022AF8D1BDF81640C3F3C203A4098DF805
:109EB00010300827082C264628BF08263B46324685
:109EC0000EA92846FEF77BFDA41B08AB02AA31466B
:109ED0000EA8374400F074FC002CEBD1DBE7000047
:109EE000014B01221A707047912700207047000033
:109EF00070B50E4D06460FCD88B06C460FC495E880
:109F00000F00002E84E80F004FF00603084A0948AE
:109F1000009308BF00226946FFF7EAF808B1FCF792
:109F200077FC054B1E7008B070BD00BF885A030057
:109F3000E19E02002C2200205027002007B5044B90
:109F40000093044A4023FFF76AFF03B05DF804FB67
:109F5000599F02005127002038B50D4B0D4D0020B0
:109F600018700D4804782D5DD2B21C4665B10430DE
:109F7000FFF7D2FE08B1FCF74BFC084B1A7812B180
:109F80002378002BFBD038BD0C30FFF7C9FCF1E77C
:109F900091270020882600202C2200205027002016
:109FA00008B50848084A0378D35C3BB10430FFF792
:109FB0004FFE0020BDE80840FFF79ABF0C30FFF7C6
:109FC0004BFCF6E72C220020882600200120FFF71A
:109FD0008FBF000008B5FFF7F9FF0421034800F028
:109FE000F9FA034B01225A7108BD00BFD452030095
:109FF00040220020037813F0040216D003F003037C
:10A00000012B03D0022B09D0012070470A68008879
:10A010000232C0F3831002440A60F5E70B684288FD
:10A02000023303EB92130B60EEE71046704700001B
:10A030002DE9F04F87B000230446851C0DF1070081
:10A040000F4690468DF80730FCF7D0FE454806686D
:10A050003E60D0E90132134401339B1B824600F27B
:10A060001C4600F5836900F21447AB421BD3002263
:10A07000B8F1000F70D0052363F3070264F389126F
:10A08000DAF80010DAF808309DF807000B400333C7
:10A090000D444AF82320CAF80050FCF7CBFE0120FB
:10A0A00007B0BDE8F08F01213046FDF7EAFE4846D3
:10A0B000FDF700FF3846FDF7FDFEDAF80400DAF898
:10A0C00008B0029000EA0B0003300AEB800002A9FE
:10A0D000FFF790FF029B50BB0BEA03020AEB8202E0
:10A0E00003F1020CD2680392013303EA0B0B0AEB73
:10A0F0008B0B02F00302012ACDF808C0DBF80C102C
:10A1000022D0022A16D083463846FDF7D6FE10B17B
:10A11000029BCAF8043059463046FDF7B2FEDAE930
:10A1200001231344DAF8002001339B1A9DE70BEA60
:10A130000300C9E7BDF80E309B0903334FEA114B0A
:10A140000CEB93030293DFE7BDF80C30C3F38313EA
:10A150004FEA114B6344F5E7062363F3070264F308
:10A160009F528DE7642800200B4B0C48FF2210B54E
:10A170009A600022C3F81824C3E90022C3F814240B
:10A1800083F82024FEF7B7FB044610B90448FEF715
:10A1900034FD204610BD00BF64280020E0510300BC
:10A1A000C85A030030B50A4C71B10A4A0A49121B59
:10A1B000D20800239A4201D1002030BD31F823504B
:10A1C000854202D00133F5E7034654F83300F4E743
:10A1D000FC510300D45203002C220020094B01390A
:10A1E00003EBC000032909D8DFE801F00A020406E6
:10A1F000042070470079704740797047002070470D
:10A2000002207047FC510300154B93F8203437B5FA
:10A2100004460BB918B90024204603B030BD07F03E
:10A22000A1FE0130009001236A4601A90D48FEF706
:10A23000EDFC05460028EED12146009A019807F072
:10A2400035FEDDE900231344064803F8015C00995C
:10A25000FEF716FD00990348FEF729FD019CDBE798
:10A2600064280020C85A0300034BD3E90030C31A06
:10A2700058425841704700BF642800202DE9F04340
:10A2800087B0FFF7F1FF0646002840F0FB807E4DC7
:10A29000C5F81804BFF34F8F6868AC68029020407F
:10A2A000033005EB800002A9FFF7A4FE029B18B162
:10A2B000D5F81824002A5FD004EA0302991C013360
:10A2C00005EB8202234005EB8303D268DB6804932D
:10A2D00002F00303022B0392029162D1BDF80E300B
:10A2E0006A484FEA9318B8F1500FC14628BF4FF0A3
:10A2F000500969F38F1309F10801ADF80E30FEF72C
:10A3000012FB0746002800F0A880FEF73BFB03A9DC
:10A31000002308223846FEF748FB029924EA01068A
:10A320000136B600B14535D95FFA89F97EB3F6B288
:10A33000A9EB0609214003315FFA89F4B146544E76
:10A3400005EB810108234A463846FEF72EFB36B15D
:10A3500009F10803224631463846FEF726FB029BE8
:10A3600008F1030803EB98030293D5F81834002B87
:10A370004BD1D5F810445BE02A689A4204D86A6051
:10A38000304607B0BDE8F08304EA030088E740499F
:10A390003446D7E72140033108234A4605EB8101C3
:10A3A000DAE7012B59D1BDF80C303848C3F38311DB
:10A3B000062928BF062161F3891302318900ADF80F
:10A3C0000C30FEF7B0FA0746002846D0FEF7DAFA5E
:10A3D0000023082203A93846FEF7E7FA0026BDF855
:10A3E0000C20C2F38312B300964203F10803BCD2DF
:10A3F00002994A1C21400331029205EB810104229B
:10A400003846FEF7D2FA0136E9E73846FEF7BEFADB
:10A41000FFF72AFF80F00100C6B2B1E7E3685B797D
:10A4200023B1236839461B6820469847E3681C68B7
:10A43000002CF3D13846FEF7A9FA0DF107008DF88C
:10A440000740FCF7D3FCD5F818340BB9029B6B60BE
:10A450009DF80700FCF7EEFCDAE7D5F8104454B994
:10A460000C4B0D480D49C01AC008000440F0020012
:10A4700000F06EF8CCE7236820469B689847E368B5
:10A480001C68ECE700267BE764280020E05103000D
:10A4900070280020FC5103002C520300D45A030002
:10A4A0002DE9F74F284C80460F46924601A901221C
:10A4B00018469B46D4F80890FFF7BAFD80B3019D7B
:10A4C0000026A91C5E4506EB010233D100211F487E
:10A4D000FDF796FC80F310006A1C02EA090204EB07
:10A4E0008202000405EA0903033340EA1840D06001
:10A4F00014F8232068F3C50204F8232034F823203D
:10A5000066F3891224F8232054F8232067F39F224E
:10A5100044F8232002F0F80242F0010204F823205C
:10A5200094F820341BB1FFF7A9FE0028FBD103B03B
:10A53000BDE8F08F09EA020204EB82025AF82630E5
:10A54000D3600136BEE700BF64280020802C0020C5
:10A5500000231A46FFF7A4BF07B50123019201AA01
:10A56000FFF79EFF03B05DF804FB07B5CDE90023BC
:10A5700002236A46FFF794FF03B05DF804FB1FB5A2
:10A58000CDE90123069B039301AA0323FFF788FF6C
:10A5900005B05DF804FB1FB5CDE90023069B0293CF
:10A5A000079B03936A460423FFF77AFF05B05DF823
:10A5B00004FB7FB5CDE90123089B0393099B04931A
:10A5C0000A9B059301AA0523FFF76AFF07B05DF810
:10A5D00004FB000030B50F49D1F8102400231446C5
:10A5E0003CB9C468237152B9C1F8100422601846FE
:10A5F00030BDE46825799D4206D02468F0E7D26832
:10A60000116821601060F2E701330A2BE7D14FF0A7
:10A61000FF33ECE764280020094A38B50123D2F85B
:10A62000104482F820341D4604B938BDE3685D71DA
:10A63000236820465B689847E3681C68F4E700BF1E
:10A6400064280020037A052B10B50C460FD0437AFE
:10A6500023B1084A08492046FDF795FC07492046E2
:10A66000FDF791FC2046BDE81040FDF781BC002AB3
:10A67000F8D0F3E71F5B0300CF8F0300415B0300BB
:10A68000C38873B504460D4633B1144A0092144989
:10A69000144A2846FDF777FC217A05291CD0637AF5
:10A6A0004BB1A088FFF79AFD0F4B104953F82020BB
:10A6B0002846FDF768FC227A0D4BA08853F82260EB
:10A6C0000021FFF76FFD0B4903463246284602B0D2
:10A6D000BDE87040FDF757BC02B070BD1F5B0300C2
:10A6E0002C5B0300245B0300EC5A0300CF8F0300B4
:10A6F000505B0300445B03002DE9F04385B01F4627
:10A700000C9D002306460C46904695F80C902B7342
:10A7100029463846FFF7B4FFB8F1060F09D8DFE83D
:10A7200008F00412181F2833400031462846FDF770
:10A730002AFC002229463846FFF784FF85F80C9052
:10A7400005B0BDE8F083226831462846FDF71BFCC2
:10A75000EFE7D4E9002331462846FDF714FCE8E78B
:10A76000A36800933146D4E900232846FDF70BFC8B
:10A77000DFE7E3680193A36800933146D4E900233F
:10A780002846FDF700FCD4E723690293E3680193B0
:10A79000A36800933146D4E900232846FDF7F3FB74
:10A7A000C7E76369039323690293E3680193A3688E
:10A7B00000933146D4E900232846FDF7E4FBB8E7CF
:10A7C00008292DE9F84F80460E4617461C463AD810
:10A7D000002593F80C901D7319461046FFF750FFA3
:10A7E000DFF884A0DFF884B0AE422ED918F8052037
:10A7F00059462046FDF7C7FB0135082DF4D118490D
:10A80000DFF86CB02046FDF7BEFB4FF0000A56455E
:10A8100020D918F80A507E2D03D8284607F006FBE9
:10A8200000B92E252A4659462046FDF7ACFB0AF111
:10A83000010ABAF1080FEAD1012221463846FFF792
:10A8400001FF84F80C90BDE8F88F51462046FDF7D3
:10A850009AFBD1E703492046FDF795FBE7E700BFE8
:10A860001A5B0300185B0300165B0300105B030018
:10A870001C5B03004FF48C72002107F040BB20B139
:10A8800000F58C730022984200D1704700F8012B2C
:10A89000F9E70000C02AF0B541D0B2F5807F40D082
:10A8A000802A40F0C5800A230446036000F10803B3
:10A8B000520944F8043F01EB82028A4233D1036813
:10A8C0000C2B3ED00E2B6CD00A2B26D15A4D5B4957
:10A8D00000F1A006426955F8044B8768C2F30723CC
:10A8E0007C40CB5C6340140E10300C5D83EA044363
:10A8F000D4B20C5D83EA0463C2F307440C5D83EABF
:10A90000042350F8044C836063400468C3606340D0
:10A910000361534043618642DCD100208AE00C236E
:10A92000C2E70E23C0E78B784D781B0443EA05236A
:10A930000D782B43CD7843EA056344F8043F043196
:10A94000BBE73D4C3D4900F1C005C26954F8046BBA
:10A950008768C2F307237E40CB5C7340160E183025
:10A960008E5D83EA0643D6B28E5D83EA0663C2F348
:10A9700007468E5D83EA062350F80C6C83607340B3
:10A9800050F8086CC360734050F8046C0361734066
:10A9900006684361734083615340C3618542D4D1EB
:10A9A000BBE7254D254900F1E006446A55F8042B24
:10A9B0008768C4F307237A40CB5C87695340220E33
:10A9C00020308A5C83EA0243E2B28A5C83EA026353
:10A9D000C4F307428A5C83EA022350F8142C836094
:10A9E000534050F8102CC360534050F80C2C0361B6
:10A9F0005340DAB243618A5C7A401F0ECF5D82EA2F
:10AA00000762C3F30727C3F30743CF5DCB5C82EA3A
:10AA1000072282EA034350F8042C83615340026802
:10AA2000C36153400362634043628642BDD174E711
:10AA30006FF01F00F0BD00BFB06C0300AF5B030000
:10AA40002DE9F04F47680D683B684C688E68C9680F
:10AA5000DFF89882DFF898E2DFF898C25D407B6803
:10AA60005C40BB685E40FB684B4001688FB049109A
:10AA70000139009107F1300151F8107C0197EFB2D4
:10AA800051F8200C58F8277087EA00091F0E9548E6
:10AA90005EF8277089EA0709C4F307274FEA146BA9
:10AAA0005CF827705EF82BB089EA0709C6F3074700
:10AAB000203150F8277089EA0709E7B25FFA89F078
:10AAC00058F82770029051F83C0C87EA000A2F0EC4
:10AAD00084485EF827708AEA070AC6F30727C4F39A
:10AAE00007445CF827708AEA070AC3F3074750F85F
:10AAF00027708AEA070AF7B2CAF30720039058F8CA
:10AB0000277051F8380C474087EA0B07C3F3072B2F
:10AB100074485CF82BB087EA0B07C5F3074BDBB230
:10AB200050F82BB058F8233087EA0B07C7F30740DB
:10AB3000360E049051F8340C5EF82660C5F30725F4
:10AB40004340684873405CF8256050F8244051F851
:10AB50002C0C059073406340C3F30740069051F8F6
:10AB6000280C0790F8B20890C3F3072009901D0E37
:10AB7000C9F30740DBB20A900D93009B4FEA1A60BD
:10AB80000B90002B51F8240C0C905FFA8AF4C7F359
:10AB9000072B4FEA1966CAF3074AC9F307294FEA98
:10ABA00017675CDC5049039B019811F803C0029BB6
:10ABB0000C5DCB5C43400498085C83EA0C2383EA79
:10ABC0000043485D059D83EA006311F80B00137094
:10ABD0006C4084EA00240698089D085C4D5D84EA78
:10ABE0000044885D079E84EA00640998085C75400B
:10ABF00085EA00250A980C9E085C85EA00450B98BA
:10AC0000085C85EA00650D98085C704011F80960E1
:10AC100080EA062011F80A60C95D80EA064080EAF1
:10AC20000161180A5070180C1B0E9070D370230A23
:10AC30005371230C93712B0A53722B0C93720B0AD2
:10AC400014711572240E2D0E117353730B0C090E13
:10AC5000D471D5729373D1730FB0BDE8F08F029B9E
:10AC60005EF8255058F823301E4858F824405EF806
:10AC700027706B40019D6B40039D5CF825505D4043
:10AC8000049B50F823305D405EF826305C40059B05
:10AC90005C405CF82B305C40069B50F823305C40F5
:10ACA000089B58F823600B9B5EF823305E40079B9F
:10ACB0005E40099B5CF823305E400A9B50F82330CD
:10ACC0005E400D9B58F823307B400C9F7B405CF826
:10ACD00029707B4050F82A707B40009F013F00970D
:10ACE000CAE600BFB0640300AF5B0300B05C0300C2
:10ACF000B0680300B06003002DE9F04F47680C68AE
:10AD00003B684E688D68C968DFF89C82DFF89CE27A
:10AD1000DFF89CC25C407B685E40BB685D40FB68BE
:10AD20004B4001688FB049100139009107F13001A3
:10AD3000E7B251F8100C58F82770019051F8200C28
:10AD400087EA0009370E96485EF8277089EA0709F6
:10AD5000C3F307274FEA136B5CF827705EF82BB03C
:10AD600089EA0709C5F30747203150F8277089EAB7
:10AD70000709DFB25FFA89F058F82770029051F89E
:10AD8000340C87EA000A270E85485EF827708AEAA5
:10AD9000070AC5F30727C3F307435CF827708AEA5D
:10ADA000070AC6F3074750F827708AEA070AEFB286
:10ADB000CAF30720039058F8277051F8380C474021
:10ADC00087EA0B07C6F3072B75485CF82BB087EAB8
:10ADD0000B07C4F3074BF6B250F82BB058F82660B7
:10ADE00087EA0B07C7F307402D0E049051F83C0C7F
:10ADF0005EF82550C4F30724464069486E405CF86D
:10AE0000245050F8233051F8280C07906E405E40D3
:10AE1000F8B251F82C3C0890C6F30720059309902E
:10AE2000CAF30743C9F3074006930A904FEA1A6032
:10AE30000B9051F8240C0C90C6F307400D9000982D
:10AE40000028C9F3072B4FEA17634FEA1664F5B2DF
:10AE50005FFA8AFAC7F307274FEA19695CDC5149A0
:10AE60000398019E11F800C00298085C7040049E8F
:10AE70008E5D80EA0C2080EA06400E5D11F80B40E2
:10AE800080EA06604E5D059D10706E4086EA0426DD
:10AE9000069C0C5D86EA0446CC5C099B86EA046449
:10AEA000CE5C089BCD5C079B5D400A9BCB5C85EA32
:10AEB000062585EA03450B9B0C9ECB5C85EA036562
:10AEC00011F80A307340CE5D83EA06230D9E8E5D35
:10AED00011F8091083EA064383EA0163010A5170FD
:10AEE000010C9170000E210AD0705171210C9171EA
:10AEF000290A5172290C9172190A14711572240EC3
:10AF00002D0E13735173190C1B0ED471D5729173DE
:10AF1000D3730FB0BDE8F08F029E5EF8244058F85E
:10AF200026601F485EF823305EF829905CF8277091
:10AF30007440019E7440039E5CF826607440049E39
:10AF400050F82660744058F825605E40059B5E40CE
:10AF50005CF82B305E40069B50F823305E40089B27
:10AF600058F823500B9B5EF823305D40079B5D40F3
:10AF7000099B5CF823305D400A9B50F823300C9805
:10AF80005D4058F82A3083EA090343407B400D981E
:10AF9000034F57F82070009801387B400090C7E6B7
:10AFA000D8750300D86C0300D86D0300D87903006E
:10AFB000D871030010B50129144621461A4603D161
:10AFC000FFF73EFD002010BDFFF796FEFAE72DE9E2
:10AFD000F041B2F5C07FADF5467D06468846154680
:10AFE00078D84FF4D07200215EA806F088FF18A828
:10AFF000FFF740FC64AF6BBA2A460024ADF88A31F3
:10B000004146302338468DF88F31ADF8884106F03F
:10B010004DFF802304AA7B5511461935234602F8BB
:10B02000013B0133202BFAD14FF4807218A8FFF7AF
:10B0300031FC002410220021684606F060FF0DF26A
:10B040008717A8466A46A7F11003117813F8010F75
:10B0500041409F4202F8011BF7D1B8F1100F94BF95
:10B06000A8EB0808A8F110086B466A46012118A849
:10B07000FFF7A0FF1037B8F1000FE3D10CAB1819A0
:10B080001022694606F012FF9DF87B31103401331F
:10B09000302C8DF87B31CDD14FF480720CA918A8DB
:10B0A000FFF7F8FB06F1300414AB1A46012118A88B
:10B0B000FFF780FF3046102214A9103606F0F6FE86
:10B0C000B442F1D118A8FFF7DAFB00200DF5467D58
:10B0D000BDE8F0816FF03700F8E72DE9F0438DB05F
:10B0E00004460D4630220021684606F008FF00267F
:10B0F00004F10F0904F120086F460DEB06034946E1
:10B1000000E001460A7808460132D2B200F801296F
:10B110000AB9A142F5D12246012140461036FFF777
:10B1200049FF302EE8D16B1E2F353A7813F8011FF6
:10B130004A409D4207F8012BF7D169464FF48072CF
:10B140004046FFF7A7FB102208A9204606F0AEFEF6
:10B1500000200DB0BDE8F0834FF4A072002106F08E
:10B16000CEBE10B5044638B12030FFF788FB04F599
:10B17000A07300229C4200D110BD04F8012BF9E716
:10B180002DE9F0418369B3F5C07FE0B004468846FD
:10B1900017462DD8C3F5C073934229D34FF4C0721C
:10B1A0000021684606F0ABFED4F83831A269D4F825
:10B1B0003C01694698470546E8B9A669B8F1000F11
:10B1C00007D037B10DEB06003A46414606F06EFE59
:10B1D0003E44324669466846FFF7F9FE6946204616
:10B1E000FFF77BFF01232361284660B0BDE8F081B3
:10B1F0006FF03705F8E76FF03305F5E72DE9F0411B
:10B20000044688B0884617460021202204F1200514
:10B2100068461E4606F073FE2846FFF72BFB0F9B81
:10B22000A36142F21073E3616946C4E94E874FF4AB
:10B2300080722846FFF72EFB0E9A31462046FFF714
:10B240009FFF08B0BDE8F08113B530240194049C41
:10B250000094FFF7D3FF02B010BD2DE9F04391B089
:10B26000B2F5806F04460E4615469846189F4ED894
:10B27000B7F5807F4ED83022002104A806F03FFEAB
:10B280002269E3699A4201DC636943B13A46414667
:10B290002046FFF775FF60B111B0BDE8F08347B1FC
:10B2A00041463A4604A8FFF792FE04A92046FFF75C
:10B2B00014FF04F10F0704F1200845B904A9204642
:10B2C000FFF70BFF2369013323612846E4E73A4681
:10B2D000137811460133DBB201F801390BB9A242F0
:10B2E00013D16B46224601214046FFF763FE102D25
:10B2F000A94628BF4FF0100930464A46694606F075
:10B30000D5FD4E44A5EB0905D7E70A46E0E76FF007
:10B310003500C1E76FF03700BEE707B500230093A3
:10B32000FFF79BFF03B05DF804FB28B139B10023A0
:10B33000C1E900301846704748F21050704748F293
:10B340001350704730B1036848F240508B4208BF39
:10B350000020704748F21050704730B119B10B68A7
:10B36000934205D30A600020704748F2135070479B
:10B3700048F21450704700002DE9F041884600AFB4
:10B3800006461146404615461C46FFF7CEFF08BB51
:10B3900021464046FFF7C9FFE0B998F80430104A4B
:10B3A00052F82380B8F1000F17D056B90D4A32F881
:10B3B000133033B107336A46DB08A2EBC3039D4663
:10B3C0006E46224629463046C04718B9064B2B60C8
:10B3D000063B2360BD46BDE8F08148F20350F9E723
:10B3E000E07D0300D87D03007652464D70B50546DA
:10B3F0000C461E46FFF799FF70B9AB796AB1B342AC
:10B400000ED12979094B53F8213063B111462046FA
:10B41000984708B9064B236070BD48F21050FBE70F
:10B4200048F21150F8E748F20350F5E7EC7D0300CD
:10B430007052464D2DE9F0410D460D490446174620
:10B44000FFF780FF90B966683946B2792846FFF762
:10B4500084FF58B93279074B53F8223023B129467B
:10B460002046BDE8F041184748F20350BDE8F0819E
:10B470007052464DF87D0300F0B528B14079D1B146
:10B480008AB948F2135015E01846F8E7441E002523
:10B490004E5D0F5D575516550135013CA542F7D954
:10B4A0001B1A014402448342F0D2002B48F211508F
:10B4B00008BF0020F0BD48F21050FBE72DE9F8432B
:10B4C0000C4600AF81461E49204615461E46FFF732
:10B4D00039FF58BB1B492846FFF734FF30BBD4F86F
:10B4E00004806B68984524D198F80520396A304665
:10B4F000FFF733FFD0B998F80430134A52F823808D
:10B50000B8F1000F18D0B9F1000F0AD10F4A32F884
:10B51000133033B107336A46DB08A2EBC3039D4601
:10B52000E94633462A4621464846C047BD46BDE85F
:10B53000F88348F24150F9E748F20350F6E700BFBC
:10B540007652464D7052464D047E03000C7E030039
:10B55000F8B50A4F0A4C0B4DE41B0121E408297091
:10B560000026A64203D102232B700020F8BD57F815
:10B57000363098470028F9D10136F2E7F45103003C
:10B58000FC510300202D0020054B1A78022A04D01C
:10B590001878431E5842584170470120704700BF39
:10B5A000202D002030B50023934201D1012006E078
:10B5B000C55CCC5CA54203D08CBF0120002030BD0F
:10B5C0000133F1E72DE9F74F1E469DF83030019326
:10B5D00005468846174600239E424FEAC30403F1FE
:10B5E000010248D1FF23D2005B0033F0FF0102D1FA
:10B5F0000134A242F8D1002D42D0002E43D0B8F140
:10B60000000F43D0002F41D0324641463846FFF765
:10B61000C9FF00283DD04FEAD409FF2304F00704F6
:10B6200023415BB205EB090A00931B48019B0068AC
:10B6300032462946FBF7DAF88346C0B901464A4646
:10B64000284606F05CFC2CB19AF80020009B1A40BA
:10B650008AF80020324641462846FFF7A3FF00281B
:10B66000E3D029463846FFF79DFF0028DDD0584635
:10B6700003B0BDE8F08FFB5C002BB4D11346ABE701
:10B6800048F2135BF3E748F2145BF0E748F2105B13
:10B69000EDE748F2175BEAE7702E002013B50124AE
:10B6A0000094FFF78FFF02B010BD000070B51B4B78
:10B6B0006A469A4206460D4605D3FFF765FF78B9FC
:10B6C0004FF4054070BD164B16481749C01AC00804
:10B6D000000440F00100FEF73BFF48F21950F1E78B
:10B6E000124C236823B1124B1A68124B9A420FD0A6
:10B6F00086B97DB9104811492060FBF753F800283E
:10B70000E0D10B4B0B4A1A6023680D4A1A60D9E747
:10B710000020D7E748F21750D4E700BF00E0002030
:10B72000FC5103002C520300107E0300702E0020F9
:10B73000682E00206572E54B242D00206C2E002021
:10B740006169614D094B0A4A196891420AD1094A57
:10B750001068094A0168914204D1002202601A600F
:10B76000FBF73CB848F20250704700BF682E00203B
:10B770006572E54B702E00206169614D10B513466E
:10B78000154A6C4694420ED3D3B9144A1468144A2D
:10B7900094421AD1E0B913480A4600681249BDE83C
:10B7A0001040FBF72BB8114B11481249C01AC008C2
:10B7B000000440F00100FEF7CBFE48F2195010BD26
:10B7C0000029E2D148F21050F9E748F20250F6E7BA
:10B7D00048F21750F3E700BF00E00020682E002079
:10B7E0006572E54B702E00206C2E0020FC5103008A
:10B7F0002C520300107E03002DE9F0410D46174640
:10B800000446F0B109B3144B1A68144B9A421FD185
:10B81000134E3B460A4601463068FAF7E7FF48F206
:10B82000715398420FD1002211461046FFF7A6FF30
:10B8300048B93B462A4621463068BDE8F041FAF750
:10B84000D5BF48F21350BDE8F08148F21450FAE732
:10B8500048F20250F7E700BF682E00206572E54B02
:10B86000702E00200122FFF7C7BF76DF704778DF18
:10B8700070477ADF70477CDF70478FDF704733DFB8
:10B880007047FAF7C5BF000008B50D490D48FDF730
:10B8900084FA4FF6FE72C1B20B4805F0A3F930F0FE
:10B8A00008020BD020F00202112A07D043F2014215
:10B8B000904203D0BDE80840FAF7AABF08BD00BF18
:10B8C000E0300020F0300020CC30002008B500200F
:10B8D000FAF79CFE08B1FAF79BFFFAF725FF08B1CB
:10B8E000FAF796FFFFF7CBFF18B1BDE80840FAF76B
:10B8F0008FBF08BD10B5044686B004F069FA2388EE
:10B90000182B00F0968015D8112B38D003D8102BA7
:10B9100050D006B010BD152B73D0172BF9D1484865
:10B92000484B4949C01AC008000440F00300FEF724
:10B930000FFEEEE7212B5CD018D8192BE9D1414A34
:10B940003F48637A4149801A627B0292227B0192CE
:10B95000A27AC008C2F3C00200920004C3F38003BD
:10B96000227A40F00300FEF724FED2E73B2B01D001
:10B97000562BCED11321A088FFF777FF34E0314B4F
:10B980002F48334C3349C01AC008000440F003006C
:10B99000FEF7DEFD2088304B4FF6FF7290421A8092
:10B9A000B7D003F04DFD08B1FAF732FF4FF6FF7341
:10B9B0002380AEE7234B22482849C01AC008000460
:10B9C00040F00300FEF7C4FD214B4FF6FF72072045
:10B9D0001A80FAF71BFE08B1FAF71AFF1E4BA1886E
:10B9E0001F48198002F064FE002892D0FAF710FF79
:10B9F0008FE7002304A9A088ADF81030FFF73DFFC2
:10BA0000F2E704F10801062204A806F04FFA002329
:10BA100004A88DF81630FEF7F7FB0A4A084B1149C7
:10BA20009B1ADB081B04024643F00300FEF794FD5B
:10BA30006FE70348034B0C49C01AC008000474E7C1
:10BA40002C520300FC5103004C7E0300887E03004F
:10BA500056220020297E030054220020367E030057
:10BA60005C310020407E0300697E030008B5037846
:10BA70004BB9054B3B211888FFF7F7FE18B1BDE81D
:10BA80000840FAF7C5BE08BD5422002008B598B199
:10BA9000032815D10B4B0C480C49C01AC0080004F0
:10BAA00040F00300FEF754FD0220FAF7AFFD38B175
:10BAB000BDE80840FAF7ACBEBDE80840FFF706BF96
:10BAC00008BD00BFFC5103002C520300277F030078
:10BAD00030B504388DB00B2809D8DFE800F00A082B
