:02000002F0000C
:10000000105E0020B9020F00BD050F00C1050F00F2
:10001000C5050F00C9050F00CD050F000000000049
:10002000000000000000000000000000D1050F00EB
:10003000D5050F0000000000D9050F00DD050F00F9
:10004000E1050F00E5050F0067020F00ED2C0F0022
:100050006B020F006D020F00ED320F0071020F00F6
:10006000E9050F00ED050F00F1050F00F5050F0084
:10007000F9050F00FD050F0001060F0005060F0032
:1000800009060F000D060F0011060F0089020F0070
:100090008B020F008D020F008F020F0091020F00E4
:1000A00093020F0095020F0097020F0099020F00B4
:1000B0009B020F009D020F000000000000000000E6
:1000C0009F020F00A1020F00A3020F00A5020F0064
:1000D000A7020F00A9020F00AB020F00AD020F0034
:1000E000AF020F00B1020F00B3020F00B5020F0004
:0800F00000000000B7020F0040
:1000F800354936480A1A02D0072291438D463449B9
:1001080034480A1A06D00722914381F3098802224B
:1001180082F3148830483149314A00F043F83148B5
:100128003149324A00F03EF831483249324A00F04B
:1001380039F832483249334A00F034F83248334902
:10014800334A00F02FF833483349344A00F02AF88C
:1001580033483449344A00F025F8344834490022F9
:1001680000F02BF833483449002200F026F83348D1
:100178003349091A082903DB0022026004300160B0
:100188001F482049884205D00268043003B49047CC
:1001980003BCF7E700208646EC4600200021294AE8
:1001A8009047FEE7884207D0521A05D003780130FD
:1001B8000B700131013AF9D17047884202D00270C0
:1001C8000130FAE770470000105E0020105600204A
:1001D800105E0020105E002040370F00002C002029
:1001E800242C0020CC020F00CC020F0078350F0021
:1001F80040370F00002C0020002C002078350F001D
:1002080078350F0078350F0078350F0078350F00F6
:1002180078350F0078350F0078350F0040370F001C
:1002280064370F009055002090550020242C0020A2
:1002380090550020905500209055002090550020A2
:1002480010560020A1040F00FEE7FEE7FEE7FEE7D8
:10025800FEE7FEE7FEE7FEE7FEE7FEE7FEE7FEE76E
:10026800FEE7FEE7FEE7FEE7FEE7FEE7FEE7FEE75E
:10027800FEE7FEE7FEE7FEE7FEE7FEE7FEE7FEE74E
:10028800FEE7FEE7FEE7FEE7FEE7FEE7FEE7FEE73E
:10029800FEE7FEE7FEE7FEE7FEE7FEE7FEE7FEE72E
:1002A800FEE7FEE7FEE7FEE7FEE7FEE7FEE7FEE71E
:1002B8000348854602F0E2FBFFF71ABF70470000CB
:0402C800000004200E
:1002CC0082B00190019B1B681F2B02D84FF0A043FA
:1002DC0006E0019B1B6803F01F02019B1A60024B96
:1002EC00184602B0704700BF0003005000B585B03F
:1002FC000190084611461A4603468DF803300B460A
:10030C008DF8023013468DF8013001AB1846FFF71B
:10031C00D7FF03909DF803209DF802305B001A4331
:10032C009DF801309B001A439DF818301B0242EADD
:10033C0003019DF81C301B04019A1943039B02F521
:10034C00E07243F8221000BF05B05DF804FB00B565
:10035C0085B0039000230193002300930023012216
:10036C0001210398FFF7C2FF00BF05B05DF804FB45
:10037C0000B585B003900B468DF80B309DF80B2023
:10038C0000230193002300931346002200210398BD
:10039C00FFF7ACFF00BF05B05DF804FB00B585B0FE
:1003AC00019001AB1846FFF78BFF0390019B0122D4
:1003BC0002FA03F31946039800F02AF800BF05B0BF
:1003CC005DF804FB00B585B0019001AB1846FFF752
:1003DC0077FF0390019B012202FA03F3194603985D
:1003EC0000F020F800BF05B05DF804FB00B583B049
:1003FC0001900091009B002B03D10198FFF7E2FFC5
:10040C0002E00198FFF7CAFF00BF03B05DF804FBE0
:10041C0082B001900091019B009AC3F8082500BF9F
:10042C0002B0704782B001900091019B009AC3F812
:10043C000C2500BF02B0704782B0144B0122C3F8E8
:10044C00042500BF114BD3F80034002BFAD04FF029
:10045C001023D3F80C3201934FF010230022C3F871
:10046C000C220A4BD3F804350193019B63F0030370
:10047C000193064A019BC2F8043500BF034BD3F825
:10048C000034002BFAD000BF02B0704700E00140EE
:10049C0000BF704700B583B000238DF80730FFF71D
:1004AC00F7FFFFF7C9FF00211220FFF761FF0021C2
:1004BC002A20FFF75DFF1E20FFF749FF00211E20B9
:1004CC00FFF794FF1920FFF742FF00211920FFF7D7
:1004DC008DFF1F20FFF73BFF00211F20FFF786FF3A
:1004EC002B20FFF734FF01212B20FFF77FFF00218A
:1004FC001B20FFF73DFF00210420FFF739FF0021EF
:10050C000620FFF735FF00210720FFF731FF002100
:10051C000B20FFF72DFF00210C20FFF729FF0021F6
:10052C000D20FFF725FF00210E20FFF721FF0021F2
:10053C000F20FFF71DFF00F067F802F00BF800F03A
:10054C00A9F802F05BFA174800F0E4FE02F0D8F8C4
:10055C0000F080FD02F07EFA00F070F80346002BEC
:10056C00F4D000F057FD02F085FA0F4B1B680133F5
:10057C000D4A1360642BE9D10B4B00221A600B4B14
:10058C001B78002B03D0094B00221A7002E0074B9A
:10059C0001221A70054B1B7819461920FFF726FF0C
:1005AC00D4E700BF282C0020242C0020842C002011
:1005BC00704700BF704700BF704700BF704700BF57
:1005CC00704700BF704700BF704700BF704700BF47
:1005DC00704700BF704700BF704700BF704700BF37
:1005EC00704700BF704700BF704700BF704700BF27
:1005FC00704700BF704700BF704700BF704700BF17
:10060C00704700BF704700BF084B10B40122042490
:10061C0000204FF47A715A60C3F81045C3F80405F2
:10062C005DF8044BC3F840151A6070470090004009
:10063C00014B01225A60704700900040074BD3F8E1
:10064C00400148B106480022C3F84021026801214C
:10065C000A4402600846D960704700BF0090004011
:10066C00882C0020BFF34F8F0449054BCA6802F455
:10067C00E0621343CB60BFF34F8FFEE700ED00E069
:10068C000400FA050023C360C0E900128360036113
:10069C00704700BF10B50C4C40F6580220460021A4
:1006AC0002F031FF04F5806104F500604FF48062C4
:1006BC00FFF7E8FF214604F614004FF48062BDE812
:1006CC001040FFF7DFBF00BF8C2C0020F0B5574C5B
:1006DC00D4F81858D4F824388A1CEB1A9A4283B0F0
:1006EC005DD8D4F81C38EB1A994288BFD4F81C3862
:1006FC00074688BFED1AD4F81408D4F81C3898BFF4
:10070C000D460022ADF8062018442A460E463946FE
:10071C0002F0D0FED4F81C28D4F818382A44C4F8B7
:10072C001C28D4F81C289A4204D3D4F81C28D21ABA
:10073C00C4F81C28D4F82428D4F814082A44AE424F
:10074C00C4F824282ED8D4F81C289A1A012A9CBF45
:10075C00D4F81C585D1BD4F81C3888BF02251844EB
:10076C002A460DF1060102F0A5FED4F81C38D4F887
:10077C0018282B44C4F81C38D4F81C38934204D3E2
:10078C00D4F81C389A1AC4F81C28D4F82438012D33
:10079C002B44C4F8243825D9012003B0F0BD002027
:1007AC0003B0F0BDD4F81C38761B324618447919C6
:1007BC0002F080FED4F81C28D4F818383244C4F85F
:1007CC001C28D4F81C289A4204D3D4F81C28D21A1A
:1007DC00C4F81C28D4F82418D4F814080E44C4F80F
:1007EC002468B0E7D4F81C38D4F81408C5F1020614
:1007FC000DF1060251191844324602F05BFED4F892
:10080C001C38D4F818283344C4F81C38D4F81C38D5
:10081C00934204D3D4F81C389A1AC4F81C28D4F880
:10082C0024381E44C4F82468B6E700BF8C2C002082
:10083C0030B585B000234AF6AA210920CDF8063040
:10084C00CDF80230CDF80A308DF80E30FF2240235F
:10085C00ADF800108DF80300AD2501240F2168467A
:10086C008DF805508DF806408DF807208DF808306E
:10087C00FFF72CFF05B030BD70B5114A84B00023D2
:10088C00D2F83C28CDF80A3004264AF6AA208DF876
:10089C000C20ADF804000222A52501240A210DEB41
:1008AC000600CDF806308DF80A408DF807608DF8FB
:1008BC0009508DF80B20FFF709FF04B070BD00BF85
:1008CC008C2C00202DE9F043BC4CD4F80418ADF26C
:1008DC000C4D00264AF6AA25D4F80008009601F122
:1008EC00FF3CADF80460844424E0C25BADF800200A
:1008FC005F887FBAADF802709B885BBAAA42ADF8EC
:10090C00043061D0D4F80C28D4F850380132C4F833
:10091C000C28D4F80C2801338A42C4F8503804D37C
:10092C00D4F80C385B1AC4F80C38D4F81038013BE6
:10093C00C4F81038D4F81038082B40F2E380D4F8FF
:10094C000C78D4F80C28D4F810E88A1A724596BFA3
:10095C00D4F80C28D4F810288A1A052A00EB0703BF
:10096C00C3D86345C25D8DF8002014BF0133034624
:10097C009C451A788DF8012000F084805A788DF807
:10098C00022001339C4500F08C805A788DF80320AE
:10099C0001339C4500F0838001331A788DF80420D4
:1009AC009C450CBF03785B788DF80530BDF80230A0
:1009BC005BBAADF80230BDF804305BBABDF800206C
:1009CC00ADF80430AA429DD1BDF8022002F1080313
:1009DC008B4297D2D4F81008834200F29080BDF875
:1009EC000400A62800F0928068D8002871D0A428B2
:1009FC006FD1D4F80C380633C4F80C38D4F80C3852
:100A0C008B4204D3D4F80C385B1AC4F80C38D4F8E5
:100A1C001038D4F80008063BC4F81038D4F80C7819
:100A2C00D4F80C38C05D0133C4F80C38D4F80C3849
:100A3C008B4204D3D4F80C385B1AC4F80C38D4F8B5
:100A4C001038C4F83C08013BC4F81038D4F80C0832
:100A5C00531C02F0030213441844C4F80C08D4F8D5
:100A6C000C288A4204D3D4F80C28511AC4F80C1858
:100A7C00D4F81028D31AC4F81038FFF7FDFED4F8B8
:100A8C00041829E703788DF80230604510D003462E
:100A9C0001331A788DF803209C457FF47DAF034613
:100AAC007BE703788DF80330604504D0034673E789
:100ABC0003788DF803308DF8043075E741F20102AC
:100ACC0090427DD041F20202904273D0B0F5805F2B
:100ADC0070D0D4F80C281A44C4F80C28D4F80C287C
:100AEC008A4204D3D4F80C28511AC4F80C18D4F840
:100AFC001028D4F80418D31AC4F81038ECE60123E3
:100B0C00C4F838380DF20C4DBDE8F083D4F80C382D
:100B1C000633C4F80C38D4F80C388B4204D3D4F810
:100B2C000C385B1AC4F80C38D4F81038063BC4F8EF
:100B3C001038D4F80C38CB1A012B98BFD4F80C7899
:100B4C00D4F80C3898BFCF1BD4F8001888BF0227F4
:100B5C0019443A46684602F0ADFCD4F80C38D4F887
:100B6C0004183B44C4F80C38D4F80C388B4280F091
:100B7C00DC80D4F81038012FA3EB0703C4F810382D
:100B8C0040F2E180D4F80C380433C4F80C38D4F8B3
:100B9C000C388B4204D3D4F80C385B1AC4F80C38DC
:100BAC00D4F81038BDF8002084F85428043BC4F85D
:100BBC00103891E6D4F804188EE600BF8C2C002077
:100BCC00D4F80C380633C4F80C38D4F80C388B42F3
:100BDC0004D3D4F80C385B1AC4F80C38D4F8103899
:100BEC00063BC4F81038D4F80C38CB1A052B9CBF34
:100BFC00D4F80C38A1EB0308D4F80C38D4F800184E
:100C0C0088BF4FF0060819444246684602F052FC71
:100C1C00D4F80C38D4F804784344C4F80C38D4F81D
:100C2C000C38BB427BD2D4F81038D4F80028A3EB94
:100C3C000803B8F1050FC4F8103840F2A780D4F8B7
:100C4C000C38BDF80480FB1A984588BFD4F80C38D2
:100C5C00D4F80C188CBFFF1A4746114402A83A4628
:100C6C0002F028FCD4F80C38D4F804283B44C4F81F
:100C7C000C38D4F80C38934221D2D4F81038B8453B
:100C8C00A3EB0703C4F8103826D802A9684600F075
:100C9C00D3FAD4F80C38D4F804180233C4F80C384E
:100CAC00D4F80C388B4204D3D4F80C385B1AC4F843
:100CBC000C38D4F81038023BC4F810380CE6D4F8D1
:100CCC000C389A1AC4F80C28D4F81038B845A3EB91
:100CDC000703C4F81038D8D9D4F80038D4F80C1855
:100CEC00A8EB070802AAD0191944424602F0E2FB0D
:100CFC00D4F80C38D4F804284344C4F80C38D4F88D
:100D0C000C38934204D3D4F80C389A1AC4F80C2833
:100D1C00D4F81038A3EB0803C4F81038B5E7D4F8AE
:100D2C000C38DB1BC4F80C387DE7D4F80C385B1A94
:100D3C00C4F80C38D4F81038012FA3EB0703C4F80F
:100D4C0010383FF61FAFD4F80C38D4F80018C7F1A0
:100D5C00020819440DEB0700424602F0ABFBD4F835
:100D6C000C38D4F804184344C4F80C38D4F80C38B4
:100D7C008B4204D3D4F80C385B1AC4F80C38D4F872
:100D8C001038A3EB0803C4F81038FBE6D4F80C18A1
:100D9C00C8F1060911440DEB08004A4602F08AFB23
:100DAC00D4F80C38D4F804784B44C4F80C38D4F884
:100DBC000C38BB4204D3D4F80C38DB1BC4F80C3809
:100DCC00D4F81038D4F80028A3EB0903C4F8103871
:100DDC0035E700BF2DE9F0478C4B84B01C68ADF8AB
:100DEC00044001F10803240C9BB28DF80640884C9A
:100DFC0013F0030518BFC5F10405D4F81868D4F82E
:100E0C00247818BFADB22B44F71BBB4200F2918083
:100E1C004AF6AA23ADF8083052BAADF80C204ABAFB
:100E2C00D4F81C38ADF80A20F31A052B98BFD4F867
:100E3C001C38804698BFF61AD4F81408D4F81C381D
:100E4C0088BF062618448946324602A902F032FBB6
:100E5C00D4F81C38D4F818783344C4F81C38D4F8B7
:100E6C001C38BB4204D3D4F81C38DB1BC4F81C3828
:100E7C00D4F82438D4F814083344052EC4F8243894
:100E8C007FD9D4F81C3809F10209FB1A994584BFA3
:100E9C00D4F81C38FF1AD4F81C3898BF4F461844A5
:100EAC003A46414602F006FBD4F81C38D4F81868D0
:100EBC003B44C4F81C38D4F81C38B34204D3D4F8DF
:100ECC001C389B1BC4F81C38D4F82438D4F81408EC
:100EDC003B44B945C4F8243875D8D4F81C38F31AF7
:100EEC009D4284BFD4F81C38F61AD4F81C3898BF2D
:100EFC002E461844324601A902F0DCFAD4F81C380C
:100F0C00D4F818283344C4F81C38D4F81C3893424D
:100F1C0004D3D4F81C389A1AC4F81C28D4F82438F2
:100F2C00B5423344C4F8243807D8012004B0BDE8D6
:100F3C00F087002004B0BDE8F087D4F81C38D4F852
:100F4C001408AD1B01AA911918442A4602F0B2FAF2
:100F5C00D4F81C38D4F818282B44C4F81C38D4F80E
:100F6C001C38934204D3D4F81C389A1AC4F81C28A1
:100F7C00D4F8243801201D44C4F8245804B0BDE82A
:100F8C00F087D4F81C38C6F1060A02AA9119184445
:100F9C00524602F08FFAD4F81C38D4F8187853441F
:100FAC00C4F81C38D4F81C38BB4204D3D4F81C3811
:100FBC00DB1BC4F81C38D4F82438D4F81408534478
:100FCC00C4F824385DE7D4F81C38A9EB0709184499
:100FDC0008EB07014A4602F06DFAD4F81C38D4F835
:100FEC0018684B44C4F81C38D4F81C38B34204D3EA
:100FFC00D4F81C389B1BC4F81C38D4F82418D4F82B
:10100C0014084944C4F8241867E700BF78350F006A
:10101C008C2C00200D4A08B513680133B3F57A7F88
:10102C000EDC13600A4A13680133B3F5FA7F01DC56
:10103C00136008BD00231360BDE80840FFF7F8BB40
:10104C0000231360FFF718FCECE700BFE834002026
:10105C00E4340020044BD3F84028D3F8103803B9FB
:10106C007047FFF72FBC00BF8C2C002090F8540861
:10107C00704700BF0B4A0223C2F80435D2F8003483
:10108C00002BFBD00749C2F80805D1F80034002B1F
:10109C00FBD00023034AC1F80435D2F80034002BEE
:1010AC00FBD0704700E00140930733D18B0710B49D
:1010BC0009D04318FF24013189B211F0030F1C70C1
:1010CC0003F10103F7D1144C01238908C4F804354A
:1010DC00D4F80034002BFBD059B1013989B2031D6F
:1010EC0003EB8101121A131850F8044B1C60884250
:1010FC00F9D1094AD2F80034002BFBD00023064961
:10110C00C2F80435D1F80034002BFBD001205DF877
:10111C00044B70470020704700E0014018DF704717
:10112C0011DF704713DF704780B584B000AF07F153
:10113C001001022341F8103D024600230846C7E97E
:10114C000133FB60FFF7EAFF0B4B4FF0FF31C3F8A5
:10115C008010C3F88410FFF7E3FF1046FFF7E2FF9F
:10116C00064853680649036012680B6082F30888CE
:10117C0098471037BD4680BD00E100E0EC340020FC
:10118C00F034002030B5044687B00023054654F8EF
:10119C00031B0293184601AA0193CDE9033305936F
:1011AC0001F0A4F901AB05F1170001E0844208D06D
:1011BC0013F8012B14F8011F9142F7D0002007B04F
:1011CC0030BD012007B030BD38B511F0030509D191
:1011DC00930705D1B1F5805F14460A4603D2254624
:1011EC00284638BDFEE7A1B2FFF75EFF0028F6D116
:1011FC00F6E700BF10B50446FFF71AFA01F0BCF988
:10120C000B4800F08BF86CB943F20C031B886D3B58
:10121C009BB25E2B06D8074ABDE8104052F823005B
:10122C00FFF782BF2046BDE81040FFF77DBF00BF2F
:10123C00282C00207C350F0030B583B04388ADF8E6
:10124C000230002506220C46ADF80450ADF8002003
:10125C00042B0AD8DFE803F0331611090300084603
:10126C00FFF790FF30BBADF8040041F201020621FC
:10127C006846FFF7AFFD03B030BD808880B304280B
:10128C002DD0FEE78B880A681A44B2F5702F15D85A
:10129C00002506E021682944FFF796FF2D1809D098
:1012AC00A388681C00EB4000AB42A3EB050204EBE7
:1012BC004000EFD10123ADF80430D6E7FEE7838878
:1012CC008BB94FF48054204604F58054FFF7D2FEBE
:1012DC00B4F5702FF7D10123ADF80430C5E70868D9
:1012EC00FFF788FFC1E7082B00D0FEE7D1E90054D7
:1012FC002C44B4F5702FB8D8A54204D3DAE705F521
:10130C008055AC42D6D9B5F5805FF8D32846FFF7A7
:10131C00B1FEF4E75C22002102F0F5B830B100F127
:10132C005C020023037001308242FBD1704700BF86
:10133C002DE9F04F0346D0E90346D0E9050299B0F8
:10134C00CF6913929A680D6A179312928B6A0A6985
:10135C0005974F6A019207950A6B08970993CF6A14
:10136C004B6B8D6BD1F80490D1F80C80D1F814A094
:10137C00D1F818B0D1F800C0D1F808E00A970E9255
:10138C000F932246109586EA0007C96B11914FEA1C
:10139C00B4041492139916901740129A86EA040515
:1013AC00154001F1B5413346754001F51E31DD4E56
:1013BC0015939CFA8CFC01F2991101EBF2618619E0
:1013CC004740604699FA89FC0F4435444FEAB20114
:1013DC006646074484EA010C0696354403F1B5468B
:1013EC000CEA070C06F51E369EFA8EFE8CEA040CEF
:1013FC0006F2991604F1B5444FEAB709CDF800E0AE
:10140C00764404F51E3498FA88FE05EBF7657246AF
:10141C0081EA090704F2991403922F401444019AAB
:10142C0002904FEAB50E4F40664406EBF5663C441D
:10143C0017BA89EA0E02324001F1B5414FEAB608FB
:10144C0082EA09059AFA8AFC01F51E31B54A04971D
:10145C0004EBF66660468EEA080401F299118218D4
:10146C00394434404FEAB60A91449BFA8BFC294428
:10147C0084EA0E04DFF8ACB20B90654601EBF66122
:10148C0088EA0A0C4C444FEAB106AB440CEA010C56
:10149C0004EBF161059C0C958CEA080CDE44DFF83A
:1014AC0084B224BA8AEA0602E6444FEAB1090EEB8A
:1014BC00F16EA3440A4007990D94D844DFF864B246
:1014CC000FBA86EA090C82EA0A05BB440CEA0E0C38
:1014DC003846DA448CEA060745444FEABE0805EB69
:1014EC00FE6589EA080C57444FEAB50E07EBF56721
:1014FC000899DFF830B20CEA050C099D09BA2DBA2F
:10150C008B4405F1B54A5E448CEA09040AF51E3A8F
:10151C0088EA0E0C0CEA070C34440AF2991A4FEACA
:10152C00B70604EBF764D1448CEA08020A9FDFF893
:10153C00F4A101918EEA060C4A4402EBF4624FEAE4
:10154C00B4093FBA0CEA040C0E9C0595BA44D0447D
:10155C008CEA0E0124BA86EA090C0894414404F181
:10156C00B5480F9C07974FEAB20B01EBF2610CEAFE
:10157C00020C08F51E386B4A0E9024BA08F2991822
:10158C00C6448CEA0605A21889EA0B073244754456
:10159C00029E4FEAB10805EBF16507EA010C1099C0
:1015AC008CEA0907B446009E234609BA8BEA080464
:1015BC00174407EBF5678CEA060E02914FEAB50C5F
:1015CC0004EA050A119D574A069E09938EEA000EFD
:1015DC002DBA8A188EEA030E2B4605F1B5454A44FE
:1015EC008AEA0B04B14605F51E35039E00980A9352
:1015FC0088EA0C0A144405F29915019A04EBF76475
:10160C000AEA070AAB4489EA0609049D4FEAB706C1
:10161C004FEAFE7E029FCDF818E089EA020980EAC3
:10162C00050E89EA07093F4D069F05988CEA0601CD
:10163C007D1901EA0407454487EA0C01039F8AEAF5
:10164C0008024FEAF9792944364D5A448EEA000EC5
:10165C004FEAB40B4846B8460B9F02EBF4628EEA95
:10166C00030E86EA0B0403464519079888EA070817
:10167C0014404FEAFE7E4FEAB207CDF80CE001EBC6
:10168C00F2617440049A88EA00086544069825447F
:10169C00039C944688EA00080C9A0B980B9304F16F
:1016AC00B5448CEA020204F51E3484460D9804F20B
:1016BC0099148CEA000A34440898099E4FEAF87C85
:1016CC00CDF810C042408AEA060A1648049E30182B
:1016DC000C9E4FEAB10E8BEA070905EBF16509EA9E
:1016EC0001095A4087EA0E01B4460E9E4FEAF27386
:1016FC002940039A8CEA060C81EA0706029989EACA
:10170C000B098AEA020A4C448CEA010C4FEAFA797A
:10171C000D99DFF814A058444A468B4606440199AB
:10172C0004E000BF9979825AA1EBD96E04980C920F
:10173C009A44BA4402F1DD478CEA000C07F5B30772
:10174C0004EBF5684FEAFC7C07F5D7474FEAB8097C
:10175C000E9ACDF800C04FEAB505213706EBF866B6
:10176C0007EB0E0C8EEA0504009F109385EA090026
:10177C0084EA080470409046059A604407F1DD4CF9
:10178C00019F88EA02080CF5B30C0A9A8BEA010156
:10179C005444BE464FEAB60A079FDFF85CB50CF519
:1017AC00D74C04EBF664514089EA0A06069A0CF110
:1017BC00210C65448EEA070E86EA040C0C9F089EE9
:1017CC0088EA0208AC44059D88EA070800EBF46738
:1017DC000B986E40009D59408EEA000E4FEAF17353
:1017EC004FEAF8788EEA050E079D0D9341469B440F
:1017FC000691CB4401F1DD492946099D4D400399E1
:10180C004FEAB4044FEAFE7E4E400499CDF804E052
:10181C008AEA04004FEAB70878404D4001990CEB76
:10182C00F76C584484EA08074FEABC0E00EBFC60E6
:10183C0087EA0C075E4001F1DD4C09F5B309069906
:10184C00DFF8B4B44FEAF67609F5D7494D4009F103
:10185C00210931460CF5B30C089E0E91D1440CF5C0
:10186C00D74C88EA0E0A4F440CF1210CB1464FEAD2
:10187C00F575029E2B466444109D8AEA000A89EA9B
:10188C000606A244019C6E406640099CA4460A9C34
:10189C000F938B440C998CEA04044FEAF67607EB11
:1018AC00F06707964FEAB000029E4C400E998EEA04
:1018BC000009D844DFF840B40AEBF76A4FEAB705E1
:1018CC004C4089EA07070099B14689EA02069B4415
:1018DC0080EA050CDE4486EA010B4FEAF4760A9C9A
:1018EC00079908964FEABA098CEA0A0C474407EBA9
:1018FC00FA67E644A24685EA090C0B9CDFF8F883EC
:10190C008BEA03068CEA070C0EEBF76B0D9B4FEA88
:10191C00B707059788444FEAF6778AEA04040297DA
:10192C004044089FDFF8D0835C404C40059B0499F1
:10193C004FEABB0AB84460444FEAF4749446039AE5
:10194C00029F89EA030E454483EA0A082346069C53
:10195C0009938CEA020666400B9C8EEA0B0E07F18B
:10196C00DD4C089F00EBFB607544A34605EBF0656E
:10197C008BEA010488EA00084FEAB00B7E4003F1C1
:10198C00DD40019F109B4FEAF67600F5B3000396FD
:10199C009646029E059A00F5D7407C402130744053
:1019AC0002440CF5B30C4FEAF47017460CF5D74C07
:1019BC00039AD14E04900CF1210C0E98E144961927
:1019CC008AEA0B0C099A8EEA030E8CEA050C8EEA55
:1019DC00000EB24467448EEA020E8C46C64E0C9939
:1019EC00049AC84496190F9A08EBF5688CEA010022
:1019FC004FEAB5058BEA05095040B344009A039EA3
:101A0C0007EBF8674FEAB8044FEAFE7E89EA08084C
:101A1C00CDF814E085EA040C5340D0447040079E86
:101A2C004FEAB70E08EBF7681A468CEA070C4FEA38
:101A3C00F070059F7240064604980A9607F1DD4740
:101A4C00424007F5B3074FEAF2708A4607F5D747CD
:101A5C000D990346213708980B938AEA010A3D44F5
:101A6C003146059FA44E8AEA000A8E190698009901
:101A7C008AEA070AA04F84EA0E09DC440CEBF86CE6
:101A8C0089EA0809DF194FEAB808484002990D9B0A
:101A9C008EEA080B4D44BE440A9F05EBFC654FEAE9
:101AAC00BC0234448BEA0C0C4840019988EA0209C8
:101ABC0078404FEAFA7AA4445646099F8E4C0C960D
:101ACC004FEAB50A0CEBF56C4B4089EA05094FEA75
:101ADC00F075284619460B9D0D90794034196940D4
:101AEC00F144A0444FEAF17409EBFC692746044623
:101AFC0081480E994FEAB9031093201882EA0A061E
:101B0C00069C7D4B06970244109886EA0C064FEA19
:101B1C00BC0C84EA01058CEA00040398FB184540D0
:101B2C00019F0F98B04487EA00060C9F08EBF968F8
:101B3C008AEA0C0E84EA08047D405344049F234433
:101B4C008EEA09090D9C91447E404FEAF5726B4D6B
:101B5C000E9209EBF869664003EBF96A55194FEAE6
:101B6C00F673079A009381EA02060CEB0501009DBF
:101B7C00109C4FEAB80849EA080305F10F4E4FEAEA
:101B8C00B900234009EA08090F9C059D0EF5DD1EDE
:101B9C0043EA09090EF5E65E109BA4460EF11C0EF5
:101BAC00089C73444AEA00076E408CEA040501EB7A
:101BBC00FA6C1946069B07EA080B0AEA00075E4016
:101BCC004BEA07070A9BDFF834B10F444FEAF67172
:101BDC000E460E9907965D40484B4D404FEAF57105
:101BEC00F318029E0191CC444FEABA0A5640019A6E
:101BFC004CEA0A0107EBFC674FEABC0E0140934428
:101C0C000CEA0A0C0B9A47EA0E0541EA0C0C0099F7
:101C1C009844564005EA0A03099A07EA0E051D4343
:101C2C004E40A1460C99584489EA02042844079D69
:101C3C00324A4C406C404FEAF47425460299039C9E
:101C4C000F954FEAF67381EA04060D9C08939A18D7
:101C5C0008EBF76892446640049A099CE04400EB58
:101C6C00F8604FEAB80B29465440244D019A4FEACC
:101C7C00B70740EA0B0948EA07034D19564009EA31
:101C8C00070100EA0B0903EA0E0341EA090908EA15
:101C9C00070806994FEAF67643EA08083346089E89
:101CAC0009934C4074404FEAF47602961E46134B4F
:101CBC00039CF318059E6640029CAE4409EB0E058E
:101CCC0004F10F4E0E9C0AEBF06AC2444FEAB000CE
:101CDC006640049C4AEA000205EBFA654FEABA0C2E
:101CEC0002EA0B02A0461F440A9C0F9B0AEA000A58
:101CFC000EF5DD1E04E000BFA1EBD96EDCBC1B8F22
:101D0C0045EA0C0142EA0A0A0EF5E65E009A01EA7F
:101D1C0000095E4005EA0C01099B0EF11C0E88EAD5
:101D2C00040449EA0101F344544001EB0B0E5C40FE
:101D3C000599CE4B07EBF56757444FEAB50A4FEAC6
:101D4C00F475CA4C11954FEAF6720E460B99109227
:101D5C002C19079DD31847EA0A0886EA010208EAFB
:101D6C000C081844A4440C9B029C6A400A9D0EEB80
:101D7C00F76E4FEAB70907EA0A0785EA030600EB94
:101D8C00FE60019D624048EA070707444FEAF27083
:101D9C006E40054610980A954EEA090B46400BEA30
:101DAC000A0B0EEA09014FEAF67002464BEA0101F2
:101DBC002846AE4D01EB0C040B990B924FEABE0E6C
:101DCC0045190D9804EBF7644FEAB70807EA0E03C0
:101DDC0047EA0E0C0E46089F4640A4487E400C9FD6
:101DEC0044EA080B1018069A0CEA090C0BEA0E0BC5
:101DFC0004EA08015544BA464BEA01018AEA020A90
:101E0C0081444CEA03020F9B119F01EB09000A99D4
:101E1C0005EBF4658AEA030A2A448AEA010A4FEAC6
:101E2C00FA7C0E99CDF80CC07E4000EBF2670D9851
:101E3C008E4B4FEAB40580EA010403988B49411894
:101E4C0009984FEAF676444006980C96F31842EA45
:101E5C0005097344864600984FEAB20B09EA080953
:101E6C002A408EEA000603EBF76E49EA02030B9A4E
:101E7C005440029A88444FEAF4710C9C0D915640E0
:101E8C0066404FEAF6742246784C47EA0B0A4FEA52
:101E9C00B7000AEA050A07EA0B0C0C19079F0E9902
:101EAC000E924AEA0C0CE04481EA070C10992C447F
:101EBC006E4D73448CEA010C009943EA00065519E7
:101ECC0006EA0B068A46AB440199039D08EBF368BE
:101EDC004FEAB30903408AEA01078CEA050C04EBCC
:101EEC00F861119D46EA03040C4448EA090E0D9969
:101EFC000EEA000E08EA09026F404EEA02024F4059
:101F0C0002EB0B054FEAF773089A079F00934FEA11
:101F1C00FC7C7A40554F6646F719074400980796A3
:101F2C00844652480A9E604404900E9872404FEAD0
:101F3C00B8014240019844EA01034FEAB40A05EBA8
:101F4C00F46584460C400F9803EA090323434FEAD7
:101F5C00F274224645EA0A088CEA000B07EBF56797
:101F6C0004980B9C3B4408EA0108079F05EA0A0603
:101F7C0048EA06068BEA040BDFF8F080099C8BEA32
:101F8C00070B8144089F0892B14490440C9E0F9A11
:101F9C007C40884400997440029E4FEAFB7E4C4082
:101FAC000399CDF804E072404FEAF47404944FEABC
:101FBC00B505089C4A40019943EA050C09EBF3600E
:101FCC0062400CEA0A09099C8C4628494FEAB3077F
:101FDC002B4040EA070608EBF068A6466144109CCB
:101FEC0049EA030C00EA07094FEAB00009904FEAEE
:101FFC00F2700D9A1E4B05908EEA0404049854401E
:10200C00099A0CEB080E00EB0308019887EA020C06
:10201C00029A2E40444046EA0906059891465144DE
:10202C00119A4FEAF474029431440E9C4FEABE06A6
:10203C0001EBFE6192468CEA0E0C89EA020286469E
:10204C0009986240109C80EA060B04984544A0460F
:10205C000A9C4240079865449E4488EA0404BE44A6
:10206C008BEA010B4FEAB107444003E0DCBC1B8F49
:10207C00D6C162CA05EBF1610598029DF344444058
:10208C00AC464FEAF27286EA07050BEBF168069252
:10209C004FEAB1090B9A099869404FEAF475099512
:1020AC00009D0A9C8AEA02029C446A40069D604498
:1020BC0001EB000CAE460C98029D9E4482EA050191
:1020CC0084EA0002099C0CEBF8604FEAB80A0EEBAC
:1020DC00060C4FEAF1760A96E518089E0B9989EAE8
:1020EC000A0487EA090B44402F44069D8BEA080B2F
:1020FC008E46724003993C440A9F6A40DC44019D21
:10210C000CEBF06C8EEA01064FEAB001F818099F4F
:10211C006E407E400C9FBE460D9F814404984FEA52
:10212C00F67B8AEA01050A9E8EEA070704EBFC643B
:10213C0085EA0C0547404FEABC0C81EA0C0E77404F
:10214C004D444FEAF27805EBF4654FEAB409039A73
:10215C000E9E8EEA040E4FEAF7740394059C0D9FB5
:10216C0072406240079C7C40029F08EB03000BEB23
:10217C00030682440E448CEA09007C40039F0E99AE
:10218C0068401F4430440E460099BC4482EA080261
:10219C00069F4FEAF2724E400C927E40D718039A7B
:1021AC00D6444FEAB50A0EEBF56E564089EA0A059D
:1021BC00079A85EA0E0565444FEAF6769446089A26
:1021CC000796B944099E009F8CEA020C84EA0B0422
:1021DC008CEA060C3E46019F4FEAF4740B94774050
:1021EC000C9E0B9A00EBFE614FEABE0E4FEAB10457
:1021FC008AEA0E008CEA060C0A9E05EBF1651A447D
:10220C0048408EEA04015244694077400B9E1144C9
:10221C00089A7740484416464FEAF777049A009795
:10222C004FEAB50A019F00EBF560079D7240A94685
:10223C0082EA0802B846059F994484EA0A0501EB34
:10224C00F066CE4488EA07084540079FCDF8048025
:10225C004FEAB0008AEA0001754405EBF6654FEAD7
:10226C00B60E7A407140009F019E4FEAFC7C0CEB4D
:10227C00030907EB030886EA0B06049F4FEAF27B7F
:10228C00029AA14480EA0E046C407A40D044039F29
:10229C00A044009C7A4062404FEAF27449444FEAF1
:1022AC00B50A01EBF56186EA0C060094059C069DC7
:1022BC000C9F4FEAF67684EA0502F4188EEA0A0CB3
:1022CC00A644009C0BEB0309484404EB0309029C55
:1022DC0008EBF1688CEA010C7A404FEAB1014FEA45
:1022EC00B805844482EA0B028AEA0100A346099CE1
:1022FC000B9F0CEBF86C80EA080881EA05008BEA6E
:10230C000404CA4480EA0C0906984FEABC0BF0445A
:10231C007C4008EBFC6C03EBF27285EA0B088646FA
:10232C00CA440A98079F6640129C0AEBFC6A114447
:10233C0088EA0C024FEABC0C8BEA0C098EEA000E00
:10234C0003EBF676E0181144009B149C159A4FEAA7
:10235C00BA0801EBFA618EEA070E2E4489EA0A0AE2
:10236C008EEA030E564406EBF16600EBFE7E8CEA19
:10237C000800A319F3444840139C179D02EBB101CC
:10238C00169AEB605844424400EBF66064442961B1
:10239C00A8606A61AC6119B0BDE8F08F2DE9F0411D
:1023AC0006460068831817460C46336000F03F0061
:1023BC0002D373680133736098B1C0F14005BD421C
:1023CC0002D917BBBDE8F08106F11C082146404438
:1023DC002A4601F06FF8414630467F1B2C44FEF72D
:1023EC00A7FF3F2F19D9A7F1400525F03F05403530
:1023FC002544214630464034FEF79AFFAC42F8D1D2
:10240C0007F03F070020002FDCD01C3630443A4642
:10241C002146BDE8F04101F04DB80020D1E700BFE6
:10242C0030B50D46D0E90021530F83B043EAC10308
:10243C000446180ED1008DF8033002F03F028DF8DF
:10244C000000180C1B0A372A8DF801008DF8023099
:10245C004FEA11604FEA11438DF807104FEA112132
:10246C0094BFC2F13802C2F178028DF804008DF8E5
:10247C00061020461C498DF80530FFF78FFF082207
:10248C0069462046FFF78AFFE37A2B7063896B70ED
:10249C00A3681B0AAB70A368EB70E37B2B71E38919
:1024AC006B71E3681B0AAB71E368EB71E37C2B7215
:1024BC00638A6B7223691B0AAB722369EB72E37D2F
:1024CC002B73E38A6B7363691B0AAB736369EB73DE
:1024DC00E37E2B74638B6B74A3691B0AAB74A369C7
:1024EC00EB7403B030BD00BFF8360F00F0B599B0F7
:1024FC0006460C46154600215C2201A801F003F8A3
:10250C0000230F480F49104A104F0397CDE90133B0
:10251C000F4BCDE90401CDE9062324B12246314607
:10252C0001A8FFF73BFF294601A8FFF779FF01AB94
:10253C0000221A7018A901338B42FAD119B0F0BDE0
:10254C0089ABCDEFFEDCBA98765432100123456787
:10255C00F0E1D2C338B5074C00210D4642F2080217
:10256C00204600F0D0FF657000F0A2F900B9FEE73C
:10257C00257038BDF434002000F0CAB901282DE9CB
:10258C00F0417CD14B4E42F20402B35A9BB2B3B928
:10259C00062542F2020342F20401F25A715A9142A8
:1025AC003CBFF45AA5B200F0CDF943492A46A1F537
:1025BC00805000F0F9F9BDE8F04100F0AFB9B35A22
:1025CC003E4C3F48D4F81878D4F81418B3F5805F13
:1025DC0084BF4FF48053B35242F20403F55A36F8D9
:1025EC000380D4F820381FFA88F8FB1A984584BF6A
:1025FC00D4F82038FF1AD4F8203898BF474619442D
:10260C003A4600F057FFD4F82038D4F818283B4449
:10261C00C4F82038D4F820389342ADB204D3D4F89F
:10262C0020389A1AC4F82028D4F82438B845A3EBDB
:10263C000703C4F82438ACD9D4F81438D4F82018CB
:10264C001F48A8EB070842461944384400F032FFF3
:10265C00D4F82038D4F818284344C4F82038D4F8D7
:10266C002038934204D3D4F820389A1AC4F820287E
:10267C00D4F82428A2EB0802C4F8242889E70822FD
:10268C0000210F4800F03FFF0C49D1F8242852BA22
:10269C000848D1F81048D1F8043882801B1B5BBA6B
:1026AC009BB2B3F5805F88BF4FF48053C38006257F
:1026BC0079E700BFF4340020F64400208C2C002075
:1026CC00F634002010B50446002000F04FF9636882
:1026DC000A4A0BB9236853B11378DBB2022B08D02A
:1026EC00052B01D1062313700423537010BD1370F6
:1026FC0010BD0323137004235370F7E7F434002048
:10270C00F8B5584C00F00AF96378022B00F08D8074
:10271C002378062B27D8DFE803F0927F26049E2629
:10272C002A0041F20203E05A002876D003281AD17D
:10273C0041F2040141F2050241F2060041F20703A5
:10274C00615CA25C205CE35C42EA012242F204057B
:10275C0042F2020143EA0023012062536352FFF765
:10276C000DFF05232370BDE8F84000F0EBB842F2F2
:10277C000202A35A9BB2002B4ED03B4DA75AD5F860
:10278C000468D5F80838D5F800083849F31ABFB2F0
:10279C009F4284BFD5F80838F61AD5F8083898BF88
:1027AC003E461844324600F085FED5F80838D5F878
:1027BC0004283344C5F80838D5F80838934204D3B4
:1027CC00D5F808389A1AC5F80828D5F81038B74241
:1027DC003344C5F810381FD9D5F80038D5F8080897
:1027EC002249BF1B3A461844314400F063FED5F829
:1027FC000838D5F804283B44C5F80838D5F808380B
:10280C00934204D3D5F808389A1AC5F80828D5F895
:10281C0010381F44C5F810780020FFF7AFFE0223D4
:10282C002370BDE8F84000F08DB800F0B5F8012831
:10283C007FF46EAF00F09AF80323637068E7002012
:10284C00FFF79CFE02230120237000F08FF8BDE8F7
:10285C00F84000F077B805232370BDE8F84000F08D
:10286C0071B800BFF43400208C2C0020F6440020FA
:10287C0000B589B001AB83E807009DF8043023B1A3
:10288C00012B08D009B05DF804FB084B02225A70EA
:10289C0009B05DF804FBDDE9023205A80592069348
:1028AC00FFF710FF09B05DF804FB00BFF434002003
:1028BC0038B5134C134D0C220021204600F023FE9A
:1028CC00114B124A1968106861601423152220609C
:1028DC000B6013234A608B6016224FF6FF73CA609D
:1028EC008B82062200238A750B744B748B742A46D8
:1028FC00A56000F0B9F908B100F09EF9012038BDCF
:10290C00FC5400207D280F00042C0020002C0020FB
:10291C00014B186800F02EBB002C002010B40749A6
:10292C00074842F2060208248B5C0133DBB28B545D
:10293C00C0F880405DF8044B704700BFF4340020B1
:10294C0000E100E0074942F206028B5C013BDBB27E
:10295C008B548B5C23B9044B0822C3F880211A607A
:10296C00704700BFF434002000E100E04FF0A043BA
:10297C004FF0804230B1C3F80825064A42F20703F3
:10298C00D0547047C3F80C25024A42F20703D054C6
:10299C00704700BFF4340020024BD3F81005C0F38D
:1029AC00802070470003005031B138B130B583B08E
:1029BC002AB9104603B030BD0846704770470B4625
:1029CC0001460948094D0068009201246C7000F022
:1029DC00F5FA28B96B78012BFCD0012003B030BD7F
:1029EC0000F02AF9F6E700BFFC540020F434002074
:1029FC00014B1860704700BF0855002008B500F067
:102A0C0017FB00B908BDBDE8084000F015B900BFC0
:102A1C0010B54FF0A04382B04FF000720021C3F804
:102A2C00082501240223ADF80410094A8DF806305C
:102A3C0001A91F208DF8044000F040FB21461F2007
:102A4C0000F0D4FB40BF20BF20BF02B010BD00BFC0
:102A5C00FD290F0010B5064C2046FEF707FB00B908
:102A6C0010BDFFF7D5FF002384F8543810BD00BF0C
:102A7C008C2C0020704700BF4FF080414FF08052EB
:102A8C00002010B45E4BC1F80C01C1F81001C1F864
:102A9C003805D2F80414C3F82015D2F80814C3F87A
:102AAC002415D2F80C14C3F82815D2F81014C3F856
:102ABC002C15D2F81414C3F83015D2F81814C3F826
:102ACC003415D2F81C14C3F84015D2F82014C3F8EE
:102ADC004415D2F82414C3F84815D2F82814C3F8B6
:102AEC004C15D2F82C14C3F85015D2F83014C3F886
:102AFC005415D2F83414C3F86015D2F83814C3F84E
:102B0C006415D2F83C04C3F86805D2F840043D497A
:102B1C00C3F86C050968D2F84424C3F87025082959
:102B2C0024D04FF08043D3F80024D20744BF6FF079
:102B3C000102C3F80024344AD2F8883043F47003FD
:102B4C00C2F88830BFF34F8FBFF36F8F4FF0102355
:102B5C00D3F80022002A23DBD3F80432002B1FDB2E
:102B6C002A4B2B4A1A605DF8044B7047294B1B68A3
:102B7C00002BD6D12848294A294C046029492A4BD4
:102B8C00FB20C2F818050A681B68284822F00F02BF
:102B9C0003F00F0313434FF400720B600260C0E7A5
:102BAC00234B0122C3F80425D3F80024002AFBD0C0
:102BBC004FF0102312221E49C3F80022D1F8003422
:102BCC00002BFBD04FF010221221194BC2F804122B
:102BDC00D3F80024002AFBD000221549C3F80425A1
:102BEC00D1F80034002BFBD0BFF34F8F0649114BAB
:102BFC00CA6802F4E0621343CB60BFF34F8FFEE769
:102C0C0000C000403001001000ED00E0202C00203E
:102C1C000090D003340100108C56004000F00040AE
:102C2C0048810300E40E0040580200104096024018
:102C3C0000E001400400FA0500B585B000230390C4
:102C4C00194601AA44F20100ADF804300293FDF7D5
:102C5C0009FD05B05DF804FB024B53F8213007C8A1
:102C6C00184700BF0C55002010B4044C037944F8ED
:102C7C002320034A5DF8044B00F076B80C55002075
:102C8C00652C0F0000B54B7DDBB2022B85B01AD042
:102C9C00032B08D0012B02D005B05DF804FB436276
:102CAC0005B05DF804FBD0F83C350293D0F84C2508
:102CBC00039201238DF8043001A88B688969984729
:102CCC0005B05DF804FB00238DF80430CDE9023328
:102CDC0001A88B688969984705B05DF804FB00BFB3
:102CEC0030B51F4BD3F8282183B05AB10022C3F85A
:102CFC002821D3F828211B4C0192019A627DD2B273
:102D0C00012A18D01648D0F8043153B10023C0F86A
:102D1C000431D0F80421134B0092009A5A7D022AF8
:102D2C0001D003B030BD032219465A7503B0BDE87B
:102D3C003040FFF7A7BF2168E068C3F84405C3F82B
:102D4C00481561682069C3F834050225C3F83815A5
:102D5C0018469A6221466575FFF794FFD2E700BFCB
:102D6C0000300040185500202DE9F04F06797D4FBA
:102D7C004FEAC608A8EB060407EB840487B0247D51
:102D8C00002C40F0D3800C7C032C00F2CB80046828
:102D9C000D46834674492046CDE9002300F044F9E2
:102DAC00002840F0CA802968FF2900F0C3801F2941
:102DBC00EA7C87BFDFF8B4C101F01F030B464FF06C
:102DCC00A04C03F5E07312024CF82320D5F804C094
:102DDC00BCF1FF0F00F0BD80BCF11F0F8BBF0CF0DE
:102DEC001F036346614A4FF0A04203F5E0734FF0B6
:102DFC00000E42F823E0D5F80CA0D5F808E0AB7C27
:102E0C00BAF11F0F8BBF0AF01F025246DFF85C911C
:102E1C004FF0A04902F5E0729B00BEF11F0F49F87C
:102E2C0022308CBF514B4FF0A0431A4688BF0EF096
:102E3C001F096B7C029398BFF1462B7C039309F519
:102E4C00E079002342F82930029AC4F808E5D21A36
:102E5C00C4F810C5C4F80C15C4F814A5C4F834355E
:102E6C00C4F83835C4F84435C4F84835039B18BF4A
:102E7C000122022B73D0032B6ED0012B01D142F017
:102E8C000202C4F854252B7DC4F85C356B7DC4F864
:102E9C00C0350021C4F80411D4F804310593059B06
:102EAC00C4F82811D4F828310493049BD4F800C238
:102EBC00DBF80020A8EB060307EB83034CF0040CB3
:102ECC00C4F800C2597500999960120B0199996167
:102EDC0040F2024C53B2C4F804C3002BA97DD2B209
:102EEC002FDB03F16045490105F56145C9B285F851
:102EFC0000135B099B00A8EB060603F1604303F586
:102F0C006143012107EB860702F01F0201FA02F26E
:102F1C000225C3F880211A603975C4F8005507B032
:102F2C00BDE8F08F072007B0BDE8F08F082007B090
:102F3C00BDE8F08F4FF0FF3148E7112007B0BDE836
:102F4C00F08F0B4D02F00F0C49016544C9B2297684
:102F5C00CFE74FF0FF3C4EE742F0060291E742F01C
:102F6C0004028EE718550020ED2C0F0000030050D2
:102F7C00FCEC00E00268F8B5110B4BB25B09203396
:102F8C0001250C4F047901F01F0105FA01F14FF0F6
:102F9C00FF360025C2F80055104647F82310C2F83A
:102FAC00086300F043F8044BC4EBC40403EB840443
:102FBC002575F8BD00E100E01855002070B50479C6
:102FCC00D4B9049CB4F5803F16D2B2F5803F13D22D
:102FDC0021B101F06044B4F1005F0FD123B103F0D3
:102FEC006044B4F1005F09D10E4D6C7D032C17D8F1
:102FFC00DFE804F008060808092070BD102070BD39
:10300C00082070BD0068049E2A600C460122054908
:10301C006E60C5E903436A75FFF734FE002070BD8E
:10302C00032070BD1855002000207047704700BF6A
:10303C0030B51D4D95F85B3083B093BB05F1230380
:10304C0005F15302FF2403F8014F9342FBD14FF0DB
:10305C00FF3306220021154885F85440C5E900339A
:10306C00C5E90233C5E90433C5E906332B6200F028
:10307C004AFA0F4B0F4A104CC02083F8060340212C
:10308C000020C3F880111060196013680193019936
:10309C004FF00043012285F85B20C4F8043303B0E1
:1030AC0030BD082003B030BD3455002089550020B8
:1030BC0000E100E07C61004000600040F0B4484C4E
:1030CC00231893F92450002D4ADA8E78C6F3400663
:1030DC00002E3FD0256801357CD000230133072B0F
:1030EC003BD854F823500135F8D127185DB244F879
:1030FC00232087F82450002E57D08B785A071AD4E7
:10310C00DE0756D41F284B7887BF364E00F01F02BF
:10311C0002464FF0A04602F5E0729B0046F82230C2
:10312C00314EC20800F0070CB75C012303FA0CF314
:10313C003B43B3548B780A7813F0020313D1083D48
:10314C002C44184694F8543043EA821284F85420E4
:10315C00F0BC7047256A013521D00420F0BC7047C3
:10316C000820F0BC7047AB0003F1804303F5C0436B
:10317C000002D3F8101521F45F3121F44071C3F82B
:10318C001015120400F4FE40D3F8101502F440326E
:10319C0002430A430020C3F81025F0BC70470826F0
:1031AC0083F82460226235463346234483F84C006E
:1031BC00A3E71F2887BF0B4B00F01F0202464FF0FE
:1031CC00A04303EB8203D3F8002722F00202C3F8DA
:1031DC000027A5E70025226083F824508DE700BF67
:1031EC0034550020000300508955002030B4394C70
:1031FC00231882B093F92430072B20DD234493F855
:10320C004C309B09032B43D0012B14BF4FF440319E
:10321C004FF400311F284BD900F01F002E4B03EB4D
:10322C008000D0F8002722F44032C0F80027D0F8F4
:10323C0000370B43C0F8003702B030BC7047DAB22D
:10324C00072AF9D8980000F1804000F5C04003F13E
:10325C004002D0F81055920092B245F0010502F1EF
:10326C008042C0F8105502F5C04200200190019D2B
:10327C0010600029E0D054F82320002ADCD0012271
:10328C00164902FA03F3C1F8043302B030BC70479C
:10329C001F2810D9104BD3F8103500F01F00C34075
:1032AC0013F0010F0CBF4FF400314FF44031B5E770
:1032BC004FF0A043B3E74FF0A0421346D2F81025CD
:1032CC00C24012F0010F14BF4FF440314FF40031E3
:1032DC00A5E700BF345500200003005000600040FB
:1032EC002DE9F047002288B01646CDE9022215469A
:1032FC006A4B6B4C6B48012204E0043383424FEA67
:10330C00420211D019680129F7D1D4F804131142E3
:10331C00F3D01D60196800910433834246EA02061B
:10332C0000994FEA4202EDD15F4B1A68012A0FD186
:10333C0000221A601B6801934FF0A042019BD2F847
:10334C0010255A4B0292D3F81035039346F00046E1
:10335C0016F0FF0F1AD0564F01250024A30003F1DD
:10336C0080432E4203F5C0434FEA45050BD0D3F8FA
:10337C00100557F82420D3F81015C0F30620C1F31C
:10338C00014102B190470134082CE7D1002E02DB39
:10339C0008B0BDE8F0874FF0FF330DF11008CDE910
:1033AC0006330022424DDFF80491C8F80420049241
:1033BC0001264FF0A04795F95420D3B2013223F0E7
:1033CC00C000E5D008AA4FEAD00E02EB0E0103F0C4
:1033DC00070211F8084C06FA02F21442D8D02C1845
:1033EC004FEA931C94F9244055F82440002C4BD000
:1033FC00BCF1030F4BD01F288BBF03F01F0E86466A
:10340C004B464FF0A04303EB8E0311F818ECD3F8A6
:10341C0000171EEA020FC1F3014125D10329B7D1D0
:10342C00BCF1030F25D14FF40032D3F8001721F46F
:10343C004031C3F80017D3F800170A43C3F800272C
:10344C000CB10321A047D7F810350299D9F81025F3
:10345C00994202D1039991429AD004990293059B07
:10346C000392CDE90613A6E7022991D1BCF1030F13
:10347C0007D0002C8CD06146234608B0BDE8F0473D
:10348C0018474FF44032D0E7BCF1030F80D118F845
:10349C000EA04AEA020A08F80EA0ACE70061004050
:1034AC0000600040206100407C610040000300503F
:1034BC0034550020844640EA010313F0030F18D161
:1034CC008446202A0BD32DE9F007B1E8F807A0E8D1
:1034DC00F807A2F12002202AF7D2BDE8F007042A4F
:1034EC0007D351F8043B40F8043BA2F10402042A30
:1034FC00F7D2002A05D011F8013B00F8013B013A44
:10350C00F9D1604670478446002A2DD010F0030F85
:10351C0004D000F8011B013A26D0F7E7C9B241EA02
:10352C00012141EA0141202A12D3A2F120022DE906
:10353C00F0030B460C460D460E460F468846894650
:10354C00A0E8FA03203AFBD2BDE8F00320320BD0FE
:10355C00042A05D340F8041B043A05D0042AF9D2F6
:0C356C0000F8011B013AFBD160467047DB
:103578006661740000F00100000000000000000017
:103588000000000000000000000000000000000033
:103598000000000000000000000000000000000023
:1035A8000000000000000000000000000000000013
:1035B8000000000000000000000000000000000003
:1035C80000000000000000000000000000000000F3
:1035D80000000000000000000000000000000000E3
:1035E80000C0010000000000000000000000000012
:1035F80000000000000000000000000000000000C3
:103608000000000000F0010000F0010000000000D0
:1036180000000000000000000000000000000000A2
:1036280000F0010000F001000000000000000000B0
:10363800000000000030020000F0010000F001006E
:103648000000000000000000000000000000000072
:10365800000000000030020000000000009001009F
:10366800006002000060020000000000000000008E
:10367800000000000000000000600200006002007E
:1036880000900100000000000000000000000000A1
:10369800000000000000000000600200006002005E
:1036A8000000000000000000000000000000000012
:1036B8000000000000000000000000000000000002
:1036C800000000000070020000600200000000001E
:1036D80000000000000000000000000000000000E2
:1036E80000000000000000000070020000600200FE
:1036F8008000000000000000000000000000000042
:1037080000000000000000000000000000000000B1
:1037180000000000000000000000000000000000A1
:103728000000000000000000000000000000000091
:08373800003000400000000019
:1037400038370F00082C0020FF000000FF000000A9
:10375000FF000000FF00000000000000FFFF060067
:043760000090D00302
:020000020000FC
:020000041000EA
:0410140000000F00C9
:04000003F00002B94E
:00000001FF
