:0200000270008C
:10800000C83D0020918207002585070029850700CB
:108010002D85070031850700358507000000000029
:10802000000000000000000000000000398507008B
:108030003D850700000000004185070045850700D9
:10804000498507004D8507004B8207007D890700A1
:108050004F820700518207005185070055820700B3
:1080600055850700598507005D8507006185070074
:1080700065850700698507006D8507007185070024
:1080800075850700798507007D8507006D820700EB
:108090006F820700718207007382070075820700F4
:1080A00077820700798207007B8207007D820700C4
:1080B0007F820700818207000000000000000000AE
:1080C0008382070085820700878207008982070074
:0C80D0008B8207008D8207008F82070062
:1080DC00354936480A1A02D0072291438D46344955
:1080EC0034480A1A06D00722914381F309880222E8
:1080FC0082F3148830483149314A00F043F8314852
:10810C003149324A00F03EF831483249324A00F0E7
:10811C0039F832483249334A00F034F8324833499E
:10812C00334A00F02FF833483349344A00F02AF828
:10813C0033483449344A00F025F834483449002295
:10814C0000F02BF833483449002200F026F833486D
:10815C003349091A082903DB00220260043001604C
:10816C001F482049884205D00268043003B4904768
:10817C0003BCF7E700208646EC4600200021294A84
:10818C009047FEE7884207D0521A05D00378013099
:10819C000B700131013AF9D17047884202D002705C
:1081AC000130FAE770470000C83D0020C8350020B8
:1081BC00C83D0020C83D00201CAF0700002C00204B
:1081CC00182C0020A4820700A482070054AD0700DD
:1081DC001CAF0700002C0020002C002054AD070021
:1081EC0054AD070054AD070054AD070054AD070063
:1081FC0054AD070054AD070054AD07001CAF070089
:10820C0034AF07004435002044350020182C0020E2
:10821C0044350020443500204435002044350020EE
:10822C00C43500205D840700FEE7FEE7FEE7FEE7AD
:10823C00FEE7FEE7FEE7FEE7FEE7FEE7FEE7FEE70A
:10824C00FEE7FEE7FEE7FEE7FEE7FEE7FEE7FEE7FA
:10825C00FEE7FEE7FEE7FEE7FEE7FEE7FEE7FEE7EA
:10826C00FEE7FEE7FEE7FEE7FEE7FEE7FEE7FEE7DA
:10827C00FEE7FEE7FEE7FEE7FEE7FEE7FEE7FEE7CA
:10828C00FEE7FEE70348854600F002F8FFF720BF43
:08829C00704700000000012002
:1082A40082B001904FF0A043184602B0704700B569
:1082B40085B00190084611461A4603468DF80330EE
:1082C4000B468DF8023013468DF8013001AB184689
:1082D400FFF7E6FF03909DF803209DF802305B0052
:1082E4001A439DF801309B001A439DF818301B0275
:1082F40042EA03019DF81C301B04019A1943039BB5
:1083040002F5E07243F8221000BF05B05DF804FBEB
:1083140000B585B00390002301930023009300234C
:10832400012201210398FFF7C2FF00BF05B05DF8E9
:1083340004FB00B585B003900B468DF80B309DF817
:108344000B200023019300230093134600220021F5
:108354000398FFF7ACFF00BF05B05DF804FB00B560
:1083640085B0019001AB1846FFF79AFF0390019B7B
:10837400012202FA03F31946039800F02AF800BF19
:1083840005B05DF804FB00B585B0019001AB18465B
:10839400FFF786FF0390019B012202FA03F31946BB
:1083A400039800F020F800BF05B05DF804FB00B5A9
:1083B40083B001900091009B002B03D10198FFF73B
:1083C400E2FF02E00198FFF7CAFF00BF03B05DF8C7
:1083D40004FB82B001900091019B009AC3F8082528
:1083E40000BF02B0704782B001900091019B009AD7
:1083F400C3F80C2500BF02B07047000082B0144BD4
:108404000122C3F8042500BF114BD3F80034002B1C
:10841400FAD04FF01023D3F80C3201934FF010230D
:108424000022C3F80C220A4BD3F804350193019BB4
:1084340063F003030193064A019BC2F8043500BFAD
:10844400034BD3F80034002BFAD000BF02B07047BE
:1084540000E0014000BF704700B583B000238DF8F1
:108464000730FFF7F7FFFFF7C9FF00211420FFF7DC
:1084740060FF0920FFF74CFF0A20FFF749FF0C209B
:10848400FFF746FF1220FFF743FF0B20FFF740FFE3
:1084940000210920FFF78BFF00210A20FFF787FF47
:1084A40000210C20FFF783FF00211220FFF77FFF3C
:1084B40000210B20FFF77BFF00F060F800F09CFA2E
:1084C40000F018FB134801F093FA00F061FF00F08C
:1084D4006FF80346002BF8D000F03CFF0E4B1B68EE
:1084E40001330D4A1360642BEFD10B4B00221A6049
:1084F4000A4B1B78002B03D0084B00221A7002E0B1
:10850400064B01221A70054B1B7819460B20FFF706
:108514004EFFDAE71C2C0020182C0020782C0020B9
:10852400704700BF704700BF704700BF704700BF6F
:10853400704700BF704700BF704700BF704700BF5F
:10854400704700BF704700BF704700BF704700BF4F
:10855400704700BF704700BF704700BF704700BF3F
:10856400704700BF704700BF704700BF704700BF2F
:10857400704700BF704700BF704700BF084B10B47E
:108584000122042400204FF47A715A60C3F8104584
:10859400C3F8040510BCC3F840151A60704700BF47
:1085A40000900040014B01225A6070470090004047
:1085B400074BD3F8400148B106480022C3F84021D4
:1085C400026801210A4402600846D960704700BF6E
:1085D400009000407C2C002030B4D0F818250B8C7F
:1085E4000C8B82B0D2B29C428DF8072004D94A6920
:1085F4009DF80740D4540B8C91F822500C8A5A1CD5
:1086040092B202336D070A849BB213D5A34201D2FE
:108614000B821C460D8B9D4218D9A3420B8328BFA5
:108624009DB213D2CA68D35CC0F81C35012002B0D5
:1086340030BC7047A342F5D30D8B9D4206D9CB7F46
:10864400C0F81C35012002B030BC7047A24203D2EE
:10865400012002B030BC7047AA422CBF0020012088
:1086640002B030BC704700BF2DE9F04F4479554D3E
:10867400E6003719BF0005EB070C83B09CF81CE03B
:10868400BEF1000F40F08F80EA51CCF8043091F82D
:10869400008091F80CE04FF0A047012303FA08F39F
:1086A400BEF1010F94BFC7F80C35C7F808354FF079
:1086B400A04C08F5E07301274CF823704B78FF2B8E
:1086C40068D003F5E0799F404FF0030ACCF80C75AD
:1086D4004CF829A08F78FF2F61D007F5E0794FF08F
:1086E400A04C4FF0000A01974CF829A091F803C060
:1086F400BCF1FF0F0CD04FF0A04B4FF0010A0CF56A
:10870400E0790AFA0CFA0327CBF808A54BF829708C
:1087140006EB040905EB890989F81EC091F80D9050
:10872400D0F800C0D1F808A0CCF8088519F10009E8
:10873400CCF80C3518BF4FF00109019BCCF810356B
:10874400BEF1020FCCF824A538D0BEF1030F32D00D
:10875400BEF1010F01D149F002093319CCF8549547
:1087640005EB83034F79DF770AB304220123CCF8A6
:108774000423CCF8003590F90400097902F068FA72
:10878400344405EB8405002001232B77687703B07C
:10879400BDE8F08F8F78FF2F4FF0FF339DD14FF05E
:1087A400FF370197A2E7082003B0BDE8F08F01234B
:1087B400CCF80035E4E749F00609CEE749F00409AE
:1087C400CBE700BF802C0020F0B441790F4B066842
:1087D400CA00541853F824407CB190F904000C4F9B
:1087E40044090125203400F01F0005FA00F04FF081
:1087F400FF3547F82400C6F808530A4403EB820304
:108804000022C6F800251A77F0BC7047802C00209F
:1088140000E100E02DE9F04F45794E4E4FEAC508DE
:1088240008EB05039B008246F0180F46417F85B094
:1088340000295CD1F3580193964623B112F0140F2A
:1088440004BF0123437708EB050406EB840497E88F
:108854000F0094F822C094F81E9004F1200B0CF041
:10886400FC0C6FF3820C0C34B9F1FF0F8BF802C0CF
:1088740084E80F0006D001234FF0A04203FA09F365
:10888400C2F80C35BEF1000F28D108EB0503DAF865
:10889400004006EB83030422C4F80823A3F820E075
:1088A400C4F808E1D4F80811BA880391039912BBFB
:1088B400DB7FC4F81C35BB89012B06D908EB050303
:1088C40006EB8303DB7FC4F81C35019BFBB1042357
:1088D4000020C4F8043305B0BDE8F08F454406EB2E
:1088E400850600237377062005B0BDE8F08F1120BC
:1088F40005B0BDE8F08F3B68012A1978C4F81C154F
:10890400D9D95B78C4F81C35019B002BDFD105EB6A
:10891400C507DDF8049006EB8707D4F80831002B6F
:10892400FBD0C4F80891D4F80831029339462046A4
:10893400029BFFF751FE0028EFD1454406EB850664
:10894400B27FFF2AD0D001234FF0A0419340C1F859
:108954000835C9E7802C002010B584B00091ADF82B
:108964000420BDF81840029300226946ADF80C407B
:10897400FFF750FF04B010BD10B51248124C00238D
:1089840082B0C0F80831D0F8083101932146019B28
:10899400FFF722FE98B9A37FFF2B06D001224FF0E8
:1089A400A04102FA03F3C1F8083500236377237268
:1089B400D4E90031054802B0BDE81040184702B0C0
:1089C40010BD00BF00300040802C0020882C002007
:1089D400084B1A68824209D01A69824208D01A6A7E
:1089E40082420CBF93F82C0000207047187B70471C
:1089F400187F7047A42C002038B5154C302220462F
:108A0400002102F072F9134A134B1068196861606F
:108A14000125257320604FF0A042104B0B604FF0EE
:108A24000045FF2400238D604C714FF00065032442
:108A34000B734B73C2F80855C2F86C471A46FFF71C
:108A440013FE00B938BDBDE8384002F0F1B800BFEC
:108A5400A42C0020002C0020042C0020181A19FF3C
:108A6400FFF7B2BE054B1B68834205D14FF0A0430C
:108A74004FF00062C3F80825704700BFA42C002003
:108A8400054B1B68834205D14FF0A0434FF00062B1
:108A9400C3F80C25704700BFA42C002042B110B5C8
:108AA40082B011B1B3F5806F04D9002002B010BDBB
:108AB40010467047144600931A462346FFF74CFFAE
:108AC40002B010BDBFF34F8F0449054BCA6802F4CE
:108AD400E0621343CB60BFF34F8FFEE700ED00E08D
:108AE4000400FA050023C360C0E900128360036137
:108AF400704700BF10B50C4C40F6540220460021CC
:108B040002F0F3F804F5806104F500604FF480622C
:108B1400FFF7E8FF214604F614004FF48062BDE835
:108B24001040FFF7DFBF00BFD42C0020F0B5574C36
:108B3400D4F81858D4F824388A1CEB1A9A4283B013
:108B44005DD8D4F81C38EB1A994288BFD4F81C3885
:108B5400074688BFED1AD4F81408D4F81C3898BF17
:108B64000D460022ADF8062018442A460E46394622
:108B740002F092F8D4F81C28D4F818382A44C4F81F
:108B84001C28D4F81C289A4204D3D4F81C28D21ADE
:108B9400C4F81C28D4F82428D4F814082A44AE4273
:108BA400C4F824282ED8D4F81C289A1A012A9CBF69
:108BB400D4F81C585D1BD4F81C3888BF022518440F
:108BC4002A460DF1060102F067F8D4F81C38D4F8EF
:108BD40018282B44C4F81C38D4F81C38934204D306
:108BE400D4F81C389A1AC4F81C28D4F82438012D57
:108BF4002B44C4F8243825D9012003B0F0BD00204B
:108C040003B0F0BDD4F81C38761B324618447919E9
:108C140002F042F8D4F81C28D4F818383244C4F8C6
:108C24001C28D4F81C289A4204D3D4F81C28D21A3D
:108C3400C4F81C28D4F82418D4F814080E44C4F832
:108C44002468B0E7D4F81C38D4F81408C5F1020637
:108C54000DF1060251191844324602F01DF8D4F8F9
:108C64001C38D4F818283344C4F81C38D4F81C38F9
:108C7400934204D3D4F81C389A1AC4F81C28D4F8A4
:108C840024381E44C4F82468B6E700BFD42C00205E
:108C940030B585B000234AF6AA210920CDF8063064
:108CA400CDF80230CDF80A308DF80E30FF22402383
:108CB400ADF800108DF80300AD2501240F2168469E
:108CC4008DF805508DF806408DF807208DF8083092
:108CD400FFF72CFF05B030BD70B50F4A84B00023F8
:108CE400D2F83C18CDF80A30042501228DF80C1076
:108CF4004AF6AA26A5240A210DEB0500CDF8063074
:108D0400ADF804608DF807508DF809408DF80B20FC
:108D1400FFF70CFF04B070BDD42C00202DE9F04700
:108D2400D84CD4F80428ADF5816D00264AF6AA255E
:108D340041F2010A41F2020CD4F800180096501EC8
:108D4400ADF80460084427E031F807E0ADF800E02E
:108D5400B3F8028098FA98F8ADF802809B885BBA61
:108D6400AE45ADF8043066D0D4F80C78D4F8503859
:108D74000137C4F80C78D4F80C7801339742C4F85E
:108D8400503804D3D4F80C389B1AC4F80C38D4F8EF
:108D94001038013BC4F81038D4F81038082B40F2CE
:108DA4006D81D4F80C78D4F80C38D4F81098A2EB70
:108DB400030ECE4596BFD4F80CE8D4F810E8A2EB25
:108DC4000E0EBEF1050F01EB0703BDD8834211F867
:108DD40007E08DF800E014BF01330B46984293F886
:108DE40000E08DF801E03FD093F801E08DF802E057
:108DF4000133984247D093F801E08DF803E0013342
:108E040098423ED0013393F800E08DF804E0984294
:108E14000CBF0B785B788DF80530BDF802305BBA77
:108E2400ADF80230BDF804305BBABDF800E0ADF82F
:108E34000430AE4598D1BDF8023003F1080E9645D2
:108E440092D2D4F810188E4500F21581BDF80410A2
:108E5400B1F5805F05D023D951456DD0614540F00F
:108E6400F380D4F8042867E70B788DF80230814248
:108E740010D00B46013393F800E08DF803E09842DC
:108E8400C0D10B46BFE70B788DF80330814204D084
:108E94000B46B7E70B788DF803308DF80430BAE74A
:108EA400A42940F0D180D4F80C180631C4F80C1869
:108EB400D4F80C18914204D3D4F80C18891AC4F8C5
:108EC4000C18D4F81018D4F800080639C4F810188F
:108ED400D4F80C78D4F80C18C05D0131C4F80C181F
:108EE400D4F80C18914204D3D4F80C18891AC4F895
:108EF4000C18D4F81018C4F83C080139C4F8101838
:108F0400D4F80C08591C03F003030B441844C4F8A8
:108F14000C08D4F80C18914204D3D4F80C188A1A0B
:108F2400C4F80C28D4F81028D31AC4F81038FFF762
:108F3400D3FED4F80428FBE6D4F80C380633C4F87E
:108F44000C38D4F80C38934204D3D4F80C389B1A58
:108F5400C4F80C38D4F81038D4F80018063BC4F818
:108F64001038D4F80C38D31A052B9CBFD4F80C381D
:108F7400A2EB0308D4F80C3888BF4FF00608194454
:108F84004246684601F088FED4F80C38D4F80478D8
:108F94004344C4F80C38D4F80C38BB4204D3D4F896
:108FA4000C38DB1BC4F80C38D4F81038D4F800287B
:108FB400A3EB0803B8F1050FC4F8103864D9D4F84A
:108FC4000C38BDF80480FB1A984588BFD4F80C38D7
:108FD400D4F80C188CBFFF1A4746114402A83A462D
:108FE40001F05AFED4F80C38D4F804283B44C4F8F1
:108FF4000C38D4F80C38934204D3D4F80C389A1AA9
:10900400C4F80C28D4F81038B845A3EB0703C4F807
:1090140010385CD802A9684600F07CFCD4F80C38FF
:10902400D4F804280233C4F80C38D4F80C3893422A
:1090340004D3D4F80C389B1AC4F80C38D4F810387C
:10904400023BC4F8103873E6D4F80C387344C4F8FF
:109054000C38D4F80C38934204D3D4F80C389A1A48
:10906400C4F80C28D4F81038D4F80428A3EB0E0361
:10907400C4F810385CE60123C4F838380DF5816D66
:10908400BDE8F087D42C0020D4F80C18C8F10609E8
:1090940011440DEB08004A4601F0FEFDD4F80C38EB
:1090A400D4F804784B44C4F80C38D4F80C38BB42D8
:1090B40004D3D4F80C38DB1BC4F80C38D4F81038BB
:1090C400D4F80028A3EB0903C4F8103877E7D4F8E0
:1090D4000038D4F80C18A8EB070802AAD0191944D0
:1090E400424601F0D9FDD4F80C38D4F8042843449E
:1090F400C4F80C38D4F80C38934204D3D4F80C38A0
:109104009A1AC4F80C28D4F81038A3EB0803C4F84E
:1091140010387FE72DE9F0478C4B84B01C68ADF81C
:10912400044001F10803240C9BB28DF80640884CDE
:1091340013F0030518BFC5F10405D4F81868D4F872
:10914400247818BFADB22B44F71BBB4200F29180C8
:109154004AF6AA23ADF8083052BAADF80C204ABA40
:10916400D4F81C38ADF80A20F31A052B98BFD4F8AC
:109174001C38804698BFF61AD4F81408D4F81C3862
:1091840088BF062618448946324602A901F084FDA8
:10919400D4F81C38D4F818783344C4F81C38D4F8FC
:1091A4001C38BB4204D3D4F81C38DB1BC4F81C386D
:1091B400D4F82438D4F814083344052EC4F82438D9
:1091C4007FD9D4F81C3809F10209FB1A994584BFE8
:1091D400D4F81C38FF1AD4F81C3898BF4F461844EA
:1091E4003A46414601F058FDD4F81C38D4F81868C2
:1091F4003B44C4F81C38D4F81C38B34204D3D4F824
:109204001C389B1BC4F81C38D4F82438D4F8140830
:109214003B44B945C4F8243875D8D4F81C38F31A3B
:109224009D4284BFD4F81C38F61AD4F81C3898BF71
:109234002E461844324601A901F02EFDD4F81C38FC
:10924400D4F818283344C4F81C38D4F81C38934292
:1092540004D3D4F81C389A1AC4F81C28D4F8243837
:10926400B5423344C4F8243807D8012004B0BDE81B
:10927400F087002004B0BDE8F087D4F81C38D4F897
:109284001408AD1B01AA911918442A4601F004FDE3
:10929400D4F81C38D4F818282B44C4F81C38D4F853
:1092A4001C38934204D3D4F81C389A1AC4F81C28E6
:1092B400D4F8243801201D44C4F8245804B0BDE86F
:1092C400F087D4F81C38C6F1060A02AA911918448A
:1092D400524601F0E1FCD4F81C38D4F81878534411
:1092E400C4F81C38D4F81C38BB4204D3D4F81C3856
:1092F400DB1BC4F81C38D4F82438D4F814085344BD
:10930400C4F824385DE7D4F81C38A9EB07091844DD
:1093140008EB07014A4601F0BFFCD4F81C38D4F826
:1093240018684B44C4F81C38D4F81C38B34204D32E
:10933400D4F81C389B1BC4F81C38D4F82418D4F86F
:1093440014084944C4F8241867E700BF5CAD07005B
:10935400D42C00200C4A08B513680133FA2B0EDC18
:1093640013600A4A13680133B3F5FA7F01DC136012
:1093740008BD00231360BDE80840FFF789BC002343
:109384001360FFF7A9FCECE72C35002028350020FA
:109394002DE9F047D24CD4F8403882B03BB1D4F830
:1093A40010380BB1FFF7BAFC02B0BDE8F087CD4D21
:1093B40000932868ADF80430FFF762FB694628681B
:1093C400C94A0623FFF76AFB2868FFF701FB002858
:1093D400FAD02868FFF746FBC34A53885BBAC4F83F
:1093E4002C38928852BA43EA020111F4604FC4F84F
:1093F400282805D00023C4F82C38C4F82838CEE730
:10940400D4F82018D4F81868D4F82408C4F83038EC
:10941400711A814294BFD4F82018D4F82468D4F87F
:109424000878D4F8100898BF761AD4F80418C4F849
:109434003468081ACF1B87428CBFD4F81008D4F8BC
:109444000808081A83420ED9D4F80808D4F810384A
:10945400081ACB1A98428CBFD4F81038D4F80838BC
:10946400CB1AC4F83038B242D4F808083CBFC4F868
:1094740034281646D4F81028081A8A1A90428CBF49
:10948400D4F81028D4F808288A1AB2420ED2D4F894
:109494000808D4F81028081A8A1A90428CBFD4F805
:1094A4001068D4F808688E1BC4F83468002E00F0E5
:1094B40039819E42B24638BF9A464FEA132C310A8C
:1094C40003221F4628688DF804100023ADF80020FD
:1094D4008DF806308DF803708DF805608DF802C0A4
:1094E400FFF7CEFA694607237F4A2868D046FFF77C
:1094F400D5FA2868FFF76CFA0128FAD17B4BA3FB55
:109504000A3A4FEADA1A0AF1010A4FF00009D4F8CC
:1095140020C8D4F81418D4F80038D4F808282868D7
:10952400B8F1FE0F61441A4457DDFF23FFF7B6FA82
:10953400FE2F40F2DD80D4F80838D4F80428FF3335
:10954400C4F80838D4F80838934280F0F680D4F888
:109554001038FF33FF3FC4F81038FE2E40F2A680C7
:10956400D4F82038D4F81828FF33C4F82038D4F8B5
:109574002038934204D3D4F820389A1AC4F8202807
:10958400D4F82438FF3BFF3EC4F82438A8F1FF0880
:109594002868FFF71DFA0128FAD109F10109CA4523
:1095A400B5D1D4F83418D4F82868D4F83078D4F87D
:1095B4002C28D4F848382868D4F84C58761AD21B8A
:1095C40029443B44C4F82868C4F84C18C4F82C282F
:1095D400C4F84838FFF746FAE1E61FFA88F3FFF7C4
:1095E4005DFA474549D3D4F80838D4F804284344ED
:1095F400C4F80838D4F80838934280F09880D4F836
:1096040010384344A7EB0807C4F81038B0451AD8FB
:10961400D4F82038D4F818284344C4F82038D4F8AF
:109624002038934204D3D4F820389A1AC4F8202856
:10963400D4F82438A3EB0803A6EB0806C4F82438AE
:109644004FF00008A4E7002EFAD0D4F82038D4F85C
:1096540018283344C4F82038D4F82038934204D36B
:10966400D4F820389A1AC4F82028D4F824389B1B3C
:109674000026C4F82438B0468AE7002FC6D0D4F8B0
:109684000838D4F804283B44C4F80838D4F8083817
:10969400934204D3D4F808389A1AC4F80828D4F8A2
:1096A40010383B44C4F810380027AFE7002E3FF4CD
:1096B4006DAFD4F82038D4F818283344C4F82038CF
:1096C400D4F82038934204D3D4F820389A1AC4F832
:1096D4002028D4F824389E1BC4F82468002655E7B3
:1096E400D42C0020002C0020303500208180808084
:1096F400002F3FF432AFD4F80838D4F804283B44A0
:10970400C4F80838D4F80838934204D3D4F8083895
:109714009A1AC4F80828D4F810383B44C4F810380E
:1097240000271AE7002B3FF43AAE9A46C5E6D4F870
:1097340008389A1AC4F8082861E7D4F808389A1A3D
:10974400C4F8082803E700BF0B4A0223C2F8043513
:10975400D2F80034002BFBD00749C2F80805D1F831
:109764000034002BFBD00023034AC1F80435D2F89F
:109774000034002BFBD0704700E00140930732D146
:109784008B0710B409D04318FF24013189B211F0BA
:10979400030F1C7003F10103F7D1144C0123890852
:1097A400C4F80435D4F80034002BFBD059B1013986
:1097B40089B2031D03EB8101121A131850F8044BEC
:1097C4001C608842F9D1094AD2F80034002BFBD03E
:1097D40000230649C2F80435D1F80034002BFBD02D
:1097E400012010BC70470020704700BF00E001401A
:1097F40018DF704711DF704713DF704780B584B0FE
:1098040000AF07F11001022341F8103D0246002386
:109814000846C7E90133FB60FFF7EAFF0B4B4FF043
:10982400FF31C3F88010C3F88410FFF7E3FF10463C
:10983400FFF7E2FF064853680649036012680B60AD
:1098440082F3088898471037BD4680BD00E100E0E8
:109854003C3500204035002030B5044687B0002355
:10986400054654F8031B0293184601AA0193CDE957
:109874000333059301F0A8F901AB05F1170001E0EA
:10988400844208D013F8012B14F8011F9142F7D039
:10989400002007B030BD012007B030BD38B511F04D
:1098A400030509D1930705D1B1F5805F14460A4633
:1098B40003D22546284638BDFEE7A1B2FFF75EFF76
:1098C4000028F6D1F6E700BF10B50446FEF76AFE9D
:1098D4000D4B1868FFF7C4F80C4800F08DF86CB90C
:1098E40043F20C031B886D3B9BB25E2B06D8084ADF
:1098F400BDE8104052F82300FFF780BF2046BDE8C2
:109904001040FFF77BBF00BF002C00201C2C002060
:1099140060AD070030B583B04388ADF80230002550
:1099240002220C46ADF80450ADF80020042B0AD8EE
:10993400DFE803F03316110903000846FFF78CFF34
:1099440030BBADF8040041F2010206216846FFF77E
:10995400E1FB03B030BD808880B304282DD0FEE73E
:109964008B880A681A44B2F5F02F15D8002506E052
:1099740021682944FFF792FF2D1809D0A388681C99
:1099840000EB4000AB42A3EB050204EB4000EFD137
:109994000123ADF80430D6E7FEE783888BB94FF492
:1099A4008054204604F58054FFF7CEFEB4F5F02F22
:1099B400F7D10123ADF80430C5E70868FFF784FF49
:1099C400C1E7082B00D0FEE7D1E900542C44B4F5DC
:1099D400F02FB8D8AC4204D8DAE705F58055AC428C
:1099E400D6D9B5F5805FF8D32846FFF7ADFEF4E786
:1099F4005C22002101F079B930B100F15C0200234E
:109A0400037001308242FBD1704700BF2DE9F04F53
:109A14000346D0E90346D0E9050299B0CF69139211
:109A24009A680D6A179312928B6A0A6905974F6AAE
:109A3400019207950A6B08970993CF6A4B6B8D6B5C
:109A4400D1F80490D1F80C80D1F814A0D1F818B052
:109A5400D1F800C0D1F808E00A970E920F9322467D
:109A6400109586EA0007C96B11914FEAB404149269
:109A7400139916901740129A86EA0405154001F1CD
:109A8400B5413346754001F51E31DD4E15939CFA00
:109A94008CFC01F2991101EBF26186194740604692
:109AA40099FA89FC0F4435444FEAB20166460744EB
:109AB40084EA010C0696354403F1B5460CEA070C1A
:109AC40006F51E369EFA8EFE8CEA040C06F29916F2
:109AD40004F1B5444FEAB709CDF800E0764404F543
:109AE4001E3498FA88FE05EBF765724681EA090789
:109AF40004F2991403922F401444019A02904FEAFD
:109B0400B50E4F40664406EBF5663C4417BA89EA45
:109B14000E02324001F1B5414FEAB60882EA090566
:109B24009AFA8AFC01F51E31B54A049704EBF666ED
:109B340060468EEA080401F29911821839443440CF
:109B44004FEAB60A91449BFA8BFC294484EA0E043A
:109B5400DFF8ACB20B90654601EBF66188EA0A0CBB
:109B64004C444FEAB106AB440CEA010C04EBF1613E
:109B7400059C0C958CEA080CDE44DFF884B224BA08
:109B84008AEA0602E6444FEAB1090EEBF16EA344F9
:109B94000A4007990D94D844DFF864B20FBA86EAF4
:109BA400090C82EA0A05BB440CEA0E0C3846DA4476
:109BB4008CEA060745444FEABE0805EBFE6589EAD0
:109BC400080C57444FEAB50E07EBF5670899DFF820
:109BD40030B20CEA050C099D09BA2DBA8B4405F183
:109BE400B54A5E448CEA09040AF51E3A88EA0E0C6A
:109BF4000CEA070C34440AF2991A4FEAB70604EB4C
:109C0400F764D1448CEA08020A9FDFF8F4A10191B9
:109C14008EEA060C4A4402EBF4624FEAB4093FBAF6
:109C24000CEA040C0E9C0595BA44D0448CEA0E014F
:109C340024BA86EA090C0894414404F1B5480F9CFF
:109C440007974FEAB20B01EBF2610CEA020C08F53C
:109C54001E386B4A0E9024BA08F29918C6448CEA4E
:109C64000605A21889EA0B0732447544029E4FEA9E
:109C7400B10805EBF16507EA010C10998CEA0907B4
:109C8400B446009E234609BA8BEA0804174407EB3E
:109C9400F5678CEA060E02914FEAB50C04EA050A50
:109CA400119D574A069E09938EEA000E2DBA8A1812
:109CB4008EEA030E2B4605F1B5454A448AEA0B04A5
:109CC400B14605F51E35039E00980A9388EA0C0AEE
:109CD400144405F29915019A04EBF7640AEA070A99
:109CE400AB4489EA0609049D4FEAB7064FEAFE7EB3
:109CF400029FCDF818E089EA020980EA050E89EA94
:109D040007093F4D069F05988CEA06017D1901EA73
:109D14000407454487EA0C01039F8AEA08024FEAD4
:109D2400F9792944364D5A448EEA000E4FEAB40BB1
:109D34004846B8460B9F02EBF4628EEA030E86EAAD
:109D44000B0403464519079888EA070814404FEAAC
:109D5400FE7E4FEAB207CDF80CE001EBF2617440ED
:109D6400049A88EA0008654406982544039C9446AE
:109D740088EA00080C9A0B980B9304F1B5448CEA1A
:109D8400020204F51E3484460D9804F299148CEAF8
:109D9400000A34440898099E4FEAF87CCDF810C0B4
:109DA40042408AEA060A1648049E30180C9E4FEA7E
:109DB400B10E8BEA070905EBF16509EA01095A407E
:109DC40087EA0E01B4460E9E4FEAF2732940039AC5
:109DD4008CEA060C81EA0706029989EA0B098AEAE9
:109DE400020A4C448CEA010C4FEAFA790D99DFF827
:109DF40014A058444A468B460644019904E000BF27
:109E04009979825AA1EBD96E04980C929A44BA4477
:109E140002F1DD478CEA000C07F5B30704EBF568A3
:109E24004FEAFC7C07F5D7474FEAB8090E9ACDF8FC
:109E340000C04FEAB505213706EBF86607EB0E0CB8
:109E44008EEA0504009F109385EA090084EA080459
:109E540070409046059A604407F1DD4C019F88EA02
:109E640002080CF5B30C0A9A8BEA01015444BE466D
:109E74004FEAB60A079FDFF85CB50CF5D74C04EB44
:109E8400F664514089EA0A06069A0CF1210C6544ED
:109E94008EEA070E86EA040C0C9F089E88EA0208E4
:109EA400AC44059D88EA070800EBF4670B986E4004
:109EB400009D59408EEA000E4FEAF1734FEAF8789C
:109EC4008EEA050E079D0D9341469B440691CB44B3
:109ED40001F1DD492946099D4D4003994FEAB40437
:109EE4004FEAFE7E4E400499CDF804E08AEA04006D
:109EF4004FEAB70878404D4001990CEBF76C584491
:109F040084EA08074FEABC0E00EBFC6087EA0C0702
:109F14005E4001F1DD4C09F5B3090699DFF8B4B4EC
:109F24004FEAF67609F5D7494D4009F12109314642
:109F34000CF5B30C089E0E91D1440CF5D74C88EA6D
:109F44000E0A4F440CF1210CB1464FEAF575029EFE
:109F54002B466444109D8AEA000A89EA0606A24454
:109F6400019C6E406640099CA4460A9C0F938B4456
:109F74000C998CEA04044FEAF67607EBF06707962F
:109F84004FEAB000029E4C400E998EEA0009D84474
:109F9400DFF840B40AEBF76A4FEAB7054C4089EAA8
:109FA40007070099B14689EA02069B4480EA050C3A
:109FB400DE4486EA010B4FEAF4760A9C0799089678
:109FC4004FEABA098CEA0A0C474407EBFA67E644FD
:109FD400A24685EA090C0B9CDFF8F8838BEA03069A
:109FE4008CEA070C0EEBF76B0D9B4FEAB70705974E
:109FF40088444FEAF6778AEA040402974044089FAB
:10A00400DFF8D0835C404C40059B04994FEABB0ABF
:10A01400B84460444FEAF4749446039A029F89EA70
:10A02400030E454483EA0A082346069C09938CEAF6
:10A03400020666400B9C8EEA0B0E07F1DD4C089F6E
:10A0440000EBFB607544A34605EBF0658BEA010465
:10A0540088EA00084FEAB00B7E4003F1DD40019F1F
:10A06400109B4FEAF67600F5B30003969646029EDF
:10A07400059A00F5D7407C402130744002440CF529
:10A08400B30C4FEAF47017460CF5D74C039AD14E33
:10A0940004900CF1210C0E98E14496198AEA0B0CF9
:10A0A400099A8EEA030E8CEA050C8EEA000EB2447D
:10A0B40067448EEA020E8C46C64E0C99049AC84434
:10A0C40096190F9A08EBF5688CEA01004FEAB5057A
:10A0D4008BEA05095040B344009A039E07EBF867E6
:10A0E4004FEAB8044FEAFE7E89EA0808CDF814E086
:10A0F40085EA040C5340D0447040079E4FEAB70EE3
:10A1040008EBF7681A468CEA070C4FEAF070059FD3
:10A114007240064604980A9607F1DD47424007F567
:10A12400B3074FEAF2708A4607F5D7470D990346FD
:10A13400213708980B938AEA010A3D443146059F6A
:10A14400A44E8AEA000A8E19069800998AEA070A38
:10A15400A04F84EA0E09DC440CEBF86C89EA080988
:10A16400DF194FEAB808484002990D9B8EEA080BA4
:10A174004D44BE440A9F05EBFC654FEABC023444DF
:10A184008BEA0C0C4840019988EA020978404FEAAE
:10A19400FA7AA4445646099F8E4C0C964FEAB50AA7
:10A1A4000CEBF56C4B4089EA05094FEAF07528463B
:10A1B40019460B9D0D90794034196940F144A0442F
:10A1C4004FEAF17409EBFC692746044681480E996D
:10A1D4004FEAB9031093201882EA0A06069C7D4BC5
:10A1E40006970244109886EA0C064FEABC0C84EAEF
:10A1F40001058CEA00040398FB184540019F0F9861
:10A20400B04487EA00060C9F08EBF9688AEA0C0E52
:10A2140084EA08047D405344049F23448EEA0909D8
:10A224000D9C91447E404FEAF5726B4D0E9209EB02
:10A23400F869664003EBF96A55194FEAF673079A11
:10A24400009381EA02060CEB0501009D109C4FEA85
:10A25400B80849EA080305F10F4E4FEAB900234054
:10A2640009EA08090F9C059D0EF5DD1E43EA09095C
:10A274000EF5E65E109BA4460EF11C0E089C73447A
:10A284004AEA00076E408CEA040501EBFA6C1946B1
:10A29400069B07EA080B0AEA00075E404BEA070739
:10A2A4000A9BDFF834B10F444FEAF6710E460E995B
:10A2B40007965D40484B4D404FEAF571F318029EF6
:10A2C4000191CC444FEABA0A5640019A4CEA0A0179
:10A2D40007EBFC674FEABC0E014093440CEA0A0CFE
:10A2E4000B9A47EA0E0541EA0C0C00999844564033
:10A2F40005EA0A03099A07EA0E051D434E40A146E2
:10A304000C99584489EA02042844079D324A4C4077
:10A314006C404FEAF47425460299039C0F954FEA6A
:10A32400F67381EA04060D9C08939A1808EBF76803
:10A3340092446640049A099CE04400EBF8604FEABA
:10A34400B80B29465440244D019A4FEAB70740EA16
:10A354000B0948EA07034D19564009EA070100EAC8
:10A364000B0903EA0E0341EA090908EA07080699FA
:10A374004FEAF67643EA08083346089E09934C40B0
:10A3840074404FEAF47602961E46134B039CF3186E
:10A39400059E6640029CAE4409EB0E0504F10F4E87
:10A3A4000E9C0AEBF06AC2444FEAB0006640049C7B
:10A3B4004AEA000205EBFA654FEABA0C02EA0B021C
:10A3C400A0461F440A9C0F9B0AEA000A0EF5DD1EF4
:10A3D40004E000BFA1EBD96EDCBC1B8F45EA0C0185
:10A3E40042EA0A0A0EF5E65E009A01EA00095E40B6
:10A3F40005EA0C01099B0EF11C0E88EA040449EAE3
:10A404000101F344544001EB0B0E5C400599CE4B23
:10A4140007EBF56757444FEAB50A4FEAF475CA4C9F
:10A4240011954FEAF6720E460B9910922C19079D5E
:10A43400D31847EA0A0886EA010208EA0C08184415
:10A44400A4440C9B029C6A400A9D0EEBF76E4FEAF3
:10A45400B70907EA0A0785EA030600EBFE60019DD7
:10A46400624048EA070707444FEAF2706E40054627
:10A4740010980A954EEA090B46400BEA0A0B0EEABD
:10A4840009014FEAF67002464BEA01012846AE4D37
:10A4940001EB0C040B990B924FEABE0E45190D9873
:10A4A40004EBF7644FEAB70807EA0E0347EA0E0C19
:10A4B4000E46089F4640A4487E400C9F44EA080B81
:10A4C4001018069A0CEA090C0BEA0E0B04EA0801B0
:10A4D4005544BA464BEA01018AEA020A81444CEA2D
:10A4E40003020F9B119F01EB09000A9905EBF46528
:10A4F4008AEA030A2A448AEA010A4FEAFA7C0E9994
:10A50400CDF80CC07E4000EBF2670D988E4B4FEAFD
:10A51400B40580EA010403988B49411809984FEA6D
:10A52400F676444006980C96F31842EA05097344FB
:10A53400864600984FEAB20B09EA08092A408EEAD7
:10A54400000603EBF76E49EA02030B9A5440029AA1
:10A5540088444FEAF4710C9C0D91564066404FEAD2
:10A56400F6742246784C47EA0B0A4FEAB7000AEA27
:10A57400050A07EA0B0C0C19079F0E990E924AEA7A
:10A584000C0CE04481EA070C10992C446E4D734482
:10A594008CEA010C009943EA0006551906EA0B06F9
:10A5A4008A46AB440199039D08EBF3684FEAB3096B
:10A5B40003408AEA01078CEA050C04EBF861119D5B
:10A5C40046EA03040C4448EA090E0D990EEA000E0B
:10A5D40008EA09026F404EEA02024F4002EB0B0503
:10A5E4004FEAF773089A079F00934FEAFC7C7A407E
:10A5F400554F6646F7190744009807968446524813
:10A604000A9E604404900E9872404FEAB80142409A
:10A61400019844EA01034FEAB40A05EBF465844661
:10A624000C400F9803EA090323434FEAF2742246CD
:10A6340045EA0A088CEA000B07EBF56704980B9CC3
:10A644003B4408EA0108079F05EA0A0648EA0606A9
:10A654008BEA040BDFF8F080099C8BEA070B81443A
:10A66400089F0892B14490440C9E0F9A7C40884401
:10A6740000997440029E4FEAFB7E4C400399CDF84A
:10A6840004E072404FEAF47404944FEAB505089C60
:10A694004A40019943EA050C09EBF36062400CEA75
:10A6A4000A09099C8C4628494FEAB3072B4040EA23
:10A6B400070608EBF068A6466144109C49EA030CBF
:10A6C40000EA07094FEAB00009904FEAF2700D9AC8
:10A6D4001E4B05908EEA040404985440099A0CEB2E
:10A6E400080E00EB0308019887EA020C029A2E4038
:10A6F400444046EA0906059891465144119A4FEAA6
:10A70400F474029431440E9C4FEABE0601EBFE61E0
:10A7140092468CEA0E0C89EA020286460998624047
:10A72400109C80EA060B04984544A0460A9C4240CB
:10A73400079865449E4488EA0404BE448BEA010BEE
:10A744004FEAB107444003E0DCBC1B8FD6C162CAA8
:10A7540005EBF1610598029DF3444440AC464FEA91
:10A76400F27286EA07050BEBF16806924FEAB1092B
:10A774000B9A099869404FEAF4750995009D0A9C63
:10A784008AEA02029C446A40069D604401EB000C84
:10A79400AE460C98029D9E4482EA050184EA0002BA
:10A7A400099C0CEBF8604FEAB80A0EEB060C4FEA72
:10A7B400F1760A96E518089E0B9989EA0A0487EA55
:10A7C400090B44402F44069D8BEA080B8E467240C9
:10A7D40003993C440A9F6A40DC44019D0CEBF06CF5
:10A7E4008EEA01064FEAB001F818099F6E407E40D8
:10A7F4000C9FBE460D9F814404984FEAF67B8AEA7B
:10A8040001050A9E8EEA070704EBFC6485EA0C0541
:10A8140047404FEABC0C81EA0C0E77404D444FEAA6
:10A82400F27805EBF4654FEAB409039A0E9E8EEABA
:10A83400040E4FEAF7740394059C0D9F7240624026
:10A84400079C7C40029F08EB03000BEB0306824449
:10A854000E448CEA09007C40039F0E9968401F4413
:10A8640030440E460099BC4482EA0802069F4FEA2F
:10A87400F2724E400C927E40D718039AD6444FEAA7
:10A88400B50A0EEBF56E564089EA0A05079A85EA81
:10A894000E0565444FEAF6769446089A0796B9443D
:10A8A400099E009F8CEA020C84EA0B048CEA060CD5
:10A8B4003E46019F4FEAF4740B9477400C9E0B9A2A
:10A8C40000EBFE614FEABE0E4FEAB1048AEA0E00C5
:10A8D4008CEA060C0A9E05EBF1651A4448408EEAA0
:10A8E40004015244694077400B9E1144089A774012
:10A8F400484416464FEAF777049A00974FEAB50A98
:10A90400019F00EBF560079D7240A94682EA0802A8
:10A91400B846059F994484EA0A0501EBF066CE44E3
:10A9240088EA07084540079FCDF804804FEAB00045
:10A934008AEA0001754405EBF6654FEAB60E7A40E3
:10A944007140009F019E4FEAFC7C0CEB030907EB6E
:10A95400030886EA0B06049F4FEAF27B029AA1449D
:10A9640080EA0E046C407A40D044039FA044009CCB
:10A974007A4062404FEAF27449444FEAB50A01EB67
:10A98400F56186EA0C060094059C069D0C9F4FEA2F
:10A99400F67684EA0502F4188EEA0A0CA644009CB2
:10A9A4000BEB0309484404EB0309029C08EBF16830
:10A9B4008CEA010C7A404FEAB1014FEAB8058444AD
:10A9C40082EA0B028AEA0100A346099C0B9F0CEB66
:10A9D400F86C80EA080881EA05008BEA0404CA449A
:10A9E40080EA0C0906984FEABC0BF0447C4008EB63
:10A9F400FC6C03EBF27285EA0B088646CA440A989B
:10AA0400079F6640129C0AEBFC6A114488EA0C0218
:10AA14004FEABC0C8BEA0C098EEA000E03EBF676C7
:10AA2400E0181144009B149C159A4FEABA0801EBF4
:10AA3400FA618EEA070E2E4489EA0A0A8EEA030EA8
:10AA4400564406EBF16600EBFE7E8CEA0800A3197F
:10AA5400F3444840139C179D02EBB101169AEB6036
:10AA64005844424400EBF66064442961A8606A617A
:10AA7400AC6119B0BDE8F08F2DE9F04106460068DD
:10AA8400831817460C46336000F03F0002D3736806
:10AA94000133736098B1C0F14005BD4202D917BBC0
:10AAA400BDE8F08106F11C08214640442A4600F026
:10AAB400F3F8414630467F1B2C44FEF7A7FF3F2F97
:10AAC40019D9A7F1400525F03F0540352544214615
:10AAD40030464034FEF79AFFAC42F8D107F03F0706
:10AAE4000020002FDCD01C3630443A462146BDE815
:10AAF400F04100F0D1B80020D1E700BF30B50D46D9
:10AB0400D0E90021530F83B043EAC1030446180E71
:10AB1400D1008DF8033002F03F028DF80000180CCC
:10AB24001B0A372A8DF801008DF802304FEA1160B4
:10AB34004FEA11438DF807104FEA112194BFC2F177
:10AB44003802C2F178028DF804008DF80610204610
:10AB54001C498DF80530FFF78FFF0822694620460F
:10AB6400FFF78AFFE37A2B7063896B70A3681B0A73
:10AB7400AB70A368EB70E37B2B71E3896B71E368C3
:10AB84001B0AAB71E368EB71E37C2B72638A6B7213
:10AB940023691B0AAB722369EB72E37D2B73E38A8F
:10ABA4006B7363691B0AAB736369EB73E37E2B748A
:10ABB400638B6B74A3691B0AAB74A369EB7403B056
:10ABC40030BD00BFDCAE0700F0B599B006460C46B8
:10ABD400154600215C2201A800F087F800230F48E5
:10ABE4000F49104A104F0397CDE901330F4BCDE9BC
:10ABF4000401CDE9062324B12246314601A8FFF71A
:10AC04003BFF294601A8FFF779FF01AB00221A7028
:10AC140018A901338B42FAD119B0F0BD89ABCDEF3D
:10AC2400FEDCBA987654321001234567F0E1D2C3B2
:10AC340000B585B000230390194601AA44F201002F
:10AC4400ADF804300293FDF73DFF05B05DF804FB59
:10AC54004901002810B4C9B2C3B214DB00F1604248
:10AC640002F5614282F800134009800000F160405F
:10AC740000F5614003F01F0201239340C0F88031C6
:10AC840010BC03607047034A03F00F04224411769A
:10AC9400EAE700BFFCEC00E0844640EA010313F05D
:10ACA400030F18D18446202A0BD32DE9F007B1E80D
:10ACB400F807A0E8F807A2F12002202AF7D2BDE89D
:10ACC400F007042A07D351F8043B40F8043BA2F1EF
:10ACD4000402042AF7D2002A05D011F8013B00F837
:10ACE400013B013AF9D1604670478446002A2DD0D1
:10ACF40010F0030F04D000F8011B013A26D0F7E747
:10AD0400C9B241EA012141EA0141202A12D3A2F148
:10AD140020022DE9F0030B460C460D460E460F4665
:10AD240088468946A0E8FA03203AFBD2BDE8F0033E
:10AD340020320BD0042A05D340F8041B043A05D072
:10AD4400042AF9D200F8011B013AFBD1604670478E
:10AD540000300040030000006661740000F0010050
:10AD640000000000000000000000000000000000DF
:10AD740000000000000000000000000000000000CF
:10AD840000000000000000000000000000000000BF
:10AD940000000000000000000000000000000000AF
:10ADA400000000000000000000000000000000009F
:10ADB400000000000000000000000000000000008F
:10ADC400000000000000000000C0010000000000BE
:10ADD400000000000000000000000000000000006F
:10ADE40000000000000000000000000000F001006E
:10ADF40000F001000000000000000000000000005E
:10AE0400000000000000000000F0010000F001005C
:10AE140000000000000000000000000000300200FC
:10AE240000F0010000F0010000000000000000003C
:10AE340000000000000000000000000000300200DC
:10AE4400000000000090010000600200000000000B
:10AE540000000000000000000000000000000000EE
:10AE640000000000006002000090010000000000EB
:10AE740000000000000000000000000000000000CE
:10AE8400000000000060020000000000000000005C
:10AE940000000000000000000000000000000000AE
:10AEA400000000000000000000000000000000009E
:10AEB400006002000000000000000000000000002C
:10AEC400000000000000000000000000000000007E
:10AED400000000000060020080000000000000008C
:10AEE400000000000000000000000000000000005E
:10AEF400000000000000000000000000000000004E
:10AF0400000000000000000000000000000000003D
:08AF1400000000000000000035
:10AF1C0054AD0700082C0020FFFFFFFF07FF0000C7
:08AF2C000000004000000000DD
:040000037000829176
:00000001FF
