:020000022000DC
:1060000000000120756302005D6302005F6302000F
:106010006163020063630200656302000000000028
:1060200000000000000000000000000067630200A4
:1060300069630200000000006B6302006D630200F0
:10604000059702006F630200259902006F6302004A
:106050006F6302006F630200A19702006F6302008A
:106060006F6302006F6302006F6302006F630200E0
:106070006F6302006F6302006F6302006F630200D0
:106080006F630200517202006F6302006F630200CF
:10609000ED7202006F630200EDF302006F63020015
:1060A0006F6302006F6302006F6302006F630200A0
:1060B0006F6302006F630200000000000000000038
:1060C0006F6302006F6302006F6302006F63020080
:1060D0006F6302006F6302006F6302000000000044
:1060E00000000000000000000000000000000000B0
:1060F00000000000000000000000000000000000A0
:10610000000000000000000000000000000000008F
:10611000000000000000000000000000000000007F
:10612000000000000000000000000000000000006F
:10613000000000000000000000000000000000005F
:10614000000000000000000000000000000000004F
:10615000000000000000000000000000000000003F
:10616000000000000000000000000000000000002F
:10617000000000000000000000000000000000001F
:10618000000000000000000000000000000000000F
:1061900000000000000000000000000000000000FF
:1061A00000000000000000000000000000000000EF
:1061B00000000000000000000000000000000000DF
:1061C00000000000000000000000000000000000CF
:1061D00000000000000000000000000000000000BF
:1061E00000000000000000000000000000000000AF
:1061F000000000000000000000000000000000009F
:10620000354936480A1A02D0072291438D4634494F
:1062100034480A1A06D00722914381F309880222E2
:1062200082F3148830483149314A00F044F831484B
:106230003149324A00F03FF831483249324A00F0E1
:106240003AF832483249334A00F035F83248334997
:10625000334A00F030F833483349344A00F02BF821
:1062600033483449344A00F026F83448344900228F
:1062700000F02CF833483449002200F027F8334866
:106280003349091A082902DB002202604160314AC1
:1062900090471F481F49884205D00268043003B464
:1062A000904703BCF7E700208646EC46002000211B
:1062B000294A9047FEE7884207D0521A05D0037852
:1062C00001300B700131013AF9D17047884202D098
:1062D00002700130FAE770470000012000E0002062
:1062E0000000012000000120A02103003C2200202A
:1062F00090220020D0630200D063020098F90200CF
:10630000A02103003C2200203C2200201CFB0200B4
:106310001CFB02001CFB02001CFB02001CFB020019
:106320001CFB02001CFB02001CFB0200A02103005E
:10633000F4210300902200209022002090220020CF
:1063400084330020843300208433002084330020F1
:10635000845300209D63020009A80200FEE7FEE7C7
:10636000FEE7FEE7FEE7FEE7FEE7FEE7FEE7FEE705
:10637000704700BF1048804710484FF0070188431E
:1063800085460D4880470E48016841F47001016060
:10639000BFF34F8FBFF36F8FFFF732BF09480A4932
:1063A0000A4A884207D0521A05D0037801300B7090
:1063B0000131013AF9D17047996E020000000120C5
:1063C00088ED00E008FB0200282200203C2200208B
:1063D000F0B595B01C46164608460D4602F042FF41
:1063E0001A9B0D93CDE9086400242346082205A9D1
:1063F00028460A948DF82C400C9402F050FF079B1D
:106400000293069B03939DF814308DF8114003F01E
:106410000302012A1DD1BDF81440059EC3F3C20337
:10642000C4F383148DF81030A20008230EA9284667
:1064300002F035FFC6F3952608AB0093224602AB67
:106440000EA9304600F0F0FB284602F00FFF15B011
:10645000F0BD022AF8D1BDF81640C3F3C203A40967
:106460008DF810300827082C264628BF08263B4602
:1064700032460EA9284602F012FFA41B08AB02AA5E
:1064800031460EA8374400F033FC002CEBD1DBE79B
:10649000014B01221A707047D12200207047000082
:1064A00070B50E4D06460FCD88B06C460FC495E80A
:1064B0000F00002E84E80F004FF00603084A094839
:1064C000009308BF0022694603F0B4F808B100F059
:1064D00011FE054B1E7008B070BD00BF1CFB020012
:1064E000916402003C2200209022002007B5044B5A
:1064F0000093044A4023FFF76BFF03B05DF804FBF1
:10650000096502009122002038B50D4B0D4D002089
:1065100018700D4804782D5DD2B21C4665B1043068
:1065200003F02AFE08B100F0E5FD084B1A7812B11D
:106530002378002BFBD038BD0C3003F021FCF1E7B1
:10654000D1220020B82B00203C22002090220020E5
:1065500008B50848084A0378D35C3BB1043003F01F
:10656000A7FD0020BDE80840FFF79ABF0C3003F0FC
:10657000A3FBF6E73C220020B82B00200120FFF708
:106580008FBF000008B5FFF7F9FF0421034800F0B2
:10659000B9FA034B01225A7108BD00BFE4FA0200A8
:1065A00050220020037813F0040216D003F00303F6
:1065B000012B03D0022B09D0012070470A68008804
:1065C0000232C0F3831002440A60F5E70B68428888
:1065D000023303EB92130B60EEE7104670470000A6
:1065E0002DE9F04F87B000230446851C0DF107000C
:1065F0000F4690468DF8073001F06AF84548066866
:106600003E60D0E90132134401339B1B824600F205
:106610001C4600F5836900F21447AB421BD30022ED
:10662000B8F1000F70D0052363F3070264F38912F9
:10663000DAF80010DAF808309DF807000B40033351
:106640000D444AF82320CAF8005001F065F80120F3
:1066500007B0BDE8F08F0121304602F084F84846CB
:1066600002F09AF8384602F097F8DAF80400DAF8FF
:1066700008B0029000EA0B0003300AEB800002A988
:10668000FFF790FF029B50BB0BEA03020AEB82026A
:1066900003F1020CD2680392013303EA0B0B0AEBFD
:1066A0008B0B02F00302012ACDF808C0DBF80C10B6
:1066B00022D0022A16D08346384602F070F810B174
:1066C000029BCAF804305946304602F04CF8DAE929
:1066D00001231344DAF8002001339B1A9DE70BEAEB
:1066E0000300C9E7BDF80E309B0903334FEA114B95
:1066F0000CEB93030293DFE7BDF80C30C3F3831375
:106700004FEA114B6344F5E7062363F3070264F392
:106710009F528DE7A42300200B4B0C48FF2210B59D
:106720009A600022C3F81824C3E90022C3F8142495
:1067300083F8202402F04FFD044610B9044802F00B
:1067400071FE204610BD00BFA4230020F4FA020011
:106750005CFB020030B50A4C71B10A4A0A49121BAF
:10676000D20800239A4201D1002030BD31F82350D5
:10677000854202D00133F5E7034654F83300F4E7CD
:1067800004FA0200B4FA020028220020094B013961
:1067900003EBC000032909D8DFE801F00A02040670
:1067A0000420704700797047407970470020704797
:1067B0000220704704FA0200034BD3E90030C31AE9
:1067C00058425841704700BFA42300202DE9F043F0
:1067D00087B0FFF7F1FF0646002840F0FB807E4DB2
:1067E000C5F81804BFF34F8F6868AC68029020406A
:1067F000033005EB800002A9FFF7D4FE029B18B11D
:10680000D5F81824002A5FD004EA0302991C01334A
:1068100005EB8202234005EB8303D268DB68049317
:1068200002F00303022B0392029162D1BDF80E30F5
:106830006A484FEA9318B8F1500FC14628BF4FF08D
:10684000500969F38F1309F10801ADF80E3002F019
:10685000DAFC0746002800F0A88002F003FD03A937
:1068600000230822384602F010FD029924EA0106AE
:106870000136B600B14535D95FFA89F97EB3F6B273
:10688000A9EB0609214003315FFA89F4B146544E61
:1068900005EB810108234A46384602F0F6FC36B182
:1068A00009F1080322463146384602F0EEFC029B0D
:1068B00008F1030803EB98030293D5F81834002B72
:1068C0004BD1D5F810445BE02A689A4204D86A603C
:1068D000304607B0BDE8F08304EA030088E740498A
:1068E0003446D7E72140033108234A4605EB8101AE
:1068F000DAE7012B59D1BDF80C303848C3F38311C6
:10690000062928BF062161F3891302318900ADF8F9
:106910000C3002F078FC0746002846D002F0A2FCBA
:106920000023082203A9384602F0AFFC0026BDF878
:106930000C20C2F38312B300964203F10803BCD2C9
:1069400002994A1C21400331029205EB8101042285
:10695000384602F09AFC0136E9E7384602F086FC38
:10696000FFF72AFF80F00100C6B2B1E7E3685B7968
:1069700023B1236839461B6820469847E3681C68A2
:10698000002CF3D1384602F071FC0DF107008DF8B0
:10699000074000F09DFED5F818340BB9029B6B60E0
:1069A0009DF8070000F0B8FEDAE7D5F8104454B9B6
:1069B0000C4B0D480D49C01AC008000440F00200FD
:1069C00000F06EF8CCE7236820469B689847E368A0
:1069D0001C68ECE700267BE7A4230020F4FA020001
:1069E000B023002004FA02002CFA020068FB020027
:1069F0002DE9F74F284C80460F46924601A9012207
:106A000018469B46D4F80890FFF7EAFD80B3019D35
:106A10000026A91C5E4506EB010233D100211F4868
:106A200001F060FE80F310006A1C02EA090204EB28
:106A30008202000405EA0903033340EA1840D060EB
:106A400014F8232068F3C50204F8232034F8232027
:106A500066F3891224F8232054F8232067F39F2239
:106A600044F8232002F0F80242F0010204F8232047
:106A700094F820341BB1FFF7A9FE0028FBD103B026
:106A8000BDE8F08F09EA020204EB82025AF82630D0
:106A9000D3600136BEE700BFA4230020C02700203A
:106AA00000231A46FFF7A4BF07B50123019201AAEC
:106AB000FFF79EFF03B05DF804FB07B5CDE90023A7
:106AC00002236A46FFF794FF03B05DF804FB1FB58D
:106AD000CDE90123069B039301AA0323FFF788FF57
:106AE00005B05DF804FB1FB5CDE90023069B0293BA
:106AF000079B03936A460423FFF77AFF05B05DF80E
:106B000004FB000030B50F49D1F8102400231446CF
:106B10003CB9C468237152B9C1F810042260184608
:106B200030BDE46825799D4206D02468F0E7D2683C
:106B3000116821601060F2E701330A2BE7D14FF0B2
:106B4000FF33ECE7A4230020094A38B50123D2F82B
:106B5000104482F820341D4604B938BDE3685D71E5
:106B6000236820465B689847E3681C68F4E700BF29
:106B7000A4230020037A052B10B50C460FD0437ACE
:106B800023B1084A0849204601F06CFE0749204617
:106B900001F068FE2046BDE8104001F058BE002A12
:106BA000F8D0F3E7B3FB02006F140300D5FB02003B
:106BB000C38873B504460D4633B1144A0092144994
:106BC000144A284601F04EFE217A05291CD0637A2A
:106BD0004BB1A088FFF7DAFD0F4B104953F8202086
:106BE000284601F03FFE227A0D4BA08853F8226020
:106BF0000021FFF7AFFD0B4903463246284602B09D
:106C0000BDE8704001F02EBE02B070BDB3FB0200C3
:106C1000C0FB0200B8FB020080FB02006F140300FF
:106C2000E4FB0200D8FB02002DE9F04385B01F46CB
:106C30000C9D002306460C46904695F80C902B734D
:106C400029463846FFF7B4FFB8F1060F09D8DFE848
:106C500008F00412181F283340003146284601F07E
:106C600001FE002229463846FFF784FF85F80C9084
:106C700005B0BDE8F08322683146284601F0F2FDF8
:106C8000EFE7D4E900233146284601F0EBFDE8E7C1
:106C9000A36800933146D4E90023284601F0E2FDC1
:106CA000DFE7E3680193A36800933146D4E900234A
:106CB000284601F0D7FDD4E723690293E3680193E6
:106CC000A36800933146D4E90023284601F0CAFDA9
:106CD000C7E76369039323690293E3680193A36899
:106CE00000933146D4E90023284601F0BBFDB8E704
:106CF00008292DE9F84F80460E4617461C463AD81B
:106D0000002593F80C901D7319461046FFF750FFAD
:106D1000DFF884A0DFF884B0AE422ED918F8052041
:106D20005946204601F09EFD0135082DF4D1184941
:106D3000DFF86CB0204601F095FD4FF0000A564593
:106D400020D918F80A507E2D03D8284608F058FD9F
:106D500000B92E252A465946204601F083FD0AF146
:106D6000010ABAF1080FEAD1012221463846FFF79D
:106D700001FF84F80C90BDE8F88F5146204601F0E1
:106D800071FDD1E70349204601F06CFDE7E700BF44
:106D9000AEFB0200ACFB0200AAFB0200A4FB020057
:106DA000B0FB02004FF0A043D3F804056FEA506037
:106DB00000F0010070474FF0A0434FF00072C3F89D
:106DC0000C2570474FF0A0434FF00072C3F8082520
:106DD00070474FF0A0434FF00072C3F8082570478A
:106DE0004FF0A0434FF00072C3F80C2570474FF0EE
:106DF000A042D2F80435D94301F0007103F00073CA
:106E0000C2F80815C2F80C357047C30708D54FF013
:106E1000A0430322C3F864274FF00072C3F808258B
:106E2000704700000C4B1B78062B10D10B4B1B68D6
:106E30001A070CD10A4B186800F0F003302B08D069
:106E400000F0E000A0F14003584258417047002094
:106E500070470120704700BFE00F00F0E40F00F022
:106E6000E80F00F0094B1B78062B0CD1084B1B6870
:106E70001A0708D1074B186800F0F000A0F13003A2
:106E80005842584170470020704700BFE00F00F0A3
:106E9000E40F00F0E80F00F008B5FFF7C3FF28B1DA
:106EA0007D4B7E4A1B68C3F304231360FFF7DAFFB0
:106EB00010B17B4B7B4A1A60FFF7B4FF28B17A4BC5
:106EC0007A4A1B68C3F342331360FFF7CBFF20B14C
:106ED000774AD36823F08073D360FFF7A3FF40B1F4
:106EE0004FF080430022C3F80C21C3F81021C3F8EF
:106EF0003825FFF7B7FF10B16E4B03221A60FFF77A
:106F0000B1FF40B16C4B05221A6001229A67002242
:106F10009A603F225A60694B1B78062B50D1684B10
:106F20001B6819074CD1674B1B6803F0F003502B0B
:106F300046D14FF08052644BD2F80414C3F82015A8
:106F4000D2F80814C3F82415D2F80C14C3F8281585
:106F5000D2F81014C3F82C15D2F81414C3F8301555
:106F6000D2F81814C3F83415D2F81C14C3F840151D
:106F7000D2F82014C3F84415D2F82414C3F84815E5
:106F8000D2F82814C3F84C15D2F82C14C3F85015B5
:106F9000D2F83014C3F85415D2F83414C3F860157D
:106FA000D2F83814C3F86415D2F83C14C3F8681545
:106FB000D2F84014C3F86C15D2F84424C3F87025F5
:106FC000FFF730FF28B1414B414A1B6803F04F03E4
:106FD0001360FFF727FF48B14FF08043D3F8002438
:106FE000D20744BF6FF00102C3F80024394B1B687D
:106FF000062B08D1384B1B68062B01BF374A136894
:1070000043F480631360364AD2F8883043F4700347
:10701000C2F88830BFF34F8FBFF36F8F4FF010234C
:10702000D3F80022002A03DBD3F80432002B2FDA36
:107030002C4B0122C3F80425D3F80024002AFBD0EE
:107040004FF010221521C2F80012D3F80024002AB4
:10705000FBD04FF010231522C3F80422214B1A460F
:10706000D3F800140029FBD00021C3F80415D2F88E
:107070000034002BFBD0BFF34F8F19491A4BCA685D
:1070800002F4E0621343CB60BFF34F8F00BFFDE714
:10709000164B174A1A6008BD240300104035014002
:1070A00074C007400DF0ADBA440200103C0500402A
:1070B000F0ED00E0A005004010560040E00F00F0A9
:1070C000E40F00F0E80F00F000C00040580200108C
:1070D000E40E004030010010340100103C17004065
:1070E00000ED00E000E001400400FA055822002015
:1070F0000090D0031FB50021039001AA44F20100C3
:10710000CDE9011100F004F805B05DF804FB0000C2
:1071100010B572B6FFF718FDFFF758FB0028FBD13A
:10712000104B114C1149E41AE408240444F0010006
:10713000FFF7B6FC0E4B1B68DB0700D500BE0D4900
:1071400044F00200FFF7ACFCBFF34F8F0A490B4B32
:10715000CA6802F4E0621343CB60BFF34F8F00BFF5
:10716000FDE700BF04FA02002CFA020043FC020013
:10717000F0ED00E04FFC020000ED00E00400FA0535
:10718000094A537891780133DBB2994208BF002352
:10719000117899421FBF03705078182303FB002019
:1071A00014BF0430002070476028002073B50546E6
:1071B00000240DF107000E468DF8074000F088FA14
:1071C0000DF10600FFF7DCFF90B10670094B9DF84A
:1071D000062045605A709DF8070000F09DFA24B91A
:1071E000054B4FF48012C3F80021204602B070BD59
:1071F0000424F0E76028002000E100E0024B4FF497
:107200003C6043F00103184760FC020038B50C4BAA
:107210000C4C4FF40032C3F8802001254FF480332A
:10722000C4F84833C4F808336560FFF7E7FF064B3E
:10723000A56000241C60FFF7E1FF044B1C7038BD03
:1072400000E100E0001001407C2900206D290020B1
:10725000F8B51F4B1F491B680025C1F84051C1F804
:107260004451C1F84851C1F84C51C1F80051C1F81E
:1072700004514BB3D1F8044517490968641A24F046
:107280007F442F461A68A24209D8A41A15441A7CD2
:10729000DE691AB11F74D3E905209047AEB90F4AD1
:1072A0000F4B11781B788B4205D10133DBB2022BD7
:1072B00008BF0023137012780A4B43F822500A4B80
:1072C0004FF48012C3F80021F8BD3346DAE700BF5F
:1072D00080290020001001407C290020792900200D
:1072E000782900207029002000E100E02DE9F04F0E
:1072F000A04AA14913780978A04D994285B03CD0A5
:107300000133DBB2022B08BF002313709C491278B3
:107310009C4B0F6853F822003B1823F07F43002258
:107320000B602B6816461446944613B942B12B6085
:1073300006E0196881420ED902B12B60091A196062
:107340004FF001082B68DFF844A201930027BEB973
:10735000DFF840B266E0401A0C44D968C3F800C0B8
:10736000D3F81CE031B13A1922F07F42C3E9012180
:10737000DE611E4601227346D7E70026B046E1E7EC
:107380003446F6697E4A63681268DFF80CC2A0686A
:10739000991A21F07F41614500F2A58001442160E6
:1073A000012222742A680023C4E90133E361002A20
:1073B00040F0A2802C60CAE75A1C9BF80210D2B29F
:1073C00091428BF8002004BF00228BF80020182285
:1073D00002FB03B31A799C68022A1CD0032A12D03C
:1073E000012A1FD1207CE8B9D3E90312A2605A69AF
:1073F000E2609A69644BA2611B78002B0CBF0B46BC
:1074000003466360BEE700222B681146002B66D15D
:1074100042B12B6006E029680A468946002A59D104
:10742000002323749BF800309BF801209A42C3D1BB
:107430002B682FB9019A9A4202D1B8F1000F43D0BC
:10744000002B73D0D3F800A0504D4D4BD5F80475E8
:107450001C68DFF848813E1B98F8003026F07F4614
:1074600003369BB94FF48033C5F84433C5F8043371
:10747000474B4FF400324FF00109C3F880211A60E6
:10748000C5F80090FFF7BAFE88F80090B2452CBF0F
:107490005444A41924F07F44C5F84045D5F8043578
:1074A000DB1B23F07F43E41B033324F07F44A34220
:1074B0000AD9D5F80435C5F84035FFF79FFE344B9F
:1074C0004FF40032C3F800212F4B00221A7005B090
:1074D000BDE8F08F94422CD09146D2699EE7197492
:1074E0000122DB6992E7D31A23F07F43834234BF42
:1074F000C31A0023236053E721681368994213D805
:10750000591A1160E26155E7091AD8691A4638B16B
:10751000034618688842F7D3401A18601846134685
:107520002160E061DC6112E71346F2E7FFF76EFECF
:10753000CAE74C4511D1CB692B6073B9DFF840E045
:107540000120CDE90212CAF80800CEF800300E4B37
:107550001870FFF753FEDDE902121368D269C9F80B
:107560001C2012B11068034413602B68994218BFA5
:10757000012755E77829002079290020802900205B
:107580007C290020702900206C2900200010014077
:1075900000E100E060280020FEFF7F006D29002050
:1075A00008B5FFF733FE104B00200B2218809A70AD
:1075B0000E4B18600E4B18700E4B18700E4B4FF49C
:1075C0008012C021C3F8802183F814131A6002F1DD
:1075D0008042A2F56F22C2F8080583F81113074B09
:1075E000D2F804251A6008BD6028002080290020F8
:1075F000782900207929002000E100E07C29002082
:10760000074B9B784BB132B128B10368187C20B985
:1076100059745A617047072070470820704700BFAF
:10762000602800202DE9F7431E4FBB7805460E4623
:107630009046A3B398B304292FD943697BB3437C05
:107640000024012B0DF107000CBF8946A1468DF8DF
:10765000074000F03DF80DF10600FFF791FDD0B1B5
:1076600001230370104B4560D3F80435C0E904983A
:10767000C0E902369DF806307B709DF8070000F0E7
:107680004BF824B9094B4FF48012C3F8002120466F
:1076900003B0BDE8F0830424EFE70724F7E70824EC
:1076A000F5E700BF602800200010014000E100E085
:1076B000064A92783AB130B1426922B1002202748E
:1076C0000221FFF773BD0820704700BF602800202B
:1076D00070B5EFF3108672B60C4A946801239CB91A
:1076E00093600B4B0B4DD3F8801029401160C3F809
:1076F0008050D3F8841051604FF0FF32C3F88420DB
:10770000047006B962B670BD0370FAE784290020E0
:1077100000E100E0FC06FFBD084B9A6810B55AB1C5
:1077200050B9EFF3108172B6054A1C6814605C68AA
:107730005460986001B962B610BD00BF8429002072
:1077400000E100E070B5064D0646002455F8043B04
:107750000BB1304698470134042CF7D170BD00BFFF
:107760009C290020033080B240F2FD33984230B5AE
:107770001FD8124B1A783AB91C895D892C440444ED
:10778000A4B2B4F5806F0AD31A7DA2B99A8BDC8BB0
:107790002244024492B2B2F5806F0CD201220A80D8
:1077A0001446142202FB04335A89104458810020E5
:1077B00030BD0920FCE70720FAE700BFD0290020F0
:1077C0000B4A0C4B5188142000FB0131CB6833B9B4
:1077D0000420496810700122074801F0C7BA052348
:1077E0000649137002238B80012200230968F3E706
:1077F000B4290020D029002028220020982A002027
:1078000007B5002305490093054A09680548082380
:1078100001F016FA03B05DF804FB00BF982A0020BF
:1078200074FC02002822002007B5002300930146C3
:107830000823034A034801F003FA03B05DF804FB90
:107840006CFC02002822002013B500230C46009394
:1078500001460423074A084801F0F2F938B9074BFA
:10786000142202FB04340123237402B010BD0E2045
:10787000FBE700BF68FC020028220020D02900207E
:1078800037B50A480A4B42689C8819685388032513
:10789000033305709BB2002000909B0001EB840134
:1078A000044801F0CDF903B030BD00BFB429002079
:1078B000982A00202822002010B50146044800F034
:1078C00045FE1C220446002108F003F8204610BDA6
:1078D000842A002068B10268084B9A4209D14068A6
:1078E000074B984207D0013398420CBF0120032078
:1078F0007047032070470020704700BFDEC0ADDE38
:10790000FE011EF14388033300EB8303994209D340
:1079100082884FF6FF739A4206D00088B0FA80F052
:107920004009704702207047012070472DE9F84355
:107930000223DFF860800B800D46174600F5805665
:1079400000F108044FF00109B4420FD2236801335B
:107950000CD031462046FFF7D5FF48B10FB187F86C
:10796000009002280BD14FF480632B80BDE8F88390
:10797000A368D8F80020934201D9C8F800302B88BA
:107980006288033313442B806388033304EB83043E
:10799000DAE700BFC8290020154A142303FB0020A2
:1079A00070B50B6844680D4604F58056ABB15C8831
:1079B000033403EB8404B4420DD2236801330AD0AC
:1079C00031462046FFF79EFF01280BD010F0FF0F35
:1079D00005D00228EFD1002003E00834EBE72C604B
:1079E000012070BD6388033304EB8304E3E700BF29
:1079F000D0290020436873B504460D466BB3244A72
:107A0000D1688B4229D31269934226D813F003021E
:107A100023D120490089098988421ED120689968AC
:107A200088421AD11C494868834203D900F5805026
:107A300083420ED38A6993420DD902F58052934254
:107A400009D201232B800020B0FA80F0400902B057
:107A500070BD1346F6E70A20F6E700232B801E468A
:107A6000019601A92888FFF797FF30B92B880133C9
:107A70009BB2012B2B80F3D9E9E7019B226899681F
:107A80009142EED16360034B1B892381DFE700BF86
:107A900028220020B4290020D02900202DE9F84315
:107AA0001C461C4B1B7806460F4615466BB372B33B
:107AB0006CB3DFF868804FF01409A388012B01D95B
:107AC0000A2020E009FB03F318F803302BB9214604
:107AD000A088FFF761FF20B92060A3880133A3804D
:107AE000EBE723681EB1998832889142EFD11FB12C
:107AF00019883A889142EAD19A68C5E90023064B71
:107B00001B892B810020BDE8F8830220FBE70520BC
:107B1000F9E700BFAC290020B4290020D0290020BB
:107B200008B5074B191D5888FFF736FF18B1BDE897
:107B30000840FFF7A5BEBDE80840FFF741BE00BF03
:107B4000B42900202DE9F04FA04FDFF8A49289B0AE
:107B50000646B8463B6823B949469D4800F030FDCB
:107B60003860D8F8005029784B1E052B00F2FA80B7
:107B7000DFE813F006005E005E00EE00EE005C0140
:107B800026B1944B00225A600124ECE02B79032BA0
:107B90001DD8DFE803F015022A358F490B78022B38
:107BA000084619D00B7D022B4FF0010316D1142289
:107BB0005343C2180020C8545068FFF735FE03E055
:107BC00001232B71FFF71CFE002800F0BC80814BC5
:107BD00000225A600E24C6E00023E8E77D4A1370B5
:107BE0000023536041F61D54BDE07C497C480023CE
:107BF00002222B718A800122096801F0B7F8E3E7BD
:107C0000764C00262E712068734DFFF70DFE754BE4
:107C1000D4F800C05A8814235343EA18EE5451682C
:107C20002160A188C2F804C011810222A280CBE7A2
:107C3000B5F814A0AA7DDFF8A0B1AEB1022AEB8896
:107C400006D9142101FB0AB1DA1C088902440A8111
:107C5000142202FB0ABAC3F57F43BAF80A20FD33A7
:107C60001344AAF80A308FE7142303FB0AB31889D8
:107C70005C6804EB8004062A68D8DFE802F0274D30
:107C800035431D59040041F61D54AA7DEB88022A94
:107C900006D9142101FB0AB1DA1C088902440A81C1
:107CA000142202FB0ABAC3F57F43BAF80A20FD3357
:107CB0001344AAF80A3056E04B484C49002343606D
:107CC000AB690360FFF796FE002871D00223AB7505
:107CD000002300930423EA182146414800F0B0FF36
:107CE000002830D00E24D0E72B69002B14BF0323CB
:107CF0000123AB750023009305F10C02042304F16A
:107D00000801EAE70123AB750022EB8800929B0093
:107D10002A6904F10C01E0E703290CBF05230623BF
:107D2000AB7500230093042305F10802E118D4E7A2
:107D30000623AB752D4B19882B4B5868FFF784FD34
:107D400004460028A1D109B0BDE8F08F0F249CE7BC
:107D5000002E7FF419AF2B79012B4BD0E3B1022B0E
:107D60003FF440AF0F241422002103A807F0B1FD17
:107D700041F61D539C4208BF0024D8F800300494FB
:107D80001A78023A042A00F20581DFE812F0E600D0
:107D9000F20015011D01240102232B710DF10A01CE
:107DA000EB68039303A8CDE90466FFF723FE08B947
:107DB0000A24D8E70498BDF80A108388EB8003886A
:107DC0002B81FFF741FD044627E000BFCC290020AE
:107DD000842A0020AC290020D0290020982A0020E5
:107DE00028220020B429002090290020A42A002065
:107DF000C4290020DFF8FCA103AA53463146A81D80
:107E0000FFF74CFE044658B9BAF804100498FFF77F
:107E10001BFD04460A2C3FF4E5AE002CA3D192E7EB
:107E200008223146504607F054FDF3E7002E7FF458
:107E3000ABAE6B4B1A7BAAB11E731A78013A062AB5
:107E400090D801A151F822F0EF7E0200157F0200C8
:107E5000337F0200397F0200657D02003F7F020010
:107E6000517F02001A78072AE7D801A151F822F0C1
:107E7000917E02003B7E02003B7E0200B77E020044
:107E8000CB7E0200EB7E0200EB7E0200B37E02009E
:107E90001A89544901321A8100225A801A730A78C9
:107EA000B2FA82F252099A720A7DB2FA82F2520949
:107EB000DA72012207E04C4958688A884088033208
:107EC00002448A8002221A70B7E7464C5A88464913
:107ED000142505FB024208685468506088881081A8
:107EE00002228A800C600622EDE70722EBE79A7AED
:107EF00032B9DA7A8AB900221A705A805A6071E669
:107F0000384900229A72CA68002AF2D1097C0029F5
:107F1000EFD05A80FFF704FE55E70022DA72314AAB
:107F2000116A0029E7D192F82420002AE3D0012227
:107F3000EFE7FFF7A5FC46E7FFF742FC43E7294AD6
:107F40005B88142101FB03235868FFF76DFC3AE7B7
:107F500000225A60FFF754FC35E701228DF80C200F
:107F60001A89ADF818209A88DB68ADF81A200593B5
:107F700010E002228DF80C201A89ADF818209A889A
:107F8000ADF81A20DA689B7D05929A1F534253413F
:107F90008DF81C3003A8FFF7D5FB0026494613488F
:107FA000C8F8006000F037FB0121114800F0E6FB43
:107FB00000287FF4CFADC6E603228DF80C20DA88C6
:107FC000ADF818201A89CFE70422DB888DF80C2041
:107FD000ADF81830DEE705238DF80C30DAE700BF86
:107FE000B4290020D0290020982A0020842A0020CB
:107FF000942A0020A82A00204068FFF7A3BD0000B3
:1080000008B50121044800F0A3FB18B9BDE80840F9
:10801000FFF798BD08BD00BF942A00202DE9F34169
:108020009846354B1B7806460D46002B5BD0002941
:108030005BD009884FF6FF73994258D06B88002BAC
:1080400055D06B689B0754D14AB92F890DF10201B5
:108050003846FFF787FB30B102B0BDE8F0811388E6
:108060005788ADF8023001A8FFF726FC044658B93E
:10807000BDF80230214A142101FB0323588903383B
:10808000C01B58810820E7E700238375BDF8023044
:1080900083826B68036180F800800121184800F03A
:1080A00062FB2B882381B8F1030F6B88A38004BF88
:1080B0000423A3754FF0000508BF3368E06008BFD4
:1080C000A361E780658101A90E4800F069FA36B125
:1080D000E36833600C4B75601B89B5723381FFF721
:1080E0008FFF0020B8E70220B6E70520B4E70420A0
:1080F000B2E70320B0E700BFAC290020D029002060
:10810000C8290020842A0020B429002008B5084B83
:108110001A68042A09D01968064A42F82100012188
:10812000184600F020FB002008BD0C20FCE700BF33
:10813000A02A00209C2900202DE9F04F14228BB0AA
:1081400000210DEB020007F0C4FB764A137803F020
:10815000FF01CDE901123BB105A8FFF7F3FA0027B3
:1081600038460BB0BDE8F08F029B181D00F011FBE4
:108170000028F4D140F6F8734FF080521B685C1C65
:1081800008BF694B694C08BF1B6811695269581CCC
:1081900008BF02FB01F323610022A3F540536449A9
:1081A000E360204600F018FD039407460028D7D16D
:1081B0001C238C225F496048DFF88891DFF88881B2
:1081C00000F08FF93D46BA464FF0030B3C46039B47
:1081D000DE68564430463146FFF77CFB01284DD01F
:1081E00042B2002A36D0032822D106F58052086810
:1081F000013040F08A8004318A42F8D1D9F8002059
:108200003AB902220123C9F80060A9F804200193B9
:108210000CE014226243022008EB020108F802007D
:10822000464A4E60548001340881A4B245F00105ED
:108230000AF5805ABAF5405FC9D1BBF1010F98BF6A
:108240000025EDB2022D03D0062D35D0002D3CD1F6
:108250000B2785E71421614308EB010008F8012092
:1082600001F1100208314660424441443046FFF7B4
:108270005DFB45F002050134A4B2D9E7019B63B16F
:108280001422624308EB0201022008F802000134C4
:10829000D9F800204A600881A4B200222849C9F810
:1082A00000603046FFF742FBB9F80420022A0CBFF9
:1082B000042208221543BBE7029A0123137005A884
:1082C00000235360FFF73EFA4AE704A8FFF7F4FAE9
:1082D000C8B10123013D03700A2D09D8DFE805F07C
:1082E00006080608070807080F110F00002303718E
:1082F00004A9114800F054F9FFF782FE30E7032388
:10830000F5E70223F3E708272AE70BF1FF321FFA0C
:1083100082FB1422624308EB02014E60032108F83D
:108320000210A8E7AC290020141000102822002019
:1083300068FE0200F8290020842A0020B4290020C9
:108340009C2A0020982A0020D029002073B50D46D1
:108350000446C8B1C1B10DF10601FFF74BFBA8B14E
:108360000B4BBDF806006668142202FB00300121A9
:108370000C3000F0F8F963682E600C336B60012359
:10838000A372002002B070BD0520FBE70A20F9E7C8
:10839000D029002013B50446A8B10DF10601FFF75E
:1083A00029FB90B10B4ABDF80630142101FB0323D1
:1083B000DA6862B1A27A52B1DA680020013ADA6072
:1083C000A07202B010BD0520FBE70A20F9E70620E5
:1083D000F7E700BFD029002002230022FFF71EBECE
:1083E00018B103230022FFF719BE052070470000D3
:1083F000104B1B7813B50446ABB14FF6FF73984290
:1084000013D001A8FFF758FA88B1052303700123A0
:108410000371C48001A9084800F0C2F8FFF7F0FD1D
:10842000002002B010BD0220FBE70420F9E708207D
:10843000F7E700BFAC290020842A00200E4B1B78F0
:1084400007B5A3B101A8FFF737FA90B1062303706F
:1084500001A90A4800F0A4F8094B1A780AB10122D0
:108460001A73FFF7CDFD002003B05DF804FB022076
:10847000FAE70820F8E700BFAC290020842A002092
:10848000B429002007B5ADF80600ADF804100DF1D1
:10849000060001A9FFF702FB03B05DF804FB07B576
:1084A0001346ADF806000A4600200DF10601FFF75D
:1084B000F5FA03B05DF804FB07B51346ADF8060006
:1084C0000A460DF106000021FFF7E8FA03B05DF857
:1084D00004FB20B119B103680B6000207047052030
:1084E000704710B561B1B2FBF3F403FB1424A4B2DE
:1084F00044B9C0E9001484608281C381204610BD64
:108500000E20FCE70920FAE782B050E8022FC1886C
:10851000B2EB324F4FF0000317BF92B241EA014174
:1085200042EA014104E04268B2EB324F08BF012346
:1085300040E80212002AE8D18DF807309DF8073094
:10854000002B0CBF1120002002B0704737B550E857
:10855000013F9DB2C48925448489A54228BF2D1BB3
:108560000489A54202BFBFF32F8F002207E0C5EAAE
:10857000030540E80154002CE9D14FF001028DF8C9
:1085800003200193019B9DF803200B6002F0FF0381
:1085900022B10B880068184403B030BD1846FBE7D1
:1085A0000A884B889A4209D150E8012FC2EA024258
:1085B00040E80123002BF7D10120704700207047CD
:1085C00037B550E8023F1FFAA3F5C488A54202BFA1
:1085D000BFF32F8F00220DE0C48925448489A54272
:1085E00028BF2D1BC3EA054540E80254002CE8D102
:1085F0004FF001028DF803200193019B9DF80320A9
:108600000B6002F0FF0322B14B880068184403B0EE
:1086100030BD1846FBE70A884B889A4209D150E8DA
:10862000022FC2EA224240E80223002BF7D10120A8
:1086300070470020704701F01F024B090121914053
:1086400000EB830000F063B84B0910B501F01F0484
:108650000121A14000EB830000F04EF8E04000F063
:10866000010010BD01F01F0301229A404B0900EBED
:108670008300D14300F061B84B0901F01F0150F8AD
:108680002300C84000F0010070472DE9F0474E1E5E
:10869000760980460F460136002558F8254008EB3C
:1086A0008509E44394FAA4F4B4FA84F44FEA451A31
:1086B000202C06D10135AE42EFD83C462046BDE81D
:1086C000F0875444A742F5D921464046FFF7BCFF46
:1086D0000028F3D0D9F80040E44394FAA4F4B4FAA3
:1086E00084F4E5E750E8002F0B4640E8003C9CF09E
:1086F000000FF7D11046704750E8002F42EA0103FF
:1087000040E8003C9CF0000FF6D11046704750E85E
:10871000003F43EA010240E8002C9CF0000FF6D134
:108720001046704750E8002F02EA010340E8003C81
:108730009CF0000FF6D11046704750E8003F03EA66
:10874000010240E8002C9CF0000FF6D11046704763
:1087500050E8002F02EB010340E8003C9CF0000FC2
:10876000F6D11046704750E8003F03EB010240E8A5
:10877000002C9CF0000FF6D11046704750E8003FE7
:10878000A3EB010240E8002C9CF0000FF6D110464C
:1087900070470121FFF7B0BF0121FFF7B8BF0021EB
:1087A000FFF7C0BF10B590B1D0E9012301689B1A53
:1087B000DBB20A60013BDBB2FF2B026802D1002072
:1087C000107110BD11684C1C14600B70F2E70E2084
:1087D000F7E737B5054600240DF107008DF807408F
:1087E000FEF776FF2A686B68116899420ED9481E19
:1087F000106011F8014CEB68298A01FB0434AB6866
:1088000011791B1ADBB2994238BF13719DF807002A
:10881000FEF782FF204603B030BD37B50546002382
:108820000DF107000C468DF80730FEF751FF2A685E
:108830001368591C1160E968641A298AB4FBF1F4C1
:108840001C709DF80700FEF767FF03B030BD82681B
:1088500010B504462AB143690168006998470023AE
:10886000A36010BD0EB403B5039921B104AB01AAF6
:10887000019300F075F802B05DF804EB03B07047A7
:108880000A2938B504460D4602D10D21FFF7F8FF3D
:10889000A3682268591CA160D554D4E901329A42D8
:1088A00004D32046BDE83840FFF7D1BF38BD0000F3
:1088B0002DE9F84F9946DDE90A4317468246884676
:1088C0000A460126BA420FD24E4538BF4E4613F033
:1088D000010B01D164B900240125B9F1010F1AD9A6
:1088E00009F1FF397D43F8E7B2FBF7F20136E9E71A
:1088F0009B070ED5B9F1000F0CBF30252025A642ED
:10890000EAD2013C29465046FFF7BAFF002CF6D1C7
:10891000E1E72025F3E7B8FBF5F39F42E2D9DFF862
:108920003C90B8FBF5F3504619F8031005FB13888B
:10893000FFF7A6FFB5FBF7F3BD4207D2BBF1000F6F
:1089400002D00CB1A64203D3BDE8F88F1D46E8E77C
:1089500020215046013CFFF793FFF2E77CFC020028
:108960002DE9F74F054617468846002900F031816A
:1089700018F8011B49B92B7B002B00F02A812846EF
:1089800003B0BDE8F04FFFF762BF252940F0C0807B
:10899000002698F800302D2B424608F1010823D01C
:1089A000302B24D02B2B25D000242A2B02F10101BF
:1089B00023D13B681A1D1B683A601C440A46137891
:1089C0002E2B26D101324FF0000A104610F8011B61
:1089D000A1F1300CBCF1090F1DD80A2303FB0A13C7
:1089E000A3F1300A0246F0E746F00106D1E746F06F
:1089F0000206CEE746F00406CBE711F8013CA3F1EE
:108A000030000928DBD80A2202FB0434303C0A4635
:108A1000CBE74FF0000A12F8011B01F0FB006828B9
:108A20009046F8D069290ED04AD8582964D006D883
:108A300025296DD098F80030002B99D19BE7632948
:108A400062D06429F6D13A68D2F80090111D89EA03
:108A5000E9723960A2EBE9724FF0010B092A5BDC85
:108A6000D34538BFD3462CB1B9F1000F01DB7107F4
:108A700000D5013CB20702D5BAF1000F04D0F307CC
:108A800002D4002C4ED10024B9F1000F52DAC9F102
:108A900000092D212846FFF7F3FE06F00302022A03
:108AA00005D1BAF1000F02D1002C47D10024CDE945
:108AB000004653460A2249462846FFF7F9FEB9E721
:108AC00073294CD014D87029B4D13B681A1D3A6070
:108AD000302128461C68FFF7D3FE78212846FFF78F
:108AE000CFFE00220823CDE9003221461022E3E721
:108AF00075292BD078299DD139680A1D3A60CDE9B6
:108B000000465346102228E03B681A1D19783A6047
:108B10002846FFF7B5FE8DE70A230BF1010BB2FBE8
:108B2000F3F29BE7A345AFD220212846013CFFF793
:108B3000A7FEA6E77007B0D52B21ABE7A345B6D2B9
:108B400030212846013CFFF79BFEADE73968CDE9AF
:108B500000460A1D3A6053460A220968ACE73B68A2
:108B60001A1D3A60F107D3F8009020D4B9F1000F34
:108B700025D0484606F0E0FE0646B44200D9C4B906
:108B800009F1FF3920E028460136FFF779FE19F890
:108B900006100029F7D1A642BFF44CAF002C3FF4D9
:108BA00049AF20212846013CFFF76AFEF3E7002683
:108BB000EDE720212846013CFFF762FEDDE74E4647
:108BC000DBE72846FFF75CFE19F8011F0029F8D102
:108BD00030E703B0BDE8F08F07B50B4688B9124BFC
:108BE0001248134AC01A0E23C0080093114B000408
:108BF000114940F00100FDF76AFF0E2003B05DF857
:108C000004FB4BB9084B09480C4AC01AC0080E2394
:108C100000930004074BEBE703601B68114603B0A9
:108C20005DF804EB184700BF04FA020044FA0200A2
:108C300039FD02008CFC02003EFD0200B5FD020081
:108C40002DE9F34188B93D4B3D483E4AC01AC00862
:108C50000E243D4B009400043C4940F00100FDF718
:108C600036FF204602B0BDE8F0814AB9334B3448A4
:108C7000374AC01AC0080E2400040094324BEBE7B8
:108C8000D0F800C0BCF1000F09D12C4B2C48314A60
:108C9000C01AC0080824000400942B4BDCE74BB931
:108CA000264B27482C4AC01AC00809240004009407
:108CB000254BD1E74768D7F80480B3FBF8F708FBEA
:108CC00017374FB11D4B1E48244AC01AC00809244B
:108CD000000400941C4BBFE78F0709D0174B1848BE
:108CE0001F4AC01AC008102400040094164BB3E7B2
:108CF00012F0030F09D0114B11481A4AC01AC008CC
:108D0000102400040094104BA6E7C768B9420BD3A7
:108D10004C1E05691C44AC4206D8DCF80C40A44645
:108D200002B0BDE8F0416047044B05480E4AC01A46
:108D3000C008102400040094034B8DE704FA0200DD
:108D400044FA020039FD02009EFC02003EFD0200D2
:108D5000BBFD0200AFFD02006EFD0200C1FD02007E
:108D6000EBFD020003FE020026FE0200F7B580B90B
:108D70002A4B2B482B4AC01AC0080E242A4B0094B9
:108D800000042A4940F00100FDF7A1FE204603B08F
:108D9000F0BDD0F800C0BCF1000F09D11F4B204836
:108DA000234AC01AC0080824000400941E4BE8E7B8
:108DB0004AB91A4B1A481F4AC01AC00809240004AD
:108DC0000094194BDDE74768D7F800E00EF1FF3754
:108DD0000F4209D0114B1248174AC01AC00810247C
:108DE00000040094104BCCE7C768B9420CD34C1E6A
:108DF00005690EFB0244AC4206D8DCF81040A446DC
:108E000003B0BDE8F0406047044B05480B4AC01A68
:108E1000C008102400040094034BB2E704FA0200D7
:108E200044FA020039FD0200B1FC02003EFD0200DE
:108E3000AFFD02006EFD0200C4FC0200EAFC02006D
:108E400029DF704728DF704770B503689D6886B0DA
:108E500004460E466DB114220021684606F039FD25
:108E6000A3680593237901962BB1012B0DD0684699
:108E7000A84706B070BD01238DF800302369029326
:108E8000E368039363690493F1E702238DF80030EC
:108E9000E3681B030293F5E708467047002070471C
:108EA000024B187A003018BF012070474C2B00206D
:108EB000034B187A0122B0FA80F05A7440097047C7
:108EC0004C2B002008B510461A4606F0D9FC0020AD
:108ED00008BD000008B514220021044806F0F9FC82
:108EE0000348FFF711FB002008BD00BF4C2B0020FA
:108EF0003C2B002010B5094C094B43602046FFF77E
:108F000048FC40B906F058FA1C2320748C2205490D
:108F10000548FFF7E6FA002010BD00BF4C2B0020EB
:108F20005CFE0200B02A00203C2B002070B5244DCE
:108F3000244E2B7A2C463BB923492448FFF740FBAB
:108F4000306008B9686070BD0223237233681A79F3
:108F500072B1012A24D018460321FFF775FF0023C0
:108F60002372636018491948BDE87040FFF753BB8E
:108F7000D3E90520121AB2F5805F28BF4FF4805262
:108F8000D3E903159208012A014438BF012228447D
:108F9000FFF756FF50B11128DDD101232372D2E72C
:108FA000D3E903021044FFF74DFFF3E7237C002BC6
:108FB000C9D10146BDE87040022000F009B800BFE9
:108FC0004C2B0020642B0020602B00203C2B002029
:108FD00038B5831E012B45D8234C237A002B41D072
:108FE000022B09D1032830D0204B1B680022E260FD
:108FF0001A793AB1012A22D0637C7BBBBDE83840A4
:10900000FFF794BFD3E905128D1AB5F5805F94BFC1
:10901000521902F580529A619142EDD102284FF027
:10902000000308BF19462372104B18BF0D211868A2
:10903000FFF70AFF0E490F48FFF7EDFADCE71A6960
:1090400001321A615B699A42E7E7E3680133082B52
:1090500001D8E360D0E70023E360DFE7BDE83840F4
:1090600006F09AB938BD00BF4C2B0020642B0020BD
:10907000602B00203C2B002000F0FD03012B08D1C9
:10908000044B00225A74421E504250411874FFF79C
:109090004DBF70474C2B002010B5064C201DFFF72C
:1090A00078FB28B9637C1BB9BDE81040FFF73EBFD1
:1090B00010BD00BF4C2B00202DE9F34180460D462A
:1090C0000F4801A916461F46FFF740FA0446A8B10B
:1090D0001C22002106F0FDFB2D0B0123237101A9A9
:1090E000C4F80080A760E56066610548FFF758FA9C
:1090F000FFF7D2FF002002B0BDE8F0810420FAE7BC
:109100003C2B00202DE9F74381468846104801A9F1
:1091100017461E46FFF71AFA0446B0B11C2200217A
:1091200006F0D7FB00250A9BA36001A92571C4F8AE
:109130000090C4E9037866610548FFF731FAFFF74C
:10914000ABFF284603B0BDE8F0830420FAE700BF78
:109150003C2B00202DE9F047B0F806904479D2F876
:1091600000A09DF8208009FB04F4043C06460AEBAD
:109170000300A0420F4688BFA4EB030A191DC2F8E2
:1091800000A0B1FBF9F509FB15114DB9A9EB0104DC
:10919000544528BF5446BAF1000F04D1BDE8F0870A
:1091A0003668013DF1E704317B1970182246B8F1A9
:1091B000000F0ED001461846AAEB040A06F060FB29
:1091C000D145254436684C464FF0000128BF54462F
:1091D000E1E71946F0E7FFF7E5BAF8B54679014649
:1091E000721E0546002393422D6803D30024A64235
:1091F00002D8F8BD0133F6E70F682846FFF70DFBEC
:1092000001343946F3E72DE9F843068ACD1C0746B9
:10921000FFF7DFFA043E35440446B5FBF6F5F0B13E
:109220004FF48073EDB28380C680013D07608146B4
:109230004FF00008A84512D23846FFF7CAFA064692
:1092400048B163790133637108F10108C9F800007E
:1092500007608146EEE72046FFF7BFFF3446204611
:10926000BDE8F88301210430FFF77DBA10B5012174
:1092700004460430FFF782FA10F0FF0F04D12046B5
:10928000BDE81040FFF7A9BF10BD1FB50392002233
:10929000009203AAFFF75EFF05B05DF804FB1FB55F
:1092A00003920122009203AAFFF754FF05B05DF874
:1092B00004FB33DF704741DF704700000D4A08B5FB
:1092C000002313700C4A1360BFF35F8F0B490C48E7
:1092D00000F0B1F80B4A0C480121FEF791F9024663
:1092E00030B94FF400410948BDE80840FEF79AB98B
:1092F00008BD00BF942B0020982B00208CFE02009C
:10930000682B00201194020088FE0200742B0020BC
:1093100007B500230DF107008DF80730FEF7D8F9E7
:10932000F1EE103A23F09F03E1EE103ABFF35F8FA6
:10933000094B4022C3F884219DF80700FEF7ECF9A1
:1093400006F03AF820B1FFF7B6FF03B05DF804FB72
:1093500020BF40BF20BFF8E700E100E070B5264C19
:10936000054601212046FFF7BDF9BFF35F8F264672
:1093700038B9042D0AD0214B1A781AB1BFF35F8F88
:10938000206070BD1E4A157001221A701D4C1C4DC4
:109390006368BBB9FDF7D8FBFDF718FA0028FBD1CD
:1093A000174B1B78023B012B14D8BFF34F8F164984
:1093B000164BCA6802F4E0621343CB60BFF34F8FD1
:1093C00000BFFDE71B682878984788B1204600F069
:1093D0003CF8DDE705F0F0FF08B1FFF76AFF4FF05A
:1093E00080430122C3F80025BFF34F8F20BFFDE764
:1093F000BFF35F8F3060C4E7982B0020942B0020D0
:10940000702B0020682B002000ED00E00400FA051E
:10941000034B1B7813B10420FFF7A0BF704700BFB8
:10942000942B0020836800225A609A60C3E90422CA
:10943000DA601A6070470B684A684360934208BF5D
:109440000023016008BF43607047436843B102686E
:10945000916852680B449342436004BF0023436009
:109460007047000010B50D49A1F59472914201D8E2
:1094700000200FE08B1ADB1003EBD3735B1002EBC1
:10948000C30452F83330834205D802D204F10802F3
:10949000ECE7606810BD2146E8E700BFDCFF020092
:1094A00008B5FFF7DFFF024B002808BF184608BDCC
:1094B000A1FE020038B5074C051E04F1080318BFD1
:1094C0001C4623682BB11A6822605B6828469847BF
:1094D000F7E738BDA42B002020B9054B01225A70B4
:1094E000FFF7E8BF012802D1014A9070F8E7704702
:1094F0009C2B002020B9034B01225A70FFF7DABFE2
:10950000704700BF9C2B002038B50B4C237883B9E3
:109510000A486360A3602361E36000F0C9F8054670
:1095200005F04AFF08B900F0CFF801232370284660
:1095300038BD8525FBE700BF9C2B0020D994020095
:1095400037B50B4C00230DF107008DF80730FEF7FF
:10955000BFF8E368013BE360E56815B900F0C6F8C1
:10956000A5709DF80700FEF7D7F803B030BD00BF27
:109570009C2B0020012813B509D018B103281CD05A
:1095800002B010BD0F4B0122C3F88020F8E70E4C4B
:1095900000230DF107008DF80730FEF799F82378C6
:1095A0000BB9FFF7B1FFE3689DF807000133E360F3
:1095B0000123A370FEF7B0F8E2E700F085F8FFF7AB
:1095C000BFFFDDE700E100E09C2B00201FB5037822
:1095D0008DF800304368019383688DF80830C368C4
:1095E0000393054A054B684653F8213052F8211081
:1095F000984705B05DF804FBB02B0020B42B002089
:109600001FB503788DF800304368019383688DF8A7
:109610000830C3680393054A054B684653F8213068
:1096200052F82110984705B05DF804FBB02B0020DC
:10963000B42B0020F0B5194B067891F81DE043F8E3
:109640002620174B94460A6943F82620154B03F849
:1096500006E00C4607460FCC89B06D460FC594E86E
:109660000F0085E80F000496BEF1000F0AD0BCF190
:10967000000F0D4A694608BF0022381D00F056FC55
:1096800009B0F0BDBCF1000F084A694608BF0022CE
:1096900007F10C0000F056FAF2E700BFB42B0020EF
:1096A000B02B0020B82B0020CD95020001960200BF
:1096B000044A137923B9012110609180184670473C
:1096C00085207047BC2B0020074B1A68D2075FBF6C
:1096D000C02283F8002301221A604FF08043012248
:1096E000C3F81825704700BF00E100E0044B0122D9
:1096F0001A604FF08042D2F81834DB03FBD4704775
:109700000C000040154B07B51A687AB100221A60A8
:109710001B680093009B4FF080430122C3F808238D
:109720000F4B587910B95A711B6898470D4B1A683E
:1097300082B100221A601B680193019B4FF08043A5
:109740000222C3F80823064B1B68012003B05DF812
:1097500004EB184703B05DF804FB00BF00010040B4
:10976000BC2B00200401004000F1804000F5C04007
:10977000002382B0036003680193019B02B070472D
:10978000800000F1A040D0F8003723F44033C0F847
:109790000037D0F8003743EA0141C0F8001770479E
:1097A0002DE9F04F85B000245A4D01944FF480729A
:1097B000012102F1804303F5C04390B21B68012BE5
:1097C00006D1D5F804330B4202D0FFF7CDFF0C438E
:1097D0000432B2F5907F4FEA4101EAD14E4B1B684B
:1097E000012B0AD14FF4BE70FFF7BEFF4FF0A0432C
:1097F00044F00044D3F81035019314F0FF0F1AD051
:10980000464F00250126344210D0AB0003F18043BF
:1098100003F5C043D3F81005D3F8101557F82530D9
:1098200023B1C1F30141C0F3042098470135082D4D
:109830004FEA4606E7D1002C64DA00224FF0FF33EE
:10984000CDE90223354D01274FF0000A344E54462E
:109850004FF0A04816F9012B531C46D0D2B222F08B
:10986000C0094FEAD90104A8084402F0070310F820
:1098700004CC07FA03F31CEA030F36D005EB090CFE
:1098800092099CF930C055F82CB0BBF1000F0AD1F9
:10989000032A2AD10DF1080E1EF801C04CEA030C70
:1098A0000EF801C001E0032AF4D009F5E07110F8C8
:1098B0000C0C58F821101842C1F3014105D00229BF
:1098C00013D1032A0BD1114604E003290DD1032A39
:1098D00005D102214846FFF753FF0134E4B2BBF142
:1098E000000F02D011464846D8470AF1010ABAF1E2
:1098F000040FAFD134B14FF0A043019AD3F8103523
:10990000934202D105B0BDE8F08F0193029B03930F
:109910009AE700BF006000407C610040C42B00203B
:10992000142C0020014B1B68184700BF202C00207E
:109930000E4B984237B50D4602D0002003B030BD23
:1099400000230DF107008DF80730FDF7C1FE084B2D
:109950001C7914B901221D601A719DF80700FDF7EA
:10996000DBFE002CE9D01120E8E700BF002000401A
:10997000202C0020034B984201BF034B00221A60A9
:109980001A71704700200040202C00200023435013
:1099900082B043580193019B02B070470A4610B54C
:1099A0004FF48E71FFF7F2FF136A9168C95C136A76
:1099B00001331362C0F81C1510BD8B690A4610B53F
:1099C0004FF4847123B9FFF7E1FFD0F8183510BDCB
:1099D000FFF7DCFF536AD168D0F81805C854536A02
:1099E00001335362F3E700001FB501238DF8003007
:1099F000044BCDE90110D3E900126846904705B049
:109A00005DF804FB282C002030B54C4AD2F8043312
:109A100013F4007F85B015464FD0D2F82431002BC7
:109A20004BD04FF492711046FFF7B0FF4FF4017323
:109A3000C2F80833424B93F8291009B9012151604B
:109A40003E4902228DF80020D1F88024C1F88024FC
:109A500003929A690292DA6801920022C3E906220F
:109A60006846D3E9001290473448D0F81C315BB106
:109A700033490A6A4B699A420A464BD291F8283018
:109A8000002B47D1FFF78AFF2C4AD2F8443193B11B
:109A90004FF4A2711046FFF779FF294B93F8291074
:109AA00009B1012111609A692AB100229A61586AAC
:109AB000D968FFF799FF05B030BDD5F804335B07CF
:109AC000D2D5D5F80831002BCED01D4C1B482146ED
:109AD000FFF773FF636AA2699A422346C4D1E26921
:109AE000E1684AB12369E3600023606AA261E3612F
:109AF0006362FFF779FFB7E794F829200AB90122DA
:109B00006A600E4A4FF40170C2F8080300229A619D
:109B1000586AEEE74FF48E710848FFF737FF516936
:109B20000029B1D00023029191688DF80030019195
:109B300053616846D2E900139847A5E7002000402A
:109B4000282C00202DE9F843564F047991462C2209
:109B500002FB0472064692F82A200D46002A40F0C5
:109B60009A8051490068FFF7E3FE8046002840F0E4
:109B7000958029683368481C0BD04FF0A040012223
:109B80008A40C0F8082501F5E0724FF0030C40F858
:109B900022C06868421C1FBF00F5E0724FF0A04C65
:109BA0004FF0000E4CF822E0AA6995F814C0C3F8F3
:109BB00024256A7DBCF1010F4CEA0202C3F86C2532
:109BC000C3F81405C3F80C151DD1AA68511C1FBF9A
:109BD00002F5E0714FF0A0404FF0000C40F821C0BA
:109BE000E968481C0BD04FF0A04C01208840CCF80D
:109BF000080501F5E0704FF0030E4CF820E0C3F8C3
:109C00000815C3F810252C236343FA18C2F80490F2
:109C10002A69FA50B9F1000F2AD04FF48E713068DA
:109C20002D7FFFF7B3FE30684FF4A271FFF7AEFE51
:109C300032681E4BC2F80433120B51B20029A8BF80
:109C400001F160404FEA4513BABF194802F00F0511
:109C500000F56140DBB2B4BF435580F8003302F039
:109C60001F02012303FA02F24909124B43F8212093
:109C700033680422C3F800252C2303FB047300225D
:109C8000C3E9062283F829205A61012283F82A2099
:109C90004046BDE8F8834FF00808F9E74FF0110897
:109CA000F6E700BF282C0020099A0200800002007D
:109CB00014ED00E000E100E0F8B5047900682D4DF6
:109CC0000023C0F800352C2303FB04535B6873B1F9
:109CD000294BC0F80833020B53B201215B0902F093
:109CE0001F0201FA02F22033244941F82320D0F860
:109CF0000C65D0F81415D0F80835D0F810254FF0C1
:109D0000FF37BE42C0F8147518BF06F5E076C0F8FC
:109D10000C75C0F80875C0F810751EBF4FF0A0474D
:109D20004FF0020C47F826C04E1C1FBF4FF0A04654
:109D300001F5E071022746F82170511C1FBF4FF05A
:109D4000A04102F5E072022641F822605A1C1FBFB2
:109D500003F5E0734FF0A042022142F82310FFF711
:109D600009FE2C2303FB0454002384F82A3063608B
:109D7000F8BD00BF282C00208402020000E100E0B2
:109D80002DE9F843224F06794FF02C0909FB0674A0
:109D900080466569002D37D16261A16025624FF46C
:109DA0008E71006884F82850FFF7F0FDD8F80000A5
:109DB000012383602146FFF7F1FD6368A1462BBBB9
:109DC000D8F80050226A63699A4212D3D8F800305A
:109DD000D3F81C21002AFBD00122DA6000202C23BA
:109DE00003FB067600237361BDE8F88394F82830FE
:109DF00043B9D5F81C31002BF8D049462846FFF767
:109E0000CDFDDFE70F20EAE71120EDE72846EBE77D
:109E1000282C00200023435082B043580193019B1B
:109E200002B070471FB501238DF80030044BCDE917
:109E30000110D3E900126846904705B05DF804FBB5
:109E4000542C00207FB5374AD2F82461002E48D028
:109E500010464FF49271FFF7DDFF02238DF80030BA
:109E6000D2F88034C2F880340393D2F83C350293A0
:109E70002D4BDA6801920022C3E906226846D3E935
:109E800000129047274AD2F844317BB14FF4A271B7
:109E90001046FFF7BFFF244B996939B10021C3E990
:109EA0000611D968D2F83C05FFF7BCFF1D4AD2F86D
:109EB0002031A3B14FF490711046FFF7ABFF1A4B5E
:109EC000596961B1D2F84C150291002299688DF858
:109ED000002001915A616846D3E90012904704B00E
:109EE00070BDD2F81031002BCCD04FF488711046E1
:109EF000FFF790FF0C4BD2F83C0599698842C1D11D
:109F0000DC69D96864B1D2F8005225F02005C2F8A6
:109F100000521A699C61DA60DE61FFF783FFB1E7E6
:109F20009C61FAE700200040542C00202DE9F84302
:109F30005A4F06799146242202FB0672044692F893
:109F400020200D46002A40F0A28055490068FFF706
:109F5000EFFC8046002840F09D8029682368481C5B
:109F60000BD04FF0A04001228A40C0F8082501F52F
:109F7000E0724FF0030C40F822C06868421C1FBF1B
:109F800000F5E0724FF0A04C4FF0000E4CF822E0CC
:109F9000AA6995F814C0C3F824256A7DBCF1010FA5
:109FA0004CEA0202C3F86C25C3F80C15C3F814057B
:109FB0001DD1AA68511C1FBF02F5E0714FF0A040EF
:109FC0004FF0000C40F821C0E968481C0BD04FF05E
:109FD000A04C01208840CCF8080501F5E0704FF056
:109FE000030E4CF820E0C3F80815C3F8102524230D
:109FF0007343FA18C2F804902A69FA50B9F1000FB5
:10A0000034D04FF4887120682D7FFFF703FF4FF4A1
:10A0100090712068FFF7FEFE4FF492712068FFF701
:10A02000F9FE20684FF4A271FFF7F4FE22681D4B81
:10A03000C2F80433120B51B20029A8BF01F16040ED
:10A040004FEA4513BABF184802F00F0500F561400A
:10A05000DBB2B4BF435580F8003302F01F02012386
:10A0600003FA02F24909114B43F821202368082220
:10A07000C3F80025242303FB06730022C3E906224C
:10A080005A61012283F820204046BDE8F8834FF052
:10A090000808F9E74FF01108F6E700BF542C00203C
:10A0A000459E02001003020014ED00E000E100E014
:10A0B000F8B5047900682D4D0023C0F8003524233D
:10A0C00003FB04535B6873B1294BC0F80833020BE0
:10A0D00053B201215B0902F01F0201FA02F22033A0
:10A0E000244941F82320D0F80C65D0F81415D0F895
:10A0F0000835D0F810254FF0FF37BE42C0F80C7578
:10A1000018BF06F5E076C0F81475C0F80875C0F8F9
:10A1100010751EBF4FF0A0474FF0020C47F826C045
:10A120004E1C1FBF4FF0A04601F5E071022746F814
:10A130002170511C1FBF4FF0A04102F5E0720226B2
:10A1400041F822605A1C1FBF03F5E0734FF0A04294
:10A15000022142F82310FFF70DFC242303FB0454D3
:10A16000002384F820306360F8BD00BF542C002029
:10A170001003020000E100E001F06043B3F1005F72
:10A180002DE9F041074632D11C4B0679242505FB09
:10A19000063598466C6964BB6A61A96000684FF433
:10A1A0009071FFF737FE4FF4AC713868FFF732FE5D
:10A1B0003B686A69A968C3F84415C3F848250122B9
:10A1C0009A606A68BAB9D3F82011D3F8582149B90E
:10A1D000002AF8D00F20242303FB06860023736196
:10A1E000BDE8F081002A14BF0F200020F3E7102003
:10A1F000F6E71120F4E72046F2E700BF542C0020D8
:10A200000220FCF7F4BD0000034B1B7813B10020C3
:10A21000FCF7D8BDFCF7DDBD782C0020F8B57B4CF1
:10A22000237805461BB100232370FFF7EDFF172DA0
:10A2300000F28880DFE805F00C171743546576803C
:10A24000888D888D959A9A9A9A9AC4C9D1D9E4E44E
:10A25000FFF7DAFF6E48FDF72BFA6E4B002204463B
:10A260001A702046F8BD0020FCF79CFDF8B10020D4
:10A27000FCF7A8FD022D0CBF4FF4E1614FF47A61A9
:10A28000644B1D704FF400404FF4FA740025E0FB5E
:10A2900001454FF47A7200232046294605F0F0F973
:10A2A000002201465A48BDE8F840FDF7BBB9FCF76B
:10A2B00082FD022D0CBFC8214FF4C871E0E70020D9
:10A2C000FCF770FD40B10020FCF77CFD4FF44871B5
:10A2D000504B03221A70D5E7FCF76DFDC821F7E754
:10A2E0000020FCF75FFD38B10020FCF76BFD4FF458
:10A2F0007A61484B0422EDE7FCF75DFD4FF4C8712D
:10A30000F7E70020FCF74EFD48B10020FCF75AFDAE
:10A31000404B05221A7041F69A110022C2E7FCF761
:10A320004AFDF5E70020FCF762FD3A4B06221A7061
:10A33000002240F6CD41B5E70020FCF73CFD354B4F
:10A3400007221A7000248CE701202070FCF74FFDD3
:10A35000EEE701202070FCF74AFD00224FF4804117
:10A36000A0E7FCF73DFD2B4B0C22EAE72A482B4ED9
:10A37000FDF79EF9D5F1110504461CD0D8B9012D81
:10A3800013D0C8235D434FF400474FF4FA70002107
:10A390004FF47A720023C7FB050105F071F92246DC
:10A3A00001461D48FDF73EF904460220FCF703FD77
:10A3B0000123337055E70220FCF704FD0023F8E782
:10A3C000FFF722FF134B1222BBE7FFF71DFF002010
:10A3D000FCF7F1FC0F4B1322B3E7FFF715FF012049
:10A3E000FCF7E9FC0B4B1422ABE7FFF70DFF002055
:10A3F000FCF7E1FC0120FCF7DEFC064B1522A0E790
:10A40000FCF7EEFC034B1D709CE700BFC02C002046
:10A410009C2C0020C12C00207C2C0020782C0020BB
:10A42000044B1B68DB0703D5034B1878FFF7F6BE18
:10A43000704700BFBC2C0020C12C0020044B1B68BF
:10A4400013F0010301D0FFF7E9BE1846704700BFC3
:10A45000BC2C002008B50B4B186010F001000FD089
:10A460000120FCF7D2FC084A08480021FDF7C8F893
:10A4700030B9074A07480121BDE80840FDF7C0B8D8
:10A4800008BD00BFBC2C002021A40200BC030300B7
:10A4900001A20200B803030007207047062070479E
:10A4A00008B5012202210020FFF7F6FF08B10728B6
:10A4B00010D1072202210120FFF7EEFF08B1072883
:10A4C00008D100210A220846FFF7E6FF10B107284D
:10A4D00008BF002008BD00000388102B10B502D073
:10A4E000112B1ED010BD1A4C2168B1B901220846AB
:10A4F000FFF7D2FF08B1072824D10722022101204B
:10A50000FFF7CAFF08B107281CD10422022100204E
:10A51000FFF7C2FF08B1072814D123680133236075
:10A52000E0E70B4A1368013B1360002BDAD1FFF719
:10A53000B7FF0028D6D0074B1B68002BD2D0BDE850
:10A5400010401847034B1B68002BE6D09847E4E700
:10A55000C82C0020C42C002008B50020FFF79EFF67
:10A5600008B1062806D10120FFF798FF10B1062890
:10A5700008BF002008BD0000054B186009B100238A
:10A580000B70044B1B680BB9FFF78ABF00207047A4
:10A59000C42C0020C82C002076DF70477ADF70477B
:10A5A0007CDF70478FDF7047FCF7A4BD08B5002043
:10A5B000FFF744FF08B1FCF79DFDFFF7CDFF08B1A1
:10A5C000FCF798FD04F0B8FE18B1BDE80840FCF7B0
:10A5D00091BD08BD0388212B13B504461ED003D8B6
:10A5E000102B0AD002B010BD3B2B01D0562BF9D155
:10A5F0001321A088FFF7D0FF0BE00720FFF71EFF15
:10A6000008B1FCF777FD094BA1880948198002F0D1
:10A6100085FA0028E6D0FCF76DFDE3E7002301A9E9
:10A620008088ADF80430FFF7BDFFF2E7602200201C
:10A63000382F002010B5044603F070FD2046BDE819
:10A64000104003F091BB000010B51F4B1F4A9B1A2E
:10A65000DB088CB01B04032834D8DFE800F00227A5
:10A660002D3143F003041A492046FCF719FA2C2235
:10A67000002101A805F02DF944F250624FF49671C3
:10A680000123CDE9051213488DF8083001A98DF892
:10A69000043000F0A7FE00210F4801F007F90F4930
:10A6A00002462046FCF700FA0CB010BD0C4943F0FE
:10A6B0000300FCF7F5F9F7E70A4943F00100F8E772
:10A6C0000949FAE70949F8E72CFA020004FA0200FE
:10A6D0001C040300CC2C0020F1A602004A04030055
:10A6E0006104030084040300BD040300EA040300C2
:10A6F00010B513210246FFF74FFF034658B1064835
:10A70000064C0749241AE408240444F00200BDE87A
:10A710001040FCF7D2B910BD04FA02002CFA020076
:10A7200011050300022810B50ED1084B084C094949
:10A73000E41AE408240444F003042046FCF7B0F9CA
:10A7400005492046FCF7ACF9012010BD04FA0200CF
:10A750002CFA0200C0030300ED030300032807D115
:10A760004FF08043A922C3F820250020FEF7F6BD54
:10A770007047000008B503784BB9054B3B2118889A
:10A78000FFF70AFF18B1BDE80840FCF7B3BC08BDED
:10A7900060220020072808B513D00A280DD004280D
:10A7A00019D10D4B13211888FFF7F6FE30F008037E
:10A7B00011D0BDE80840FCF79DBCBDE80840FFF79C
:10A7C000F5BE054B1A884FF6FF739A4203D1034832
:10A7D00000F0EAFDEAE708BD60220020CC2C002052
:10A7E00008B548B103280BD10220FFF727FE38B186
:10A7F000BDE80840FCF77EBCBDE80840FFF7D6BEC8
:10A8000008BDFCF777BC000030B54FF40041ADB097
:10A810000020FBF781FF08B1FCF76CFCFBF7B2FEF0
:10A8200004F048FC08B1FCF765FCFCF7B9FE08B180
:10A83000FCF760FCFEF742FD08B1FCF75BFC7549D4
:10A840000320FFF707FE08B1FCF754FC01A9002024
:10A85000FFF792FE08B1FCF74DFC9DF8045004F0A0
:10A860002DFD08B1FCF746FC002301A9012001934E
:10A8700004F0ECFD08B1FCF73DFC01A804F096FEE5
:10A8800008B1FCF737FC02F017FF08B1FCF732FC07
:10A890000522002101A805F01CF8019B03F07C4271
:10A8A0005D4B134301939DF8083023F0030343F0FD
:10A8B000030301A88DF8083002F098FF08B1FCF7F7
:10A8C00019FC564802F07AFF08B1FCF713FC11237B
:10A8D00053488DF8003005F02FF8514982B2684690
:10A8E000FFF75EFE08B1FCF705FC0021082201A875
:10A8F00004F0EFFF4B494FF0C87301A8CDE90113F5
:10A90000FFF74CFE08B1FCF7F5FB0021464801F0CB
:10A91000FDFF08B1FCF7EEFBAC22002101A804F01A
:10A92000D8FF02238DF8043040F20163ADF8063001
:10A9300001243E4B06932C2200211FA8ADF81440A1
:10A9400004F0C7FF44F250634FF49672CDE923231D
:10A9500001A9374B37488DF880402A9300F062FBFD
:10A9600008B1FCF7C7FB0121324800F058FB002377
:10A9700001936946304B3148009302F0BDF808B1AD
:10A98000FCF7B8FB2E4B019301A804F017FB08B1AC
:10A99000FCF7B0FB1C22002101A804F09AFF002361
:10A9A0004FF42032CDE90132ADF812304FF470226D
:10A9B0008DF81430234B039206930322224B8DF81B
:10A9C000102001A8079300F017FE08B1FCF792FBD6
:10A9D0001E4B1F4C1F49E41AE408240444F00304EE
:10A9E0002046FCF75DF8022D0FD11B492046FCF7ED
:10A9F00057F802F053FF08B1FCF77CFBFBF7E6FECB
:10AA00000028FBD1FEF784FCF8E70321094800F099
:10AA100088FBF0E795A702003107100335A6020076
:10AA2000520503005000A000242F00205C220020CB
:10AA3000E1A70200CC2C0020A9A50200382F00209D
:10AA400049A6020075A7020003A8020004FA02004A
:10AA50002CFA0200610503008505030013DF70472F
:10AA600038B540F6F873134C1D68134BE41AE4082C
:10AA70006A1C4FEA044403D1104B1D686B1C11D0B3
:10AA80002A460F4944F00300FCF70EF82846FFF76A
:10AA9000E5FF054620B10B4944F00100FCF700F842
:10AAA000284638BD084944F00100FBF7F9FF0425AA
:10AAB000F6E700BF2CFA020004FA0200141000109E
:10AAC00092050300BD050300F005030038B50B4BEC
:10AAD0000B4C0C4A0C49E41AE408240444F003002B
:10AAE000FBF7E2FF0748FFF7B9FF054620B107492A
:10AAF00044F00100FBF7D4FF284638BD04FA0200F9
:10AB00002CFA02000060020008060300BD050300E5
:10AB10006DDF704779DF70477DDF704764DF704716
:10AB20002DE9F74F0C9CBDF834B0278800258046EE
:10AB30008A4691462E46B8F80020B2420BDC35B169
:10AB40002288013AD21B92B2FF2A39D8DA55002066
:10AB500003B0BDE8F08FD8F8042052F82600019029
:10AB600000220DF1030101A8FFF7D8FF0028EFD163
:10AB70009DF803204A4521D12288002D14BF0020D2
:10AB8000022002EB09010144594519DC3DB90132AB
:10AB900092B2228003F802A0228801322280228809
:10ABA0000DF103011A4401A8FFF7B8FF0028CFD127
:10ABB00021889DF803200A44228001250136BAE746
:10ABC0000C20C5E72DE9F341089CBDF82450174639
:10ABD000CDE9004502220646FFF7A2FF48B9102240
:10ABE00039463046CDE9084502B0BDE8F041FFF7EF
:10ABF00097BF02B0BDE8F0812DE9F04F0023168821
:10AC0000138090F82D3085B007460D46144653B397
:10AC1000082E01D80C2028E102A8FFF779FF0028B0
:10AC200040F0238113880822CA54238801339BB241
:10AC30001B222380CA542088013080B22080062243
:10AC40000DF10901284404F01BFE23889DF808201B
:10AC500006339BB212F0FE0218BF01222380EA5491
:10AC6000238801332380BB78FBB123880433B342AC
:10AC7000D0D802A8FFF74EFF002840F0F6802388C6
:10AC80000322EA54238801339BB219222380EA5419
:10AC90002388BDF8082001339BB2E9182380EA54C9
:10ACA000120A4A70238802332380FA789AB12388E3
:10ACB000D91CB142AED80221E954238801339BB29A
:10ACC00001212380E95423880B449BB22380EA545A
:10ACD00023880B4423807A68AAB12388D91CB14207
:10ACE00098D8022192F90020E954238801339BB2BD
:10ACF0000A212380E954238801339BB22380EA543C
:10AD00002388013323803B89002B40F0A2803B8ABB
:10AD10005BB1CDE900462B460722032107F1100065
:10AD2000FFF750FF002840F0A0803B8B5BB1CDE9DE
:10AD300000462B461522142107F11800FFF742FFA9
:10AD4000002840F092803A6A002A40F09180D7F8BB
:10AD50002480B8F1000F30D0B8F804302188981C56
:10AD60008A1C0244B2423FF655AFFE283FF652AF6E
:10AD700003336B54238801339BB2FF222380EA54B0
:10AD8000238801339BB22380B8F80020EA54E918E5
:10AD9000120A4A702088023080B22080B8F804205D
:10ADA0005AB1D8F8081000296CD0284404F068FD86
:10ADB0002388B8F804201344238097F82C30002B04
:10ADC00040F09B80387800284FD03B88012B59D029
:10ADD000228802F1020CB4453FF61CAF012805D1D0
:10ADE0007B78023313449E42FFF414AF023EB61A3E
:10ADF000B6B202A905EB0C00ADF80860FFF78CFEB7
:10AE000098BB3978BDF80820022900F0BB807B7818
:10AE1000934202D3B24240F2B380012940F0B480A1
:10AE20009BB29E42C0F0B080ADF808300821BDF85A
:10AE30000830FE2B3FF6EEAE22880133AB54228859
:10AE4000013292B22280A954228813442380002028
:10AE50000BE0CDE900462B460622022107F108004F
:10AE6000FFF7B0FE00283FF452AF05B0BDE8F08F09
:10AE7000B4F800C00CF10603B3423FF6CBAE118824
:10AE8000052901D80720F0E76FF4486E01EB0E03A7
:10AE90009BB24FF27D3E7345F4D95388052BF1D90F
:10AEA0006FF44860181880B27045EBD94FF6FF7008
:10AEB000814203D0834201D09942E3D8052305F8AB
:10AEC0000C30238801339BB212212380E95423885C
:10AED00001339BB223801188E954E818090A4170B4
:10AEE000238802339BB223805288EA54E918120A5D
:10AEF0004A7023880233238029E7BB6A002BC1D024
:10AF00004FF000094FF00C0A4FF0160B97F82C3059
:10AF10005FFA89F293427FF655AFB96A0AFB02F2F3
:10AF200001EB0208B8F80430981CFE283FF672AE18
:10AF3000208803332B54238801339BB2238005F8E8
:10AF400003B0238801339BB223808A5AEA54E9185C
:10AF5000120A4A702088023080B22080B8F804209B
:10AF60005AB1D8F8081000298CD0284404F088FC85
:10AF70002388B8F804201344238009F10109C5E7A8
:10AF8000092154E7B242FBD9ADF808604EE770B52D
:10AF9000C0B14AB116880024B44203D305196D78B4
:10AFA0009D4208D0A14201D800200BE0055D01358B
:10AFB0002C44A4B2F0E7A142F6D9A31C1380005D93
:10AFC000013880B270BD13B50023ADF806301346CA
:10AFD0000DF106020446FFF7DAFF10B1BDF80600D6
:10AFE000204402B010BD72DF704773DF704774DF1A
:10AFF000704738B5012204460D46B0F83812D0F833
:10B000003402FFF7E0FF00B1057004F13C0204F5E3
:10B010000D7104F15400BDE83840FFF7E4BF80F83B
:10B0200030107047F8B504460F46002975D0002847
:10B0300073D091F87A301BB191F89830002B6ED113
:10B04000D7F8A030042B6AD0D7F89C30042B66D0F8
:10B0500007F178060FCE4FF0000C251D84F802C0D2
:10B060000FC50FCE0FC596E8070085E8070084F8E6
:10B0700030C0D7F8A4306363D7F8A830A3634FF685
:10B08000FF7504F50D73C4F84432A4F84852072242
:10B09000614604F24A2004F01CFC23780BB984F8C2
:10B0A000545094F82430002B14BFEE231F2304F1D6
:10B0B0005501C4F83412A4F8383204F50E7238463B
:10B0C000FFF79AFD40BB94F82430002B14BFEE2309
:10B0D0001F2304F24311C4F83C12A4F8403204F5D3
:10B0E000107207F13C00FFF787FDA8B9A369A4F827
:10B0F00048304FF480720123A4F850206269206424
:10B100006264014684F83C3004F13C0204F15400CE
:10B11000FFF769FF00B92370F8BD0E20FCE7072098
:10B12000FAE7F8B5077804460D46002F00F00481D1
:10B1300000F24A26A17007220021304604F0C9FB24
:10B14000E38813B1A378012B04D0E3794BB1A37842
:10B15000022B06D1636BA3B1012284F8512208208F
:10B160009847334604F5147113F8012F12B98B4236
:10B17000FAD117466B1E032B52D8DFE803F0050BFC
:10B180000F1284F85132ECE7A3791BB194F8243004
:10B1900003B95FB9E3790BB1002F43D1237A002BB8
:10B1A00042D1637A002B0CBF00250425636BA57088
:10B1B000002B3BD0033D012D38D86279002A35D0D1
:10B1C00094F8522292BB84F85422012284F853222C
:10B1D0000720984704F13C0518220021284604F076
:10B1E00078FBE36A94F82420581E0121022828BF26
:10B1F0000B4684F83C1084F8513032B1884296BF37
:10B20000A36A84F8521084F85230A178002384F89D
:10B21000503004291BD8DFE801F0770D22355900A2
:10B220000025C3E70225C1E70325BFE7002384F813
:10B230005332CFE7C4F84432C4E910630223012239
:10B2400084F83C30802384F83120A4F84830A37877
:10B25000002B5CD1636B002B6AD1002067E00223D6
:10B26000002A84F8313014BF0723032384F83C30CC
:10B270002369A4F848300023C4F84432E368266404
:10B280006364E4E763696364A369A4F8483012B1B6
:10B29000062384F83C306379B3B194F852329BB9F9
:10B2A00094F8543283B1022384F8503004212046AC
:10B2B000FFF79FFE0028CAD1052384F8313004F53A
:10B2C0000D73C4F84432C2E70323F6E7E36963640D
:10B2D000236AA4F8483012B1062384F83C3063791D
:10B2E00083B194F852326BB994F8543253B10223BB
:10B2F00084F8503004212046FFF77BFE0028A6D1B9
:10B300000623DAE70423D8E784F831309FE72A469A
:10B31000D4F8441204F15400FFF765FE38B994F8EC
:10B32000301094F85400FFF760FE002892D0F8BD6A
:10B3300094F83100984790E70820F8E70388112B2C
:10B3400010B50C460AD0262B1FD0102B05D1C37B7D
:10B35000012B02D18388A1F8483210BD00228388D6
:10B3600081F85222B1F848229A42F6D10B79002B8B
:10B37000F3D101212046FFF7D4FE0028EDD0A36BC6
:10B38000002BEAD0BDE810401847037A013B012B9F
:10B39000E3D8897805230131B1FBF3F303EB830391
:10B3A000C91AC9B2E6E7704738B5044690F85400A8
:10B3B000FFF71DFE012384F85232002384F8543233
:10B3C00084F8503006212046FFF713FE054638B9B1
:10B3D000A1782046FFF7A5FE10B1A36B03B19847F3
:10B3E000284638BD30B50D46041D0FCD0FC40FCD16
:10B3F0000FC495E8070084E8070030BD75DF70478B
:10B4000076DF70477ADF70477BDF7047034B1A881F
:10B4100082420CBF18460020704700BF602F0020FA
:10B42000024B9B6903B11847704700BF442F0020AF
:10B4300037B585B22846FFF7E9FF034670B1164CD1
:10B44000017A227B91420BD200F10A012846FFF7D4
:10B45000D5FFE8B1112801D0FFF7E2FF03B030BDFE
:10B46000237C0022027243B13B212846FFF7C8FF2C
:10B4700030F0080301D0FFF7D3FF6369002BEDD054
:10B4800000228DF80420ADF8065001A89847E5E7A2
:10B490001A7A01321A72E1E7442F002013B50B46E5
:10B4A000497A0F4C024669B9D4E901101C7A002C84
:10B4B00018BF01465868FCF7B5F808B1FFF7B0FFB0
:10B4C00002B010BD002119726369002BF8D0012170
:10B4D000ADF806008DF8041001A89847F0E700BF0A
:10B4E000442F00204B8802889A4213D842889A42FF
:10B4F00010D380888A8840F2F313984294BF031ACD
:10B50000C31A934206D800F2F310904234BF0020D1
:10B5100001207047002070470388112B70B5014649
:10B5200048D002D8102B1ED070BD122B52D0502BF9
:10B53000FAD12F4BC288DB899A42F5D1038A022BBC
:10B54000F2D186883046FFF761FF05460028EBD030
:10B5500001F1120000F0E3F930BB6868FCF7A8F8CD
:10B560000028E1D009E0C37B012BDDD14FF6FF704D
:10B57000FFF74CFF054620B90420BDE87040FFF7F7
:10B580004FBF1C4A8E880680002303721368C5F8DB
:10B590000A300A30536843601031FFF7A3FF144BA1
:10B5A0006872DB89002BBFD129463046BDE8704068
:10B5B000FFF774BF8088FFF729FF04460028B3D047
:10B5C0004068FCF775F808B1FFF72AFF4FF6FF73E4
:10B5D0002380A9E786883046FFF718FF0546002834
:10B5E000A2D008310A30FFF77DFF6872DCE700BFA8
:10B5F000442F0020742F0020F8B5064648B30546B6
:10B600000FCD154F3C460FC495E8070084E80700AE
:10B610003068124B3B60B0B1FFF7F4FEC0B931683F
:10B620000A681A604A685A600D480E4A4FF6FF735E
:10B6300003800D4B40F8043F0021FBF7E1FF002899
:10B6400018BF032004E01846FFF7DEFE0028EBD009
:10B65000F8BD0E20FCE700BF442F0020742F00200F
:10B66000602F002031B402007C2F0020F7B5174670
:10B6700001900E4691B1019C6CB100252C462946E3
:10B6800001A8FCF7F9FF18B13946A8B2B047013458
:10B690000135142DF3D1204603B0F0BD0C46FAE776
:10B6A00073B50191019C06466CB100252C462946D4
:10B6B00001A8FCF7E1FF18B106EB440301349D80BB
:10B6C0000135142DF3D13046346002B070BD000056
:10B6D0002DE9F04703888488112B8CB006463CD0B6
:10B6E0001A2B3FD0102B17D1274DAB68DB430093AB
:10B6F00069686846FDF721F8009901A8FFF7D0FFB7
:10B700000DF108094FF00008019B984507D3132C51
:10B7100013D90420FBF7EEFC0CB0BDE8F08739F834
:10B7200002AB00270137514605EB8700FCF79AFF73
:10B730001D2FF7D108F10108E6E721461348FCF771
:10B740007AFF21461248FCF776FFF37B012BE3D00A
:10B7500010482146FCF76FFFDEE70C482146FCF756
:10B7600081FFD9E7057A0C482D09012D214606D91C
:10B77000FCF761FF022D21460848F0D0EAE7FCF70C
:10B7800071FF21460548EAE79C2F0020A42F0020E6
:10B79000A02F0020A82F0020AC2F0020B02F0020C9
:10B7A0001328014602D80248FCF766BF0020704704
:10B7B000A02F002010B50446FFF7F2FF38B1214654
:10B7C0000348FCF759FF002814BF0220012010BDD8
:10B7D000A82F002010B50446FFF7E2FF38B121463C
:10B7E0000348FCF749FF002814BF0220012010BDC8
:10B7F000A42F002010B50446FFF7D2FF28B1214640
:10B800000248BDE81040FCF737BF10BDAC2F002048
:10B8100010B50446FFF7C4FF28B121460248BDE831
:10B820001040FCF729BF10BDB02F002008B518212B
:10B830000248FCF72AFFC0B208BD00BF9C2F0020C1
:10B8400070B50A4D064628460C46FCF715FF58B160
:10B850003046FFF7A5FF38B1A01D314605EB80004B
:10B86000BDE87040FCF708BF002070BD9C2F002091
:10B87000F8B50D4C054620460E461746FCF7FCFE73
:10B8800080B12846FFF78CFF60B1B01D04EB80004B
:10B8900029461FB1BDE8F840FCF7CDBEBDE8F84031
:10B8A000FCF7E0BEF8BD00BF9C2F0020034B9B6857
:10B8B0000A4601461846FFF7D9BE00BF9C2F00205C
:10B8C000F8B50A4C05460E46014620461746FCF7D9
:10B8D000D3FE48B1043504EB85043A46A0683146EE
:10B8E000BDE8F840FFF7C2BEF8BD00BF9C2F0020A6
:10B8F000AADF7047002301380B70042806D8DFE860
:10B9000000F00306080A0C0011230B707047212376
:10B91000FBE73123F9E71223F7E72223F5E7007865
:10B9200000F0010070470078C0F340007047F0B5A8
:10B930008B7891B0002B0C4608BF01238DF80E3098
:10B9400005460B88ADF80C300021164668460322E8
:10B9500003F0BFFF6946607CFFF7CCFF0DF10101EA
:10B96000A07CFFF7C7FF9DF80230E27B62F3C303C0
:10B97000227C62F30413227B62F30003227D002AFF
:10B9800014BF0222012262F3420300211C2209A8F3
:10B990008DF8023003F09DFF637B13F0300F15D05C
:10B9A00002AF03220021384603F093FF0DF1090195
:10B9B000E07CFFF79FFF11238DF808309DF80A30D7
:10B9C0000E97012262F342038DF80A30637B8DF8F3
:10B9D00024301422A37B8DF82530002104A803F025
:10B9E00078FF03AB0493A388ADF81C30A368CDF8AF
:10B9F00014D01BB1E288ADF818200893A369002B7E
:10BA00002ED001AF03220021384603F062FFA36964
:10BA10001A88ADF82C205A88187BADF82E203946AC
:10BA20005A680A920D97FFF765FFA3690DF10501AA
:10BA3000587BFFF75FFFA2699DF80630917A61F3AA
:10BA4000C303D17A61F30413117A927B002A61F364
:10BA5000000314BF0222012262F342038DF8063074
:10BA6000E36903B10C93334604AA09A92846FFF7FA
:10BA70003FFF11B0F0BDA0DF7047A1DF7047ADDF21
:10BA80007047B3DF70470000024B0349187800226B
:10BA9000FFF716BF1D30002095BB020010B504460D
:10BAA000408800F087FDA0802046BDE8104001F0EE
:10BAB000FDBD30B587B005460C461822002168460A
:10BAC00003F007FF072368468DF80030ADF80250F9
:10BAD0000294FFF7E3FF07B030BD000070B586B0F9
