:020000022000DC
:1060000000000120756302005D6302005F6302000F
:106010006163020063630200656302000000000028
:1060200000000000000000000000000067630200A4
:1060300069630200000000006B6302006D630200F0
:10604000E99802006F630200099B02006F6302007F
:106050006F6302006F630200859902006F630200A4
:106060006F6302006F6302006F6302006F630200E0
:106070006F6302006F6302006F6302006F630200D0
:106080006F630200F17002006F6302006F63020031
:10609000AD7102006F630200DD0503006F63020053
:1060A0006F6302006F6302006F6302006F630200A0
:1060B0006F6302006F630200000000000000000038
:1060C0006F6302006F6302006F6302006F63020080
:1060D0006F6302006F6302006F6302000000000044
:1060E00000000000000000000000000000000000B0
:1060F00000000000000000000000000000000000A0
:10610000000000000000000000000000000000008F
:10611000000000000000000000000000000000007F
:10612000000000000000000000000000000000006F
:10613000000000000000000000000000000000005F
:10614000000000000000000000000000000000004F
:10615000000000000000000000000000000000003F
:10616000000000000000000000000000000000002F
:10617000000000000000000000000000000000001F
:10618000000000000000000000000000000000000F
:1061900000000000000000000000000000000000FF
:1061A00000000000000000000000000000000000EF
:1061B00000000000000000000000000000000000DF
:1061C00000000000000000000000000000000000CF
:1061D00000000000000000000000000000000000BF
:1061E00000000000000000000000000000000000AF
:1061F000000000000000000000000000000000009F
:10620000354936480A1A02D0072291438D4634494F
:1062100034480A1A06D00722914381F309880222E2
:1062200082F3148830483149314A00F044F831484B
:106230003149324A00F03FF831483249324A00F0E1
:106240003AF832483249334A00F035F83248334997
:10625000334A00F030F833483349344A00F02BF821
:1062600033483449344A00F026F83448344900228F
:1062700000F02CF833483449002200F027F8334866
:106280003349091A082902DB002202604160314AC1
:1062900090471F481F49884205D00268043003B464
:1062A000904703BCF7E700208646EC46002000211B
:1062B000294A9047FEE7884207D0521A05D0037852
:1062C00001300B700131013AF9D17047884202D098
:1062D00002700130FAE770470000012000E0002062
:1062E000000001200000012004360300CC22002021
:1062F000E8250020D0630200D0630200A00B030059
:1063000004360300CC220020CC220020380D0300EC
:10631000380D0300380D0300380D0300380D03005D
:10632000380D0300380D0300380D03000436030058
:1063300020390300E8250020E8250020E82500207A
:10634000503F0020503F0020503F0020503F002091
:10635000505F00209D63020015B00200FEE7FEE7DB
:10636000FEE7FEE7FEE7FEE7FEE7FEE7FEE7FEE705
:10637000704700BF1048804710484FF0070188431E
:1063800085460D4880470E48016841F47001016060
:10639000BFF34F8FBFF36F8FFFF732BF09480A4932
:1063A0000A4A884207D0521A05D0037801300B7090
:1063B0000131013AF9D17047BD930200000001207C
:1063C00088ED00E0240D0300B8220020CC2200203C
:1063D000F0B595B01C46164608460D4602F0A4FEE0
:1063E0001A9B0D93CDE9086400242346082205A9D1
:1063F00028460A948DF82C400C9402F0B2FE079BBC
:106400000293069B03939DF814308DF8114003F01E
:106410000302012A1DD1BDF81440059EC3F3C20337
:10642000C4F383148DF81030A20008230EA9284667
:1064300002F097FEC6F3952608AB0093224602AB06
:106440000EA9304600F020FC284602F071FE15B07F
:10645000F0BD022AF8D1BDF81640C3F3C203A40967
:106460008DF810300827082C264628BF08263B4602
:1064700032460EA9284602F074FEA41B08AB02AAFD
:1064800031460EA8374400F063FC002CEBD1DBE76B
:10649000014B01221A707047292600207047000026
:1064A00070B50E4D06460FCD88B06C460FC495E80A
:1064B0000F00002E84E80F004FF00603084A094839
:1064C000009308BF0022694603F0A6F908B100F066
:1064D00099FC054B1E7008B070BD00BF380D03005D
:1064E00091640200CC220020E825002007B5044B6F
:1064F0000093044A4023FFF76BFF03B05DF804FBF1
:1065000009650200E925002038B50D4B0D4D00202E
:1065100018700D4804782D5DD2B21C4665B1043068
:1065200003F01CFF08B100F06DFC084B1A7812B1A3
:106530002378002BFBD038BD0C3003F013FDF1E7BE
:1065400029260020002F0020CC220020E825002052
:1065500008B50848084A0378D35C3BB1043003F01F
:1065600099FE0020BDE80840FFF79ABF0C3003F009
:1065700095FCF6E7CC220020002F00200120FFF739
:106580008FBF000008B5FFF7F9FF0421034800F0B2
:10659000E9FA034B01225A7108BD00BF140D030034
:1065A000E0220020037813F0040216D003F0030366
:1065B000012B03D0022B09D0012070470A68008804
:1065C0000232C0F3831002440A60F5E70B68428888
:1065D000023303EB92130B60EEE7104670470000A6
:1065E0002DE9F04F87B000230446851C0DF107000C
:1065F0000F4690468DF8073000F0CAFF4548066800
:106600003E60D0E90132134401339B1B824600F205
:106610001C4600F5836900F21447AB421BD30022ED
:10662000B8F1000F70D0052363F3070264F38912F9
:10663000DAF80010DAF808309DF807000B40033351
:106640000D444AF82320CAF8005000F0C5FF01208D
:1066500007B0BDE8F08F0121304601F0E4FF484665
:1066600001F0FAFF384601F0F7FFDAF80400DAF833
:1066700008B0029000EA0B0003300AEB800002A988
:10668000FFF790FF029B50BB0BEA03020AEB82026A
:1066900003F1020CD2680392013303EA0B0B0AEBFD
:1066A0008B0B02F00302012ACDF808C0DBF80C10B6
:1066B00022D0022A16D08346384601F0D0FF10B10E
:1066C000029BCAF804305946304601F0ACFFDAE9C3
:1066D00001231344DAF8002001339B1A9DE70BEAEB
:1066E0000300C9E7BDF80E309B0903334FEA114B95
:1066F0000CEB93030293DFE7BDF80C30C3F3831375
:106700004FEA114B6344F5E7062363F3070264F392
:106710009F528DE7FC2600200B4B0C48FF2210B542
:106720009A600022C3F81824C3E90022C3F8142495
:1067300083F8202402F0B1FC044610B9044802F0AA
:1067400059FD204610BD00BFFC260020380C030078
:10675000780D030030B50A4C71B10A4A0A49121B80
:10676000D20800239A4201D1002030BD31F82350D5
:10677000854202D00133F5E7034654F83300F4E7CD
:106780004C0C0300140D0300CC220020094B0139EE
:1067900003EBC000032909D8DFE801F00A02040670
:1067A0000420704700797047407970470020704797
:1067B000022070474C0C0300154B93F8203437B57A
:1067C00004460BB918B90024204603B030BD0AF0C6
:1067D000B7F90130009001236A4601A90D4802F083
:1067E00012FD05460028EED12146009A01980AF0D4
:1067F0004BF9DDE900231344064803F8015C0099D6
:1068000002F03BFD0099034802F04EFD019CDBE7DE
:10681000FC260020780D0300034BD3E90030C31A97
:1068200058425841704700BFFC2600202DE9F04334
:1068300087B0FFF7F1FF0646002840F0FB807E4D51
:10684000C5F81804BFF34F8F6868AC680290204009
:10685000033005EB800002A9FFF7A4FE029B18B1EC
:10686000D5F81824002A5FD004EA0302991C0133EA
:1068700005EB8202234005EB8303D268DB680493B7
:1068800002F00303022B0392029162D1BDF80E3095
:106890006A484FEA9318B8F1500FC14628BF4FF02D
:1068A000500969F38F1309F10801ADF80E3002F0B9
:1068B0000CFC0746002800F0A88002F035FC03A974
:1068C00000230822384602F042FC029924EA01061D
:1068D0000136B600B14535D95FFA89F97EB3F6B213
:1068E000A9EB0609214003315FFA89F4B146544E01
:1068F00005EB810108234A46384602F028FC36B1F0
:1069000009F1080322463146384602F020FC029B7A
:1069100008F1030803EB98030293D5F81834002B11
:106920004BD1D5F810445BE02A689A4204D86A60DB
:10693000304607B0BDE8F08304EA030088E7404929
:106940003446D7E72140033108234A4605EB81014D
:10695000DAE7012B59D1BDF80C303848C3F3831165
:10696000062928BF062161F3891302318900ADF899
:106970000C3002F0AAFB0746002846D002F0D4FBF8
:106980000023082203A9384602F0E1FB0026BDF8E7
:106990000C20C2F38312B300964203F10803BCD269
:1069A00002994A1C21400331029205EB8101042225
:1069B000384602F0CCFB0136E9E7384602F0B8FB76
:1069C000FFF72AFF80F00100C6B2B1E7E3685B7908
:1069D00023B1236839461B6820469847E3681C6842
:1069E000002CF3D1384602F0A3FB0DF107008DF81F
:1069F000074000F0CDFDD5F818340BB9029B6B6051
:106A00009DF8070000F0E8FDDAE7D5F8104454B926
:106A10000C4B0D480D49C01AC008000440F002009C
:106A200000F06EF8CCE7236820469B689847E3683F
:106A30001C68ECE700267BE7FC260020380C0300EE
:106A4000082700204C0C0300740C0300840D030085
:106A50002DE9F74F284C80460F46924601A90122A6
:106A600018469B46D4F80890FFF7BAFD80B3019D05
:106A70000026A91C5E4506EB010233D100211F4808
:106A800001F090FD80F310006A1C02EA090204EB99
:106A90008202000405EA0903033340EA1840D0608B
:106AA00014F8232068F3C50204F8232034F82320C7
:106AB00066F3891224F8232054F8232067F39F22D9
:106AC00044F8232002F0F80242F0010204F82320E7
:106AD00094F820341BB1FFF7A9FE0028FBD103B0C6
:106AE000BDE8F08F09EA020204EB82025AF8263070
:106AF000D3600136BEE700BFFC260020182B002023
:106B000000231A46FFF7A4BF07B50123019201AA8B
:106B1000FFF79EFF03B05DF804FB07B5CDE9002346
:106B200002236A46FFF794FF03B05DF804FB1FB52C
:106B3000CDE90123069B039301AA0323FFF788FFF6
:106B400005B05DF804FB1FB5CDE90023069B029359
:106B5000079B03936A460423FFF77AFF05B05DF8AD
:106B600004FB000030B50F49D1F81024002314466F
:106B70003CB9C468237152B9C1F8100422601846A8
:106B800030BDE46825799D4206D02468F0E7D268DC
:106B9000116821601060F2E701330A2BE7D14FF052
:106BA000FF33ECE7FC260020094A38B50123D2F870
:106BB000104482F820341D4604B938BDE3685D7185
:106BC000236820465B689847E3681C68F4E700BFC9
:106BD000FC260020037A052B10B50C460FD0437A13
:106BE00023B1084A0849204601F09FFD0749204685
:106BF00001F09BFD2046BDE8104001F08BBD002A4E
:106C0000F8D0F3E7CF0D0300F8150300F10D0300F2
:106C1000C38873B504460D4633B1144A0092144933
:106C2000144A284601F081FD217A05291CD0637A97
:106C30004BB1A088FFF7AAFD0F4B104953F8202055
:106C4000284601F072FD227A0D4BA08853F822608D
:106C50000021FFF77FFD0B4903463246284602B06C
:106C6000BDE8704001F061BD02B070BDCF0D030002
:106C7000DC0D0300D40D03009C0D0300F815030088
:106C8000000E0300F40D03002DE9F04385B01F460C
:106C90000C9D002306460C46904695F80C902B73ED
:106CA00029463846FFF7B4FFB8F1060F09D8DFE8E8
:106CB00008F00412181F283340003146284601F01E
:106CC00034FD002229463846FFF784FF85F80C90F2
:106CD00005B0BDE8F08322683146284601F025FD65
:106CE000EFE7D4E900233146284601F01EFDE8E72E
:106CF000A36800933146D4E90023284601F015FD2E
:106D0000DFE7E3680193A36800933146D4E90023E9
:106D1000284601F00AFDD4E723690293E368019352
:106D2000A36800933146D4E90023284601F0FDFC16
:106D3000C7E76369039323690293E3680193A36838
:106D400000933146D4E90023284601F0EEFCB8E771
:106D500008292DE9F84F80460E4617461C463AD8BA
:106D6000002593F80C901D7319461046FFF750FF4D
:106D7000DFF884A0DFF884B0AE422ED918F80520E1
:106D80005946204601F0D1FC0135082DF4D11849AF
:106D9000DFF86CB0204601F0C8FC4FF0000A564501
:106DA00020D918F80A507E2D03D8284609F02CFE69
:106DB00000B92E252A465946204601F0B6FC0AF1B4
:106DC000010ABAF1080FEAD1012221463846FFF73D
:106DD00001FF84F80C90BDE8F88F5146204601F081
:106DE000A4FCD1E70349204601F09FFCE7E700BF80
:106DF000CA0D0300C80D0300C60D0300C00D03003B
:106E0000CC0D03001FB50021039001AA44F201003C
:106E1000CDE9011100F004F805B05DF804FB0000B5
:106E200010B572B6FFF7C0FEFFF700FD0028FBD1DA
:106E3000104B114C1149E41AE408240444F00100F9
:106E4000FFF75EFE0E4B1B68DB0700D500BE0D4949
:106E500044F00200FFF754FEBFF34F8F0A490B4B7B
:106E6000CA6802F4E0621343CB60BFF34F8F00BFE8
:106E7000FDE700BF4C0C0300740C03005F0E030021
:106E8000F0ED00E06B0E030000ED00E00400FA05F9
:106E900030B54C1CE40012F00303A4B20ED1084D2F
:106EA0002A602244074C2260074A1370074A137075
:106EB000074A1080074A1846118030BD0720FCE7BA
:106EC000C02B0020BC2B0020B82B0020C82B00209A
:106ED000C42B0020C62B00202DE9F3472B4D2B8817
:106EE0008B4206460C4617464CD34FF000080DF176
:106EF00007008DF8078000F04BFB254B254A1878DA
:106F00001178CBB2244909888B4238BF0133C0B213
:106F100038BF5FFA83F840452ED092F8008013788E
:106F2000DBB2994286BF0133DBB2002313709DF8B8
:106F3000070000F051FB4FF6FF73984524D0DFF8AF
:106F400060A0DAF800304FEAC80903EB090243F801
:106F50003870A6B19CB1114B28881B68224608FBEB
:106F60000030314609F090FDDAF800304B44002043
:106F70009C8002B0BDE8F0874FF6FF78D7E700208D
:106F80009080F6E70920F4E70420F2E7C42B002004
:106F9000C82B0020B82B0020C62B0020BC2B0020C3
:106FA000C02B0020F8B5124C124D264622782B78C3
:106FB0009A4200D1F8BD23780F48104A078812681A
:106FC0000F48DBB219B202EBC10C006852F8312055
:106FD000BCF8041003FB070090470A4A2378128884
:106FE000DBB29A4286BF0133DBB200233370DDE7A8
:106FF000C82B0020B82B0020C42B0020C02B002061
:10700000BC2B0020C62B0020094A5378917801330D
:10701000DBB2994208BF0023117899421FBF037069
:107020005078182303FB002014BF04300020704761
:10703000CC2B0020082910B5044602D00020FFF711
:10704000E1FED4E90030BDE81040184773B50546AD
:1070500000240DF107000E468DF8074000F098FA65
:107060000DF10600FFF7D0FF90B10670094B9DF8B7
:10707000062045605A709DF8070000F0ADFA24B96B
:10708000054B4FF48012C3F80021204602B070BDBA
:107090000424F0E7CC2B002000E100E0024B4FF489
:1070A0003C6043F001031847800E030038B50C4BD9
:1070B0000C4C4FF40032C3F8802001254FF480338C
:1070C000C4F84833C4F808336560FFF7E7FF064BA0
:1070D000A56000241C60FFF7E1FF044B1C7038BD65
:1070E00000E100E000100140E82C0020D92C002035
:1070F000264B2DE9F3411B6825490025C1F8405175
:10710000C1F84451C1F84851C1F84C51C1F800517F
:10711000C1F80451002B34D0D1F804451D49DFF8E3
:1071200088800968641A24F07F442F461A68A242B6
:1071300012D8A41A15441A7CDE6962B15A691F7408
:1071400000929B690193424608216846FFF7C4FEFE
:1071500008B1FFF757FEBEB90F4A104B11781B78E4
:107160008B4205D10133DBB2022B08BF0023137021
:1071700012780B4B43F822500A4B4FF48012C3F89D
:10718000002102B0BDE8F0813346CFE7EC2C0020AF
:1071900000100140E82C0020E52C0020E42C002009
:1071A000DC2C002000E100E0357002002DE9F04FFA
:1071B000A04AA14913780978A04D994285B03CD0E6
:1071C0000133DBB2022B08BF002313709C491278F5
:1071D0009C4B0F6853F822003B1823F07F4300229A
:1071E0000B602B6816461446944613B942B12B60C7
:1071F00006E0196881420ED902B12B60091A1960A4
:107200004FF001082B68DFF844A201930027BEB9B4
:10721000DFF840B266E0401A0C44D968C3F800C0F9
:10722000D3F81CE031B13A1922F07F42C3E90121C1
:10723000DE611E4601227346D7E70026B046E1E72D
:107240003446F6697E4A63681268DFF80CC2A068AB
:10725000991A21F07F41614500F2A5800144216027
:10726000012222742A680023C4E90133E361002A61
:1072700040F0A2802C60CAE75A1C9BF80210D2B2E0
:1072800091428BF8002004BF00228BF800201822C6
:1072900002FB03B31A799C68022A1CD0032A12D07D
:1072A000012A1FD1207CE8B9D3E90312A2605A69F0
:1072B000E2609A69644BA2611B78002B0CBF0B46FD
:1072C00003466360BEE700222B681146002B66D19F
:1072D00042B12B6006E029680A468946002A59D146
:1072E000002323749BF800309BF801209A42C3D1FD
:1072F0002B682FB9019A9A4202D1B8F1000F43D0FE
:10730000002B73D0D3F800A0504D4D4BD5F8047529
:107310001C68DFF848813E1B98F8003026F07F4655
:1073200003369BB94FF48033C5F84433C5F80433B2
:10733000474B4FF400324FF00109C3F880211A6027
:10734000C5F80090FFF7AAFE88F80090B2452CBF60
:107350005444A41924F07F44C5F84045D5F80435B9
:10736000DB1B23F07F43E41B033324F07F44A34261
:107370000AD9D5F80435C5F84035FFF78FFE344BF0
:107380004FF40032C3F800212F4B00221A7005B0D1
:10739000BDE8F08F94422CD09146D2699EE71974D3
:1073A0000122DB6992E7D31A23F07F43834234BF83
:1073B000C31A0023236053E721681368994213D846
:1073C000591A1160E26155E7091AD8691A4638B1AD
:1073D000034618688842F7D3401A186018461346C7
:1073E0002160E061DC6112E71346F2E7FFF75EFE21
:1073F000CAE74C4511D1CB692B6073B9DFF840E087
:107400000120CDE90212CAF80800CEF800300E4B78
:107410001870FFF743FEDDE902121368D269C9F85C
:107420001C2012B11068034413602B68994218BFE6
:10743000012755E7E42C0020E52C0020EC2C00204F
:10744000E82C0020DC2C0020D82C0020001001406B
:1074500000E100E0CC2B0020FEFF7F00D92C0020B3
:1074600008B5FFF723FE104B00200B2218809A70FE
:107470000E4B18600E4B18700E4B18700E4B4FF4DD
:107480008012C021C3F8802183F814131A6002F11E
:107490008042A2F56F22C2F8080583F81113074B4A
:1074A000D2F804251A6008BDCC2B0020EC2C00205B
:1074B000E42C0020E52C002000E100E0E82C002076
:1074C000074B9B784BB132B128B10368187C20B9C7
:1074D00059745A617047072070470820704700BFF1
:1074E000CC2B00202DE9F7431E4FBB7805460E46F6
:1074F0009046A3B398B304292FD943697BB3437C47
:107500000024012B0DF107000CBF8946A1468DF820
:10751000074000F03DF80DF10600FFF775FDD0B112
:1075200001230370104B4560D3F80435C0E904987B
:10753000C0E902369DF806307B709DF8070000F028
:107540004BF824B9094B4FF48012C3F800212046B0
:1075500003B0BDE8F0830424EFE70724F7E708242D
:10756000F5E700BFCC2B00200010014000E100E057
:10757000064A92783AB130B1426922B100220274CF
:107580000221FFF763BD0820704700BFCC2B00200D
:1075900070B5EFF3108672B60C4A946801239CB95B
:1075A00093600B4B0B4DD3F8801029401160C3F84A
:1075B0008050D3F8841051604FF0FF32C3F884201C
:1075C000047006B962B670BD0370FAE7F02C0020B3
:1075D00000E100E0FC06FFBD084B9A6810B55AB107
:1075E00050B9EFF3108172B6054A1C6814605C68EC
:1075F0005460986001B962B610BD00BFF02C002045
:1076000000E100E070B5064D0646002455F8043B45
:107610000BB1304698470134042CF7D170BD00BF40
:10762000082D0020033080B240F2FD33984230B57F
:107630001FD8124B1A783AB91C895D892C4404442E
:10764000A4B2B4F5806F0AD31A7DA2B99A8BDC8BF1
:107650002244024492B2B2F5806F0CD201220A8019
:107660001446142202FB04335A8910445881002026
:1076700030BD0920FCE70720FAE700BF3C2D0020C1
:107680000B4A0C4B5188142000FB0131CB6833B9F5
:107690000420496810700122074801F0C9BA052387
:1076A0000649137002238B80012200230968F3E747
:1076B000202D00203C2D0020B8220020042E002088
:1076C00007B5002305490093054A096805480823C2
:1076D00001F018FA03B05DF804FB00BF042E00208F
:1076E000940E0300B822002007B500230093014642
:1076F0000823034A034801F005FA03B05DF804FBD0
:107700008C0E0300B822002013B500230C46009312
:1077100001460423074A084801F0F4F938B9074B39
:10772000142202FB04340123237402B010BD0E2086
:10773000FBE700BF880E0300B82200203C2D00208C
:1077400037B50A480A4B42689C8819685388032554
:10775000033305709BB2002000909B0001EB840175
:10776000044801F0CFF903B030BD00BF202D002048
:10777000042E0020B822002010B50146044800F075
:1077800045FE1C220446002109F0A7F9204610BD41
:10779000F02D002068B10268084B9A4209D1406878
:1077A000074B984207D0013398420CBF01200320B9
:1077B0007047032070470020704700BFDEC0ADDE79
:1077C000FE011EF14388033300EB8303994209D382
:1077D00082884FF6FF739A4206D00088B0FA80F094
:1077E0004009704702207047012070472DE9F84397
:1077F0000223DFF860800B800D46174600F58056A7
:1078000000F108044FF00109B4420FD2236801339C
:107810000CD031462046FFF7D5FF48B10FB187F8AD
:10782000009002280BD14FF480632B80BDE8F883D1
:10783000A368D8F80020934201D9C8F800302B88FB
:107840006288033313442B806388033304EB83047F
:10785000DAE700BF342D0020154A142303FB002073
:1078600070B50B6844680D4604F58056ABB15C8872
:10787000033403EB8404B4420DD2236801330AD0ED
:1078800031462046FFF79EFF01280BD010F0FF0F76
:1078900005D00228EFD1002003E00834EBE72C608C
:1078A000012070BD6388033304EB8304E3E700BF6A
:1078B0003C2D0020436873B504460D466BB3244A43
:1078C000D1688B4229D31269934226D813F0030260
:1078D00023D120490089098988421ED120689968EE
:1078E00088421AD11C494868834203D900F5805068
:1078F00083420ED38A6993420DD902F58052934296
:1079000009D201232B800020B0FA80F0400902B098
:1079100070BD1346F6E70A20F6E700232B801E46CB
:10792000019601A92888FFF797FF30B92B8801330A
:107930009BB2012B2B80F3D9E9E7019B2268996860
:107940009142EED16360034B1B892381DFE700BFC7
:10795000B8220020202D00203C2D00202DE9F843E6
:107960001C461C4B1B7806460F4615466BB372B37C
:107970006CB3DFF868804FF01409A388012B01D99C
:107980000A2020E009FB03F318F803302BB9214645
:10799000A088FFF761FF20B92060A3880133A3808E
:1079A000EBE723681EB1998832889142EFD11FB16D
:1079B00019883A889142EAD19A68C5E90023064BB2
:1079C0001B892B810020BDE8F8830220FBE70520FE
:1079D000F9E700BF182D0020202D00203C2D0020AD
:1079E00008B5074B191D5888FFF736FF18B1BDE8D9
:1079F0000840FFF7A5BEBDE80840FFF741BE00BF45
:107A0000202D00202DE9F04FA04FDFF8A49289B07F
:107A10000646B8463B6823B949469D4800F030FD0C
:107A20003860D8F8005029784B1E052B00F2FA80F8
:107A3000DFE813F006005E005E00EE00EE005C0181
:107A400026B1944B00225A600124ECE02B79032BE1
:107A50001DD8DFE803F015022A358F490B78022B79
:107A6000084619D00B7D022B4FF0010316D11422CA
:107A70005343C2180020C8545068FFF735FE03E096
:107A800001232B71FFF71CFE002800F0BC80814B06
:107A900000225A600E24C6E00023E8E77D4A1370F6
:107AA0000023536041F61D54BDE07C497C4800230F
:107AB00002222B718A800122096801F0B9F8E3E7FC
:107AC000764C00262E712068734DFFF70DFE754B26
:107AD000D4F800C05A8814235343EA18EE5451686E
:107AE0002160A188C2F804C011810222A280CBE7E4
:107AF000B5F814A0AA7DDFF8A0B1AEB1022AEB88D8
:107B000006D9142101FB0AB1DA1C088902440A8152
:107B1000142202FB0ABAC3F57F43BAF80A20FD33E8
:107B20001344AAF80A308FE7142303FB0AB3188919
:107B30005C6804EB8004062A68D8DFE802F0274D71
:107B400035431D59040041F61D54AA7DEB88022AD5
:107B500006D9142101FB0AB1DA1C088902440A8102
:107B6000142202FB0ABAC3F57F43BAF80A20FD3398
:107B70001344AAF80A3056E04B484C4900234360AE
:107B8000AB690360FFF796FE002871D00223AB7546
:107B9000002300930423EA182146414800F0B2FF75
:107BA000002830D00E24D0E72B69002B14BF03230C
:107BB0000123AB750023009305F10C02042304F1AB
:107BC0000801EAE70123AB750022EB8800929B00D5
:107BD0002A6904F10C01E0E703290CBF0523062301
:107BE000AB7500230093042305F10802E118D4E7E4
:107BF0000623AB752D4B19882B4B5868FFF784FD76
:107C000004460028A1D109B0BDE8F08F0F249CE7FD
:107C1000002E7FF419AF2B79012B4BD0E3B1022B4F
:107C20003FF440AF0F241422002103A808F055FFB1
:107C300041F61D539C4208BF0024D8F8003004943C
:107C40001A78023A042A00F20581DFE812F0E60011
:107C5000F20015011D01240102232B710DF10A010F
:107C6000EB68039303A8CDE90466FFF723FE08B988
:107C70000A24D8E70498BDF80A108388EB800388AB
:107C80002B81FFF741FD044627E000BF382D00207F
:107C9000F02D0020182D00203C2D0020042E002067
:107CA000B8220020202D0020FC2C0020102E0020C7
:107CB000302D0020DFF8FCA103AA53463146A81D51
:107CC000FFF74CFE044658B9BAF804100498FFF7C1
:107CD0001BFD04460A2C3FF4E5AE002CA3D192E72D
:107CE00008223146504608F0F8FEF3E7002E7FF4F4
:107CF000ABAE6B4B1A7BAAB11E731A78013A062AF7
:107D000090D801A151F822F0AF7D0200D57D02008C
:107D1000F37D0200F97D0200257C0200FF7D020058
:107D2000117E02001A78072AE7D801A151F822F043
:107D3000517D0200FB7C0200FB7C0200777D02008B
:107D40008B7D0200AB7D0200AB7D0200737D0200E3
:107D50001A89544901321A8100225A801A730A780A
:107D6000B2FA82F252099A720A7DB2FA82F252098A
:107D7000DA72012207E04C4958688A884088033249
:107D800002448A8002221A70B7E7464C5A88464954
:107D9000142505FB024208685468506088881081E9
:107DA00002228A800C600622EDE70722EBE79A7A2E
:107DB00032B9DA7A8AB900221A705A805A6071E6AA
:107DC000384900229A72CA68002AF2D1097C002937
:107DD000EFD05A80FFF704FE55E70022DA72314AED
:107DE000116A0029E7D192F82420002AE3D0012269
:107DF000EFE7FFF7A5FC46E7FFF742FC43E7294A18
:107E00005B88142101FB03235868FFF76DFC3AE7F8
:107E100000225A60FFF754FC35E701228DF80C2050
:107E20001A89ADF818209A88DB68ADF81A200593F6
:107E300010E002228DF80C201A89ADF818209A88DB
:107E4000ADF81A20DA689B7D05929A1F5342534180
:107E50008DF81C3003A8FFF7D5FB002649461348D0
:107E6000C8F8006000F037FB0121114800F0E6FB84
:107E700000287FF4CFADC6E603228DF80C20DA8807
:107E8000ADF818201A89CFE70422DB888DF80C2082
:107E9000ADF81830DEE705238DF80C30DAE700BFC7
:107EA000202D00203C2D0020042E0020F02D00204D
:107EB000002E0020142E00204068FFF7A3BD000014
:107EC00008B50121044800F0A3FB18B9BDE808403B
:107ED000FFF798BD08BD00BF002E00202DE9F3413B
:107EE0009846354B1B7806460D46002B5BD0002983
:107EF0005BD009884FF6FF73994258D06B88002BEE
:107F000055D06B689B0754D14AB92F890DF10201F6
:107F10003846FFF787FB30B102B0BDE8F081138827
:107F20005788ADF8023001A8FFF726FC044658B97F
:107F3000BDF80230214A142101FB0323588903387C
:107F4000C01B58810820E7E700238375BDF8023085
:107F500083826B68036180F800800121184800F07B
:107F600062FB2B882381B8F1030F6B88A38004BFC9
:107F70000423A3754FF0000508BF3368E06008BF15
:107F8000A361E780658101A90E4800F069FA36B166
:107F9000E36833600C4B75601B89B5723381FFF762
:107FA0008FFF0020B8E70220B6E70520B4E70420E1
:107FB000B2E70320B0E700BF182D00203C2D0020C1
:107FC000342D0020F02D0020202D002008B5084B76
:107FD0001A68042A09D01968064A42F821000121CA
:107FE000184600F020FB002008BD0C20FCE700BF75
:107FF0000C2E0020082D00202DE9F04F14228BB00C
:1080000000210DEB020008F068FD764A137803F0BA
:10801000FF01CDE901123BB105A8FFF7F3FA0027F4
:1080200038460BB0BDE8F08F029B181D00F011FB25
:108030000028F4D140F6F8734FF080521B685C1CA6
:1080400008BF694B694C08BF1B6811695269581C0D
:1080500008BF02FB01F323610022A3F540536449EA
:10806000E360204600F01AFD039407460028D7D1AC
:108070001C238C225F496048DFF88891DFF88881F3
:1080800000F08FF93D46BA464FF0030B3C46039B88
:10809000DE68564430463146FFF77CFB01284DD060
:1080A00042B2002A36D0032822D106F58052086851
:1080B000013040F08A8004318A42F8D1D9F800209A
:1080C0003AB902220123C9F80060A9F804200193FB
:1080D0000CE014226243022008EB020108F80200BF
:1080E000464A4E60548001340881A4B245F001052F
:1080F0000AF5805ABAF5405FC9D1BBF1010F98BFAC
:108100000025EDB2022D03D0062D35D0002D3CD137
:108110000B2785E71421614308EB010008F80120D3
:1081200001F1100208314660424441443046FFF7F5
:108130005DFB45F002050134A4B2D9E7019B63B1B0
:108140001422624308EB0201022008F80200013405
:10815000D9F800204A600881A4B200222849C9F851
:1081600000603046FFF742FBB9F80420022A0CBF3A
:10817000042208221543BBE7029A0123137005A8C5
:1081800000235360FFF73EFA4AE704A8FFF7F4FA2A
:10819000C8B10123013D03700A2D09D8DFE805F0BD
:1081A00006080608070807080F110F0000230371CF
:1081B00004A9114800F054F9FFF782FE30E70323C9
:1081C000F5E70223F3E708272AE70BF1FF321FFA4E
:1081D00082FB1422624308EB02014E60032108F87F
:1081E0000210A8E7182D002014100010B82200205B
:1081F00088100300642D0020F02D0020202D002089
:10820000082E0020042E00203C2D002073B50D46C2
:108210000446C8B1C1B10DF10601FFF74BFBA8B18F
:108220000B4BBDF806006668142202FB00300121EA
:108230000C3000F0F8F963682E600C336B6001239A
:10824000A372002002B070BD0520FBE70A20F9E709
:108250003C2D002013B50446A8B10DF10601FFF72F
:1082600029FB90B10B4ABDF80630142101FB032312
:10827000DA6862B1A27A52B1DA680020013ADA60B3
:10828000A07202B010BD0520FBE70A20F9E7062026
:10829000F7E700BF3C2D002002230022FFF71EBE9F
:1082A00018B103230022FFF719BE05207047000014
:1082B000104B1B7813B50446ABB14FF6FF739842D1
:1082C00013D001A8FFF758FA88B1052303700123E2
:1082D0000371C48001A9084800F0C2F8FFF7F0FD5F
:1082E000002002B010BD0220FBE70420F9E70820BF
:1082F000F7E700BF182D0020F02D00200E4B1B7853
:1083000007B5A3B101A8FFF737FA90B106230370B0
:1083100001A90A4800F0A4F8094B1A780AB1012211
:108320001A73FFF7CDFD002003B05DF804FB0220B7
:10833000FAE70820F8E700BF182D0020F02D0020F4
:10834000202D002007B5ADF80600ADF804100DF1A2
:10835000060001A9FFF702FB03B05DF804FB07B5B7
:108360001346ADF806000A4600200DF10601FFF79E
:10837000F5FA03B05DF804FB07B51346ADF8060047
:108380000A460DF106000021FFF7E8FA03B05DF898
:1083900004FB20B119B103680B6000207047052071
:1083A000704710B561B1B2FBF3F403FB1424A4B21F
:1083B00044B9C0E9001484608281C381204610BDA5
:1083C0000E20FCE70920FAE782B050E8022FC188AE
:1083D000B2EB324F4FF0000317BF92B241EA0141B6
:1083E00042EA014104E04268B2EB324F08BF012388
:1083F00040E80212002AE8D18DF807309DF80730D6
:10840000002B0CBF1120002002B0704737B550E898
:10841000013F9DB2C48925448489A54228BF2D1BF4
:108420000489A54202BFBFF32F8F002207E0C5EAEF
:10843000030540E80154002CE9D14FF001028DF80A
:1084400003200193019B9DF803200B6002F0FF03C2
:1084500022B10B880068184403B030BD1846FBE712
:108460000A884B889A4209D150E8012FC2EA024299
:1084700040E80123002BF7D101207047002070470E
:1084800037B550E8023F1FFAA3F5C488A54202BFE2
:10849000BFF32F8F00220DE0C48925448489A542B3
:1084A00028BF2D1BC3EA054540E80254002CE8D143
:1084B0004FF001028DF803200193019B9DF80320EA
:1084C0000B6002F0FF0322B14B880068184403B030
:1084D00030BD1846FBE70A884B889A4209D150E81C
:1084E000022FC2EA224240E80223002BF7D10120EA
:1084F00070470020704701F01F024B090121914095
:1085000000EB830000F063B84B0910B501F01F04C5
:108510000121A14000EB830000F04EF8E04000F0A4
:10852000010010BD01F01F0301229A404B0900EB2E
:108530008300D14300F061B84B0901F01F0150F8EE
:108540002300C84000F0010070472DE9F0474E1E9F
:10855000760980460F460136002558F8254008EB7D
:108560008509E44394FAA4F4B4FA84F44FEA451A72
:10857000202C06D10135AE42EFD83C462046BDE85E
:10858000F0875444A742F5D921464046FFF7BCFF87
:108590000028F3D0D9F80040E44394FAA4F4B4FAE4
:1085A00084F4E5E750E8002F0B4640E8003C9CF0DF
:1085B000000FF7D11046704750E8002F42EA010340
:1085C00040E8003C9CF0000FF6D11046704750E8A0
:1085D000003F43EA010240E8002C9CF0000FF6D176
:1085E0001046704750E8002F02EA010340E8003CC3
:1085F0009CF0000FF6D11046704750E8003F03EAA8
:10860000010240E8002C9CF0000FF6D110467047A4
:1086100050E8002F02EB010340E8003C9CF0000F03
:10862000F6D11046704750E8003F03EB010240E8E6
:10863000002C9CF0000FF6D11046704750E8003F28
:10864000A3EB010240E8002C9CF0000FF6D110468D
:1086500070470121FFF7B0BF0121FFF7B8BF00212C
:10866000FFF7C0BF0021FFF7C8BF10B590B1D0E938
:10867000012301689B1ADBB20A60013BDBB2FF2BCE
:10868000026802D10020107110BD11684C1C1460EA
:108690000B70F2E70E20F7E737B5054600240DF121
:1086A00007008DF80740FEF773FF2A686B681168B2
:1086B00099420ED9481E106011F8014CEB68298AC6
:1086C00001FB0434AB6811791B1ADBB2994238BF45
:1086D00013719DF80700FEF77FFF204603B030BD01
:1086E00037B5054600230DF107000C468DF807301D
:1086F000FEF74EFF2A681368591C1160E968641A76
:10870000298AB4FBF1F41C709DF80700FEF764FFA2
:1087100003B030BD826810B504462AB143690168D0
:10872000006998470023A36010BD0EB403B50399F8
:1087300021B104AB01AA019300F074F802B05DF816
:1087400004EB03B070470A2938B504460D4602D140
:108750000D21FFF7F8FFA3682268591CA160D554CA
:10876000D4E901329A4204D32046BDE83840FFF7ED
:10877000D1BF38BD2DE9F84F9946DDE90A431746C8
:10878000824688460A460126BA420FD24E4538BF75
:108790004E4613F0010B01D164B900240125B9F153
:1087A000010F1AD909F1FF397D43F8E7B2FBF7F25F
:1087B0000136E9E79B070ED5B9F1000F0CBF302554
:1087C0002025A642EAD2013C29465046FFF7BBFFCE
:1087D000002CF6D1E1E72025F3E7B8FBF5F39F4243
:1087E000E2D9DFF83C90B8FBF5F3504619F80310D6
:1087F00005FB1388FFF7A7FFB5FBF7F3BD4207D2D0
:10880000BBF1000F02D00CB1A64203D3BDE8F88F34
:108810001D46E8E720215046013CFFF794FFF2E7B0
:108820009C0E03002DE9F74F0546174688460029A0
:1088300000F0318118F8011B49B92B7B002B00F0A7
:108840002A81284603B0BDE8F04FFFF763BF252912
:1088500040F0C080002698F800302D2B424608F1E9
:10886000010823D0302B24D02B2B25D000242A2BF9
:1088700002F1010123D13B681A1D1B683A601C44B8
:108880000A4613782E2B26D101324FF0000A1046EB
:1088900010F8011BA1F1300CBCF1090F1DD80A23FF
:1088A00003FB0A13A3F1300A0246F0E746F0010683
:1088B000D1E746F00206CEE746F00406CBE711F812
:1088C000013CA3F130000928DBD80A2202FB043462
:1088D000303C0A46CBE74FF0000A12F8011B01F0CA
:1088E000FB0068289046F8D069290ED04AD858294C
:1088F00064D006D825296DD098F80030002B99D186
:108900009BE7632962D06429F6D13A68D2F80090D7
:10891000111D89EAE9723960A2EBE9724FF0010B8F
:10892000092A5BDCD34538BFD3462CB1B9F1000F1F
:1089300001DB710700D5013CB20702D5BAF1000F87
:1089400004D0F30702D4002C4ED10024B9F1000F5B
:1089500052DAC9F100092D212846FFF7F4FE06F08E
:108960000302022A05D1BAF1000F02D1002C47D12F
:108970000024CDE9004653460A2249462846FFF71F
:10898000F9FEB9E773294CD014D87029B4D13B68EB
:108990001A1D3A60302128461C68FFF7D4FE782162
:1089A0002846FFF7D0FE00220823CDE900322146F9
:1089B0001022E3E775292BD078299DD139680A1D4B
:1089C0003A60CDE900465346102228E03B681A1D64
:1089D00019783A602846FFF7B6FE8DE70A230BF1B7
:1089E000010BB2FBF3F29BE7A345AFD2202128464F
:1089F000013CFFF7A8FEA6E77007B0D52B21ABE737
:108A0000A345B6D230212846013CFFF79CFEADE7D6
:108A10003968CDE900460A1D3A6053460A220968C2
:108A2000ACE73B681A1D3A60F107D3F8009020D4F8
:108A3000B9F1000F25D0484608F082F80646B44246
:108A400000D9C4B909F1FF3920E028460136FFF703
:108A50007AFE19F806100029F7D1A642BFF44CAFF0
:108A6000002C3FF449AF20212846013CFFF76BFE64
:108A7000F3E70026EDE720212846013CFFF763FEDF
:108A8000DDE74E46DBE72846FFF75DFE19F8011FDC
:108A90000029F8D130E703B0BDE8F08F07B50B46E9
:108AA00088B9124B1248134AC01A0E23C00800930B
:108AB000114B0004114940F00100FEF738F80E2078
:108AC00003B05DF804FB4BB9084B09480C4AC01AC7
:108AD000C0080E2300930004074BEBE703601B68FC
:108AE000114603B05DF804EB184700BF4C0C0300BF
:108AF000A40C0300590F0300AC0E03005E0F03002B
:108B0000D50F03002DE9F34188B93D4B3D483E4A5E
:108B1000C01AC0080E243D4B009400043C4940F0AC
:108B20000100FEF704F8204602B0BDE8F0814AB922
:108B3000334B3448374AC01AC0080E24000400944E
:108B4000324BEBE7D0F800C0BCF1000F09D12C4B41
:108B50002C48314AC01AC0080824000400942B4B4A
:108B6000DCE74BB9264B27482C4AC01AC008092419
:108B700000040094254BD1E74768D7F80480B3FB85
:108B8000F8F708FB17374FB11D4B1E48244AC01A8F
:108B9000C0080924000400941C4BBFE78F0709D0CC
:108BA000174B18481F4AC01AC0081024000400942C
:108BB000164BB3E712F0030F09D0114B11481A4AB4
:108BC000C01AC008102400040094104BA6E7C76820
:108BD000B9420BD34C1E05691C44AC4206D8DCF8E4
:108BE0000C40A44602B0BDE8F0416047044B054884
:108BF0000E4AC01AC008102400040094034B8DE7ED
:108C00004C0C0300A40C0300590F0300BE0E03001C
:108C10005E0F0300DB0F0300CF0F03008E0F030076
:108C2000E10F03000B1003002310030046100300A4
:108C3000F7B580B92A4B2B482B4AC01AC0080E241E
:108C40002A4B009400042A4940F00100FDF76FFF11
:108C5000204603B0F0BDD0F800C0BCF1000F09D130
:108C60001F4B2048234AC01AC0080824000400945F
:108C70001E4BE8E74AB91A4B1A481F4AC01AC008E7
:108C8000092400040094194BDDE74768D7F800E099
:108C90000EF1FF370F4209D0114B1248174AC01A84
:108CA000C008102400040094104BCCE7C768B942F8
:108CB0000CD34C1E05690EFB0244AC4206D8DCF80E
:108CC0001040A44603B0BDE8F0406047044B05489F
:108CD0000B4AC01AC008102400040094034BB2E7EA
:108CE0004C0C0300A40C0300590F0300D10E030029
:108CF0005E0F0300CF0F03008E0F0300E40E03008E
:108D00000A0F030029DF704728DF704770B503683A
:108D10009D6886B004460E466DB114220021684657
:108D200007F0DBFEA3680593237901962BB1012B95
:108D30000DD06846A84706B070BD01238DF80030FD
:108D400023690293E368039363690493F1E70223C1
:108D50008DF80030E3681B030293F5E7084670477F
:108D600000207047024B187A003018BF012070476E
:108D7000B82E0020034B187A0122B0FA80F05A7402
:108D800040097047B82E002008B510461A4607F073
:108D90007BFE002008BD000008B514220021044815
:108DA00007F09BFE0348FFF70FFB002008BD00BF44
:108DB000B82E0020A82E002010B5094C094B4360A6
:108DC0002046FFF746FC40B907F0ECFB1C2320745B
:108DD0008C2205490548FFF7E4FA002010BD00BFCA
:108DE000B82E00207C1003001C2E0020A82E00208E
:108DF00070B5244D244E2B7A2C463BB92349244888
:108E0000FFF73EFB306008B9686070BD0223237233
:108E100033681A7972B1012A24D018460321FFF76A
:108E200075FF00232372636018491948BDE870403C
:108E3000FFF751BBD3E90520121AB2F5805F28BFB6
:108E40004FF48052D3E903159208012A014438BF38
:108E500001222844FFF756FF50B11128DDD101232C
:108E60002372D2E7D3E903021044FFF74DFFF3E783
:108E7000237C002BC9D10146BDE87040022000F0E0
:108E800009B800BFB82E0020D02E0020CC2E002024
:108E9000A82E002038B5831E012B45D8234C237AF9
:108EA000002B41D0022B09D1032830D0204B1B6866
:108EB0000022E2601A793AB1012A22D0637C7BBB9E
:108EC000BDE83840FFF794BFD3E905128D1AB5F518
:108ED000805F94BF521902F580529A619142EDD1A0
:108EE00002284FF0000308BF19462372104B18BF29
:108EF0000D211868FFF70AFF0E490F48FFF7EBFA3C
:108F0000DCE71A6901321A615B699A42E7E7E368B4
:108F10000133082B01D8E360D0E70023E360DFE7EB
:108F2000BDE8384007F02EBB38BD00BFB82E00208A
:108F3000D02E0020CC2E0020A82E002000F0FD0313
:108F4000012B08D1044B00225A74421E504250415A
:108F50001874FFF74DBF7047B82E002010B5064CAF
:108F6000201DFFF776FB28B9637C1BB9BDE81040D4
:108F7000FFF73EBF10BD00BFB82E00202DE9F34122
:108F800080460D460F4801A916461F46FFF73EFAD8
:108F90000446A8B11C22002107F09FFD2D0B0123E0
:108FA000237101A9C4F80080A760E56066610548E7
:108FB000FFF756FAFFF7D2FF002002B0BDE8F081BC
:108FC0000420FAE7A82E00202DE9F74381468846C1
:108FD000104801A917461E46FFF718FA0446B0B11B
:108FE0001C22002107F079FD00250A9BA36001A93E
:108FF0002571C4F80090C4E9037866610548FFF75D
:109000002FFAFFF7ABFF284603B0BDE8F08304203A
:10901000FAE700BFA82E00202DE9F047B0F806902F
:109020004479D2F800A09DF8208009FB04F4043CA8
:1090300006460AEB0300A0420F4688BFA4EB030AD2
:10904000191DC2F800A0B1FBF9F509FB15114DB9C6
:10905000A9EB0104544528BF5446BAF1000F04D1CE
:10906000BDE8F0873668013DF1E704317B197018DF
:109070002246B8F1000F0ED001461846AAEB040AAA
:1090800007F002FDD145254436684C464FF00001FB
:1090900028BF5446E1E71946F0E7FFF7E6BAF8B50E
:1090A00046790146721E0546002393422D6803D37C
:1090B0000024A64202D8F8BD0133F6E70F6828461F
:1090C000FFF70EFB01343946F3E72DE9F843068A32
:1090D000CD1C0746FFF7E0FA043E35440446B5FBD5
:1090E000F6F5F0B14FF48073EDB28380C680013D98
:1090F000076081464FF00008A84512D23846FFF7B6
:10910000CBFA064648B163790133637108F101086F
:10911000C9F8000007608146EEE72046FFF7BFFF71
:1091200034462046BDE8F88301210430FFF77BBABE
:1091300010B5012104460430FFF780FA10F0FF0F4C
:1091400004D12046BDE81040FFF7A9BF10BD1FB5F0
:1091500003920022009203AAFFF75EFF05B05DF8BC
:1091600004FB1FB503920122009203AAFFF754FFEC
:1091700005B05DF804FB41DF70470000064B10B5F9
:1091800000241C70054B1C60BFF35F8F0449054829
:1091900000F09BF8204610BDDC2E0020E02E0020C1
:1091A000A8100300D42E002007B500230DF10700FE
:1091B0008DF80730FEF7ECF9F1EE103A23F09F033B
:1091C000E1EE103ABFF35F8F094B4022C3F88421D0
:1091D0009DF80700FEF700FA07F0E4F920B1FFF769
:1091E000CAFF03B05DF804FB20BF40BF20BFF8E713
:1091F00000E100E0836800225A609A60C3E904221B
:10920000DA601A6070472DE9F04106460F46904635
:109210001D468BB9B0687368D0E9031403F1010CE3
:109220000A1B62450FD10024C8F800401DB3FFF7A8
:1092300019FA0020BDE8F0818068FFF70AFA0028DB
:10924000E8D01120F6E701EA030223409A4238BF32
:109250006444D8F800302CBFACEB0204641A9C4282
:1092600028BF1C463368C8F8004013443B60C368FD
:109270001C44C460DDE72846DCE782684368106967
:1092800010B50133946803441B1B8B420AD30C4472
:10929000C2E902441046FFF7E2F9002814BF00209B
:1092A000082010BD0420FCE7806808B582680369C7
:1092B000D21A8A4207D30B44C0E904330430FFF7C3
:1092C000D1F9002008BD0420FCE70B684A68436020
:1092D000934208BF0023016008BF436070474368A2
:1092E00043B10268916852680B449342436004BFE3
:1092F000002343607047000010B50D49A1F594723A
:10930000914201D800200FE08B1ADB1003EBD373DE
:109310005B1002EBC30452F83330834205D802D20B
:1093200004F10802ECE7606810BD2146E8E700BFE1
:10933000F811030008B5FFF7DFFF024B002808BF54
:10934000184608BDBD1003000C4B1B78062B10D12E
:109350000B4B1B681A070CD10A4B186800F0F0037E
:10936000302B08D000F0E000A0F1400358425841F3
:109370007047002070470120704700BFE00F00F0E9
:10938000E40F00F0E80F00F0094B1B78062B0CD11E
:10939000084B1B681A0708D1074B186800F0F0004B
:1093A000A0F130035842584170470020704700BF79
:1093B000E00F00F0E40F00F0E80F00F008B5FFF751
:1093C000C3FF28B17D4B7E4A1B68C3F3042313609F
:1093D000FFF7DAFF10B17B4B7B4A1A60FFF7B4FF4F
:1093E00028B17A4B7A4A1B68C3F342331360FFF704
:1093F000CBFF20B1774AD36823F08073D360FFF7A7
:10940000A3FF40B14FF080430022C3F80C21C3F802
:109410001021C3F83825FFF7B7FF10B16E4B0322B8
:109420001A60FFF7B1FF40B16C4B05221A600122B0
:109430009A6700229A603F225A60694B1B78062B7C
:1094400050D1684B1B6819074CD1674B1B6803F060
:10945000F003502B46D14FF08052644BD2F80414E5
:10946000C3F82015D2F80814C3F82415D2F80C1448
:10947000C3F82815D2F81014C3F82C15D2F8141418
:10948000C3F83015D2F81814C3F83415D2F81C14E8
:10949000C3F84015D2F82014C3F84415D2F82414A8
:1094A000C3F84815D2F82814C3F84C15D2F82C1478
:1094B000C3F85015D2F83014C3F85415D2F8341448
:1094C000C3F86015D2F83814C3F86415D2F83C1408
:1094D000C3F86815D2F84014C3F86C15D2F84424C8
:1094E000C3F87025FFF730FF28B1414B414A1B6894
:1094F00003F04F031360FFF727FF48B14FF080439D
:10950000D3F80024D20744BF6FF00102C3F800244F
:10951000394B1B68062B08D1384B1B68062B01BF43
:10952000374A136843F480631360364AD2F88830B0
:1095300043F47003C2F88830BFF34F8FBFF36F8FCF
:109540004FF01023D3F80022002A03DBD3F80432B3
:10955000002B2FDA2C4B0122C3F80425D3F800246A
:10956000002AFBD04FF010221521C2F80012D3F8C8
:109570000024002AFBD04FF010231522C3F8042248
:10958000214B1A46D3F800140029FBD00021C3F860
:109590000415D2F80034002BFBD0BFF34F8F1949CC
:1095A0001A4BCA6802F4E0621343CB60BFF34F8FDB
:1095B00000BFFDE7164B174A1A6008BD24030010D0
:1095C0004035014074C007400DF0ADBA44020010B0
:1095D0003C050040F0ED00E0A005004010560040C2
:1095E000E00F00F0E40F00F0E80F00F000C00040D2
:1095F00058020010E40E0040300100103401001049
:109600003C17004000ED00E000E001400400FA05D6
:10961000E82200200090D0034FF0A043D3F80405C7
:109620006FEA506000F0010070474FF0A0434FF028
:109630000072C3F80C2570474FF0A0434FF0007242
:10964000C3F8082570474FF0A0434FF00072C3F8ED
:10965000082570474FF0A0434FF00072C3F80C2567
:1096600070474FF0A042D2F80435D94301F00071A1
:1096700003F00073C2F80815C2F80C357047C30731
:1096800008D54FF0A0430322C3F864274FF00072BF
:10969000C3F808257047000038B5074C051E04F1D3
:1096A000080318BF1C4623682BB11A6822605B6848
:1096B00028469847F7E738BDEC2E002020B9054B27
:1096C00001225A70FFF7E8BF012802D1014A9070C9
:1096D000F8E77047E42E002020B9034B01225A70AE
:1096E000FFF7DABF704700BFE42E002038B50B4CFF
:1096F000237883B90A486360A3602361E36000F0C4
:10970000C9F8054606F04EFF08B900F0CFF801236E
:109710002370284638BD8525FBE700BFE42E0020D6
:10972000BD96020037B50B4C00230DF107008DF8F4
:109730000730FDF72DFFE368013BE360E56815B9ED
:1097400000F0C6F8A5709DF80700FDF745FF03B0CF
:1097500030BD00BFE42E0020012813B509D018B198
:1097600003281CD002B010BD0F4B0122C3F880208B
:10977000F8E70E4C00230DF107008DF80730FDF7D8
:1097800007FF23780BB9FFF7B1FFE3689DF80700E7
:109790000133E3600123A370FDF71EFFE2E700F051
:1097A00085F8FFF7BFFFDDE700E100E0E42E0020D1
:1097B0001FB503788DF800304368019383688DF8F6
:1097C0000830C3680393054A054B684653F82130B7
:1097D00052F82110984705B05DF804FBF82E0020E0
:1097E000FC2E00201FB503788DF8003043680193EC
:1097F00083688DF80830C3680393054A054B6846B3
:1098000053F8213052F82110984705B05DF804FB59
:10981000F82E0020FC2E0020F0B5194B067891F8A8
:109820001DE043F82620174B94460A6943F826208A
:10983000154B03F806E00C4607460FCC89B06D4681
:109840000FC594E80F0085E80F000496BEF1000FE5
:109850000AD0BCF1000F0D4A694608BF0022381D2E
:1098600000F056FC09B0F0BDBCF1000F084A694693
:1098700008BF002207F10C0000F056FAF2E700BF23
:10988000FC2E0020F82E0020002F0020B1970200AF
:10989000E5970200044A137923B9012110609180F1
:1098A0001846704785207047042F0020074B1A6820
:1098B000D2075FBFC02283F8002301221A604FF055
:1098C00080430122C3F81825704700BF00E100E083
:1098D000044B01221A604FF08042D2F81834DB03A7
:1098E000FBD470470C000040154B07B51A687AB1DD
:1098F00000221A601B680093009B4FF080430122F6
:10990000C3F808230F4B587910B95A711B68984750
:109910000D4B1A6882B100221A601B680193019BEB
:109920004FF080430222C3F80823064B1B68012036
:1099300003B05DF804EB184703B05DF804FB00BF0B
:1099400000010040042F00200401004000F180408D
:1099500000F5C040002382B0036003680193019BBF
:1099600002B07047800000F1A040D0F8003723F427
:109970004033C0F80037D0F8003743EA0141C0F85F
:10998000001770472DE9F04F85B000245A4D01941F
:109990004FF48072012102F1804303F5C04390B27D
:1099A0001B68012B06D1D5F804330B4202D0FFF718
:1099B000CDFF0C430432B2F5907F4FEA4101EAD16A
:1099C0004E4B1B68012B0AD14FF4BE70FFF7BEFF50
:1099D0004FF0A04344F00044D3F81035019314F045
:1099E000FF0F1AD0464F00250126344210D0AB009D
:1099F00003F1804303F5C043D3F81005D3F81015E5
:109A000057F8253023B1C1F30141C0F30420984732
:109A10000135082D4FEA4606E7D1002C64DA002212
:109A20004FF0FF33CDE90223354D01274FF0000AF7
:109A3000344E54464FF0A04816F9012B531C46D023
:109A4000D2B222F0C0094FEAD90104A8084402F0BA
:109A5000070310F804CC07FA03F31CEA030F36D00F
:109A600005EB090C92099CF930C055F82CB0BBF1FC
:109A7000000F0AD1032A2AD10DF1080E1EF801C0E9
:109A80004CEA030C0EF801C001E0032AF4D009F5FA
:109A9000E07110F80C0C58F821101842C1F3014184
:109AA00005D0022913D1032A0BD1114604E0032962
:109AB0000DD1032A05D102214846FFF753FF013497
:109AC000E4B2BBF1000F02D011464846D8470AF174
:109AD000010ABAF1040FAFD134B14FF0A043019A9B
:109AE000D3F81035934202D105B0BDE8F08F019351
:109AF000029B03939AE700BF006000407C61004036
:109B00000C2F00205C2F0020014B1B68184700BF62
:109B1000682F00200E4B984237B50D4602D000202A
:109B200003B030BD00230DF107008DF80730FDF7BD
:109B30002FFD084B1C7914B901221D601A719DF884
:109B40000700FDF749FD002CE9D01120E8E700BF30
:109B500000200040682F0020034B984201BF034BB8
:109B600000221A601A71704700200040682F002000
:109B70000023435082B043580193019B02B07047C9
:109B80000A4610B54FF48E71FFF7F2FF136A916821
:109B9000C95C136A01331362C0F81C1510BD8B69D0
:109BA0000A4610B54FF4847123B9FFF7E1FFD0F8EE
:109BB000183510BDFFF7DCFF536AD168D0F81805DF
:109BC000C854536A01335362F3E700001FB5012301
:109BD0008DF80030044BCDE90110D3E9001268463E
:109BE000904705B05DF804FB702F002030B54C4A5B
:109BF000D2F8043313F4007F85B015464FD0D2F865
:109C00002431002B4BD04FF492711046FFF7B0FF78
:109C10004FF40173C2F80833424B93F8291009B985
:109C2000012151603E4902228DF80020D1F88024A4
:109C3000C1F8802403929A690292DA6801920022A4
:109C4000C3E906226846D3E9001290473448D0F8A9
:109C50001C315BB133490A6A4B699A420A464BD2BE
:109C600091F82830002B47D1FFF78AFF2C4AD2F811
:109C7000443193B14FF4A2711046FFF779FF294B9D
:109C800093F8291009B1012111609A692AB10022C3
:109C90009A61586AD968FFF799FF05B030BDD5F8C9
:109CA00004335B07D2D5D5F80831002BCED01D4C3C
:109CB0001B482146FFF773FF636AA2699A42234655
:109CC000C4D1E269E1684AB12369E3600023606AB4
:109CD000A261E3616362FFF779FFB7E794F8292097
:109CE0000AB901226A600E4A4FF40170C2F80803F3
:109CF00000229A61586AEEE74FF48E710848FFF728
:109D000037FF51690029B1D00023029191688DF885
:109D10000030019153616846D2E900139847A5E7E6
:109D200000200040702F00202DE9F843564F0479A1
:109D300091462C2202FB0472064692F82A200D4618
:109D4000002A40F09A8051490068FFF7E3FE804600
:109D5000002840F0958029683368481C0BD04FF0EC
:109D6000A04001228A40C0F8082501F5E0724FF0BA
:109D7000030C40F822C06868421C1FBF00F5E07267
:109D80004FF0A04C4FF0000E4CF822E0AA6995F875
:109D900014C0C3F824256A7DBCF1010F4CEA02020D
:109DA000C3F86C25C3F81405C3F80C151DD1AA68B7
:109DB000511C1FBF02F5E0714FF0A0404FF0000CA6
:109DC00040F821C0E968481C0BD04FF0A04C01209E
:109DD0008840CCF8080501F5E0704FF0030E4CF810
:109DE00020E0C3F80815C3F810252C236343FA18A4
:109DF000C2F804902A69FA50B9F1000F2AD04FF442
:109E00008E7130682D7FFFF7B3FE30684FF4A2717A
:109E1000FFF7AEFE32681E4BC2F80433120B51B28C
:109E20000029A8BF01F160404FEA4513BABF1948A5
:109E300002F00F0500F56140DBB2B4BF435580F876
:109E4000003302F01F02012303FA02F24909124B08
:109E500043F8212033680422C3F800252C2303FB98
:109E600004730022C3E9062283F829205A610122E3
:109E700083F82A204046BDE8F8834FF00808F9E748
:109E80004FF01108F6E700BF702F0020ED9B020095
:109E90008000020014ED00E000E100E0F8B5047974
:109EA00000682D4D0023C0F800352C2303FB04531C
:109EB0005B6873B1294BC0F80833020B53B2012120
:109EC0005B0902F01F0201FA02F22033244941F833
:109ED0002320D0F80C65D0F81415D0F80835D0F848
:109EE00010254FF0FF37BE42C0F8147518BF06F5B5
:109EF000E076C0F80C75C0F80875C0F810751EBF84
:109F00004FF0A0474FF0020C47F826C04E1C1FBF71
:109F10004FF0A04601F5E071022746F82170511C70
:109F20001FBF4FF0A04102F5E072022641F8226007
:109F30005A1C1FBF03F5E0734FF0A042022142F804
:109F40002310FFF709FE2C2303FB0454002384F89D
:109F50002A306360F8BD00BF702F00208402020029
:109F600000E100E02DE9F843224F06794FF02C097B
:109F700009FB067480466569002D37D16261A160D6
:109F800025624FF48E71006884F82850FFF7F0FDC9
:109F9000D8F80000012383602146FFF7F1FD6368D4
:109FA000A1462BBBD8F80050226A63699A4212D3AB
:109FB000D8F80030D3F81C21002AFBD00122DA6047
:109FC00000202C2303FB067600237361BDE8F88391
:109FD00094F8283043B9D5F81C31002BF8D0494605
:109FE0002846FFF7CDFDDFE70F20EAE71120EDE778
:109FF0002846EBE7702F00200023435082B04358DF
:10A000000193019B02B070471FB501238DF800300A
:10A01000044BCDE90110D3E900126846904705B022
:10A020005DF804FB9C2F00207FB5374AD2F82461ED
:10A03000002E48D010464FF49271FFF7DDFF022347
:10A040008DF80030D2F88034C2F880340393D2F80F
:10A050003C3502932D4BDA6801920022C3E90622B7
:10A060006846D3E900129047274AD2F844317BB1C1
:10A070004FF4A2711046FFF7BFFF244B996939B125
:10A080000021C3E90611D968D2F83C05FFF7BCFFEF
:10A090001D4AD2F82031A3B14FF490711046FFF75A
:10A0A000ABFF1A4B596961B1D2F84C1502910022ED
:10A0B00099688DF8002001915A616846D3E9001231
:10A0C000904704B070BDD2F81031002BCCD04FF4C3
:10A0D00088711046FFF790FF0C4BD2F83C05996948
:10A0E0008842C1D1DC69D96864B1D2F8005225F048
:10A0F0002005C2F800521A699C61DA60DE61FFF740
:10A1000083FFB1E79C61FAE7002000409C2F00200C
:10A110002DE9F8435A4F06799146242202FB067234
:10A12000044692F820200D46002A40F0A2805549AE
:10A130000068FFF7EFFC8046002840F09D8029680A
:10A140002368481C0BD04FF0A04001228A40C0F881
:10A15000082501F5E0724FF0030C40F822C0686852
:10A16000421C1FBF00F5E0724FF0A04C4FF0000EF4
:10A170004CF822E0AA6995F814C0C3F824256A7D3A
:10A18000BCF1010F4CEA0202C3F86C25C3F80C15B0
:10A19000C3F814051DD1AA68511C1FBF02F5E07158
:10A1A0004FF0A0404FF0000C40F821C0E968481C77
:10A1B0000BD04FF0A04C01208840CCF8080501F5E9
:10A1C000E0704FF0030E4CF820E0C3F80815C3F818
:10A1D000102524237343FA18C2F804902A69FA5010
:10A1E000B9F1000F34D04FF4887120682D7FFFF74C
:10A1F00003FF4FF490712068FFF7FEFE4FF4927159
:10A200002068FFF7F9FE20684FF4A271FFF7F4FE13
:10A2100022681D4BC2F80433120B51B20029A8BFAB
:10A2200001F160404FEA4513BABF184802F00F052C
:10A2300000F56140DBB2B4BF435580F8003302F053
:10A240001F02012303FA02F24909114B43F82120AE
:10A2500023680822C3F80025242303FB0673002289
:10A26000C3E906225A61012283F820204046BDE856
:10A27000F8834FF00808F9E74FF01108F6E700BF40
:10A280009C2F002029A002001003020014ED00E022
:10A2900000E100E0F8B5047900682D4D0023C0F816
:10A2A0000035242303FB04535B6873B1294BC0F8CA
:10A2B0000833020B53B201215B0902F01F0201FABD
:10A2C00002F22033244941F82320D0F80C65D0F85D
:10A2D0001415D0F80835D0F810254FF0FF37BE42DE
:10A2E000C0F80C7518BF06F5E076C0F81475C0F814
:10A2F0000875C0F810751EBF4FF0A0474FF0020C54
:10A3000047F826C04E1C1FBF4FF0A04601F5E07174
:10A31000022746F82170511C1FBF4FF0A04102F5E3
:10A32000E072022641F822605A1C1FBF03F5E07359
:10A330004FF0A042022142F82310FFF70DFC242326
:10A3400003FB0454002384F820306360F8BD00BF91
:10A350009C2F00201003020000E100E001F06043A8
:10A36000B3F1005F2DE9F041074632D11C4B06796D
:10A37000242505FB063598466C6964BB6A61A960B3
:10A3800000684FF49071FFF737FE4FF4AC713868F6
:10A39000FFF732FE3B686A69A968C3F84415C3F841
:10A3A000482501229A606A68BAB9D3F82011D3F817
:10A3B000582149B9002AF8D00F20242303FB068630
:10A3C00000237361BDE8F081002A14BF0F20002034
:10A3D000F3E71020F6E71120F4E72046F2E700BF8C
:10A3E0009C2F00200220FFF73CB90000034B1B7894
:10A3F00013B10020FFF720B9FFF725B9C02F0020C7
:10A40000F8B57B4C237805461BB100232370FFF77A
:10A41000EDFF172D00F28880DFE805F00C171743D9
:10A4200054657680888D888D959A9A9A9A9AC4C92F
:10A43000D1D9E4E4FFF7DAFF6E48FDF799F86E4BE7
:10A44000002204461A702046F8BD0020FFF7E4F809
:10A45000F8B10020FFF7F0F8022D0CBF4FF4E161D6
:10A460004FF47A61644B1D704FF400404FF4FA745E
:10A470000025E0FB01454FF47A720023204629466F
:10A4800006F002FA002201465A48BDE8F840FDF7FE
:10A4900029B8FFF7CAF8022D0CBFC8214FF4C871C4
:10A4A000E0E70020FFF7B8F840B10020FFF7C4F85C
:10A4B0004FF44871504B03221A70D5E7FFF7B5F8F7
:10A4C000C821F7E70020FFF7A7F838B10020FFF711
:10A4D000B3F84FF47A61484B0422EDE7FFF7A5F893
:10A4E0004FF4C871F7E70020FFF796F848B1002055
:10A4F000FFF7A2F8404B05221A7041F69A1100228C
:10A50000C2E7FFF792F8F5E70020FFF7AAF83A4B09
:10A5100006221A70002240F6CD41B5E70020FFF771
:10A5200084F8354B07221A7000248CE70120207034
:10A53000FFF797F8EEE701202070FFF792F800226E
:10A540004FF48041A0E7FFF785F82B4B0C22EAE798
:10A550002A482B4EFDF70CF8D5F1110504461CD006
:10A56000D8B9012D13D0C8235D434FF400474FF4F1
:10A57000FA7000214FF47A720023C7FB050106F040
:10A5800083F9224601461D48FCF7ACFF0446022031
:10A59000FFF74BF80123337055E70220FFF74CF823
:10A5A0000023F8E7FFF722FF134B1222BBE7FFF768
:10A5B0001DFF0020FFF739F80F4B1322B3E7FFF719
:10A5C00015FF0120FFF731F80B4B1422ABE7FFF723
:10A5D0000DFF0020FFF729F80120FFF726F8064BB2
:10A5E0001522A0E7FFF736F8034B1D709CE700BF6C
:10A5F00008300020E42F002009300020C42F002064
:10A60000C02F0020044B1B68DB0703D5034B1878D1
:10A61000FFF7F6BE704700BF04300020093000206D
:10A62000044B1B6813F0010301D0FFF7E9BE184685
:10A63000704700BF0430002008B50B4B186010F0C5
:10A6400001000FD00120FFF71AF8084A084800213E
:10A65000FCF736FF30B9074A07480121BDE808403A
:10A66000FCF72EBF08BD00BF0430002005A6020085
:10A67000D8150300E5A30200D41503000720704796
:10A680000620704708B5012202210020FFF7F6FFDF
:10A6900008B1072810D1072202210120FFF7EEFFA1
:10A6A00008B1072808D100210A220846FFF7E6FF73
:10A6B00010B1072808BF002008BD00000388102B38
:10A6C00010B502D0112B1ED010BD1A4C2168B1B9A3
:10A6D00001220846FFF7D2FF08B1072824D107223C
:10A6E00002210120FFF7CAFF08B107281CD104226C
:10A6F00002210020FFF7C2FF08B1072814D1236808
:10A7000001332360E0E70B4A1368013B1360002B21
:10A71000DAD1FFF7B7FF0028D6D0074B1B68002B14
:10A72000D2D0BDE810401847034B1B68002BE6D081
:10A730009847E4E7103000200C30002008B50020D6
:10A74000FFF79EFF08B1062806D10120FFF798FF0A
:10A7500010B1062808BF002008BD0000054B186096
:10A7600009B100230B70044B1B680BB9FFF78ABFBC
:10A77000002070470C3000201030002076DF70473A
:10A780007ADF70477CDF70478FDF704733DF7047B9
:10A79000FCF738BB08B50020FFF742FF08B1FCF713
:10A7A00031FBFFF7CBFF08B1FCF72CFBFFF7EEFF07
:10A7B00018B1BDE80840FCF725BB08BD043810B54A
:10A7C0000D2828D8DFE800F00B27271727270727B1
:10A7D000272721284054BDE81040FFF7DBBF2C4B52
:10A7E00013211888FFF7CAFF30F0080313D0BDE823
:10A7F0001040FCF707BB274B1A894FF6FF739A42AC
:10A8000009D1254801F027FAEEE72449214805F04F
:10A81000BEFC0028EBD110BD214C6368002BFAD19F
:10A820002388002BF7D01F4B1F48A2681F49C01A6E
:10A83000C008000440F00300FCF766F92288A16814
:10A84000144805F02BFBE4E7144C63791A07E2D5B2
:10A85000144B15481649C01AC008000440F0030004
:10A86000FCF74EF9002221680A4805F0A1FCD0E768
:10A870000A4C6379DB06CED50A4B0B480D49C01A4A
:10A88000C008000440F00300FCF73AF90122EAE7AF
:10A89000EC22002020330020C8300020F4350020B6
:10A8A000DC3500204C0C0300740C0300D0170300AF
:10A8B000E1170300FD17030013B5044604F0BCF9CB
:10A8C0002388212B3FD005D8102B0CD0112B25D05D
:10A8D00002B010BD3B2B01D0562BF9D11321A0881B
:10A8E000FFF74CFF15E01C4B1C481D49C01AC0085F
:10A8F000000440F00300FCF703F90720FFF790FE87
:10A9000008B1FCF77FFA174BA1881748198002F0AD
:10A910001FFF0028DCD0FCF775FAD9E70E4B0F4873
:10A920001249C01AC008000440F00300FCF7E8F820
:10A930000C4BA0884FF6FF721A800D4B1989884284
:10A94000C6D11A81C4E7002301A9A088ADF804305C
:10A95000FFF71AFFDDE700BF4C0C0300740C030087
:10A96000B7170300EC220020E8360020C2170300CE
:10A970002033002010B501460446044805F018FABB
:10A9800021460348BDE8104005F0A0BC203300205C
:10A99000B835002000B5B3B0072830D8DFE800F0A4
:10A9A0002D2F2F0415212F32214B22482249C01A66
:10A9B000C008000440F00300FCF7A2F80220FFF7F3
:10A9C0002FFEE0B1FCF71EFA19E0194B19481B499C
:10A9D000C01AC008000440F00300FCF791F80420FE
:10A9E000EDE7134B13481649C01AC008000440F0A5
:10A9F0000300FCF785F80320E1E7FFF7CBFE33B057
:10AA00005DF804FB0823CDE9023312AA03AB02A9C7
:10AA100004A803F067FD08B1FCF7F4F9039B009369
:10AA2000029A084812AB04A901F004F9C9E700BF73
:10AA30004C0C0300740C0300D0180300E118030051
:10AA4000F2180300C8300020037837B504461BB164
:10AA5000032B3FD003B030BD051D418822482A4654
:10AA600005F0AFFC08B1FCF7CDF90DF106016088E7
:10AA700003F090FD08B1FCF7C5F9762200211B48D0
:10AA800006F02BF81A4B2A46143452F8041B43F8EC
:10AA9000041BA242F9D112881A80164B01221A70A7
:10AAA000154B1B786BB10023EC221049BDF8060052
:10AAB00003F0F6FD862801D1FDF720FC08B1FCF774
:10AAC000A1F90121084805F0D9FB0028C2D0FCF704
:10AAD00099F9BFE7084A4188084800231370054ADE
:10AAE000137001F0F3FCF0E7B8350020FC350020CE
:10AAF00006360020D835002080340020EE220020C9
:10AB00000378F7B50446062B70D8DFE813F007008A
:10AB10006F0071006F00C400F000040100F14002FA
:10AB20004188914805F079FB08B1FCF76BF90DF10C
:10AB30000601608803F02EFD08B1FCF763F98B4D28
:10AB400076220021A81805F0C8FF04F1480303CBC2
:10AB50001B88A5F888302346C5F8800053F8522F8B
:10AB6000C5F892205A681B89A5F89A30B4F85C3071
:10AB7000A5F89C302346C5F8962053F8622FC5F8F7
:10AB8000A4205A681B89A5F8AC30B4F86C30A5F83D
:10AB9000AE30774BC5F8A82001221A70754BC5F866
:10ABA00084101B786BB10023EC222946BDF8060007
:10ABB00003F076FD862801D1FDF7A0FB08B1FCF774
:10ABC00021F96D4D642445F001054FF47A40A84702
:10ABD000013CFAD1644805F023FA08B1FCF712F9F8
:10ABE000614805F037FA08B1FCF70CF903B0F0BD85
:10ABF000043494E80300614B614C624DE41AE408AC
:10AC0000240444F0030485E803005F492046FBF771
:10AC100077FF5E4B2A795E4953F822202046FBF7E6
:10AC200073FF5C4BAA795C4953F822202046FBF75E
:10AC30006BFFEA7959492046FBF766FF2A685849B5
:10AC40002046FBF761FF57492046FBF759FF6B7918
:10AC5000DE0703D554492046FBF752FF6B7998076E
:10AC600003D552492046FBF74BFF6B79590703D5B3
:10AC70004F492046FBF744FF6B791A0703D54D492E
:10AC80002046FBF73DFF6B79DB06AFD54A492046EE
:10AC9000FBF736FFAAE700F1100696E80700474BDE
:10ACA000374D83E8070035482D1AED081888444BC6
:10ACB0002D0445F0030598B1104653F82170FBF7B9
:10ACC0007BFD3A4603463F492846FBF726FF63696A
:10ACD000002B8BD196E807003B4B83E8070085E704
:10ACE00053F8212039492846FBF70EFFEFE7234BA5
:10ACF0002348C01AC008238A000440F003002BB187
:10AD0000A369334A2F49FBF708FF6FE7304A2F4901
:10AD1000FBF7FAFE6AE78389A3F5D073032B3FF6AE
:10AD200065AFDFE803F0020B12191548134B2949F0
:10AD3000C01AC008000440F00300A9E710480F4BF8
:10AD40002549C01AC0080004F5E70D480B4B2349FC
:10AD5000C01AC0080004EEE70948084B2049C01A91
:10AD6000C0080004E7E700BF20330020FC350020C6
:10AD700080340020D8350020201803004C0C03003C
:10AD8000740C0300F4350020DC1503007818030070
:10AD9000EB15030048180300FB1503000B16030016
:10ADA0001B1603002B160300321603003A1603008D
:10ADB000451603005316030064160300E83500200F
:10ADC0002818030075160300DC3500207C160300EC
:10ADD0008616030093160300D71603001917030005
:10ADE0006E170300F8B510224FF6FF711A4C1B487E
:10ADF0001A4F05F072FE08234FF6FF70236003F030
:10AE0000DBFB0023236009254FF6FF76B042216863
:10AE100001D0013D17D1114803F05AFB08B1FBF7EF
:10AE2000F1FF21680D4803F075FB062802D008B138
:10AE3000FBF7E8FF03210A4800F0B9FD50B1BDE877
:10AE4000F840FBF7DFBF4B1C236027F8110003F02D
:10AE5000B3FBDBE7F8BD00BFF4360020F836002076
:10AE6000C8300020F0B5044695B003F0C1FE20467E
:10AE700003F0E4FC23780C2B00F29180DFE803F070
:10AE8000078F888F8F8F8F8F918F8F8F8D00A088E6
:10AE90004FF6FF73984200F08280EC230DF106021A
:10AEA0004E49ADF8063003F0B9FB052816D161888C
:10AEB0004B48002205F085FA08B1FBF7A3FF494B88
:10AEC000494800211970494B4FF43372197005F04D
:10AED00004FE6188444801F0F9FA55E008B1FBF737
:10AEE00091FF434B43484449C01AC008000440F056
:10AEF0000300FBF705FE414B02AD03F110072A46A4
:10AF0000186859682E4603C60833BB423546F7D148
:10AF10001B8833806188324805F053FA08B1FBF78B
:10AF200071FF01212E4805F0A9F908B1FBF76AFF6E
:10AF30002A4B1D4609AA55F8800F696803C2298962
:10AF400011801A462E4852F8921FCDF82E105168E3
:10AF50001289ADF83620B3F89C20ADF838201A4697
:10AF6000CDF8321052F8A41FCDF83E105168128966
:10AF7000CDF84210ADF84620B3F8AE306188ADF898
:10AF8000483007AA05F049F948B1FBF73BFF06E056
:10AF9000134842891AB961888CE7FFF723FF15B07F
:10AFA000F0BD237CDB07FAD5237A072BF7D1154DAB
:10AFB0002B68072BF3D81448A28820F81320591CBB
:10AFC000296003F0A7FA062802D008B1FBF71AFFA0
:10AFD00029680D4803F07CFAD6E700BFFC35002055
:10AFE000B835002080340020EE220020D835002023
:10AFF0004C0C0300740C03001219030006360020E9
:10B0000020330020F4360020F8360020FBF7FABE8B
:10B01000FBF7F8BE00B54FF40041AFB00020FBF7DE
:10B020007BFB08B1FBF7EEFEFBF7ACFAFCF718FA76
:10B0300008B1FBF7E7FEAE490320FFF7FDFA08B1C0
:10B04000FBF7E0FE03A90020FFF788FB08B1FBF740
:10B05000D9FEA84A9DF80C500A210820FBF718FFDA
:10B0600008B1FBF7CFFEFEF789F808B1FBF7CAFE7F
:10B0700005F01AFA08B1FBF7C5FE002303A9012069
:10B08000039305F0E7FA08B1FBF7BCFE03A805F04F
:10B0900091FB08B1FBF7B6FE112397488DF80430F9
:10B0A00005F04EFD944982B201A8FFF76BFB08B191
:10B0B000FBF7A8FE0822002103A805F00EFD8F482B
:10B0C0004FF0C873CDE9030303A8FFF759FB08B19C
:10B0D000FBF798FE00218A4802F032FA08B1FBF72C
:10B0E00091FE884801F0B8F908B1FBF78BFE864B5A
:10B0F00086480093694602F019FB08B1FBF782FE0F
:10B100000021082203A805F0E8FC814B8148039345
:10B1100003A905F097F808B1FBF774FE0822002197
:10B1200001A805F0DAFC20237B4A7C48002105F0C9
:10B1300006F808B1FBF766FE2023794A774800211C
:10B1400005F010F808B1FBF75DFE2023754A73483F
:10B15000012104F0F4FF08B1FBF754FE2023724AEA
:10B160006E48032104F0EBFF08B1FBF74BFE2023F0
:10B170006E4A6A48022104F0E2FF08B1FBF742FE82
:10B1800020236B4A6548042104F0D9FF08B1FBF77E
:10B1900039FE2023674A6148052104F0D0FF08B139
:10B1A000FBF730FE2023644A5C48062104F0C7FF09
:10B1B00008B1FBF727FE2023604A5848072104F016
:10B1C000BEFF08B1FBF71EFE5D4B019301A95D4B6D
:10B1D0005248029304F0D4FE08B1FBF713FEAC22F0
:10B1E000002103A805F079FC574B0A934FF2314236
:10B1F0001A804A4A5548127B9A7002228DF80C2018
:10B2000040F20152ADF80E200022ADF81C20089249
:10B21000012240F6B833ADF824208DF8852028228D
:10B22000CDE9252340F201134FF44861ADF8883091
:10B2300044F25063CDE92713454B2C9303A900F04A
:10B2400037FB08B1FBF7DEFD0121404800F02DFB84
:10B250001C22002103A805F040FC00234FF42032FB
:10B26000CDE903324FF47022059203228DF81820A5
:10B27000ADF81A300122089303A8364B8DF81C2034
:10B28000099300F005FE08B1FBF7BCFD03F07CF864
:10B2900008B1FBF7B7FD0522002103A805F01DFC4E
:10B2A000039B03F07C422C4B134303939DF8103017
:10B2B00023F0030343F0030303A88DF8103003F0D9
:10B2C000EFF808B1FBF79EFD244803F0D1F808B170
:10B2D000FBF798FD224B234C2349E41AE40824048D
:10B2E00044F003042046FBF70BFC022D50D13DE057
:10B2F000BDA7020014300020841803009001200331
:10B30000A435002075A902000DB00200E836002027
:10B3100049AA0200B83500208134002020330020E3
:10B32000C134002081350020E13400206135002047
:10B3300001350020A13400204135002021350020B6
:10B3400001AB020091A70200C4300020C8300020E9
:10B3500095A9020011B002003107100365AE02008A
:10B360004C0C0300740C0300891803000A492046A2
:10B37000FBF7C6FB03F0A8F908B1FBF743FDFBF7A9
:10B3800011FEFBF753FA0028F9D1FDF70DFFF6E7A0
:10B39000FFF728FDF3E700BFC31803006DDF704718
:10B3A00079DF70477DDF704764DF70472DE9F74F25
:10B3B0000C9CBDF834B02788002580468A4691460B
:10B3C0002E46B8F80020B2420BDC35B12288013A93
:10B3D000D21B92B2FF2A39D8DA55002003B0BDE85B
:10B3E000F08FD8F8042052F82600019000220DF1C9
:10B3F000030101A8FFF7D8FF0028EFD19DF8032033
:10B400004A4521D12288002D14BF0020022002EBE2
:10B4100009010144594519DC3DB9013292B222803B
:10B4200003F802A022880132228022880DF1030154
:10B430001A4401A8FFF7B8FF0028CFD121889DF852
:10B4400003200A44228001250136BAE70C20C5E713
:10B450002DE9F341089CBDF824501746CDE900457D
:10B4600002220646FFF7A2FF48B9102239463046AD
:10B47000CDE9084502B0BDE8F041FFF797BF02B043
:10B48000BDE8F0812DE9F04F00231688138090F875
:10B490002D3085B007460D46144653B3082E01D80B
:10B4A0000C2028E102A8FFF779FF002840F0238153
:10B4B00013880822CA54238801339BB21B2223809D
:10B4C000CA542088013080B2208006220DF1090183
:10B4D000284405F0D9FA23889DF8082006339BB24A
:10B4E00012F0FE0218BF01222380EA5423880133A0
:10B4F0002380BB78FBB123880433B342D0D802A8A1
:10B50000FFF74EFF002840F0F68023880322EA541C
:10B51000238801339BB219222380EA542388BDF883
:10B52000082001339BB2E9182380EA54120A4A70BA
:10B53000238802332380FA789AB12388D91CB14238
:10B54000AED80221E954238801339BB20121238024
:10B55000E95423880B449BB22380EA5423880B448C
:10B5600023807A68AAB12388D91CB14298D80221D5
:10B5700092F90020E954238801339BB20A212380E9
:10B58000E954238801339BB22380EA542388013392
:10B5900023803B89002B40F0A2803B8A5BB1CDE940
:10B5A00000462B460722032107F11000FFF750FF4A
:10B5B000002840F0A0803B8B5BB1CDE900462B46D4
:10B5C0001522142107F11800FFF742FF002840F070
:10B5D00092803A6A002A40F09180D7F82480B8F12E
:10B5E000000F30D0B8F804302188981C8A1C02441F
:10B5F000B2423FF655AFFE283FF652AF03336B54CD
:10B60000238801339BB2FF222380EA54238801332D
:10B610009BB22380B8F80020EA54E918120A4A7055
:10B620002088023080B22080B8F804205AB1D8F8BF
:10B63000081000296CD0284405F026FA2388B8F8B1
:10B6400004201344238097F82C30002B40F09B807B
:10B65000387800284FD03B88012B59D0228802F13E
:10B66000020CB4453FF61CAF012805D17B780233AC
:10B6700013449E42FFF414AF023EB61AB6B202A9BA
:10B6800005EB0C00ADF80860FFF78CFE98BB39782D
:10B69000BDF80820022900F0BB807B78934202D3DA
:10B6A000B24240F2B380012940F0B4809BB29E4286
:10B6B000C0F0B080ADF808300821BDF80830FE2B8E
:10B6C0003FF6EEAE22880133AB542288013292B2AB
:10B6D0002280A95422881344238000200BE0CDE966
:10B6E00000462B460622022107F10800FFF7B0FEB4
:10B6F00000283FF452AF05B0BDE8F08FB4F800C0A9
:10B700000CF10603B3423FF6CBAE1188052901D8F0
:10B710000720F0E76FF4486E01EB0E039BB24FF287
:10B720007D3E7345F4D95388052BF1D96FF44860F9
:10B73000181880B27045EBD94FF6FF70814203D0E4
:10B74000834201D09942E3D8052305F80C302388C1
:10B7500001339BB212212380E954238801339BB229
:10B7600023801188E954E818090A417023880233BC
:10B770009BB223805288EA54E918120A4A7023883F
:10B780000233238029E7BB6A002BC1D04FF00009A8
:10B790004FF00C0A4FF0160B97F82C305FFA89F235
:10B7A00093427FF655AFB96A0AFB02F201EB020839
:10B7B000B8F80430981CFE283FF672AE2088033398
:10B7C0002B54238801339BB2238005F803B02388D0
:10B7D00001339BB223808A5AEA54E918120A4A704C
:10B7E0002088023080B22080B8F804205AB1D8F8FE
:10B7F000081000298CD0284405F046F92388B8F8B1
:10B8000004201344238009F10109C5E7092154E705
:10B81000B242FBD9ADF808604EE770B5C0B14AB18D
:10B8200016880024B44203D305196D789D4208D0D0
:10B83000A14201D800200BE0055D01352C44A4B2E3
:10B84000F0E7A142F6D9A31C1380005D013880B255
:10B8500070BD13B50023ADF8063013460DF1060296
:10B860000446FFF7DAFF10B1BDF80600204402B02D
:10B8700010BD72DF704773DF704774DF704738B5F3
:10B88000012204460D46B0F83812D0F83402FFF712
:10B89000E0FF00B1057004F13C0204F50D7104F104
:10B8A0005400BDE83840FFF7E4BF80F8301070471F
:10B8B000F8B504460F46002975D0002873D091F8DA
:10B8C0007A301BB191F89830002B6ED1D7F8A030A8
:10B8D000042B6AD0D7F89C30042B66D007F1780689
:10B8E0000FCE4FF0000C251D84F802C00FC50FCEFF
:10B8F0000FC596E8070085E8070084F830C0D7F840
:10B90000A4306363D7F8A830A3634FF6FF7504F53E
:10B910000D73C4F84432A4F848520722614604F279
:10B920004A2005F0DAF823780BB984F8545094F8DB
:10B930002430002B14BFEE231F2304F15501C4F85B
:10B940003412A4F8383204F50E723846FFF79AFD27
:10B9500040BB94F82430002B14BFEE231F2304F2C5
:10B960004311C4F83C12A4F8403204F5107207F1F8
:10B970003C00FFF787FDA8B9A369A4F848304FF44D
:10B9800080720123A4F85020626920646264014639
:10B9900084F83C3004F13C0204F15400FFF769FFE5
:10B9A00000B92370F8BD0E20FCE70720FAE7F8B5D0
:10B9B000077804460D46002F00F0048100F24A2665
:10B9C000A17007220021304605F087F8E38813B103
:10B9D000A378012B04D0E3794BB1A378022B06D1D5
:10B9E000636BA3B1012284F85122082098473346A3
:10B9F00004F5147113F8012F12B98B42FAD11746CE
:10BA00006B1E032B52D8DFE803F0050B0F1284F8EE
:10BA10005132ECE7A3791BB194F8243003B95FB934
:10BA2000E3790BB1002F43D1237A002B42D1637A03
:10BA3000002B0CBF00250425636BA570002B3BD0A9
:10BA4000033D012D38D86279002A35D094F852226E
:10BA500092BB84F85422012284F85322072098478D
:10BA600004F13C0518220021284605F036F8E36A67
:10BA700094F82420581E0121022828BF0B4684F880
:10BA80003C1084F8513032B1884296BFA36A84F8E2
:10BA9000521084F85230A178002384F850300429E1
:10BAA0001BD8DFE801F0770D223559000025C3E7E8
:10BAB0000225C1E70325BFE7002384F85332CFE70F
:10BAC000C4F84432C4E910630223012284F83C30F4
:10BAD000802384F83120A4F84830A378002B5CD16F
