:020000022000DC
:1060000000000120996202003D6202003F6202002E
:10601000416202004362020045620200000000008B
:1060200000000000000000000000000047620200C5
:1060300049620200000000004B6202004D62020053
:106040009DC7020051620200B1C902005562020000
:10605000576202005962020005C802005D62020038
:106060005F62020061620200636202006562020018
:1060700067620200696202006B6202006D620200E8
:106080006F62020001D502007362020075620200B5
:10609000C1D5020079620200950C03007D62020006
:1060A0007F62020081620200836202008562020058
:1060B0008762020089620200000000000000000008
:1060C0008B6202008D6202008F6202009162020008
:0C60D000936202009562020097620200D9
:1060DC00364937480A1A02D0072291438D46354972
:1060EC0035480A1A06D00722914381F30988022207
:1060FC0082F3148831483249324A00F045F832486C
:10610C003249334A00F040F832483349334A00F000
:10611C003BF833483349344A00F036F833483449B5
:10612C00344A00F031F834483449354A00F02CF840
:10613C0034483549354A00F027F8354835490022AE
:10614C0000F02DF834483549002200F028F8344886
:10615C003449091A082903DB00220260043001606B
:10616C00314A90471F482049884205D002680430C4
:10617C0003B4904703BCF7E700208646EC460020AA
:10618C0000212A4A9047FEE7884207D0521A05D0D0
:10619C00037801300B700131013AF9D17047884214
:1061AC0002D002700130FAE77047000000000120B5
:1061BC0000E000200000012000000120003C030052
:1061CC002C2200207C220020F4620200F4620200E7
:1061DC0076140300003C03002C2200202C2200200B
:1061EC00F0150300F0150300F0150300F015030083
:1061FC00F0150300F0150300F0150300F015030073
:10620C00003C0300503C03007C2200207C22002038
:10621C007C220020B8350020B8350020B83500208D
:10622C00B8350020B8550020C3620200ED660200AC
:10623C00FEE7FEE7FEE7FEE7FEE7FEE7FEE7FEE72A
:10624C00FEE7FEE7FEE7FEE7FEE7FEE7FEE7FEE71A
:10625C00FEE7FEE7FEE7FEE7FEE7FEE7FEE7FEE70A
:10626C00FEE7FEE7FEE7FEE7FEE7FEE7FEE7FEE7FA
:10627C00FEE7FEE7FEE7FEE7FEE7FEE7FEE7FEE7EA
:10628C00FEE7FEE7FEE7FEE7FEE7FEE7034885468E
:10629C0000F002F8FFF71CBF70470000000001205F
:1062AC000C4880470C484FF0070188438546094845
:1062BC008047FFF70DBF094809490A4A884207D0B1
:1062CC00521A05D0037801300B700131013AF9D123
:1062DC0070470000A562020000000120DC150300DD
:0862EC00182200202C220020E2
:1062F40076DF704778DF70477ADF70477CDF70475E
:106304008FDF704733DF704708B50B7803B108BDE2
:106314000121044806F0E0F80028F8D007F03AF824
:10632400F5E700BFD424002008B507F033F808BD12
:1063340008B507F02FF808BD08B507F02BF808BD1D
:1063440008B507F027F808BD08B5037803B108BD00
:106354003B21044B1888FFF7CBFF0028F7D007F048
:1063640019F8F4E73022002008B50A46014602482D
:1063740005F048FF08BD00BFD424002008B5002064
:1063840000F0B8FD30B900F0E5FB30B9FFF7BAFF13
:1063940030B908BD06F0FEFFF5E706F0FBFFF5E7B0
:1063A40006F0F8FFF5E7000008B5042804D00A2831
:1063B40001D1FFF7E3FF08BD1321054B1888FFF750
:1063C40097FF30F00803F6D006F0E4FFF3E700BFD0
:1063D4003022002008B590B1032812D109480A4B95
:1063E400C01AC0080004094940F0030009F008FF7E
:1063F400022000F07FFD20B106F0CCFF01E0FFF7A2
:10640400BDFF08BD3C150300141503000417030069
:1064140010B582B0044603F09BFF2388212B4CD097
:1064240019D8102B24D0112B13D12F482F4BC01A5D
:10643400C00800042E4940F0030009F0E1FE0022E8
:106444002C492D4B187801F055FD2C4B4FF6FF725B
:106454001A8002B010BD3B2B3DD0562BF9D113212D
:10646400A088FFF745FF0028F3D006F093FFF0E77C
:106474001D481E4BC01AC0080004214940F0030007
:1064840009F0BEFE072000F035FD80B9A1881B4B42
:1064940019801C4805F036FF60B9184B19881A4852
:1064A40003F030F90028D4D006F074FFD1E706F0E9
:1064B40071FFEBE706F06EFFEFE700238DF8043081
:1064C4008DF8053001A9A088FFF71AFF0028C0D075
:1064D40006F060FFBDE71321A088FFF709FF00283D
:1064E400B7D006F057FFB4E73C15030014150300BA
:1064F4000C16030049650200042500203022002008
:1065040000160300D42400201C25002010B50446E6
:106514000848094BC01AC0080004084940F00300A9
:1065240009F06EFE0122064B1978608801F0C0FC68
:1065340010BD00BF3C1503001415030088160300AA
:106544000425002010B582B0044601F059FC02284D
:1065540016D00DF10601204604F016FCB8B9BDF8BA
:1065640006004FF6FF73984208D004F033FC88B954
:1065740000220A4B1978204601F09AFC02B010BDA3
:106584000122064B1978204601F092FCF6E706F04A
:1065940001FFE4E706F0FEFEEAE700BF0425002061
:1065A400F0B583B005461848184BC01AC00800045B
:1065B400174940F0030009F023FE4FF6FF7004F082
:1065C400F5FB4FF6FF7398421CD0044600271E4685
:1065D40008E006F0DFFE0CE0204604F0E7FB04468A
:1065E400B0420FD00DF10601204604F0BBFB002899
:1065F400EFD1BDF806006B888342EDD03946FFF732
:10660400A1FFE9E703B0F0BD3C1503001415030036
:106614004816030070B582B01648174BC01AC0085C
:106624000004164940F0030009F0EAFD4FF6FF703C
:1066340004F0BCFB4FF6FF73984218D004460026C2
:106644001D460AE03146BDF80600FFF77BFF2046F1
:1066540004F0ACFB0446A84209D00DF10601204623
:1066640004F080FB0028EDD006F094FEEAE702B0C7
:1066740070BD00BF3C150300141503001C16030075
:1066840008B528B903210C4800F0F3FF88B908BD08
:106694000A480B4BC01AC00800040A4940F0030022
:1066A40009F0AEFD04F0A2FB0028F0D006F072FE63
:1066B400EDE706F06FFEEAE77C2200203C150300BC
:1066C40014150300F015030010B5044603F01CFE76
:1066D400204603F01FFC23780C2B00D010BD0020B3
:1066E400FFF7CEFFFAE7000000B5B7B04FF4004162
:1066F400002009F0EFFB08B106F04CFE09F064FB42
:1067040007F0FCF808B106F045FEA449032000F0A8
:10671400FFFB08B106F03EFE0BA9002000F030FAA2
:1067240008B106F037FE9DF82C40022C14BF00245B
:10673400012409F0BFF908B106F02CFE0AF002FAB0
:1067440008B106F027FE36A9002341F8AC3D01202C
:106754000AF0E0FA08B106F01DFE0BA80AF098FB57
:1067640008B106F017FE9DF81030012262F303030E
:1067740062F3071336AD05F8C83D894E30460AF07A
:1067840048FE82B231462846FFF7B8FD08B106F04C
:1067940001FE0020FFF7AEFD08B106F0FBFD082264
:1067A40000210BA80AF002FE0723ADF82C304FF4A9
:1067B400C873ADF82E300022ADF83020ADF8323079
:1067C4000BA8FFF799FD08B106F0E4FD0021754818
:1067D40002F0EEFD08B106F0DDFDAC2200210BA8AD
:1067E4000AF0E4FD02238DF82C3001238DF82E30BD
:1067F40005228DF82F20ADF83C306B4A1092002210
:106804008DF8A5208DF8A83028232D9344F25063E9
:106814002E938DF8A920654B3493654B35930BA9C2
:10682400644800F096FE08B106F0B4FD0121614809
:1068340000F08CFE1022002168460AF0B7FD4FF4E8
:106844000073ADF808305C4B01935C4B03935C4BD5
:10685400009369465B4802F0BDFE08B106F09AFD5C
:106864001C22002104A80AF0A1FD01F0FBFA564BFA
:106874001870564B0493564B05939DF8183043F00B
:1068840015038DF8183002238DF819308DF81A305D
:106894004C4B07934F4B08934F4B09934F4B0A9321
:1068A40004A94F4805F034FD08B106F073FD4022F9
:1068B40000210BA80AF07AFD4A490BA801F038FB25
:1068C40001238DF868300BA80AF05EFB08B106F0CE
:1068D40061FD1C2200210BA80AF068FD00230B9324
:1068E4004FF4F0220C924FF420320D9203228DF8D3
:1068F4003820ADF83A308DF83C303B4B10933B4B8D
:1069040011930BA801F06AF908B106F043FD04F0F5
:106914001BF908B106F03EFD052200210BA80AF080
:1069240045FD9DF82C3043F0010303F0F1030322ED
:1069340062F306136FF3C7138DF82C3007238DF819
:106944002D3010238DF82E309DF82F3013438DF801
:106954002F309DF8303013438DF830300BA804F0FD
:10696400AFF908B106F016FD214804F08FF908B11B
:1069740006F010FD1F48204BC01AC00800041F4930
:1069840040F0030009F03CFC2046FFF779FE09F0D3
:1069940009FB0028FBD109F0A3F8F8E7AD63020076
:1069A400C0160300082500202C220020D963020011
:1069B4002D6302007C2200203C2500206D63020030
:1069C4003D6302001C250020042500200D63020005
:1069D400356302001165020019660200A565020014
:1069E400D4240020CC1603004D630200456302004A
:1069F400CD6602003C15030014150300E0160300E5
:106A04004FF0A043D3F8040580F00070C0F3406059
:106A140070474FF0A0434FF00072C3F80C25704745
:106A24004FF0A0434FF00072C3F8082570474FF0B1
:106A3400A0434FF00072C3F8082570474FF0A043FD
:106A44004FF00072C3F80C2570474FF0A042D2F803
:106A54000435D94301F00071C2F8081503F000733E
:106A6400C2F80C35704710F0010F00D1704708B51B
:106A74004FF0A0430322C3F86427FFF7D8FF08BDF3
:106A840008B501220221002000F068FA20B1034673
:106A9400072801D0184608BD07220221012000F072
:106AA4005DFA034608B10728F4D10A2200210846FA
:106AB40000F054FA03460028ECD0072814BF03461C
:106AC4000023E7E708B50388102B02D0112B2CD044
:106AD40008BD1E4B1B6823B11C4A136801331360A5
:106AE400F6E701220021084600F038FA034640B1D7
:106AF400072806D0164A1268002AEDD01846904797
:106B0400EAE707220221012000F028FA034608B12F
:106B14000728EFD104220221002000F01FFA0346C7
:106B24000028D9D00728E5D1D6E7084A1368013BE5
:106B34001360002BCCD1FFF7A3FF0028C8D0044B6F
:106B44001B68002BC4D09847C2E700BF4027002031
:106B54003C27002008B5002000F002FA20B10346CB
:106B6400062801D0184608BD012000F0F9F90346B3
:106B74000028F7D0062814BF03460023F2E70000DC
:106B840008B5064B186009B100220A70044B1B6853
:106B94000BB1002008BDFFF773FFFBE73C27002083
:106BA4004027002008B50220FFF74FFF08BD000072
:106BB40008B5054B1B781BB10020FFF731FF08BD5A
:106BC400FFF735FFFBE700BF44270020F8B5054673
:106BD400BB4B1B78E3B9172D00F26F81DFE815F08A
:106BE4001E0029002900540078009D00B300C10054
:106BF400C900D600E300F000FD0004010401040113
:106C0400040104013F01460150015A016701670173
:106C1400AB4B00221A70FFF7CBFFDCE7FFF7C8FF8E
:106C2400A84806F001FF0446A74B00221A7020462C
:106C3400F8BD0020FFF7E4FEE8B10020FFF7F0FE06
:106C4400022D0CBF4FF4E1634FF47A639E4A157032
:106C540000245E0CDD034FF47A72002315F5FA70FC
:106C640046F100010AF07EFA22460146954806F0F4
:106C74008DFE0446DBE70020FFF7CBFE022D0CBFA0
:106C8400C8234FF4C873E1E70020FFF7B9FED0B181
:106C94000020FFF7C5FE4FF448738B4A032111709F
:106CA40000245E0CDD034FF47A72002315F5FA70AC
:106CB40046F100010AF056FA22460146814806F0E0
:106CC40065FE0446B3E70020FFF7A3FEC823E4E70C
:106CD4000020FFF795FED0B10020FFF7A1FE4FF48E
:106CE4007A63794A0421117000245E0CDD034FF4A9
:106CF4007A72002315F5FA7046F100010AF032FAAF
:106D0400224601466F4806F041FE04468FE7002004
:106D1400FFF77FFE4FF4C873E3E70020FFF770FE30
:106D240068B10020FFF77CFE674B05221A70002231
:106D340041F69A11634806F029FE044677E70020DD
:106D4400FFF767FEF0E70020FFF77FFE5E4B0622A9
:106D54001A70002240F6CD415A4806F017FE044648
:106D640065E70020FFF755FE574B07221A700024F1
:106D74005DE70120524B1870FFF767FE002240F6D2
:106D8400CD41504806F002FE044650E701204C4B2A
:106D94001870FFF75AFE00224FF48041494806F06C
:106DA400F5FD044643E70120454B1870FFF74DFEFF
:106DB400002240F6CD41434806F0E8FD044636E79C
:106DC40001203F4B1870FFF740FE00224FF4804132
:106DD4003C4806F0DBFD044629E7FFF72FFE3A4B5B
:106DE4000C221A70002422E7384806F01DFE0446DF
:106DF400D5F111052CD058BB012D22D9AAB20023FC
:106E0400901843EB0301861841EB0307FC00F500DF
:106E14002746AC1847EB0305AB0443EA9433A204BA
:106E240014461D464FF47A72002314F5FA7045F1A6
:106E340000010AF097F900220146244806F0A6FD55
:106E440004460220FFF7E5FD214B01221A70EEE60D
:106E54000220FFF7E5FD1E4B00221A70E7E6FFF75C
:106E6400A7FE194B12221A700024E0E6FFF7A0FED9
:106E74000020FFF7CEFD144B13221A700024D6E62F
:106E8400FFF796FE0120FFF7C4FD0F4B14221A7082
:106E94000024CCE6FFF78CFE0020FFF7BAFD0120AA
:106EA400FFF7B7FD084B15221A700024BFE6FFF761
:106EB400C5FD054B1D700024B9E60024B7E600BFEC
:106EC4008C270020682700208D27002048270020D9
:106ED4004427002008B5054B1B6813F0010F00D1AF
:106EE40008BD034B1878FFF771FEF9E788270020E7
:106EF4008D27002008B5054B1B6813F0010F01D145
:106F0400002008BDFFF762FEFBE700BF88270020D2
:106F140008B50D4B186010F0010F02D1002318467C
:106F240008BD0120FFF79FFD084A0021084806F02C
:106F340017FD03460028F2D1064A0121064806F04F
:106F44000FFD0346EBE700BF88270020D96E02003F
:106F54001C170300A96B02001817030007207047D1
:106F6400062070476DDF704779DF70477DDF70471B
:106F740064DF70472DE9F04F85B00E9EBDF83CB03C
:106F8400348801940488002C4ED0994617468A46CA
:106F940005464FF0000844461BE0013292B23280AD
:106FA40009F802A033880133338032884A440DF152
:106FB4000B0103A8FFF7DCFF034688BB9DF80B30E9
:106FC4003288134433804FF0010801342B88A342E4
:106FD40019DD6B6853F82400039000220DF10B01B6
:106FE40003A8FFF7C5FF0346D0B99DF80B30BB4299
:106FF400EBD1B8F1000F1DD13288134402335B4545
:10700400CBDD0C230CE0B8F1000F0FD03388013B2B
:10701400019A9B1A9BB2FF2B0AD809F8023000236D
:10702400184605B0BDE8F08F0023F9E70023F7E721
:107034000C23F5E7328813445B45B6DD0C23EFE7F8
:107044002DE9F04182B0064617469846089CBDF8E3
:107054002450019500940222FFF78CFF034618B1D7
:10706400184602B0BDE8F081019500944346102211
:1070740039463046FFF77EFF0346F1E72DE9F04736
:1070840084B005460E46144617880023138090F8F2
:107094002D30002B40F0B680AB78002B40F0DF8021
:1070A400EB78002B40F0FE806B68B3B12288D11CD2
:1070B400B94200F2D18193F900100223B35423881A
:1070C40001339BB223800A22F254238801339BB2FA
:1070D4002380F1542388013323802B89002B40F033
:1070E400F7802B8A002B40F001812B8B002B40F082
:1070F4000B812B6A002B43D02288911DB94200F2E8
:10710400AD811988052940F2AB81A1F6814080B296
:107114004FF27D3C604540F2A5815888052840F235
:10712400A381A0F6814C1FFA8CFC4FF27D3EF445FE
:1071340040F29C814FF6FF7C614504D0604502D04B
:10714400814200F295810521B1542288013292B224
:1071540022801221B1542288013292B222801988ED
:10716400B018B154090A41702288023292B22280C6
:107174005B88B118B3541B0A4B70238802332380F5
:10718400D5F82480B8F1000F31D0B8F804300233B8
:1071940021888A1C1A44BA4200F27381FE2B00F241
:1071A400728101337354238801339BB22380FF22FD
:1071B400F254238801339BB22380B8F80020F118DD
:1071C400F254120A4A702088023080B22080B8F843
:1071D400042062B1D8F80810002900F05681304428
:1071E4000AF0BBF82388B8F804201344238095F8E8
:1071F4002C30002B40F096802B78002B40F0DF8061
:10720400002338E1082F40F2358102A8FFF7AAFED7
:107214000346002840F02F8123880822F254238853
:1072240001339BB223801B22F2542088013080B2A8
:10723400208006220DF1090130440AF08EF82388DB
:1072440006339BB223809DF8082012F0FE0F0CBF7A
:1072540000220122F2542388013323801CE723886F
:107264000433BB4200F20B8102A8FFF77DFE034604
:10727400002840F0008123880322F254238801333C
:107284009BB223801922F254238801339BB22380BA
:10729400BDF80820F118F254120A4A702388023308
:1072A4002380FDE62288D11CB94200F2D38002215A
:1072B400B1542288013292B222800121B154228831
:1072C4000A4492B22280B35423880B442380EBE611
:1072D4000197009433460622022105F10800FFF7C6
:1072E400AFFE034600283FF4FCAEC4E001970094CF
:1072F40033460722032105F11000FFF7A1FE0346E0
:1073040000283FF4F2AEB6E001970094334615220C
:10731400142105F11800FFF793FE034600283FF4FB
:10732400E8AEA8E0D5F82880B8F1000F00F0AF80EF
:10733400B8F804300233FE2B00F2AB804FF00009A2
:107344004FF0160A13E009F101095FFA89F995F87B
:107354002C304B457FF650AF09EB4908AB6A03EB81
:107364008808B8F804300233FE2B00F29480228897
:107374000133B354238801339BB2238006F803A05E
:10738400238801339BB22380B8F80020F118F2540B
:10739400120A4A702088023080B22080B8F8042093
:1073A400002AD0D0D8F80810002976D0304409F04B
:1073B400D4FF2388B8F8042013442380C3E72A8821
:1073C400012A3FD02288901CB8423DD8012B04D119
:1073D4006B78023313449F4238D3023FBF1ABFB2C3
:1073E40004A921F8087D3044FFF7C0FD03460028B6
:1073F40041D12B78022B52D06978BDF808209142F4
:1074040001D397421CD2012B14D0ADF80870082187
:10741400BDF80830FE2B1BD82288581CB054228893
:10742400013292B22280B15403462288134423804D
:10743400002320E08F42E8D3ADF808100821E7E7E5
:107444000921E5E7072316E00C2314E00C2312E0DE
:107454000C2310E00C230EE00C230CE00C230AE0B8
:10746400072308E0072306E0072304E0072302E0DC
:10747400072300E00C23184604B0BDE8F0870C2372
:10748400F9E70C23F7E70C23F5E70723F3E70723D2
:10749400F1E70C23EFE70C23EDE70723EBE7BDF857
:1074A4000830BB42B1D80921B2E7E8B1F0B40546CF
:1074B400E2B11688002005E0884212D22C5C013427
:1074C400204480B28642F7D807462C1864789C4240
:1074D400F2D188420CD202301080E85D013880B2CB
:1074E40000E00020F0BC7047002070470020F9E75E
:1074F4000020F7E730B583B0054602AC002324F83A
:10750400023D13462246FFF7D0FF20B1BDF8060026
:10751400284403B030BD0020FBE772DF704773DFFF
:10752400704738B504460D460122B0F83812D0F839
:107534003402FFF7DFFF00B1057004F13C0204F5EB
:107544000D7104F15400FFF7E8FF38BD80F83010E6
:107554007047F8B5002900F081800F4600287FD0DD
:1075640091F87A201AB191F89820002A7AD1D7F8A4
:10757400A020042A78D0D7F89C20042A77D0044687
:107584004FF0000C80F802C0051D07F178060FCEFD
:107594000FC50FCE0FC596E8070085E8070084F8ED
:1075A40030C0D7F8A4306363D7F8A830A3634FF68C
:1075B400FF73A4F8483204F50D73C4F8443207226B
:1075C400614604F24A2009F0F1FE237813B9FF233F
:1075D40084F8543004F15501C4F8341294F824307A
:1075E400A3B3EE23A4F8383204F50E723846FFF73D
:1075F40045FD0346C8BB04F24311C4F83C1294F899
:1076040024303BB3EE23A4F8403204F5107207F1A2
:107614003C00FFF733FD034638BB012384F85130A7
:10762400A269A4F8482084F83C300021216484F83D
:1076340050106369636404F13C0204F15400FFF7E1
:107644006CFF034688B9012222700EE01F23A4F8C0
:107654003832C9E71F23A4F84032D6E70E2304E0EA
:107664000E2302E0072300E007231846F8BD072392
:10767400FBE7F8B50678002E00F0158104460D46A8
:10768400A17000F24A2707220021384609F08EFE35
:10769400E38813B1A378012B04D0E3794BB1A37829
:1076A400022B06D1636BD3B1012284F85122082046
:1076B400984704F24B2294F84B32A3B9134604F5CD
:1076C400147213F8011F81B99A42FAD100226B1E79
:1076D400032B00F20681DFE803F00A11161A0023D7
:1076E40084F85132E5E73246F1E73246EFE7A37911
:1076F40023B194F824300BB92AB10DE0E37913B126
:10770400002A40F0F080237A002B40F0D180637A85
:10771400002B40F0CF800025A570002384F853325D
:1077240004F13C0518220021284609F03FFE0123FC
:1077340084F83C30E36A5A1E012A0FD884F8513089
:1077440094F82430ABB9002384F85030A378042B88
:1077540074D8DFE803F0A41C3E4E7D00012384F8B6
:10776400513094F82430002BEDD0012384F85230AA
:1077740002E0A36A84F85230002384F85030A378DE
:10778400042B5BD8DFE803F08B03B13665000123DB
:1077940084F831300023C4F844322764636402233C
:1077A40084F83C308023A4F848302A46D4F84412A4
:1077B40004F15400FFF7B1FE0346002874D194F895
:1077C400301094F85400FFF7AAFE0346002838D07E
:1077D4006AE0022384F83130032384F83C302369BF
:1077E400A4F848300023C4F844322764E36863648F
:1077F400DBE7002663696364A369A4F8483016B123
:10780400062384F83C3063798BB194F8523273B90F
:1078140094F854325BB1022384F85030042120469A
:10782400FFF77FFE50B9052384F8313002E00323CB
:1078340084F8313004F50D73C4F84432A378002B76
:10784400B3D1636B93B394F83100984700232BE0D2
:107854000026E3696364236AA4F8483016B106235A
:1078640084F83C30637993B194F852327BB994F83C
:10787400543263B1022384F8503004212046FFF7C8
:1078840050FE0028DAD1062384F8313002E00423C4
:1078940084F8313004F50D73C4F84432CEE7002384
:1078A40084F83130CDE708231846F8BD0023FBE700
:1078B400032300E00423A370636B002B3FF42DAF7C
:1078C4006279002A3FF429AF94F85222002A7FF407
:1078D40024AF84F85422012284F8532207209847C5
:1078E4001EE7002518E7022516E7022384F8313045
:1078F400072384F83C3072E710B50C460388112B3B
:107904000BD0262B1FD0102B00D010BDC37B012B16
:10791400FBD18388A1F84832F7E7002381F852327B
:107924008288B1F848329A42EFD10B79002BECD11E
:1079340001212046FFF79DFE0028E6D0A36B002B13
:10794400E3D09847E1E7037A013BDBB2012BDCD8B3
:1079540089780131084B83FB01235B1003EB83031C
:10796400C91AC9B22046FFF784FE0028CDD0A36B04
:10797400002BCAD09847C8E767666666704775DF0C
:10798400704776DF70477ADF70477BDF704700000F
:10799400034B1A8882420CBF18460020704700BF70
:1079A400AC270020F0B5848894428CBFA4EB020C71
:1079B4004FF0000CC5889D428CBFA5EB030E4FF021
:1079C400000E4E880788B74211D84088B04210D3C1
:1079D400888860450FD31444A0420ED8C8887045E7
:1079E4000DD31D44A8428CBF0020012000E00020DC
:1079F400F0BD0020FCE70020FAE70020F8E70020B3
:107A0400F6E7000008B5024B9B6903B1984708BD2F
:107A14009027002030B583B084B22046FFF7B8FF2A
:107A2400A0B10546027A174B1B7B9A4210D3002360
:107A34000372144B1B7CB3B9124B5B6933B1002244
:107A44008DF80420ADF8064001A8984703B030BD76
:107A540000F10A012046FFF792FF70B11128F5D01A
:107A6400FFF7D0FFF2E73B212046FFF78AFF30F013
:107A74000803E1D0FFF7C6FFDEE72B7A01332B7250
:107A8400E4E700BF9027002000B583B00B46497A95
:107A940071B91A7A4AB90E4A51680246586805F013
:107AA40075FF88B1FFF7AEFF0EE0094A9168F4E76D
:107AB40000221A72064B5B6933B101228DF804204F
:107AC400ADF8060001A8984703B05DF804FB00BFB9
:107AD4009027002070B504460388112B4DD01ED981
:107AE400122B60D0502B1FD1C2883A4BDB899A42AB
:107AF4001AD1038A022B17D185882846FFF748FF3D
:107B0400064688B104F1120000F00EFA002845D1AF
:107B1400706805F089FF38B1FFF774FF04E0102B9B
:107B240002D1C37B012B00D070BD4FF6FF70FFF76D
:107B34002FFF0546E8B1A68806800023037200F1F2
:107B44000A03254A03CAC5F80A00184659604FF6C5
:107B5400FF7340F2F31204F11001FFF723FF687280
:107B64001C4BDB89002BDFD129463046FFF78CFF05
:107B7400DAE70420FFF746FFD6E78088FFF708FF1F
:107B840004460028D0D0406805F04EFF18B94FF6DF
:107B9400FF732380C8E7FFF735FFF8E7314628462F
:107BA400FFF772FFC0E786883046FFF7F1FE05460F
:107BB4000028B9D04FF6FF7340F2F31204F1080124
:107BC4000A30FFF7EFFE687229463046FFF75CFF84
:107BD400AAE700BF90270020C0270020F8B568B3AB
:107BE4000646174F3C4605460FCD0FC495E80700DF
:107BF40084E80700134B3B603068C0B1FFF7C3FE55
:107C0400034690B932680F4B1068516803C30E489D
:107C14004FF6FF7303800D4B40F8043F0C4A0021DC
:107C240005F09EFE031E18BF03231846F8BD054841
:107C3400FFF7ABFE03460028E9D0F6E70E23F4E78E
:107C440090270020C0270020AC270020C827002050
:107C5400197A0200F0B583B00190A1B10F46019BDF
:107C64009BB116460024254602E00134142C0DD0A5
:107C7400214601A806F0C1FF0028F6D03146A0B283
:107C8400B8470135F1E7002500E00025284603B098
:107C9400F0BD70B582B006460191019B83B100240A
:107CA400254602E00134142C0BD0214601A806F02D
:107CB400A4FF0028F6D006EB45039C800135F1E7CC
:107CC40000253560304602B070BD00002DE9F04F4C
:107CD4008DB0B0F804A00388112B46D080461A2B2F
:107CE40048D0102B02D00DB0BDE8F08F314A936814
:107CF400DB430CA840F8303D516806F0EDFF0099D5
:107D040001A8FFF7C6FF019BA3B10DF1060707EB1E
:107D14004309DFF8A0B00BF1780637F8025F0BF1E6
:107D240004042946204606F05CFF0434A642F8D138
:107D34004F45F2D1BAF1130F03D9042005F02AFB01
:107D4400D1E71C4C514604F1080006F031FF5146BE
:107D5400201D06F02DFF98F80F30012BC3D051469B
:107D640004F10C0006F024FFBDE75146124806F06A
:107D740038FFB8E7047A2409012C0FD951460F487B
:107D840006F016FF022C04D951460D4806F010FFE8
:107D9400A9E751460A4806F024FFA4E7054C5146DA
:107DA40004F1100006F01DFF514604F1140006F022
:107DB40018FF98E7E8270020F0270020F827002084
:107DC400FC270020132801D90020704708B501467C
:107DD400014806F012FF08BDEC27002010B5044648
:107DE400FFF7F0FF08B9002010BD2146034806F054
:107DF40004FF002814BF02200120F5E7F427002027
:107E040010B50446FFF7DEFF08B9002010BD214677
:107E1400034806F0F2FE002814BF02200120F5E713
:107E2400F027002010B50446FFF7CCFF034608B93D
:107E3400184610BD2146024806F0DFFE0346F7E768
:107E4400F827002010B50446FFF7BCFF034608B925
:107E5400184610BD2146024806F0CFFE0346F7E758
:107E6400FC27002008B51821024806F0CFFEC0B256
:107E740008BD00BFE827002038B504460D460B486E
:107E840006F0BBFE034608B9184638BD2046FFF786
:107E940099FF03460028F7D006352146034800EB36
:107EA400850006F0AAFE0346EEE700BFE82700209F
:107EB40070B505460C4616460D4806F09EFE00B900
:107EC40070BD2846FFF77EFF0028F9D03EB906347E
:107ED4002946074800EB840006F083FEF0E70634E9
:107EE4002946034800EB840006F062FEE8E700BF81
:107EF400E827002070B504460D461646014608489A
:107F040006F07BFE08B9002070BD0434044B03EB7B
:107F14008404A06832462946FFF79CFEF4E700BFBC
:107F2400E8270020AADF7047007800F001007047BE
:107F340038B504460D46084609F06BFA20806560A2
:107F440038BDF0B591B005460C4616468B78DBB9C2
:107F540001238DF80E302388ADF80C300322002164
:107F640002A809F023FA637C9DF8082002F0F002CD
:107F74006FF307128DF80820013B042B10D8DFE8BB
:107F840003F006202B3641008DF80E30E3E79DF810
:107F94000830012262F3030362F307138DF80830FB
:107FA400A37C9DF8092002F0F0026FF307128DF80C
:107FB4000920013B042B38D8DFE803F02E929DA85A
:107FC400B3009DF80830012262F30303022262F336
:107FD40007138DF80830E3E79DF80830012262F3B7
:107FE4000303032262F307138DF80830D8E79DF8E2
:107FF4000830022262F30303012262F307138DF8AF
:108004000830CDE79DF80830022262F3030362F3DF
:1080140007138DF80830C3E79DF80930012262F395
:10802400030362F307138DF809309DF80A30E27BED
:1080340062F3C303227C62F30413227B62F3000322
:10804400227D002A14BF0222012262F342038DF82A
:108054000A301C22002109A809F0A8F9637B13F057
:10806400300F68D1637B8DF82430A37B8DF82530E5
:108074001422002104A809F099F903AB049302AB7C
:108084000593A388ADF81C30A3681BB1E288ADF852
:1080940018200893A369002B00F00F8101AF03227D
:1080A4000021384609F082F9A2691388ADF82C3012
:1080B4005388ADF82E3053680A930D97137B9DF8BF
:1080C400041001F0F0016FF307118DF80410013B67
:1080D400042B00F29580DFE803F08AA4AFBAC50050
:1080E4009DF80930012262F30303022262F30713AD
:1080F4008DF8093099E79DF80930012262F30303F2
:10810400032262F307138DF809308EE79DF80930D6
:10811400022262F30303012262F307138DF809308C
:1081240083E79DF80930022262F3030362F3071325
:108134008DF8093079E703220021684609F036F901
:10814400E37C9DF8012002F0F0026FF307128DF832
:108154000120013B042B0DD8DFE803F0031E293472
:108164003F009DF80130012262F3030362F3071319
:108174008DF801309DF80030012262F3030362F3AD
:1081840007138DF800309DF8023062F342038DF836
:108194000230CDF838D065E79DF80130012262F352
:1081A4000303022262F307138DF80130E2E79DF81E
:1081B4000130012262F30303032262F307138DF8F3
:1081C4000130D7E79DF80130022262F30303012254
:1081D40062F307138DF80130CCE79DF801300222D9
:1081E40062F3030362F307138DF80130C2E79DF8CD
:1081F4000430012161F3030361F307138DF80430A4
:10820400537B9DF8051001F0F0016FF307118DF811
:108214000510013B042B38D8DFE803F02E5A6570B3
:108224007B009DF80430012161F30303022161F313
:1082340007138DF80430E3E79DF80430012161F35E
:108244000303032161F307138DF80430D8E79DF885
:108254000430022161F30303012161F307138DF854
:108264000430CDE79DF80430022161F3030361F388
:1082740007138DF80430C3E79DF80530012161F33D
:10828400030361F307138DF805309DF80630917AE6
:1082940061F3C3038DF80630D17A61F304138DF8CA
:1082A4000630117A61F30003927B002A14BF022284
:1082B400012262F342038DF80630E36903B10C93A3
:1082C400334604AA09A92846FFF72CFE11B0F0BDD5
:1082D4009DF80530012161F30303022161F30713C3
:1082E4008DF80530D1E79DF80530012161F30303D2
:1082F400032161F307138DF80530C6E79DF80530B7
:10830400022161F30303012161F307138DF80530A2
:10831400BBE79DF80530022161F3030361F3071302
:108324008DF80530B1E7A0DF7047A1DF7047ADDFFE
:108334007047B3DF704710B50446408800F03EFE36
:10834400A080204602F0F4FB10BD00B587B00023E6
:108354000093019303930493059307238DF800304E
:10836400ADF8020002916846FFF7E5FF07B05DF83B
:1083740004FB000070B586B00021009101910291C8
:10838400039104910591ADF802004FF6FF739842F2
:1083940001D106B070BD044600F0E4FC05460B288C
:1083A40018D007D911280ED043F20203984225D1E0
:1083B400002209E010BB06A80E2300F8183DFFF7C1
:1083C400BAFF002200E00122174B19782046FFF77C
:1083D4006FFDDEE706AD0F2305F8183D1348144B77
:1083E400C01AC00800042246124940F0020007F0F7
:1083F4007DFF2846FFF79FFF0022E5E7284607F0A8
:10840400E5FB0A4E0A4BF61AF608360423460246E2
:10841400094946F0010007F0E7FF29462046FFF727
:1084240094FF0022D0E700BF6728002084150300D2
:1084340014150300C81803004819030008B5FFF712
:1084440099FF08BD10B582B0044600F0B7FD0023C3
:108454006A46092101F0BCFB052801D002B010BD19
:108464000122034B19782046FFF722FDF6E700BFEF
:108474006528002010B582B00446042200210DEBCB
:10848400020008F093FF42F6A623ADF8043001235E
:108494008DF80630094B1B6802AA42F8083D01A971
:1084A4002046FFF740FF08B102B010BD0122044B83
:1084B40019782046FFF7FCFCF6E700BF20170300FD
:1084C4006428002070B586B004460121304806F0C7
:1084D400D8FBBFF35F8F08B106B070BD204600F033
:1084E400D5FB0546112850D00CD9862812D043F26A
:1084F4000203984234D10022264B19782046FFF714
:10850400D7FC27E060BB0022224B19782046FFF7F6
:10851400CFFCE1E7002500950195029503950495AC
:10852400059506238DF80030ADF802401A481B4B20
:10853400C01AC00800042246194940F0020007F09E
:10854400D5FE6846FFF7F7FE2A46124B19782046F7
:10855400FFF7AEFCBFF35F8F0D4B00221A60BBE741
:10856400284607F033FB0C4E0C4BF61AF60836047B
:10857400234602460B4946F0010007F035FF294621
:108584002046FFF7E2FE0022DFE70122DDE700BF1D
:1085940060280020682800208415030014150300B7
:1085A4002C170300641703002DE9F04788B0044634
:1085B400524B1978FFF760FC10B108B0BDE8F087A2
:1085C4000746204600F03EFC054608284DD016D844
:1085D400002838D0062821D1204600F0EFFC00F016
:1085E4005FFC3E463246464B19782046FFF760FC56
:1085F4003A46424B19782046FFF75AFCDDE743F22E
:108604000203984277D043F20143984204D12046B2
:10861400FFF7B0FE0126E5E711286CD0284607F0E5
:10862400D5FA384E384BF61AF60836042346024675
:10863400364946F0010007F0D7FE29462046FFF7E9
:1086440084FE0126CEE7002302930393049305934B
:108654000693079310238DF80830ADF80A4002A85A
:10866400FFF769FE01273E46BCE701A8FFF761FE5C
:10867400BDF80430012BAFD93E4601254FF0020A64
:108684004FF000090DF106080BE0BDF8062042F694
:1086940002139A421DD00135ADB2BDF80430AB428D
:1086A4009AD9ADF808A0ADF80A90CDF80C8002AACA
:1086B40029462046FFF73BFE00288DD1002EE4D149
:1086C400BDF8066042F605239E4214BF002601262B
:1086D400E1E70DF102030393691C02AA89B2204663
:1086E400FFF725FE00287FF477AFBDF80230002B9A
:1086F4003FF472AF76E7012674E700BF6A280020D2
:108704006928002084150300141503009C19030034
:1087140038B5037803B138BD04464088FFF72AFE14
:108724006588284600F07AFB88B96088FFF78AFEDE
:1087340000220A490A4B1878FFF7DCFB0028EAD12B
:1087440000220849084B1878FFF7D4FBE3E701221D
:10875400064B19782846FFF7ABFBE6E7C98402000D
:1087640068280020798402006528002069280020F8
:1087740010B582B00378082B09D0002229492A4B6E
:108784001878FFF7B7FB002844D002B010BD0446A8
:10879400437A002BF1D1037A072B20D0082B2FD05A
:1087A400012BEAD16A460121808801F0E1FF00280B
:1087B400E3D1019B1B78002BDFD0A08800F032FCB2
:1087C4004FF6FF739842D8D0184C01222178FFF756
:1087D4006FFB002216492078FFF78CFBCDE78088D9
:1087E40000F020FC04464FF6FF739842C5D00122E6
:1087F4000D4B1978FFF75CFB2046FFF723FEBCE71F
:108804000C4B1B68012BB8D1BFF35F8F094B0022BF
:108814001A60B2E700220849084B1878FFF76AFB90
:10882400B3E700BFC984020068280020692800203B
:10883400AD850200602800207984020065280020AC
:1088440010B5FFF70FFB224C2070FFF70BFB214BF9
:108854001870FFF707FB204B1870FFF703FB1F4B43
:108864001870FFF7FFFA1E4B1870FFF7FBFA1D4B49
:108874001870FFF7F7FA1C4B18702378182B1BD0CD
:10888400144B1B78182B17D0134B1B78182B13D0B1
:10889400124B1B78182B0FD0114B1B78182B0BD0B5
:1088A400104B1B78182B07D0182805D000200F4B2D
:1088B4001860BFF35F8F0AE00D480E4BC01AC00862
:1088C40000040D4940F0010007F09AFC032010BD9C
:1088D4006828002067280020692800206A280020D2
:1088E40065280020642800206628002060280020D5
:1088F40084150300141503005818030030B583B021
:1089040004460D460022CDF80220ADF806200123CE
:10891400ADF8003009238DF80230114B1978FFF7B8
:10892400C7FA1049104B002D08BF19460191204683
:1089340000F044FB0022694601F0BEF908B903B017
:1089440030BD07F043F9094B094A9B1ADB081B04A5
:108954000246084943F0020007F0C8FCEFE700BFF5
:10896400652800202817030024170300841503003A
:1089740014150300DC19030030B587B0044685885C
:108984000388353B1F2B14D8DFE803F063AE1313C1
:1089940013131313131313131313131313131313A3
:1089A4001313131313131344131013212846FFF73F
:1089B400E1FC00226649674B1878FFF79BFA002216
:1089C4006549664B1878FFF795FA07B030BD002467
:1089D40000940194029403940494059411238DF853
:1089E4000030ADF80250284600F0E8FAADF8040073
:1089F40000F056FA22465A4B19782846FFF758FADF
:108A04002246564B19782846FFF752FA6846FFF774
:108A140092FCCEE7037B012BCBD1837A012BC8D107
:108A2400028942F602139A42C3D14E4C01222178A4
:108A34002846FFF73DFA00224B492078FFF75AFAFF
:108A44000028B6D100224949494B1878FFF752FA59
:108A5400AFE7484B19782846FFF70EFA0028A8D04C
:108A64000022444B19782846FFF722FAE288B2F52F
:108A7400857F10D0A2B96289012A1CD1A289012A5A
:108A840024D03D483D4BC01AC00800043C4940F086
:108A9400020007F02BFC00212846FFF72FFF88E790
:108AA4003548364BC01AC0080004364940F002006D
:108AB40007F01CFCEFE73048304BC01AC008000434
:108AC400314940F0020007F011FCD7E70022E189A8
:108AD4002846FFF72AFC0028DDD101222B4B197808
:108AE4002846FFF7E5F964E7284B19782846FFF78D
:108AF400C3F900283FF45DAF0022244B19782846BF
:108B0400FFF7D6F9E28852B9E289012A13D1217C10
:108B1400003118BF01212846FFF7F0FE49E7164847
:108B2400164BC01AC0080004164940F0020007F0B2
:108B3400DDFB0021EFE71048104BC01AC008000409
:108B44000F4940F0020007F0D1FB0021E3E700BF2A
:108B54004184020067280020AD85020069280020B6
:108B64006A28002068280020C98402007984020051
:108B740065280020642800208415030014150300D0
:108B84001C180300A4170300E01703006628002044
:108B9400AFDF7047B1DF7047B2DF7047B3DF7047B4
:108BA40010B50446808800F03DFA6080204601F04C
:108BB400C3FF10BD70B588B0254B93E8030008AB24
:108BC40003E90300234B18884FF6FF7398420FD034
:108BD4000026204C324606A901F06EF8054648B935
:108BE400208801F0DEF820804FF6FF739842F1D11F
:108BF40008B070BD00230093019302930393049380
:108C04000593144B1B88ADF804301128F0D0862846
:108C140016D006F0DBFF104C104BE41AE4082404D1
:108C24000C4B1B8802460E4944F0010007F0DCFBA4
:108C340007238DF8003002956846FFF7B1FFD7E7A8
:108C440008A8062300F8203DFFF7AAFFD0E700BFDD
:108C5400501A03006C2800208C150300141503001F
:108C6400AC1B030008B5044B1A884FF6FF739A42F5
:108C740001D0FFF79FFF08BD6C280020024B4FF680
:108C8400FF721A80002070476C2800202DE9F047FD
:108C940082B0804600F092F94FF6FF73984258D0A4
:108CA40005462D4F2D4BFF1AFF083F0447F00107DF
:108CB40001220826DFF8A8901EE02A46082128464B
:108CC40001F040FE824640E0052818BF8246314646
:108CD400284601F0DBFD0346B8B34FF0000A1846FE
:108CE40006F074FF03462A464946384607F07CFBE3
:108CF4002246BAF1000F20D0541CA4B26B46314670
:108D0400284601F03BFD8246D0B9019903230A4667
:108D140042F8043B06314046FFF73EFF0028CCD022
:108D24000C28D1D13146284601F0B0FD2246034635
:108D34000028E1D04FF0010AD1E74FF0030A04E024
:108D4400072814BF82464FF00C0A504602B0BDE813
:108D5400F08743F2020AF8E78C15030014150300A8
:108D6400D81A03002DE9F04F85B0804600F026F9AB
:108D74004FF6FF7398421ED10325002637464FF065
:108D84000109CB464FF0000ACDF804A02B46324629
:108D940039464046FFF7FEFE0446042829D0082839
:108DA40030D00B2826D115F0020F2DD18FB1032519
:108DB4005646019F29E002AA082101F0D9FC20B9F6
:108DC400039B9F1D9E881D68D9E70325002637460F
:108DD400D5E716B10325564617E00D480D4BC01ACA
:108DE400C008000442460C4940F0010007F07EFA36
:108DF40004E01124B9F1000F08BF0B24204605B08C
:108E0400BDE8F08F0024F5E75D46D146BEE700BF1C
:108E14008C15030014150300601A030000B585B017
:108E24000DF10F03029300F0C9F801AA012101F02A
:108E34009FFC20B9029B187805B05DF804FB002064
:108E4400FAE70000F8B505461148FFF7A7FE28B970
:108E54000F4C4FF6FF7743F2030611E006F0B6FE1F
:108E64000C4B0D4A9B1ADB081B0402460B4943F0CA
:108E7400010007F03BFA032009E023880133238033
:108E84003A4621882846FFF783FEB042F5D0F8BD64
:108E94006E2800208C15030014150300581B0300D2
:108EA40010B582B004466B46054A92E8030083E895
:108EB400030000221946204600F0FEFE02B010BD59
:108EC400581A030046DF7047037843B903460F304E
:108ED40013F8012F2AB98342FAD1002070470120E8
:108EE400704701207047A0B10246A1B108B50378CC
:108EF4000878434013F0FE0F01D0002008BD10464F
:108F040006220131013008F0F2F9B0FA80F040098C
:108F1400F4E700207047002070472DE9F04704462D
:108F24000E4600F1110901F1110A471C01F1010873
:108F340010224146384608F0DAF948B90546384661
:108F4400FFF7C2FF28B14046FFF7BEFF054600E029
:108F5400002505F0010551464846FFF7C4FF637C30
:108F640003F0FC03042B04D0737C03F0FC03042BF8
:108F740000D1284600F00100BDE8F08770B584B048
:108F840006460D4600F060FE072401AA0DF10E010D
:108F9400204600F063FE60B1BDF80E30AB42F4D061
:108FA40002993046FFF7B9FF0028EED0BDF80E0055
:108FB40001E04FF6FF7004B070BD000013280AD81A
:108FC40010B50446FEF7FEFE40B104EB8400054BE9
:108FD40033F8100010BD4FF6FF7070474FF6FF7066
:108FE400F8E700BF70280020132813D838B50D46C1
:108FF4000446FEF7E7FE80B104EB8400084C04EB62
:10900400400050F8023F2B6082888379AA80AB71BC
:10901400002038BD43F20200704743F20200F8E733
:1090240070280020F8B54FF6FF73984215D0074614
:109034000B4D002403E001340A35142C09D0A6B2E8
:109044002B88BB42F7D13046FEF7BCFE0028F2D095
:1090540001E04FF6FF763046F8BD4FF6FF76FAE7AB
:1090640070280020038853B9837853B9C31C0A308D
:1090740013F8012B3AB98342FAD10020704701203A
:109084007047012070470120704738B504460D46EB
:10909400FFF7E8FF034620B122882B889A4202D0CA
:1090A4000023184638BD0822A91CA01C08F01FF98B
:1090B400B0FA80F35B09F4E730B585B0044600F0FC
:1090C400C3FD072501AA0DF10E01284600F0C6FDD7
:1090D40080B1029946312046FFF7D7FF30B9029993
:1090E4002A312046FFF7D1FF0028EBD0BDF80E004F
:1090F40005B030BD4FF6FF70FAE70000132804D81E
:1091040000EB8000014B23F81010704770280020FA
:1091140038B50546FFF786FF0446284601F0C0FB34
:10912400034640B9132C06D804EB8404034A4FF6D3
:10913400FF7122F81410184638BD00BF70280020B3
:1091440030B58DB00D46144610300DF1FF330DF1DE
:109154000F0110F8012D03F8012F9942F9D10D22C6
:10916400002104A808F022F92B788DF81F306B78C1
:109174008DF81E30AB788DF81D306846FFF7A2FEDF
:109184009DF82F3023709DF82E3063709DF82D309C
:10919400A3700DB030BD037803F0FE03042B01D09F
:1091A4000020704730B585B00D4604460322411CAB
:1091B40003A808F0D2F80322211D01A808F0CDF875
:1091C40002AA01A92846FFF7BBFF032202A903A8AC
:1091D40008F08DF8B0FA80F0400905B030BD000009
:1091E4000388102B00D0704730B593B007AD041D31
:1091F4000FCC0FC50FCC0FC594E8070085E8070016
:109204009DF8203003F0FE03062B15D1BDF81C1089
:10921400404B8A0050184FF6FF7423F8104003EBBC
:1092240040039A1C0898C3F80200BDF824109DF866
:1092340026309180937154E000F006FD9DF82030B3
:109244005B08012B14D9022B24D1072401AA0DF1A8
:109254000201204600F002FD002844D002990131A9
:1092640008A8FFF798FF0028F0D0BDF8024013E0EB
:10927400072401AA0DF10201204600F0EFFC90B38F
:109284000299113108A8FFF72EFE0028F1D0BDF88D
:10929400024001E04FF6FF74BDF81C201D4B910005
:1092A400881823F8104003EB4003991C0898C3F86E
:1092B4000200BDF824009DF8263088808B714FF69B
:1092C400FF739C420DD0ADF80620ADF8084012ACF7
:1092D400002304F8443D204601F032FC2046FFF709
:1092E40017FA13B030BDBDF81C100A4B8A00501891
:1092F4004FF6FF7423F8104003EB40039A1C0898C0
:10930400C3F80200BDF824109DF8263091809371B3
:10931400E7E700BF7028002090DF7047A5DF7047A3
:10932400B5DF704770B584B00546ADF80810ADF8E8
:109334000A100023ADF80C30ADF80E300093ADF8F0
:1093440004306A4602A9FFF7E7FF064610B9304623
:1093540004B070BD114C124BE41AE408240444F028
:10936400010406F033FC03462A460E49204607F062
:109374003BF8BDF8002012B9BDF802302BB1BDF89E
:1093840002300949204607F02FF8BDF80420002ACE
:10939400DDD00649204606F0A9FFD8E7541503009E
:1093A40014150300281C0300741C0300B41C0300E0
:1093B400034668B101611722028042801B210171BA
:1093C400C280028100209872D87219735973704751
:1093D4000E2070478388002B40F0D88010B582B0EF
:1093E4000C460388232B00F0AD8018D93A2B5CD0AF
:1093F400552B77D0242B1FD1027A4A730B69DBB12A
:109404000021ADF804104DF67A20ADF80000ADF857
:1094140002108DF804206946204698470CE0102B72
:1094240010D0112B08D11723CB800B8100238B7212
:10943400CB721B230B734B73A37A002B40F08B80EE
:1094440002B010BD0B790B73C37B012B0DD0022B23
:109454000ED0E18823898B420DD3217B637B8B4221
:10946400EAD20020FFF75EFFE6E70B88CB80F0E747
:109474004B88CB80EDE70020FFF750FF10B90123A4
:10948400E372EAE7112802D10123A372E5E706F0AB
:109494009DFB3F4B3F4A9B1ADB081B0402463E4997
:1094A40043F0010006F022FFD7E74389CA889342BC
:1094B40028BF1346172B38BF17230B810A696AB1DB
:1094C400C97A59B140F67721ADF800100021ADF802
:1094D4000210ADF804306946204690470023E37239
:1094E400A372A9E7C388C988172B38BF17238B42F7
:1094F40028BF0B4623810020A072FFF711FF98B903
:10950400E37A002B98D12369002B95D040F677227B
:10951400ADF800200022ADF802202289ADF8042025
:1095240069462046984787E706F050FB184B194ACE
:109534009B1ADB081B040246184943F0010006F09D
:10954400D5FEDDE7017A237B994228BF1946002026
:10955400FFF7E8FE70E7E1880020FFF7DFFE80B147
:1095640011283FF46DAF06F031FB094B094A9B1AF1
:10957400DB081B040246084943F0010006F0B6FE6E
:109584005EE70023A3720123E37259E7704700BF2B
:1095940054150300141503000C1D0300401D0300A3
:1095A400B0DF704766DF7047037A03B9704710B5C0
:1095B400044600F114014088FFF7F4FF20B111289C
:1095C40005D06268904710BD00232372FBE7012396
:1095D4002372F8E710B370B5044609B30378DE2BA1
:1095E40020D00D460E4656F8043B4360DE2303703C
:1095F4004FF6FF734380022200210A3007F0D6FEA3
:1096040000232373237204F1140296E8030082E812
:109614000300EA68E2612374184670BD0E207047A7
:109624000E20FAE70820F8E7034688B10278DE2A1C
:1096340010D1027B012A0FD0406978B1188B78B120
:1096440081B103EB4200418101321A73002070475B
:109654000E2070470820704704207047042070478C
:109664000420704707207047002840D02DE9F84FA8
:109674000746002A3DD0002B3DD00078DE283CD19F
:109684009A46934689464FF00008444604E0AC19D4
:10969400A4B23B8BA34226D979690B195A780B5D86
:1096A40053EA02221FD0231D9BB2C8184578CE5C12
:1096B40046EA0526A51DADB29145E8D10234A4B20F
:1096C4000B195B78085D40EA032006EB00081FFADB
:1096D40088F8BAF80030434512D332462944584436
:1096E40007F03BFED3E7AAF80080002006E00E2036
:1096F40070470E2002E00E2000E00820BDE8F88F3D
:109704000420FBE728B10278DE2A04D1418000203E
:1097140070470E20704708207047002900F0F98038
:1097240070B586B00D4610B10A78DE2A01D006B0B5
:1097340070BD044682884B889A4213D00388022B5A
:109744005BD0512B26D0012BF1D1237A012BEED102
:10975400A2886B889A42EAD101232B722846FFF72C
:1097640023FFE4E70846FFF71FFF2388022B44D0BA
:109774000BD9112B0CD1A2886B889A42D7D14FF602
:10978400FF736B8000232B74D1E7012BDDD0CEE770
:10979400512BCCD1A2886B889A42C8D1A379022BD1
:1097A400C5D1A37B052B00F09F80062B47D0042B4B
:1097B400BDD11022002102A807F0F8FD4FF4C073B8
:1097C400ADF80C3002238DF80830297C0A4641B1EB
:1097D400E8892389984218BF002318D001339A429C
:1097E400FCD12A7BB2B168892389984218BF00232F
:1097F4001BD001339A42FCD10CE0237A012B96D181
:10980400A2886B889A4292D100232B748FE700239D
:10981400ADF80C3002A96888FFF7C2FE002886D094
:1098240000232B746B68984781E70023ADF80C3054
:109834004B1C2B74238905EB4101CB81EAE71022F1
:10984400002102A807F0B2FD0023ADF80C3002237A
:109854008DF808302B7C13B10024012612E04FF45C
:10986400C073ADF80C3002A96888FFF799FE002890
:109874003FF45DAF6B68984759E70134A4B22B7C81
:10988400A3420FD98DF8046005EB4403DB89ADF8DE
:109894000630EB6901A9284698470028EDD0ADF8B9
:1098A4000C00EAE702A96888FFF77AFE08B16B6842
:1098B4009847BDF80C40A4B92B7C93B100268DF8D1
:1098C400046005EB4403DB89ADF80630EB6901A9BC
:1098D40028469847ADF80C600134A4B22B7CA3420F
:1098E400EDD800232B7422E71022002102A807F0F0
:1098F4005DFD02238DF808300023ADF80C3002A979
:109904006888FFF74DFE08B16B68984700232B74F5
:109914000DE77047012806D00438C0B205288CBF73
:109924000020012070470120704708B54FF6FF73EF
:10993400438000F023FE08BD70B582B004460D4696
:10994400164608220021684607F030FDA5F580413F
:10995400A4F580406B46324689B280B205F048F8DF
:10996400002818BF052002B070BD000070B58CB08F
:1099740000212A4B1970082207A807F017FD4FF69B
:10998400FF7001F09FF84FF6FF73984214D004461D
:109994001E46A4F58045ADB207AA09A9284605F0DC
:1099A40043F80A280AD1204601F02CF8204601F099
:1099B40089F80446B042ECD10CB070BD4FF6FF7389
:1099C4009C42F9D0284604F0C7FF0546082820D059
:1099D4000028F1D01248134BC01AC00800042346D3
:1099E4002A46114940F0010006F0FEFC00230193D1
:1099F400029304930593069307238DF80430ADF87E
:109A04000840039501238DF8103001A8FFF78DFF5E
:109A1400D2E7024B01221A70CEE700BF4029002092
:109A2400AC150300141503005C1E030000B587B0D9
:109A34000023009301930293039304930593838972
:109A440003F580439BB2ADF8043001784A1E042A22
:109A540059D8DFE802F00303032F4C0043F6FE72EB
:109A6400934205D9C38903F580439BB293424AD8F4
:109A7400C3898DF80830032914BF002101218DF812
:109A8400091083680393436863B908238DF8003091
:109A94009DF8103043F001038DF810306846FFF74D
:109AA40044FF30E009228DF80020049301238DF84F
:109AB4001430F3E743F6FE72934224D8C28912BBF2
:109AC40042686AB10B238DF80030029201238DF8AD
:109AD4000C30154B01221A706846FFF726FF12E07E
:109AE4000A228DF80020184600F08CFFF1E7436845
:109AF4007BB913238DF800304FF6FF73ADF80430B3
:109B04006846FFF712FF084B1B7853B907B05DF89E
:109B140004FB14228DF80020029301238DF80C30ED
:109B2400EAE7FFF723FFF1E74029002070B588B08A
:109B3400224804F06BFD68B904F07EFD0646B0B916
:109B440000F03CFF0822002103A807F02FFC4CF290
:109B5400070528E002461A481A4BC01AC008000438
:109B6400194940F0010006F0C1FB032622E0144825
:109B7400144BC01AC00800043246144940F00100D6
:109B840006F0B4FB862615E001A905A804F07EFEC4
:109B9400019B9C8804F58044A4B205A804F09EFEB1
:109BA400204600F015FF03AA05A9284604F02FFF5C
:109BB4000028E9D0304608B070BD00BF319A0200D9
:109BC400AC15030014150300801D0300C41D03001D
:109BD400F0B587B0FF282CD81F4616460D4604461C
:109BE4000846FFF797FE30B303AA29462046FFF73D
:109BF400A3FE20BB01A903A804F048FE044600BB51
:109C0400B570019B5B8833806FB19D003F88AF4284
:109C140028BF2F463A460299706807F09EFBBD4262
:109C240003D90C2408E0029B736003A804F056FED9
:109C340002E0072400E00724204607B0F0BD052415
:109C4400FAE70524F8E7000008B5082200210248D5
:109C540007F0ACFB08BD00BF38290020F0B587B081
:109C640005460F461646FFF755FE18B9012420464F
:109C740007B0F0BD0446A5F580400E4A03A980B2A2
:109C840004F0C5FE08B10024F1E701A903A804F01B
:109C9400FDFD08B10024EAE7B570019B5A883280C3
:109CA400029A72609B8803F580433B8003A804F00A
:109CB40015FEDCE738290020F0B587B0FF2848D826
:109CC40017460C4605468E783046FFF723FE0028DB
:109CD40041D0A5F58043ADF80C30A6F58043ADF82E
:109CE4000E3063680493238805936A4631462846F8
:109CF400FFF722FE052810D003A9684604F022FECF
:109D040004460E2C17D8DFE804F0101616161616A3
:109D1400160E2A16161616162A0003A9684604F00B
:109D24000BFE0446EDE7862416E0AFB139466846DB
:109D340004F087FE10E00B480B4BC01AC008000467
:109D44002B462246094940F0010006F04DFB03244E
:109D540002E0072400E00724204607B0F0BD1124E8
:109D6400FAE700BFAC15030014150300041E03003A
:109D740008B54FF6FF7000F02BFE08BDFF2806D88B
:109D840008B500F02DFEFFF7F1FD002008BD072007
:109D9400704708B500F048FE08BD08B500F050FE55
:109DA40008BD08B500F074FE08BD08B500F08AFED1
:109DB40008BD76DF7047000030B583B005460C4619
:109DC400124B1B788BB10023ADF800301A4663F3B5
:109DD4001F4265F30F0264F317424FF400310C483D
:109DE40003F0D4FD70B903B030BD0A4A00210A481B
:109DF40003F0B6FD18B9054B01221A70E3E703F02E
:109E0400C9FAF8E703F0C6FAEDE700BF41290020DC
:109E140048290020219E02008C23030070B582B0E3
:109E240084B210F47F0F0DD101A9204600F062FF27
:109E340043F20203984200D038BB9DF8043013F07B
:109E4400020F20D10021204600F046FF0546D0B184
:109E5400112818D00D281BD00B2834D043F202034C
:109E640098423CD005F0B2FE234E244BF61AF60875
:109E7400360423460246224946F0010006F0B4FAAD
:109E8400284603F087FA02B070BD03F083FAD4E7E2
:109E9400194D1A4BED1AED082D0445F00205224622
:109EA4001849284606F022FA13212046FFF781FFBD
:109EB4000028E8D005F08AFE2346024612492846C7
:109EC40006F092FADFE70C480C4BC01AC0080004F5
:109ED40022460E4940F0020006F008FAD3E706488D
:109EE400064BC01AC00800042246094940F002008B
:109EF40006F0FCF9C7E700BF94150300141503002E
:109F040014200300BC1E0300301F0300681F03005D
:109F1400C81F0300F0B587B004460378142B00F281
:109F24009180DFE803F00B8F2E8F8F8F3F8F8C8F04
:109F3400918F8F8F8F8F8F8F8F95BF00808801F0C7
:109F4400FFF886280BD0112809D0132804D85C4BBD
:109F5400C34013F0010F75D103F01CFA72E05949A4
:109F64000B68A088584A22F8130001335A4203F0C0
:109F7400070302F0070258BF53420B6000F0B6F823
:109F840060E0037A012B5DD882880023009301935B
:109F94000293039304930593ADF804206846FFF7F6
:109FA400B9FF4FE0494B1B78002B4BD1484C494B30
:109FB400E41AE408240444F003054749284606F05B
:109FC4001FF9464B1B785BB96A461946184600F0E0
:109FD40063FF064660B1052E1DD0062E21D036BB88
:109FE40004F0E0FC38B308282CD003F0D3F929E0BE
:109FF400BDF800203A49284606F078F9BDF800007B
:10A0040000F0E8FE064618B9344B01221A70E2E764
:10A0140003F0C0F9F8E7334944F0010006F0F0F822
:10A0240010E0314944F0020006F0EAF80AE0304654
:10A0340003F0B0F906E0254B01221A7002E0274B29
:10A0440001221A7007B0F0BD244B01221A70F9E7FF
:10A0540000231E4A1370214A13701A4B1C6804F122
:10A064000807194E4FF6FF7502E00134BC42E9D0EF
:10A07400624204F0070302F0070258BF534236F865
:10A084001320AA42F1D026F8135000230093019321
:10A094000293039304930593ADF804206846FFF7F5
:10A0A40039FFE2E7094B00221A70037B002BC9D069
:10A0B40083680E2B01D0012BC4D100F017F8C1E73F
:10A0C400C100080044290020342200204229002035
:10A0D400941503001415030098200300432900205D
:10A0E400B4200300E02003000021030000B587B082
:10A0F400002300930193029303930493059306238F
:10A104008DF800306846FFF705FF07B05DF804FBE3
:10A11400F0B583B004460278142A00F2C680DFE862
:10A1240002F021210B2321213C472156717D8E9978
:10A1340021A821212121B5004088FDF74FFE638825
:10A144005F4A52F820205F485F49401AC008000463
:10A15400247A5E4951F8241000915D4940F00300CF
:10A1640006F0C8F903B0F0BD4088FDF737FE6388F8
:10A17400534A52F8202053485349401AC008000457
:10A1840061890191247A514951F82410009151496F
:10A1940040F0030006F03CFAE4E74A484A4BC01A90
:10A1A400C00800044C4940F0020006F029F8D9E741
:10A1B400806805F00BFD434B434A9B1ADB081B04E4
:10A1C4000246464943F0010006F090F8CAE7858844
:10A1D400027A434B53F82260427A424B53F822707E
:10A1E400006905F0F3FC374C374BE41AE408240407
:10A1F4000190009733462A463B4944F0020006F09A
:10A2040007FAAFE72F48304BC01AC0080004A288F1
:10A21400364940F0010006F069F8A3E785888068B4
:10A2240005F0D4FC274C284BE41AE4082404034624
:10A234002A462F4944F0010006F0D6F892E7214857
:10A24400214BC01AC00800042A4940F0030005F05D
:10A25400D7FF87E7806805F0B9FC1A4B1A4A9B1AA6
:10A26400DB081B040246244943F0010006F03EF8D3
:10A2740078E71448144BC01AC0080004A388628805
:10A284001E4940F0020006F0AFF86BE7806805F065
:10A294009DFC0C4B0C4A9B1ADB081B040246184914
:10A2A40043F0020006F022F85CE70648064BC01AA9
:10A2B400C0080004134940F0020006F017F851E703
:10A2C4008020030094150300141503008C20030060
:10A2D4004C2103008C210300E0210300F82103003A
:10A2E400582003005020030024220300702203009E
:10A2F40098220300C8220300DC2203000023030089
:10A304003C2303006C23030010B50446FFF700FF51
:10A31400237813B1072B05D010BD00216088FFF707
:10A324004BFDF9E70748084BC01AC0080004074969
:10A3340040F0010005F064FFA0680028ECD003F0B1
:10A3440029F8E9E7941503001415030040210300DC
:10A3540008B50388102B02D0112B05D008BD0021AD
:10A364008088FFF729FDF9E7034803F05DFB002827
:10A37400F4D003F00FF8F1E7482900200B68032B11
:10A384001DD810B403EB43020E4C34F82220824251
:10A394000BD003EB43020B4C04EB82020133042B7E
:10A3A4000BD032F80C4F8442F8D10B6003EB43031B
:10A3B400044800EB830010BC70470020FBE700203A
:10A3C400704700BFBC2A002030B583B005460C4658
:10A3D40002A9002341F8043DFFF7D0FF034648B922
:10A3E40012E0019B0133019301A92846FFF7C6FF40
:10A3F400034648B19A78A242F3D19A7A12F0030F35
:10A40400EFD15A68002AECD1184603B030BD10B51C
:10A41400044600F0D5FD204601F086F92046FEF7FB
:10A4240021FC2046FEF7A4F910BD000070B50546D6
:10A43400037A5BB100240D4E697A2144C9B23046D7
:10A4440000F048FF01342B7AA342F5D84FF6FF738E
:10A454002B80AB70FF236B72AB7A03F0FD036FF3B9
:10A464000003AB7200232B726B6070BDAC2A00201A
:10A4740030B583B0044600230093019383788DF8AC
:10A484000230417A374800F009FF90B1A278237A6C
:10A4940003EB83038DF8022001909B00ADF800309C
:10A4A400531E072B15D8DFE803F02A141414142EB6
:10A4B40011322D482D4BC01AC0080004627A2C4971
:10A4C40040F0010005F012FF03202DE01423ADF845
:10A4D4000030221D69462088FFF7EEFB072823D0B1
:10A4E4001BD9112822D086282BD1A37A03F0FD038F
:10A4F40043F00103A3721F4B01221A7014E00123DD
:10A50400ADF80030E5E70123ADF80030E1E78388DA
:10A5140009339B08ADF80030DBE790B9A37A03F068
:10A52400FD036FF30003A37203B030BDA37A43F0BD
:10A5340002036FF30003A3720E4B01221A70002072
:10A54400F2E705F043FB084D084BED1AED082D0426
:10A5540023880246084945F0010005F045FF032021
:10A56400E2E700BFAC2A0020A41503001415030081
:10A5740068260300A82A0020A82603002DE9F0413C
:10A5840086B00446C368504A5268934228D04E4A63
:10A594001269934220D04C4AD26993421ED04A4A4F
:10A5A400926A934208BF03201BD000202378092B12
:10A5B40024D0132B2CD0082B19D000272046FFF7CA
:10A5C40026FF424B1B78002B62D000243F4B1C70AB
:10A5D4003D4D9846012665E0012002E0022000E09E
:10A5E400002000EB4003384800EB8300DEE7637A89
:10A5F40083B988B1FFF71AFF0027DFE7637A6BB9E5
:10A6040070B100274760837A43F002038372DCE76A
:10A614000127D3E70027D1E70027CFE70027CDE7BD
:10A624000027CBE707238DF80030029000238DF834
:10A634000C3005F0CBFA04EB4404254D254BED1A00
:10A64400ED082D04204B33F824300246224945F00E
:10A65400010005F0C9FE18E088F8006004EB44002E
:10A6640005EB8000FFF704FFC8B14FF6FF73ADF8A8
:10A67400023004EB4403144931F82330ADF80430BC
:10A684008628CFD106238DF800306846FFF7BFFE39
:10A6940006B0BDE8F08188F80060002FDED10134F7
:10A6A400042CF5D004EB440305EB83039B7A13F0ED
:10A6B400020FD1D104EB440305EB83039B7A13F01F
:10A6C400010FE8D1EBE700BFBC2A0020A82A002034
:10A6D400A415030014150300D4240300F0B583B0BB
:10A6E4001C4B00214FF6FF75FF271E460C461D80AC
:10A6F4009D705F7201EB410206EB8202907A00F0DA
:10A70400FD006FF3000090721C725C6001310C3329
:10A714000429ECD150230193042300930E4B4FF4EE
:10A72400A0720E490E4800F099FD034610B9184670
:10A7340003B0F0BD05F04AFA0A4B0B4A9B1ADB083A
:10A744001B040246094943F0010005F0CFFD032331
:10A75400EDE700BFBC2A0020EC2A00206829002075
:10A76400AC2A0020A415030014150300B42403002C
:10A7740008B50023FFF72CFA08BD0000002B6FD0AA
:10A784002DE9F0411C46CB1FDBB2012B6AD8531EC6
:10A79400032B6AD817460E460546FFF715FE80467A
:10A7A400F0B1037ABB4264D198F80930FF2B22D070
:10A7B400002588F8087098F80910304800F06EFDFC
:10A7C40000283AD0A670606007EB8702120192B2AB
:10A7D40092082280002D4ED0082E3CD0002042E06A
:10A7E400FF214FF6FF70FFF7EFFD804600283ED0B3
:10A7F40005808670D8E73946204800F083FD88F844
:10A804000900FF2818BF0125D3D14FF6FF73A8F81C
:10A81400003088F80230FF2388F8093098F80A30AD
:10A8240003F0FD036FF3000388F80A30002388F86F
:10A834000830C8F80430112015E01148114BC01A33
:10A84400C008000498F809200F4940F0010005F001
:10A854004DFD032007E09200063A8280002002E0CA
:10A864000E2070470720BDE8F0810720FBE7112088
:10A87400F9E70F20F7E70020F5E700BFAC2A002036
:10A88400A415030014150300E025030008B5FFF721
:10A894009BFD18B1FFF7CAFD002008BD0520FCE7A9
:10A8A40070B584B0044604A9002341F8043DFFF7C1
:10A8B40065FD054608BB2046FFF760FA03460028FD
:10A8C40034D0072832D005F081F91A4D1A4BED1A0D
:10A8D400ED082D0403462246184945F0010005F011
:10A8E40083FD032322E0039B0133039303A9204642
:10A8F400FFF744FD05460028DDD0A9782046FFF780
:10A90400C5FF0028EFD00528EDD005F05FF9094E0A
:10A91400094BF61AF6083604AB7800932346024630
:10A92400074946F0010005F0E5FD0323184604B08D
:10A9340070BD00BFA4150300141503008C2503008B
:10A9440034250300CB1FDBB2012B01D9072070474C
:10A9540070B515460C4606461046FFF71AFA48B17C
:10A9640021463046FFF730FD30B105808470FFF793
:10A974007FFD00E0072070BD0520FCE710B504460C
:10A9840008464FF6FF739C420BD0FF2C13D8214688
:10A9940004F019F94FF6FF7300280CBF204618463F
:10A9A40010BD4FF4807104F031F980B2B0F5807FAE
:10A9B40008BF2046F4E74FF6FF70F1E708B54022E0
:10A9C4000021024806F0F2FC08BD00BFF02A002076
:10A9D40008B50249FFF7D2FF08BD00BFF02A0020E6
:10A9E4004FF6FF73984209D010B504460449FFF7A7
:10A9F400C5FF844214BF0020012010BD0020704711
:10AA0400102B0020FF2800D9704738B50446054DA7
:10AA14000146284604F0E5F8214605F1200004F03B
:10AA2400E0F838BDF02A0020FF2801D90020704743
:10AA340008B50146014804F0E0F808BDF02A0020FA
:10AA4400FF2801D90020704708B50146014804F0E9
:10AA5400D4F808BD102B002038B50D464FF6FF730F
:10AA6400984210D0013084B2FF2C0ED821462846DB
:10AA740004F0C3F828B90134A4B2FF2CF6D94FF678
:10AA8400FF74204638BD0024F0E74FF6FF74F8E762
:10AA940070B50B49FFF7E0FF04464FF6FF73984289
:10AAA4000CD0074E1D462046FFF7CAFF30B1314691
:10AAB4002046FFF7D1FF0446A842F4D1204670BDDA
:10AAC400F02A002008B50249FFF7C6FF08BD00BF01
:10AAD400102B0020F8B5084B1B785BB10546002409
:10AAE400064F054E57F824302846984701343378EA
:10AAF400A342F7DCF8BD00BF472B0020382B002011
:10AB0400074B1B7803B9704710B50446FEF768FB82
:10AB1400204600F055FE2046FDF72EFF10BD00BF75
:10AB2400462B002018B108B5FFF7D4FF08BD7047C5
:10AB340008B5FFF7CFFF08BD08B5FFF7CBFF08BD89
:10AB440008B5FFF7C7FF08BD10B5FEF7EFFF08BB58
:10AB5400FFF7C4FD00282ED100F004FE00283AD1EE
:10AB640000F072FF002846D1FDF76AFE002852D19A
:10AB7400FEF784F8034600285DD1374A4FF6FF718B
:10AB84001180002235490A6035490A70354A01218D
:10AB940011700EE005F01AF8334C344BE41AE40853
:10ABA40024040346324A334944F0010005F01CFCF6
:10ABB4000323184610BD05F009F82B4C2B4BE41A5F
:10ABC400E408240403462A4A2B4944F0010005F012
:10ABD4000BFC0323EDE704F0F9FF234C234BE41AA9
:10ABE400E40824040346224A244944F0010005F001
:10ABF400FBFB0323DDE704F0E9FF1B4C1B4BE41ACA
:10AC0400E408240403461A4A1D4944F0010005F0EF
:10AC1400EBFB0323CDE704F0D9FF134C134BE41AE9
:10AC2400E40824040346124A164944F0010005F0DE
:10AC3400DBFB0323BDE704F0C9FF0B4C0B4BE41A09
:10AC4400E408240403460A4A0F4944F0010005F0CD
:10AC5400CBFB0323ADE700BF442B00204C2B00208B
:10AC6400482B0020462B00207C15030014150300FC
:10AC7400E0260300F82603002427030050270300DE
:10AC84007C270300A8270300D4270300094B1B7863
:10AC94005BB1094B1B78022B09D8084A42F8230000
:10ACA4000133054A137000207047082070470420C0
:10ACB400704700BF462B0020472B0020382B002074
:10ACC40008B5044B1B7813B100F092FD08BD0820B1
:10ACD400FCE700BF462B002008B5054B1B782BB1C1
:10ACE40000F0A6FD082808BF112008BD0820FCE7D5
:10ACF400462B002038B51A4B1B7853B359B30C4676
:10AD04000546FDF77DF8034638B3022814BF002337
:10AD14000123227863F3000222702846FEF74EF9DD
:10AD24004FF6FF73C01A18BF0120237860F3C303E2
:10AD340023702846FDF776F8237860F341032370E7
:10AD44002846FDF77FF8237860F382032370002000
:10AD540000E0082038BD0E20FCE743F20200F9E7CA
:10AD6400462B0020074B1B783BB141B110B50C4674
:10AD7400FEF758F92080002010BD082070470E20EF
:10AD8400704700BF462B0020074B1B783BB141B1F5
:10AD940010B50C46FEF712F92080002010BD0820E3
:10ADA40070470E20704700BF462B002010B50446A4
:10ADB400074B1B784BB12046FEF7F3FF0446FEF722
:10ADC400ECFF0028F7D1204610BD4FF6FF74FAE7D8
:10ADD400462B002008B5044B1B7813B1FEF798F9F5
:10ADE40008BD0820FCE700BF462B002070B588B0E2
:10ADF400234B1B78002B3ED0224B01221A704FF6B6
:10AE0400FF70FEF7CEFF04464FF6FF7398420CD056
:10AE14001E462046FFF7DEFF0546D8B92046FEF75A
:10AE2400C0FF0446B042F4D126E00025154B1D7046
:10AE34001822294602A806F0B9FA0C238DF8083026
:10AE44004FF6FF73ADF80C30ADF80A3002A8FFF7E7
:10AE540041FE11E004F0BAFE0B4D0C4BED1AED0867
:10AE64002D04009403460A4A0A4945F0010005F0FE
:10AE740041FB032500E00825284608B070BD00BF4B
:10AE8400462B0020342B00207C15030014150300EE
:10AE9400E8260300882803002DE9F04F87B0384CDA
:10AEA4002478002C65D001930092894682464FF69F
:10AEB400FF70FEF776FF0446002305930422ADF8E5
:10AEC4001220029305AB03930DF1120302AA06218B
:10AED400FEF77EFE072850D04FF6FF78C3464FF0AA
:10AEE400FF360027062512E0059BBB4224BFA3467C
:10AEF4001F46B3423CBFA0461E462046FEF751FF04
:10AF040004460DF1120302AA2946FEF761FE002849
:10AF1400EAD00528F1D04FF6FF739C4219D19B4526
:10AF240015D098450CBF05200020BAF1000F01D0C0
:10AF3400AAF800B0B9F1000F01D0C9F80070009B65
:10AF44000BB1A3F80080019BA3B11E6012E00520A1
:10AF5400EBE704F03BFE0B4D0B4BED1AED082D0413
:10AF640023460246094945F0010005F03DFA032055
:10AF740000E0082007B0BDE8F08F0520FAE700BF25
:10AF8400462B00207C150300141503004028030001
:10AF940008B500231A4607490748FFF77DFF30B17B
:10AFA400052814BF00200120044B187008BD01209F
:10AFB400FAE700BF302B0020442B0020482B002050
:10AFC40030B587B004468088FEF72CF8608023787B
:10AFD400083B032B00F28980DFE803F0023245844A
:10AFE400637AE3B9514B1B6813B1E26893420ED004
:10AFF4004F4B1B78002B78D0A2884E4B1B889A426B
:10B0040073D1237A062B70D1FFF7C2FF6DE00023C2
:10B01400464A1360A188474A1180E36065E0012B2A
:10B0240063D1434B1B78002B5FD0A288414B1B8814
:10B034009A425AD1237A062B57D1FFF7A9FF54E03D
:10B04400637A002B51D1394B1B68002B4DD0E26839
:10B0540093424AD10022354B1A6037490B68013BB1
:10B064000B60E26041E0354B1B7863B9304B1D78CF
:10B07400002D3AD0A2882F4B1B889A4235D1FFF776
:10B0840087FFADB331E04FF6FF70FEF78AFE4FF64F
:10B09400FF739842EAD11846FEF787FE4FF6FF7316
:10B0A4009842E3D10021254B19701822684606F016
:10B0B4007DF90C238DF800304FF6FF73ADF80430A2
:10B0C400ADF802302046FFF705FD6846FFF702FDA4
:10B0D400174B1B7863B1A288164B1B889A4207D181
:10B0E4000025CCE7154B1B7823B92046FFF7F2FC6B
:10B0F40007B030BD0021114B19701822684606F0C4
:10B1040055F90D238DF800304FF6FF73ADF8043078
:10B11400ADF80230A3680293237B8DF80C302046EF
:10B12400FFF7D8FC6846FFF7D5FCE1E74C2B00207D
:10B13400482B0020442B0020302B0020342B0020EF
:10B144003D4A1278002A6FD030B589B004463B4B93
:10B1540093E8030008AB03E90300394B1B78002B89
:10B1640033D0384B1B68002B61D1374B1B88A3426B
:10B1740035D0364B1B68B3F1FF3F5AD00133334A05
:10B184001360304A06A92046FEF796FD034618B31D
:10B194002C4A002111602D490A68013A0A601128DD
:10B1A4001AD0862818D0072816D004F00FFD284D91
:10B1B400284BED1AED082D0423460246264945F096
:10B1C400010005F011F9032306E0FFF7E1FE1C4B33
:10B1D4001B78002BC5D11123184609B030BD1B4B79
:10B1E4001B68002BCAD018220021684606F0DEF83E
:10B1F40008238DF800302046FDF714FFADF8020057
:10B20400ADF8044006238DF8083000248DF8094079
:10B2140003949DF8103064F300038DF810306846F1
:10B22400FFF758FC2346D7E7082318467047112335
:10B23400D2E71323D0E700BF462B0020D826030013
:10B24400482B00204C2B0020442B0020302B0020C6
:10B254007C150300141503000028030070B4039C3C
:10B26400049D78B1064679B183B105FB04F09042A0
:10B274000ED87CB185B131607360B460F560002094
:10B2840070BC70470720FBE70720F9E70720F7E7C2
:10B294000720F5E70720F3E70720F1E790B138B579
:10B2A4000446006868B1606870B1FF290ED00D468D
:10B2B400BFF35F8F03F0A1FC50B1E068216800FB8D
:10B2C400051038BD002070470020FAE70020F8E799
:10B2D4000020F6E7A8B138B5044602684AB14068D0
:10B2E40038B1FF2905D00D46BFF35F8F03F085FC0D
:10B2F40000B938BD6068BFF35F8F294603F071FC65
:10B30400F7E77047F8B590B3064603688BB3436814
:10B314008BB383688BB30F460025FF24294612E0C4
:10B32400FF2C0AD0AC421DD221463046FFF7D2FF93
:10B334000134E4B2AC42F7D1FF240135EDB2294621
:10B34400B3689D4210D2706803F03DFCBFF35F8F79
:10B354000028E5D1FF2C08BF2C462B1B0133BB4230
:10B36400EBD102E0FF24E8E7FF242046F8BDFF24E8
:10B37400FBE7FF24F9E7FF24F7E7FF24F5E703469B
:10B3840080B3017801F08202802A2DD0C1F3021229
:10B39400042A2BD801F0F202322A29D0427880788C
:10B3A400824227D8062A27D9102827D8DA7812F01B
:10B3B400040F25D1187910F0040F23D1024312F0A1
:10B3C400080F01D00020704711F0010F05D112F0D1
:10B3D400030F0CBF01200020704712F0030018BFB8
:10B3E40001207047002070470020704700207047FC
:10B3F40000207047002070470020704700207047ED
:10B40400002070470020704708B5FFF78BFB08BD8C
:10B4140031F0080352D0112950D070B586B01646C9
:10B424000C4605460023009301930293039304936F
:10B434000593ADF80200FDF7C1FDADF804000D2C35
:10B444001AD0204604F0C2FB1D4E1E4BF61AF60815
:10B4540036042B4602461C4946F0010004F0C4FFA2
:10B4640007238DF80030029400238DF80C306846D1
:10B47400FFF7CAFF06B070BD1148124BC01AC008CE
:10B4840000042A46114940F0020004F02FFF032370
:10B494008DF8003086B1337803F00103002B0CBF24
:10B4A400022301238DF8083000238DF80C3041F27B
:10B4B4000113ADF80A30DAE70223F3E7704700BF5F
:10B4C400B41503001415030098290300E0280300B1
:10B4D4000378182B00D0704710B50446FCF7C2FC63
:10B4E400207010BD2DE9F0478AB0054691461F46ED
:10B4F4008A4641BB4FF00008CDF81480CDF818807F
:10B50400364B1B68049301AE04AC94E8070086E84C
:10B51400070005238DF81030ADF812502846FDF7CA
:10B524004DFDADF81400CDF8188007962046FFF7BE
:10B534006BFFDDF804802A4B1B7833B99DF80D307E
:10B544001BB9052623E04FF000084A464146284629
:10B5540000F060FB0446112814BF00220122214B95
:10B5640019782846FCF7A4FC0B2C17D013D9112CFE
:10B5740016D152461C4B19782846FCF799FC4A46CA
:10B584001A4B19782846FCF793FC0026FFB930467D
:10B594000AB0BDE8F0870CB1082C07D12646F5E7C0
:10B5A40043F202039C42F9D00D2CF7D0204604F05C
:10B5B4000DFB0F4E0F4BF61AF60836042B460246C7
:10B5C4000D4946F0010004F00FFF0326DEE7424672
:10B5D40021462846FFF71CFFD9E700BF5C2B00205B
:10B5E400592B00204622002045220020442200201E
:10B5F400B415030014150300042A030038B50446E7
:10B60400084B1978FCF738FC0546074B1978204697
:10B61400FCF732FC01232A4601462046FFF762FF6D
:10B6240038BD00BF44220020452200202DE9F0410E
:10B634008AB0044688460027029703971B4B1B6871
:10B64400019307AE01AD95E8070086E807000523DE
:10B654008DF80430ADF806402046FDF7AFFCADF898
:10B664000800CDF80C8004962846FFF7CDFE104B59
:10B674001A680799204600F021FA0546112814BFDC
:10B68400002201220B4B19782046FCF711FC3A46A4
:10B69400094B19782046FCF70BFC079A29462046EB
:10B6A400FFF7B6FE0AB0BDE8F08100BF5C2B0020B6
:10B6B400502B0020472200204622002008B50021FC
:10B6C400FFF7B4FF08BD000010B504460378052B4E
:10B6D40005D0122B08D02046FFF796FE10BD8168D6
:10B6E4004088FFF7A3FFF9E70D4B1B689BB10D4B97
:10B6F4001B78017A03F0010291420ED8417AC3F318
:10B704004003994294BF0021012101230022608853
:10B71400FFF7E8FEDFE70121F7E70121F5E700BFC6
:10B724005C2B0020542B002008B50378082B0FD382
:10B734000B2B01D9132B0BD100220649064B187889
:10B74400FCF7D8FB00220549054B1878FCF7D2FB1F
:10B7540008BD00BFC1B602004722002001B60200A6
:10B764004622002010B50F48FFF7B2FE0E48FFF73F
:10B77400AFFE0E48FFF7ACFE0D4C2046FFF7A8FEC7
:10B784002378182B18BF002000D010BD09480A4B9D
:10B79400C01AC0080004094940F0010004F030FD5B
:10B7A4000320F2E746220020442200204522002004
:10B7B40047220020B4150300141503005818030091
:10B7C40008B500F03DFA00220549064B1878FCF74D
:10B7D40091FB00220449054B1878FCF78BFB08BD4C
:10B7E400C1B602004722002001B602004622002012
:10B7F40080B110B50446FFF7C2FD88B1094B20683B
:10B80400186022791A71084A1360084B01221A70D1
:10B81400002010BD044B1860044B01221A707047BD
:10B824000720F6E7542B00205C2B0020592B002026
:10B8340008B500230A461946FFF754FE08BD7EDF0B
:10B8440070477FDF704786DF70470378182B00D07E
:10B85400704710B50446FCF705FB207010BD10B509
:10B8640004464088FDF7AAFBA0802046FFF72CFF82
:10B8740010BD10B586B0044618220021684605F0B4
:10B8840095FD04238DF80030ADF802406846FFF7BB
:10B89400E6FF06B010BD00B587B000230093019306
:10B8A40003930493059307238DF80030ADF8020049
:10B8B40002916846FFF7D3FF07B05DF804FB000070
:10B8C40030B587B000240094019402940394049446
:10B8D400059403258DF80050ADF802008DF808108A
:10B8E400ADF80A208DF80C302246044B1978FCF789
:10B8F400DFFA6846FFF7B3FF07B030BD49220020E6
:10B9040070B586B006460C4615460A46144B19789F
:10B91400FCF7CEFA0CB906B070BD2A1C18BF012280
:10B92400104B19783046FCF7C3FA012D14BF0022DE
:10B9340001220D4B19783046FCF7BAFA0023009324
:10B944000193029303930493059301238DF800302C
:10B95400ADF802608DF808506846FFF780FFDAE71B
:10B96400492200204B2200204A22002000B587B043
:10B9740002238DF800300388ADF80230437903F0D8
:10B984000403002B14BF012302238DF808308DF823
:10B9940009106846FFF763FF07B05DF804FB000079
:10B9A4002DE9F84304460D461646214B1978FCF759
:10B9B40063FA08B9BDE8F8831E4B19782046FCF7F2
:10B9C4005BFA30B933462A4600212046FFF778FF58
:10B9D400F0E7194B19782046FCF74EFA002814BFFB
:10B9E4004FF001084FF0020804F58070072180B27F
:10B9F400FEF74CFF814698B1052811D004F0E6F813
:10BA04000E4F0F4BFF1AFF083F04234602460D4911
:10BA140047F0010004F0E8FC49462046FFF73BFFED
:10BA240033462A4641462046FFF74AFFC2E700BF95
:10BA3400492200204B2200204A220020BC1503008A
:10BA4400141503006C2A030010B5154C2046FFF7AB
:10BA5400FCFE1448FFF7F9FE1348FFF7F6FE1348FF
:10BA6400FFF7F3FE2378182B0DD00E4B1B78182B01
:10BA740009D00D4B1B78182B05D00C4B1B78182BB9
:10BA840001D000200AE00A480A4BC01AC00800048A
:10BA9400094940F0010004F0B3FB032010BD00BFCE
:10BAA400492200204B2200204A2200204822002064
:10BAB400BC1503001415030058180300F0B58BB02F
:10BAC40005460E461746FCF789F904462022002154
