:020000022000DC
:1060000000000120996202003D6202003F6202002E
:10601000416202004362020045620200000000008B
:1060200000000000000000000000000047620200C5
:1060300049620200000000004B6202004D62020053
:106040003D93020051620200F59802005562020081
:10605000576202005962020015960200D5B702008D
:106060005F62020061620200636202006562020018
:1060700067620200F5B402006B6202006D6202000A
:106080006F6202004DCC0200736202007562020072
:106090008DCC0200796202002D7C03007D6202003B
:1060A0007F62020081620200836202008562020058
:1060B0008762020089620200000000000000000008
:1060C0008B6202008D6202008F6202009162020008
:0C60D000936202009562020097620200D9
:1060DC00364937480A1A02D0072291438D46354972
:1060EC0035480A1A06D00722914381F30988022207
:1060FC0082F3148831483249324A00F045F832486C
:10610C003249334A00F040F832483349334A00F000
:10611C003BF833483349344A00F036F833483449B5
:10612C00344A00F031F834483449354A00F02CF840
:10613C0034483549354A00F027F8354835490022AE
:10614C0000F02DF834483549002200F028F8344886
:10615C003449091A082903DB00220260043001606B
:10616C00314A90471F482049884205D002680430C4
:10617C0003B4904703BCF7E700208646EC460020AA
:10618C0000212A4A9047FEE7884207D0521A05D0D0
:10619C00037801300B700131013AF9D17047884214
:1061AC0002D002700130FAE77047000000000120B5
:1061BC0000E00020000001200000012088200400E5
:1061CC00CC22002000250020086302000863020096
:1061DC00E4D7030088200400CC220020CC2200202D
:1061EC0040D9030040D9030040D9030040D9030033
:1061FC0040D9030040D9030040D9030040D9030023
:10620C0088200400BC22040000250020002500206A
:10621C0000250020883E0020883E0020883E00207B
:10622C00883E0020885E0020D5620200FD660200D8
:10623C00FEE7FEE7FEE7FEE7FEE7FEE7FEE7FEE72A
:10624C00FEE7FEE7FEE7FEE7FEE7FEE7FEE7FEE71A
:10625C00FEE7FEE7FEE7FEE7FEE7FEE7FEE7FEE70A
:10626C00FEE7FEE7FEE7FEE7FEE7FEE7FEE7FEE7FA
:10627C00FEE7FEE7FEE7FEE7FEE7FEE7FEE7FEE7EA
:10628C00FEE7FEE7FEE7FEE7FEE7FEE7034885468E
:10629C0000F002F8FFF71CBF70470000000001205F
:1062AC001048804710484FF00701884385460D4839
:1062BC0080470E48016841F470010160BFF34F8FB5
:1062CC00BFF36F8FFFF704BF09480A490A4A884297
:1062DC0007D0521A05D0037801300B700131013A06
:1062EC00F9D17047A56202000000012088ED00E0A2
:0C62FC002CD90300B8220020CC22002086
:10630800FEE77ADF704700BF18467CDF704700BFA2
:1063180018467FDF704700BF18468FDF704700BF01
:106328001846B1DF704700BF184669DF704700BFE5
:106338001846000000B589B001900091019B1B88A8
:10634800132B0BD0132B04DC102B2DD0112B4BD07F
:1063580051E0212B2FD0522B13D04CE0019B988871
:10636800002300228521FFF7D4FF0790079B0493A1
:10637800049B002B3AD0224A7221049805F00AFDAA
:1063880034E0019B9888002300220021FFF7C9FF11
:106398000790079B0693069B002B29D0184A782163
:1063A800069805F0F7FC23E0012000F0B2FA02207D
:1063B80000F0BBFA1FE000238DF80C3000238DF8A5
:1063C8000D30019B9B8803AA11461846FFF7A5FFCD
:1063D8000790079B0593059B002B0BD0084A8C213F
:1063E800059805F0D7FC05E000BF04E000BF02E017
:1063F80000BF00E000BF00BF09B05DF804FB00BFAC
:1064080040D9030010B58AB0264B6C460FCB84E800
:106418000F009DF81030012262F303038DF810304D
:106428009DF81030012262F307138DF810306B4687
:10643800184617F0A1F903469AB2694604AB184604
:10644800FFF763FF0990099B0893089B002B04D072
:10645800154AA721089805F09DFC05AB08220021E4
:10646800184617F056F92823ADF814304823ADF82C
:1064780016300023ADF818304FF4C873ADF81A3051
:1064880005AB1846FFF73DFF0990099B0793079B4B
:10649800002B04D0044AB221079805F07BFC00BF0A
:1064A8000AB010BDA8D9030040D9030000B583B0D5
:1064B8000021094802F086FB0190019B0093009B94
:1064C800002B04D0054ABB21009805F063FC00BFEF
:1064D80003B05DF804FB00BF0025002040D903008D
:1064E80000B58BB011F0C0FA0990099B0893089B7E
:1064F800002B04D0244AC821089805F04BFC00233F
:10650800049304AB184611F0A1FB0990099B07936B
:10651800079B002B04D01C4ACC21079805F03AFCB5
:1065280001AB0C220021184617F0F3F801238DF86F
:10653800053000238DF8063000238DF80730049AC3
:1065480001AB19464020FFF7F0FE0990099B06931E
:10655800069B002B04D00C4AD921069805F01AFC9A
:1065680004AB184611F092FB0990099B0593059B13
:10657800002B04D0044ADD21059805F00BFC00BF70
:106588000BB05DF804FB00BF40D9030000B58BB029
:1065980001AB1C220021184617F0BBF80023019319
:1065A8004FF4203302934FF47023039303238DF8A1
:1065B80010300023ADF8123000238DF8143001ABF1
:1065C800184601F055FC0990099B0893089B002B7D
:1065D80004D0044AF521089805F0DCFB00BF0BB095
:1065E8005DF804FB40D9030000B583B009F0C6FF8D
:1065F8000190019B0093009B002B05D0044A4FF4A7
:106608008071009805F0C6FB00BF03B05DF804FB7D
:1066180040D9030008B505F091FD09F0C5FF00BF9A
:1066280008BD00B583B003468DF807309DF80730E4
:10663800012B08D0022B0AD0002B00D00BE0002041
:1066480000F0A3F907E0022000F063F903E002205C
:1066580000F06BF900BF00BF03B05DF804FB000059
:1066680000B583B006F014FB0190019B0093009BDA
:10667800002B05D0044A40F22B11009805F08AFB44
:1066880000BF03B05DF804FB40D9030000B583B038
:106698000021012000F0E6FC0190019B0093009B83
:1066A800002B05D0044A4FF49971009805F072FB4D
:1066B80000BF03B05DF804FB40D9030000B583B008
:1066C8000A4A0A21082005F073FC0190019B0093F7
:1066D800009B002B05D0064A4FF49C71009805F0EA
:1066E80059FB00BF03B05DF804FB00BF1425002070
:1066F80040D9030008B5FFF7B3FFFFF7C7FFFFF75F
:10670800DDFFFFF771FFFFF7EBFEFFF77BFEFFF7FB
:10671800CDFEFFF73BFF03480FF056FDFFF77AFF6A
:10672800FCE700BF2B66020082B001904FF0A04347
:10673800184602B0704700B585B00190084611466A
:106748001A4603468DF803300B468DF8023013467F
:106758008DF8013001AB1846FFF7E6FF03909DF86E
:1067680003209DF802305B001A439DF801309B001E
:106778001A439DF818301B0242EA03019DF81C30A9
:106788001B04019A1943039B02F5E07243F8221097
:1067980000BF05B05DF804FB00B585B00390002389
:1067A8000193002300930023012201210398FFF79E
:1067B800C2FF00BF05B05DF804FB00B585B00190CD
:1067C80001AB1846FFF7B0FF0390019B012202FAC4
:1067D80003F31946039800F069F800BF05B05DF8A7
:1067E80004FB00B585B0019001AB1846FFF79CFF8C
:1067F8000390019B012202FA03F31946039800F063
:106808005FF800BF05B05DF804FB00B585B00190E6
:1068180001AB1846FFF788FF0390039BD3F80435B4
:106828000293029BDA43019B012101FA03F31A4008
:10683800039BC3F80825019B01229A40029B1A403A
:10684800039BC3F80C2500BF05B05DF804FB00B539
:1068580083B001900091009B002B03D10198FFF7B2
:10686800C0FF02E00198FFF7A8FF00BF03B05DF882
:1068780004FB00B585B0019001AB1846FFF754FF43
:106888000390039800F00AF80246019B22FA03F3EA
:1068980003F00103184605B05DF804FB82B00190CF
:1068A800019BD3F80435184602B0704782B00190B6
:1068B8000091019B009AC3F8082500BF02B07047F9
:1068C80082B001900091019B009AC3F80C2500BF8B
:1068D80002B0704700B585B0019019231846FFF73C
:1068E800C8FF0346002B14BF012300238DF80F3087
:1068F8009DF80F30002B14BF01230023DBB283F077
:106908000103DBB203F00103DBB2184605B05DF802
:1069180004FB00B583B00190192300211846FFF746
:1069280096FF00BF03B05DF804FB00B583B001908B
:10693800192301211846FFF78AFF00BF03B05DF84D
:1069480004FB00B583B00023019305E00198FFF72D
:10695800ECFF019B01330193019B002BF6D000BF94
:1069680003B05DF804FB00B583B00023019305E094
:106978000198FFF7CEFF019B01330193019B002B88
:10698800F6D000BF03B05DF804FB00B583B00190FA
:1069980019231846FFF739FF00BF03B05DF804FB61
:1069A80000B583B00023019306E019231846FFF7CA
:1069B800F3FE019B01330193019B002BF5D0FFF7F8
:1069C800C0FF00BF03B05DF804FB00B583B00190C1
:1069D800019B03F00103002B01D0FFF7E1FF00BF8B
:1069E80003B05DF804FB00B583B00122002100204C
:1069F80000F06AFB0190019B002B04D0019B072B40
:106A080001D0019B1CE007220221012000F05CFB61
:106A18000190019B002B04D0019B072B01D0019B07
:106A28000EE004220221002000F04EFB0190019BA1
:106A3800002B04D0019B072B01D0019B00E0002311
:106A4800184603B05DF804FB00B583B001220221AB
:106A5800002000F039FB0190019B002B04D0019B22
:106A6800072B01D0019B1CE007220221012000F026
:106A78002BFB0190019B002B04D0019B072B01D01D
:106A8800019B0EE00A220021002000F01DFB01906E
:106A9800019B002B04D0019B072B01D0019B00E038
:106AA8000023184603B05DF804FB000000B585B06C
:106AB80001900091019B1B88102B02D0112B18D03C
:106AC8002FE01A4B1B68002B0DD1FFF78CFF0390AA
:106AD800039B002B07D0164B1B68002B03D0144BCD
:106AE8001B6803989847114B1B6801330F4A1360C2
:106AF80017E00E4B1B68013B0C4A13600B4B1B68DD
:106B0800002B0DD1FFF7A0FF0390039B002B07D0AC
:106B1800074B1B68002B03D0054B1B68039898474D
:106B280000BF00BF05B05DF804FB00BFC82500200A
:106B3800C425002000B583B00C4B1B78002B0FD068
:106B48000023019308E0019B022B02D00198FFF774
:106B5800ECFE019B01330193019B002BF3D001E074
:106B6800FFF7EFFE00BF03B05DF804FBD42500205B
:106B78002DE9F04884B003468DF8073000230393CD
:106B880000230293D14B1B78002B04D0CF4B00225B
:106B98001A70FFF7CFFF9DF80730172B00F23582E8
:106BA80001A252F823F000BF116C0200296C020008
:106BB800296C0200B16C0200396D0200A76D020059
:106BC8002D6E02004D6E02005D6E02007B6E0200AB
:106BD800996E0200B76E0200E16E0200EF6E0200CD
:106BE800EF6E0200EF6E0200EF6E0200EF6E020021
:106BF800B56F0200C36F0200D76F0200EB6F02008F
:106C08000570020005700200FFF794FFB04B1846AC
:106C180006F0D4F80390AF4A9DF807301370F5E1F9
:106C28000020FFF757FE0346002B0DD00020FFF78A
:106C38007CFE9DF80730022B02D14FF4E16301E09E
:106C48004FF47A6302930BE00020FFF762FE9DF891
:106C58000730022B01D1C82301E04FF4C873029317
:106C68009C4A9DF807301370994D029B19464FF0C6
:106C780000024FF000034FF00004D40344EA5144EB
:106C8800CB0313F5FA7044F100014FF47A724FF018
:106C9800000316F05EFB03460C4600221946284600
:106CA80006F05AF80390B1E10020FFF713FE0346FF
:106CB800002B0DD00020FFF738FE9DF80730032B7E
:106CC80002D14FF4487301E04FF47A6302930BE06A
:106CD8000020FFF71EFE9DF80730032B01D1C823C3
:106CE80001E04FF4C87302937A4A9DF80730137095
:106CF800774D029B19464FF000024FF000034FF00A
:106D08000004D40344EA5144CB0313F5FA7044F168
:106D180000014FF47A724FF0000316F01AFB034695
:106D28000C4600221946284606F016F803906DE135
:106D38000020FFF7CFFD0346002B06D00020FFF709
:106D4800F4FD4FF47A63029305E00020FFF7E1FDBC
:106D58004FF4C87302935F4A9DF8073013705C4D77
:106D6800029B19464FF000024FF000034FF0000459
:106D7800D40344EA5144CB0313F5FA7044F10001FB
:106D88004FF47A724FF0000316F0E3FA03460C460C
:106D980000221946284605F0DFFF039036E100205F
:106DA800FFF798FD0346002B0CD00020FFF7BDFD30
:106DB8009DF80730052B01D1C82301E04FF47A6311
:106DC80002930BE00020FFF7A4FD9DF80730052B88
:106DD80001D1C82301E04FF4C87302933D4A9DF8DE
:106DE800073013703A4D029B19464FF000024FF0DE
:106DF80000034FF00004D40344EA5144CB0313F5D5
:106E0800FA7044F100014FF47A724FF0000316F063
:106E1800A0FA03460C4600221946284605F09CFFB6
:106E28000390F3E00020FFF7B0FD2A4A9DF80730F1
:106E38001370274B002240F6CD41184605F08CFF11
:106E48000390E3E00020FFF764FD224A9DF8073035
:106E58001370DBE01D4B01221A700120FFF795FD2E
:106E68001B4B002240F6CD41184605F075FF0390F4
:106E7800CCE0164B01221A700120FFF786FD144B57
:106E880000224FF48041184605F066FF0390BDE0EC
:106E98000E4B01221A700120FFF777FD0C4B0022E0
:106EA80040F6CD41184605F057FF0390AEE0074B7A
:106EB80001221A700120FFF768FD054B00224FF4EC
:106EC8008041184605F048FF03909FE0CD2500203B
:106ED800D8250020CC250020FFF745FD4E4A9DF817
:106EE8000730137092E04D4B184605F067FF03908A
:106EF8009DF80730C3F111030293029B002B4ED07B
:106F0800039B002B4BD1029B012B41D9434F029B82
:106F18009BB29DB24FF00006AB46B4461BEB0B0389
:106F28004CEB0C049B46A4461BEB050B4CEB060CE8
:106F38004FF000014FF000024FEACC0242EA5B72C8
:106F48004FEACB018B4694461BEB050B4CEB060C2A
:106F58004FF000014FF000024FEA8C4242EA9B32A8
:106F68004FEA8B418B4694465B46644613F5FA70AC
:106F780044F100014FF47A724FF0000316F0E9F97A
:106F880003460C4600221946384605F0E5FE0390F4
:106F98000220FFF7BEFC224B01221A7036E00220C5
:106FA800FFF7C3FC1E4B00221A702FE0FFF7C2FD4B
:106FB800194A9DF80730137028E0FFF7BBFD002041
:106FC800FFF7A7FC144A9DF8073013701EE0FFF77F
:106FD800B1FD0120FFF79DFC0F4A9DF807301370A3
:106FE80014E0FFF7A7FD0020FFF793FC0120FFF74F
:106FF80090FC094A9DF80730137007E0FFF7B3FCCF
:10700800054A9DF80730137000E000BF039B18463F
:1070180004B0BDE8F08800BFCC250020F82500208A
:10702800D425002000B583B00190074B1B6803F0FE
:107038000103002B04D0054B1B781846FFF798FD79
:1070480000BF03B05DF804FBD0250020CC2500204C
:1070580000B583B001900220FFF797FC00BF03B092
:107068005DF804FB00B585B00190009100230393FF
:10707800104A019B1360019B03F00103002B14D0FD
:107088000120FFF7A2FC039B002B05D10A4A00212F
:107098000A4805F031FE0390039B002B05D1084AEE
:1070A8000121084805F028FE0390039B184605B007
:1070B8005DF804FBD02500202D700200B8D903002C
:1070C80059700200BCD9030084B001900B468DF8BA
:1070D800033013468DF802300023039307230393EC
:1070E800039B184604B070476DDF704700BF184611
:1070F80079DF704700BF18467DDF704700BF18462C
:1071080064DF704700BF184682B003460091ADF8AF
:107118000630BDF80630DAB2009B1A70BDF80630AA
:107128001B0A9AB2009B0133D2B21A700223184686
:1071380002B0704700B589B0039002911346ADF8CC
:107148000630029B1B8803F10902BDF806309A42FB
:1071580001D90C2353E004AB1846FFF7C5FF07908D
:10716800079B0693069B002B01D0069B47E0029BDA
:107178001B881A46039B134408221A70029B1B881B
:1071880001339AB2029B1A80029B1B881A46039B02
:1071980013441B221A70029B1B8801339AB2029B6C
:1071A8001A80029B1B881A46039B981804AB01336C
:1071B8000622194616F084FA029B1B8806339AB2F7
:1071C800029B1A809DF8103023F00103DBB2002BDC
:1071D80007D1029B1B881A46039B134400221A708E
:1071E80006E0029B1B881A46039B134401221A706F
:1071F800029B1B8801339AB2029B1A80002318460F
:1072080009B05DF804FB00B589B0039002910192C2
:10721800ADF80230039B1B78012B05D1039B5B78EB
:10722800002B01D1072392E0019B1B889A1CBDF813
:1072380002309A420ED8039B1B78012B0CD1019B7C
:107248001B881A46039B5B7813449A1CBDF80230CE
:107258009A4201D90C237AE0019B1B88BDF80220D1
:10726800D31A9BB2023BADF81C30BDF81C30ADF808
:107278001230019B1B880233029A13440DF112024B
:1072880011461846FFF738FF0690069B0593059BA5
:10729800002B01D0059B5AE0039B1B78022B06D0DC
:1072A800039B5B789AB2BDF812309A4209D3BDF8B5
:1072B8001230BDF81C209A4203D309238DF81F30E1
:1072C80017E008238DF81F30039B1B78012B0CD186
:1072D800039B5B789BB2BDF81C209A4205D3039BA5
:1072E8005B789BB2ADF8123003E0BDF81C30ADF806
:1072F8001230BDF81230FE2B01D90C2327E0BDF85F
:107308001230DAB2019B1B881946029B0B440132EA
:10731800D2B21A70019B1B8801339AB2019B1A8062
:10732800019B1B881A46029B13449DF81F201A7064
:10733800019B1B8801339AB2019B1A80019B1A8812
:10734800BDF8123013449AB2019B1A8000231846E4
:1073580009B05DF804FB00B589B0039002911346AB
:10736800ADF80630029B1B881A1DBDF806309A42FC
:1073780001D90C233BE00DF116031846FFF7B8FEC0
:107388000790079B0693069B002B01D0069B2EE0D7
:10739800029B1B881A46039B134403221A70029B04
:1073A8001B8801339AB2029B1A80029B1B881A46DB
:1073B800039B134419221A70029B1B8801339AB24B
:1073C800029B1A80BDF81620029B1B881946039B56
:1073D8000B4419461046FFF797FE03461946029BD1
:1073E8001A888BB213449AB2029B1A80002318465B
:1073F80009B05DF804FB84B0029101921A46034675
:107408008DF80F301346ADF80C30019B1B88DA1C41
:10741800BDF80C309A4201D90C2328E0019B1B8847
:107428001A46029B134402221A70019B1B880133DF
:107438009AB2019B1A80019B1B881A46029B13442F
:1074480001221A70019B1B8801339AB2019B1A8092
:10745800019B1B881A46029B13449DF80F201A7043
:10746800019B1B8801339AB2019B1A80002318469E
:1074780004B0704784B0029101921A4603468DF811
:107488000F301346ADF80C30019B1B88DA1CBDF891
:107498000C309A4201D90C2328E0019B1B881A461C
:1074A800029B134402221A70019B1B8801339AB273
:1074B800019B1A80019B1B881A46029B13440A22CF
:1074C8001A70019B1B8801339AB2019B1A80019B99
:1074D8001B881A46029B13449DF80F201A70019BC3
:1074E8001B8801339AB2019B1A800023184604B006
:1074F800704700B58FB0039001930B468DF80B30A1
:1075080013468DF80A3000238DF83330109B1B8802
:10751800ADF8303000230D9371E0039B5A680D9B42
:107528009B001A4405AB106818600DF11B0105ABF0
:1075380000221846FFF7E4FD0A900A9B0993099B6D
:10754800002B01D0099B7CE09DF81B309DF80A2098
:107558009A4251D19DF83330002B01D0002300E02E
:1075680002238DF82330109B1B881A469DF81B3088
:107578001A449DF823301A44BDF844309A4201DD7C
:107588000C235EE09DF8333083F00103DBB2002B5F
:1075980016D0109B1B8801339AB2109B1A80109B3F
:1075A8001B881A46019B13449DF80B201A70109BE8
:1075B8001B8801339AB2109B1A8001238DF833304F
:1075C800109B1B881A46019B1A440DF11B0105AB41
:1075D8001846FFF795FD0A900A9B0793079B002B17
:1075E80001D0079B2DE0109B1A889DF81B309BB299
:1075F80013449AB2109B1A800D9B01330D93039B81
:107608001B881A460D9B934287DB9DF83330002B6D
:1076180016D0109B1A88BDF83030D31A9BB2013BA4
:10762800ADF82E30BDF82E30FF2B01D90C2308E021
:10763800BDF83030019A1344BDF82E20D2B21A702A
:10764800002318460FB05DF804FB00B58BB0059019
:1076580003930B468DF8133013468DF812309DF8BE
:107668001310BDF8343001930C9B0093039B022246
:107678000598FFF73EFF0990099B0893089B002B8C
:1076880001D0089B14E09DF81210BDF83430019326
:107698000C9B0093039B10220598FFF72AFF099083
:1076A800099B0793079B002B01D0079B00E0002351
:1076B80018460BB05DF804FB82B00190019B1B8853
:1076C800052B0AD9019B1B88B3F5486F07D9019B85
:1076D8001B884FF6FF72934201D0072325E0019BD8
:1076E8005B88052B0AD9019B5B88B3F5486F07D9DE
:1076F800019B5B884FF6FF72934201D0072314E089
:10770800019B1B884FF6FF7293420DD0019B5B884B
:107718004FF6FF72934207D0019B1A88019B5B8842
:107728009A4201D9072300E00023184602B07047A7
:1077380000B587B0039002910192ADF80230019B29
:107748001B889A1DBDF802309A4201D90C234DE0DE
:107758000398FFF7B1FF0590059B0493049B002B4A
:1077680001D0049B42E0019B1B881A46029B1344EC
:1077780005221A70019B1B8801339AB2019B1A805B
:10778800019B1B881A46029B134412221A70019B04
:107798001B8801339AB2019B1A80039B1A88019BAC
:1077A8001B881946029B0B4419461046FFF7ACFC90
:1077B80003461946019B1A888BB213449AB2019B5F
:1077C8001A80039B5A88019B1B881946029B0B440D
:1077D80019461046FFF798FC03461946019B1A887C
:1077E8008BB213449AB2019B1A800023184607B043
:1077F8005DF804FB00B587B0039002910192ADF8E3
:107808000230039B9B8802330593019B1B881A4611
:10781800059B13449A1CBDF802309A4201D90C23E7
:1078280054E0059BFE2B01D90C234FE0059BDAB2EF
:10783800019B1B881946029B0B440132D2B21A7075
:10784800019B1B8801339AB2019B1A80019B1B88FC
:107858001A46029B1344FF221A70019B1B880133AE
:107868009AB2019B1A80039B1A88019B1B881946B0
:10787800029B0B4419461046FFF746FC034619467F
:10788800019B1A888BB213449AB2019B1A80039BFE
:107898009B88002B19D0039B9B68002B01D10723E1
:1078A80014E0019B1B881A46029B9818039B996851
:1078B800039B9B881A4615F003FF019B1A88039BBC
:1078C8009B8813449AB2019B1A800023184607B07C
:1078D8005DF804FB00B589B0039002910192ADF800
:1078E8000230039B9B6A002B01D1072372E000231F
:1078F8008DF81F3066E0039B996A9DF81F20134698
:107908005B0013449B000B440693069B9B88023341
:107918000593059BFE2B01D90C235BE0059BDAB28E
:10792800019B1B881946029B0B440132D2B21A7084
:10793800019B1B8801339AB2019B1A80019B1B880B
:107948001A46029B134416221A70019B1B880133A6
:107958009AB2019B1A80069B1A88019B1B881946BC
:10796800029B0B4419461046FFF7CEFB0346194607
:10797800019B1A888BB213449AB2019B1A80069B0A
:107988009B88002B19D0069B9B68002B01D10723ED
:1079980020E0019B1B881A46029B9818069B996851
:1079A800069B9B881A4615F08BFE019B1A88069B3E
:1079B8009B8813449AB2019B1A809DF81F300133AB
:1079C8008DF81F30039B93F82C309DF81F209A42A6
:1079D80091D30023184609B05DF804FB00B595B0B3
:1079E80005900491039200231393039B1B88ADF821
:1079F8004A30039B00221A80059B93F82D30002BF8
:107A08000ED0BDF84A301A4603990498FFF792FB46
:107A18001390139B1193119B002B01D0119BD8E05D
:107A2800059B9B78002B0ED0BDF84A301A46039967
:107A38000498FFF790FC1390139B1093109B002B56
:107A480001D0109BC5E0059BDB78002B10D0059B6F
:107A5800DB7858B2BDF84A30039A0499FFF7CBFC9B
:107A68001390139B0F930F9B002B01D00F9BB0E03B
:107A7800059B5B68002B11D0059B5B6893F90000A0
:107A8800BDF84A30039A0499FFF7F4FC1390139B4E
:107A98000E930E9B002B01D00E9B9AE0059B1B8931
:107AA800002B14D0059B03F10800BDF84A30019360
:107AB800039B0093049B06220221FFF7C6FD139047
:107AC800139B0D930D9B002B01D00D9B81E0059B13
:107AD8001B8A002B14D0059B03F11000BDF84A3017
:107AE8000193039B0093049B07220321FFF7ADFD3D
:107AF8001390139B0C930C9B002B01D00C9B68E0FC
:107B0800059B1B8B002B14D0059B03F11800BDF8B7
:107B18004A300193039B0093049B15221421FFF71D
:107B280094FD1390139B0B930B9B002B01D00B9B85
:107B38004FE0059B1B6A002B0FD0059B186ABDF808
:107B48004A30039A0499FFF7F3FD1390139B0A93A5
:107B58000A9B002B01D00A9B3BE0059B5B6A002B2C
:107B68000FD0059B586ABDF84A30039A0499FFF76D
:107B780041FE1390139B0993099B002B01D0099B8D
:107B880027E0059B93F82C30002B0ED0BDF84A3027
:107B9800039A04990598FFF79DFE1390139B089389
:107BA800089B002B01D0089B13E0059B1B78002B3A
:107BB8000ED0BDF84A30039A04990598FFF723FBC5
:107BC8001390139B0793079B002B01D0079B00E0A2
:107BD800139B184615B05DF804FB75DF704700BFAE
:107BE800184676DF704700BF18467ADF704700BF37
:107BF80018467BDF704700BF1846000084B0034674
:107C0800ADF806300023039316E00F49039A134694
:107C18009B0013449B000B441B88BDF806209A4226
:107C280007D1039A13469B0013449B00064A13444A
:107C380006E0039B01330393039B002BE5D000234D
:107C4800184604B0704700BF3826002082B0019063
:107C58000B46ADF80230019BBDF802201A80019B4B
:107C680000221A72019B054903F10A020B4603CB55
:107C78001060516000BF02B0704700BF6826002046
:107C880082B00190019B4FF6FF721A8000BF02B0CC
:107C9800704788B00390029111461A460B46ADF81A
:107CA80006301346ADF80430039B9B881A46BDF88E
:107CB800063013440793039B9B88BDF806209A421D
:107CC80006D2039B9B881A46BDF80630D31A00E0FB
:107CD80000230693039BDB881A46BDF8043013443F
:107CE8000593039BDB88BDF804209A4206D2039BC8
:107CF800DB881A46BDF80430D31A00E00023049349
:107D0800029B5A88039B1B889A4205D3029B5A8878
:107D1800039B5B889A4201D900231CE0029B9B8845
:107D28001A46069B934205D8029B9B881A46079BD6
:107D3800934201D200230EE0029BDB881A46049B83
:107D4800934205D8029BDB881A46059B934201D2D1
:107D5800002300E00123184608B0704700B583B03F
:107D68000190064B9B69002B03D0044B9B6901983B
:107D7800984700BF03B05DF804FB00BF4C26002005
:107D880000B585B003460091ADF80630BDF8063061
:107D980000991846FFF721FF0390039B002B05D09D
:107DA800039B112B02D00398FFF7D8FF039B002BEE
:107DB8000CBF01230023DBB2184605B05DF804FBB5
:107DC80000B589B00190019B0793079B9BB21846A9
:107DD800FFF714FF0690069B002B42D0069B1A7AE9
:107DE800224B1B7B9A4215D2079B9AB2069B0A33F9
:107DF80019461046FFF7C4FF03468DF813309DF867
:107E08001330002B2DD0069B1B7A0133DAB2069B68
:107E18001A7226E0069B00221A72144B1B7C002B58
:107E28000FD0079B9BB23B211846FFF7DAFE05905F
:107E3800059B002B05D0059B082B02D00598FFF762
:107E48008DFF0A4B5B69002B0BD000238DF80C309B
:107E5800079B9BB2ADF80E30044B5B6903AA104632
:107E6800984700BF09B05DF804FB00BF4C2600200E
:107E780030B587B00190019B002B01D10E2353E050
:107E88002B4A019B14461D460FCD0FC495E80700E9
:107E980084E80700264B274A1A60019B1B68002BC1
:107EA80011D0019B1B681846FFF79FFE0490049BA6
:107EB800002B01D0049B37E0019B1A681D4B10680A
:107EC800516803C308E01B48FFF793FE0490049B26
:107ED800002B01D0049B27E00023059320E0059A9E
:107EE80013469B0013449B00134A134403930398BF
:107EF800FFF7C6FE059B5B01104A1A44039B5A60B4
:107F0800039B04330E4A0021184604F0F5FE049042
:107F1800049B002B01D0032306E0059B0133059346
:107F2800059B002BDBD00023184607B030BD00BFEF
:107F38004C2600206826002038260020182600201D
:107F4800C97D020000B587B003460091ADF8063040
:107F5800009B5B7A002B1AD1009B1B7A002B03D164
:107F6800164B5B68059302E0144B9B680593009BD6
:107F78005B68BDF806200599184604F0EDFE0490EC
:107F8800049B002B16D00498FFF7E8FE12E0009B34
:107F980000221A72094B5B69002B0BD001238DF864
:107FA8000C30BDF80630ADF80E30044B5B6903AAFF
:107FB8001046984700BF07B05DF804FB4C26002028
:107FC80000B585B00190019BDB7B8DF80F30019BDC
:107FD8009B88ADF80C309DF80F30012B2CD14FF653
:107FE800FF70FFF70BFE0290029B002B03D10420C9
:107FF800FFF7B4FE21E0BDF80C3019460298FFF7F0
:1080080025FE029B03F10A00019B03F110014FF6C4
:10801800FF7340F2F312FFF73CFE03461A46029B39
:108028005A72074BDB89002B07D1BDF80C30029937
:108038001846FFF787FF00E000BF05B05DF804FBB6
:108048004C26002000B587B00190019B9B88ADF8B5
:108058001630BDF816301846FFF7D0FD0490049B83
:10806800002B0ED0049B5B68184604F0A7FE039013
:10807800039B002B02D00398FFF770FE0498FFF7CC
:10808800FFFD00BF07B05DF804FB000000B587B036
:108098000190019B06330593059B1A88194BDB89D0
:1080A8009A422BD1059B5B89022B27D1019B9B8888
:1080B800ADF81230BDF812301846FFF79FFD039057
:1080C800039B002B1AD0059B0C33184600F0BCF913
:1080D8000346002B06D0BDF8123003991846FFF767
:1080E80031FF0BE0039B5B68184604F067FE0290C3
:1080F800029B002B02D00298FFF730FE00BF07B0AA
:108108005DF804FB4C26002000B585B00190019B6A
:108118009B88ADF80E30BDF80E301846FFF76EFD9F
:108128000290029B002B15D0029B03F10A00019BD1
:1081380003F108014FF6FF7340F2F312FFF7A9FDB0
:1081480003461A46029B5A72BDF80E300299184629
:10815800FFF7F8FE00BF05B05DF804FB00B583B07B
:1081680001900091019B1B88112B0DD0112B02DC73
:10817800102B05D014E0122B0ED0502B08D00FE096
:108188000198FFF71DFF0BE00198FFF75BFF07E081
:108198000198FFF77BFF03E00198FFF7B5FF00BFE9
:1081A80000BF03B05DF804FB30B58FB001900091BB
:1081B80000230293009B002B1AD000230D9314E098
:1081C8006B460D99184606F005FE0346002B09D0AC
:1081D800029B5A1C02920D9A92B25B000EA90B44A4
:1081E80023F82C2C0D9B01330D930D9B132BE7D9F2
:1081F800019B1D4602AC0FCC0FC50FCC0FC594E8F0
:10820800070085E8070001980FB030BD00B583B0BE
:108218000346ADF80630BDF80630132B01D900230C
:108228000CE0BDF806301946064806F0A4FDBDF876
:1082380006301946044806F09EFD0123184603B08F
:108248005DF804FB782600207426002000B585B070
:108258000346ADF80630002303930DE0039B9B0013
:10826800094A13440433BDF806201146184606F09F
:1082780099FD039B01330393039B1C2BEED900BF8D
:1082880005B05DF804FB00BF7026002000B583B080
:108298000346ADF80630BDF806301946034806F027
:1082A80081FD00BF03B05DF804FB00BF7826002005
:1082B80030B59BB0184B9B68DB431893164B5A6834
:1082C80018AB1146184606F0FCFD189A6B46114685
:1082D8001846FFF769FF0DAC6D460FCD0FC40FCDE3
:1082E8000FC495E8070084E80700002319930BE002
:1082F800199B5B001AAA134433F8303C1846FFF761
:10830800A5FF199B013319930D9B199A9A42EFD334
:1083180000BF1BB030BD00BF7026002000B585B07F
:1083280001900091019B9B88ADF80E30019B1B8842
:10833800112B22D01A2B26D0102B00D063E0FFF788
:10834800B7FFBDF80E301846FFF760FF034683F00D
:108358000103DBB2002B05D02D4AE321042003F0F2
:1083680019FD4FE0019BDB7B012B4BD0BDF80E3094
:108378001946284806F0FFFC44E0BDF80E301846C0
:10838800FFF784FF3FE0019B1B7AC3F30313DBB2C3
:10839800012B8CBF012300238DF80D30019B1B7A24
:1083A800C3F30313DBB2022B8CBF012300238DF828
:1083B8000C309DF80D30002B17D0BDF80E30194643
:1083C800154806F0D8FC9DF80C30002B06D0BDF8F7
:1083D8000E301946114806F0CEFC14E0BDF80E30F8
:1083E80019460E4806F0DEFC0DE0BDF80E301946C1
:1083F800094806F0D7FCBDF80E301946074806F0C4
:10840800D1FC00E000BF00BF05B05DF804FB00BF71
:10841800C0D903007C260020802600208426002066
:1084280082B00190019B1B781AB2019B01331B7823
:108438001B021BB213431BB29BB2184602B0704713
:10844800AADF704700BF184600B585B001900198B3
:10845800FFF7E6FF0346ADF80E30BDF80E3003F027
:108468000103002B14BF01230023DBB2184605B01B
:108478005DF804FB82B0034600918DF80730009A3E
:1084880013786FF303031370009A13786FF30713CD
:1084980013709DF80730052B5BD801A252F823F022
:1084A800C1840200D7840200F18402000B85020017
:1084B800258502003F850200009A13786FF30303B5
:1084C8001370009A13786FF30713137040E0009A43
:1084D8001378012161F303031370009A13780121C3
:1084E80061F30713137033E0009A1378012161F3E5
:1084F80003031370009A1378022161F307131370B2
:1085080026E0009A1378012161F303031370009A9F
:108518001378032161F30713137019E0009A137895
:10852800022161F303031370009A1378012161F3A8
:10853800071313700CE0009A1378022161F3030308
:108548001370009A1378022161F30713137000BFA8
:1085580000BF00BF02B0704700B595B00346029156
:108568000192ADF80E30029B9B78002B03D10123BA
:108578008DF81E3003E0029B9B788DF81E30029B1D
:108588001B88ADF81C3006AB03220021184615F0F5
:10859800C0F8029B5B7C06AA11461846FFF76AFFE3
:1085A800029B9A7C06AB013319461046FFF762FF1F
:1085B800029BDA7B9DF81A3062F3C3038DF81A30F8
:1085C800029B1A7C9DF81A3062F304138DF81A3056
:1085D800029B1A7B9DF81A3062F300038DF81A305B
:1085E800029B1B7D002B01D0022200E001229DF896
:1085F8001A3062F342038DF81A300DAB1C220021A9
:10860800184615F086F8029B5B7B03F01003DBB27B
:10861800002B06D1029B5B7B03F02003DBB2002B0F
:1086280024D004AB03220021184615F072F8029BEF
:10863800DA7C04AB013319461046FFF71BFF9DF89F
:108648001030012262F303038DF810309DF81030CA
:10865800012262F307138DF810309DF812300122C1
:1086680062F342038DF8123004AB1293029B5B7BDA
:108678008DF83430029B9B7B8DF8353008AB142283
:108688000021184615F045F807AB089306AB099387
:10869800029B9B88ADF82C30029B9B68002B06D070
:1086A800029BDB88ADF82830029B9B680C93029BE9
:1086B8009B69002B4FD005AB03220021184615F00B
:1086C80028F8029B9B691B88ADF83C30029B9B698C
:1086D8005B88ADF83E30029B9B695B680E9305ABE7
:1086E8001193029B9B691B7B05AA11461846FFF74D
:1086F800C1FE029B9B695A7B05AB013319461046A4
:10870800FFF7B8FE029B9B699A7A9DF8163062F3D0
:10871800C3038DF81630029B9B69DA7A9DF81630F0
:1087280062F304138DF81630029B9B691A7A9DF840
:10873800163062F300038DF81630029B9B699B7B11
:10874800002B01D0022200E001229DF8163062F3CE
:1087580042038DF81630029BDB69002B02D0029B86
:10876800DB69109308AA0DA9BDF80E00019BFFF75D
:1087780067FE0346184615B05DF804FB90DF7047A6
:1087880000BF1846A5DF704700BF1846B5DF704721
:1087980000BF184682B00190019B17221A80019BE6
:1087A80017225A80019B00221A71019B00225A71DC
:1087B800019B1B229A71019B1B22DA7100BF02B038
:1087C8007047000030B589B003460A46ADF8063058
:1087D8001346ADF80430BDF80430ADF81430BDF8D8
:1087E8000430ADF816300023ADF818300023ADF88A
:1087F8001A3003AB00221A609A8003AA05A9BDF8B3
:1088080006301846FFF7BAFF0790079B002B39D0B0
:108818001E4A1F4BD31ADB081B0443F00104BDF8A2
:108828000650079807F00AFF03462A4619492046CA
:108838000EF03FFBBDF80C30002B03D1BDF80E3015
:10884800002B0ED0114A124BD31ADB081B0443F03D
:108858000100BDF80C301A46BDF80E300E490EF076
:1088680028FBBDF81030002B0CD0084A084BD31A4F
:10887800DB081B0443F00103BDF810200749184624
:108888000EF006FB079B184609B030BDDCD8030084
:108898008CD803002CDA030078DA0300B8DA030076
:1088A80010B586B001900091009B9B88ADF80E3002
:1088B800BDF80E30DB00019A134406330593019B83
:1088C8001A79059B9A71009BDB7B012B02D0022B46
:1088D80005D009E0019B1A88059B1A8004E0019BDA
:1088E8005A88059B1A8000BF059B1A88059B5B88E0
:1088F8009A4226D9059B1A88BDF80E3011461846AB
:10890800FFF740FF0490049B002B03D1059B012235
:108918005A7116E0049B112B03D1059B01221A7191
:108928000FE0114A114BD31ADB081B0443F0010472
:10893800049807F083FE03461A460D4920460EF0B8
:10894800A7FA059B9A79059BDB799A4208D9059B7A
:108958009B799AB2BDF80E3011461846FFF732FFE0
:1089680000BF06B010BD00BFDCD803008CD80300E0
:1089780010DB030000B583B001900091009B9B8839
:10898800DB00019A134406331846FFF703FF00BFC4
:1089980003B05DF804FB00B587B001900091009B1F
:1089A8009B88ADF81630009B5B89ADF81430BDF894
:1089B8001630DB00019A134406330493049B1B888A
:1089C800BDF81420934228BF13469AB2049B5A80DC
:1089D800049B5B88172B38BF17239AB2049B5A80D5
:1089E800019B1B69002B15D0049B5B79002B11D0D0
:1089F80040F67723ADF80830BDF81630ADF80A30E8
:108A0800049B5B88ADF80C30019B1B6902AA1146D8
:108A180001989847049B00225A71049B00221A71FE
:108A280000BF07B05DF804FB10B588B00190009155
:108A3800009B9B88ADF81A30009BDB88ADF8183096
:108A4800BDF81A30DB00019A134406330593BDF8CC
:108A58001830172B38BF1723ADF81830059B1B8823
:108A6800BDF81820934228BF13469AB2059B5A8036
:108A7800059B00221A71059B1A88BDF81A30114609
:108A88001846FFF783FE0790079B002B0FD0174A65
:108A9800174BD31ADB081B0443F00104079807F0AF
:108AA800CDFD03461A46134920460EF0F1F9059B01
:108AB8005B79002B16D1019B1B69002B13D040F664
:108AC8007723ADF80C30BDF81A30ADF80E30059BA1
:108AD8005B88ADF81030019B1B6903AA1146019809
:108AE800984700E000BF08B010BD00BFDCD8030005
:108AF8008CD8030044DB030030B591B0019000919D
:108B0800009B04AC1D1D0FCD0FC40FCD0FC495E8FD
:108B1800070084E80700BDF81030ADF83E30BDF816
:108B28001420BDF83E30D1B2019ADB0013440A4646
:108B38005A73019B1B69002B19D002AB00221A60E3
:108B48009A804DF67A23ADF80830BDF83E30ADF87E
:108B58000A30BDF83E30019ADB0013445B7B8DF888
:108B68000C30019B1B6902AA11460198984700BF67
:108B780011B030BD00B587B001900091009B04335F
:108B88000593059B1B88DB00019A13440633049365
:108B9800059B9B888DF80F30049B9B799DF80F20CF
:108BA800934228BF13468DF80E30059B1B889DF80D
:108BB8000E2092B211461846FFF704FE00BF07B018
:108BC8005DF804FB00B585B001900091019B002B76
:108BD80001D10E231DE0019B009A1A61019B172207
:108BE8001A80019B17225A80019B1B221A710023AD
:108BF80003930AE0039BDB00019A134406331846EB
:108C0800FFF7C8FD039B01330393039B002BF1D0AF
:108C18000023184605B05DF804FB000010B586B0C7
:108C280001900091009B0593019B9B88ADF8123041
:108C3800BDF81230002B6AD1019B1B88232B26D04C
:108C4800232B04DC102B09D0112B0CD024E03A2B59
:108C58000ED0552B11D0242B14D01DE00199059866
:108C6800FFF71EFE18E001990598FFF783FE13E051
:108C780001990598FFF78FFE0EE001990598FFF717
:108C8800D3FE09E001990598FFF736FF04E0019942
:108C98000598FFF76FFF00BFBDF81230059ADB009B
:108CA80013449B7A002B33D0BDF81230059ADB00B1
:108CB8001344DA88BDF8123011461846FFF762FDF2
:108CC8000390039B002B0ED1BDF81230059ADB00F0
:108CD800134400229A72BDF81230059ADB0013443F
:108CE8000122DA7214E0039B112B11D0094A0A4BB6
:108CF800D31ADB081B0443F00104039807F09EFC19
:108D080003461A46054920460EF0C2F800E000BFA7
:108D180006B010BDDCD803008CD8030010DB0300BC
:108D280082B003468DF807309DF8073003F01F0323
:108D3800012202FA03F1054A9DF907305B09203345
:108D480042F8231000BF02B0704700BF00E100E006
:108D580008B500F0E3FA024B00229A7000BF08BD84
:108D6800E826002000B583B000230193144B1B783C
:108D7800002B02D0852301931CE0114B00229A603E
:108D88000F4B00225A600E4B00221A610C4B002236
:108D9800DA600C4800F0A0FA01900EF017FF0346C5
:108DA80083F00103DBB2002B01D000F0AFFA044BD3
:108DB80001221A70019B184603B05DF804FB00BF3E
:108DC800E82600207D8E020084B00190019B1B687C
:108DD8000393039B002B03D0039B1A68019B1A6023
:108DE800039B184604B0704700B583B000238DF884
:108DF80007300DF10703184604F088F8094BDB68C3
:108E0800013B084AD360074BDB68002B01D1FFF711
:108E18009FFF9DF80730184604F082F800BF03B0A2
:108E28005DF804FBE826002000B585B003468DF800
:108E380007309DF80730002B02D10C4B039301E05B
:108E48000B4B03930398FFF7BFFF0290029B002B85
:108E580006D0029B5B689DF8072010469847F1E70B
:108E680000BF00BF05B05DF804FB00BFF02600207E
:108E7800F826002000B583B003468DF807309DF82A
:108E88000730002B05D10A4B01225A700020FFF74A
:108E9800CBFF9DF80730012B05D1054B01229A70B5
:108EA8000120FFF7C1FF00BF03B05DF804FB00BF5E
:108EB800E826002000B583B001900091019B002BAB
:108EC80005D1054B01225A700020FFF7ADFF00BF06
:108ED80003B05DF804FB00BFE826002000B585B0AC
:108EE800034600918DF807309DF80730012B08D014
:108EF800032B25D0002B00D027E00020FFF710FF20
:108F080023E000238DF80F300DF10F03184603F00E
:108F1800FDFF104B1B7883F00103DBB2002B01D05F
:108F2800FFF720FF0B4BDB6801330A4AD360094B7C
:108F380001229A709DF80F30184603F0F1FF04E003
:108F480000F0E4F9FFF750FF00BF00BF05B05DF87F
:108F580004FB00BFE826002000B589B0019000910D
:108F6800009B0793019B1B788DF80C30019B5B6875
:108F78000493019B9B68DBB28DF81430019BDB687E
:108F88000693074A079B52F823300649079A51F877
:108F9800221003AA1046984700BF09B05DF804FBE9
:108FA800FC2600200027002000B589B00190009120
:108FB800009B0793019B1B788DF80C30019B5B6825
:108FC8000493019B9B68DBB28DF81430019BDB682E
:108FD8000693074A079B52F823300649079A51F827
:108FE800221003AA1046984700BF09B05DF804FB99
:108FF800FC2600200027002030B58FB00390029196
:109008000192039B1B780C9326490C9B019A41F80B
:109018002320029B1A6924490C9B41F82320029BB8
:109028005B7F1946214A0C9B13440A461A70029B1F
:1090380004AC1D460FCD0FC495E80F0084E80F005F
:109048000C9B089300230D93039B1B781A46174B20
:109058009B5C002B0DD0039B181D019B002B01D09E
:10906800134A00E0002204AB194601F0A9FD0D9057
:1090780014E0039B1B781A460C4B9B5C002B0DD10C
:10908800039B03F10C00019B002B01D0094A00E06F
:10909800002204AB194600F0A9FF0D900D9B18465D
:1090A8000FB030BDFC260020002700200427002038
:1090B800618F0200B18F020082B003468DF807303D
:1090C8009DF8073003F01F03012202FA03F1044A56
:1090D8009DF907305B0942F8231000BF02B07047C2
:1090E80000E100E082B0034600918DF807309DF959
:1090F8000730002B0CDA009BDAB20C499DF80730D8
:1091080003F00F03043B5201D2B20B441A7609E074
:10911800009BDAB206499DF907305201D2B20B44DE
:1091280083F8002300BF02B0704700BF00ED00E0E5
:1091380000E100E082B00190019B1B0B5BB2184676
:1091480002B0704700B583B003460A468DF8073071
:1091580013468DF806309DF806209DF90730114614
:109168001846FFF7BFFF00BF03B05DF804FB00B56A
:1091780083B003468DF807309DF907301846FFF78E
:109188009BFF00BF03B05DF804FB000082B00346FC
:109198008DF807300F4A9DF90730002B00DA1F338E
:1091A8005B115BB252F823209DF90730594203F056
:1091B8001F0301F01F0158BF4B425BB222FA03F3B1
:1091C80003F00103002B14BF01230023DBB2184670
:1091D80002B0704700E100E082B001904FF0804299
:1091E800019BC2F8083300BF02B0704782B0034643
:1091F8008DF807309DF8073003F1804301221A608B
:1092080000BF02B0704784B00346ADF80630BDF821
:10921800063003F1804300221A60BDF8063003F1DE
:1092280080431B680393039B00BF04B0704782B060
:109238000346ADF80630BDF8063003F180431B68DD
:10924800002B14BF01230023DBB2184602B070477D
:1092580082B001904FF08042019BC2F8183500BFE0
:1092680002B070474FF08043D3F818341B0C03F05A
:109278000103002B14BF01230023DBB218467047FB
:1092880000B583B006238DF807304FF08040FFF714
:1092980051FF03461846FFF779FF034683F00103A1
:1092A800DBB2002B13D04FF08040FFF743FF03469B
:1092B8001A469DF8073019461046FFF743FF4FF04E
:1092C8008040FFF737FF03461846FFF750FF00BFFF
:1092D80003B05DF804FB000084B001900023039301
:1092E800094B1B79002B02D08523039308E0064A1B
:1092F800019B1360044B01221A71034B00225A711F
:10930800039B184604B070470827002008B5FFF7EC
:10931800B7FF0120FFF79CFF00BF08BD08B50C2070
:10932800FFF764FF00BFFFF79DFF0346002BFAD14C
:1093380000BF08BD08B54FF48070FFF778FF0346FB
:10934800002B14D04FF48070FFF75DFF0120FFF76A
:1093580043FF114B5B7983F00103DBB2002B06D08E
:109368000D4B01225A710C4B1B68002098474FF493
:109378008270FFF75CFF0346002B0AD04FF482701F
:10938800FFF741FF0220FFF727FF034B1B6801206F
:10939800984700BF08BD00BF0827002000B583B06C
:1093A8000346ADF80630BDF80630184600F026F83A
:1093B80003461B68012B0CBF01230023DBB21846B0
:1093C80003B05DF804FB00B585B00346ADF8063080
:1093D800BDF80630184600F011F803461A46002377
:1093E8001360BDF80630184600F008F803461B68FD
:1093F8000393039B00BF05B05DF804FB82B00346EE
:10940800ADF80630BDF8063003F1804303F5C043DC
:10941800184602B07047000082B00190034BD3F8A1
:109428000423019B1340184602B0704700600040B7
:1094380082B00190054A019B03F5A27352F82330CC
:109448001B0A03F01F03184602B070470060004073
:1094580082B00190064A019B03F5A27352F82330AB
:109468001B0C03F00303DBB2184602B0704700BFC1
:109478000060004082B001904FF0A043184602B04F
:10948800704700B585B001900B468DF8033001ABED
:109498001846FFF7EFFF0390019A039B02F5E0726D
:1094A80053F82230019A23F44031039B02F5E0720D
:1094B80043F82210019A039B02F5E07253F8223018
:1094C8009DF8032012041146019A1943039B02F5E3
:1094D800E07243F8221000BF05B05DF804FB00B548
:1094E80085B0019001AB1846FFF7C4FF0390019ABD
:1094F800039B02F5E07253F822301B0C03F00303C0
:10950800DBB2184605B05DF804FB82B00190019B00
:10951800D3F81035184602B0704700B587B00390ED
:10952800029101924FF0A0430493039B059311E02D
:10953800059B9B0006AA134453F8083C1846FFF7FE
:10954800E4FF0246019B1A60019B04330193059BCB
:1095580001330593039A029B1344059A9A42E7D371
:1095680000BF07B05DF804FB84B001900091009B38
:109578000393019BDB080293019B03F0070301930C
:109588000122019B02FA03F30399029A0A44127812
:109598001340184604B0704784B001900091009BB6
:1095A8000393019BDB080293019B03F007030193DC
:1095B800039A029B13441B785AB20121019B01FABA
:1095C80003F35BB2134359B2039A029B1344CAB222
:1095D8001A7000BF04B0704782B00190044A019B22
:1095E8001344303393F90030184602B0704700BF77
:1095F8001027002082B00190034A019B52F82330C3
:10960800184602B0704700BF1027002000B595B07B
:1096180000231093002303934FF48073ADF83A307E
:109628000123129300230F9321E0BDF83A30184626
:10963800FFF7B4FE0346002B0ED01298FFF7ECFE9E
:109648000346002B08D0BDF83A301846FFF7BBFE9A
:10965800109A129B13431093129B5B001293BDF850
:109668003A300433ADF83A300F9B01330F930F9B18
:10967800072BDAD94FF4BE70FFF790FE0346002B94
:109688000DD04FF4BE70FFF79EFE109B43F00043D1
:10969800109303AB1A4601210020FFF73EFF109BF1
:1096A800DBB2002B29D00123129300230F9321E072
:1096B800129A109B1340002B16D00F98FFF7B8FE94
:1096C8000D900F98FFF7C4FE03468DF833300F98BE
:1096D800FFF790FF0B900B9B002B05D09DF83320D4
:1096E8000B9B11460D989847129B5B0012930F9B9A
:1096F80001330F930F9B072BDAD9109B002B80F2B5
:10970800EE8000238DF84F3000230293002311933D
:109718000AE0119B9B0014AA13444FF0FF3243F850
:109728004C2C119B01331193119B002BF1D000237A
:109738008DF84F3000230F9378E06B4A0F9B13444A
:10974800503393F900308DF82B309DF82B3023F0EF
:10975800C0030993644A0F9B1344503393F90030B4
:10976800B3F1FF3F5FD001AB19460998FFF7FCFE44
:109778000346002B57D09DF82B309B098DF82330DA
:109788000998FFF729FF03461846FFF733FF0790AC
:10979800079B002B03D19DF82330032B43D19DF861
:1097A8002330032B04D102AB19460998FFF7F4FEC6
:1097B8000998FFF794FE03468DF81B3003AB194652
:1097C8000998FFF7D1FE0590059B002B03D09DF863
:1097D8001B30022B06D0059B002B24D19DF81B3093
:1097E800032B20D19DF82330032B13D19DF81B3078
:1097F800022B01D1032300E002238DF813309DF8DA
:10980800133019460998FFF73CFE9DF84F30013395
:109818008DF84F30079B002B05D09DF82320079B20
:109828001146099898470F9B01330F930F9B032B01
:1098380083D99DF84F30002B4CD001238DF84E3042
:109848006B461A4601210020FFF767FE002311939B
:1098580014E0119B9B0014AA134453F8502C119B3D
:109868009B0014A90B4453F8443C9A4203D00023AC
:109878008DF84E3005E0119B01331193119B002B9D
:10988800E7D09DF84E30002B03D000238DF84F30E1
:1098980020E0002311931AE0119B9B0014AA1344A3
:1098A80053F8502C119B9B0014A90B4443F8442CEB
:1098B800119B9B0014AA134453F8482C119B9B003E
:1098C80014A90B4443F84C2C119B01331193119BA1
:1098D800002BE1D09DF84F30002B7FF428AF00BF5C
:1098E80015B05DF804FB00BF1027002008B5024B37
:1098F8001B68984700BF08BD6C27002082B0019004
:10990800019B044A934201D1034B00E0002318460F
:1099180002B07047002000406C27002000B587B0D7
:10992800019000910198FFF7E9FF0490049B002B38
:1099380025D000238DF8173000238DF80B300DF15A
:109948000B03184603F0E2FA049B1B79002B03D0A3
:1099580001238DF8173005E0049B009A1A60049BD8
:1099680001221A719DF80B30184603F0D9FA9DF8B8
:109978001730002B03D011230393039B02E000232D
:109988000393039B184607B05DF804FB00B585B048
:1099980001900198FFF7B2FF0390039B002B05D0BD
:1099A800039B00221A60039B00221A7100BF05B0B6
:1099B8005DF804FB82B003468DF807309DF8073048
:1099C80003F01F03012202FA03F1044A9DF907304C
:1099D8005B0942F8231000BF02B0704700E100E0C5
:1099E80082B003468DF807309DF8073003F01F0357
:1099F800012202FA03F1054A9DF907305B09203379
:109A080042F8231000BF02B0704700BF00E100E039
:109A180082B0034600918DF807309DF90730002B7E
:109A28000CDA009BDAB20C499DF8073003F00F03FB
:109A3800043B5201D2B20B441A7609E0009BDAB219
:109A480006499DF907305201D2B20B4483F800232E
:109A580000BF02B0704700BF00ED00E000E100E089
:109A680082B00190019B1B0B5BB2184602B0704795
:109A780000B583B003460A468DF8073013468DF8C3
:109A880006309DF806209DF9073011461846FFF765
:109A9800BFFF00BF03B05DF804FB00B583B0034609
:109AA8008DF807309DF907301846FFF783FF00BF90
:109AB80003B05DF804FB00B583B003468DF80730AA
:109AC8009DF907301846FFF78BFF00BF03B05DF81C
:109AD80004FB84B001900B46ADF80230BDF80230AB
:109AE800019A134400221A60BDF80230019A134407
:109AF8001B680393039B00BF04B0704782B00190BA
:109B08000B46ADF80230BDF80230019A13441B68C9
:109B1800002B14BF01230023DBB2184602B07047A4
:109B280082B001900091019B009AC3F8042300BF02
:109B380002B0704782B001900091019BD3F80423D2
:109B4800009B1340002B14BF01230023DBB21846EF
:109B580002B0704782B001900091019B009AC3F84F
:109B6800082300BF02B0704784B00190019BD3F86E
:109B780080340393019B039AC3F88024039B1846FF
:109B880004B0704782B00190019B0422C3F80025FD
:109B980000BF02B0704782B00190019B0022C3F859
:109BA800002500BF02B0704784B003900291019273
:109BB800039B019AC3F81425039B029AC3F80C254A
:109BC80000BF04B0704700B583B001904FF0FF327A
:109BD8004FF0FF310198FFF7E7FF00BF03B05DF8D2
:109BE80004FB82B00190019BD3F80C35184602B0F3
:109BF800704782B00190019BD3F81435184602B023
:109C0800704782B00190019BD3F80835184602B01E
:109C1800704782B00190019BD3F81035184602B006
:109C2800704784B0039002910192039B029AC3F893
:109C38000825039B019AC3F8102500BF04B070479C
:109C480000B583B001904FF0FF324FF0FF3101981B
:109C5800FFF7E7FF00BF03B05DF804FB82B0019097
:109C6800019BD3F81835DBB2184602B0704782B0B2
:109C780001900B468DF803309DF80320019BC3F833
:109C88001C2500BF02B0704782B001900B468DF8CA
:109C980003309DF80330019A134401221A6000BF73
:109CA80002B0704782B001900B468DF8033013461E
:109CB8008DF802309DF803209DF802301343DBB283
:109CC8001A46019BC3F86C2500BF02B0704782B0EA
:109CD80001900091019B009AC3F8242500BF02B0AF
:109CE800704782B001904FF0A043184602B0704709
:109CF80000B585B00190084611461A4603468DF80E
:109D080003300B468DF8023013468DF8013001AB55
:109D18001846FFF7E6FF03909DF803209DF80230F0
:109D28005B001A439DF801309B001A439DF81830D8
:109D38001B0242EA03019DF81C301B04019A1943D7
:109D4800039B02F5E07243F8221000BF05B05DF8EE
:109D580004FB00B585B00390002301930023009312
:109D68000023012201210398FFF7C2FF00BF05B0BD
:109D78005DF804FB00B585B003900B468DF80B30F9
:109D88009DF80B2000230193002300931346002223
:109D980000210398FFF7ACFF00BF05B05DF804FB96
:109DA80000B585B00390002301930023009300239E
:109DB800012200210398FFF79BFF00BF05B05DF863
:109DC80004FB00B585B0019001AB1846FFF789FF89
:109DD8000390019B012202FA03F31946039800F04D
:109DE80004F800BF05B05DF804FB82B00190009153
:109DF800019B009AC3F8082500BF02B0704700B560
:109E080083B001900091009B1B68B3F1FF3F09D01C
:109E1800009B1B681846FFF7D4FF009B1B68184679
:109E2800FFF797FF009B5B68B3F1FF3F05D0009BEE
:109E38005B6800211846FFF79DFF019B1A68009B8D
:109E48009B6919461046FFF742FF019B1868009B63
:109E5800597D009B1B7D1A46FFF724FF019B18685C
:109E6800009B1968009B5B681A46FFF79DFE009BE4
:109E78001B7D012B22D1009B9B68B3F1FF3F05D0CE
:109E8800009B9B6800211846FFF774FF009BDB6866
:109E9800B3F1FF3F09D0009BDB681846FFF791FF3D
:109EA800009BDB681846FFF754FF019B1868009B6E
:109EB800D968009B9B681A46FFF7B3FE00BF03B042
:109EC8005DF804FB00B583B001900B468DF80330B4
:109ED800019B1B684FF48E711846FFF7FAFD019B32
:109EE8001B684FF4A2711846FFF7F3FD019B1B682E
:109EF8000E491846FFF714FE019B1B681846FFF72A
:109F0800AFFD03461A469DF8033019461046FFF781
:109F1800AFFD019B1B681846FFF7A2FD03461846D4
:109F2800FFF7BBFD00BF03B05DF804FB8000020033
:109F380000B583B00190019B1B6808491846FFF7DC
:109F480009FE019B1B681846FFF78AFD0346184661
:109F5800FFF7B1FD00BF03B05DF804FB8402020007
:109F680000B587B00190019B1B681846FFF739FEC2
:109F78000590019B1B681846FFF73BFE0490019B68
:109F88001B681846FFF73DFE0390019B1B681846A7
:109F9800FFF73FFE0290019B1B681846FFF713FE70
:109FA800019B1B681846FFF74BFE059BB3F1FF3F6B
:109FB80002D00598FFF7F4FE049BB3F1FF3F02D0EF
:109FC8000498FFF7EDFE029BB3F1FF3F02D0029821
:109FD800FFF7E6FE039BB3F1FF3F02D00398FFF7BC
:109FE800DFFE00BF07B05DF804FB000000B587B0D6
:109FF800039002910192039B1B791A462C2303FBC1
:10A0080002F3284A1344049300230593049B93F80E
:10A018002A30002B03D008230593059B3EE0039BC1
:10A028001A68039B1B7919461F4B53F821301946B0
:10A038001046FFF773FC0346002B03D0112305934A
:10A04800059B2BE002990398FFF7D9FE049B019A20
:10A058005A60029B1A69049B1A60049B5B68002B78
:10A0680005D0029B1B7F19460398FFF72BFF039B24
:10A078001B681846FFF786FD049B00229A61049B23
:10A088000022DA61049B002283F82920049B002225
:10A098005A61049B012283F82A20059B184607B0C1
:10A0A8005DF804FB74270020A4E4030000B585B024
:10A0B8000190019B1B791A462C2303FB02F3114ADA
:10A0C80013440393019B1B681846FFF764FD039B29
:10A0D8005B68002B02D00198FFF72AFF0198FFF771
:10A0E8003FFF019B1B681846FFF750FC039B0022AB
:10A0F80083F82A20039B00225A6000BF05B05DF850
:10A1080004FB00BF7427002000B585B001900091C2
:10A118004FF48E710198FFF7DCFC009B9A68009B56
:10A128001B6A13441B788DF80F30009B1B6A5A1C5E
:10A13800009B1A629DF80F3019460198FFF797FDAA
:10A1480000BF05B05DF804FB00B583B00190009135
:10A1580016E0009B93F82830DBB2002B01D00023D7
:10A1680015E04FF48E710198FFF7C8FC034683F0A1
:10A178000103DBB2002BECD100990198FFF7C4FF73
:10A18800009B1A6A009B5B699A42EAD3012318462E
:10A1980003B05DF804FB000000B587B0039002919E
:10A1A8000192039B1B791A462C2303FB02F32F4AC7
:10A1B80013440493039800F05BF80346002B03D084
:10A1C80011230593059B4CE0049B019A5A61049B5B
:10A1D800029A9A60049B00221A62049B002283F868
:10A1E800282000230593039B1B684FF48E711846A3
:10A1F800FFF76FFC039B1B6808211846FFF744FD17
:10A20800039B1B6804991846FFF77EFF049B5B6855
:10A21800002B25D1039B1B6804991846FFF794FF70
:10A22800034683F00103DBB2002B02D00F23059312
:10A2380013E000BF039B1B684FF48E711846FFF7AD
:10A248005DFC034683F00103DBB2002BF2D1039BD4
:10A258001B680C211846FFF717FD049B00225A6162
:10A26800059B184607B05DF804FB00BF7427002063
:10A2780082B00190019B1B791946074A2C2303FBE6
:10A2880001F3134414331B68002B14BF012300236C
:10A29800DBB2184602B070477427002010B582B0B0
:10A2A80001900091009B9B69002B08D14FF48471A9
:10A2B8000198FFF70EFC0198FFF7D0FC13E04FF46C
:10A2C80084710198FFF705FC009BDA68009B5B6AC4
:10A2D800D4180198FFF7C2FC03462370009B5B6A01
:10A2E8005A1C009B5A6202B010BD00B589B0039099
:10A2F8000291019201238DF81030029B0693019B75
:10A308000593039B5B68039A116804AA1046984753
:10A3180000BF09B05DF804FB00B587B0019000915B
:10A3280000238DF80830009B0493019B9B680393DE
:10A33800019B00225A61019B5B68019A116802AA7D
:10A348001046984700BF07B05DF804FB00B589B018
:10A35800019000914FF400710198FFF7EBFB034661
:10A36800002B39D04FF492710198FFF7C7FB0346D1
:10A37800002B31D04FF492710198FFF7AAFB4FF4EC
:10A3880001710198FFF7E6FB009B93F8293083F0F1
:10A398000103DBB2002B03D004210198FFF774FC02
:10A3A80002238DF808300198FFF7DEFB034605937A
:10A3B800009B9B690493009BDB680393009B00222E
:10A3C8009A61009B0022DA61009B5B68009A116821
:10A3D80002AA1046984752E004210198FFF7AAFB09
:10A3E8000346002B4BD04FF484710198FFF786FB8E
:10A3F8000346002B43D000990198FFF74FFF009BBD
:10A408009A69009B5B6A9A4239D1009BDB69002BF1
:10A4180019D0009BDB680793009B5B6A0693009B3F
:10A42800DA69009B9A61009B1A69009BDA60009BBD
:10A438000022DA61009B00225A62079A0699009866
:10A44800FFF753FF1BE0009B93F8293083F00103CB
:10A45800DBB2002B03D004210198FFF715FC4FF461
:10A4680001710198FFF776FB009B00229A61009B1F
:10A47800596A009BDB681A460098FFF736FF4FF4CD
:10A488008E710198FFF73AFB0346002B22D0009B00
:10A498001A6A009B5B699A420DD2009B93F8283098
:10A4A800DBB283F00103DBB2002B04D000990198E2
:10A4B800FFF72AFE0EE04FF48E710198FFF709FBB3
:10A4C800009B5B69002B05D0009B5B6919460098CF
:10A4D800FFF722FF4FF4A2710198FFF70FFB034625
:10A4E800002B1CD04FF4A2710198FFF7F2FA009BE1
:10A4F80093F82930002B03D000210198FFF7C4FB03
:10A50800009B9B69002B0AD0009B00229A61009B4C
:10A51800596A009BDB681A460098FFF7E6FE00BF01
:10A5280009B05DF804FB000008B503490348FFF7CC
:10A538000DFF00BF08BD00BF7427002000200040A9
:10A5480082B003468DF807309DF8073003F01F03EB
:10A55800012202FA03F1044A9DF907305B0942F827
:10A56800231000BF02B0704700E100E082B003464C
:10A578008DF807309DF8073003F01F03012202FA17
:10A5880003F1054A9DF907305B09203342F823108F
:10A5980000BF02B0704700BF00E100E082B0034690
:10A5A80000918DF807309DF90730002B0CDA009BDD
:10A5B800DAB20C499DF8073003F00F03043B52014F
:10A5C800D2B20B441A7609E0009BDAB206499DF92B
:10A5D80007305201D2B20B4483F8002300BF02B007
:10A5E800704700BF00ED00E000E100E082B001909C
:10A5F800019B03F06043B3F1005F0CBF012300230C
:10A60800DBB2184602B0704782B00190019B1B0B69
:10A618005BB2184602B0704700B583B003460A46DD
:10A628008DF8073013468DF806309DF806209DF901
:10A63800073011461846FFF7B1FF00BF03B05DF8B9
:10A6480004FB00B583B003468DF807309DF9073049
:10A658001846FFF775FF00BF03B05DF804FB00B5AF
:10A6680083B003468DF807309DF907301846FFF789
:10A678007DFF00BF03B05DF804FB84B001900B467A
:10A68800ADF80230BDF80230019A134400221A6076
:10A69800BDF80230019A13441B680393039B00BF63
:10A6A80004B0704782B001900B46ADF80230BDF897
:10A6B8000230019A13441B68002B14BF01230023A6
:10A6C800DBB2184602B0704782B001900091019B3E
:10A6D800D3F80022009BDB431A40019BC3F80022F9
:10A6E80000BF02B0704782B001900091019B009AB0
:10A6F800C3F8042300BF02B0704782B001900091F4
:10A70800019B009AC3F8082300BF02B0704784B0C9
:10A718000190019BD3F880340393019B039AC3F8FB
:10A728008024039B184604B0704782B00190019BB7
:10A738000822C3F8002500BF02B0704782B001901C
:10A74800019B0022C3F8002500BF02B0704784B007
:10A75800039002910192039B029AC3F80C25039B74
:10A76800019AC3F8142500BF04B0704700B583B040
:10A7780001904FF0FF324FF0FF310198FFF7E7FFEC
:10A7880000BF03B05DF804FB82B00190019BD3F8D1
:10A798000C35184602B0704782B00190019BD3F87F
:10A7A8001435184602B0704782B00190019BD3F867
:10A7B8000835184602B0704782B00190019BD3F863
:10A7C8001035184602B0704784B003900291019288
:10A7D800039B029AC3F80825039B019AC3F8102526
:10A7E80000BF04B0704700B583B001904FF0FF324E
:10A7F8004FF0FF310198FFF7E7FF00BF03B05DF8A6
:10A8080004FB82B001900B468DF803309DF80330AD
:10A81800019A134401221A6000BF02B0704782B047
:10A8280001900B468DF8033013468DF802309DF8E1
:10A8380003209DF802301343DBB21A46019BC3F88C
:10A848006C2500BF02B0704782B001900091019B57
:10A85800009AC3F8242500BF02B0704784B0039063
:10A8680002910192029A039BC3F84425039B019A23
:10A87800C3F8482500BF04B0704782B00190019B1F
:10A88800D3F84C35184602B0704782B00190019B4E
:10A89800D3F83C35184602B0704782B001904FF0AB
:10A8A800A043184602B0704700B585B0019008462D
:10A8B80011461A4603468DF803300B468DF80230D0
:10A8C80013468DF8013001AB1846FFF7E6FF0390F9
:10A8D8009DF803209DF802305B001A439DF8013073
:10A8E8009B001A439DF818301B0242EA03019DF8A9
:10A8F8001C301B04019A1943039B02F5E07243F8CC
:10A90800221000BF05B05DF804FB00B585B00390C8
:10A9180000230193002300930023012201210398BF
:10A92800FFF7C2FF00BF05B05DF804FB00B585B0B6
:10A9380003900B468DF80B309DF80B2000230193F4
:10A94800002300931346002200210398FFF7ACFF71
:10A9580000BF05B05DF804FB00B585B00390002387
:10A968000193002300930023012200210398FFF79D
:10A978009BFF00BF05B05DF804FB00B585B00190F2
:10A9880001AB1846FFF789FF0390019B012202FAE9
:10A9980003F31946039800F004F800BF05B05DF80A
:10A9A80004FB82B001900091019B009AC3F808252E
:10A9B80000BF02B0704700B583B001900091009BC2
:10A9C8001B68B3F1FF3F09D0009B1B681846FFF7CF
:10A9D800D4FF009B1B681846FFF797FF009B5B6836
:10A9E800B3F1FF3F05D0009B5B6800211846FFF7D5
:10A9F8009DFF019B1A68009B9B6919461046FFF74B
:10AA080023FF019B1868009B597D009B1B7D1A46FC
:10AA1800FFF705FF019B1868009B1968009B5B689E
:10AA28001A46FFF794FE009B1B7D012B22D1009B49
:10AA38009B68B3F1FF3F05D0009B9B680021184637
:10AA4800FFF774FF009BDB68B3F1FF3F09D0009B61
:10AA5800DB681846FFF791FF009BDB681846FFF795
:10AA680054FF019B1868009BD968009B9B681A4695
:10AA7800FFF7AAFE00BF03B05DF804FB00B583B082
:10AA880001900B468DF80330019B1B684FF48871C9
:10AA98001846FFF7F2FD019B1B684FF490711846AA
:10AAA800FFF7EBFD019B1B684FF492711846FFF707
:10AAB800E4FD019B1B684FF4A2711846FFF7DDFD0A
:10AAC800019B1B680E491846FFF70DFE019B1B688A
:10AAD8001846FFF799FD03461A469DF803301946B4
:10AAE8001046FFF799FD019B1B681846FFF78CFD80
:10AAF80003461846FFF7A5FD00BF03B05DF804FB49
:10AB08001003020000B583B00190019B1B6808493F
:10AB18001846FFF7F2FD019B1B681846FFF774FD06
:10AB280003461846FFF79BFD00BF03B05DF804FB22
:10AB38001003020000B587B00190019B1B681846FE
:10AB4800FFF722FE0590019B1B681846FFF724FEBD
:10AB58000490019B1B681846FFF726FE0390019B93
:10AB68001B681846FFF728FE0290019B1B681846D1
:10AB7800FFF7FCFD019B1B681846FFF734FE059B99
:10AB8800B3F1FF3F02D00598FFF7E6FE049BB3F14F
:10AB9800FF3F02D00498FFF7DFFE029BB3F1FF3FAF
:10ABA80002D00298FFF7D8FE039BB3F1FF3F02D013
:10ABB8000398FFF7D1FE00BF07B05DF804FB000063
:10ABC80000B587B0039002910192039B1B791A4646
:10ABD8001346DB0013449B00264A134404930023C6
:10ABE8000593049B93F82030002B03D0082305938A
:10ABF800059B3AE0039B1A68039B1B7919461E4B79
:10AC080053F8213019461046FEF788FE0346002BFC
:10AC180003D011230593059B27E002990398FFF7BA
:10AC2800CAFE049B019A5A60029B1A69049B1A6027
:10AC3800049B5B68002B05D0029B1B7F1946039879
:10AC4800FFF71CFF039B1B681846FFF76EFD049B6C
:10AC580000229A61049B0022DA61049B00225A6157
:10AC6800049B012283F82020059B184607B05DF855
:10AC780004FB00BFA0270020B0E4030000B585B0A6
:10AC88000190019B1B791A461346DB0013449B0075
:10AC9800104A13440393019B1B681846FFF74EFDA7
:10ACA800039B5B68002B02D00198FFF72BFF0198EC
:10ACB800FFF740FF019B1B681846FEF767FE039BE2
:10ACC800002283F82020039B00225A6000BF05B0B1
:10ACD8005DF804FBA027002000B589B0039002911D
:10ACE8000192039B1B791A461346DB0013449B0011
:10ACF800394A134405930298FFF778FC034683F01A
:10AD08000103DBB2002B03D010230793079B5EE0FF
:10AD1800039800F063F80346002B03D01123079330
:10AD2800079B54E0059B019A5A61059B029A9A6019
:10AD380000230793039B1B684FF490711846FFF795
:10AD48009CFC039B1B684FF4AC711846FFF795FCFD
:10AD5800039B1868059B9968059B5B691A46FFF772
:10AD68007DFD039B1B6808211846FFF74AFD059BDC
:10AD78005B68002B2AD1039B1B684FF4907118461F
:10AD8800FFF790FC03468DF81B30039B1B684FF4BC
:10AD9800AC711846FFF786FC03468DF81A309DF80B
:10ADA8001B3083F00103DBB2002B06D09DF81A306C
:10ADB80083F00103DBB2002BDDD19DF81A30002BA4
:10ADC80001D00F230793059B00225A61079B184661
:10ADD80009B05DF804FB00BFA027002082B00190F5
:10ADE800019B1B791946084A0B46DB000B449B0064
:10ADF800134414331B68002B14BF01230023DBB258
:10AE0800184602B0704700BFA027002000B589B0DF
:10AE180003900291019201238DF81030029B069352
:10AE2800019B0593039B5B68039A116804AA10466B
:10AE3800984700BF09B05DF804FB00B587B00190E2
:10AE4800009100238DF80830009B0493019B9B68B8
:10AE58000393019B00225A61019B5B68019A116868
:10AE680002AA1046984700BF07B05DF804FB00B57A
:10AE780089B0019000914FF492710198FFF712FC8C
:10AE88000346002B22D04FF492710198FFF7F5FB8F
:10AE980002238DF808300198FFF739FC0346059323
:10AEA8000198FFF7F2FC03460493009BDB680393C9
:10AEB800009B00229A61009B0022DA61009B5B687C
:10AEC800009A116802AA104698473BE04FF488712F
:10AED8000198FFF7E7FB0346002B33D04FF4887146
:10AEE8000198FFF7CAFB0198FFF7CFFC0790009B7A
:10AEF8009B69079A9A4225D1009BDB69002B17D0E2
:10AF0800009BDB68069320210198FFF7DDFB009B7F
:10AF1800DA69009B9A61009B1A69009BDA60009BC2
:10AF28000022DA61069A07990098FFF76FFF09E097
:10AF3800009B00229A61009BDB681A4607990098DB
:10AF4800FFF764FF4FF4A2710198FFF7ABFB0346CC
:10AF5800002B18D04FF4A2710198FFF78EFB009BCD
:10AF68009B69002B0FD0009B00229A61009B002256
:10AF7800DA610198FFF789FC0146009BDB681A46F5
:10AF88000098FFF743FF4FF490710198FFF78AFB91
:10AF98000346002B10D04FF490710198FFF76DFB1A
:10AFA800009B5B69002B07D00198FFF766FC0346FE
:10AFB80019460098FFF741FF00BF09B05DF804FB90
:10AFC80008B503490348FFF752FF00BF08BD00BF9B
:10AFD800A02700200020004031DF704700BF18463E
:10AFE80000B585B003468DF8073000238DF80F3083
:10AFF8000DF10F03184601F089FF0CF0E7FD034639
:10B0080083F00103DBB2002B0DD00DF107031946C5
:10B0180009480BF077F908480BF059F90346002B5B
:10B0280001D000F048FA9DF80F30184601F078FF7B
:10B0380000BF05B05DF804FB24D8030000B585B057
:10B048000190002303931C4B1B78002B01D0852310
:10B058002EE0019B002B01D1184B0193164B019A4E
:10B06800013312881A8000238DF80B300DF10B0381
:10B07800184601F04BFF0CF0A9FD034683F00103CD
:10B08800DBB2002B0BD00E490E4800F0D9F9039023
:10B09800039B002B01D0039B0AE000F0FFF9064B4D
:10B0A80001221A709DF80B30184601F039FF039BF6
:10B0B800184605B05DF804FBC4270020B8E4030077
:10B0C800E9AF0200C527002000B583B000238DF842
:10B0D80007300DF10703184601F018FF0CF076FD54
:10B0E800034683F00103DBB2002B03D000F0E3F941
:10B0F80000F0EAF99DF80730184601F011FF0548FD
:10B108000BF03DFA044B00221A7000BF03B05DF843
:10B1180004FB00BF24D80300C427002000B585B075
:10B1280001900B468DF803300023039300238DF81C
:10B138000A300DF10A03184601F0E8FE0CF046FD4E
:10B1480003468DF80B309DF80B3083F00103DBB21A
:10B15800002B09D09DF803301A46019912480BF0CC
:10B16800E1F9039000F09AF99DF80A30184601F0C9
:10B17800D7FE9DF80B30002B0DD09DF803301946F3
:10B188000198FFF729FF0390039B42F207029342BD
:10B1980001D105230393039B022BC7D0039B1846B9
:10B1A80005B05DF804FB00BF24D8030000B585B0E6
:10B1B8000190009116E0009B402B28BF4023039389
:10B1C800039BDBB219460198FFF7A8FF0290029B88
:10B1D800002BF5D1009A039BD31A0093019A039B85
:10B1E80013440193009B002BE5D100BF05B05DF827
:10B1F80004FB000000B585B0034600918DF80730C8
:10B208009DF80730002B02D0032B09D022E0134B06
:10B218001B78012B1DD100F04EF900F055F918E00C
:10B2280000238DF80B300DF10B03184601F06EFE6C
:10B238000A4B1B78012B06D109490A4800F000F98E
:10B24800039000F02BF99DF80B30184601F068FECA
:10B2580000E000BF00BF05B05DF804FBC427002074
:10B26800E9AF0200C527002082B003468DF80730F9
:10B278009DF8073003F01F03012202FA03F1044A84
:10B288009DF907305B0942F8231000BF02B07047F0
:10B2980000E100E082B003468DF807309DF80730E2
:10B2A80003F01F03012202FA03F1054A9DF9073052
:10B2B8005B09203342F8231000BF02B0704700BF7B
:10B2C80000E100E082B0034600918DF807309DF957
:10B2D8000730002B0CDA009BDAB20C499DF80730D6
:10B2E80003F00F03043B5201D2B20B441A7609E073
:10B2F800009BDAB206499DF907305201D2B20B44DD
:10B3080083F8002300BF02B0704700BF00ED00E0E3
:10B3180000E100E000B583B003460A468DF8073027
:10B3280013468DF806309DF806209DF90730114622
:10B338001846FFF7C7FF00BF03B05DF804FB00B570
:10B3480083B003468DF807309DF907301846FFF79C
:10B358008BFF00BF03B05DF804FB00B583B0034664
:10B368008DF807309DF907301846FFF793FF00BFA7
:10B3780003B05DF804FB000082B00190034A019B12
:10B38800C2F8043300BF02B0704700BF00D00040CD
:10B3980082B00190034A019BC2F8083300BF02B093
:10B3A800704700BF00D0004082B003468DF80730D8
:10B3B8009DF8073003F1804303F5504301221A60DA
:10B3C80000BF02B0704784B00346ADF80630BDF840
:10B3D800063003F1804303F5504300221A60BDF89C
:10B3E800063003F1804303F550431B680393039B26
:10B3F80000BF04B07047000082B00190054BD3F83D
:10B408000022019BDB4303491340C1F8003200BF0F
:10B4180002B0704700D00040024BD3F80835DBB2C9
:10B428001846704700D00040044BD3F80435034A4F
:10B4380043F00103C2F8043500BF704700D0004054
:10B4480000B583B001900091124B1B78002B01D0FE
:10B4580085231BE0104A009B1360019B1B7803F0B7
:10B468000103DBB2002B01D0FFF7DEFF0120FFF75D
:10B47800C3FF019B5B7819460D20FFF74BFF0D209A
:10B48800FFF75DFF034B01221A700023184603B033
:10B498005DF804FB182800201C28002008B54FF48C
:10B4A8008070FFF790FF0120FFF766FF0020FFF78D
:10B4B8007BFF00BF08BD08B50120FFF769FF042026
:10B4C800FFF772FF00BF08BD08B50120FFF760FF56
:10B4D8000420FFF769FF0D20FFF73FFF024B002212
:10B4E8001A7000BF08BD00BF1828002000B583B03F
:10B4F8004FF48070FFF767FFFFF78EFF03468DF864
:10B508000730054B1B689DF807201046984700BF79
:10B5180003B05DF804FB00BF1C28002082B003467E
:10B528008DF807309DF8073003F01F03012202FA57
:10B5380003F1044A9DF907305B0942F8231000BF64
:10B5480002B0704700E100E082B0034600918DF838
:10B5580007309DF90730002B0CDA009BDAB20C4952
:10B568009DF8073003F00F03043B5201D2B20B449D
:10B578001A7609E0009BDAB206499DF907305201B4
:10B58800D2B20B4483F8002300BF02B0704700BF5B
:10B5980000ED00E000E100E000B583B003460A4694
:10B5A8008DF8073013468DF806309DF806209DF972
:10B5B800073011461846FFF7C7FF00BF03B05DF814
:10B5C80004FB00B583B003468DF807309DF90730BA
:10B5D8001846FFF7A3FF00BF03B05DF804FB82B075
:10B5E80003468DF807309DF8073003F1804303F5D3
:10B5F800E04301221A6000BF02B0704782B00346E0
:10B60800ADF80630BDF8063003F1804303F5E0439A
:10B618001B68002B14BF01230023DBB2184602B0BD
:10B62800704784B00346ADF80630BDF8063003F124
:10B63800804303F5E04300221A60BDF8063003F1A9
:10B64800804303F5E0431B680393039B00BF04B0EA
:10B658007047000082B003468DF807300B468DF81E
:10B66800063013468DF805300A499DF807309DF8D5
:10B67800052051331B010B4404331A6005499DF81A
:10B6880007309DF8062051331B010B441A6000BF98
:10B6980002B070470070004082B00190034A019BDD
:10B6A800C2F8043300BF02B0704700BF007000400A
:10B6B80082B00190034A019BC2F8083300BF02B070
:10B6C800704700BF00700040024B0122C3F80025FC
:10B6D80000BF704700700040024B0022C3F80025ED
:10B6E80000BF70470070004082B001900091054A89
:10B6F800019BC2F82C36034A009BC2F8303600BFC3
:10B7080002B070470070004082B003468DF80730E1
:10B71800034A9DF80730C2F8F03500BF02B0704701
:10B728000070004082B003468DF80730034A9DF848
:10B738000730C2F8F43500BF02B07047007000400F
:10B7480000B583B0034600918DF80730009B1B7845
:10B7580003F00302009B5B781B0103F030031A43DC
:10B76800009B9B781B0203F4E0631A43009BDB7881
:10B778001B0303F480531A43009B1B791B0403F437
:10B78800E0231A43009B5B791B0503F4801342EA0C
:10B798000301009B9B791B0603F080720A489DF801
:10B7A80007300A431B01034403F5A3631A60009B97
:10B7B800D979009B1A7A9DF807301846FFF74AFF97
:10B7C80000BF03B05DF804FB0070004000B58FB007
:10B7D8004FF48270FFF712FF0346002B46D04FF458
:10B7E8008270FFF71EFF8F4B93F82E3083F0010312
:10B7F800DBB2002B04D18B4B93F82F30002B35D0C4
:10B8080000238DF81830874B5B680793854B1B899D
:10B818009BB2ADF82030834BDB68002B03D1814B02
:10B8280000221A7419E07F4B1A8B7E4B5A837D4B8A
:10B83800DB687C4A53607B4B1A8B7A4B1A81794BB5
:10B848000022DA60774B93F82E3083F00103DBB2E5
:10B85800002B02D00020FFF7C2FE724B1B6806AA1D
:10B86800104698476F4B002283F82F206D4B93F8B2
:10B878002E30002B62D04FF48070FFF7BFFE0346D6
:10B88800002B5BD04FF48070FFF7CBFE654B5A8BD3
:10B89800644B93F82D309BB29A421CD9614B5A8B5A
:10B8A800604B93F82D309BB2D31A9AB25D4B5A83F2
:10B8B8005C4B5A685B4B1B899BB21946594B5B8B97
:10B8C800CB1A5B001A44574B93F82D301946104693
:10B8D800FFF70AFF2BE0534B5A8B524B93F82D304E
:10B8E8009BB29A4214D14F4BDB68002B10D04D4BC2
:10B8F800012283F82F204B4B00225A83494BDA68E8
:10B90800484B93F82D3019461046FFF7EDFE0EE030
:10B91800444B5A8B434B93F82D309BB29A4206D135
:10B92800404B012283F82F203E4B00225A834FF4CC
:10B938008270FFF776FE0420FFF751FE4FF48870FF
:10B94800FFF75CFE0346002B0ED04FF48870FFF71C
:10B9580068FE344B00221A7402238DF80C30314BE8
:10B968001B6803AA104698474FF48A70FFF746FEF3
:10B978000346002B07D04FF48A70FFF752FE294B7D
:10B9880000221A7449E0274B5B690D9342E00D9B36
:10B998000A930A9BB3FA83F30993099BDBB20C93CE
:10B9A8004FF000420C9B22FA03F3DB430D9A13403D
:10B9B8000D930C9B9BB246339BB29B00ADF82E3087
:10B9C800BDF82E301846FFF719FE0346002B21D08C
:10B9D800BDF82E301846FFF724FE01238DF80030FD
:10B9E800BDF82E30A3F58C73DB08DBB28DF804307C
:10B9F800BDF82E30A3F58C7303F00403002B0CBFA5
:10BA080001230023DBB28DF80530064B1B686A461C
:10BA1800104698470D9B002BB9D100BF0FB05DF8B9
:10BA280004FB00BF2028002000B585B001900091DC
:10BA38002C4B93F82C30002B03D008230393039B43
:10BA48004CE0284A009B1360019B1B781846FFF7BF
:10BA58005BFE019B5B781846FFF764FE019BDA7872
:10BA6800204B83F82E201F4B012283F82C201D4BDE
:10BA780000221A741B4B002283F82D20194B002238
:10BA88005A61184B002283F82F206FF00040FFF70F
:10BA98000FFE4FF48270FFF7C4FD4FF48070FFF77C
:10BAA800C0FD4FF48A70FFF7BCFD019B9B781946D7
:10BAB8000720FFF771FD0720FFF783FD0220FFF73E
:10BAC800EBFD084B93F82E30002B02D00120FFF736
